:020000040800F2
:100000004010002085010008E9010008E101000816
:10001000E5010008D90100082104000800000000E3
:10002000000000000000000000000000F1010008D6
:10003000DD01000800000000ED010008F5010008E6
:100040009F0100089F0100089F0100089F01000810
:100050009F0100089F0100089F0100089F01000800
:100060009F0100089F0100089F0100089F010008F0
:100070009F0100089F0100089F0100089F010008E0
:100080009F0100089F0100089F0100089F010008D0
:100090009F0100089F0100089F0100089F010008C0
:1000A0009F0100089F0100089F0100089F010008B0
:1000B0009F0100089F0100089F0100089F010008A0
:1000C0009F0100089F0100089F0100089F01000890
:1000D0009F010008750200089F0100089F010008A9
:1000E0009F0100089F0100089F0100080000000018
:1000F0000000000000000000000000000000000000
:10010000000000009F0100089F010008000000009F
:100110009F0100089F01000800000000000000008F
:100120009F0100089F0100089F0100089F0100082F
:1001300000000000000000000000000000000000BF
:100140000000000000000000000000009F01000807
:1001500000000000000000009F0100089F0100084F
:100160000000000000000000000000009F010008E7
:10017000DFF80CD000F018F800480047B10C000878
:10018000401000200648804706480047FEE7FEE78B
:10019000FEE7FEE7FEE7FEE7FEE7FEE7FEE7FEE737
:1001A000F9010008710100081CB5094800900948D0
:1001B00001900546009C06E0E06840F0010394E8E9
:1001C000070098471034AC42F6D3FFF7D5FF000084
:1001D0006C1500088C150008FEE700007047000051
:1001E000FEE70000FEE700007047000070470000D7
:1001F0007047000001F034B941F20000C4F202007F
:10020000C16941F08051C16147F25001C4F200015F
:100210000A7842F004020A70C16921F08051C1617C
:10022000016841F00101016001688907FCD541685E
:1002300021F00301416000BF416811F00C0FFBD1B8
:1002400001684FF6FF72CFF6F262114001600021A3
:10025000416041F61071C1624FF4801101634FF4A7
:100260001F0181604EF60850CEF200004FF0006191
:100270000160704770B543F60004C4F201042046E3
:10028000202100F09BFF002800F0C580204600F0F0
:1002900007FF40F20806C2F20006318840F61C044F
:1002A000C2F200046054481C81B2162930803FD14C
:1002B00040F214416FF00300C2F200012218D2F89C
:1002C00005200B18043012BA0C285A60F6D140F2FF
:1002D0001440C2F20000042100F092F9054600F03B
:1002E0009DF9607CB0EB156F22D1A07CC5F307416E
:1002F00088421DD1E07CC5F30721884218D1207DBA
:10030000E9B2884214D16278A1782079012A08BF25
:10031000012907D0022A08BF012907D130B900F00E
:1003200075FE03E00028F5D100F0DCFD00203080F0
:10033000308840F20C4188426DD120780021D128CC
:10034000318069D194F80B04F02865D140F2144053
:10035000C2F2000040F204426318D3F801301BBA25
:10036000435004319142F7D121444A1E0021182301
:10037000967801329E40083B3143082BF8D1C0F8F3
:1003800004144FF4817100F03BF9054600F046F982
:1003900094F80704B0EB156F3ED194F80804C5F348
:1003A0000741884238D194F80904C5F307218842EF
:1003B00032D194F80A04E9B288422DD140F21005F6
:1003C000C2F200052846214607224FF4806300F060
:1003D000D7F840F20006C2F200063068294600F065
:1003E0000FFB306800F58060306000F00FFEA078F1
:1003F000042810D144F20700C0F6000000784FF046
:100400000061B1EB006F18BF70BD40F20A00C2F28C
:1004100000000121017070BDBDE8704000F0ACBD6E
:10042000FEE7000000F01F01012202FA01F11C2288
:1004300002EAD0004EF28022CEF2000281507047D4
:1004400070B582B001900198006800F16040B0F58D
:10045000004F00F29380FFE70124C0F21C04204605
:10046000002100F03DFA0E25C0F2180528460021B3
:1004700000F036FA0226C0F218063046002100F0DD
:100480002FFA0620C0F21400002100F029FA4FF4E0
:10049000A010002100F024FA4FF4C010002100F059
:1004A0001FFA3046002100F01BFA0320C0F21800AA
:1004B000002100F015FA0420C0F21800002100F01D
:1004C0000FFA0520C0F21800002100F009FA0720F9
:1004D000C0F21800002100F003FA0920C0F2180051
:1004E000002100F0FDF90C20C0F21800002100F0FE
:1004F000F7F92846002100F0F3F94FF4E01000214D
:1005000000F0EEF92046002100F0EAF91120C0F2D7
:100510001C00002100F0E4F91220C0F21C000021B0
:1005200000F0DEF91320C0F21C00002100F0D8F921
:10053000252000F0F7FB1D2000F0F4FB262000F042
:10054000F1FB282000F0EEFB2620FFF76BFF2820B0
:10055000FFF768FF2520FFF765FF1D20FFF762FF0B
:100560000198406840F20C01C2F200010860019855
:10057000006880F3088808688047FFE702B070BD14
:1005800010B501EB020C5FEA8C7118BF002B02D191
:10059000042B16D225E00CF1010E591E002200BFDB
:1005A0001CF8024084540EEB0204A40702F101047B
:1005B00002D091422246F3D12044A4441B1B042BB9
:1005C0000FD39A08ACF10401043800BF51F8044F6E
:1005D000013A40F8044FF9D103F0030301F1040C90
:1005E0000430002B08BF10BD0138ACF1010100BF81
:1005F00011F8012F013B00F8012FF9D110BD0000C7
:1006000043F20002C4F2020229B1043850F8043F58
:1006100001391360FAD110687047000043F20800F6
:10062000C4F20200016841F001010160704700005E
:1006300043F21001C4F202010860704743F208015E
:10064000C4F202010A6800F0030022F0180242EA34
:10065000C00008607047000043F21401C4F20201B8
:100660000860704743F20801C4F202010A6800F012
:10067000030022F0600242EA401008607047000068
:1006800043F20801C4F202010A6800F0010022F0FE
:10069000800242EAC01008607047000041F2040185
:1006A000C4F202010A6800F00F0022F0F00242EAF0
:1006B000001008607047000041F20401C4F202011A
:1006C0000A6800F0070022F4E06242EA00200860B5
:1006D0007047000041F20401C4F202010A6800F010
:1006E000070022F4605242EAC02008607047000010
:1006F00041F25401C4F202010A68012822F03002DA
:1007000008BF30320A607047042888BF7047DFE8AE
:1007100000F0032B15220C0041F20000C4F202008D
:10072000026861F300020260704741F20000C4F207
:100730000200426A61F300024262704741F2000027
:10074000C4F20200026801F0010122F0807242EA64
:1007500001610160704741F20000C4F20200026AC8
:1007600061F300020262704741F20000C4F202002D
:10077000026801F0010122F4803242EA0141016085
:100780007047000041F20401C4F202010B6841F21B
:100790000022C0F27A02C3F38103F0B5DFE803F070
:1007A0002B02360202600A6837A3C2F303129A5C76
:1007B000036841F2625723FA02F242600B68C0F606
:1007C0000007C3F30223FB5C22FA03F3C3600B6848
:1007D000C3F3C223FB5C0427DA4082600B6809681C
:1007E00007EA9363C1F3813119442BA3595CB2FB2F
:1007F000F1F10161F0BD0B6D9B05D3D5CB6A9B0177
:1008000044BF46F60042C0F2DC22CBE70B688C6A9C
:100810001F0C002C1ED40C680B68A40CC3F341738E
:100820001D0104F00F046E1C0F2C354618BF022565
:10083000002B18BF3546FB0705EB040304D00F68F7
:10084000BF0301D45A43ADE740F60012C0F23D02A7
:100850005A43A7E78B6A8C6AC3F3031E8B6A40F680
:10086000001CC0F23D0CC4F30824FD0703F007038D
:1008700003D00D68AD0358BF94460CFB04F20EFA8A
:1008800003F3B2FBF3F28DE700000000000000006C
:10089000010203040607080902040608020C0810F6
:1008A00041F20002010CC4F20202895800F01F005C
:1008B00021FA00F000F001007047000041F2000052
:1008C0000021C4F2020000BF0268920304D4B1F513
:1008D000405F01F10101F7D30068C0F34040704769
:1008E00041F2000200F01F034FF0010CC4F20202BB
:1008F00001290CFA03F14FEA1040835814BF23EA90
:10090000010119438150704741F20402C4F202020E
:10091000136858B143F480331360136801280DD174
:1009200023F4003010604FF000700BE023F48030AF
:100930001060D06A40F00070D06202E043F40030F2
:1009400010600020136861F3954313601368090970
:1009500061F35E731360916A21F0E0610843906275
:100960007047000041F20000C4F20200016841F04B
:100970000101016001688907FCD5416821F003018C
:10098000416000BF416811F00C0FFBD101684FF6C8
:10099000FF72CFF6F262114001600021416041F622
:1009A0001071C1624FF4801101634FF41F01816027
:1009B0007047000041F20401C4F202010A6860F3CA
:1009C00001020A6000BF00BF00BF00BF00BF00BF40
:1009D00000BF00BF00BF00BF00BF00BF00BF00BF1F
:1009E00000BF00BF00BF00BF00BF00BF70470000D6
:1009F00041F20400C4F202000068C0F381007047B5
:100A0000F0B581B00C46054600F0AAF8284600F083
:100A100065F84FF2E070C1F6FF700068FF2803D858
:100A200005F5806000F05AF8002640F2FE7700BF1E
:100A3000A15BA81900F00AF8BE4206F10206F7D33E
:100A400001B0BDE8F04000F03FB8000042F20C02F7
:100A5000C4F20202536843F001035360018010683E
:100A6000C0070AD1106840070AD41068C0064FF0CA
:100A7000020058BF032008BB04E00020F0B901E0E9
:100A80000120D8B94FF480111068C0070AD110684E
:100A9000400709D41068C0064FF0020058BF032079
:100AA00003E000BF002000E00120A1F1010310B924
:100AB00001291946E8D1002B08BF0420516821F014
:100AC000010151607047000042F21000C4F20200C0
:100AD000016841F0800101607047000042F20C01A2
:100AE000C4F202014A6842F002024A608860486823
:100AF00040F0400048600868C0070AD10868400715
:100B00000AD40868C0064FF0020058BF032008BB93
:100B100004E00020F0B901E00120D8B94FF0804294
:100B20000868C0070AD10868400709D40868C006E9
:100B30004FF0020058BF032003E000BF002000E098
:100B40000120A2F1010310B9012A1A46E8D1002BB5
:100B500008BF04204A6822F002024A607047000081
:100B600042F2040040F22311C4F20200C4F26751C1
:100B7000016048F6AB11CCF6EF5101607047000000
:100B800043F60000C0F6000000684BF2C841CBF607
:100B9000AB610844B0FA80F04009704740F200426F
:100BA0004FF6FF71C0F20012C0E90012704700005A
:100BB000B0B58B790A88032B0BD07BB949792829EA
:100BC00001F00F0E18D0182908BF0261110616D1C6
:100BD0002EE04FF0000E110611D129E003F0080CB1
:100BE0000B79C97903F00403634401F0030103EBBB
:100BF000010E110603D11BE04261110618D000233B
:100C00004FF00F0C002104E00131082903F1040327
:100C10000ED022FA01F4E407F6D004680CFA03F5CA
:100C2000AC43046004680EFA03F52C430460EBE760
:100C3000B2F5807F38BFB0BD120A00234FF00F0C11
:100C4000002104E00131082903F104030ED022FA47
:100C500001F4E407F6D044680CFA03F5AC434460B1
:100C600044680EFA03F52C434460EBE7B0BD000086
:100C7000B0B5C0F3074353FA90F2C2F120024FF02F
:100C8000FF3E2EFA02F40EFA03F240F2000E4FEA93
:100C9000106CC4F2010E5CF80E50224025EA0202EC
:100CA000C0B29840002918BF02434CF80E20B0BDD6
:100CB00044F20004C0F6000400F082FB00F062FB86
:100CC00000F028FB00F02EFB00F0D4FB00F0F2FB5C
:100CD00000F008FBFFF754FF40B9E0794FF00061E6
:100CE000B1EB006F02D12046FFF7AAFBFFF748FFE8
:100CF000002818BF00F08AF940F20A05C2F2000588
:100D000000264FF0006700BF28780128FCD1E07969
:100D10002E70B7EB006FF7D1FFF724FE2046FFF7E8
:100D20008FFBF1E7002848BF704700F01F01012248
:100D300002FA01F11C2202EAD0004EF28012CEF239
:100D400000028150BFF34F8FBFF36F8F70470000D9
:100D5000B0B54EF60C5ECEF2000EDEF800304FF06D
:100D6000FF35C3F3022383F00704042C28BF0424B7
:100D7000033B05FA04F438BF0023A143994005FA68
:100D800003F39A4300F00F03043B4EF2001C73443C
:100D9000CEF2000C11430C33B0F1FF3F4FEA0111CA
:100DA00000EB0C02C8BF02F540730028197048BF61
:100DB000B0BD00F01F01012202FA01F1C0F34210A0
:100DC0004CF82010B0BD00004EF60C51CEF20001E0
:100DD0000A684FF6FF031A4060F30A2242F080606F
:100DE00040F0FD7008607047B0B541F2040441F274
:100DF0000025C4F20204C0F27A05FFF7F9FD0228CB
:100E00000CD000284AD1206D800547D5E06A8001CA
:100E100044BF46F60045C0F2DC253FE02068A16AE9
:100E20004FEA104C002920D421682268890CC2F3B3
:100E30004172130101F00F01581C0F29034618BF1E
:100E40000223002A18BF03465FEACC7003EB0100BF
:100E500004D02168890301D445431FE040F6001106
:100E6000C0F23D0100FB01F518E0A06AA36AC0F3DF
:100E7000031EA06A40F60011C0F23D01C3F308232F
:100E80005FEACC7200F0070003D02268920358BFDB
:100E9000294659430EFA00F0B1FBF0F540F2040088
:100EA000C2F200000560216804A2C1F30311515C85
:100EB000026822FA01F10160B0BD00BF000000002D
:100EC0000000000001020304060708094EF21001A9
:100ED000CEF200010A68042822F0040208BF04329E
:100EE0000A60704770B540F6284640F2D1100121E3
:100EF000C2F20006C0F20100C1F60A01002286E833
:100F0000070040F214416FF00300C2F20001F260EA
:100F1000327400BF3218D2F805200B18043012BA10
:100F20000C285A60F6D140F2144043F60004C2F295
:100F300000000421C4F20104FFF762FB0546FFF73D
:100F40006DFB280E7074280CB074280AF074357587
:100F5000F0200025707500BF715D204600F0A4F8F8
:100F60002046402100F0AEF80028F9D00135162DBA
:100F700008BF70BDF0E7000070B540F6284640F2AB
:100F8000D1200121C2F20006C0F20200C1F60A011E
:100F9000002286E8070040F214416FF00300C2F21D
:100FA0000001F260327400BF3218D2F805200B182D
:100FB000043012BA0C285A60F6D140F2144043F6BD
:100FC0000004C2F200000421C4F20104FFF718FB80
:100FD0000546FFF723FB280E7074280CB074280A0E
:100FE000F0743575F0200025707500BF715D2046E6
:100FF00000F05AF82046402100F064F80028F9D0AB
:101000000135162D08BF70BDF0E7000070B540F641
:10101000284640F2D1200121C2F20006C0F20200AF
:10102000C1F60A51002286E8070040F214416FF031
:101030000300C2F20001F260327400BF3218D2F82D
:1010400005200B18043012BA0C285A60F6D140F271
:10105000144043F60004C2F200000421C4F201046B
:10106000FFF7CEFA0546FFF7D9FA280E7074280C60
:10107000B074280AF0743575F0200025707500BF33
:10108000715D204600F010F82046402100F01AF86B
:101090000028F9D00135162D08BF70BDF0E700001B
:1010A000406880B2704700006FF35F214160704775
:1010B000C26801F0010122F4005242EA4131C160EC
:1010C000704700000068084018BF0120704700000A
:1010D000032988BF7047DFE801F00213060A41695F
:1010E00021F480710FE0416921F4807102E04169CF
:1010F00041F480714161416941F40071416170477F
:10110000416941F480714161416921F4007141619B
:10111000704700002DE9F04186B001AD0446284635
:10112000984616460F46FFF72DFB43F6000105F1E2
:101130000C00C4F201018C4208BF05F108000068F0
:101140004CF6CD4100EB80004000B0FBF7F0CCF650
:10115000CC41A0FB0112D10801EB8103A0EB4300BD
:101160000428A0684FF0010388BF03EBD201C1EA55
:101170000000A060E06806F0010120F4805040EA21
:101180000130E060206908F0030120F4405040EA9B
:101190000130206106B0BDE8F081000001F01F03BE
:1011A0004FF0010C012A0CFA03F24FEA11410B58DF
:1011B00014BF23EA02021A430A5070477F294FF0F6
:1011C000000C00F32A804B1E3F2B00F24E80DFE81C
:1011D00003F03C204C204C4C4C324C4C4C4C4C4C76
:1011E0004C404C4C4C4C4C4C4C4C4C4C4C4C4C4C4B
:1011F0004C384C4C4C4C4C4C4C4C4C4C4C4C4C4C43
:101200004C4C4C4C4C4C4C4C4C4C4C4C4C4C4C4C1E
:101210004C30426902F0010C27E080291DD0B1F565
:10122000807F1FD0B1F5007F1FD14269C2F3802CAF
:101230001BE0C26817E0C2689206EAD54FF0010CC5
:1012400013E0C268C2F3401C0FE0C268C2F3002C76
:101250000BE0C268C2F3001C07E0C268D2B24FEADA
:10126000D21C02E00269C2F3801CBCF1000F04BF73
:10127000002070470068084018BF01207047000038
:10128000022911D001290BD0002918BF7047C1686D
:1012900021F40071C160C16821F48061C1607047B0
:1012A000C16821F4007102E0C16841F40071C160BD
:1012B000C16841F48061C16070470000C26801F0FC
:1012C000010122F0040242EA8101C160704700007E
:1012D000C26801F0010122F0080242EAC101C160C6
:1012E0007047000080B54FF0FF30FFF7A1F90020F4
:1012F000FFF7A4F941F6B750C0F2C140FFF7ACF9CF
:101300000020FFF7AFF90020FFF7BAF9BDE88040F1
:10131000FFF784B940F20230C3F210000121FFF759
:10132000A7BC000080B50320FFF74EFD4EF60C531E
:10133000CEF20003186800201873196858731968F2
:1013400098731968D87419681875196898751968A8
:10135000C1F3022181F00702042A28BF04220339C5
:1013600038BF01464FF0FF309040C04388404FEAFD
:10137000001C25200021002283F817C0BDE8804012
:10138000FFF7E6BC10B50620C0F214000121FFF7FC
:10139000A7FA4FF4C0100121FFF7A2FA0224C0F20D
:1013A000180420460121FFF79BFAE01C0121FFF7FA
:1013B00097FA04F10C000121BDE81040FFF790BA44
:1013C00010B5FFF7CFFA42F20000C4F20200142178
:1013D000016004200121FFF797F90124C0F22404E1
:1013E0002046FFF75DFA0128FAD101200121FFF71D
:1013F0008BF900BFFFF762FA0028FBD00020012123
:10140000FFF782F90120FFF74BFA0128FAD10020FB
:101410002321FFF779FA02200121FFF775F900BFB8
:101420001920FFF73DFA0128FAD10020FFF736F91D
:101430000420FFF74FF90420FFF73EF90120FFF7E2
:1014400057F90220FFF7B6FAFFF7D2FA0228FBD1CC
:101450000020FFF74DF9BDE81040FFF7C5BC0000C4
:10146000AFF3008040F21040C2F200000168013189
:1014700001607047B0B586B001A8FFF783F9029C00
:1014800000200025FFF722FD44F6D350C1F2620090
:10149000A4FB00014FF0FF3000EB51204EF2100191
:1014A000CEF2000148608D60086840F003000860DB
:1014B00006B0B0BD70B582B06D462846FFF76EFB32
:1014C00040F2004043F60004C0F20820C4F20104D8
:1014D00001904FF40070A4F5405600903046294624
:1014E000FFF766FB40F20040C0F2002001904FF48D
:1014F0008060009030462946FFF75AFB20464FF4A3
:10150000E13100220023FFF705FE20460121FFF70D
:10151000DFFE20460121FFF7D1FE20460021FFF724
:10152000AFFE20460021FFF7D3FD0521C0F20C01DC
:1015300020460122FFF732FE20460121FFF7B8FDC9
:1015400002B070BD02E008C8121F08C1002AFAD11B
:1015500070477047002001E001C1121F002AFBD133
:10156000704700000000010203040000901500080D
:10157000000000200800000044150008981500082D
:10158000080000203810000054150008000000007A
:081590000040000800127A007F
:04000005080001717D
:00000001FF
