:020000040800F2
:10400000400E002085410008BB670008394D0008BC
:10401000B9670008114A0008B973000800000000E1
:10402000000000000000000000000000736C0008A9
:10403000134A000800000000716C0008756C00084D
:104040009F4100089F4100089F4100089F410008D0
:104050009F4100089F4100089F4100089F410008C0
:104060009F4100089F4100089F4100089F410008B0
:104070009F4100089F4100089F4100089F410008A0
:104080009F4100089F4100089F4100089F41000890
:104090009F4100089F4100089F4100089F41000880
:1040A0008D6E00089F4100089F4100089F41000855
:1040B0009F4100089F4100089F4100089F41000860
:1040C0009F4100089F4100089F4100089F41000850
:1040D0009F410008917300089F4100089F4100081C
:1040E0009F4100089F4100089F4100080000000018
:1040F00000000000000000000000000000000000C0
:10410000000000009F410008BD6E00080000000094
:104110009F4100089F4100080000000000000000CF
:104120009F4100089F4100089F4100089F410008EF
:10413000000000000000000000000000000000007F
:104140000000000000000000000000009F41000887
:1041500000000000000000009F4100089F4100088F
:104160000000000000000000000000009F41000867
:10417000DFF80CD000F0A0F900480047199F0008B4
:10418000400E00200648804706480047FEE7FEE74D
:10419000FEE7FEE7FEE7FEE7FEE7FEE7FEE7FEE7F7
:1041A000196E0008714100082DE9FE4F804681EA32
:1041B0000300C00F0C46009021F0004123F00045A1
:1041C000B8EB0200A94105D24046214690461C4664
:1041D0000B46024623F00040104347D0270DC7F39B
:1041E0000A00C3F30A510290401A019040286BDA8A
:1041F000C3F3130040F4801B0098924620B10023C3
:10420000D2EB030A63EB0B0B01985946C0F1400255
:10421000504600F069F906460D4650465946019A47
:1042200000F081F910EB08006141002487EA115287
:1042300084EAE7731A4340D0009A62B3019A012AD4
:104240004FEA075215DC001B61EB02014FF0004200
:1042500002EA0752CDE90042001C41F580113246C6
:104260002B4600F081F903B0BDE8F08F40462146AF
:10427000F9E7001B61EB0201001C41F580130018F7
:104280005B412018A2F5001747EB030140EAD57007
:10429000B6196D4111E06D084FEA360645EAC07562
:1042A0004FEA0752001B61EB0201001C41F580112F
:1042B00049084FEA30000019514132462B4603B0FD
:1042C000BDE8F04F00F041B9009801224000002302
:1042D000D0EB020263EBE073009821464FEAE074F2
:1042E000B8EB000061EB0401E9E783F000435BE712
:1042F00081F0004158E72DE9FE4F81EA030404F004
:10430000004421F0004100944FF0000B23F00043E3
:1043100050EA01045ED052EA03045BD0C3F30A54AE
:10432000C1F30A552C44A4F2F3340194A0FB0254C7
:10433000C1F3130141F48011C3F3130343F4801359
:1043400001FB024400FB034E840A970A44EA8154AD
:1043500047EA8357A4FB076802958D0A05FB07858A
:104360004FEA932C04FB0C542705029D4FEA065894
:1043700047EA1637B5EB08056EEB070C870E920E71
:1043800047EA811742EA8312A7FB0201B6EB0B0151
:1043900064EB00042B0D43EA0C335E1844EB1C5015
:1043A000DA465146E7FB0201C5F313044FEA0B332B
:1043B00043EA14534FEA0432019C43EA0603A4F192
:1043C0000C040294009CCDE900B400F0CDF803B0D9
:1043D000BDE8F08F00200146F9E72DE9F04D81EAB4
:1043E000030404F0004B21F0004514464FF0000A8E
:1043F00023F0004150EA050220D054EA01021DD00A
:10440000C5F30A570246C5F31303C1F31300C1F302
:104410000A5640F4801543F48013A7EB0608101BDE
:10442000D64608F2FD3873EB050002D308F1010807
:1044300001E092185B41B8F1000F03DA0020014659
:10444000BDE8F08D00204FF48011064684460EE052
:10445000171B73EB050705D3121B63EB050306431C
:104460004CEA010C49084FEA300092185B4150EACF
:104470000107EDD152EA030012D082EA040083EA78
:104480000501084305D0101BAB4106D201220023D1
:1044900006E000224FF0004302E06FF001025310EB
:1044A0001AEB06004CEB085110EB0A0041EB0B0134
:1044B000BDE8F04D00F049B81CB509480090094826
:1044C00001900546009C06E0E06840F0010394E896
:1044D000070098471034AC42F6D3FFF74DFE0000BA
:1044E000F0DC010810DD0108202A04DB203A00FA84
:1044F00002F1002070479140C2F1200320FA03F33B
:10450000194390407047202A04DB203A21FA02F038
:104510000021704721FA02F3D040C2F120029140FD
:10452000084319467047202A06DBCB17203A41FA88
:1045300002F043EAE07306E041FA02F3D040C2F130
:104540002002914008431946704710B5141E73F1BC
:10455000000408DA401C41F1000192185B411A4343
:1045600001D120F0010010BD2DE9F04D92469B468F
:1045700011B1B1FA81F202E0B0FA80F22032904635
:10458000FFF7B2FF04460F4640EA0A0041EA0B017A
:1045900053465A46084313D0114653EA010019D036
:1045A000C8F140025046FFF7AEFF05460E465046A2
:1045B00059464246FFF798FF084305D0012004E022
:1045C00020463946BDE8F08D0020054346EAE076F6
:1045D0002C4337430A986305E40AA0EB0800002245
:1045E000FD0A44EA47540A3002D500200146E9E7B3
:1045F000010510196941DDE9084500196941BDE867
:10460000F04DA2E70EB540F2334102910021CDE911
:1046100000110A460B46FFF7A7FF03B000BD70B5B7
:10462000C1F30A5201F000450024C1F3130140F226
:10463000FF3341F480119A4201DA002070BD40F24C
:1046400033439A42A2F2334203DC5242FFF75BFF4C
:1046500000E090402C43F1D0404270BDD2B201E066
:1046600000F8012B491EFBD270470022F6E710B577
:1046700013460A4604461946FFF7F0FF204610BDD0
:10468000F0B480EA0102D40F4200B2EB410F02D233
:104690000246084611464A0042D0C30DDDB2C1F3BE
:1046A000C752AD1A202D35DAC1F3160141F40002CC
:1046B00004B15242C5F1200602FA06F12A41104423
:1046C000B3EBD05F23D0C4B1012DA0EBC35009DC04
:1046D000F0BC4FF0004202EAC352DBB200F500002A
:1046E00000F068B9400000F1807000EBC350A0F109
:1046F000807040EAD170490009E0490841EAC07180
:10470000A0EBC35000F50000400800EBC350F0BC24
:1047100000F047B96142012202EB4101001BF6E7BC
:10472000F0BC704781F00041AAE780F00040A7E7A5
:1047300080EA010210B502F00043400022D04A0096
:104740001FD0010E01EB1261C0F35600C2F35602F6
:1047500040F4000042F40002A0FB022000047F3974
:10476000140400D0401C50EA124001D44000491EFD
:10477000C2B20C0604EBD010401C4008802A02D0C4
:1047800003E0002010BD20F00100002900DA002025
:10479000184310BD30B480EA010202F0004530F049
:1047A000004221F0004013D090B1C30DD40DC2F3EC
:1047B0001601C0F31600E41A41F4000140F40002AF
:1047C0007D34914201D3641C00E04900002C02DAE0
:1047D00030BC002070474FF400000023914201D309
:1047E000891A034340084FEA4101F7D151B1914280
:1047F00002D14FF0004105E002D24FF0010101E08B
:104800006FF0010103EBC450284430BC00F0C9B87C
:10481000002801DBC0F10040002901DBC1F10041AB
:10482000814201D80120704700207047002801DB39
:10483000C0F10040002901DBC1F10041814201D2F9
:104840000120704700207047002801DBC0F10040C4
:10485000002901DBC1F10041814201D301207047F1
:1048600000207047002801DBC0F10040002901DB77
:10487000C1F10041814201D90120704700207047F9
:10488000002801DBC0F10040002901DBC1F100413B
:10489000814201D10120704700207047C10F80EA9A
:1048A000E0700844CA079623002100F083B89623DD
:1048B0000022114600F07EB800F0004220F00040D7
:1048C000C10DC0F3160040F400007F2901DA00207A
:1048D0007047962903DCC1F19601C84001E0963982
:1048E0008840002AF4D04042704720F00040C10DBB
:1048F000C0F3160040F400007F2901DA0020704761
:10490000962903DCC1F19601C8407047963988406A
:104910007047C1F30A5210B5C1F3130140F2FF33DF
:1049200041F480119A4201DA002010BD40F2334375
:104930009A42A2F2334203DC5242FFF7E4FD10BD7B
:10494000904010BD00F0004230F000400AD0C10D90
:1049500001F56071C0F3160042EA0151C208400738
:104960001143704700200146704701F0004330B406
:1049700021F0004150EA010206D00A0DA2F5607252
:10498000C1F31301002A02DC30BC00207047440F41
:1049900044EAC104C100E01830BC00EBC250AFF3E0
:1049A00000800029A8BF7047401C490008BF20F0C4
:1049B0000100704710B4B0FA80FC00FA0CF050EA25
:1049C000010404BF10BC704749B1CCF1200421FAA6
:1049D00004F411FA0CF118BF012121430843A3EBA1
:1049E0000C01CB1D4FEA00614FEA102042BF0020AE
:1049F00010BC704700EBC35010440029A4BF10BC8A
:104A00007047401C490008BF20F0010010BC7047EF
:104A1000FEE770472DE9F84F41F6A309622A884660
:104A20000546DFF890A09B46CDF8009028BF622293
:104A3000052A98BF0522C2F16400A62148436421DB
:104A4000424680B2B0FBF1F72846532107F15306E6
:104A50003346D0470A9831460F220F230090681E34
:104A600084B2204602F03CFC6137284642464FF4AF
:104A70008073CDF800B03946D047204653212A46EE
:104A80003346CDF80090D047204639462A4602F0FA
:104A90008DF808F1010053213346CDF8009084B21F
:104AA00040462246D04740463946224602F07EF82C
:104AB000BDE8F88F7B4E0008438E4FF6FF7293429D
:104AC0001CBF5A1C428670B5CB1C0021062B24D873
:104AD000DFE803F0042314230823200001F021FF62
:104AE00004211AE0038C41869A4238BF012180F8E4
:104AF00034104FF0010138BF09210EE0038C4186CC
:104B00009A4238BF012180F834104FF0020138BFBB
:104B10000A2102E001F005FF0321024612F8305F8E
:104B200012F8093C12F8036CDCB202F8033C84F082
:104B300001033343B3FA83F35B094DB1002B5ED01D
:104B4000002280F83020C285826280F82C2056E056
:104B5000458D6DB1013D45852D0401D0002508E04E
:104B600090F82C50012D03D1002101F0DAFE05212F
:104B70000125BCB1002B42D0024632F8283F32F862
:104B8000104CA34239D3448BA3422FD290F82C303F
:104B900085F00104013B18BF012323432DD1838BF2
:104BA00043852AE0038D048B013303859BB2A34226
:104BB0000AD12DB990F82C40012C01D1062101E039
:104BC00000F12C0201241470428B934217D3C38D41
:104BD000C28B01339CB2B4FBF2F505FB1242002AF2
:104BE00018BF1A46C28508BF082108E0002180F8D6
:104BF0003010C18511601171072100201080084616
:104C000070BD2DE9F047016882888B6881688689CC
:104C10008D680469818AA46805EA0607BD1B04EA59
:104C2000010CB5FA85F5ACEB01044FEA551E90F87E
:104C30002450B4FA84F4640980F8264080F82740B0
:104C400003EA0204A31AB3FA83F34FEA531A837DEB
:104C50001BB355452ED0B7EB060918BF4FF001091D
:104C600090F82580B8F1010318BF0123BD1BB5FAE8
:104C700085F56D091D4394421FD165B1B8F1000F50
:104C800008BFB7423DD0A8EB0E02B2FA82F2520939
:104C900012EA090F3DD001251EE055450AD04FF01C
:104CA000FF35B74280F825E080F824A008BF012531
:104CB000944217D1022000251DE065B1B8F1000F24
:104CC00008BFB74221D0A8EB0E02B2FA82F2520915
:104CD00012EA090F27D0FF254FF0000E80F825E0DB
:104CE00080F824A0EAB26FF00200012A08BF032076
:104CF000002A08BF02208C4518BF054668B2BDE8EF
:104D0000F087FF254FF0010EE8E74FF0010E012577
:104D1000E4E787EA060288EA0E031A43B2FA82F24F
:104D200052095542DAE787EA060288EA0E031A4377
:104D3000B2FA82F25509D1E7FEE700002DE9F84FFB
:104D4000DFF88CB007462A20984692468946D84715
:104D5000F44C4FF40045380AF3494FF4806665601F
:104D6000C4F8FC03F8B20E60C4F800682560656002
:104D70000F46C4F8FC034FEA1A200E6001F04AFD0A
:104D80005FFA8AF00E6001F045FD2B200E60C4F83A
:104D900000682560D8474FEA192065605946C4F875
:104DA000FC035FFA89F03E6001F034FD4FEA182001
:104DB0003E6001F02FFD5FFA88F03E6001F02AFDB1
:104DC0003E60C4F8006825602C20BDE8F84F084715
:104DD0002D5100082DE9FE4F0C46A3EB010B111AD3
:104DE00005460029029101DD012008E005D0029866
:104DF000404202904FF0FF3001E000200290BBF1F2
:104E0000000F019001DD012607E019BFCBF1000B77
:104E10004FF0FF364FF0000B002602985F464FF030
:104E200000084FF000094FF0000A584588BF0746B8
:104E30001FFA88F08742B8BFBDE8FE8FA8B2A1B2C2
:104E400002460B46FFF77AFF0C9800F05DF90AEB7B
:104E50000B0008F10108B842C8BF34440299019A16
:104E60004944B942C8BF1544B0EB070AD8BF8246CF
:104E7000B1EB0709D8BF8946DAE72DE9F843814647
:104E8000501E154698460E4682B2581E83B24846BA
:104E9000FFF754FF089CB0B2404528BFBDE8F88337
:104EA0004F46B8B2A84204D2204600F02DF901378F
:104EB000F7E70136EFE7000010B5002005F030FFFE
:104EC000A548A44A4FF400414FF4006341601360C9
:104ED000D0F8F843C0F800380160102005F020FF3A
:104EE000A0B210BD2DE9F04F87B0119F1C4690462F
:104EF00000EB5702CB1901F0AFFD01203909109EDC
:104F00004FF0000B17F00E0F18BF00EB171101FB4D
:104F100007F00690A8F120004FF4C8717D084FF00B
:104F20000008C2B22D48059212FB010004902F48E0
:104F300000EB021003902B4800EB821002902848EF
:104F400000EB022001900698804543D0502F16D0E8
:104F5000102F18D00598182F00EB400009D0202FF3
:104F60000FD0402F09D00C2F34D1214901EB800004
:104F70000AE01D4901EB001006E0019804E00498E6
:104F800002E0029800E0039840440BF108074FF05C
:104F9000000A90F80090BAF1080F13D029FA0AF02D
:104FA000C007204608BF304600F0AEF80BF1010BF9
:104FB0001FFA8BF0B0FBF5F101FB150020B10AF1EF
:104FC000010AE8E7BB4601E04FF0000B119F08F132
:104FD0000108B8E707B0BDE8F08F00BF244801081A
:104FE00024E9000864D1000894BF0008A4B90008AF
:104FF00030B500082DE9FE4F07460D9899469246B8
:105000000E4600254FF00A084FF0000B4408032D10
:1050100008BFBDE8FE8FC5F102000121020604D0E1
:1050200001EB810101384900F8E7BAFBF1F0BBF16F
:10503000000FB0FBF8F101EB8101A0EB410105D1BC
:10504000012D03D8080410D04FF0010BDDE90C202E
:1050500041F030014B46CDE9002005FB0470CAB297
:10506000314601F0E4FD0135D1E7DDE90C103022D5
:105070004B46CDE9001005FB0470314601F0D7FD29
:105080004FF0000BEFE72DE9FC47DDF8288099464B
:1050900015460E4607464FF0000A4FEA58042A7894
:1050A0004AB1B8B231464B46CDE900A8FFF71AFF26
:1050B00027440135F3E7BDE8FC8700002DE9FE4FEA
:1050C0001C469046894683465D0800260FF2300A4A
:1050D0000027072F08BFBDE8FE8F781EC0B2052845
:1050E0000AD81AF800200BEB060049464FF6FF736A
:1050F000CDE9008401F09BFD2E440137E9E700BFB4
:1051000056312E302E33000013494FF400424FF435
:1051100080634A60C1F8FC030E480360C1F80038A0
:105120000A607047100801401410014010B5094989
:10513000094B4FF480524FF400440A605C60C3F89E
:10514000FC034FF480600860C3F80008C3F800282F
:105150001C6010BD14100140100801402DE9F04FF3
:1051600095B0DFF8ACAD9AF8130001282BD00028D9
:1051700041F0E282DFF89C9D99F8E60302282BD1EA
:10518000D9F8B040D34901F010FC00286BD0D149C8
:1051900001F0FBFB002840F0B58099F8C00300281F
:1051A00040F0B0809AF81C00002840F0AB809AF8DC
:1051B0001D0001308AF81D00C0B2032824BF012061
:1051C000AAF81C008FE09AF81900012808D1DFF82E
:1051D0005C0E90F8D1031CE000208AF81C0091E0DE
:1051E0003D2000214FF4F0721E230090002002F0B9
:1051F00077F840F29F10082143F286121023FFF740
:105200005DFF0120DFF8241E8AF81900FF2081F8D5
:10521000D103DFF818BE9BF8D01388420FD03F208F
:10522000012908BF3E2000904FF4C77006211522C7
:10523000152302F055F89BF8D0038BF8D1039BF8A7
:10524000C9039BF8CA13814225D001281ED17020C2
:1052500003212A221823009040F2631002F040F844
:105260009BF8C90315E09AF81B0001308AF81B006F
:10527000C0B215282ED300208AF81B009AF81A0015
:10528000013000F003008AF81A0025E000218AF8B6
:1052900019108BF8CA039BF8C40310B1FF218BF8D7
:1052A000C5139BF8E67307F0FE01022940F04D8715
:1052B0009BF8C513814200F0A981032800F2A08168
:1052C000DFE810F0040096019201940101208BF8B0
:1052D000E70395E19AF81A0000218AF81C10DFE82C
:1052E00000F002080406562004E0582002E059208D
:1052F00000E0572000904FF4D77028212422222369
:1053000001F0EEFF99F8E803D8B1DFF8241D8A69AF
:10531000501E886199F8C603002A14DC002289F81F
:10532000E8234FF496728A6120B301280BD1022042
:1053300089F8E6039AF81700A0BB01208AF8170045
:1053400014E099F8C6039AF8171009B150BB19E098
:10535000012101288AF8171008D018BB99F8C20358
:10536000012805D8022089F8E6030BE0032017E0A6
:1053700000200DE0032089F8E6039AF817000028C2
:1053800000F0E68199F8C2130020022938BF0120FD
:1053900099F8E61301F0FE01022903D110B10220B1
:1053A00089F8E60399F8E60399F8E713814259D0A2
:1053B0004949FF22494B89F8E70389F8B92389F85D
:1053C000CE2389F8D42389F8C7238AF81520C9F891
:1053D0001C10C9F85410C9F8081001F037FCC9F8BE
:1053E0009C10C9F84410C9F8A41001F00FFCA0F1FA
:1053F0001D01C9E90433C9F83830C9F83030CAB2E0
:105400001F2A23D89AF8182082B904201E214FF4AD
:10541000F0724FF491730090002001F061FF0120C1
:105420008AF8180099F8E603A0F11D01C9B206290F
:1054300005D3A0F12D01C9B20D2900F2AE80009074
:105440004F2046214FF4A172A52309E000210090CE
:1054500000204FF4F0724FF491738AF818101E2157
:1054600001F03EFF9AF8200001280DD0002840F0FE
:10547000A281B9F8BA0390B199F8E663022E2FD051
:10548000032E32D119212CE0B9F8BC0388B199F868
:10549000E663022E50D0032E53D119214DE09AF825
:1054A0002600002800F0DF80013857468AF82600E1
:1054B0008AE0D9F89840D9F8A00001F048FA00280D
:1054C00040F01B8199F8BE03002840F07181D9F8A3
:1054D000B4501DE10000A04200007F4300007A4468
:1054E0000521D0FA51F0A9F8BA030020D9F82050CC
:1054F0005746C9E90200D9E9064001F028FA28B167
:10550000D9F8240001F02EFA00285DD199F8CD03D6
:10551000C9F82450C9F81C40002808BF254601F0EE
:1055200098FA0446022E45D0032E4DD101F05BFBC4
:1055300040F28910502143E00521D0FA51F0A9F83A
:10554000BC0399F8C973022F04D08C48C9F8B8007D
:10555000C9F8A000D9E92640D9F8BC5001F0F7F904
:1055600030B1D9F8C00001F0FDF9002840F02081E9
:10557000C9F8C050C9F89C40022F08BF2C4601F062
:10558000EEF90446022E24D0032E40F0118101F0E2
:105590002AFB40F29510CD2123E0A0F12301C9B2EE
:1055A000072900F2D980009050203B2140F23F12A1
:1055B000BB2355E75E2001F00CFA01F00DFB7821CA
:1055C0004FF66143FFF716FD97F82000BA46411CDD
:1055D000EFE0622001F0D1F901F0FEFA4FF487709C
:1055E000782143F67F43E1E0462002E0442000E0DA
:1055F000422000907B207B21EB22672301F070FE8C
:105600009BF8C4039BF8E6738BF8C503022F40F0A8
:105610009A859BF8C003022804D0012812D00028E4
:1056200040F0518518200024342100224FF6FF73EA
:10563000CDE9004040F24510FFF7DCFCAAF83C4001
:1056400000F041BD9BF8C203012802D19BF8D903A9
:1056500020B19BF8C943022C40F01E840020AAF818
:105660003C0000F030BD99F8C40357460028ABD188
:10567000D9F8284000212046FFF702F940490546A5
:1056800001F0C1FA3F49FFF785F801F0A6F884F070
:105690000041002D18BF084699F8CDA3BAF1010FBB
:1056A00018BF0846FFF708F90546BAF1010F40F0A8
:1056B0003384D9F80040324901F0A5FA3149FFF7A7
:1056C00069F801F08AF80646C9F8040099F8C90398
:1056D000012803D12C4901F0EBF906462846FFF7D3
:1056E000DDF8014601F0E4F9FFF7E6F88046FFF740
:1056F000D5F8D9F84C6000F027BCD9E92D5001F05D
:1057000031F90021002854D199F8BE03002850D166
:1057100099F8C21399F8D92399F8E603C9F8B85053
:10572000C9F8A04081F00101D2B2114308BF2C4654
:1057300002282BD003283BD101F011F9024620208A
:1057400043F28611CDE9001040F29510CD212BE0F7
:1057500001208AF8170001E6A0F13B010229C0F000
:10576000CC83A0F12B0101293FF67CAE00904820AC
:1057700058214FF4A872822372E600BF00007F43D5
:10578000000010410000A0400000F4C2602001F0C1
:10579000F4F801F0E4F80246502041F6A301CDE907
:1057A00000104FF4877078214FF6FF73FFF722FC4B
:1057B00000218AF8201099F8E603022800F05A81A7
:1057C000032840F06C819AF8160058B9002029216E
:1057D0004FF4BC72FA2300901220FFF74EFB012019
:1057E0008AF81600D9F80060CF49D9F84850D9F89E
:1057F000B08001F05DF999F8C943012C18BF30461B
:10580000FFF75AF80646FFF749F801462846FFF722
:1058100029F8074601F01DF90546002F574608BF35
:10582000354699F8C00350B1C0494046FEF7FEFF27
:1058300028B99820022C08BFBC2059F8008028B253
:10584000CA46FFF72BF8BA490546FEF7FDFFB94EE9
:1058500000281CBF0025C4F2FA3528463146FEF761
:10586000D7FFB54A00281CBF0025C4F2C82528462A
:10587000314605F015FCA7F840004046FFF71CF83C
:10588000FFF715F8AD4901F019F900281CBF0024F5
:10589000C4F24834204600210026FEF7B9FF002854
:1058A000A74A18BF00242046002105F0F9FBA7F8FD
:1058B000420040F2651744F6384B4FF00009B945F5
:1058C0003CD009F112000AEB0908009684B209F1F4
:1058D000140098F8EC1098F8ED3085B220462A466E
:1058E000FFF778FA98F8521298F8533220462A4671
:1058F0000096FFF76FFAB9F5B27F14D04FF260400F
:1059000098F8EE3098F8ED102A4600902046FFF700
:1059100061FA98F8543298F8531220462A46CDF886
:1059200000B0FFF757FA98F8ED0009F1010988F87F
:10593000EC0098F8530288F85202C0E7DFF8001E26
:10594000DFF81C6ED146002448F20F454727B1F816
:1059500040008AF85102B1F842008AF8B7034FF0CC
:105960002A0ABCB1052C2DD004FB0AF04FF4BC72FE
:105970000095283081B212200B46FFF72BFA04FB6A
:1059800007F02821FA230095123080B20246FFF773
:1059900021FA15E0122028214FF4BC72282300952B
:1059A000B047122028211222FA230095B047122076
:1059B000FA2101F0BCF84FF4BC70282101F0B7F8CF
:1059C0000134CEE773202A212F22192300901420BE
:1059D00001F086FCDFF8984D0C250FF68852152053
:1059E000462100F08BFF0FF68C521520702100F03D
:1059F00085FF0FF68C5215209A2100F07FFF0FF6DD
:105A00008C521520C42100F079FF0FF68C5215201E
:105A1000EE2100F073FF74202A2117221723009033
:105A200040F25F1001F05CFC0FF678524FF4B27058
:105A3000462100F053FF0FF670524FF4B270702100
:105A400000F04CFF0FF664524FF4B2709A2100F050
:105A500045FF0FF65C524FF4B570C42100F03EFFD5
:105A60000FF650524FF4B870EE2100F037FFDFF818
:105A7000D0ACAAE0D9E90045D9F8100000F067FFE2
:105A800088B9B9F8BA1399F8CD03C9E90445A1B1A9
:105A9000F8B1D9F820002B49FEF7F2FD16E00020FE
:105AA0008AF8160091E0D9F8140000F05BFFB9F80D
:105AB000BA130028E7D051B3E5E799F8C96358B1A4
:105AC000204901F001F8012E18BF28461E4C1F4D39
:105AD0000AE0D9F8180005E0134900F019FF012E7B
:105AE00018BF20461A4C1B4DFEF72CFF02460B46F2
:105AF00028462146FEF7FFFBFEF791FD02466A208D
:105B000027214FF6A04300901A20FEF783FFD9F813
:105B10009840D9F8A400D9F8B45000F018FFD8B9CB
:105B2000D9F8BC6025E000BF000048C20000F04189
:105B30000000FA430000C842000016440000484339
:105B400000007A430000F4C2E3A5BB3FD9CEF7536F
:105B50009999C93F9A999999D9F8A800D9F8BC6040
:105B600000F000FF28B1D9F8AC003146FEF788FEFE
:105B700058BB09F1A40099F8C21399F8C92399F800
:105B8000D93370C099F8C003022A81F0010108BF1F
:105B9000344680F0010008431843000608BF2C4635
:105BA00000F0DDFEFEF72EFDD84B0022FEF7A3FB32
:105BB000FEF735FD02466B204FF4E37144F638439F
:105BC000009040F2B910FEF725FF99F8E603011F97
:105BD00011F1020FC0F0BB8046F269605D214FF405
:105BE00081724FF49473ADF850003020109346F258
:105BF00068531291CDE90C21CDE9072199F8B8132A
:105C0000119213900E9009905A20ADF83C30C123A8
:105C1000069099F8B9030B9346F26743ADF8283024
:105C2000884247D006AC012604F10805042E10D0A6
:105C300099F8B903864209D16F7AAB882A8835F87A
:105C4000041C35F8080C009701F04AFB14350136A6
:105C5000ECE799F8B90308B104280DD300253C2DD1
:105C60000AD06619605BB3893289B188767C009668
:105C700001F036FB1435F2E799F8B803411ECAB2B9
:105C8000022A0FD8900050FA81F134F8210004EB79
:105C90008104A3892289A188247C009401F020FB3F
:105CA00099F8B803E349002289F8B9038AF821205A
:105CB00000F0CCFF002848D09AF82100002844D1F9
:105CC000D9E91A06D9F81850D9F82040FEF7F4FDA2
:105CD000ADF8120000F0EFFEADF81400D9F8700036
:105CE000FEF7EAFDADF81600D9F87400FEF7E4FD02
:105CF000ADF80C00D9F87800FEF7DEFDADF80E0027
:105D0000D9F87C00FEF7D8FDADF8100000F0A1FE38
:105D1000054600F024FE00210DF1120203AB032919
:105D200009D032F81140AC420FD033F811400131A4
:105D30008442F4D109E0BF48C9E93500C9E9370018
:105D4000C9E9390001208AF8210099F8E60300F03A
:105D5000FE00022840F09B80D9F86840D9F8D400B2
:105D6000D9F8745000F0F3FD20B1D9F8E00000F04C
:105D7000F9FD90B900F03AFE08BF2C4600F0EFFDA7
:105D800000F04CFE602000F096FDD9F86800D9F8CC
:105D90007410C9F8D400C9F8E010D9F86C40D9F8EB
:105DA000D800D9F8785000F0D2FD20B1D9F8E4003D
:105DB00000F0D8FD90B900F019FE08BF2C4600F0A5
:105DC000CEFD00F02BFEC72000F075FDD9F86C0069
:105DD000D9F87810C9F8D800C9F8E410D9F870409B
:105DE000D9F8DC00D9F87C5000F0B1FD20B1D9F829
:105DF000E80000F0B7FD98B900F0F8FD08BF2C46A8
:105E000000F0ADFD00F00AFE4FF4977000F053FD76
:105E1000D9F87000D9F87C10C9F8DC00C9F8E8108E
:105E2000D9F88040D9F88C0000F091FD50B900F00D
:105E300096FD00F0F3FD8D2000F03DFDD9F88000C7
:105E4000C9F88C00D9F88440D9F8900000F07FFDA3
:105E500050B900F084FD00F0E1FDF42000F02BFDCE
:105E6000D9F88400C9F89000D9F88840D9F894008E
:105E700000F06DFD58B900F072FD00F0CFFD40F26A
:105E80005B1000F018FDD9F88800C9F894009AF862
:105E90001300013000F04EBCDBF80000DBF8188086
:105EA0005746FEF709FD012C08BF323800B2FEF755
:105EB000F5FC614904464046FEF7E2FB2146824676
:105EC000FEF7B4FC5D4905464046FEF7D9FB0646A1
:105ED00035B930462146FEF7C5FC002800F0CB80DE
:105EE00030462146FEF794FC002840F085800120D2
:105EF000BA46B8776420B887E1E0009009205721BE
:105F00004FF4E7728423FFF7ABBA00BF0000E03F15
:105F1000080100205406002099F8C903D9F8004070
:105F2000012840F09380464900F0F2FC06462846DE
:105F3000FEF7B4FC014600F0BBFDFEF7BDFC804659
:105F4000FEF7ACFCD9F8486001463046FEF78AFC03
:105F500010B100F0B0FD804699F8E65345F002001C
:105F6000032801D1142004E099F8C003002818BFC9
:105F7000142087F82600D9E9016000F0E8FC38B168
:105F8000D9F80C003146FEF77BFC00287FF41CABEF
:105F900099F8D303C9E9024601281CD14046FEF70F
:105FA0007DFCD9F818402749064600F0B1FC31467F
:105FB000FEF758FC78B9244900F0AAFC3146FEF7F8
:105FC00035FC40B9D9F82000BAF1010F08BF0446EA
:105FD00000F0C5FC8046032D19D0022D7FF4F4AAF1
:105FE0005C2000F0F6FC502041F6A3011FFA88F275
:105FF000CDE90010782114E050462146FEF724FC3C
:106000000028BA465BD100208AF81E0055E0202007
:1060100043F286111FFA88F2CDE9001040F2891090
:1060200050214FF6FF73FFF7CDBA00BF5406002092
:106030000000002000007F430000C8420000C8C2EA
:10604000000048C20000A0C10000A0412846FEF7A1
:1060500025FC014600F05CFCFEF72EFC8046FEF7B6
:106060001DFCD9F8486001463046FEF7D1FB0028F8
:106070003FF46FAF70E7F87FBA46022819D1DFF816
:10608000C406C1890139C18109B2002917DC322156
:10609000C18140462146FEF745FBFEF70DFC01B2EB
:1060A00080EAE130A0EBE13000B20128D8BF012046
:1060B00003E002208AF81E006420AAF83C009AF847
:1060C0001E008AF81F00DFF87C56BAF83C00A98948
:1060D000814238D0C0B2642828BF6420012898BF0C
:1060E0000120C0F16400FEF7E2FBD749FEF752FB46
:1060F000D649FEF71DFBFEF7DFFBC0F5877044F2C3
:106100005071432384B20091CF203F212246FEF7F5
:10611000B4FE41F6A3003F214FF487724323009061
:106120002046FEF7AAFEBAF83C20182000214FF6C0
:10613000FF73CDE9001040F245103421FEF75AFFFD
:10614000BAF83C00A8819BF8E67307F0FD002D2803
:1061500004D1DBF82C50DBF8344007E0DBF81850B2
:10616000DBF82040CBF82C50CBF83440DBF8300083
:10617000DBF8386000F0F6FB18B1304600F0E7FBC2
:1061800038BB47F00200CBF83840CBF830502F280E
:106190001FD19BF8CD039BF8DC63002808BF2C4679
:1061A00000F0DDFB0246202043F266114FF6FF733C
:1061B000CDE90010F0B24FF6FF71022808BF4FF48E
:1061C000FC634FF487702F2F18BF0B469621FEF704
:1061D00011FF9AF8220038BB0120DBF81860DBE9D8
:1061E0001A548AF82200DBF80000FEF765FB00EB8A
:1061F000C000052700F08FFBCBF8040000F05BFC2B
:1062000000F0E3FACBF8200000F023FC00F0DDFA08
:10621000CBF8740000F0A3FB00F0D7FA00F00CFC00
:1062200000F0D3FACBF87C009BF8CD939BF8CE43DB
:106230004C4525D0DBF80000DBF81860DBE91A5884
:10624000FEF73AFB00EBC000052700F064FBCBF83B
:10625000040000F030FC00F0B8FACBF8200000F0A9
:10626000F8FB00F0B2FACBF874004046FEF724FBCE
:1062700000F0ABFA00F0E0FB00F0A7FACBF87C00EE
:106280009AF81400062800F25482DFE800F004783F
:10629000183C0996B5004C4540F0C080012046E20C
:1062A0009BF8E603372840F03F819BF8DD03012887
:1062B00000F03081002840F037826F202BE19BF8FE
:1062C000E603232840F0A8809BF8DF030138C1B221
:1062D000032900F2A180C000DFF87854782114224D
:1062E0001423C4B25A4800F0DDFB5A4EA1211422F7
:1062F000142306F57F4000F0D5FB26FA04F0CA21EE
:1063000014221423E9E19BF8E603A0F1230100F035
:10631000A4FC00F20982012202FA01F140F6616256
:10632000114200F001822D2808D0352806D03728E8
:1063300002D19BF8DD1309B1392804D14E2000F0B9
:1063400041FB9BF8E6032F2805D0372808D19BF89E
:10635000DD13012904D1512000F034FB9BF8E60342
:10636000232840F0E1819BF8DF035121042808BF76
:106370004E210091C420FF2158222D2339E09BF8A3
:10638000E603A0F11D0100F068FC00F2CD810122BE
:1063900002FA01F140F67742114200F0C5811D2852
:1063A00040F0EF809BF8CC03002800F0E18001284A
:1063B00040F0E7808924B121DCE09BF8C0039AF823
:1063C0001510814200F0B0819BF8C913022900F03A
:1063D000AB819BF8E61300288AF8150040F0848012
:1063E000022940F081804020282196224B230090F2
:1063F000A52000F075FF97E19AF827109BF8C903D4
:10640000022929D1022827D08AF827009BF8E60321
:1064100002283DD17C2034E0032088E19BF8E6038C
:106420002F286DD0032800F05B812D2868D002282A
:1064300040F07681B9F1010F00F06A81B9F1000FE7
:1064400040F06E814C2064E10000C84200007C42B4
:10645000797A7A7A7A7A797A022919D0022817D148
:1064600002208AF827009BF8E603022810D19BF847
:10647000D6139BF8C003C9B2084301D100F075FAE6
:106480007520009091205021BE22232300F028FF88
:106490009BF8BE03012825D1712087219622442331
:1064A0000090A52000F01CFFA6494869013848610A
:1064B0004FF0000000F33B81A34A64238BF8BE0336
:1064C0008AF82600CBF8B820CBF8A020CBE902222E
:1064D000FF228BF8E7239BF8E623032A08BF192342
:1064E0004B6124E1002022E1012808BF022940F08D
:1064F0001B8100F03AFA93484FF0FF31818113E19C
:10650000B9F1010F00F0F480B9F1000F40F00881FB
:106510004820EEE06C200090CD20BE2146222023B2
:1065200000F0DEFE9BF8E603352840F0FD80EC200D
:10653000802143F2661220234FF0EC0843F26615E7
:106540002026FEF7BBFD002780A4072F00F0EC807B
:10655000781EC0B2052809D8225C08EB0710B221CA
:106560004FF6FF73CDE9005600F061FB0137ECE711
:10657000B12489215A2000F021F95B20214600F046
:106580001DF99BF8E6031F2812D19BF8CF030128C1
:1065900003D0A8BB8924B12101E0B12489215A206C
:1065A00000F00CF95B20214600F008F99BF8E603A7
:1065B000212810D19BF8D20320B101280BD18924C6
:1065C000B12101E0B12489215A2000F0F7F85B20C5
:1065D000214600F0F3F89BF8E603312812D19BF82E
:1065E000D503012803D0B0BB8924B12101E0B12437
:1065F00089215A2000F0E2F85B20214600F0DEF805
:106600009BF8E603332810D19BF8DB03012803D065
:1066100058B98924B12101E0B12489215A2000F020
:10662000CDF85B20214600F0C9F89BF8E603252849
:1066300013D19BF8E103022804D0032874D18924E4
:10664000B12101E0B12489215A2000F0B7F85B2084
:10665000214600F0B3F89BF8E60327281FD19BF8EA
:10666000E3030138C1B202295ED8C000394D75215B
:1066700025221E23C4B2384800F014FA374E9E215A
:1066800025221E2306F57F4000F00CFA26FA04F0BE
:10669000C72125221E2300F031FA9BF8E6032928A2
:1066A00042D19BF8E5030138C1B202293CD8C000B1
:1066B000284D752125221E23C4B2274800F0F2F987
:1066C000264E9E2125221E2306F57F4000F0EAF982
:1066D00026FA04F0C72125221E2300F00FFA23E03A
:1066E000B9F1010F0CD0B9F1000F19D14A2008E01F
:1066F000492000904FF4A07099211C221B230DE02B
:106700004B2000904FF4DC7054211A22182305E02E
:106710004D200090C820AA211422152300F0E0FD8E
:106720009BF8CD038BF8CE039AF8140001308AF859
:10673000140000208AF8130015B0BDE8F08F00BFE8
:10674000080100200000002000007F4356312E3059
:106750002E310000E17200085A5B5B005B5B5A005F
:10676000D54D00083530302839333229000000007B
:1067700087500008343030283735322900000000B7
:1067800033303028353732290000000032303028CD
:1067900033393229000000003130302832313229BB
:1067A0000000000032303000313530003130300030
:1067B0003530000030000000FEE7704725221E2320
:1067C00000904FF4AA7000F08BBD00EBC000B0FB4E
:1067D000F7F0203080B2FEF76AB84FF08441FDF741
:1067E0004FBF90F8C9130229704799F8C9030228CE
:1067F000704700BF00BF00BF00BF00BF00BF00BFA9
:1068000000BF00BF00BF704790F8E61301F0FE0222
:10681000022A7047C4F8006825606560C4F8FC036C
:10682000704750F8210052F821100068C9F818008C
:106830000968C9F898107047C9F82410C9E92311EC
:10684000C9E92512C9F89C1089F8B8037047A5F862
:10685000BC03D5F8BC00FDF713BFA5F8BC03D5F801
:106860009800FDF70DBF05F18C0002EB8102704727
:10687000BDF808109DF807201144B142704720462A
:106880004FF07E51FDF7FCBE286101208AF80D0013
:106890004FF47A70A9F8BC03D9F89800FDF7F0BE60
:1068A00009F18C0002EB810270474FF04241C9F8B8
:1068B0002000FDF7E5BE4FF48C71FEF79BBB85F819
:1068C000E60395F8E10395F8E31395F8E52385F8D9
:1068D000E00385F8E21385F8E423704744F6384373
:1068E0000095204795F8B813C5F8984003297047DC
:1068F00095F8B813C5F8BC40032970474FF26043C0
:106900000095204799F8B813C9F8984003297047B3
:106910002046FDF7B5BEB0FBF7F0203080B2FDF7A2
:10692000C6BF80F83010C185816280F82C10704796
:106930002046FDF797BF3062F06170613061AAF8C0
:106940003A008AF81200C9F84000F060704721460A
:10695000FDF796BF4FF042412862FDF791BE2046F9
:10696000FDF7AABF2946FDF78BBF7B202821962281
:106970004B230090A52000F0B3BCD4217B22192327
:1069800000904FF4877000F0ABBC2046FDF75CBF71
:106990005020286101208AF80D004FF47A70A9F880
:1069A000BA0399F8CD03012870472046FDF73EBF92
:1069B0004FF47A71A5F8BA130021017295F8CD034E
:1069C00001287047FA2158222D230090C42000F09E
:1069D00087BCD2217B221C2300905A2000F080BC6F
:1069E0000146204638470446FDF720BF99F8CD03FD
:1069F0000128704799F8E60300F0FE00022870476E
:106A000080F8E6230239B1FA81F1490980F8C6130A
:106A100070478DF80B109DF80B1070470246182038
:106A200043F286114FF6FF73CDE900107047002145
:106A3000017299F8E4137047CBF87800DBF8700026
:106A4000FDF73ABF9AF80E10012970470446FDF78A
:106A500009BF2846FDF730BF013A013B92B29BB215
:106A6000FEF76CB9252085F8E60395F8E00385F874
:106A7000E1037047272085F8E60395F8E20385F8DF
:106A8000E303704701208DF80480CDF80540ADF890
:106A900009007047292085F8E60395F8E40385F896
:106AA000E5037047E040C0B200904FF4AA70284759
:106AB0003046FDF7E5BD3046FDF7FEBE0446FDF766
:106AC000C3BE5846FDF7DCBD2846FDF7D9BD002002
:106AD000A7F8600070470131CAB2032A704786F8F0
:106AE000E20304F12400284786F8E00304F12200C1
:106AF000284786F8C90304F120002847C0B2009057
:106B00004FF4AA70284786F8D90304F11E002847DD
:106B100086F8D30304F11C00284786F8D60304F155
:106B20001800284786F8D00304F1160028474FF4D0
:106B3000BC72FA230095304786F8CD0304F11400A7
:106B4000284786F8C60304F112002847C6F88800D3
:106B500004F110002847C6F8840004F10C0028470F
:106B6000C6F8800004F108002847C9F89C00C9E96C
:106B70002300C9F89400C9F8BA13C9F82400C9F869
:106B80001C007047044628462146FDF75DBE0446BA
:106B900028462146FDF73CBE054620462946FDF71E
:106BA00045BE054620462946FDF75CBE4FF480737E
:106BB000CDF800905047A8632863A869FDF7B2BDDF
:106BC00096F82900013886F82900000670473068D9
:106BD00040F0010030607047502041F6A301A2B29E
:106BE000CDE900107047202043F28611A2B2CDE912
:106BF00000107047BDF808100A31ADF808109DF874
:106C00000B10013170472046FDF792BDC9E92311F1
:106C1000C9F894107047D9F820004FF042417047EE
:106C2000B7F860000130A7F8600080B2704780B20A
:106C3000FEF758B901F0070125F4E04545EA0131B6
:106C400070472D2180F8E61300217047C9E93511FE
:106C5000C9E93711C9E939117047CAB2C90141EA16
:106C60005201C9B20B29704790F8DC130229704712
:106C70007047704770B55B4D6878013868700006E2
:106C800046D1594C1420687094F8D003012812D1D1
:106C9000894E96F8280002281DD001280ED058BB36
:106CA00000F0A6FB287A012820D028BB012086F816
:106CB000280002201EE000F09BFB29E000F09EFB74
:106CC000FFF77EFF18D1297A022086F8280089B1C3
:106CD00001290ED010E000F08BFBFFF771FF0BD104
:106CE00002202872002086F8280003E0012086F8A0
:106CF0002800192086F8290094F8C40340B1A87828
:106D00000138A870000603D1012028722820A8703D
:106D1000354E96F8C00348B128780138287000062F
:106D200009D10520287001F077FE04E001F074FE1F
:106D3000012086F8EA0396F8C003022809D1F46D11
:106D400000212046FDF79CFD18B92849FFF7E0FD1A
:106D5000F065688901386881000408D14FF47A70C1
:106D600068815548416CC6F8B01000214164524D0D
:106D7000287878BB102002F08DFAA885A88DFDF741
:106D800041FC1B4A1B4BFDF7B6FA1B4B0022FDF7DB
:106D9000B2FA1A4A1A4BFDF707FA1A4A1A4BFDF7CC
:106DA0001CFBFDF7E2FD19490446B064FDF7C0FC89
:106DB0001749FDF7EFFCFFF710FD1649F064FFF7E8
:106DC000B7FD38B920460021FDF722FD10B901209A
:106DD00034602870A86CA96D0130A864BDE87040CB
:106DE000084700BF0000002054060020000080BFBC
:106DF00052B81E85EB510AC00000303F295C8FC29B
:106E0000F528F43F33E197FA795371BF0000104140
:106E10000000A040000048421848C16941F080517C
:106E2000C16117490A7842F004020A70C16921F071
:106E30008051C161016841F0010101600168890769
:106E4000FCD5416821F003014160416811F00C0F4D
:106E5000FBD101680B4A114001600021416041F6FD
:106E60001071C1624FF4801101634FF41F01816002
:106E700005484FF000610160704700BF00100240FC
:106E800050700040FFFFF2FE08ED00E0B0B5094C85
:106E9000606880070CD52068800709D5064D4FF043
:106EA0007E51686CFDF7ECFB68646FF00200606077
:106EB000B0BD00BF0C4C0140080100202DE9F04F8F
:106EC00085B0C54D2869C00700F03E81DFF8B09459
:106ED00099F8E903012840F02981DFF8C8A39AF85E
:106EE0001200012808D1DFF8C403BC4D846829468C
:106EF000FFF71EFD08B104E0B94DDFF8B0032C46E2
:106F00008560D9F81860B7490094FFF7D1FD834632
:106F100099F8C903012818BFB346DAF84C0059465E
:106F2000FDF7AEFC00287BD1DFF880434FF07C51A9
:106F3000E069FDF7FDFB0025E061D8498DF80B50B5
:106F4000ADF808508DF80750D9F898703846FDF71D
:106F50005FFC04465846FDF7AFFC002C06464FEA9E
:106F6000900412D14A2C8DF807502FD864200021AC
:106F7000ADF80800D148FFF74CFD132946D8FFF7BC
:106F800077FC43D2FFF736FEF5E7CA493846FDF7EE
:106F900069FC0025E8BB384600214FF00008FDF7EA
:106FA00037FCB0BB4A2C8DF807801FD86420002125
:106FB000ADF80800C048FFF72CFD132900F2EB8064
:106FC000FFF756FC22D2FFF715FEF4E74FF4967058
:106FD0001421ADF80800B948FFF71BFD272915D883
:106FE000FFF746FC12D2FFF705FEF5E74FF4967067
:106FF0001421ADF80800B048FFF70BFD272905D88C
:10700000FFF736FC02D2FFF7F5FDF5E79DF80B1010
:10701000455C68B2CAF84CB0FDF740FCC9F8D00036
:10702000A24EB6F85640092C19D896F8580002F02E
:1070300031F9651C06EB8407A6F85650FDF737FCBE
:107040000446F862B6F85400FDF731FC0146FFF73C
:107050005FFCFDF731FCA9B2B0FBF1F10DE0B6F831
:1070600054000A24B0FBF4F1451A96F8580002F0D7
:1070700011F9284481B2B1FBF4F1A6F85400880854
:10708000FDF715FCD9F82810C9F80000FDF74AFBF8
:107090000446FFF7AAFB03D10020FFF74CFC2CE0CD
:1070A00099F8C20318B199F8D913012917D1844965
:1070B000FFF707FD074620463946FDF7D3FB38B9F1
:1070C0008049FFF7FEFC0146FFF76FFC00283ED029
:1070D00020463946FDF7C6FB30B1002515E00128F2
:1070E00008BF002909D1D7E77649FFF7EAFC014636
:1070F000FFF75BFC08B16C4D07E0D9F84040204633
:1071000000210025FDF7AEFB10B92C46C9F8405010
:1071100099F8C40320B10020614DFFF70CFC05E095
:1071200020460021FDF79EFB5D4D10B90024C9F8F3
:1071300040402046FDF7D9FB2864286840F0010054
:1071400028606FF00100286105B0BDE8F08F5E494E
:10715000FFF7B7FC0146FFF7EBFB30B95B49FFF7E0
:10716000B0FC0146FFF721FCB8B10020AAF83A00B4
:107170008AF8120058462146FDF7D4FA7061554945
:107180007069FDF76FFB20B970695349FDF74EFB3D
:1071900050B300202CE000253BE7BAF83A0001305C
:1071A000AAF83A0080B20F28E4D300204849AAF890
:1071B0003A0001208AF812000098FDF761FA3C4974
:1071C0000546FDF725FB00281CBF44F20005C4F26C
:1071D0009C550095B560CDE7000C004000409C45F3
:1071E00000B80847000048427069F169FDF748FAA5
:1071F000F0613A4DF0692946FDF718FB00B9F561D9
:10720000F06900210024FDF72DFB00B9F461D6E9F7
:10721000005470693169FDF785FAB06120467769DD
:10722000F169FDF785FA716A049003910498039956
:10723000FDF7EEFA08B9039804900498039981F0D9
:107240000041FDF701FB18B9039880F0004004905D
:1072500028463946FDF76CFA0499FDF711FA044601
:10726000B1690098FDF764FA2146FDF709FA30622A
:1072700070693061306AB16AFDF7CAFA08B9B06A5C
:107280003062306AB16A81F00041FDF7DDFA08B979
:1072900000203062346AC9F8404030E70000A04165
:1072A000000C00400801002000B8084778010020C9
:1072B00000409C450000A041C5DC01089CDC0108A1
:1072C00000004843000048C30000A0400000A0C0E8
:1072D00000409CC50000C8420000C8C200C82F473B
:1072E0002DE9F041264D02FB03F4640095F8D663C6
:1072F000069D012E06D076B9023DEEB27B2E0AD253
:10730000214E04E0023DEEB27A2E04D81D4EEDB2BD
:1073100056F8255000E0002502440B44FFF79CFB83
:107320001A4F4FF0000844B32846B8EB942F0ED103
:10733000214603F029FD0026A64206D2B85B00BA1A
:10734000000CFDF7E1FE0236F6E7002012E04FF4F4
:10735000806103F019FD0026B6F5806F06D2B85B98
:1073600000BA000CFDF7D0FE0236F5E7A4F5806008
:107370004FF4806425440446D5E7BDE8F08100BFA2
:10738000540600202CB3000840B10008D4010020AE
:107390000848C168890603D50168890648BF416865
:1073A000C168490605D50168490644BF6FF0400130
:1073B0000160704700380140FEE7000010B500EBA7
:1073C00040010A284FF00702084B28BF1E3902FA75
:1073D00001F14FF00C0238BF1022D4582143D15094
:1073E000596B21F01F010843586310BD0024014070
:1073F0000148102101607047141C01400148102110
:1074000001607047101C014032490A68C2F38103D1
:10741000314AF0B5DFE803F002380A380B6D9B05FE
:1074200032D5CB6A9B0148BF2D4A2DE00B688C6A90
:107430001B0C002C13D40C680D68C5F34175C4F304
:1074400083440DB90F2C43D12D0101352C44DB07AA
:1074500002D00B689B0300D5204A624314E08C6A7B
:107460008D6A8E6ADB071D4BC4F30314C5F3082530
:1074700006F0070603D00F68BF0358BF134604FA8F
:1074800006F26B43B3FBF2F2026016A40B68C3F37F
:107490000313E35C174CDA4042600B68C3F302232A
:1074A000E35C22FA03F3C3600B68C3F3C223E35C1B
:1074B0000424DA4082600B68096804EA9363C1F32C
:1074C000813119440CA3595CB2FBF1F10161F0BDAB
:1074D0000225BBE70410024000127A0000093D00BB
:1074E000006CDC0200000000000000000102030448
:1074F0000607080994DC010802040608020C0810BB
:107500007CB5044600204FF6FF75C6B2142E09D88C
:10751000301901F0ABFEADF80600B01CBDF8061046
:10752000A942F2D1BDF806007CBD02684BF6EF73AC
:107530001A4002600A8903681A4302604A7C0368A1
:1075400002F0030223F4405343EA02320260CA7B92
:10755000036802F0030223F4406343EA82220260DC
:107560008A7B036802F0030223F4407343EA022299
:1075700002604A7B036802F0010223F0800343EAC1
:10758000C21202600A7B036862F3861303600A7CFE
:10759000036862F3451303604A8942600A688260A7
:1075A0004968C16070470000016821F00101016075
:1075B0000021016041608160C16040F2FF4100EA4A
:1075C00001020B49B2F5816F04D3D208902A0ED87C
:1075D00001F5806100F0FC0014220838B0FBF2F0E5
:1075E0000F22800002FA00F00A681043086070471A
:1075F00004000240F8B5DFF8400B00F128042046F3
:10760000FDF7FFFA01462046FDF756FA0138092832
:1076100000F28880DFE800F005228686476B811142
:10762000313CDFF8180B90F8E6134A1F162A00F2D7
:107630008681DFF80C0B02211BE0DFF8080B90F8C5
:10764000251000296ED1012180F82510DFF8EC0A01
:10765000FFF7DAF840F0278300202BE3DFF8DC0A9D
:1076600090F8E6134A1F162A00F2E080DFF8D00AED
:1076700003214171FCE0017254E0DFF8500DFFF787
:10768000C3F840F00181DFF8480D0721417170E037
:10769000DFF8380DFFF7B8F840F02181DFF8300D42
:1076A0000821417193E0DFF8245D95F8E603A0F12D
:1076B0002301062940F26A81811E0229C0F0D88088
:1076C0001B2800F0F0832F2800F0FC83372800F0FF
:1076D000EF83392840F0D38395F8C603002800F0E3
:1076E0000D85012840F0C480032000F008BDDFF8BC
:1076F000DC0CFFF789F815D1AB4A0023C0F8BA2398
:10770000AA4AC0F89C20DFF8C82C13720222022972
:1077100008BF0322FFF774F904E0DFF8B80C00217A
:1077200080F82510DFF8A80C4179172900F262854E
:10773000DFE811F018000502BF0176028102C801DE
:1077400051021F004D0092028801E0019401B60031
:10775000E1006A02600560056005AD02A1024C010E
:107760006005B301DFF8640C052180F8E61300F032
:107770003DBDDFF8585C95F8C403002840F036851D
:107780004FF47A700021A5F8BA03DFF8440C0172B7
:1077900095F8CD03012800F04283002840F057837C
:1077A000A8698349FCF76CFF8249FFF71CF910B9FF
:1077B000804C0020E86180492046AC61FCF7B8FFAE
:1077C0007E49FCF7E7FFFFF708F828623FE3DFF8A0
:1077D000FC5B95F8C403002840F008854FF47A70EC
:1077E0000021A5F8BA03DFF8E80B017295F8CD0384
:1077F000012800F03983002840F0C283A86970494D
:10780000FCF73EFF6F49FFF721F910B96D4C0020DE
:10781000E86169492046AC61FCF78AFF6749FCF7DB
:10782000B9FFFEF7DAFF286200F0AABBA1F11D0242
:107830001A2A00F25783DFE812F0A5001B00670345
:107840001B0071031B001F001B00EC031B00F40353
:107850001B001E041B0085038A037B031B00E4033B
:107860001B0076031B0092031B001B001B006C0314
:10787000DFF85C0B0021FEE690F8DF1301390A0601
:1078800008BF042100F005BC2F297FF44BAF90F80E
:10789000DC0302287FF446AFDFF8340B0D21417181
:1078A000DFF8286B96F8CD03012800F00A82002843
:1078B00040F09C84B4694049F56AFFF7A4F93F4958
:1078C000FCF768FFFEF789FF39497063FFF7FCF8A2
:1078D0003C490546FFF71CF8FFF754F929E02F292A
:1078E0007FF420AF90F8DC0302287FF41BAFDFF8B1
:1078F000E00A0E214171DFF8D46A96F8CD03012821
:1079000000F0EB81002840F07184B4692A49F56ADF
:10791000FFF779F92949FCF73DFFFEF75EFF28499B
:107920007063FFF7D1F828490546FEF7F1FFFFF72E
:107930002EF9002818BF2546F56200F057BCA1F1CA
:107940001D021A2A00F2D782DFE812F01C001B0089
:10795000DE021B00E8021B009C031B00A7031B00A8
:107960007F031B00B8031B00FC020103F2021B0093
:1079700072031B00ED021B0009031B001B001B0010
:10798000E30275E7DFF8480A092172E6DFE811F043
:107990007C027702070077020700770207002320A6
:1079A000FEF78DFF64E700BFE803E80300007F43B4
:1079B000000020410000FA43000010410000A040F8
:1079C000000020C10000C8420000C8C2DFF8FC0966
:1079D000D249D34DCF4ED04C00230122C0F898108D
:1079E000D049C0E92065D04DC0F88840D54C80F81A
:1079F000E82380F8B833836280F8DB3380F8D9332A
:107A000080F8D523A0F8CC33A0F8C83380F8C6336B
:107A100003658161C0E91A1540F201110467A0F8FD
:107A2000D2134FF48071A0F8CF134FF00131C0F89A
:107A3000E21340F20221A0F8E013C349C0F8BA13E0
:107A400000F0D4BBDFF8840990F8CF13002900F0D0
:107A50008F81012940F0CA8300218AE1DFF86C7927
:107A600097F8CD03012800F08981002840F0BE83FB
:107A7000BD69B649FC6A2846FCF75AFEB449FCF7D2
:107A800089FEFEF7AAFEB3497863FFF71DF8FFF7FA
:107A900088F8B149064620464BE0DFF8300990F8F7
:107AA000DD13002900F07581012940F09F8300213A
:107AB00070E1DFF8180990F8E6138A1C1A2988BFCC
:107AC0000522B5E0DFF8045995F8C413002940F009
:107AD0008D83FEF76DFF00F06082002840F04E833A
:107AE000AC699E49FEF761FF002800F02D83FEF788
:107AF000C6FE2CE3DFF8D47897F8CD03012800F018
:107B00004C81002840F07283BD699049FC6A284688
:107B1000FCF70EFE8E49FCF73DFEFEF75EFE88493F
:107B20007863FEF7D1FFFFF737F8064620464FF09F
:107B30007E51FCF7A5FD002E08BF284648E1DFF87E
:107B40008C0890F8E6130539362900F24F83DFE8F8
:107B500011F037004D03BB064D03A3064D03DF06AE
:107B60004D03E5064D03AA064D03C2064D03C906A3
:107B70004D03F3064D03ED064D038E064D034D03F5
:107B80004D03AD064D0391064D0385064D034D0390
:107B90004D034D034D034D034D034D034D03D006DF
:107BA000D506FE064D03F6064D0379064D039A06EB
:107BB0004D0306074D034D034D034D034D03820650
:107BC0001D2180F8E613FEF70CFE08BF90F8CB13DA
:107BD00080F8CC130AE3DFF8F45795F8C4130029B2
:107BE00040F00483FEF7E4FE00F0E181002840F05D
:107BF000E982AC695249FEF79BFE002800F0C8827A
:107C00005549FEF785FEC6E2DFF8C00790F8D213AB
:107C1000002900F0DF80012940F0E8820021DAE04D
:107C2000DFF8A80790F8E6138A1E062938BF1B2242
:107C300080F8E623DAE2DFF8940790F8C61301290A
:107C400000F0CE80002940F0CE8090F8C2130129C8
:107C500000F2C9800221C4E0DFF8700790F8CC136D
:107C6000002963D0012940F0C182FEF7BAFD40F03F
:107C7000BD8200215FE0DFF8540790F8DB13012993
:107C800000F0C180002940F0B1820121BCE0DFF8A2
:107C90003C0790F8D513012900F0BB80002940F083
:107CA000A5820121B6E00539362906D890F8E80307
:107CB00018B90420DFF818174871DFF814070121FC
:107CC000D9E4706B2649346AFCF7DAFC254905468D
:107CD000FEF71EFEFEF756FF0AE0706B2249346A7B
:107CE000FCF7CEFC21490546FEF712FEFEF74FFFDA
:107CF000002818BF254628464FF042417563FCF71F
:107D0000BFFC1349FCF714FD1049FCF743FDF0627A
:107D10006CE200BF0000A0420000F04200002042E0
:107D20000000C8420000BE430000C843FEF759FDF2
:107D300040F05C82012180F8CC1380F8CB1355E22F
:107D40000000C8420000D243E803E80300001041ED
:107D50000000A0400000C8C2000080BF0000FA433D
:107D60000000204100005443000020C1000054C323
:107D7000012180F8CD1380F8CF1337E2386AE24949
:107D80007C6BFCF77DFCFEF70CFFE04906462046C5
:107D90000EE0012180F8DD1328E2386ADC497C6BB3
:107DA000FCF76EFCFEF7F8FE064620464FF07E51CB
:107DB000FCF766FC4FF04241002E08BF284678636E
:107DC000FCF75EFCD349FCF7B3FCD349FCF7E2FCBB
:107DD000F8620BE2012180F8D01380F8D21305E29B
:107DE000032180F8E613CD490022C0E92711DFF80E
:107DF000481D90F8C90381F82620022804BFFF20FF
:107E000081F82700F2E1002180F8D91380F8DB1314
:107E1000ECE1002180F8D31380F8D513E6E1286A5D
:107E2000BF49FCF72DFCBF49FEF7DDFD10B9BD4C85
:107E30000020686220464FF042412C62FCF720FC93
:107E4000B449FCF775FCB449FCF7A4FCA86195F8AB
:107E5000B813032900F2C781FEF705FDDFE811F032
:107E6000C601C101BC01BF012C6AAF49FEF760FD2C
:107E7000002800F07980AD49FEF74AFD77E0DFF891
:107E8000840B0121FFF7F5BB95F8DF0301380328C8
:107E90003FF6EEACDFE810F00400500444044B045D
:107EA000FEF7E0FDE4E4DFF85C0B0421FFF7E1BB43
:107EB00095F8DD03012800F01B8100287FF4D8AC81
:107EC00017201CE195F8DC03012840F07B8002209C
:107ED000A9692A6A85F8DC039048C5E90B10C5E951
:107EE0000D20C5E4881E0228BFF4C2ACDFF8140BD5
:107EF0000621FFF7BEBB881E0228BFF4B9ACDFF82D
:107F0000040B0521FFF7B5BBDFF8F80A0A21FFF7DC
:107F1000B0BBDFF8F00A1721FFF7ABBBDFF8E40ACC
:107F20000F21FFF7A6BBDFF8DC0A1321FFF7A1BB87
:107F300090F8DC1300297FF49BAC2F2180F8E61326
:107F400001217EE0012180F8D6132C2103E00021DD
:107F500080F8D6132B2180F8E613FFF789BCDFF8F1
:107F6000A40A1421FFF785BB002068626848FEF769
:107F7000F1FC6849FCF7DCFB6749FCF70BFCA861E6
:107F800095F8B813032900F22E81FEF76CFCDFE8A8
:107F900011F02D012801230126012C6A6149FEF709
:107FA00004FD002800F0DE80FEF769FCDDE02C6AAD
:107FB0005749FEF7BDFC002800F0F8805349FEF752
:107FC000A7FCF6E00120D5E90A4185F8DC03534817
:107FD000FEF7F1FD0146FEF79BFC5549FEF76EFDED
:107FE000544900281CBF0024C4F2C8242046FCF7D2
:107FF0000FFC00281CBF0024CCF2C824AC62FFF7A1
:1080000037BCFEF731FE17D1DFF8F8090C21FFF776
:1080100030BB90F8E1130139CAB2022A38BF0321FC
:1080200041E090F8E31301390A0608BF032112E08A
:10803000FEF71AFE00F0AF8401297FF419ACFEF7B9
:1080400000FE80F8DC13FFF713BC90F8E313FEF793
:1080500042FD88BF012180F8E313C9B2032900F073
:108060008184022900F08084012904BF012180F865
:10807000E213FFF7FDBB90F8E51301390A0608BFCC
:10808000032121E090F8DF130131CAB2042A88BF2E
:10809000012180F8DF13FFF7EBBB90F8E113FEF747
:1080A0001AFD88BF022180F8E113C9B2032900F04C
:1080B000328302297FF4DCAB02212DE390F8E51333
:1080C000FEF709FD88BF012180F8E513C9B2032935
:1080D00000F04F84022900F0518401297FF4C8ABDD
:1080E000012180F8E413DFF8500A002100F04BBCB6
:1080F000DFF8100915214171392000E0022085F8D0
:10810000E603FFF7B5BB00BF000054C3000080BF0B
:10811000000054430000A0400000104100007F43D5
:10812000000048420000694400007D43000024C272
:108130000000C8420000C8C26C00002054060020A5
:1081400000000020080100200020E861A248A349A7
:10815000A861FCF7EDFAA249FCF71CFBFEF73DFB1A
:1081600028620BE0002068629E48FEF7F3FB9C4902
:10817000FCF7DEFA9949FCF70DFBA86195F8B813F6
:10818000032930D8FEF76FFBDFE801F0302B2629FA
:108190000020E86194489149A861FCF7C9FA904928
:1081A000FCF7F8FAFEF719FB28620BE00020686282
:1081B0008E48FEF7CFFB8A49FCF7BAFA8749FCF7ED
:1081C000E9FAA86195F8B81303290CD8FEF74BFB20
:1081D000DFE801F00C07020505F1900001E005F170
:1081E000940083490160002085F8B803DFF8140883
:1081F00016214171DFF81C482046FCF702FD0146BC
:108200002046FCF759FC0138092800F29981DFE883
:1082100010F00A002B0097019701560078008F009C
:1082200019003A004800DFF81409FEF7EDFA40F0B3
:108230008C8090F8C9030228DFF8C80714BF012119
:1082400005211EE0DFF8D80F90F82310002940F038
:108250007781012180F82310DFF8D40FFEF7D4FADC
:1082600040F08580002089E0DFF8C40FFEF7CCFAEB
:1082700064D190F8C9030228DFF8880714BF0221EF
:108280000621017158E1DFF87C1700200872DFF841
:10829000A00F90F8C9030238B0FA80F040098000BE
:1082A0000BE0DFF8601700200872DFF8840F90F809
:1082B000C9230320022A08BF0720087143E1DFF821
:1082C000705F95F8E603A0F12301062945D9811EC8
:1082D0000229C0F031811B2800F0CC802F2800F04B
:1082E000D680372800F0CA80392840F0B18095F850
:1082F000C603002800F00B82012840F01D810320F6
:1083000006E2DFF82C0FFEF77FFA40F01981394AB8
:108310000023C0F8BA23364AC0F89C20DFF8E426D0
:1083200013720222022908BF0322FEF769FB07E14C
:10833000DFF8EC0E002180F8231001E14A1F162A15
:1083400023D8DFF8C0060321F5E04A1F162A00F201
:108350005A80DFF8B0060221EDE0DFE801F07D7918
:108360000479047904002320FEF7A9FAE4E0053932
:10837000362906D890F8E80318B90420DFF88416E7
:108380004871DFF880060121D9E01D391A2900F271
:10839000D380DFE811F05900D100CD00D100C90031
:1083A000D1003100D100DE01D100F901D100E60198
:1083B000D100B500BA00C100D100D801D100B10090
:1083C000D100AD00D100D100D100A9005406002099
:1083D00000000020080100200000FA4300001041C6
:1083E0000000A040000069440000C842000054435F
:1083F00000007F43E803E80390F8DF1301390A0621
:1084000008BF042103E21D391A2900F29580DFE834
:1084100011F01B0093008F0093008B009300F70175
:108420009300D1019300E2019300010293007700D1
:108430007C0083009300AF019300730093006F00F2
:108440009300930093006B00DFF8B805092172E0F8
:10845000DFF8B00501216EE095F8DF03013803284D
:108460006AD8DFE810F004006D0161016701FEF7D2
:10847000F9FA61E0DFF88C0504215CE095F8DD0392
:10848000012800F03F81002856D1172040E195F8DF
:10849000DC0301280AD10220A9692A6A85F8DC03D5
:1084A000BD48C5E90B10C5E90D2045E00120D5E91F
:1084B0000A4185F8DC03B848FEF77DFB0146FEF76C
:1084C00027FAB649FEF7FAFAB54900281CBF00247E
:1084D000C4F2C8242046FCF79BF900281CBF0024E6
:1084E000CCF2C824AC6227E0DFF81805172122E09F
:1084F000DFF8100514211EE0DFF8080513211AE04B
:10850000012180F8D6132C2103E0002180F8D61336
:108510002B2180F8E6130FE090F8DC1361B92F21CE
:1085200080F8E61301212CE1DFF8D8040F2102E0E6
:10853000DFF8D0040A214171DFF8C804002101727C
:10854000DFF8C0040079072800F2DB80DFE800F0E4
:10855000048137501D9AB469DFF88C5E4FF47A704D
:108560009049FEF77AF99049FEF770FA00281CBF8F
:108570000024C4F24834FEF7B5F900F2BB80FEF7E0
:1085800072F9DFE801F0BBB5B0B3DFF85C5E4FF421
:108590007A708449FEF75BF983490446FCF738F9A1
:1085A00018B9814C0020C5F8C000FEF7A1F900F20F
:1085B000A180FEF758F9DFE801F0A19B9699DFF85A
:1085C000285E4FF47A707949FEF747F97549FEF74E
:1085D0000AFA00281CBF0024C4F2A004FEF782F9A6
:1085E00000F28880FEF73FF9DFE801F088827D80A5
:1085F000DFF8F45D4FF47A706D49FEF72EF96949A2
:10860000FEF7F1F900281CBF0024C4F2A004FEF715
:1086100069F900F26F80FEF726F9DFE801F06F6973
:108620006467DFF8C45D4FF47A706149FEF70FF9B3
:108630005C49FEF743FA18B95A4C0020C5F8C0004F
:10864000FEF756F956D8FEF70EF9DFE801F057515C
:108650004C4FDFF8945D4FF47A704FF07E51FEF787
:10866000FCF85149FEF7F2F900281CBF0024C4F2BF
:108670004834FEF737F93DD8FEF7F5F8DFE801F0AA
:108680003E383336DFF8605D4FF47A704FF07E513C
:10869000FEF7DDF844490446FCF7BAF818B9424C35
:1086A0000020C5F8C000FEF723F923D8FEF7DBF859
:1086B000DFE801F0241E191CD14D4FF47A70D44923
:1086C000FEF7C5F8D149FEF7F9F918B9CF4C0020EB
:1086D000C5F8C000FEF70CF90CD8FEF7C4F8DFE8C7
:1086E00001F00D07020505F1900001E005F194008D
:1086F000C5490160C248002180F8B813C14808216B
:108700000171F8BDBF4815214171392000E00220F8
:1087100085F8E60310E7032180F8E013FFF7A8B817
:10872000FEF7B8F9FFF7A4B8FEF7B4F904E70B2099
:10873000FFF736B90B2017E6FEF79CF9FFF798B85C
:10874000FEF798F9F8E6FEF78FFA15D1AD480C213F
:10875000F1E690F8E1130139CAB2022A38BF0321C9
:108760002EE090F8E51301390A0608BF032157E00F
:10877000FEF77AFA00F0258101297FF4DDAEFEF7DD
:1087800060FA80F8DC13D7E690F8E31301390A06A3
:1087900008BF032125E000BF00007F430000C8425E
:1087A0000000C8C20000A04000004843000080BF95
:1087B0000000A0C090F8E113FEF78DF988BF0221F8
:1087C00080F8E113C9B2032900F0E18002297FF4A7
:1087D000B3AE0221DCE090F8E313FEF77CF988BF2A
:1087E000012180F8E313C9B2032900F0DA800229DD
:1087F00000F0D580012904BF012180F8E2139BE637
:1088000090F8DF130131CAB2042A88BF012180F831
:10881000DF1391E690F8E513FEF75DF988BF0121BB
:1088200080F8E513C9B2032900F0BF80022900F0E7
:10883000C08001297FF480AE012180F8E413BE4896
:108840000021BBE090F8D513012998BF80F8D3131D
:108850001121FEF78ABF1921FEF787BF90F8D213C6
:10886000012998BF80F8D0130921FEF77EBF3B2174
:10887000FEF77BBF90F8CF13012998BF80F8CD1386
:108880000721FEF772BF90F8DB13012998BF80F82B
:10889000D9131321FEF769BF212180F8E61390F860
:1088A000D013FFF79ABAFEF7CCF99DE090F8CC13FD
:1088B000012900F0898000297EF456AFFDF791FF71
:1088C00040F09680002183E01F2180F8E61390F8A5
:1088D000CD13FFF750BA312180F8E61390F8D31387
:1088E000FFF79ABA332180F8E61390F8D913FFF70F
:1088F0008DBA90F8D81341B9002104E090F8D8134C
:10890000012902D1012180F8D6130D21FEF72DBFD8
:10891000042180F8DF132321FEF727BF90F8D61338
:10892000002959D001295AD12C2256E0002180F883
:10893000DD133721FEF719BF3521FEF716BFFEF70D
:1089400093F950D001297FF451AC02214CE090F80A
:10895000DC1300297FF44AAC0F21FEF706BF152176
:10896000FEF703BF032100E0022180F8E213FEF7C7
:108970007FBF032180F8E413FEF77ABF022180F85D
:10898000E4136D48012180F82410FEF771BF032124
:1089900080F8E013D0E51B480B21FEF76ABE0221E8
:1089A00000E0032180F8E213C6E5032180F8E41318
:1089B000C2E5022180F8E4135F48012180F8241009
:1089C000BAE510480B21B6E5FDF70BFF12D10121E6
:1089D00080F8CB13FEF7C8BE2B2280F8E62380F880
:1089E000D813FFF703BC012180F8DC13FFF7FEBBAF
:1089F000002100E0012180F8C913FEF7B5BE00BFD9
:108A0000540600200000002000007F430000A0402A
:108A1000000080BFCC00002070B5474C207C38B1EE
:108A20004848FF210160454890F8C40330B170BD4B
:108A3000424D95F8C40320B1012000E000202074CD
:108A400070BD95F8C903022804D101206074D5F8DF
:108A5000BC0052E095F8C00301280FD0002842D195
:108A600028684049FBF7E2FE617C002854D00029C9
:108A7000DDD1012000216074324852E095F8C20334
:108A8000A8B301282FD195F8D90370BB607C2C497D
:108A9000012804BF002060742C68FDF786FF294E72
:108AA000002840D02949FDF780FF002840D1244903
:108AB000FDF76BFFE0BB2046FBF744FF244A254B44
:108AC000FBF719FCFBF751FFC5F8B400FBF73AFFC1
:108AD000214A224BFBF70FFC214B0022FBF764FBE2
:108AE000FBF717FF25E095F8D90301289FD1607C9B
:108AF00008B901206074D5F89800FBF723FF164AE7
:108B0000164BFBF7F8FB164B0022FBF74DFBFBF770
:108B100000FF0C49086070BD00297FF488AF094848
:108B20003221016070BD0848C5F8B4008F2000E014
:108B30000020306070BD00BF0801002054060020F6
:108B400000007A43380000400000C84200008C4218
:108B50009A9999999999D93F14AE47E17A14F23FBD
:108B600000003E4000002042064907480A7822B92A
:108B70004CF6CC42026001220A704AF6AA2101603A
:108B8000704700BFD40500200030004010B5074CEE
:108B9000226842F00102226001804FF4801000F050
:108BA0001BF8206820F00100206010BD102002405A
:108BB00008480168C9071CBF0020704701684907C1
:108BC00044BF012070470068C0064FF0020058BF44
:108BD000032070470C200240B0B50446FFF7E8FFC1
:108BE0000025013C45F1000118B911B1FFF7E0FF84
:108BF000F7E7B0BD2DE9F047DFF8249699F80100BA
:108C0000032800F2CB80DFE800F002D10BAADFF8E6
:108C1000D85795F8E903002800F0F2810120EBE134
:108C20005F49DFF8C4575F4ADFF8086601F11000BA
:108C3000884699F80C10924611F0010708BF02F11E
:108C40000E0095F8C613B04708F11200002F08BFB8
:108C50000AF1100095F8CD13B04708F11400002F69
:108C600008BF0AF1120095F8D013B04708F11600BA
:108C7000002F08BF0AF1140095F8D613B04708F189
:108C80001804002F08BF0AF11604A86AFBF714FEA7
:108C900001462046B04708F11A00002F08BF0AF12C
:108CA000180095F8D313B04708F11C00002F08BF37
:108CB0000AF11A0095F8D913B04708F11E00002FE9
:108CC00008BF0AF11C0095F8C913B04708F120004D
:108CD000002F08BF0AF11E0095F8E013B04708F115
:108CE0002200002F08BF0AF1200095F8E213B047D8
:108CF00008F12400002F08BF0AF1220095F8E413C0
:108D0000B04795F8C60389F8020095F8CD0389F8B5
:108D1000030095F8D00389F8040095F8D60389F884
:108D2000050095F8D30389F8060095F8D90389F86A
:108D3000070095F8C90389F8080095F8E00389F859
:108D40000900A86AFBF7B8FDA9F8360095F8E20318
:108D500089F80A0095F8E40389F80B0049E1104806
:108D600099F80C200F492630D20708BF01F12400E2
:108D7000B9F83810FFF70AFF0B48016841F080018D
:108D80000160012089F80100B9F838000130A9F824
:108D9000380099F80C00013089F80C00BDE8F08724
:108DA00000F4010802FC010810200240B9F82E006E
:108DB000FBF77DFDDFF830860146D8F81800FBF799
:108DC0005FFD002800F08080B9F83000FBF76FFDF0
:108DD0000146D8F89800FBF753FD002874D0B9F885
:108DE0003200FBF764FD0446D8F86800FDF7AFFDDC
:108DF000002869D0B9F83400FBF759FD0546D8F8CA
:108E00008000FDF7AFFD00285ED0D8F86C00FDF7BC
:108E10009EFD002858D0D8F88400FDF7A3FD002857
:108E200052D0D8F87000FDF792FD00284CD0D8F849
:108E30008800FDF797FD002846D098F8C60399F8FA
:108E40000210814240D198F8CD0399F80310814275
:108E50003AD198F8D00399F80410814234D198F8A7
:108E6000D60399F8051081422ED1B9F83600FBF7E8
:108E70001EFD0146D8F82800FBF702FD20B398F844
:108E8000D30399F8061081421ED198F8D90399F8B6
:108E90000710814218D198F8C90399F80810814247
:108EA00012D198F8E00399F8091081420CD198F892
:108EB000E20399F80A10814206D198F8E40399F880
:108EC0000B1081423FF46AAFD84DDB4845F80C0CDB
:108ED000DA4845F80C0C99F80C00296841F00201B9
:108EE00010F001062960D0490C468A4608BF04F5F7
:108EF00000646C60286840F0400028604FF08040BB
:108F0000FFF76AFE286820F002002860D8F81800F1
:108F1000FBF7D2FCC74FFDF763FD0AF10204002EF8
:108F200004BF4FF60244C0F60104D8F89800FBF7DE
:108F3000C3FCFDF755FD0AF10404BA4D002E08BF2D
:108F4000AC1CD8F86800FBF7B7FCFDF749FD0AF147
:108F50000604002E08BF2C1DD8F88000FBF7ACFCDF
:108F6000FDF73EFD0AF10804002E08BFAC1DD8F83D
:108F70006C00FBF7A1FCFDF733FD0AF10A04002E9B
:108F800008BF05F10804D8F88400FBF795FCFDF74D
:108F900027FD0AF10C04002E08BF05F10A04D8F8D9
:108FA0007000FBF789FCFDF71BFD0AF10E04002E93
:108FB00008BF05F10C04D8F88800FBF77DFCFDF72D
:108FC0000FFDD8F81800D8F87040D8F88850D8F8B5
:108FD0009860FBF771FCA9F82E00FDF76CFDA9F86D
:108FE0003000FDF7BCFCA9F83200FDF732FDA9F80E
:108FF000340099F80100013089F80100BDE8F087DC
:10900000D14C2046FEF77CFA4FF6FF76B04210D0E6
:109010002046FEF775FAB0420BD004F1260000F0AE
:1090200025F904467F48243000F020F9844205D811
:109030000DE02046FEF764FAB04202D000F03AF9A3
:1090400032E004F50060FEF75BFAB04202D000F0B7
:109050007DF929E07C4A7E4B7A4879490024012633
:1090600085F8D64385F8D06385F8CD4385F8C643A7
:1090700085F8D94385F8D343AC6285F8E46385F875
:10908000E26385F8C943C5F88020C5F884306F4A8B
:10909000704BA86128670220C5F89810C5F88810A1
:1090A00085F8E003C5E91A23AC696B49FDF740FC7C
:1090B00018B96A49FDF769FC08B96248A861D5F892
:1090C00098406749FDF734FC18B96649FDF75DFC27
:1090D00010B95B48C5F89800AC6E5F49FDF728FCF5
:1090E00018B95E49FDF751FC08B95848A866EC6EFE
:1090F0005949FDF71DFC18B95849FDF746FC08B958
:109100005448E8662C6F5449FDF712FC18B95349CE
:10911000FDF73BFC08B94B482867D5F8804050491B
:10912000FDF706FC18B94F49FDF72FFC10B946486A
:10913000C5F88000D5F884404949FDF7F9FB18B916
:109140004849FDF722FC10B94148C5F88400D5F81C
:1091500088404349FDF7ECFB18B94249FDF715FC7F
:1091600010B93748C5F8880095F8C6033B4902286E
:1091700024BF002085F8C60395F8CD03022824BF3C
:10918000002085F8CD0395F8D003022824BF0120E4
:1091900085F8D00395F8D603022824BF002085F86F
:1091A000D603AC6AFDF7C4FB18B92F49FDF7EDFBF8
:1091B00008B90020A86295F8D303022824BF002034
:1091C00085F8D30395F8D903022824BF002085F839
:1091D000D90395F8C903022824BF002085F8C903E4
:1091E00095F8E003043810F1030F9CBF022085F8C6
:1091F000E00395F8E203043810F1040F9CBF01204E
:1092000085F8E20395F8E403043810F1040F9CBFDD
:10921000012085F8E403012085F8E903BDE8F08723
:109220000801002002FC010800F40108102002409F
:10923000540600208D8B000823016745AB89EFCDD4
:109240000000A0420000BE43000048420000A043CE
:10925000000070420000AF430000FA430000C84223
:10926000000048430000A0400000C8C281B001686F
:10927000D0F801008DF800108DF801009DF8010074
:109280009DF8001041EA0020ADF80200BDF8020090
:1092900001B0704780B5FEF791F80548816841F448
:1092A0008001816001688907FCD5C06C80B280BDF7
:1092B0000024014070B5244C4A4D2046A847FBF7D6
:1092C000F6FA494EB061A01CA847FBF7F0FAC6F8C1
:1092D0009800201DA847FBF7EAFAB066A01DA84732
:1092E000FBF7E5FAFDF73CFCFBF7E1FAF06604F169
:1092F0000A00A847FBF7DBFAFDF72DFCFBF7D7FACE
:10930000306704F10E00A847FBF7D1FAFDF71EFC09
:10931000FDF717FCFDF710FCFDF704FCFDF7FDFB66
:10932000FBF7C5FAB06204F11A00A847FDF7F0FB9D
:10933000FDF7E9FBFDF7DDFBFDF7D6FBFDF7CFFB06
:1093400086F8E40370BD00BF00F4010870B5244C3A
:10935000244D2046A847FBF7AAFA234EB061A01C73
:10936000A847FBF7A4FAC6F89800201DA847FBF70A
:109370009EFAB066A01DA847FBF799FAFDF7F0FB2F
:10938000FBF795FAF06604F10A00A847FBF78FFA9D
:10939000FDF7E1FBFBF78BFA306704F10E00A847FD
:1093A000FBF785FAFDF7D2FBFDF7CBFBFDF7C4FB1E
:1093B000FDF7B8FBFDF7B1FBFBF779FAB06204F1FA
:1093C0001A00A847FDF7A4FBFDF79DFBFDF791FBF5
:1093D000FDF78AFBFDF783FB86F8E40370BD00BF51
:1093E00000FC01086D92000854060020F0B58B794E
:1093F0000A88032B0AD05BB94979282913D0182988
:1094000012BF01F00F01026108210EE000210CE003
:109410000C79C97903F0080304F0040401F0030196
:109420002344194401E042610821130616D00023A9
:109430000F240025082D11D022FA05F6F6070AD0D0
:10944000076804FA03F627EA0606066001FA03F63F
:1094500007683E43066004330135EBE7B2F5807FD1
:1094600017D3120A00230F240025082D11D022FA49
:1094700005F6F6070AD0476804FA03F627EA060657
:10948000466001FA03F647683E43466004330135FF
:10949000EBE7F0BDB8B1F8B50B4F04461E200D4602
:1094A000B847064620744FF44870B84760740020EF
:1094B000B847A0742846B847E074300604BF0120BE
:1094C0002074BDE8F840704715AB00082DE9F84F4F
:1094D000DFF8C09999F8E903012840F0D18499F8A0
:1094E000C403002840F0CC84DFF8ACA99AF80F0040
:1094F00008BBDFF8A8490120DFF8A45900218AF849
:109500002A008AF80F0004F11C00A84704F130007B
:109510000021A84704F144000021A84704F15800A5
:109520006421A847DFF87C4964212046A84704F15C
:1095300014000021A84700200FF66C114FF0020B19
:109540004FF0040E4FF080784FF0030C0025062DED
:1095500000F08A8051F825301C689E88A768DC7965
:10956000042C59D83740BE1BB6FA86F677099E7987
:10957000DFE804F003311A2A0D00BE4204D1D8738B
:10958000188183F807B0988100245C8145E0BE42D1
:1095900032D19A89DE7C541C9C81EEB3A2B2B242D5
:1095A0003AD39881042438E0BE422BD11A891C7C1E
:1095B00001321A8192B2A2422ED39A7B01241881E1
:1095C000DC7101329A7328E0BE421ED1002483F878
:1095D00007B09C6021E0BE4225D11A895C7C013233
:1095E0001A8192B2A24217D3DA7BAAB983F807E0B4
:1095F000C3F80C80032410E0002483F807B0DC7368
:109600001C810AE00024DC7107E05A899C7C01324D
:109610005A8192B2A24219D200240AEB0502013506
:1096200082F8504093E75A7C1C89588183F807B030
:10963000944214D29C7BA4B1012C07BF83F807C0CD
:109640000024D871987318BF05240AE09A7BD8715A
:109650009873013AB2FA82F252095400DDE702240B
:109660009873D8731881D8E79AF85000022814D05C
:10967000032841D1FDF7BEF93ED1FDF7B7F928D156
:10968000FDF7C9FAC9F87400FAF7FAFFCA49FBF7FF
:109690004FF8CA49FBF77EF81DE0FDF7A6F82BD07E
:1096A000C748C849D9F88020C9F8BA030120FDF796
:1096B000C3F8D9F86800C9E90601C049FBF738F8D2
:1096C000BD49FBF767F8FDF788F8C9F820000020CE
:1096D0000FE0D9F81800BB49C9F86800012089F8E3
:1096E000B80389F8BE03FDF791FAD9F89810C9F8C4
:1096F0008010DFF8A81708729AF8510003281DD0CF
:10970000022842D1FDF771F83FD0AD48AD49D9F8F4
:109710008420C9F8BA030220FDF78EF8D9F86C004E
:10972000C9E90601A549FBF703F8A349FBF732F89D
:10973000FDF753F8C9F82000002023E0FDF75AF99F
:1097400023D1FDF753F90CD1FDF765FAC9F878007C
:10975000FAF796FF9849FAF7EBFF9849FBF71AF8E2
:1097600001E0D9F818009749C9F86C00022089F87F
:10977000B8030120FDF74AFAD9F8981089F8BE031A
:10978000C9F88410DFF8141708729AF852000328F9
:109790001DD0022842D1FDF728F83FD088488949DA
:1097A000D9F88820C9F8BA030320FDF745F8D9F89D
:1097B0007000C9E906018149FAF7BAFF7E49FAF754
:1097C000E9FFFDF70AF8C9F82000002023E0FDF7C3
:1097D00011F923D1FDF70AF90CD1FDF71CFAC9F8EC
:1097E0007C00FAF74DFF7449FAF7A2FF7349FAF7C4
:1097F000D1FF01E0D9F81800C9F8700003207149C1
:10980000D9F8982089F8B803012089F8BE03C9E97E
:109810002221C9E92411DFF8841608729AF853004E
:10982000042813D0022862D1DFF87006FDF7FFF894
:1098300003292ED0022922D0012958D1FDF702F99F
:1098400020D00021C1708AF8241050E0DFF84C06C7
:10985000FDF7EDF8022908D0012948D1FDF7F2F80B
:1098600006D00121C17000203AE0FDF7EBF832D1BB
:109870009AF82410012936D0C9BB012136E0FDF742
:10988000E1F82AD19AF8241001292ED079BB0021C1
:109890002CE099F8B8030130C1B2032988BF012038
:1098A00089F8B8030138C1B202290FD8DFF81C06C5
:1098B000DFF81C26FCF7B5FF4049FAF739FF3E49AF
:1098C000FAF768FFFCF789FFC9F820003D483C49DA
:1098D000FDF74BF90BE0052100E00421C1700120E8
:1098E0008AF8240003E0052100E00421C1709AF801
:1098F0005400042810D0022868D1DFF8A005FDF735
:1099000096F803292CD0022920D001295ED1FDF739
:1099100099F81ED002210BE0DFF88005FDF787F8EB
:10992000022908D0012951D1FDF78CF806D0032176
:10993000C17000203DE0FDF785F832D19AF824107F
:10994000012931D0002941D103213EE0FDF77AF809
:109950002CD19AF82410012936D0B9BB022134E069
:1099600099F8B803411E022838BF032189F8B813BB
:10997000481EC1B202290FD8DFF85005DFF8502584
:10998000FCF74FFF0D49FAF7D3FE0B49FAF702FF38
:10999000FCF723FFC9F820000A480949FDF7E5F85C
:1099A00014E001218AF8241007210EE00621C1707D
:1099B00001208AF8240009E00000A04000001041C6
:1099C000E803E80300007F430621C1709AF85500C0
:1099D00003282AD0022840F0A680DFF8C004002126
:1099E000017299F8E213032930D0022927D0012906
:1099F00040F099809AF80D10012942D101218AF88E
:109A00000E105021016199F8E4139AF824000229FC
:109A100059D001295ED10130C1B28AF8240002294F
:109A200024BF0021AAF80D1054E0DFF870040121D2
:109A3000017299F8E003032808D0022873D1FCF7DB
:109A4000D4FE0BD289F8CB0302200AE099F8C903AF
:109A5000012812D0002866D101200FE003D199F827
:109A6000CB0389F8C9034FF47A70A9F8BC0300202E
:109A7000C9F8AC00C9F8C00055E0002089F8C90356
:109A800051E099F8B8030130C1B2032988BF012021
:109A900089F8B8030138C1B202290FD8DFF82C04C5
:109AA000DFF82C24FCF7BDFECD49FAF741FECD4985
:109AB000FAF770FEFCF791FEC9F82000CA48CB49BE
:109AC000FDF753F82FE000B3012803D100208AF8F6
:109AD000240003E0C0B201280CD0E0B9C248C9F8A4
