:020000040800F2
:10200000881C00208521000803480008712D000865
:1020100001480008472A0008616E0008000000001F
:102020000000000000000000000000001F4D00083C
:10203000492A0008000000001D4D0008214D00083D
:102040009F2100089F2100089F2100089F21000870
:102050009F2100089F2100089F2100089F21000860
:102060009F2100089F2100089F2100089F21000850
:102070009F2100089F2100089F2100089F21000840
:102080009F2100089F2100089F2100089F21000830
:102090009F2100089F2100089F2100089F21000820
:1020A000B56200089F2100089F2100089F210008B9
:1020B0009F2100089F2100089F2100089F21000800
:1020C0009F2100089F2100089F2100089F210008F0
:1020D0009F210008016E00089F2100089F21000831
:1020E0009F2100089F2100089F2100080000000098
:1020F00000000000000000000000000000000000E0
:10210000000000009F210008E562000800000000B8
:102110009F2100089F21000800000000000000002F
:102120009F2100089F2100089F2100089F2100088F
:10213000000000000000000000000000000000009F
:102140000000000000000000000000009F210008C7
:1021500000000000000000009F2100089F210008EF
:102160000000000000000000000000009F210008A7
:10217000DFF80CD000F0A0F900480047758800088F
:10218000881C00200648804706480047FEE7FEE717
:10219000FEE7FEE7FEE7FEE7FEE7FEE7FEE7FEE717
:1021A00041620008712100082DE9FE4F804681EA56
:1021B0000300C00F0C46009021F0004123F00045C1
:1021C000B8EB0200A94105D24046214690461C4684
:1021D0000B46024623F00040104347D0270DC7F3BB
:1021E0000A00C3F30A510290401A019040286BDAAA
:1021F000C3F3130040F4801B0098924620B10023E3
:10220000D2EB030A63EB0B0B01985946C0F1400275
:10221000504600F069F906460D4650465946019A67
:1022200000F081F910EB08006141002487EA1152A7
:1022300084EAE7731A4340D0009A62B3019A012AF4
:102240004FEA075215DC001B61EB02014FF0004220
:1022500002EA0752CDE90042001C41F580113246E6
:102260002B4600F081F903B0BDE8F08F40462146CF
:10227000F9E7001B61EB0201001C41F58013001817
:102280005B412018A2F5001747EB030140EAD57027
:10229000B6196D4111E06D084FEA360645EAC07582
:1022A0004FEA0752001B61EB0201001C41F580114F
:1022B00049084FEA30000019514132462B4603B01D
:1022C000BDE8F04F00F041B9009801224000002322
:1022D000D0EB020263EBE073009821464FEAE07412
:1022E000B8EB000061EB0401E9E783F000435BE732
:1022F00081F0004158E72DE9FE4F81EA030404F024
:10230000004421F0004100944FF0000B23F0004303
:1023100050EA01045ED052EA03045BD0C3F30A54CE
:10232000C1F30A552C44A4F2F3340194A0FB0254E7
:10233000C1F3130141F48011C3F3130343F4801379
:1023400001FB024400FB034E840A970A44EA8154CD
:1023500047EA8357A4FB076802958D0A05FB0785AA
:102360004FEA932C04FB0C542705029D4FEA0658B4
:1023700047EA1637B5EB08056EEB070C870E920E91
:1023800047EA811742EA8312A7FB0201B6EB0B0171
:1023900064EB00042B0D43EA0C335E1844EB1C5035
:1023A000DA465146E7FB0201C5F313044FEA0B334B
:1023B00043EA14534FEA0432019C43EA0603A4F1B2
:1023C0000C040294009CCDE900B400F0CDF803B0F9
:1023D000BDE8F08F00200146F9E72DE9F04D81EAD4
:1023E000030404F0004B21F0004514464FF0000AAE
:1023F00023F0004150EA050220D054EA01021DD02A
:10240000C5F30A570246C5F31303C1F31300C1F322
:102410000A5640F4801543F48013A7EB0608101BFE
:10242000D64608F2FD3873EB050002D308F1010827
:1024300001E092185B41B8F1000F03DA0020014679
:10244000BDE8F08D00204FF48011064684460EE072
:10245000171B73EB050705D3121B63EB050306433C
:102460004CEA010C49084FEA300092185B4150EAEF
:102470000107EDD152EA030012D082EA040083EA98
:102480000501084305D0101BAB4106D201220023F1
:1024900006E000224FF0004302E06FF0010253100B
:1024A0001AEB06004CEB085110EB0A0041EB0B0154
:1024B000BDE8F04D00F049B81CB509480090094846
:1024C00001900546009C06E0E06840F0010394E8B6
:1024D000070098471034AC42F6D3FFF74DFE0000DA
:1024E00068C7010888C70108202A04DB203A00FADF
:1024F00002F1002070479140C2F1200320FA03F35B
:10250000194390407047202A04DB203A21FA02F058
:102510000021704721FA02F3D040C2F1200291401D
:10252000084319467047202A06DBCB17203A41FAA8
:1025300002F043EAE07306E041FA02F3D040C2F150
:102540002002914008431946704710B5141E73F1DC
:10255000000408DA401C41F1000192185B411A4363
:1025600001D120F0010010BD2DE9F04D92469B46AF
:1025700011B1B1FA81F202E0B0FA80F22032904655
:10258000FFF7B2FF04460F4640EA0A0041EA0B019A
:1025900053465A46084313D0114653EA010019D056
:1025A000C8F140025046FFF7AEFF05460E465046C2
:1025B00059464246FFF798FF084305D0012004E042
:1025C00020463946BDE8F08D0020054346EAE07616
:1025D0002C4337430A986305E40AA0EB0800002265
:1025E000FD0A44EA47540A3002D500200146E9E7D3
:1025F000010510196941DDE9084500196941BDE887
:10260000F04DA2E70EB540F2334102910021CDE931
:1026100000110A460B46FFF7A7FF03B000BD70B5D7
:10262000C1F30A5201F000450024C1F3130140F246
:10263000FF3341F480119A4201DA002070BD40F26C
:1026400033439A42A2F2334203DC5242FFF75BFF6C
:1026500000E090402C43F1D0404270BDD2B201E086
:1026600000F8012B491EFBD270470022F6E710B597
:1026700013460A4604461946FFF7F0FF204610BDF0
:10268000F0B480EA0102D40F4200B2EB410F02D253
:102690000246084611464A0042D0C30DDDB2C1F3DE
:1026A000C752AD1A202D35DAC1F3160141F40002EC
:1026B00004B15242C5F1200602FA06F12A41104443
:1026C000B3EBD05F23D0C4B1012DA0EBC35009DC24
:1026D000F0BC4FF0004202EAC352DBB200F500004A
:1026E00000F083B9400000F1807000EBC350A0F10E
:1026F000807040EAD170490009E0490841EAC071A0
:10270000A0EBC35000F50000400800EBC350F0BC44
:1027100000F062B96142012202EB4101001BF6E7C1
:10272000F0BC704781F00041AAE780F00040A7E7C5
:1027300080EA010210B502F00043400022D04A00B6
:102740001FD0010E01EB1261C0F35600C2F3560216
:1027500040F4000042F40002A0FB022000047F3994
:10276000140400D0401C50EA124001D44000491E1D
:10277000C2B20C0604EBD010401C4008802A02D0E4
:1027800003E0002010BD20F00100002900DA002045
:10279000184310BD30B480EA010202F0004530F069
:1027A000004221F0004013D090B1C30DD40DC2F30C
:1027B0001601C0F31600E41A41F4000140F40002CF
:1027C0007D34914201D3641C00E04900002C02DA00
:1027D00030BC002070474FF400000023914201D329
:1027E000891A034340084FEA4101F7D151B19142A0
:1027F00002D14FF0004105E002D24FF0010101E0AB
:102800006FF0010103EBC450284430BC00F0E4B881
:10281000002801DBC0F10040002901DBC1F10041CB
:10282000814201D80120704700207047002801DB59
:10283000C0F10040002901DBC1F10041814201D219
:102840000120704700207047002801DBC0F10040E4
:10285000002901DBC1F10041814201D30120704711
:1028600000207047002801DBC0F10040002901DB97
:10287000C1F10041814201D9012070470020704719
:10288000002801DBC0F10040002901DBC1F100415B
:10289000814201D1012070470020704730B5041EED
:1028A00071F1000404DB4FF00044404264EB01018D
:1028B000141E73F1000405DB1C464FF00043524226
:1028C00063EB0403801A994101D2012030BD00203E
:1028D00030BDC10F80EAE0700844CA07962300218A
:1028E00000F083B896230022114600F07EB800F075
:1028F000004220F00040C10DC0F3160040F400007B
:102900007F2901DA00207047962903DCC1F1960186
:10291000C84001E096398840002AF4D04042704710
:1029200020F00040C10DC0F3160040F400007F29E4
:1029300001DA00207047962903DCC1F19601C840F6
:102940007047963988407047C1F30A5210B5C1F3F9
:10295000130140F2FF3341F480119A4201DA002062
:1029600010BD40F233439A42A2F2334203DC52429A
:10297000FFF7C9FD10BD904010BD00F0004230F0DF
:1029800000400AD0C10D01F56071C0F3160042EAA3
:102990000151C208400711437047002001467047AB
:1029A00001F0004330B421F0004150EA010206D0AA
:1029B0000A0DA2F56072C1F31301002A02DC30BCDB
:1029C00000207047440F44EAC104C100E01830BC45
:1029D00000EBC250AFF300800029A8BF7047401C35
:1029E000490008BF20F00100704710B4B0FA80FC25
:1029F00000FA0CF050EA010404BF10BC704749B162
:102A0000CCF1200421FA04F411FA0CF118BF0121D1
:102A100021430843A3EB0C01CB1D4FEA00614FEAB1
:102A2000102042BF002010BC704700EBC350104480
:102A30000029A4BF10BC7047401C490008BF20F00B
:102A4000010010BC7047FEE7704700002DE9F84F09
:102A500041F6A309622A88460546DFF890A09B4606
:102A6000CDF8009028BF6222052A98BF0522C2F146
:102A70006400A62148436421424680B2B0FBF1F7CE
:102A80002846532107F153063346D0470A9831466A
:102A90000F220F230090681E84B2204603F04EFEE2
:102AA0006137284642464FF48073CDF800B039466E
:102AB000D047204653212A463346CDF80090D047D0
:102AC000204639462A4602F095F808F101005321C4
:102AD0003346CDF8009084B240462246D047404667
:102AE0003946224602F086F8BDE8F88FB32E00087A
:102AF000438E4FF6FF7293421CBF5A1C428670B53C
:102B0000CB1C0021062B24D8DFE803F00423142378
:102B10000823200001F087FF04211AE0038C41867E
:102B20009A4238BF012180F834104FF0010138BFBC
:102B300009210EE0038C41869A4238BF012180F8BA
:102B400034104FF0020138BF0A2102E001F06BFFA0
:102B50000321024612F8305F12F8093C12F8036CA8
:102B6000DCB202F8033C84F001033343B3FA83F38D
:102B70005B094DB1002B5ED0002280F83020C28569
:102B8000826280F82C2056E0458D6DB1013D45856F
:102B90002D0401D0002508E090F82C50012D03D120
:102BA000002101F040FF05210125BCB1002B42D0DE
:102BB000024632F8283F32F8104CA34239D3448BF6
:102BC000A3422FD290F82C3085F00104013B18BFAE
:102BD000012323432DD1838B43852AE0038D048B6E
:102BE000013303859BB2A3420AD12DB990F82C4042
:102BF000012C01D1062101E000F12C020124147006
:102C0000428B934217D3C38DC28B01339CB2B4FB6A
:102C1000F2F505FB1242002A18BF1A46C28508BF0A
:102C2000082108E0002180F83010C1851160117181
:102C3000072100201080084670BD2DE9F04701688B
:102C400082888B68816886898D680469818AA46816
:102C500005EA0607BD1B04EA010CB5FA85F5ACEBE5
:102C600001044FEA551E90F82450B4FA84F4640924
:102C700080F8264080F8274003EA0204A31AB3FA3A
:102C800083F34FEA531A837D1BB355452ED0B7EB20
:102C9000060918BF4FF0010990F82580B8F101032B
:102CA00018BF0123BD1BB5FA85F56D091D4394427C
:102CB0001FD165B1B8F1000F08BFB7423DD0A8EBF6
:102CC0000E02B2FA82F2520912EA090F3DD0012532
:102CD0001EE055450AD04FF0FF35B74280F825E099
:102CE00080F824A008BF0125944217D102200025B6
:102CF0001DE065B1B8F1000F08BFB74221D0A8EBC5
:102D00000E02B2FA82F2520912EA090F27D0FF2509
:102D10004FF0000E80F825E080F824A0EAB26FF0B2
:102D20000200012A08BF0320002A08BF02208C45A8
:102D300018BF054668B2BDE8F087FF254FF0010EC9
:102D4000E8E74FF0010E0125E4E787EA060288EA8A
:102D50000E031A43B2FA82F252095542DAE787EAC1
:102D6000060288EA0E031A43B2FA82F25509D1E745
:102D7000FEE700002DE9F84FDFF88CB007462A2067
:102D8000984692468946D847F44C4FF40045380A95
:102D9000F3494FF480666560C4F8FC03F8B20E6036
:102DA000C4F80068256065600F46C4F8FC034FEA6C
:102DB0001A200E6001F095FD5FFA8AF00E6001F0B6
:102DC00090FD2B200E60C4F800682560D8474FEABC
:102DD000192065605946C4F8FC035FFA89F03E602B
:102DE00001F07FFD4FEA18203E6001F07AFD5FFAA6
:102DF00088F03E6001F075FD3E60C4F80068256013
:102E00002C20BDE8F84F0847653100082DE9FE4F3A
:102E10000C46A3EB010B111A05460029029101DDB6
:102E2000012008E005D00298404202904FF0FF30A8
:102E300001E000200290BBF1000F019001DD0126AE
:102E400007E019BFCBF1000B4FF0FF364FF0000B3E
:102E5000002602985F464FF000084FF000094FF03F
:102E6000000A584588BF07461FFA88F08742B8BF56
:102E7000BDE8FE8FA8B2A1B202460B46FFF77AFF6B
:102E80000C9800F05DF90AEB0B0008F10108B8425C
:102E9000C8BF34440299019A4944B942C8BF154495
:102EA000B0EB070AD8BF8246B1EB0709D8BF894605
:102EB000DAE72DE9F8438146501E154698460E463E
:102EC00082B2581E83B24846FFF754FF089CB0B246
:102ED000404528BFBDE8F8834F46B8B2A84204D2A7
:102EE000204600F02DF90137F7E70136EFE7000043
:102EF00010B5002006F018FEA548A44A4FF4004182
:102F00004FF4006341601360D0F8F843C0F8003814
:102F10000160102006F008FEA0B210BD2DE9F04FB0
:102F200087B0119F1C46904600EB5702CB1901F069
:102F3000F7FD01203909109E4FF0000B17F00E0F1E
:102F400018BF00EB171101FB07F00690A8F1200055
:102F50004FF4C8717D084FF00008C2B22D480592A9
:102F600012FB010004902F4800EB021003902B4845
:102F700000EB82100290284800EB02200190069896
:102F8000804543D0502F16D0102F18D00598182FF9
:102F900000EB400009D0202F0FD0402F09D00C2F7C
:102FA00034D1214901EB80000AE01D4901EB0010FA
:102FB00006E0019804E0049802E0029800E003981B
:102FC00040440BF108074FF0000A90F80090BAF166
:102FD000080F13D029FA0AF0C007204608BF304670
:102FE00000F0AEF80BF1010B1FFA8BF0B0FBF5F11E
:102FF00001FB150020B10AF1010AE8E7BB4601E038
:103000004FF0000B119F08F10108B8E707B0BDE8C9
:10301000F08F00BF9C3201089CD30008DCBB000885
:103020000CAA00081CA40008A89F00082DE9FE4F68
:1030300007460D98994692460E4600254FF00A081D
:103040004FF0000B4408032D08BFBDE8FE8FC5F10B
:1030500002000121020604D001EB81010138490080
:10306000F8E7BAFBF1F0BBF1000FB0FBF8F101EBB0
:103070008101A0EB410105D1012D03D8080410D036
:103080004FF0010BDDE90C2041F030014B46CDE95A
:10309000002005FB0470CAB2314601F0E2FB0135A5
:1030A000D1E7DDE90C1030224B46CDE9001005FBDD
:1030B0000470314601F0D5FB4FF0000BEFE72DE92E
:1030C000FC47DDF82880994615460E4607464FF026
:1030D000000A4FEA58042A784AB1B8B231464B4642
:1030E000CDE900A8FFF71AFF27440135F3E7BDE853
:1030F000FC8700002DE9FE4F1C469046894683461A
:103100005D0800260FF2300A0027072F08BFBDE830
:10311000FE8F781EC0B205280AD81AF800200BEBE3
:10312000060049464FF6FF73CDE9008401F099FB94
:103130002E440137E9E700BF56312E302E3500000E
:1031400013494FF400424FF480634A60C1F8FC0316
:103150000E480360C1F800380A607047100801404B
:103160001410014010B50949094B4FF480524FF437
:1031700000440A605C60C3F8FC034FF480600860A0
:10318000C3F80008C3F800281C6010BD14100140EB
:10319000100801402DE9F04F95B0DFF8CCBB9BF84B
:1031A000150001282AD0002841F0ED82DFF8BC9BF1
:1031B00099F8E60302282AD1D9F8B040D64901F09F
:1031C00097FC88B3D44901F052FC002840F0C2803B
:1031D00099F8C003002840F0BD809BF81D0000282E
:1031E00040F0B8809BF81E0001308BF81E00C0B282
:1031F000032824BF0120ABF81D0076E09BF82900CE
:10320000012808D1DFF8200E90F8D10336E0002025
:103210008BF81D009EE0DFF8104E94F8EB03B0B180
:1032200001281DD17F2013E09BF81C0001308BF892
:103230001C00C0B215284FD300208BF81C009BF84F
:103240001B00013000F003008BF81B0046E03D201E
:103250000090002000214FF4F0721E2303F06EFA5C
:1032600040F29F10082143F286121023FFF742FF1D
:1032700001208BF82900FF2084F8D103DFF8A88D06
:1032800098F8D01388420FD03F20012908BF3E2074
:1032900000904FF4C77006211522152303F04EFA53
:1032A00098F8D00388F8D10398F8C90398F8CA139E
:1032B000814221D0012803D098F8CB13012916D1DF
:1032C000702003212A221823009040F2631003F09B
:1032D00035FA98F8C9030DE09BF81B0000218BF824
:1032E0001D10DFE800F0022E2A2C56202AE00021D3
:1032F0008BF8291088F8CA0398F8C40310B1FF218D
:1033000088F8C51398F8E6134FF6FF7A01F0FE022D
:10331000022A4FF6FF7240F04F8798F8C523824289
:1033200000F0DB80032800F2D280DFE800F002C862
:10333000C4C6012088F8E703C9E0582002E05920FC
:1033400000E0572000904FF4D77028212422222338
:1033500003F0F4F999F8E80301280FD1DFF8CC0C59
:1033600081694A1E0029826108DC002189F8E8137E
:103370004FF496718161172089F8E6039BF81910C4
:1033800099F8C60319B108BB99F8C2130CE00121E2
:1033900001288BF819100CD0C0B999F8C213012973
:1033A00009D8022089F8E6030020022938BF01204D
:1033B00002E0032008E0002099F8E61301F0FE0186
:1033C000022903D110B1022089F8E60399F8E60337
:1033D00099F8E7234FF6FF71824200F0CF80DFF8C3
:1033E0004C2C4E4B89F8E703D1814D49FF22C9E9A6
:1033F0000433C9F83830C9F8303089F8B92389F86E
:10340000CE2389F8D42389F8C7238BF81720C9F86D
:103410001C10C9F85410C9F8081001F071FCC9F863
:103420009C10C9F84410C9F8A41001F010FAA0F1DA
:103430001D01CAB2202A04D300F17F02D2B2012AB0
:1034400022D89BF81A2082B904201E214FF4F07272
:103450004FF491730090002003F070F901208BF875
:103460001A0099F8E603A0F11D01C9B2062904D398
:10347000A0F12D01C9B20D2911D800904F2046218D
:103480004FF4A172A52377E00021009000204FF4B3
:10349000F0724FF491738BF81A101E216CE0A0F1BA
:1034A0002301C9B207294ED8009050203B2140F299
:1034B0003F12BB2360E0462002E0442000E04220AF
:1034C00000907B207B21EB22672303F037F998F8EB
:1034D000C40398F8E61388F8C50302294FF6FF7273
:1034E00040F06A8698F8C003022804D0012819D059
:1034F000002840F0228618200024342100224FF6B4
:10350000FF73CDE9004040F24510FFF78FFDABF8A7
:103510004C4000F012BE00BF0000A04200007A4400
:1035200000007F4398F8C203012802D198F8D9031C
:1035300020B198F8C943022C40F0CB840020ABF8AE
:103540004C0000F0FABDA0F1810102290ED3A0F1D8
:103550003B0102290AD3A0F12B0101290ED80090CA
:10356000482058214FF4A872822305E000900920DA
:1035700057214FF4E772842303F0E0F89BF8210011
:1035800001280DD0002840F02581B9F8BA0390B188
:1035900099F8E663022E51D0032E54D119214EE042
:1035A000B9F8BC0388B199F8E663022E72D0032EF5
:1035B00075D119216FE09BF82A00002800F0B48033
:1035C00001385F468BF82A009EE0D9F89850D9F868
:1035D000A000D9F8B44001F058FA30B1D9F8B800D9
:1035E00001F02EFA002840F0F28099F8C01399F803
:1035F000C22399F8D93399F8E603C9F8B840C9F855
:10360000A050090608BF2C4682F00101DAB211432E
:1036100018BF2C46CBF86040022800F0C480032875
:1036200040F0D58001F026FA0246202043F28611B0
:10363000CDE900104FF4CA70CD21C4E00521D0FAC5
:1036400051F0A9F8BA030020D9F820505F46C9E923
:103650000200D9E9064001F0F3F928B1D9F82400B5
:1036600001F013FA00284FD199F8CD03C9F824507E
:10367000C9F81C40002808BF254601F03CFA044662
:10368000022E37D0032E3FD101F022FB40F28910E9
:10369000502135E00521D0FA51F0A9F8BC0399F882
:1036A000C973022F04D0CE48C9F8B800C9F8A000E9
:1036B000D9E92640D9F8BC5001F0C2F930B1D9F8A7
:1036C000C00001F0E2F9002840F08180C9F8C05044
:1036D000C9F89C40022F08BF2C4601F0CBF90446E4
:1036E000022E16D0032E72D101F0F2FA4FF4CA70F6
:1036F000CD2116E05E2001F0D2F901F0E2FA782146
:103700004FF66143FFF792FC97F82100BB4601306A
:103710005EE0622001F0B1F901F0D3FA4FF4877056
:10372000782143F67F4350E099F8C4035F460028B0
:10373000EAD1D9F82850D9F8008000212846FFF7AF
:103740009FF8A84906462846FEF7F2FFA649FFF76C
:1037500021F801F0A1F885F00041002E18BF0846BD
:1037600099F8CDB3BBF1010F18BF0846FFF7BFF8BA
:1037700099F8C9A30546BAF1010F40F0D483BBF113
:10378000010F40F0FB8397494046FEF7D1FF964971
:10379000FFF700F801F080F89449C9F80400FEF73B
:1037A0006FFF0646CFE3602001F067F9DBF86000A9
:1037B000FFF79DF80246502041F6A301CDE9001025
:1037C0004FF4877078214FF6FF73FFF72FFC00202E
:1037D0008BF8210099F8E603022800F06F81032896
:1037E00040F081819BF8180058B9002029214FF43E
:1037F000BC72FA2300901220FFF75BFB01208BF8CC
:103800001800D9F800607A49D9F84850D9F8B08042
:1038100001F0A3F999F8C943012C18BF3046FFF70E
:1038200066F80646FFF755F801462846FFF71AF8EE
:10383000074601F060F90546002F08BF354699F8A4
:10384000C00350B16B494046FEF7F0FF28B99820FD
:10385000022C08BFBC2059F8008028B2CA46FFF7E6
:1038600038F865490546FEF7EFFF644E00281CBF97
:103870000025C4F2FA3528463146FEF7C9FF604AF2
:1038800000281CBF0025C4F2C8252846314606F092
:103890002FFBABF850004046FFF729F8FFF722F85E
:1038A000584901F022F900281CBF0024C4F2483412
:1038B000204600210026FEF7ABFF0028524A18BF21
:1038C00000242046002106F013FBABF8520040F222
:1038D000651744F6384B4FF00009B9453CD009F163
:1038E00012000AEB0908009684B209F1140098F856
:1038F000EC1098F8ED3085B220462A46FFF786FA9C
:1039000098F8521298F8533220462A460096FFF74C
:103910007DFAB9F5B27F14D04FF2604098F8EE30DE
:1039200098F8ED102A4600902046FFF76FFA98F8B5
:10393000543298F8531220462A46CDF800B0FFF7CB
:1039400065FA98F8ED0009F1010988F8EC0098F89B
:10395000530288F85202C0E7DFF8301EDFF8486EE5
:10396000D146002448F20F454727B1F850008AF8A5
:103970005102B1F852008AF8B7034FF02A0ABCB1DD
:10398000052C43D004FB0AF04FF4BC72009528309C
:1039900081B212200B46FFF739FA04FB07F0282109
:1039A000FA230095123080B20246FFF72FFA15E095
:1039B000122028214FF4BC7228230095B047122012
:1039C00028211222FA230095B0471220FA2101F093
:1039D0002AF94FF4BC70282101F025F90134CEE713
:1039E00000007F43000010410000A0400000F4C22E
:1039F000000048C20000F0410000FA430000C84245
:103A0000000016440000484300007A4373202A2136
:103A10002F2219230090142002F090FEDFF8984D19
:103A20000C250FF688521520462100F0C1FF0FF635
:103A30008C521520702100F0BBFF0FF68C52152020
:103A40009A2100F0B5FF0FF68C521520C42100F02A
:103A5000AFFF0FF68C521520EE2100F0A9FF742065
:103A60002A2117221723009040F25F1002F066FE11
:103A70000FF678524FF4B270462100F095FF0FF622
:103A800070524FF4B270702100F08EFF0FF6645246
:103A90004FF4B2709A2100F087FF0FF65C524FF49A
:103AA000B570C42100F080FF0FF650524FF4B8708B
:103AB000EE2100F079FFDFF8D4BC91E0D9E90045B0
:103AC000D9F8100000F0BCFF88B9B9F8BA1399F81A
:103AD000CD03C9E90445A1B100B3D9F820009B4941
:103AE000FEF7CEFD17E000208BF8180078E0D9F83B
:103AF000140000F0CAFFB9F8BA130028E7D059B390
:103B0000E5E799F8C96360B190492846FEF7B8FD2A
:103B1000012E18BF28468E4C8E4D0AE0D9F81800A9
:103B200005E08D4900F089FF012E18BF20468B4C1F
:103B30008B4DFEF722FF02460B4628462146FEF734
:103B4000DAFBFEF76CFD02466A2027214FF6A04300
:103B500000901A20FEF77AFFD9F89840D9F8A4000F
:103B6000D9F8B45000F06CFF10B9D9F8BC600CE083
:103B7000D9F8A800D9F8BC6000F087FF28B1D9F8BF
:103B8000AC003146FEF77CFE50BB09F1A40070C0CA
:103B900099F8C003012809D199F8C203012805D179
:103BA00099F8D90310B9B9F8BC0320B101F00FF8A6
:103BB00008BF3446254600F09EFFFEF723FD694B03
:103BC0000022FEF798FBFEF72AFD02466B204FF419
:103BD000E37140F25F43009040F2B910FEF736FF08
:103BE00099F8E603011F11F1020FC0F0CD8046F2F3
:103BF00069605D214FF481724FF49473ADF8500009
:103C00003020109346F268531291CDE90C21CDE992
:103C1000072199F8B813119213900E9009905A2029
:103C2000ADF83C30C123069099F8B9030B9346F2E6
:103C30006743ADF82830884247D006AC012604F12E
:103C40000805042E10D099F8B903864209D16F7A7D
:103C5000AB882A8835F8041C35F8080C009702F068
:103C60006DFD14350136ECE799F8B90308B1042865
:103C70000DD300253C2D0AD06619605BB3893289CB
:103C8000B188767C009602F059FD1435F2E799F878
:103C9000B803411ECAB2022A0FD8900050FA81F12F
:103CA00034F8210004EB8104A3892289A188247CB3
:103CB000009402F043FD99F8B803DD49002289F829
:103CC000B9038BF8222001F01BF800285AD09BF88A
:103CD0002200002856D1D9E91A06D9F81850D9F887
:103CE0002040FEF704FEADF8120000F05FFFADF8D3
:103CF0001400D9F87000FEF7FAFDADF81600D9F8F7
:103D00007400FEF7F4FDADF80C00D9F87800FEF76A
:103D1000EEFDADF80E00D9F87C00FEF7E8FDADF839
:103D2000100000F0E8FE054600F0A4FE00210DF1B1
:103D3000120203AB03291BD032F81140AC4221D050
:103D400033F8114001318442F4D11BE00000F4C289
:103D5000E3A5BB3FD9CEF753000048C29999C93FAC
:103D60009A9999990000E43F080100209C140020D2
:103D7000AF48C9E93500C9E93700C9E93900012070
:103D80008BF8220099F8E60300F0FE00022840F0CC
:103D90009B80D9F86840D9F8D400D9F8745000F065
:103DA0004FFE20B1D9F8E00000F06FFE90B900F0AE
:103DB00092FE08BF2C4600F05DFE00F083FE6020FE
:103DC00000F0DFFDD9F86800D9F87410C9F8D40004
:103DD000C9F8E010D9F86C40D9F8D800D9F8785073
:103DE00000F02EFE20B1D9F8E40000F04EFE90B9AC
:103DF00000F071FE08BF2C4600F03CFE00F062FEB1
:103E0000C72000F0BEFDD9F86C00D9F87810C9F8C9
:103E1000D800C9F8E410D9F87040D9F8DC00D9F816
:103E20007C5000F00DFE20B1D9F8E80000F02DFE26
:103E300098B900F050FE08BF2C4600F01BFE00F0C1
:103E400041FE4FF4977000F09CFDD9F87000D9F84E
:103E50007C10C9F8DC00C9F8E810D9F88040D9F81E
:103E60008C0000F0EDFD50B900F004FE00F02AFED9
:103E70008D2000F086FDD9F88000C9F88C00D9F8B3
:103E80008440D9F8900000F0DBFD50B900F0F2FD5D
:103E900000F018FEF42000F074FDD9F88400C9F891
:103EA0009000D9F88840D9F8940000F0C9FD58B9BD
:103EB00000F0E0FD00F006FE40F25B1000F061FD56
:103EC000D9F88800C9F894009BF81500013000F07B
:103ED00058BCD8F80000D8F81870FEF708FD012C7F
:103EE00008BF323800B2FEF7F4FC524904463846A7
:103EF000FEF7C6FB21468246FEF798FC4E49054672
:103F00003846FEF7BDFB064635B930462146FEF77A
:103F1000A9FC002800F0AD8030462146FEF778FC71
:103F2000F8B90120FEE0BBF1010F40F08D8043495C
:103F30004046FEF7FDFB4249FEF72CFC00F0ACFCCE
:103F40000646C9F804002846FEF7C3FC014600F007
:103F500004FEFEF7CCFC0546FEF7BBFCD9F84C602E
:103F60001EE050462146FEF76FFC00284FF6FF7A10
:103F700040F0DF8000208BF81F00D8E03149404638
:103F8000FEF77EFB06462846FEF7A3FC014600F03E
:103F9000E4FDFEF7ACFC0546FEF79BFCD9F8486053
:103FA000014600F04AFC10B100F000FE054699F809
:103FB000E64344F00200032801D1142004E099F8FC
:103FC000C003002818BF142087F82A00D9E901602F
:103FD0004146FEF755FC38B1D9F80C003146FEF7E2
:103FE0004FFC00287FF490ABBAF1020FC9E90286BA
:103FF00017D099F8D303012813D197F82B00CA469C
:10400000B946002855D00AF11800BBF1010F08BFCE
:104010000AF120000068FEF76AFC0546C9F8640052
:1040200060E07D665FE000BF9C140020000000207F
:1040300000007F430000C8420000C8C200001041D9
:104040000000A040000048C22846FEF742FC01469E
:104050004046FEF715FBFEF74AFC0546FEF739FC25
:10406000D9F8486001463046FEF7D2FB00289BD0C5
:104070009DE79BF82000022853D1DFF814074FF684
:10408000FF7A018A0139018209B2002951DC32210B
:10409000018238462146FEF745FBFEF728FC01B2B7
:1040A00080EAE130A0EBE13000B20128D8BF012066
:1040B0003DE02846C9F86450FEF70BFCDAF81860BA
:1040C000DC49804600F049FD4146FEF7CBFB48B98C
:1040D000D94900F042FD4146FEF7A8FB10B9012086
:1040E00089F82B00D146032C0ED0022C7FF40CABA8
:1040F0005C2000F0D4FCB7F86420502041F6A30106
:10410000CDE90010782108E0202043F28611AAB200
:10411000CDE9001040F2891050214FF6FF73FFF7F0
:10412000F1BA02208BF81F0064204FF6FF7AABF83B
:104130004C009BF81F008BF82000DFF85416BBF8EA
:104140004C00C98981423AD0C0B2642828BF64209B
:10415000012898BF0120C0F16400FEF7C3FBB749F6
:10416000FEF718FBB649FEF7E3FAFEF7C0FBC0F511
:10417000877044F25071432384B20091CF203F21D5
:104180002246FEF796FE41F6A3003F214FF48772C8
:10419000432300902046FEF78CFEBBF84C201820ED
:1041A00000214FF6FF73CDE9001040F24510342195
:1041B000FEF73CFFBBF84C20DFF8D405C28198F82D
:1041C000E67307F0FD002D2804D1D8F82C50D8F85C
:1041D000344007E0D8F81850D8F82040C8F82C50E0
:1041E000C8F83440D8F83000D8F8386000F04DFCFA
:1041F00018B1304600F024FC28BB47F00200C8F894
:104200003840C8F830502F281DD198F8CD0398F8C1
:10421000DC63002808BF2C4600F02CFC024620205E
:1042200043F266114FF6FF73CDE90010F0B2022899
:1042300008BF4FF4FC634FF487702F2F18BF53460D
:104240009621FEF7F3FE9BF8230038BB0120D8F837
:104250001860D8E91A548BF82300D8F80000FEF74C
:1042600046FB00EBC000052700F0F7FBC8F8040090
:1042700000F09CFC00F0CDFAC8F8200000F03BFCF8
:1042800000F0C7FAC8F8740000F0F4FB00F0C1FABF
:1042900000F066FC00F0BDFAC8F87C0098F8CD93F9
:1042A00098F8CE434C4527D0D8F80000D8F81860CD
:1042B000D8E91A5AFEF71BFB00EBC000052700F0F7
:1042C000CCFBC8F8040000F071FC00F0A2FAC8F8BA
:1042D000200000F010FC00F09CFAC8F87400504672
:1042E0004FF6FF7AFEF703FB00F093FA00F038FC7C
:1042F00000F08FFAC8F87C009BF81600062800F240
:104300003F82DFE800F00478183C09A3C0004C4568
:1043100040F0CC80012031E298F8E603372840F0E5
:10432000198198F8DD03012800F00A81002840F087
:1043300022826F2005E198F8E603232840F0B4803C
:1043400098F8DF030138C1B2032900F2AD80C00044
:10435000DFF84854782114221423C4B2394800F0FD
:1043600028FC394EA1211422142306F57F4000F0C9
:1043700020FC26FA04F0CA2114221423C2E198F882
:10438000E603A0F1230100F0B4FC00F2F481012265
:1043900002FA01F140F66162114200F0EC812D2831
:1043A00008D0352806D0372802D198F8DD1309B196
:1043B000392804D14E2000F06BFB98F8E6032F2833
:1043C00005D0372808D198F8DD13012904D15120F0
:1043D00000F05EFB98F8E603232840F0CC8198F8C3
:1043E000DF035121042808BF4E210091C420FF2182
:1043F00058222D2344E098F8E603A0F11D0100F0B7
:1044000078FC00F2B881012202FA01F140F677420D
:10441000114200F0B0811D2840F0C98098F8CC030B
:10442000002800F0BB80012840F0C1808924B12120
:10443000B6E000BF000020C1000020410000C842DB
:1044400000007C42797A7A7A7A7A797A98F8C0038D
:104450009BF81710814200F08E8198F8C913022949
:1044600000F0898198F8E61300288BF817004CD1EA
:1044700002294AD14020282196224B230090A520D2
:1044800002F05CF977E19BF8262098F8C913022A1C
:1044900022D1022920D098F8E6038BF826100228B2
:1044A00040F053817C2049E1032067E198F8E6035E
:1044B0002F283BD0032800F028812D2836D0022851
:1044C00040F05581B9F1010F00F04981B9F1000FB9
:1044D00040F04D814C2043E10020022A00F04E8143
:1044E000022940F04B8102208BF8260098F8E60361
:1044F000022840F02A8198F8D603002800F01581A0
:10450000012840F01A817E2010E1012808BF02290D
:1045100040F031817B20282196224B230090A5205A
:1045200002F00CF99A48A0F80EA024E1B9F1010FAD
:1045300000F0F380B9F1000F40F019814820EDE060
:104540006C200090CD20BE214622202302F0F6F8F8
:1045500098F8E603352840F00E81EC20832143F2E1
:10456000661220234FF0EC0843F266152026FEF772
:10457000C1FD002787A4072F00F0FD80781EC0B280
:10458000052809D8225C08EB0710B5214FF6FF7308
:10459000CDE9005600F065F90137ECE7B124892137
:1045A0005A2000F02FF95B20214600F02BF998F8F3
:1045B000E6031F2812D198F8CF03012803D0A8BB27
:1045C0008924B12101E0B12489215A2000F01AF98F
:1045D0005B20214600F016F998F8E603212810D157
:1045E00098F8D20320B101280BD18924B12101E030
:1045F000B12489215A2000F005F95B20214600F002
:1046000001F998F8E603312812D198F8D50301286A
:1046100003D0B8BB8924B12101E0B12489215A20FB
:1046200000F0F0F85B20214600F0ECF898F8E60383
:10463000332810D198F8DB03012803D058B9892416
:10464000B12101E0B12489215A2000F0DBF85B2080
:10465000214600F0D7F898F8E603252814D198F8F9
:10466000E103022805D0032840F085808924B12188
:1046700001E0B12489215A2000F0C4F85B202146D2
:1046800000F0C0F898F8E60327281ED198F8E30355
:1046900000F099FA6FD8C000404D752125221E23E5
:1046A000C4B23F4800F085FA3E4E9E2125221E23CB
:1046B00006F57F4000F07DFA26FA04F0C721252296
:1046C0001E2300F0ABFA98F8E603292853D198F896
:1046D000E50300F078FA4ED8C000304D7521252250
:1046E0001E23C4B22E4800F064FA2E4E9E212522CD
:1046F0001E2306F57F4000F05CFA26FA04F0C7217D
:1047000025221E2300F08AFA35E0B9F1010F1ED0F0
:10471000B9F1000F2BD14A201AE0492000904FF444
:10472000A07099211C221B231FE07B200090A52054
:10473000282196224B2302F001F875200090912049
:104740005021BE22232301F0F9FF002016E04B2068
:1047500000904FF4DC7054211A22182305E04D20FC
:104760000090C820AA211422152301F0E7FF98F831
:10477000CD0388F8CE039BF8160001308BF81600A5
:1047800000208BF8150015B0BDE8F08F080100205F
:104790000000002056312E302E3100003D67000809
:1047A0005A5B5B005B5B5A000D2E000835303028E9
:1047B0003933322900000000BF300008343030287F
:1047C00037353229000000003330302835373229A0
:1047D0000000000032303028333932290000000058
:1047E00031303028323132290000000032303000C0
:1047F00031353000313030003530000030000000FD
:10480000FEE7704725221E2300904FF4AA7001F0A6
:1048100095BF00EBC000B0FBF7F0203080B2FEF790
:1048200061B8BDF808100A31ADF808109DF80B10FA
:10483000013170475846FDF723BF3046FEF712B8E6
:10484000B7F860000130A7F8600080B27047C9E98E
:104850002311C9F894107047D9F820004FF0424155
:10486000704780B2FEF75ABB4FF47A704FF07E511A
:10487000704795F82D00013885F82D000006704727
:10488000ADF809908DF80450CDF8056070470A68BE
:1048900042F001020A6070474FF08441FDF7F0BE1C
:1048A0002D2087F8E6030020704700BF00BF00BF3F
:1048B00000BF00BF00BF00BF00BF00BF00BF704708
:1048C00097F8E60300F0FE010229704750F8210036
:1048D00052F821100068C9F818000968C9F8981042
:1048E0007047C4F8006825606560C4F8FC03704731
:1048F000C9F82410C9E92311C9E92512C9F89C1087
:1049000089F8B8037047A9F8BC03D9F8BC00FDF7D3
:10491000B7BEA7F8BC03D7F8BC00FDF7B1BEA7F837
:10492000BC03D7F89800FDF7ABBE07F18C0002EB93
:104930008102704701208AF80D0000208AF82B00C0
:10494000502068614FF47A70A9F8BA0399F8CD0342
:104950000128704709F18C0002EB81027047BDF815
:1049600008109DF807201144B142704720464FF0CF
:104970007E51FDF785BE4FF04241C9F82000FDF79A
:104980007FBE4FF48C71FEF751BB87F8E60397F8B2
:10499000E10397F8E31397F8E52387F8E00387F836
:1049A000E21387F8E423704744F638430095204724
:1049B0004FF260430095204797F8B813C7F8BC4002
:1049C0000329704797F8B813C7F898400329704730
:1049D000686101208AF80D004FF47A70A9F8BC03D1
:1049E000D9F89800FDF74CBE0021017299F8C9135F
:1049F0000229704799F8B813C9F8BC4003297047D9
:104A000099F8B813C9F89840032970470021C16587
:104A100081650165C164A9F8461089F81210C8F8CB
:104A200040108164704780F83010C185816280F841
:104A30002C1070472046FDF715BF2046FDF720BE1D
:104A40002146FDF71DBF4FF042413862FDF718BE09
:104A5000386840F0010038607047B0FBF7F0203054
:104A600080B2FDF73FBF78632846FDF709BE2046B8
:104A7000FDF7EABE2046FDF73ABFD4217B22192379
:104A800000904FF4877001F059BE2946FDF7F8BE3B
:104A9000FA2158222D230090C42001F04FBED221CC
:104AA0007B221C2300905A2001F048BE0446FDF7EB
:104AB000BDBE01462046304799F8E60300F0FE00EF
:104AC000022870470246182043F286114FF6FF7302
:104AD000CDE90010704799F8CD03012870470021F7
:104AE0004FF4F0724FF4A07370470446FDF7ACBE6C
:104AF0002046FDF79BBE2846FDF7F9BE8DF80B104A
:104B00009DF80B10704787F8E6130238B0FA80F072
:104B1000400987F8C603704797F8C9030228704711
:104B2000013A013B92B29BB2FEF724B90446FDF76D
:104B300099BE0020307281F82B004FF47A70A7F8EC
:104B4000BA0397F8CD030128704701463046FDF7B8
:104B50006DBE9AF80E10012970473046FDF790BDE2
:104B6000C8F87800D8F87000FDF7C1BE0130C1B2B6
:104B70000329704797F8DC0302287047272087F83D
:104B8000E60397F8E20387F8E3037047292087F8E4
:104B9000E60397F8E40387F8E5037047252087F8D4
:104BA000E60397F8E00387F8E10370473046FDF726
:104BB0009EBEE040C0B200904FF4AA70284700208B
:104BC000A7F8600070470138C1B20229704799F810
:104BD000C90302287047D7F82C802846FDF7A8BDE6
:104BE000044628462146FDF713BE044628462146C2
:104BF000FDF72ABE4FF48073CDF80090504786F839
:104C0000E40304F12600284786F8E20304F12400B7
:104C1000284786F8E00304F122002847C0B200903C
:104C20004FF4AA7028474FF4BC72FA23009530471E
:104C300086F8C90304F12000284786F8D90304F157
:104C40001E00284786F8D30304F11C002847B863E8
:104C50003863B869FDF766BD86F8D60304F118001D
:104C6000284786F8D00304F11600284786F8CD03BC
:104C700004F11400284786F8C60304F112002847FF
:104C8000C6F8880004F110002847C9F89C00C9E95B
:104C90002300C9F89400C9F8BA13C9F82400C9F868
:104CA0001C007047C6F8840004F10C002847C6F8C1
:104CB000800004F108002847206820F001002060EF
:104CC00010BD502041F6A301A2B2CDE900107047FB
:104CD000202043F28611A2B2CDE90010704701F006
:104CE000070125F4E04545EA013170470446FDF728
:104CF0008FBDCAB2C90141EA5201C9B20B2970473E
:104D0000C9E93511C9E93711C9E93911704781F885
:104D10002620002131720221022870477047704717
:104D20002DE9F041DFF8A06B707801387070000653
:104D300048D1DFF8984B1420707094F8D003012804
:104D400013D1DFF88C5B95F82C0002281DD00128C8
:104D50000ED058BB02F0B2F8307A012820D028BB20
:104D6000012085F82C0002201EE002F0A7F829E0BF
:104D700002F0AAF8FFF77DFD18D1317A022085F8FC
:104D80002C0089B101290ED010E002F097F8FFF74E
:104D900070FD0BD102203072002085F82C0003E05A
:104DA000012085F82C00192085F82D0094F8C40303
:104DB00040B1B0780138B070000603D101203072E4
:104DC0002820B070DFF8107D97F8C00348B1307824
:104DD00001383070000609D10520307002F0A4F9C6
:104DE00004E002F0A1F9012087F8EA0397F8C00374
:104DF000022809D1FC6D00212046FDF741FD18B9BC
:104E0000BF49FFF71AFEF865B0890138B081000488
:104E100040F0FF870120B081DFF8C40C00F12804C6
:104E20002046FDF70AFF01462046FDF761FE0138E6
:104E3000092800F27180DFE800F0051C6F6F35571C
:104E40006A0D272E97F8E603411F162900F24F81BD
:104E5000022015E0DFF8840C90F8271000295BD1C0
:104E6000012180F82710FFF72BFD40F0EA82002097
:104E7000F0E297F8E603411F162900F2BB800320F9
:104E80007071D9E0307247E0FFF71AFD40F0DE8024
:104E90000720707163E0FFF713FD40F0FD800820EC
:104EA000707181E097F8E603A0F12301062940F232
:104EB0005A81811E0229C0F0BF801B2800F0D583D3
:104EC0002F2800F0DF83372800F0D283392840F004
:104ED000BA8397F8C603002800F0DE84012840F06A
:104EE000AB80032000F0D9BCFFF7EAFC14D1934952
:104EF000FF22C7F8BA139249C7F89C10DFF8DC1BF1
:104F0000FFF705FF08BF0321FFF7FDFD04E0DFF811
:104F1000CC0B002180F827107079172800F2338518
:104F2000DFE810F01800DF019D014A025302A401DE
:104F300027021D00420062026C01BC0176019D0047
:104F4000C300400231053105310585027B022E0187
:104F500031059301052087F8E60300F012BD97F8AC
:104F6000C403002840F00D85DFF8701BFFF7E1FD5A
:104F700000F03A83002840F04F83B8697149FDF78B
:104F80007FFB7149FFF792FD10B96F4C0020F8616B
:104F90006E492046BC61FDF7CBFB6D49FDF7FAFB7E
:104FA000FFF77AFC386237E397F8C403002840F033
:104FB000E884DFF8281BFFF7BCFD00F03A830028E7
:104FC00040F0B483B8696349FDF75AFB6249FFF7C3
:104FD000ADFD10B9604C0020F8615C492046BC6111
:104FE000FDF7A6FB5A49FDF7D5FBFFF755FC3862E4
:104FF00000F09CBBA0F11D011A2900F25283DFE8EA
:1050000011F0B0001B0066031B006C031B001D00A9
:105010001B00DC031B00E3031B000D041B007C03CF
:10502000810372031B00D6031B006F031B00860362
:105030001B001B001B006903002023E797F8DF0318
:105040000138010608BF042000F0F6BB2F287FF4CA
:1050500063AFFFF78FFD7FF45FAF0D20707197F89E
:10506000CD03012800F0F981002840F08A84BC6952
:105070003649FD6A2046FDF75BFB3549FDF78AFBA3
:10508000FFF70AFC2F49FFF7EEFC33490546FFF70F
:10509000D4FCFFF7AAFD24E02F287FF43DAFFFF7F3
:1050A00069FD7FF439AF0E20707197F8CD030128A8
:1050B00000F0DF81002840F06484BC692349FD6A68
:1050C0002046FDF735FB2249FDF764FBFFF7E4FBC3
:1050D0002049FFF7C8FC21490546FFF7AEFCFFF762
:1050E0007FFD002818BF2546FD6200F04ABCA0F1F4
:1050F0001D011A2900F2DC820FF20800D0E811F03D
:10510000000080BF31003000E7023000ED023000C7
:1051100095033000A003300078033000B203300064
:10512000FD020203F30230006B033000F002300096
:105130000703300030003000EA0200BFE803E80354
:1051400000007F43000020410000FA4300001041AE
:105150000000A040000020C10000C8420000C8C2FA
:105160006AE709208CE6DFE811F071026E020700A1
:105170006E0207006E0207002320FFF706FC5BE7C4
:10518000D048D14CD14DD24B0022012187F8E813F1
:1051900087F8B823BA6287F8D82387F8D62387F828
:1051A000D213A7F8CC23A7F8C82387F8C6233A65FB
:1051B00087F8DB2387F8D92387F8D51387F8D3132B
:1051C000C7F89800C348C7E92054C34CC7F88830D3
:1051D000C24BB861C7E91A044FF480703B67A7F867
:1051E000CF034FF00130C7F8E20340F20220A7F8E6
:1051F000E003BB48C7F8BA0300F0C3BB97F8CF037E
:10520000002800F04781012840F0BB83002042E1E4
:1052100097F8CD03012800F04381002840F0B183C6
:10522000BD69B049FFF7D7FCAF49FDF7B3FAFFF707
:1052300033FBAE49FFF717FC054640462946FDF70C
:1052400011FBAB490446404645E097F8DD030028D2
:1052500000F03481012840F0948300202FE197F87A
:10526000E603811C1A2888BF0521ABE097F8C40328
:10527000002840F08683DFF86418FFF75AFC00F03E
:105280006282002840F04583BC699A49FFF730FCF0
:10529000002800F02483FFF769FB23E397F8CD0390
:1052A000012800F03181002840F06B83BD698D49F1
:1052B000FFF791FC8C49FDF76DFAFFF7EDFA824993
:1052C000FFF7D1FB054640462946FDF7AFFA0446F5
:1052D00040464FF07E51FDF7D3F9002C08BF284619
:1052E00031E197F8E613481F362800F2F382DFE831
:1052F00010F037004803E1064803DA064803F606D3
:105300004803A1064803C2064803B2064803130730
:105310004803F30648031A074803E806480348030E
:105320004803FC06480329074803200748034803AD
:105330004803480348034803480348034803320727
:10534000AB063E074803D1064803B90648030A07DF
:1053500048033B0748034803480348034803F30254
:105360001D2087F8E603FFF7D7FB08BF97F8CB03AC
:10537000AAE197F8C403002840F00383DFF85C1724
:10538000FFF7D7FB00F0E981002840F0E682BC6916
:105390004D49FFF74FFB002800F0C5825449FFF745
:1053A0004CFBC3E297F8D203002800F0CE8001281E
:1053B00040F0E7820020C9E097F8E603811E062846
:1053C00038BF1B2187F8E613DBE297F8C6030128F4
:1053D00000F0C180002840F0C18097F8C203012886
:1053E00000F2BC800220B7E097F8CC03012800F05F
:1053F000E080002840F0C582FFF78EFB40F05F811F
:105400000120002187F8CC0340F2FF10A7F8CA035F
:10541000DFF8C80680F82910B3E297F8DB0301280B
:1054200000F0D680002840F0AC820120D1E097F84F
:10543000D503012800F0D280002840F0A28201208C
:10544000CDE0411F372901D3812804D197F8E80323
:1054500008B904207071012014E5786B26493C6A74
:10546000FDF70EF925490546FFF7E7FAFFF7BDFB03
:105470000AE0786B22493C6AFDF702F921490546AA
:10548000FFF7DBFAFFF7ACFB002818BF25462846DC
:105490007D634EE0012087F8CD0387F8CF0370E2EB
:1054A000386A18497C6BFDF7EBF80546204629461B
:1054B000FDF7D8F90E498046204633E0012087F8F1
:1054C000DD035EE2000020420000C8420000A0426E
:1054D0000000F0420000BE430000C8430000D24379
:1054E000E803E803000010410000A0400000C8C22B
:1054F000000080BF0000FA43000020410000544338
:10550000000020C1000054C3386AE6497C6BFDF7F7
:10551000B7F8054620462946FDF788F9804620461B
:105520004FF07E51FDF7ACF8B8F1000F08BF2846E8
:1055300078634FF04241FDF7A3F8DB49FDF7F8F837
:10554000DA49FDF727F9F8621BE2012087F8D0035A
:1055500087F8D20315E2032087F8E603DFF8800D11
:1055600090F82810012908D100214FF60172018519
:10557000A7F8C92380F82A1010E0002180F82A102B
:1055800097F8C913022909D14FF47A71A7F8BC130F
:10559000FF2180F8261007F19C0007E0C448C7F8F7
:1055A0009C000020A7F8BC0307F1A000C0490160DF
:1055B000E7E1FFF7B1FA40F08480FF210020A7F86F
:1055C000CA13DFF81C1D87F8CC0381F82900D8E145
:1055D000002087F8D90387F8DB03D2E1002087F8A1
:1055E000D30387F8D503CCE1386AB249FDF748F810
:1055F000B149FFF75BFA10B9AF4C00207862204642
:105600004FF042413C62FDF73BF8A749FDF790F8A7
:10561000A649FDF7BFF8B86197F8B813032900F25F
:10562000AD81FFF782F9DFE811F0AC01A701A2011B
:10563000A5013C6AA149FFF7FDF900286AD0A049FD
:10564000FFF7FBF969E00120FFF71ABC97F8DF03C9
:10565000013803283FF6F0ACDFE810F004007A04CC
:105660004B045204FFF79AFAE6E40420FFF708BC63
:1056700097F8DD03012800F00B8100287FF4DCACF3
:1056800017200AE197F8DC03012871D10220B969DB
:105690003A6A87F8DC038648C7E90B10C7E90D2092
:1056A000CAE402380228BFF4C7AC0620FFF7E8BB03
:1056B00002380228BFF4C0AC0520FFF7E1BB01208F
:1056C00000E0002087F8C90387F8CC0359E10A20DD
:1056D000FFF7D6BB1720FFF7D3BB0F20FFF7D0BBD8
:1056E0001320FFF7CDBB97F8DC0300287FF4A4ACB0
:1056F0002F2087F8E603012076E0012087F8D60303
:105700002C20CAE0002087F8D6032B20C5E0142007
:10571000FFF7B6BB002078626248FFF794F9624950
:10572000FDF706F86149FDF735F8B86197F8B81349
:10573000032900F22381FFF7F8F8DFE811F02201D6
:105740001D0118011B013C6A5B49FFF7D1F90028D4
:1057500000F0D380FFF70AF9D2E03C6A5149FFF725
:1057600069F9002800F0ED805649FFF766F9EBE093
:105770000120D7E90A4187F8DC034D48FFF767FAB3
:105780000146FFF75AF9D749FFF7AFF9D649002884
:105790001CBF0024C4F2C8242046FDF739F80028B5
:1057A0001CBF0024CCF2C824BC62FFF745BCFFF745
:1057B000E1F914D10C20FFF763BB97F8E103FFF781
:1057C00002FA38BF032041E097F8E30301380106ED
:1057D00008BF032012E0FFF7CDF900F0F78401289D
:1057E0007FF42AACFFF75CF887F8DC03FFF724BCF2
:1057F00097F8E303FFF7BAF988BF012087F8E303BE
:10580000C0B2032800F0CB84022800F0C68401282F
:1058100004BF012087F8E203FFF70EBC97F8E50309
:105820000138010608BF032022E097F8DF030130AA
:10583000C1B2042988BF012087F8DF03FFF7FCBB52
:1058400097F8E103FFF792F988BF022087F8E10398
:10585000C0B2032800F0488302287FF4EDAB022099
:1058600000F043BB97F8E503FFF780F988BF0120FC
:1058700087F8E503C0B2032800F09F84022800F0F7
:10588000938401287FF4D8AB0120002100F08EBC66
:1058900015207071392000E0022087F8E603FFF739
:1058A000CBBB00BF000054430000A04000001041EB
:1058B00000007F43000048420000694400007D432F
:1058C000000024C2000080BF000000209C140020C3
:1058D00008010020812954D11920FFF73CBB00208A
:1058E000F86182488249B861FCF722FF8149FCF7E0
:1058F00051FFFEF7D1FF38620BE0002078627E484E
:10590000FFF7A1F87B49FCF713FF7949FCF742FF49
:10591000B86197F8B813032930D8FFF706F8DFE825
:1059200001F0302B26290020F8616E487049B861DB
:10593000FCF7FEFE6F49FCF72DFFFEF7ADFF386266
:105940000BE0002078626D48FFF77DF86949FCF7AD
:10595000EFFE6749FCF71EFFB86197F8B8130329FB
:105960000CD8FEF7E2FFDFE801F00C07020507F1B3
:10597000900001E007F1940061490160002087F880
:10598000B80316207071DFF8B0482046FDF755F9CE
:1059900001462046FDF7ACF80138092800F2718174
:1059A000DFE810F00A0023006F016F014B006B006D
:1059B0007F0013002C003C00FEF782FF7CD1FFF734
:1059C000ABF814BF0120052026E0DFF8280D90F881
:1059D0002410002940F05581012180F82410FEF7A1
:1059E0006FFF40F09180002097E0FEF769FF5ED1E5
:1059F000FFF792F814BF022006200DE097F8E603A7
:105A000000F0FE00022840F03A8197F8C9030238FE
:105A1000B0FA80F040098000307130E197F8E60379
:105A200000F0FE00022840F02A8197F8C903032104
:105A3000022808BF0721317121E197F8E603A0F1A0
:105A4000230106293ED9811E0229C0F018811B2896
:105A500000F0C1802F2800F0C980372800F0BD80F9
:105A6000392840F0A88097F8C603002800F0388253
:105A7000012840F00481032033E2FEF721FF40F0CB
:105A800000812049FF22C7F8BA131D49C7F89C10AE
:105A9000DFF8601CFFF73BF908BF0321FFF733F87D
:105AA000EFE0DFF8500C002180F82410E9E0411FFE
:105AB000162935D80320E1E0411F162900F258804D
:105AC0000220DBE0DFE801F0797704770477040057
:105AD0002320FEF75AFFD2E09C140020080100208A
:105AE0006C0000200000C8420000C8C20000FA4359
:105AF000000010410000A040000069440000544331
:105B000000007F43E803E803411F372901D38128C0
:105B100004D197F8E80308B9042070710120AFE0C0
:105B20001D381A2800F2AB80DFE810F04300A9000E
:105B3000A700A900A500A9001B00A9001E02A9003A
:105B40003802A9002502A900930098009D00A90031
:105B50001902A9009100A9008F00A900A900A900BD
:105B60008D0097F8DF030138010608BF042049E2E1
:105B70001D381A2800F28380DFE810F01B00810036
:105B80007F0081007D0081003D02810017028100BD
:105B900028028100470281006B00700075008100BF
:105BA000040281006900810067008100810081009A
:105BB0006500092062E0012060E097F8DF0301380A
:105BC00003285CD8DFE810F00400C8019901C20185
:105BD000FEF7E4FF53E0042050E097F8DD030128CE
:105BE00000F07A8100284AD117207AE197F8DC0387
:105BF00001280AD10220B9693A6A87F8DC03C24851
:105C0000C7E90B10C7E90D2039E00120D7E90A41A7
:105C100087F8DC03BC48FFF71AF80146FEF70DFFD2
:105C2000BA49FEF762FFBA4900281CBF0024C4F23B
:105C3000C8242046FCF7ECFD00281CBF0024CCF251
:105C4000C824BC621BE0172018E0142016E01320C3
:105C500014E0012087F8D6032C2042E1002087F8C9
:105C6000D6032B203DE197F8DC0340B92F2087F8BD
:105C7000E60301208FE10F2000E00A207071002070
:105C800030723079072800F2C480DFE800F0047633
:105C900032491B8BA0604FF47A709E49FEF73FFE9D
:105CA0009D49FEF743FF00281CBF0024C4F22034A6
:105CB000FEF788FE00F2A880FEF737FEDFE801F06D
:105CC000A7A29DA04FF47A709249FEF722FE924956
:105CD000FFF70CF818B9904C0020C7F8C000FEF789
:105CE0006BFE00F29180FEF720FEDFE801F0908B62
:105CF00086894FF47A708949FEF711FE8549FEF7CF
:105D0000D5FE00281CBF0024C4F2A004FEF75AFEF2
:105D100000F27A80FEF709FEDFE801F079746F7215
:105D20004FF47A707E49FEF7FAFD7A49FEF7BEFE1F
:105D300000281CBF0024C4F2A004FEF743FE00F2BA
:105D40006380FEF7F2FDDFE801F0625D585B4FF41F
:105D50007A707349FEF7DDFD6E49FEF7C6FE18B98D
:105D60006C4C0020C7F8C000FEF726FE4CD8FEF7AA
:105D7000DCFDDFE801F04C474245FEF775FDFEF71C
:105D8000CEFD6549FEF7D2FE00281CBF0024C4F2F8
:105D90002034FEF717FE37D8FEF7C7FDDFE801F025
:105DA00037322D30FEF760FDFEF7B3FD5A49FEF79E
:105DB0009DFF18B9584C0020C7F8C000FEF7FCFD45
:105DC00022D8FEF7B2FDDFE801F0221D181B4FF4C8
:105DD0007A705249FEF79DFD4E49FEF786FE18B9CE
:105DE0004C4C0020C7F8C000FEF7E6FD0CD8FEF7CB
:105DF0009CFDDFE801F00C07020507F1900001E0CF
:105E000007F1940040490160002087F8B80308209A
:105E10003071708901387081000409D14FF47A70B3
:105E20007081DFF8D008416DC7F8B01000214165DE
:105E3000DFF8C058287898BB102001F0E5FDE8860F
:105E4000E88EFCF7DFFB374A374BFCF754FA374B49
:105E50000022FCF750FA364A364BFCF7A5F9364AD1
:105E6000364BFCF7BAFA364B0022FCF79DF9FCF7EB
:105E700097FD34490446B864FCF75AFC2549FCF701
:105E800089FCFEF709FD3049F864FEF7D3FD38B907
:105E900020460021FCF7BCFC10B901203C602870B2
:105EA000A86DE64C0130A8652068804794F825006D
:105EB000012809D194F8240018B1013884F824008D
:105EC00002E0022084F8250094F8340010B1013873
:105ED00084F83400BDE8F08115207071392000E0AD
:105EE000022087F8E603CAE6032087F8E003FFF7FD
:105EF000A3B8FEF74BFEFFF79FB8FEF747FEBEE6DE
:105F00000B20FFF73AB900BF00007F430000C842F2
:105F10000000C8C20000A04000002043000080BF75
:105F20000000A0C052B81E85EB510A400000303F6F
:105F3000295C8FC2F528F4BF33E197FA7953713F9A
:105F40000000184000001041000048420B20C0E54E
:105F5000FEF714FEFFF770B8FEF710FE8FE6FEF7AF
:105F600009FE13D10C2089E697F8E103FEF72BFE1A
:105F700038BF03201FE097F8E5030138010608BF8A
:105F8000032048E0FEF7F6FD00F0358101287FF49C
:105F900076AEFEF785FC87F8DC0370E697F8E3033E
:105FA0000138010608BF032016E097F8E103FEF769
:105FB000DDFD88BF022087F8E103C0B2032800F0AE
:105FC000018102287FF45BAE0220FCE097F8E30336
:105FD000FEF7CCFD88BF012087F8E303C0B2032899
:105FE00000F00181022800F0F480012804BF0120A4
:105FF00087F8E20343E697F8DF030130C1B20429D2
:1060000088BF012087F8DF0339E697F8E503FEF73C
:10601000ADFD88BF012087F8E503C0B2032800F07A
:10602000E680022800F0D78001287FF428AE012006
:106030000021D2E097F8D603002800F0DE80012886
:1060400040F0DE802C21D9E097F8D803012840F0F9
:106050008880012083E0312087F8E60397F8D30396
:10606000FFF7BFBA97F8D503012898BF87F8D30385
:106070001120FEF770BFFEF713FC87F8DC0397F8DA
:10608000C90301287FF47DAC9548012101854FF4B7
:106090007F407EE0FEF76EFD00F0B68001287FF4C1
:1060A00070AC0220B1E0212087F8E60397F8D00316
:1060B000FFF74EBA1F2087F8E60397F8CD03FFF7E6
:1060C000ECB997F8EB03012800F0A38000287FF4D7
:1060D00058AC3B20FEF73FBF3520FEF73CBF042005
:1060E00087F8DF032320FEF736BF97F8CC0301289B
:1060F00000F0928000287EF42DAFFEF70DFD40F0F9
:10610000938000208CE097F8DB03012898BF87F884
:10611000D9031320FEF71FBF332087F8E60397F853
:10612000D903FFF758BA002087F8DD033720FEF7C0
:1061300012BF97F8D203012898BF87F8D00309202F
:10614000FEF709BF97F8CF03012898BF87F8CD0362
:106150000720FEF700BF97F8D80310B9002087F892
:10616000D6030D20FEF7F7BE1520FEF7F4BE97F814
:10617000DC0300287FF405AC0F2087F8E6035848BD
:1061800090F8281001297FF4FCAB002101854FF61F
:106190000170A7F8C903FFF7F4BB022000E0032059
:1061A00087F8E203FEF748BF0220012187F8E403E5
:1061B0004B4880F82510FEF73FBF032087F8E40323
:1061C000FEF73ABF032087F8E00358E50B20FEF7FF
:1061D00057BE022008E00220012187F8E40340486E
:1061E00080F825104BE5032087F8E20347E50320FC
:1061F00087F8E40343E50B2040E52B2187F8E613FD
:1062000087F8D803FFF7BDBB012087F8DC03FFF751
:10621000B8BB8120FEF79FBEFEF77EFC06D10120B1
:1062200087F8CB03FEF796BE002000E0012087F838
:10623000C903FEF78FBE00BFCC000020780100200C
:106240001848C16941F08051C16117490A7842F08C
:1062500004020A70C16921F08051C161016841F0F6
:106260000101016001688907FCD5416821F0030143
:106270004160416811F00C0FFBD101680B4A1140DD
:1062800001600021416041F61071C1624FF480113C
:1062900001634FF41F01816005484FF00061016008
:1062A000704700BF0010024050700040FFFFF2FE38
:1062B00008ED00E0B0B5094C606880070CD5206897
:1062C000800709D5064D4FF07E51686DFCF7D8F96F
:1062D00068656FF002006060B0BD00BF0C4C01400B
:1062E000080100202DE9F04F85B0A74F3869C0079D
:1062F00000F04681DFF8388F98F8E903012840F074
:106300003381DFF8289F99F8120001280AD1DFF8BD
:106310004C4B9E4D666C2946FEF78FFA48B9656472
:106320002E4606E09A4EDFF8340B4FF08141C0E96B
:1063300010160096D8F818609649FEF70EFC8346B2
:1063400098F8C903012818BFB346D9F85C0059462C
:10635000FCF796FA002840F08680DFF8004B4FF0FB
:106360007C51CA46B946A06DFCF7E2F90025A0654C
:1063700089498DF80B50ADF808508DF80750D8F8C2
:1063800098703846FCF744FA04465846FCF7AFFAD2
:10639000002C06464FEA900414D14A2C8DF8075081
:1063A00032D864204F460021D146ADF80800D648C7
:1063B000FEF7A4FB13294CD8FEF7D1FA49D2FEF719
:1063C00030FAF5E7CE493846FCF74CFA002568BBB1
:1063D00038460021FCF71CFA4F46D146E0BB0020AE
:1063E0004A2C8DF8070024D864200021ADF808005D
:1063F000C448FEF783FB132900F24481FEF7AFFA8D
:1064000027D2FEF70EFAF4E74FF496704F461421A8
:10641000D146ADF80800BC48FEF770FB272918D814
:10642000FEF79DFA15D2FEF7FCF9F5E74F46D14687
:1064300012E04FF496701421ADF80800B148FEF751
:106440005DFB272905D8FEF78AFA02D2FEF7E9F9A3
:10645000F5E79DF80B10455C68B2C9F85CB0FCF735
:1064600038FAC8F8D000A94E758E0B2D16D896F8BC
:10647000340001F0C9FAFCF735FA46F82500044665
:10648000308E01357586FCF72DFA0146FEF7D5FAF8
:10649000FCF72DFAA9B2B0FBF1F10CE0308E0C2420
:1064A000B0FBF4F1451A96F8340001F0ADFA284437
:1064B00081B2B1FBF4F130868808FCF713FAD8F802
:1064C0002810C8F80000FCF72DF9064698F8C90313
:1064D000022803D18848FEF799FA2EE098F8C20303
:1064E00018B198F8D913012919D189495846BA46E3
:1064F000FCF7C6F8074630463946FCF7B3F930B921
:106500008449FEF797F9FEF720FB002846D0304675
:106510003946FCF7A7F938B10025574615E00128A0
:1065200008BF002909D1D5E77A49FEF783F9FEF7BC
:106530000CFB574608B1804D07E0D8F84040204694
:1065400000210025FCF78EF910B92C46C8F8405000
:1065500098F8C40318B16848FEF758FA04E02046DA
:106560000021FCF77FF910B90024C8F8404020460C
:10657000FCF7D6F93864FEF76BFA6FF0010038616A
:1065800005B0BDE8F08F00BF000C004000606A4617
:106590000050C346000048420000A0415E49FEF79B
:1065A00049F90146FEF749F930B95C49FEF742F96D
:1065B000FEF7CBFA002867D00020A9F8460089F83A
:1065C000120058463146FCF7ADF84B4F3865386D30
:1065D000B96DFCF755F8B865564DB86D2946FCF70E
:1065E00025F900B9BD65B86D00210024FCF73AF922
:1065F00000B9BC65D7E90F54386DF96CFCF792F817
:10660000786520463E6DB96DFCF792F8396E0490BE
:10661000039104980399FCF7FBF808B903980490D8
:106620000498039981F00041FCF70EF918B903981A
:1066300080F00040049028463146FCF779F8049930
:10664000FCF71EF80446796D0098FCF771F82146B6
:10665000FCF716F8F865386DF864F86D796EFCF79C
:10666000D7F808B9786EF865F86D796E81F0004159
:10667000FCF7EAF808B90020F865FC6D5746C8F841
:1066800040405CE70025E7E6B9F846000130A9F88C
:10669000460080B23C2894D321490098FBF7F0FFD4
:1066A000164F04463946FCF7DDF818B1124800943D
:1066B000446418E0104D286C6F64FCF75EF9194AC9
:1066C000194BFBF771FD194B002204460F46FCF7EE
:1066D000E5F820B120463946FCF762F900E014489D
:1066E000286406480090012089F812000020A9F8CB
:1066F000460066E7080100207801002000606A4635
:106700000000A0413DC7010814C70108E40D0020A6
:1067100000004843000048C30000A0400000A0C0A3
:106720000000FAC49A9999999999B9BF0000084054
:106730000000404000C82F47007F3B472DE9F84349
:10674000DFF8EC5A02FB03F4089E4FF000086400E7
:1067500095F8D653023E012D00F08B80002D40F0BD
:1067600029827F2E00F22682DFE816F080004001A9
:1067700032017A0124028A0124028E0124029C0142
:106780002402B60124028001240290012402940113
:106790002402AE012402920124027C01240274012D
:1067A0002402B8012402AC012402780124029601DB
:1067B00024029E01240276012402A801240236014B
:1067C0003401A0012402C0012402B2012402BA0152
:1067D0002402A2012402A401240284012402AA01A9
:1067E00024025C012A0150016E012402B00124023E
:1067F000B40124028C01240228012E013801560123
:1068000012012401BC0124022402A6017001240209
:106810008201240226011A0160015E012001580153
:106820009801240272012402C20124026A01240296
:10683000660164015A014C0142012C014E011C0108
:10684000860124022402C40152016C012402460183
:106850000E017E0124024401160168010A013C0177
:10686000180124022402100148019A014FF49628CD
:10687000A0E17F2E00F29E81DFE816F08000B800D4
:10688000AA0072019C0178019C0160019C016601D3
:106890009C0168019C017E019C017C019C015401CA
:1068A0009C0162019C0158019C0150019C016C01FA
:1068B0009C016E019C0182019C0180019C014C01A4
:1068C0009C015A019C0186019C014E019C01AE0075
:1068D000AC0064019C0152019C018E019C018C0161
:1068E0009C0156019C015C019C0174019C015E01AC
:1068F0009C01D400A200C80090019C0148019C01A9
:106900007A019C0146019C01A000A600B000CE00C7
:106910008A009C006A019C019C01760192019C0105
:1069200070019C019E009200D800D6009800D00013
:1069300084019C0144019C018A019C0188019C0105
:10694000DE00DC00D200C400BA00A400C60094003F
:1069500094019C019C019601CA009A019C01BE0011
:1069600086004A019C01BC008E00E0008200B40059
:1069700090009C0140018800C0004201AF4D18E129
:10698000A54D05F5487815E1A44D12E1A44D10E19F
:10699000AB4D05F59C680DE1A24D0AE1A24D08E161
:1069A000B34D04E0A14D05F5E17803E1B14D05F5E6
:1069B0001968FFE0B04DFCE0AD4DFAE0AF4DF8E0F6
:1069C000AF4D1CE0BD4DF4E0AC4D05F5BD68F1E008
:1069D0009C4DEEE09C4DECE09C4DEAE0A74D05F5AA
:1069E0003D68E7E0AE4D05F5C868E3E0984DE0E0AE
:1069F000B34DDEE0AB4DDCE0AC4DDAE0A64D05F585
:106A0000E148D7E0AF4DD4E0AB4DD2E0C24DD0E08D
:106A1000A84D05F55258CDE0BA4DCAE0B14DC8E0D9
:106A2000A94DC6E0BD4DC4E0AF4DC2E0AF4D05F588
:106A30009958BFE0A54DBCE0A54DBAE0984DB8E02F
:106A4000904DB6E07A4DB4E08F4DB2E08F4DB0E09E
:106A5000784DAEE07F4DACE07F4DAAE07F4DA8E0E1
:106A60007F4DA6E07F4DA4E0C94DA2E07E4DA0E0A1
:106A7000CA4D9EE0CF4D9CE08F4D05F5617899E0C1
:106A80007A4D96E0C74D94E0814D92E0814D90E0C3
:106A9000D44D8EE0D54D8CE0CF4D8AE0BE4D88E0E0
:106AA000D54D86E0D34D84E0CA4D82E0C74D80E0ED
:106AB000C24D7EE0C04D7CE0B94D7AE0C44D78E037
:106AC000BB4D76E0C54D74E0C74D72E0B74D70E048
:106AD000BC4D6EE0B44D6CE0C54D6AE0C04D68E061
:106AE000B74D66E0864D05F5527863E0B64D60E03F
:106AF000A84D5EE06F4D05F50C585BE0674D58E022
:106B0000A24D56E0754D54E07F4D52E0804D50E06F
:106B1000654D4EE08D4D4CE0894D4AE0904D48E08A
:106B2000854D46E0914D44E0804D42E08D4D40E082
:106B3000854D3EE07C4D3CE0794D3AE0904D38E0AB
:106B4000894D36E07D4D34E08C4D32E08A4D30E0A9
:106B50006A4D2EE0814D2CE07F4D2AE0644D28E007
:106B6000894D26E06F4D24E0634D22E0854D20E005
:106B7000664D1EE07E4D1CE07E4D1AE0744D18E01F
:106B8000744D16E0564D14E06E4D12E0514D10E07C
:106B9000514D0EE0664D0CE0664D0AE05D4D08E09B
:106BA000544D06E0434D04E0424D05F58C5801E09C
:106BB0003F4DA84602440B44FDF7B2FF8F4F4FF004
:106BC00000094046C4B30646B9EB942F0ED12146C6
:106BD00002F0DEFF0025A54206D2785B00BA000C69
:106BE000FCF7AEFA0235F6E7002112E04FF48061BF
:106BF00002F0CEFF0025B5F5806F06D2785B00BAB3
:106C0000000CFCF79DFA0235F5E7A4F580614FF41E
:106C10008064A0190C46D5E7ECEEB600D25FB60052
:106C20006818BC0064DDB600104DB700E065B50023
:106C300044B7B500B8FEB300BDE8F8830481B700DF
:106C4000386AB200002F0D008802910048AD8F0015
:106C500080EF080080E36E0020658800D0DE7D00B4
:106C6000806E11008064660080E93B0080ED1900B1
:106C70005091B30000AEB3006072B2008859B20008
:106C8000C0C3AC009464B400243BAD0068F1B20012
:106C9000806C2200806844006818BC0084C0BB007F
:106CA000ECEEB600DCCBB600E897B600A456B60012
:106CB000F406B600E47AB500E065B5000043B5001F
:106CC0002020B50040FDB40060DAB40080B7B40005
:106CD000A094B4009A7CB4008E4CB400A019B40007
:106CE000D0E3B3003CC0B30000AEB3005091B3009A
:106CF0005669B3006219B30088B3B2009894B20029
:106D00006072B200386AB2006E9CB1003A22B000E4
:106D100006A8AE000893AD00B237AD00C0C3AC000A
:106D200050E7AA00CC6BA700A42DA4007CEFA00024
:106D300054B19D002C739A0004359700DCF6930043
:106D40003EDB8D002A378A001693860002EF820010
:106D5000E47D7F00BC3F7C00940179000023730038
:106D600000A46A000025620000A659000027510017
:106D700000A848000029400000AA3700002B2F007F
:106D800000AC2600002D1E0000AE15005815C300F3
:106D9000F463B6008834B400E8C8B3005C41B300C3
:106DA00078D2B20054DFB0002065AF00ECEAAD004D
:106DB000E00AA900B8CCA500908EA20068509F0000
:106DC00040129C0018D49800F0959500C857920086
:106DD00034098C000CC18400F81C8100A8A07A0042
:106DE0008062770080E55D008066550080E74C009A
:106DF000806A330080EB2A00E838C100E0010020FF
:106E0000BCB5154C2068E06880060CD5206880066B
:106E100009D56168114D05F11800C9B202F06AFE8A
:106E20004FF48270A884E068400610D520684006C0
:106E30000DD50A4D6FF040000DF10701206005F1FE
:106E4000280002F044FE18B1002085F83500BCBDD2
:106E50009DF807006060BCBD00380140780100204B
:106E6000FEE700000648BFF34F8F064A016801F4B1
:106E7000E06111430160BFF34F8F00BFFDE700BF2A
:106E80000CED00E00400FA0510B500EB40010A2803
:106E90004FF00702084B28BF1E3902FA01F14FF0EC
:106EA0000C0238BF1022D4582143D150596B21F025
:106EB0001F010843586310BD002401400148102100
:106EC00001607047141C01400148102101607047A7
:106ED000101C014008B3F0B5164A8B0801301D465E
:106EE00002F501742DB150F8046B013D36BA40C46F
:106EF000F8E711F003010ED0002418250026A14266
:106F000005D0075D0134AF40083D3E43F7E702EB93
:106F10008300C0F80462BDE8F0407047054901F500
:106F20000172054918B108CA01380B60FAE7086810
:106F3000704700BF980E00200030024032490A68B6
:106F4000C2F38103314AF0B5DFE803F002380A38B2
:106F50000B6D9B0532D5CB6A9B0148BF2D4A2DE0B6
:106F60000B688C6A1B0C002C13D40C680D68C5F3DD
:106F70004175C4F383440DB90F2C43D12D01013564
:106F80002C44DB0702D00B689B0300D5204A6243E8
:106F900014E08C6A8D6A8E6ADB071D4BC4F3031400
:106FA000C5F3082506F0070603D00F68BF0358BFD6
:106FB000134604FA06F26B43B3FBF2F2026016A426
:106FC0000B68C3F30313E35C174CDA4042600B68B1
:106FD000C3F30223E35C22FA03F3C3600B68C3F339
:106FE000C223E35C0424DA4082600B68096804EA87
:106FF0009363C1F3813119440CA3595CB2FBF1F1E5
:107000000161F0BD0225BBE70410024000127A00C6
:1070100000093D00006CDC020000000000000000E0
:1070200001020304060708090CC701080204060848
:10703000020C08107CB5044600204FF6FF75C6B25E
:10704000152E09D8301900F0CBFCADF80600B01CA5
:10705000BDF80610A942F2D1BDF806007CBD026859
:107060004BF6EF731A4002600A8903681A43026004
:107070004A7C036802F0030223F4405343EA0232DD
:107080000260CA7B036802F0030223F4406343EA10
:10709000822202608A7B036802F0030223F44073B9
:1070A00043EA022202604A7B036802F0010223F0F5
:1070B000800343EAC21202600A7B036862F386130C
:1070C00003600A7C036862F3451303604A894260E7
:1070D0000A6882604968C16070470000016821F059
:1070E000010101600021016041608160C16040F2E6
:1070F000FF4100EA01020B49B2F5816F04D3D208C7
:10710000902A0ED801F5806100F0FC0014220838A6
:10711000B0FBF2F00F22800002FA00F00A68104380
:10712000086070470400024070B5404C207C38B1C4
:107130004148D22101603E4890F8C40330B170BD8F
:107140003B4D95F8C40320B1012000E000202074DD
:1071500070BD95F8C903022804D101206074D5F8E8
:10716000BC0045E095F8C00301280ED0B0BB2868EC
:107170003649FBF75BFB617C002848D00029DED153
:107180000120002160742C4846E095F8C20348B302
:10719000012823D195F8D90310BB607C254901282B
:1071A00004BF002060742C68FDF7A2FC224EA8B337
:1071B0002349FDF79DFCB0BB1E49FDF758FC90BB71
:1071C0002046FBF7DAFB1F4A1F4BFBF794F8FBF74F
:1071D000E7FBC5F8B400FBF7A3FB25E095F8D9035E
:1071E0000128ACD1607C08B901206074D5F8980002
:1071F000FBF7C3FB164A174BFBF77DF8164B002233
:10720000FAF7D2FFFBF7A0FB0B49086070BD00291D
:107210007FF495AF08483221016070BD0748C5F87A
:10722000B400702000E00020306070BD0801002034
:107230009C14002000007A43380000400000C8423F
:1072400000008C429A9999999999D93F000020425F
:1072500014AE47E17A14F23F00003E400649074869
:107260000A7822B94CF6CC42026001220A704AF632
:10727000AA210160704700BFE00D002000300040EF
:1072800010B5214C226842F00102226001804FF4C7
:10729000801000F017F8FDF70FBD00BF0848016827
:1072A000C9071CBF002070470168490744BF01207F
:1072B00070470068C0064FF0020058BF03207047B7
:1072C0000C200240B0B50446FFF7E8FF0025013C62
:1072D00045F1000118B911B1FFF7E0FFF7E7B0BDC4
:1072E00010B5094C216841F00201216060602068FE
:1072F00040F0400020604FF08040FFF7E3FF20683F
:1073000020F00200206010BD102002402DE9F0475F
:10731000DFF8348998F80100032800F2DD80DFE807
:1073200000F002E30BBCDFF8445895F8E9030028AD
:1073300000F000820120F9E1684E98F80C10DFF8A7
:107340002C58674ADFF8389606F1100011F0010753
:10735000924608BF02F10E0095F8C613C84706F121
:107360001200002F08BF0AF1100095F8CD13C8478E
:1073700006F11400002F08BF0AF1120095F8D0138F
:10738000C84706F11600002F08BF0AF1140095F84F
:10739000D613C84706F11804002F08BF0AF11604D7
:1073A000A86AFBF7A4FA01462046C84706F11A006E
:1073B000002F08BF0AF1180095F8D313C84706F14B
:1073C0001C00002F08BF0AF11A0095F8D913C8470E
:1073D00006F11E00002F08BF0AF11C0095F8C91322
:1073E000C84706F12000002F08BF0AF11E0095F8DB
:1073F000E013C84706F12200002F08BF0AF1200061
:1074000095F8E213C84706F12400002F08BF0AF1DF
:10741000220095F8E413C84706F12604002F08BFA0
:107420000AF12404D5F8BC00FBF761FA01462046B6
:10743000C84795F8C60388F8020095F8CD0388F888
:10744000030095F8D00388F8040095F8D60388F86F
:10745000050095F8D30388F8060095F8D90388F855
:10746000070095F8C90388F8080095F8E00388F844
:107470000900A86AFBF73BFAA8F8400095F8E20378
:1074800088F80A0095F8E40388F80B00D5F8BC00EA
:10749000FBF72DFAA8F8420045E1104898F80C20B7
:1074A0000F492830D20708BF01F12600B8F8441070
:1074B000FFF7E6FE0B48C16841F08001C160012082
:1074C00088F80100B8F844000130A8F8440098F8A2
:1074D0000C00013088F80C00BDE8F08700F00108CE
:1074E00002F8010804200240B8F83800FBF7FAF966
:1074F000DFF878960146D9F81800FBF7C1F90028A3
:1075000000F08C80B8F83A00FBF7ECF90146D9F8A6
:107510009800FBF7B5F9002800F08080B8F83C002F
:10752000FBF7E0F90446D9F86800FDF789FA00286E
:1075300074D0B8F83E00FBF7D5F90546D9F88000BD
:10754000FDF7A3FA002869D0D9F86C00FDF778FAA6
:10755000002863D0D9F88400FDF797FA00285DD0A1
:10756000D9F87000FDF76CFA002857D0D9F88800D8
:10757000FDF78BFA002851D099F8C60398F802104D
:1075800081424BD199F8CD0398F80310814245D13F
:1075900099F8D00398F8041081423FD199F8D603A6
:1075A00098F80510814239D1B8F84000FBF79AF9F4
:1075B0000146D9F82800FBF763F978B399F8D303AB
:1075C00098F80610814229D199F8D90398F8071044
:1075D000814223D199F8C90398F8081081421DD13E
:1075E00099F8E00398F80910814217D199F8E2035D
:1075F00098F80A10814211D199F8E40398F80B1019
:1076000081420BD1B8F84200FBF76CF90146D9F87A
:10761000BC00FBF735F900287FF45EAFD748D949A5
:107620000160D9490160D44998F80C000C468A469B
:1076300010F0010708BF04F500642046FFF750FE74
:10764000D9F81800FBF753F9CD4EFDF732FA0AF1DD
:107650000204002F04BF4FF60204C0F60104D9F85B
:107660009800FBF744F9FDF724FA0AF10404C14D30
:10767000002F08BFAC1CD9F86800FBF738F9FDF7FC
:1076800018FA0AF10604002F08BF2C1DD9F8800053
:10769000FBF72DF9FDF70DFA0AF10804002F08BFDA
:1076A000AC1DD9F86C00FBF722F9FDF702FA0AF1DC
:1076B0000A04002F08BF05F10804D9F88400FBF77D
:1076C00016F9FDF7F6F90AF10C04002F08BF05F1D1
:1076D0000A04D9F87000FBF70AF9FDF7EAF90AF194
:1076E0000E04002F08BF05F10C04D9F88800FBF741
:1076F000FEF8FDF7DEF9D9F81800D9F87040D9F88E
:107700008850D9F89860FBF7F2F8A8F83800FDF730
:107710004DFAA8F83A00FDF7ADF9A8F83C00FDF7DE
:10772000EAF9A8F83E0098F80100013088F8010055
:10773000BDE8F087E34C2046FFF77CFC4FF6FF7670
:10774000B04210D02046FFF775FCB0420BD004F1D8
:10775000280000F045F904468648263000F040F93C
:10776000844205D80DE02046FFF764FCB04202D009
:1077700000F05AF935E004F50060FFF75BFCB04219
:1077800002D000F0A1F92CE08048834A844B804964
:107790000024012685F8D64385F8D06385F8CD43CB
:1077A00085F8C64385F8D94385F8D363AC6285F87C
:1077B000E46385F8E26385F8C943C5F8BC00754801
:1077C000C5F88020C5F88430744A764BC5F8981007
:1077D000C5F88810A86128670220C5E91A2385F832
:1077E000E003AC697049FDF725F918B96749FDF761
:1077F0003EF908B96748A861D5F898406B49FDF78C
:1078000019F918B96A49FDF732F910B96048C5F895
:107810009800D5F8BC406549FDF70CF918B96449E2
:10782000FDF725F910B95948C5F8BC00AC6E5E49A2
:10783000FDF700F918B95549FDF719F908B9574886
:10784000A866EC6E5849FDF7F5F818B94F49FDF7F1
:107850000EF908B95348E8662C6F5349FDF7EAF86A
:1078600018B94A49FDF703F908B94A482867D5F815
:1078700080404E49FDF7DEF818B94D49FDF7F7F89D
:1078800010B94548C5F88000D5F884404749FDF750
:10789000D1F818B94649FDF7EAF810B94048C5F8DB
:1078A0008400D5F888404149FDF7C4F818B940492B
:1078B000FDF7DDF810B93648C5F8880095F8C6031D
:1078C0003249022824BF002085F8C60395F8CD036D
:1078D000022824BF002085F8CD0395F8D0030228A4
:1078E00024BF012085F8D00395F8D603022824BFD1
:1078F000002085F8D603AC6AFDF79CF818B92D492D
:10790000FDF7B5F808B90020A86295F8D30302285E
:1079100024BF002085F8D30395F8D90310B10020C7
:1079200085F8D90395F8C903022824BF002085F8FB
:10793000C90395F8E003043810F1030F9CBF02203F
:1079400085F8E00395F8E203043810F1040F9CBFBA
:10795000012085F8E20395F8E403043810F1040FE0
:107960009CBF012085F8E403012085F8E903BDE808
:10797000F08700BF02F8010800F00108042002406F
:107980008172000823016745AB89EFCD0000C84232
:107990000000A0420000BE43000048420000A04397
:1079A000000070420000AF430000FA430000204393
:1079B0000000A0400000C8C210B5074C074920686D
:1079C00040F001002060A44801604FF48010FFF7F0
:1079D00079FCFDF771B900BF10200240384B5441CB
:1079E00081B00168D0F801008DF800108DF8010019
:1079F0009DF801009DF8001041EA0020ADF802005A
:107A0000BDF8020001B0704780B5FFF73DFA0548A8
:107A1000816841F48001816001688907FCD5C06CF0
:107A200080B280BD0024014070B5264C4E4D2046EA
:107A3000A847FAF757FF4D4EB061A01CA847FAF7C8
:107A400051FFC6F89800201DA847FAF74BFFB06613
:107A5000A01DA847FAF746FFFDF729F9FAF742FFFC
:107A6000F06604F10A00A847FAF73CFFFDF71AF99F
:107A7000FAF738FF306704F10E00A847FAF732FF33
:107A8000FDF7FEF8FDF7F7F8FDF7F0F8FDF7E9F878
:107A9000FDF7E2F8FAF726FFB06204F11A00A847F2
:107AA000FDF7D0F8FDF7C9F8FDF7C2F8FDF7B1F81A
:107AB000FDF7AAF8FDF7A3F8FAF714FFC6F8BC0023
:107AC00070BD00BF00F0010870B5264C264D204661
:107AD000A847FAF707FF254EB061A01CA847FAF7A0
