:020000040800F2
:10200000501C002085210008F3470008712D0008AE
:10201000F1470008472A0008C16E000800000000D0
:10202000000000000000000000000000034D000858
:10203000492A000800000000014D0008054D000875
:102040009F2100089F2100089F2100089F21000870
:102050009F2100089F2100089F2100089F21000860
:102060009F2100089F2100089F2100089F21000850
:102070009F2100089F2100089F2100089F21000840
:102080009F2100089F2100089F2100089F21000830
:102090009F2100089F2100089F2100089F21000820
:1020A000996200089F2100089F2100089F210008D5
:1020B0009F2100089F2100089F2100089F21000800
:1020C0009F2100089F2100089F2100089F210008F0
:1020D0009F210008616E00089F2100089F210008D1
:1020E0009F2100089F2100089F2100080000000098
:1020F00000000000000000000000000000000000E0
:10210000000000009F210008C962000800000000D4
:102110009F2100089F21000800000000000000002F
:102120009F2100089F2100089F2100089F2100088F
:10213000000000000000000000000000000000009F
:102140000000000000000000000000009F210008C7
:1021500000000000000000009F2100089F210008EF
:102160000000000000000000000000009F210008A7
:10217000DFF80CD000F0A0F900480047C58800083F
:10218000501C00200648804706480047FEE7FEE74F
:10219000FEE7FEE7FEE7FEE7FEE7FEE7FEE7FEE717
:1021A00025620008712100082DE9FE4F804681EA72
:1021B0000300C00F0C46009021F0004123F00045C1
:1021C000B8EB0200A94105D24046214690461C4684
:1021D0000B46024623F00040104347D0270DC7F3BB
:1021E0000A00C3F30A510290401A019040286BDAAA
:1021F000C3F3130040F4801B0098924620B10023E3
:10220000D2EB030A63EB0B0B01985946C0F1400275
:10221000504600F069F906460D4650465946019A67
:1022200000F081F910EB08006141002487EA1152A7
:1022300084EAE7731A4340D0009A62B3019A012AF4
:102240004FEA075215DC001B61EB02014FF0004220
:1022500002EA0752CDE90042001C41F580113246E6
:102260002B4600F081F903B0BDE8F08F40462146CF
:10227000F9E7001B61EB0201001C41F58013001817
:102280005B412018A2F5001747EB030140EAD57027
:10229000B6196D4111E06D084FEA360645EAC07582
:1022A0004FEA0752001B61EB0201001C41F580114F
:1022B00049084FEA30000019514132462B4603B01D
:1022C000BDE8F04F00F041B9009801224000002322
:1022D000D0EB020263EBE073009821464FEAE07412
:1022E000B8EB000061EB0401E9E783F000435BE732
:1022F00081F0004158E72DE9FE4F81EA030404F024
:10230000004421F0004100944FF0000B23F0004303
:1023100050EA01045ED052EA03045BD0C3F30A54CE
:10232000C1F30A552C44A4F2F3340194A0FB0254E7
:10233000C1F3130141F48011C3F3130343F4801379
:1023400001FB024400FB034E840A970A44EA8154CD
:1023500047EA8357A4FB076802958D0A05FB0785AA
:102360004FEA932C04FB0C542705029D4FEA0658B4
:1023700047EA1637B5EB08056EEB070C870E920E91
:1023800047EA811742EA8312A7FB0201B6EB0B0171
:1023900064EB00042B0D43EA0C335E1844EB1C5035
:1023A000DA465146E7FB0201C5F313044FEA0B334B
:1023B00043EA14534FEA0432019C43EA0603A4F1B2
:1023C0000C040294009CCDE900B400F0CDF803B0F9
:1023D000BDE8F08F00200146F9E72DE9F04D81EAD4
:1023E000030404F0004B21F0004514464FF0000AAE
:1023F00023F0004150EA050220D054EA01021DD02A
:10240000C5F30A570246C5F31303C1F31300C1F322
:102410000A5640F4801543F48013A7EB0608101BFE
:10242000D64608F2FD3873EB050002D308F1010827
:1024300001E092185B41B8F1000F03DA0020014679
:10244000BDE8F08D00204FF48011064684460EE072
:10245000171B73EB050705D3121B63EB050306433C
:102460004CEA010C49084FEA300092185B4150EAEF
:102470000107EDD152EA030012D082EA040083EA98
:102480000501084305D0101BAB4106D201220023F1
:1024900006E000224FF0004302E06FF0010253100B
:1024A0001AEB06004CEB085110EB0A0041EB0B0154
:1024B000BDE8F04D00F049B81CB509480090094846
:1024C00001900546009C06E0E06840F0010394E8B6
:1024D000070098471034AC42F6D3FFF74DFE0000DA
:1024E0009CC60108BCC60108202A04DB203A00FA79
:1024F00002F1002070479140C2F1200320FA03F35B
:10250000194390407047202A04DB203A21FA02F058
:102510000021704721FA02F3D040C2F1200291401D
:10252000084319467047202A06DBCB17203A41FAA8
:1025300002F043EAE07306E041FA02F3D040C2F150
:102540002002914008431946704710B5141E73F1DC
:10255000000408DA401C41F1000192185B411A4363
:1025600001D120F0010010BD2DE9F04D92469B46AF
:1025700011B1B1FA81F202E0B0FA80F22032904655
:10258000FFF7B2FF04460F4640EA0A0041EA0B019A
:1025900053465A46084313D0114653EA010019D056
:1025A000C8F140025046FFF7AEFF05460E465046C2
:1025B00059464246FFF798FF084305D0012004E042
:1025C00020463946BDE8F08D0020054346EAE07616
:1025D0002C4337430A986305E40AA0EB0800002265
:1025E000FD0A44EA47540A3002D500200146E9E7D3
:1025F000010510196941DDE9084500196941BDE887
:10260000F04DA2E70EB540F2334102910021CDE931
:1026100000110A460B46FFF7A7FF03B000BD70B5D7
:10262000C1F30A5201F000450024C1F3130140F246
:10263000FF3341F480119A4201DA002070BD40F26C
:1026400033439A42A2F2334203DC5242FFF75BFF6C
:1026500000E090402C43F1D0404270BDD2B201E086
:1026600000F8012B491EFBD270470022F6E710B597
:1026700013460A4604461946FFF7F0FF204610BDF0
:10268000F0B480EA0102D40F4200B2EB410F02D253
:102690000246084611464A0042D0C30DDDB2C1F3DE
:1026A000C752AD1A202D35DAC1F3160141F40002EC
:1026B00004B15242C5F1200602FA06F12A41104443
:1026C000B3EBD05F23D0C4B1012DA0EBC35009DC24
:1026D000F0BC4FF0004202EAC352DBB200F500004A
:1026E00000F083B9400000F1807000EBC350A0F10E
:1026F000807040EAD170490009E0490841EAC071A0
:10270000A0EBC35000F50000400800EBC350F0BC44
:1027100000F062B96142012202EB4101001BF6E7C1
:10272000F0BC704781F00041AAE780F00040A7E7C5
:1027300080EA010210B502F00043400022D04A00B6
:102740001FD0010E01EB1261C0F35600C2F3560216
:1027500040F4000042F40002A0FB022000047F3994
:10276000140400D0401C50EA124001D44000491E1D
:10277000C2B20C0604EBD010401C4008802A02D0E4
:1027800003E0002010BD20F00100002900DA002045
:10279000184310BD30B480EA010202F0004530F069
:1027A000004221F0004013D090B1C30DD40DC2F30C
:1027B0001601C0F31600E41A41F4000140F40002CF
:1027C0007D34914201D3641C00E04900002C02DA00
:1027D00030BC002070474FF400000023914201D329
:1027E000891A034340084FEA4101F7D151B19142A0
:1027F00002D14FF0004105E002D24FF0010101E0AB
:102800006FF0010103EBC450284430BC00F0E4B881
:10281000002801DBC0F10040002901DBC1F10041CB
:10282000814201D80120704700207047002801DB59
:10283000C0F10040002901DBC1F10041814201D219
:102840000120704700207047002801DBC0F10040E4
:10285000002901DBC1F10041814201D30120704711
:1028600000207047002801DBC0F10040002901DB97
:10287000C1F10041814201D9012070470020704719
:10288000002801DBC0F10040002901DBC1F100415B
:10289000814201D1012070470020704730B5041EED
:1028A00071F1000404DB4FF00044404264EB01018D
:1028B000141E73F1000405DB1C464FF00043524226
:1028C00063EB0403801A994101D2012030BD00203E
:1028D00030BDC10F80EAE0700844CA07962300218A
:1028E00000F083B896230022114600F07EB800F075
:1028F000004220F00040C10DC0F3160040F400007B
:102900007F2901DA00207047962903DCC1F1960186
:10291000C84001E096398840002AF4D04042704710
:1029200020F00040C10DC0F3160040F400007F29E4
:1029300001DA00207047962903DCC1F19601C840F6
:102940007047963988407047C1F30A5210B5C1F3F9
:10295000130140F2FF3341F480119A4201DA002062
:1029600010BD40F233439A42A2F2334203DC52429A
:10297000FFF7C9FD10BD904010BD00F0004230F0DF
:1029800000400AD0C10D01F56071C0F3160042EAA3
:102990000151C208400711437047002001467047AB
:1029A00001F0004330B421F0004150EA010206D0AA
:1029B0000A0DA2F56072C1F31301002A02DC30BCDB
:1029C00000207047440F44EAC104C100E01830BC45
:1029D00000EBC250AFF300800029A8BF7047401C35
:1029E000490008BF20F00100704710B4B0FA80FC25
:1029F00000FA0CF050EA010404BF10BC704749B162
:102A0000CCF1200421FA04F411FA0CF118BF0121D1
:102A100021430843A3EB0C01CB1D4FEA00614FEAB1
:102A2000102042BF002010BC704700EBC350104480
:102A30000029A4BF10BC7047401C490008BF20F00B
:102A4000010010BC7047FEE7704700002DE9F84F09
:102A500041F6A309622A88460546DFF890A09B4606
:102A6000CDF8009028BF6222052A98BF0522C2F146
:102A70006400A62148436421424680B2B0FBF1F7CE
:102A80002846532107F153063346D0470A9831466A
:102A90000F220F230090681E84B2204603F018FE18
:102AA0006137284642464FF48073CDF800B039466E
:102AB000D047204653212A463346CDF80090D047D0
:102AC000204639462A4602F082F808F101005321D7
:102AD0003346CDF8009084B240462246D047404667
:102AE0003946224602F073F8BDE8F88FB32E00088D
:102AF000438E4FF6FF7293421CBF5A1C428670B53C
:102B0000CB1C0021062B24D8DFE803F00423142378
:102B10000823200001F07CFF04211AE0038C418689
:102B20009A4238BF012180F834104FF0010138BFBC
:102B300009210EE0038C41869A4238BF012180F8BA
:102B400034104FF0020138BF0A2102E001F060FFAB
:102B50000321024612F8305F12F8093C12F8036CA8
:102B6000DCB202F8033C84F001033343B3FA83F38D
:102B70005B094DB1002B5ED0002280F83020C28569
:102B8000826280F82C2056E0458D6DB1013D45856F
:102B90002D0401D0002508E090F82C50012D03D120
:102BA000002101F035FF05210125BCB1002B42D0E9
:102BB000024632F8283F32F8104CA34239D3448BF6
:102BC000A3422FD290F82C3085F00104013B18BFAE
:102BD000012323432DD1838B43852AE0038D048B6E
:102BE000013303859BB2A3420AD12DB990F82C4042
:102BF000012C01D1062101E000F12C020124147006
:102C0000428B934217D3C38DC28B01339CB2B4FB6A
:102C1000F2F505FB1242002A18BF1A46C28508BF0A
:102C2000082108E0002180F83010C1851160117181
:102C3000072100201080084670BD2DE9F04701688B
:102C400082888B68816886898D680469818AA46816
:102C500005EA0607BD1B04EA010CB5FA85F5ACEBE5
:102C600001044FEA551E90F82450B4FA84F4640924
:102C700080F8264080F8274003EA0204A31AB3FA3A
:102C800083F34FEA531A837D1BB355452ED0B7EB20
:102C9000060918BF4FF0010990F82580B8F101032B
:102CA00018BF0123BD1BB5FA85F56D091D4394427C
:102CB0001FD165B1B8F1000F08BFB7423DD0A8EBF6
:102CC0000E02B2FA82F2520912EA090F3DD0012532
:102CD0001EE055450AD04FF0FF35B74280F825E099
:102CE00080F824A008BF0125944217D102200025B6
:102CF0001DE065B1B8F1000F08BFB74221D0A8EBC5
:102D00000E02B2FA82F2520912EA090F27D0FF2509
:102D10004FF0000E80F825E080F824A0EAB26FF0B2
:102D20000200012A08BF0320002A08BF02208C45A8
:102D300018BF054668B2BDE8F087FF254FF0010EC9
:102D4000E8E74FF0010E0125E4E787EA060288EA8A
:102D50000E031A43B2FA82F252095542DAE787EAC1
:102D6000060288EA0E031A43B2FA82F25509D1E745
:102D7000FEE700002DE9F84FDFF88CB007462A2067
:102D8000984692468946D847F44C4FF40045380A95
:102D9000F3494FF480666560C4F8FC03F8B20E6036
:102DA000C4F80068256065600F46C4F8FC034FEA6C
:102DB0001A200E6001F095FD5FFA8AF00E6001F0B6
:102DC00090FD2B200E60C4F800682560D8474FEABC
:102DD000192065605946C4F8FC035FFA89F03E602B
:102DE00001F07FFD4FEA18203E6001F07AFD5FFAA6
:102DF00088F03E6001F075FD3E60C4F80068256013
:102E00002C20BDE8F84F0847653100082DE9FE4F3A
:102E10000C46A3EB010B111A05460029029101DDB6
:102E2000012008E005D00298404202904FF0FF30A8
:102E300001E000200290BBF1000F019001DD0126AE
:102E400007E019BFCBF1000B4FF0FF364FF0000B3E
:102E5000002602985F464FF000084FF000094FF03F
:102E6000000A584588BF07461FFA88F08742B8BF56
:102E7000BDE8FE8FA8B2A1B202460B46FFF77AFF6B
:102E80000C9800F05DF90AEB0B0008F10108B8425C
:102E9000C8BF34440299019A4944B942C8BF154495
:102EA000B0EB070AD8BF8246B1EB0709D8BF894605
:102EB000DAE72DE9F8438146501E154698460E463E
:102EC00082B2581E83B24846FFF754FF089CB0B246
:102ED000404528BFBDE8F8834F46B8B2A84204D2A7
:102EE000204600F02DF90137F7E70136EFE7000043
:102EF00010B5002006F032FEA548A44A4FF4004168
:102F00004FF4006341601360D0F8F843C0F8003814
:102F10000160102006F022FEA0B210BD2DE9F04F96
:102F200087B0119F1C46904600EB5702CB1901F069
:102F3000EEFD01203909109E4FF0000B17F00E0F27
:102F400018BF00EB171101FB07F00690A8F1200055
:102F50004FF4C8717D084FF00008C2B22D480592A9
:102F600012FB010004902F4800EB021003902B4845
:102F700000EB82100290284800EB02200190069896
:102F8000804543D0502F16D0102F18D00598182FF9
:102F900000EB400009D0202F0FD0402F09D00C2F7C
:102FA00034D1214901EB80000AE01D4901EB0010FA
:102FB00006E0019804E0049802E0029800E003981B
:102FC00040440BF108074FF0000A90F80090BAF166
:102FD000080F13D029FA0AF0C007204608BF304670
:102FE00000F0AEF80BF1010B1FFA8BF0B0FBF5F11E
:102FF00001FB150020B10AF1010AE8E7BB4601E038
:103000004FF0000B119F08F10108B8E707B0BDE8C9
:10301000F08F00BFD0310108D0D2000810BB0008EB
:1030200040A9000850A30008DC9E00082DE9FE4FCF
:1030300007460D98994692460E4600254FF00A081D
:103040004FF0000B4408032D08BFBDE8FE8FC5F10B
:1030500002000121020604D001EB81010138490080
:10306000F8E7BAFBF1F0BBF1000FB0FBF8F101EBB0
:103070008101A0EB410105D1012D03D8080410D036
:103080004FF0010BDDE90C2041F030014B46CDE95A
:10309000002005FB0470CAB2314601F0DEFB0135A9
:1030A000D1E7DDE90C1030224B46CDE9001005FBDD
:1030B0000470314601F0D1FB4FF0000BEFE72DE932
:1030C000FC47DDF82880994615460E4607464FF026
:1030D000000A4FEA58042A784AB1B8B231464B4642
:1030E000CDE900A8FFF71AFF27440135F3E7BDE853
:1030F000FC8700002DE9FE4F1C469046894683461A
:103100005D0800260FF2300A0027072F08BFBDE830
:10311000FE8F781EC0B205280AD81AF800200BEBE3
:10312000060049464FF6FF73CDE9008401F095FB98
:103130002E440137E9E700BF56312E302E3600000D
:1031400013494FF400424FF480634A60C1F8FC0316
:103150000E480360C1F800380A607047100801404B
:103160001410014010B50949094B4FF480524FF437
:1031700000440A605C60C3F8FC034FF480600860A0
:10318000C3F80008C3F800281C6010BD14100140EB
:10319000100801402DE9F04F95B0DFF8C0BB9BF857
:1031A000150001282AD0002841F0E582DFF8B09B05
:1031B00099F8E60302282AD1D9F8B040D34901F0A2
:1031C00081FC88B3D14901F042FC002840F0BC806A
:1031D00099F8C003002840F0B7809BF81D00002834
:1031E00040F0B2809BF81E0001308BF81E00C0B288
:1031F000032824BF0120ABF81D0074E09BF82900D0
:10320000012808D1DFF83C0E90F8D10334E000200B
:103210008BF81D0098E0DFF82C4E94F8EB03B0B16A
:1032200001281BD17F2013E09BF81C0001308BF894
:103230001C00C0B215284DD300208BF81C009BF851
:103240001B00013000F003008BF81B0044E03D2020
:10325000009001F03BFD1E2303F03AFA40F29F106C
:10326000082143F286121023FFF744FF01208BF858
:103270002900FF2084F8D103DFF8C88D98F8D01317
:1032800088420FD03F20012908BF3E2000904FF414
:10329000C77006211522152303F01AFA98F8D003F7
:1032A00088F8D10398F8C90398F8CA13814221D04D
:1032B000012803D098F8CB13012916D170200321DF
:1032C0002A221823009040F2631003F001FA98F8C4
:1032D000C9030DE09BF81B0000218BF81D10DFE8EF
:1032E00000F0022A2628562026E000218BF829101B
:1032F00088F8CA0398F8E6034FF6FF7A00F0FE015B
:1033000002294FF6FF7140F0508798F8C41398F8DF
:10331000C5238A4200F0DB80032900F2D280DFE877
:1033200001F002C8C4C6012088F8E703C9E05820AC
:1033300002E0592000E0572000904FF4D770282178
:103340002422222303F0C4F999F8E80301280FD1BD
:10335000DFF8F40C81694A1E0029826108DC002133
:1033600089F8E8134FF496718161172089F8E60314
:103370009BF8191099F8C60319B108BB99F8C21344
:103380000CE0012101288BF819100CD0C0B999F874
:10339000C213012909D8022089F8E6030020022976
:1033A00038BF012002E0032008E0002099F8E6136E
:1033B00001F0FE01022903D110B1022089F8E603D1
:1033C00099F8E60399F8E7234FF6FF71824200F07F
:1033D000CF80DFF8742C4E4B89F8E703D1814D493B
:1033E000FF22C9E90433C9F83830C9F8303089F808
:1033F000B92389F8CE2389F8D42389F8C7238BF819
:103400001720C9F81C10C9F85410C9F8081001F0A9
:103410000CFAC9F89C10C9F84410C9F8A41001F0BE
:1034200012FAA0F11D01CAB2202A04D300F17F02D2
:10343000D2B2012A22D89BF81A2082B904201E2178
:103440004FF4F0724FF491730090002003F040F9B4
:1034500001208BF81A0099F8E603A0F11D01C9B20A
:10346000062904D3A0F12D01C9B20D2911D800906D
:103470004F2046214FF4A172A52377E00021009050
:1034800000204FF4F0724FF491738BF81A101E2144
:103490006CE0A0F12301C9B207294ED8009050205A
:1034A0003B2140F23F12BB2360E0462002E0442073
:1034B00000E0422000907B207B21EB22672303F079
:1034C00007F998F8C41398F8E60388F8C51302289A
:1034D0004FF6FF7140F0698698F8C003022804D0C7
:1034E000012819D0002840F021861820002434211A
:1034F00000224FF6FF73CDE9004040F24510FFF780
:1035000095FDABF84C4000F011BE00BF0000A0429A
:1035100000007A4400007F4398F8C203012802D1DA
:1035200098F8D90320B198F8C943022C40F0CB8415
:103530000020ABF84C0000F0F9BDA0F18101022998
:103540000ED3A0F13B0102290AD3A0F12B010129DE
:103550000ED80090482058214FF4A872822305E02D
:103560000090092057214FF4E772842303F0B0F84C
:103570009BF8210001280DD0002840F02581B9F8E2
:10358000BA0390B199F8E663022E51D0032E54D1BC
:1035900019214EE0B9F8BC0388B199F8E663022E10
:1035A00072D0032E75D119216FE09BF82A000028F4
:1035B00000F0B48001385F468BF82A009EE0D9F80D
:1035C0009850D9F8A000D9F8B44001F04EFA30B1C3
:1035D000D9F8B80001F026FA002840F0F28099F8F6
:1035E000C01399F8C22399F8D93399F8E603C9F8BA
:1035F000B840C9F8A050090608BF2C4682F0010166
:10360000DAB2114318BF2C46CBF86040022800F014
:10361000C480032840F0D58001F01CFA0246202027
:1036200043F28611CDE900104FF4CA70CD21C4E0F9
:103630000521D0FA51F0A9F8BA030020D9F820509A
:103640005F46C9E90200D9E9064001F0EBF928B16B
:10365000D9F8240001F009FA00284FD199F8CD03D8
:10366000C9F82450C9F81C40002808BF254601F0BD
:103670002CFA0446022E37D0032E3FD101F01FFB57
:1036800040F28910502135E00521D0FA51F0A9F817
:10369000BC0399F8C973022F04D0CE48C9F8B8000A
:1036A000C9F8A000D9E92640D9F8BC5001F0BAF910
:1036B00030B1D9F8C00001F0D8F9002840F081807D
:1036C000C9F8C050C9F89C40022F08BF2C4601F031
:1036D000C1F90446022E16D0032E72D101F0EFFA82
:1036E0004FF4CA70CD2116E05E2001F0C8F901F058
:1036F000DFFA78214FF66143FFF798FC97F8210035
:10370000BB4601305EE0622001F0A7F901F0D0FA7B
:103710004FF48770782143F67F4350E099F8C40353
:103720005F460028EAD1D9F82850D9F80080002156
:103730002846FFF7A5F8A84906462846FEF7F8FFF1
:10374000A649FFF727F801F0A1F885F00041002E07
:1037500018BF084699F8CDB3BBF1010F18BF084652
:10376000FFF7C5F899F8C9A30546BAF1010F40F073
:10377000D483BBF1010F40F0FA8397494046FEF72E
:10378000D7FF9649FFF706F801F080F89449C9F889
:103790000400FEF775FF0646CEE3602001F05DF9F8
:1037A000DBF86000FFF7A3F80246502041F6A301C2
:1037B000CDE900104FF4877078214FF6FF73FFF7C3
:1037C00035FC00208BF8210099F8E603022800F070
:1037D0006F81032840F081819BF8180058B90020C0
:1037E00029214FF4BC72FA2300901220FFF761FBED
:1037F00001208BF81800D9F800607A49D9F84850B0
:10380000D9F8B08001F0C1F999F8C943012C18BF6B
:103810003046FFF76CF80646FFF75BF8014628468E
:10382000FFF720F8074601F050F90546002F08BFC2
:10383000354699F8C00350B16B494046FEF7F6FF94
:1038400028B99820022C08BFBC2059F8008028B263
:10385000CA46FFF73EF865490546FEF7F5FF644E98
:1038600000281CBF0025C4F2FA3528463146FEF771
:10387000CFFF604A00281CBF0025C4F2C825284697
:10388000314606F0CFFAABF850004046FFF72FF86C
:10389000FFF728F8584901F012F900281CBF00244E
:1038A000C4F24834204600210026FEF7B1FF00286C
:1038B000524A18BF00242046002106F0B3FAABF8A4
:1038C000520040F2651744F6384B4FF00009B945F5
:1038D0003CD009F112000AEB0908009684B209F104
:1038E000140098F8EC1098F8ED3085B220462A467E
:1038F000FFF78CFA98F8521298F8533220462A466D
:103900000096FFF783FAB9F5B27F14D04FF260400A
:1039100098F8EE3098F8ED102A4600902046FFF710
:1039200075FA98F8543298F8531220462A46CDF882
:1039300000B0FFF76BFA98F8ED0009F1010988F87B
:10394000EC0098F8530288F85202C0E7DFF82C1E0A
:10395000DFF8446ED146002448F20F454727B1F8FE
:1039600050008AF85102B1F852008AF8B7034FF0BC
:103970002A0ABCB1052C43D004FB0AF04FF4BC72F8
:103980000095283081B212200B46FFF73FFA04FB66
:1039900007F02821FA230095123080B20246FFF783
:1039A00035FA15E0122028214FF4BC722823009527
:1039B000B047122028211222FA230095B047122086
:1039C000FA2101F02CF94FF4BC70282101F027F9FD
:1039D0000134CEE700007F43000010410000A0400A
:1039E0000000F4C2000048C20000F0410000FA43A9
:1039F0000000C842000016440000484300007A431B
:103A000073202A212F2219230090142002F060FE37
:103A1000DFF8944D0C250FF684521520462100F056
:103A2000BCFF0FF688521520702100F0B6FF0FF68C
:103A3000885215209A2100F0B0FF0FF68852152009
:103A4000C42100F0AAFF0FF688521520EE2100F0E5
:103A5000A4FF74202A2117221723009040F25F1040
:103A600002F036FE0FF674524FF4B270462100F0A9
:103A700090FF0FF66C524FF4B270702100F089FF86
:103A80000FF660524FF4B2709A2100F082FF0FF6E9
:103A900058524FF4B570C42100F07BFF0FF64C5222
:103AA0004FF4B870EE2100F074FFDFF8D0BC91E065
:103AB000D9E90045D9F8100000F0B4FF88B9B9F889
:103AC000BA1399F8CD03C9E90445A1B100B3D9F8F7
:103AD00020009B49FEF7D4FD17E000208BF818006A
:103AE00078E0D9F8140000F0C0FFB9F8BA13002844
:103AF000E7D059B3E5E799F8C96360B19049284622
:103B0000FEF7BEFD012E18BF28468E4C8E4D0AE0F2
:103B1000D9F8180005E08D4900F087FF012E18BF85
:103B200020468B4C8B4DFEF728FF02460B4628465D
:103B30002146FEF7E0FBFEF772FD02466A202721D0
:103B40004FF6A04300901A20FEF780FFD9F8984066
:103B5000D9F8A400D9F8B45000F064FF10B9D9F82E
:103B6000BC600CE0D9F8A800D9F8BC6000F07DFF7B
:103B700028B1D9F8AC003146FEF782FE50BB09F1FE
:103B8000A40070C099F8C003012809D199F8C203B4
:103B9000012805D199F8D90310B9B9F8BC0320B1AF
:103BA00001F007F808BF3446254600F08EFFFEF707
:103BB00029FD694B0022FEF79EFBFEF730FD024611
:103BC0006B204FF4E37140F25F43009040F2B91074
:103BD000FEF73CFF99F8E603011F11F1020FC0F058
:103BE000CD8046F269605D214FF481724FF4947389
:103BF000ADF850003020109346F268531291CDE991
:103C00000C21CDE9072199F8B813119213900E9069
:103C100009905A20ADF83C30C123069099F8B903B9
:103C20000B9346F26743ADF82830884247D006AC84
:103C3000012604F10805042E10D099F8B903864234
:103C400009D16F7AAB882A8835F8041C35F8080C3E
:103C5000009702F03DFD14350136ECE799F8B90301
:103C600008B104280DD300253C2D0AD06619605BED
:103C7000B3893289B188767C009602F029FD14352B
:103C8000F2E799F8B803411ECAB2022A0FD8900091
:103C900050FA81F134F8210004EB8104A3892289D0
:103CA000A188247C009402F013FD99F8B803E74939
:103CB000002289F8B9038BF8222000F0B6FD002815
:103CC0005AD09BF82200002856D1D9E91A06D9F813
:103CD0001850D9F82040FEF70AFEADF8120000F0A7
:103CE00051FFADF81400D9F87000FEF700FEADF8F2
:103CF0001600D9F87400FEF7FAFDADF80C00D9F8FB
:103D00007800FEF7F4FDADF80E00D9F87C00FEF760
:103D1000EEFDADF8100000F0D8FE054600F09AFE6A
:103D200000210DF1120203AB03291BD032F8114020
:103D3000AC4221D033F8114001318442F4D11BE070
:103D40000000F4C2E3A5BB3FD9CEF753000048C240
:103D50009999C93F9A9999990000E43F0801002078
:103D600064140020B948C9E93500C9E93700C9E938
:103D7000390001208BF8220099F8E60300F0FE00DC
:103D8000022840F09B80D9F86840D9F8D400D9F8CF
:103D9000745000F047FE20B1D9F8E00000F065FE55
:103DA00090B900F07FFE08BF2C4600F053FE00F0F3
:103DB0007DFE602000F0DAFDD9F86800D9F87410B3
:103DC000C9F8D400C9F8E010D9F86C40D9F8D80087
:103DD000D9F8785000F026FE20B1D9F8E40000F0C0
:103DE00044FE90B900F05EFE08BF2C4600F032FEA3
:103DF00000F05CFEC72000F0B9FDD9F86C00D9F8DE
:103E00007810C9F8D800C9F8E410D9F87040D9F88A
:103E1000DC00D9F87C5000F005FE20B1D9F8E800AC
:103E200000F023FE98B900F03DFE08BF2C4600F0DC
:103E300011FE00F03BFE4FF4977000F097FDD9F8AB
:103E40007000D9F87C10C9F8DC00C9F8E810D9F87E
:103E50008040D9F88C0000F0E5FD50B900F0FAFD83
:103E600000F024FE8D2000F081FDD9F88000C9F813
:103E70008C00D9F88440D9F8900000F0D3FD50B9F7
:103E800000F0E8FD00F012FEF42000F06FFDD9F81C
:103E90008400C9F89000D9F88840D9F8940000F05F
:103EA000C1FD58B900F0D6FD00F000FE40F25B10F5
:103EB00000F05CFDD9F88800C9F894009BF8150063
:103EC000013000F056BCD8F80000D8F81870FEF7A2
:103ED0000EFD012C08BF323800B2FEF7FAFC5C4937
:103EE00004463846FEF7CCFB21468246FEF79EFC90
:103EF000584905463846FEF7C3FB064635B93046F5
:103F00002146FEF7AFFC002800F0AC803046214689
:103F1000FEF77EFCF0B90120FDE0BBF1010F7CD182
:103F20004D494046FEF704FC4C49FEF733FC00F0D7
:103F3000ADFC0646C9F804002846FEF7CAFC014657
:103F400000F023FEFEF7D3FC0546FEF7C2FCD9F8CD
:103F50004C601EE050462146FEF776FC00284FF6E6
:103F6000FF7A40F0DF8000208BF81F00D8E03C494A
:103F70004046FEF785FB06462846FEF7AAFC0146AA
:103F800000F003FEFEF7B3FC0546FEF7A2FCD9F8ED
:103F9000486001463046FEF765FC10B100F0F2FDC6
:103FA000054699F8E64344F00200032801D11420A5
:103FB00004E099F8C003002818BF142087F82A00ED
:103FC000D9E901604146FEF75BFC38B1D9F80C0035
:103FD0003146FEF755FC00287FF490ABBAF1020F92
:103FE000C9E9028617D099F8D303012813D197F8AD
:103FF0002B00CA46B946002854D00AF11800BBF17C
:10400000010F08BF0AF120000068FEF770FC0546AA
:10401000C9F864005FE07D665EE02846FEF759FC63
:1040200001464046FEF72CFBFEF761FC0546FEF715
:1040300050FCD9F8486001463046FEF7E9FB0028FD
:10404000ACD0AEE7641400200000002000007F43E5
:104050000000C8420000C8C2000010410000A0409B
:10406000000048C29BF82000022853D1DFF8100757
:104070004FF6FF7A018A0139018209B2002951DC29
:104080003221018238462146FEF74CFBFEF72FFC19
:1040900001B280EAE130A0EBE13000B20128D8BFE4
:1040A00001203DE02846C9F86450FEF712FCDAF81A
:1040B0001860DC49804600F068FD4146FEF7D2FBFF
:1040C00048B9D94900F061FD4146FEF7AFFB10B990
:1040D000012089F82B00D146032C0ED0022C7FF44E
:1040E0000DAB5C2000F0CBFCB7F86420502041F60B
:1040F000A301CDE90010782108E0202043F28611C9
:10410000AAB2CDE9001040F2891050214FF6FF739A
:10411000FFF7F2BA02208BF81F0064204FF6FF7AF7
:10412000ABF84C009BF81F008BF82000DFF850160E
:10413000BBF84C00C98981423AD0C0B2642828BF7C
:104140006420012898BF0120C0F16400FEF7CAFB7B
:10415000B649FEF71FFBB649FEF7EAFAFEF7C7FBC2
:10416000C0F5877044F25071432384B20091CF2090
:104170003F212246FEF79DFE41F6A3003F214FF46A
:104180008772432300902046FEF793FEBBF84C2035
:10419000182000214FF6FF73CDE9001040F24510C2
:1041A0003421FEF743FFBBF84C10DFF8D405C18182
:1041B00098F8E67307F0FD002D2804D1D8F82C50AC
:1041C000D8F8344007E0D8F81850D8F82040C8F89C
:1041D0002C50C8F83440D8F83000D8F8386000F0D7
:1041E00044FC18B1304600F01DFC28BB47F002002B
:1041F000C8F83840C8F830502F281DD198F8CD03A2
:1042000098F8DC63002808BF2C4600F023FC024627
:10421000202043F266114FF6FF73CDE90010F0B293
:10422000022808BF4FF4FC634FF487702F2F18BF8C
:1042300053469621FEF7FAFE9BF8230038BB012077
:10424000D8F81860D8E91A548BF82300D8F8000081
:10425000FEF74DFB00EBC000052700F0F2FBC8F8AD
:10426000040000F08FFC00F0CCFAC8F8200000F049
:104270002CFC00F0C6FAC8F8740000F0EBFB00F06C
:10428000C0FA00F05DFC00F0BCFAC8F87C0098F8B9
:10429000CD9398F8CE434C4527D0D8F80000D8F8F5
:1042A0001860D8E91A5AFEF722FB00EBC000052778
:1042B00000F0C7FBC8F8040000F064FC00F0A1FAAD
:1042C000C8F8200000F001FC00F09BFAC8F8740068
:1042D00050464FF6FF7AFEF70AFB00F092FA00F024
:1042E0002FFC00F08EFAC8F87C009BF81600062818
:1042F00000F23E82DFE800F00478183C09A2BF001B
:104300004C4540F0CB80012030E298F8E603372896
:1043100040F0188198F8DD03012800F00981002899
:1043200040F021826F2004E198F8E603232840F052
:10433000B38098F8DF030138C1B2032900F2AC80E2
:10434000C000DFF84854782114221423C4B239483D
:1043500000F021FC384EA1211422142306F57F40E1
:1043600000F019FC26FA04F0CA2114221423C1E13A
:1043700098F8E603A0F1230100F0B4FC00F2F38109
:10438000012202FA01F140F66162114200F0EB8174
:104390002D2808D0352806D0372802D198F8DD130B
:1043A00009B1392804D14E2000F062FB98F8E603E9
:1043B0002F2805D0372808D198F8DD13012904D11A
:1043C000512000F055FB98F8E603232840F0CB81FC
:1043D00098F8DF035121042808BF4E210091C42022
:1043E000FF2158222D2343E098F8E603A0F11D0198
:1043F00000F078FC00F2B781012202FA01F140F6E8
:104400007742114200F0AF811D2840F0C88098F833
:10441000CC03002800F0BA80012840F0C080892435
:10442000B121B5E0000020C1000020410000C842D9
:1044300000007C42797A7A7A7A7A797A98F8C0039D
:104440009BF81710814200F08E8198F8C913022959
:1044500000F0898198F8E61300288BF817004CD1FA
:1044600002294AD14020282196224B230090A520E2
:1044700002F02EF977E19BF8262098F8C913022A5A
:1044800022D1022920D098F8E6038BF826100228C2
:1044900040F053817C2049E1032067E198F8E6036E
:1044A0002F283BD0032800F028812D2836D0022861
:1044B00040F05581B9F1010F00F04981B9F1000FC9
:1044C00040F04D814C2043E10020022A00F04E8153
:1044D000022940F04B8102208BF8260098F8E60371
:1044E000022840F02A8198F8D603002800F01581B0
:1044F000012840F01A817E2010E1012808BF02291E
:1045000040F031817B20282196224B230090A5206A
:1045100002F0DEF89A48A0F80EA024E1B9F1010FEC
:1045200000F0F380B9F1000F40F019814820EDE070
:104530006C200090CD20BE214622202302F0C8F836
:1045400098F8E603352840F00E81EC20832143F2F1
:10455000661220234FF0EC0843F266152026FEF782
:10456000C9FD002787A4072F00F0FD80781EC0B288
:10457000052809D8225C08EB0710B5214FF6FF7318
:10458000CDE9005600F069F90137ECE7B124892143
:104590005A2000F02FF95B20214600F02BF998F803
:1045A000E6031F2812D198F8CF03012803D0A8BB37
:1045B0008924B12101E0B12489215A2000F01AF99F
:1045C0005B20214600F016F998F8E603212810D167
:1045D00098F8D20320B101280BD18924B12101E040
:1045E000B12489215A2000F005F95B20214600F012
:1045F00001F998F8E603312812D198F8D50301287B
:1046000003D0B8BB8924B12101E0B12489215A200B
:1046100000F0F0F85B20214600F0ECF898F8E60393
:10462000332810D198F8DB03012803D058B9892426
:10463000B12101E0B12489215A2000F0DBF85B2090
:10464000214600F0D7F898F8E603252814D198F809
:10465000E103022805D0032840F085808924B12198
:1046600001E0B12489215A2000F0C4F85B202146E2
:1046700000F0C0F898F8E60327281ED198F8E30365
:1046800000F093FA6FD8C000404D752125221E23FB
:10469000C4B23F4800F07FFA3E4E9E2125221E23E1
:1046A00006F57F4000F077FA26FA04F0C7212522AC
:1046B0001E2300F0A5FA98F8E603292853D198F8AC
:1046C000E50300F072FA4ED8C000304D7521252266
:1046D0001E23C4B22E4800F05EFA2E4E9E212522E3
:1046E0001E2306F57F4000F056FA26FA04F0C72193
:1046F00025221E2300F084FA35E0B9F1010F1ED007
:10470000B9F1000F2BD14A201AE0492000904FF454
:10471000A07099211C221B231FE07B200090A52064
:10472000282196224B2301F0D3FF75200090912081
:104730005021BE22232301F0CBFF002016E04B20A6
:1047400000904FF4DC7054211A22182305E04D200C
:104750000090C820AA211422152301F0B9FF98F86F
:10476000CD0388F8CE039BF8160001308BF81600B5
:1047700000208BF8150015B0BDE8F08F080100206F
:104780000000002056312E302E310000D166000886
:104790005A5B5B005B5B5A000D2E000835303028F9
:1047A0003933322900000000BF300008343030288F
:1047B00037353229000000003330302835373229B0
:1047C0000000000032303028333932290000000068
:1047D00031303028323132290000000032303000D0
:1047E000313530003130300035300000300000000D
:1047F000FEE7704725221E2300904FF4AA7001F0B7
:1048000067BF00EBC000B0FBF7F0203080B2FEF7CE
:1048100069B8BDF804100A31ADF804109DF81810FD
:10482000013170470446FDF7F3BFC9E93511C9E905
:104830003711C9E939117047B7F860000130A7F89E
:10484000600080B27047C9E92311C9F8941070471D
:10485000D9F820004FF04241704780B2FEF75EBBAE
:104860004FF47A704FF07E51704795F82D00013863
:1048700085F82D00000670470A6842F001020A60C0
:1048800070472D2087F8E603002070474FF08441E1
:10489000FDF7F6BE00BF00BF00BF00BF00BF00BFF6
:1048A00000BF00BF00BF00BF704797F8E60300F0ED
:1048B000FE010229704750F8210052F821100068CB
:1048C000C9F818000968C9F898107047C9F8241089
:1048D000C9E92311C9E92512C9F89C1089F8B80360
:1048E0007047C4F8006825606560C4F8FC03704731
:1048F000A9F8BC03D9F8BC00FDF7C2BEA7F8BC03F9
:10490000D7F8BC00FDF7BCBEA7F8BC03D7F89800E9
:10491000FDF7B6BE07F18C0002EB81027047012063
:104920008AF80D0000208AF82B00502068614FF4AF
:104930007A70A9F8BA0399F8CD030128704709F1F4
:104940008C0002EB81027047BDF804109DF8032033
:104950001144A942704720464FF07E51FDF790BEAA
:104960004FF04241C9F82000FDF78ABE4FF48C7128
:10497000FEF75CBB87F8E60397F8E10397F8E313CB
:1049800097F8E52387F8E00387F8E21387F8E42334
:10499000704744F63843009520474FF26043009536
:1049A000204797F8B813C7F898400329704797F83D
:1049B000B813C7F8BC4003297047686101208AF822
:1049C0000D004FF47A70A9F8BC03D9F89800FDF7F0
:1049D00057BE0021017299F8C9130229704799F84E
:1049E000B813C9F8BC400329704799F8B813C9F83F
:1049F0009840032970470021C16581650165C16444
:104A0000A9F8461089F81210C8F840108164704760
:104A100080F83010C185816280F82C1070472046E4
:104A2000FDF720BF2146FDF72BBF2046FDF728BE2E
:104A30004FF042413862FDF723BE78632846FDF708
:104A40001FBEB0FBF7F0203080B2FDF74BBF204611
:104A5000FDF7FABE2046FDF74ABFD4217B22192379
:104A600000904FF4877001F033BE2946FDF708BF70
:104A7000FA2158222D230090C42001F029BED22112
:104A80007B221C2300905A2001F022BE01462046C2
:104A900030470446FDF7CABE99F8E60300F0FE0071
:104AA0000228704799F8CD03012870470246182064
:104AB00043F286114FF6FF73CDE9001070470446AC
:104AC000FDF7C2BE2046FDF7B1BE2846FDF70FBF79
:104AD000386840F001003860704787F8E613023804
:104AE000B0FA80F0400987F8C60370478DF81810B7
:104AF0009DF81810704797F8C903022870470146BF
:104B00002846FDF793BE9AF80E1001297047013A26
:104B1000013B92B29BB2FEF72DB90020307281F8B2
:104B20002B004FF47A70A7F8BA0397F8CD03012849
:104B300070470446FDF796BE0130C1B203297047A5
:104B4000C8F87800D8F87000FDF7D1BE97F8DC03FC
:104B500002287047272087F8E60397F8E20387F8D2
:104B6000E3037047292087F8E60397F8E40387F802
:104B7000E5037047252087F8E60397F8E00387F8F8
:104B8000E10370473046FDF7B2BE3046FDF778BD11
:104B90005846FDF775BDE040C0B200904FF4AA70D2
:104BA00028470020A7F8600070470138C1B20229E9
:104BB000704799F8C90302287047D7F82C80284617
:104BC000FDF7B6BDB8633863B869FDF7ABBD4FF408
:104BD0008073CDF800905047044628462146FDF7E3
:104BE00033BE044628462146FDF712BE9AF8EB1361
:104BF000284602F06DBB86F8E40304F1260028473E
:104C0000C0B200904FF4AA70284786F8E20304F17E
:104C10002400284786F8E00304F1220028474FF4D7
:104C2000BC72FA230095304786F8C90304F12000CE
:104C3000284786F8D90304F11E00284786F8D303D5
:104C400004F11C00284786F8D60304F11800284711
:104C500086F8D00304F11600284786F8CD0304F146
:104C60001400284786F8C60304F112002847C9F843
:104C70009C00C9E92300C9F89400C9F8BA13C9F81F
:104C80002400C9F81C007047C6F8880004F1100021
:104C90002847C6F8840004F10C002847C6F88000B5
:104CA00004F108002847206820F00100206010BDB2
:104CB000502041F6A301A2B2CDE900107047202098
:104CC00043F28611A2B2CDE9001070470020002106
:104CD0004FF4F072704701F0070125F4E04545EA12
:104CE00001317047CAB2C90141EA5201C9B20B2968
:104CF000704781F826200021317202210228704776
:104D0000704770472DE9F041DFF8A06B70780138EB
:104D10007070000648D1DFF8984B1420707094F83A
:104D2000D003012813D1DFF88C5B95F82C00022802
:104D30001DD001280ED058BB02F0E8F8307A0128C7
:104D400020D028BB012085F82C0002201EE002F0B4
:104D5000DDF829E002F0E0F8FFF787FD18D1317A9D
:104D6000022085F82C0089B101290ED010E002F054
:104D7000CDF8FFF77AFD0BD102203072002085F8C4
:104D80002C0003E0012085F82C00192085F82D0067
:104D900094F8C40340B1B0780138B070000603D174
:104DA000012030722820B070DFF8107D97F8C00322
:104DB00048B1307801383070000609D105203070D4
:104DC00002F0DAF904E002F0D7F9012087F8EA03EB
:104DD00097F8C003022809D1FC6D00212046FDF799
:104DE0004FFD18B9BF49FFF720FEF865B0890138BB
:104DF000B081000440F0FF870120B081DFF8C40CCF
:104E000000F128042046FDF718FF01462046FDF773
:104E10006FFE0138092800F27180DFE800F0051C00
:104E20006F6F35576A0D272E97F8E603411F162935
:104E300000F24F81022015E0DFF8840C90F8271073
:104E400000295BD1012180F82710FFF72EFD40F0EB
:104E5000EA820020F0E297F8E603411F162900F2EB
:104E6000BB8003207071D9E0307247E0FFF71DFD71
:104E700040F0DE800720707163E0FFF716FD40F020
:104E8000FD800820707181E097F8E603A0F123010E
:104E9000062940F25A81811E0229C0F0BF801B28DA
:104EA00000F0D5832F2800F0DF83372800F0D2836D
:104EB000392840F0BA8397F8C603002800F0DE8452
:104EC000012840F0AB80032000F0D9BCFFF7EDFCD7
:104ED00014D19349FF22C7F8BA139249C7F89C101E
:104EE000DFF8DC1BFFF705FF08BF0321FFF7F5FD27
:104EF00004E0DFF8CC0B002180F827107079172828
:104F000000F23385DFE810F01800DF019D014A024E
:104F10005302A40127021D00420062026C01BC0181
:104F200076019D00C300400231053105310585023F
:104F30007B022E0131059301052087F8E60300F07E
:104F400012BD97F8C403002840F00D85DFF8701BF0
:104F5000FFF7E3FD00F03A83002840F04F83B86983
:104F60007149FDF78DFB7149FFF793FD10B96F4C47
:104F70000020F8616E492046BC61FDF7D9FB6D4900
:104F8000FDF708FCFFF782FC386237E397F8C403AB
:104F9000002840F0E884DFF8281BFFF7BEFD00F092
:104FA0003A83002840F0B483B8696349FDF768FB91
:104FB0006249FFF7BEFD10B9604C0020F8615C4902
:104FC0002046BC61FDF7B4FB5A49FDF7E3FBFFF750
:104FD0005DFC386200F09CBBA0F11D011A2900F2B3
:104FE0005283DFE811F0B0001B0066031B006C0366
:104FF0001B001D001B00DC031B00E3031B000D0452
:105000001B007C03810372031B00D6031B006F038C
:105010001B0086031B001B001B006903002023E705
:1050200097F8DF030138010608BF042000F0F6BB43
:105030002F287FF463AFFFF789FD7FF45FAF0D206A
:10504000707197F8CD03012800F0F981002840F035
:105050008A84BC693649FD6A2046FDF769FB3549FB
:10506000FDF798FBFFF712FC2F49FFF7E6FC3349E9
:105070000546FFF7DAFCFFF7AFFD24E02F287FF4A9
:105080003DAFFFF763FD7FF439AF0E20707197F8E5
:10509000CD03012800F0DF81002840F06484BC6962
:1050A0002349FD6A2046FDF743FB2249FDF772FBC9
:1050B000FFF7ECFB2049FFF7C0FC21490546FFF74D
:1050C000B4FCFFF78EFD002818BF2546FD6200F0F6
:1050D0004ABCA0F11D011A2900F2DC820FF208007F
:1050E000D0E811F0000080BF31003000E70230004E
:1050F000ED02300095033000A0033000780330004B
:10510000B2033000FD020203F30230006B033000F3
:10511000F00230000703300030003000EA0200BF28
:10512000E803E80300007F43000020410000FA4349
:10513000000010410000A040000020C10000C84253
:105140000000C8C26AE709208CE6DFE811F07102AE
:105150006E0207006E0207006E0207002320FFF7B1
:1051600009FC5BE7D048D14CD14DD24B0022012144
:1051700087F8E81387F8B823BA6287F8D82387F846
:10518000D62387F8D213A7F8CC23A7F8C82387F82B
:10519000C6233A6587F8DB2387F8D92387F8D51328
:1051A00087F8D313C7F89800C348C7E92054C34C05
:1051B000C7F88830C24BB861C7E91A044FF4807051
:1051C0003B67A7F8CF034FF00130C7F8E20340F286
:1051D0000220A7F8E003BB48C7F8BA0300F0C3BB3E
:1051E00097F8CF03002800F04781012840F0BB83E7
:1051F000002042E197F8CD03012800F04381002808
:1052000040F0B183BD69B049FFF7D7FCAF49FDF766
:10521000C1FAFFF73BFBAE49FFF70FFC05464046DE
:105220002946FDF71FFBAB490446404645E097F889
:10523000DD03002800F03481012840F09483002031
:105240002FE197F8E603811C1A2888BF0521ABE0FF
:1052500097F8C403002840F08683DFF86418FFF74E
:105260005CFC00F06282002840F04583BC699A49EA
:10527000FFF728FC002800F02483FFF76CFB23E3F2
:1052800097F8CD03012800F03181002840F06B83AE
:10529000BD698D49FFF791FC8C49FDF77BFAFFF75B
:1052A000F5FA8249FFF7C9FB054640462946FDF756
:1052B000BDFA044640464FF07E51FDF7E1F9002C5F
:1052C00008BF284631E197F8E613481F362800F258
:1052D000F382DFE810F037004803E1064803DA06FE
:1052E0004803F6064803A1064803C2064803B2066F
:1052F000480313074803F30648031A074803E80660
:10530000480348034803FC064803290748032007CD
:105310004803480348034803480348034803480335
:1053200048033207AB063E074803D1064803B906D7
:1053300048030A0748033B07480348034803480358
:105340004803F3021D2087F8E603FFF7D4FB08BFEC
:1053500097F8CB03AAE197F8C403002840F0038331
:10536000DFF85C17FFF7D9FB00F0E981002840F077
:10537000E682BC694D49FFF752FB002800F0C58268
:105380005449FFF752FBC3E297F8D203002800F01C
:10539000CE80012840F0E7820020C9E097F8E603BC
:1053A000811E062838BF1B2187F8E613DBE297F839
:1053B000C603012800F0C180002840F0C18097F8A2
:1053C000C203012800F2BC800220B7E097F8CC03AA
:1053D000012800F0E080002840F0C582FFF78BFB39
:1053E00040F05F810120002187F8CC0340F2FF10DC
:1053F000A7F8CA03DFF8C80680F82910B3E297F8C7
:10540000DB03012800F0D680002840F0AC820120A8
:10541000D1E097F8D503012800F0D280002840F0B1
:10542000A2820120CDE0411F372901D3812804D178
:1054300097F8E80308B904207071012014E5786B2F
:1054400026493C6AFDF71CF925490546FFF7EDFAA8
:10545000FFF7C2FB0AE0786B22493C6AFDF710F9BE
:1054600021490546FFF7E1FAFFF7BBFB002818BF0B
:10547000254628467D634EE0012087F8CD0387F856
:10548000CF0370E2386A18497C6BFDF7F9F80546DE
:1054900020462946FDF7E6F90E498046204633E0CE
:1054A000012087F8DD035EE2000020420000C842D0
:1054B0000000A0420000F0420000BE430000C843CC
:1054C0000000D243E803E803000010410000A040C0
:1054D0000000C8C2000080BF0000FA430000204165
:1054E00000005443000020C1000054C3386AE6495C
:1054F0007C6BFDF7C5F8054620462946FDF796F971
:10550000804620464FF07E51FDF7BAF8B8F1000F03
:1055100008BF284678634FF04241FDF7B1F8DB49F8
:10552000FDF706F9DA49FDF735F9F8621BE20120CB
:1055300087F8D00387F8D20315E2032087F8E60343
:10554000DFF8800D90F82810012908D100214FF6CE
:1055500001720185A7F8C92380F82A1010E0002104
:1055600080F82A1097F8C913022909D14FF47A71EB
:10557000A7F8BC13FF2180F8261007F19C0007E074
:10558000C448C7F89C000020A7F8BC0307F1A0009E
:10559000C0490160E7E1FFF7AEFA40F08480FF21E7
:1055A0000020A7F8CA13DFF81C1D87F8CC0381F888
:1055B0002900D8E1002087F8D90387F8DB03D2E17E
:1055C000002087F8D30387F8D503CCE1386AB249C5
:1055D000FDF756F8B149FFF75CFA10B9AF4C00205F
:1055E000786220464FF042413C62FDF749F8A749F6
:1055F000FDF79EF8A649FDF7CDF8B86197F8B81306
:10560000032900F2AD81FFF785F9DFE811F0AC0165
:10561000A701A201A5013C6AA149FFF700FA0028F1
:105620006AD0A049FFF701FA69E00120FFF71ABC30
:1056300097F8DF03013803283FF6F0ACDFE810F0FD
:1056400004007A044B045204FFF794FAE6E40420C1
:10565000FFF708BC97F8DD03012800F00B81002854
:105660007FF4DCAC17200AE197F8DC03012871D144
:105670000220B9693A6A87F8DC038648C7E90B104B
:10568000C7E90D20CAE402380228BFF4C7AC0620DF
:10569000FFF7E8BB02380228BFF4C0AC0520FFF7D3
:1056A000E1BB012000E0002087F8C90387F8CC03A4
:1056B00059E10A20FFF7D6BB1720FFF7D3BB0F2015
:1056C000FFF7D0BB1320FFF7CDBB97F8DC03002812
:1056D0007FF4A4AC2F2087F8E603012076E00120B8
:1056E00087F8D6032C20CAE0002087F8D6032B20A9
:1056F000C5E01420FFF7B6BB002078626248FFF7D0
:1057000097F96249FDF714F86149FDF743F8B8616C
:1057100097F8B813032900F22381FFF7FBF8DFE8BD
:1057200011F022011D0118011B013C6A5B49FFF7C2
:10573000C9F9002800F0D380FFF70DF9D2E03C6AE8
:105740005149FFF76CF9002800F0ED805649FFF74A
:105750006CF9EBE00120D7E90A4187F8DC034D48FA
:10576000FFF730FA0146FFF760F9D749FFF7A7F9CD
:10577000D64900281CBF0024C4F2C8242046FDF7E7
:1057800047F800281CBF0024CCF2C824BC62FFF7F5
:1057900045BCFFF7DBF914D10C20FFF763BB97F88A
:1057A000E103FFF702FA38BF032041E097F8E30373
:1057B0000138010608BF032012E0FFF7C7F900F027
:1057C000F78401287FF42AACFFF75BF887F8DC0345
:1057D000FFF724BC97F8E303FFF7AEF988BF012079
:1057E00087F8E303C0B2032800F0CB84022800F05E
:1057F000C684012804BF012087F8E203FFF70EBC2E
:1058000097F8E5030138010608BF032022E097F866
:10581000DF030130C1B2042988BF012087F8DF030C
:10582000FFF7FCBB97F8E103FFF786F988BF02207A
:1058300087F8E103C0B2032800F0488302287FF410
:10584000EDAB022000F043BB97F8E503FFF774F9D6
:1058500088BF012087F8E503C0B2032800F09F84C9
:10586000022800F0938401287FF4D8AB01200021A6
:1058700000F08EBC15207071392000E0022087F8FE
:10588000E603FFF7CBBB00BF000054430000A0407D
:105890000000104100007F430000484200006944BE
:1058A00000007D43000024C2000080BF00000020F3
:1058B0006414002008010020812954D11920FFF729
:1058C0003CBB0020F86182488249B861FCF730FF98
:1058D0008149FCF75FFFFEF7D9FF38620BE000203B
:1058E00078627E48FFF7A4F87B49FCF721FF7949ED
:1058F000FCF750FFB86197F8B813032930D8FFF7C9
:1059000009F8DFE801F0302B26290020F8616E4805
:105910007049B861FCF70CFF6F49FCF73BFFFEF7DD
:10592000B5FF38620BE0002078626D48FFF780F821
:105930006949FCF7FDFE6749FCF72CFFB86197F851
:10594000B81303290CD8FEF7E5FFDFE801F00C07D8
:10595000020507F1900001E007F194006149016040
:10596000002087F8B80316207071DFF8B048204691
:10597000FDF763F901462046FDF7BAF8013809281A
:1059800000F27181DFE810F00A0023006F016F015F
:105990004B006B007F0013002C003C00FEF785FFDE
:1059A0007CD1FFF7A8F814BF0120052026E0DFF81E
:1059B000E40C90F82410002940F05581012180F872
:1059C0002410FEF772FF40F09180002097E0FEF770
:1059D0006CFF5ED1FFF78FF814BF022006200DE0A8
:1059E00097F8E60300F0FE00022840F03A8197F8AD
:1059F000C9030238B0FA80F040098000307130E10C
:105A000097F8E60300F0FE00022840F02A8197F89C
:105A1000C9030321022808BF0721317121E197F84A
:105A2000E603A0F1230106293ED9811E0229C0F018
:105A300018811B2800F0C1802F2800F0C98037286A
:105A400000F0BD80392840F0A88097F8C6030028F0
:105A500000F03882012840F00481032033E2FEF791
:105A600024FF40F000812049FF22C7F8BA131D49E6
:105A7000C7F89C10DFF81C1CFFF73BF908BF032197
:105A8000FFF72BF8EFE0DFF80C0C002180F8241072
:105A9000E9E0411F162935D80320E1E0411F16290E
:105AA00000F258800220DBE0DFE801F0797704772C
:105AB000047704002320FEF75DFFD2E06414002089
:105AC000080100206C0000200000C8420000C8C28D
:105AD0000000FA43000010410000A04000006944AB
:105AE0000000544300007F43E803E803411F3729C7
:105AF00001D3812804D197F8E80308B90420707114
:105B00000120AFE01D381A2800F2AB80DFE810F06A
:105B10004300A900A700A900A500A9001B00A90037
:105B20001E02A9003802A9002502A90093009800CE
:105B30009D00A9001902A9009100A9008F00A900E9
:105B4000A900A9008D0097F8DF030138010608BFFE
:105B5000042049E21D381A2800F28380DFE810F0A3
:105B60001B0081007F0081007D0081003D028100DB
:105B70001702810028028100470281006B0070003B
:105B800075008100040281006900810067008100C6
:105B9000810081006500092062E0012060E097F843
:105BA000DF03013803285CD8DFE810F00400C801E7
:105BB0009901C201FEF7DEFF53E0042050E097F8A0
:105BC000DD03012800F07A8100284AD117207AE10C
:105BD00097F8DC0301280AD10220B9693A6A87F8EC
:105BE000DC03C248C7E90B10C7E90D2039E00120EA
:105BF000D7E90A4187F8DC03BC48FEF7E3FF01461A
:105C0000FEF713FFBA49FEF75AFFBA4900281CBF36
:105C10000024C4F2C8242046FCF7FAFD00281CBF6B
:105C20000024CCF2C824BC621BE0172018E014202A
:105C300016E0132014E0012087F8D6032C2042E15F
:105C4000002087F8D6032B203DE197F8DC0340B90C
:105C50002F2087F8E60301208FE10F2000E00A20C3
:105C60007071002030723079072800F2C480DFE8BC
:105C700000F0047632491B8BA0604FF47A709E4985
:105C8000FEF742FE9D49FEF754FF00281CBF00248A
:105C9000C4F22034FEF785FE00F2A880FEF73AFE3B
:105CA000DFE801F0A7A29DA04FF47A709249FEF7B9
:105CB00025FE9249FEF7B6FD18B9904C0020C7F8B2
:105CC000C000FEF774FE00F29180FEF723FEDFE8CD
:105CD00001F0908B86894FF47A708949FEF714FEA3
:105CE0008549FEF7D6FE00281CBF0024C4F2A0049C
:105CF000FEF757FE00F27A80FEF70CFEDFE801F0B7
:105D000079746F724FF47A707E49FEF7FDFD7A491F
:105D1000FEF7BFFE00281CBF0024C4F2A004FEF75B
:105D200040FE00F26380FEF7F5FDDFE801F0625D02
:105D3000585B4FF47A707349FEF7E0FD6E49FEF749
:105D4000BEFE18B96C4C0020C7F8C000FEF72FFE4D
:105D50004CD8FEF7DFFDDFE801F04C474245FEF787
:105D60007FFDFEF7D1FD6549FEF7E3FE00281CBF6D
:105D70000024C4F22034FEF714FE37D8FEF7CAFD23
:105D8000DFE801F037322D30FEF76AFDFEF7B6FD91
:105D90005A49FEF747FD18B9584C0020C7F8C00013
:105DA000FEF705FE22D8FEF7B5FDDFE801F0221D63
:105DB000181B4FF47A705249FEF7A0FD4E49FEF7CA
:105DC0007EFE18B94C4C0020C7F8C000FEF7EFFD6E
:105DD0000CD8FEF79FFDDFE801F00C07020507F184
:105DE000900001E007F1940040490160002087F82D
:105DF000B80308203071708901387081000409D11E
:105E00004FF47A707081DFF88C08416DC7F8B010DC
:105E100000214165DFF87C58287898BB102001F0FC
:105E20001BFEE886E88EFCF7EDFB374A374BFCF7A4
:105E300062FA374B0022FCF75EFA364A364BFCF723
:105E4000B3F9364A364BFCF7C8FA364B0022FCF75A
:105E5000ABF9FCF7A5FD34490446B864FCF768FCCF
:105E60002549FCF797FCFEF711FD3049F864FEF771
:105E7000D6FD38B920460021FCF7CAFC10B9012034
:105E80003C602870A86DE64C0130A865206880470A
:105E900094F82500012809D194F8240018B101389C
:105EA00084F8240002E0022084F8250094F83400ED
:105EB00010B1013884F83400BDE8F081152070710C
:105EC000392000E0022087F8E603CAE6032087F8BD
:105ED000E003FFF7A3B8FEF745FEFFF79FB8FEF714
:105EE00041FEBEE60B20FFF73AB900BF00007F433A
:105EF0000000C8420000C8C20000A04000002043CB
:105F0000000080BF0000A0C052B81E85EB510A40BF
:105F10000000303F295C8FC2F528F4BF33E197FAC7
:105F20007953713F000018400000104100004842C2
:105F30000B20C0E5FEF70EFEFFF770B8FEF70AFE75
:105F40008FE6FEF703FE13D10C2089E697F8E103F4
:105F5000FEF72BFE38BF03201FE097F8E50301385A
:105F6000010608BF032048E0FEF7F0FD00F0358190
:105F700001287FF476AEFEF784FC87F8DC0370E638
:105F800097F8E3030138010608BF032016E097F8ED
:105F9000E103FEF7D1FD88BF022087F8E103C0B21C
:105FA000032800F0018102287FF45BAE0220FCE0B0
:105FB00097F8E303FEF7C0FD88BF012087F8E303ED
:105FC000C0B2032800F00181022800F0F48001280B
:105FD00004BF012087F8E20343E697F8DF030130AE
:105FE000C1B2042988BF012087F8DF0339E697F89A
:105FF000E503FEF7A1FD88BF012087F8E503C0B2E5
:10600000032800F0E680022800F0D78001287FF402
:1060100028AE01200021D2E097F8D603002800F036
:10602000DE80012840F0DE802C21D9E097F8D803EB
:10603000012840F08880012083E0312087F8E603C2
:1060400097F8D303FFF7BFBA97F8D503012898BF95
:1060500087F8D3031120FEF770BFFEF712FC87F814
:10606000DC0397F8C90301287FF47DAC9548012132
:1060700001854FF47F407EE0FEF768FD00F0B680BA
:1060800001287FF470AC0220B1E0212087F8E603FC
:1060900097F8D003FFF74EBA1F2087F8E60397F86A
:1060A000CD03FFF7ECB997F8EB03012800F0A380CC
:1060B00000287FF458AC3B20FEF73FBF3520FEF7A9
:1060C0003CBF042087F8DF032320FEF736BF97F894
:1060D000CC03012800F0928000287EF42DAFFEF75B
:1060E0000AFD40F0938000208CE097F8DB03012844
:1060F00098BF87F8D9031320FEF71FBF332087F816
:10610000E60397F8D903FFF758BA002087F8DD03B4
:106110003720FEF712BF97F8D203012898BF87F8FF
:10612000D0030920FEF709BF97F8CF03012898BFD5
:1061300087F8CD030720FEF700BF97F8D80310B902
:10614000002087F8D6030D20FEF7F7BE1520FEF7D6
:10615000F4BE97F8DC0300287FF405AC0F2087F825
:10616000E603584890F8281001297FF4FCAB002181
:1061700001854FF60170A7F8C903FFF7F4BB0220B1
:1061800000E0032087F8E203FEF748BF0220012168
:1061900087F8E4034B4880F82510FEF73FBF032043
:1061A00087F8E403FEF73ABF032087F8E00358E5D9
:1061B0000B20FEF757BE022008E00220012187F8DD
:1061C000E403404880F825104BE5032087F8E203FC
:1061D00047E5032087F8E40343E50B2040E52B2146
:1061E00087F8E61387F8D803FFF7BDBB012087F8CF
:1061F000DC03FFF7B8BB8120FEF79FBEFEF77BFCF8
:1062000006D1012087F8CB03FEF796BE002000E000
:10621000012087F8C903FEF78FBE00BFCC00002025
:10622000780100201848C16941F08051C1611749C7
:106230000A7842F004020A70C16921F08051C161FC
:10624000016841F00101016001688907FCD54168DE
:1062500021F003014160416811F00C0FFBD101688E
:106260000B4A114001600021416041F61071C1628A
:106270004FF4801101634FF41F01816005484FF016
:1062800000610160704700BF001002405070004084
:10629000FFFFF2FE08ED00E0B0B5094C6068800732
:1062A0000CD52068800709D5FA4D4FF07E51686DF6
:1062B000FCF7E6F968656FF002006060B0BD00BFF2
:1062C0000C4C0140080100202DE9F04F87B0D04F61
:1062D0003869C00700F02081DFF8A48F98F8E9033F
:1062E000012840F00D81DFF8949F99F812000128F1
:1062F00009D1DFF8C85BC74C686C2146FCF7B2FADD
:1063000038B96C6405E0DFF8B40BC349C34AC0E98F
:106310001012D8F81850C2492846FCF7B1F9834644
:1063200098F8C903012818BFAB46D9F85C00594654
:10633000FCF7A6FA00287BD1D74C4FF07C51A06D1A
:10634000FCF7F6F9A0650024D5498DF81840ADF8A2
:1063500004408DF80340D8F898603046FCF758FAAE
:1063600007465846FCF7C3FA002F05464FEA900748
:1063700012D14A2F8DF803402FD864200021ADF8A8
:106380000400C948FEF7B2FB132946D8FEF7DCFA31
:1063900043D2FEF73EFAF5E7C1493046FCF762FA10
:1063A0000024E8BB304600214FF0000AFCF730FA29
:1063B000B0BB4A2F8DF803A01FD864200021ADF890
:1063C0000400B848FEF792FB132900F21E81FEF785
:1063D000BBFA22D2FEF71DFAF4E74FF496701421AF
:1063E000ADF80400B048FEF781FB272915D8FEF769
:1063F000ABFA12D2FEF70DFAF5E74FF496701421BE
:10640000ADF80400A748FEF771FB272905D8FEF771
:106410009BFA02D2FEF7FDF9F5E79DF81810445CEF
:1064200060B2C9F85CB0FCF754FA994FC8F8D000D4
:10643000002401AD0A2C06D00A2001F00DFB25F83E
:1064400014000134F6E700200121092904D035F8B1
:10645000112001311044F8E7C0F34D10FCF742FA67
:10646000D8F82810C8F80000FCF75CF9054698F841
:10647000C903022803D18848FEF7BDFA29E098F83D
:10648000C20318B198F8D913012915D18749FEF72D
:106490007FFB064628463146FCF7E4F928B98449D3
:1064A000FEF776FBFEF72BFBC8B328463146FCF718
:1064B000D9F930B1002514E0012808BF002908D11E
:1064C000D9E77B49FEF764FBFEF719FB08B17F4D66
:1064D00007E0D8F84040204600210025FCF7C2F92B
:1064E00010B92C46C8F8405098F8C40318B16A484F
:1064F000FEF781FA04E020460021FCF7B3F910B959
:106500000024C8F840402046FCF70AFA3864FEF739
:10651000DFFA6FF00100386107B0BDE8F08F654920
:10652000FEF736FB01462846FCF79CF930B9624974
:10653000FEF72EFBFEF7E3FA002873D00020BA46E0
:10654000A9F8460089F8120058462946FCF7EAF8EF
:10655000514F3865386DB96DFCF792F8B8655A4CF3
:10656000B86D2146FCF762F900B9BC65B86D002131
:106570000024FCF777F900B9BC65D7E90F46386D00
:10658000F96CFCF7CFF8786530463D6DB96DFCF7D6
:10659000CFF8396E0190069101980699FCF738F909
:1065A00008B9069801900198069981F00041FCF71E
:1065B0004BF918B9069880F0004001902046294612
:1065C000FCF7B6F80199FCF75BF80446786C796D36
:1065D000FCF7AEF82146FCF753F8F865386DF8641F
:1065E000F86D796EFCF714F908B9786EF865F86DF6
:1065F000796E81F00041FCF727F908B90020F865B1
:10660000FC6D5746C8F8404065E7002408E700BF26
:10661000000C004000007A440000404000709446A6
:1066200000004842B9F84600BA460130A9F84600D1
:1066300080B23C28FFF488AF174C2049606CFCF70F
:106640001FF8164F06463946FCF70CF908B1666488
:1066500017E0206C6764FCF790F9194A194BFBF7B7
:10666000A3FD00224FF0804306460F46FCF716F9C3
:1066700000280FBF4FF0804030463946FCF790F9B4
:106680002064012089F812000020A9F846005BE789
:10669000000C0040080100207801002000007A442E
:1066A0000000A04171C6010848C601080000484327
:1066B000000048C30000A0400000A0C00000FAC4D1
:1066C0009A9999999999B9BF00C82F47007F3B477C
:1066D0002DE9F04F89B002FB03F44FEA440BDFF8D9
:1066E000A04B94F8D653129C012DA4F1020400F0A3
:1066F0008D80002D40F0138100257F2C029500F243
:106700001081DFE814F08000DE01D00118020E01D4
:1067100028020E012C020E013A020E0154020E0153
:106720001E020E012E020E0132020E014C020E015B
:1067300030020E011A020E0112020E0156020E0163
:106740004A020E0116020E0134020E013C020E0135
:1067500014020E0146020E01D401D2013E020E01C6
:106760005E020E0150020E0158020E0140020E019F
:1067700042020E0122020E0148020E01FA01C80176
:10678000EE010C020E014E020E0152020E012A020F
:106790000E01C601CC01D601F401B001C2015A02BA
:1067A0000E010E0144020E020E0120020E01C40170
:1067B000B801FE01FC01BE01F60136020E01100215
:1067C0000E0160020E0108020E0104020202F8012D
:1067D000EA01E001CA01EC01BA0124020E010E0136
:1067E0006202F0010A020E01E401AC011C020E017A
:1067F000E201B4010602A801DA01B6010E010E01A0
:10680000AE01E60138024FF4962489E000257F2C82
:10681000029500F28680DFE814F080005401460102
:10682000170284001D028400FC018400020284001F
:10683000040284002302840021028400F001840009
:10684000FE018400F4018400EC018400080284004D
:106850000A0284002702840025028400E8018400E3
:10686000F60184002B028400EA0184004A014801F9
:1068700000028400EE0184003302840031028400AF
:10688000F2018400F801840019028400FA018400F6
:1068900070013E01640135028400E40184001F029E
:1068A0008400E20184003C0142014C016A0126019E
:1068B00038010602840084001B023702840015029E
:1068C00084003A012E017401720134016C01290225
:1068D0008400E00184002F0284002D0284007A01EC
:1068E00078016E01600156014001620130013902F8
:1068F000840084003B0266013F0284005A012201A9
:10690000E601840058012A017C011E0150012C017E
:106910008400DC0124015C01DE01C64C00E000249F
:10692000029402440B44FEF7F2F8C34EC34CC44D2C
:10693000DFF8288506F11C00019006F13000009078
:10694000BBF1000F00F08480DFF80C754FF01009E8
:106950000320C4F80490B847029CC4F30740B8472A
:10696000C4F30720B847E0B2B847019CA5208DF8D2
:106970002300204600F0DAFB009F384600F0D6FBEB
:10698000ADF81490D9460DF12300BBF5806F4FF0A0
:10699000000A28BF4FF48069049005F10800ADF8A3
:1069A0001690CDF818A003904FF44070ADF81C007D
:1069B000384603AF394600F07AFB03203946ADF87C
:1069C00014A0ADF81690CDF810808DF81D000120B0
:1069D000ADF81900204600F06AFB286840F002007C
:1069E0002860286840F001002860F06940F001004C
:1069F000F061306B40F00100306330688006FCD5F8
:106A000020208E4C4FF0000A7060F06920F00100E9
:106A1000F061306B20F001003063286820F0020044
:106A20002860286820F00100286010202060CA45F6
:106A300008D238F80A0000BA000CFCF781FB0AF112
:106A4000020AF4E70298ABEB090B4844029077E79F
:106A500009B0BDE8F08F944C04F5487460E7964C9B
:106A60005EE78E4C5CE7AB4C04F59C6458E78F4CBA
:106A700056E78C4C54E7A14C04E0934C04F5E174C8
:106A80004EE79D4C04F519644AE7A14C48E79B4C3E
:106A900046E7A14C44E7A64C1CE08C4C40E79E4CDA
:106AA00004F5BD643CE7C04C3AE7AA4C38E7AA4C71
:106AB00036E7994C04F53D6432E77B4C04F5C86435
:106AC0002EE7BA4C2CE7824C2AE7794C28E77B4C1E
:106AD00026E7724C04F5E14422E77E4C20E77A4C2D
:106AE0001EE7924C1CE7774C04F5525418E7894C8A
:106AF00016E7804C14E7784C12E78D4C10E77E4C7B
:106B00000EE77E4C04F599540AE7744C08E7744C80
:106B100006E7654C04E7A94C02E7A74C00E7B14C37
:106B2000FEE6AB4CFCE6A74CFAE6BE4CF8E6B74CEA
:106B3000F6E6B94CF4E6C64CF2E6BB4CF0E69D4CEA
:106B4000EEE6BE4CECE6A14CEAE6A84CE8E65E4C6C
:106B500004F56174E4E6BD4CE2E69F4CE0E6BA4C15
:106B6000DEE6B54CDCE6B14CDAE6B24CD8E6A94C30
:106B7000D6E6954CD4E6B74CD2E6B24CD0E6A44C5F
:106B8000CEE6A04CCCE69B4CCAE6994CC8E6914CAC
:106B9000C6E69D4CC4E6944CC2E6A04CC0E6A44CAC
:106BA000BEE68F4CBCE6954CBAE68C4CB8E6A44CDD
:106BB000B6E69B4CB4E6904CB2E6554C04F55274E4
:106BC000AEE68F4CACE67E4CAAE63E4C04F50C5487
:106BD000A6E6334CA4E6764CA2E6444CA0E64F4C25
:106BE0009EE6504C9CE6334C9AE65F4C98E65B4C34
:106BF00096E6624C94E6554C92E6634C90E6504C17
:106C00008EE65F4C8CE6574C8AE64C4C88E6494C45
:106C100086E6624C84E65B4C82E64D4C80E65E4C38
:106C20007EE65C4C7CE6394C7AE6534C78E6514C77
:106C300076E600BF0481B700000002401008014062
:106C4000043001402E4C6BE6564C69E63A4C67E640
:106C50002D4C65E6524C63E6314C61E64B4C5FE6E9
:106C60004B4C5DE6414C5BE6414C59E6204C57E607
:106C70003B4C55E61B4C53E61B4C51E6314C4FE662
:106C8000314C4DE6284C4BE61E4C49E60D4C47E690
:106C90000C4C04F58C5443E6094C41E66818BC00E2
:106CA00084C0BB00104DB700ECEEB60064DDB6004A
:106CB000DCCBB600E897B600D25FB600A456B600AB
:106CC000F406B600E47AB500E065B5000043B5000F
:106CD0002020B50040FDB40060DAB40080B7B400F5
:106CE000A094B4009A7CB4008E4CB400A019B400F7
:106CF000D0E3B3003CC0B30000AEB3005091B3008A
:106D00005669B3006219B30088B3B2009894B20018
:106D10006072B200386AB2008859B2006E9CB1004D
:106D20003A22B00006A8AE000893AD00B237AD001D
:106D3000C0C3AC0050E7AA00CC6BA700A42DA400F0
:106D40007CEFA00054B19D002C739A00043597008D
:106D5000DCF693008802910048AD8F003EDB8D0089
:106D60002A378A001693860002EF8200E47D7F00B6
:106D7000BC3F7C00940179000023730000A46A00EA
:106D80000025620000A659000027510000A8480015
:106D90000029400000AA3700002B2F0000AC26007D
:106DA000002D1E0000AE1500002F0D0080EF080022
:106DB0005815C300F463B60044B7B5009464B4003A
:106DC0008834B400B8FEB300E8C8B3005C41B30037
:106DD00068F1B20078D2B20054DFB0002065AF0095
:106DE000ECEAAD00243BAD00E00AA900B8CCA50058
:106DF000908EA20068509F0040129C0018D498000A
:106E0000F0959500C857920034098C0020658800E1
:106E10000CC18400F81C8100D0DE7D00A8A07A009F
:106E20008062770080E36E008064660080E55D002C
:106E30008066550080E74C008068440080E93B0094
:106E4000806A330080EB2A00806C220080ED1900FC
:106E5000806E1100E838C100A19B0008E00100200D
:106E6000BCB5154C2068E06880060CD5206880060B
:106E700009D56168114D05F11800C9B202F054FE40
:106E80004FF48270A884E068400610D52068400660
:106E90000DD50A4D6FF040000DF10701206005F19E
:106EA000280002F02EFE18B1002085F83500BCBD88
:106EB0009DF807006060BCBD0038014078010020EB
:106EC000FEE700000648BFF34F8F064A016801F451
:106ED000E06111430160BFF34F8F00BFFDE700BFCA
:106EE0000CED00E00400FA0500EB400107221E391A
:106EF00002FA01F1044A136819431160916A21F002
:106F00001F010843906270470C2401400148102182
:106F100001607047141C0140014810210160704756
:106F2000101C014008B3F0B5164A8B0801301D460D
:106F300002F501742DB150F8046B013D36BA40C41E
:106F4000F8E711F003010ED0002418250026A14215
:106F500005D0075D0134AF40083D3E43F7E702EB43
:106F60008300C0F80462BDE8F0407047054901F5B0
:106F70000172054918B108CA01380B60FAE70868C0
:106F8000704700BF600E00200030024032490A689E
:106F9000C2F38103314AF0B5DFE803F002380A3862
:106FA0000B6D9B0532D5CB6A9B0148BF2D4A2DE066
:106FB0000B688C6A1B0C002C13D40C680D68C5F38D
:106FC0004175C4F383440DB90F2C43D12D01013514
:106FD0002C44DB0702D00B689B0300D5204A624398
:106FE00014E08C6A8D6A8E6ADB071D4BC4F30314B0
:106FF000C5F3082506F0070603D00F68BF0358BF86
:10700000134604FA06F26B43B3FBF2F2026016A4D5
:107010000B68C3F30313E35C174CDA4042600B6860
:10702000C3F30223E35C22FA03F3C3600B68C3F3E8
:10703000C223E35C0424DA4082600B68096804EA36
:107040009363C1F3813119440CA3595CB2FBF1F194
:107050000161F0BD0225BBE70410024000127A0076
:1070600000093D00006CDC02000000000000000090
:10707000010203040607080940C6010802040608C5
:10708000020C08107CB5044600204FF6FF75C6B20E
:10709000152E09D8301900F0CBFCADF80600B01C55
:1070A000BDF80610A942F2D1BDF806007CBD026809
:1070B0004BF6EF731A4002600A8903681A430260B4
:1070C0004A7C036802F0030223F4405343EA02328D
:1070D0000260CA7B036802F0030223F4406343EAC0
:1070E000822202608A7B036802F0030223F4407369
:1070F00043EA022202604A7B036802F0010223F0A5
:10710000800343EAC21202600A7B036862F38613BB
:1071100003600A7C036862F3451303604A89426096
:107120000A6882604968C16070470000016821F008
:10713000010101600021016041608160C16040F295
:10714000FF4100EA01020B49B2F5816F04D3D20876
:10715000902A0ED801F5806100F0FC001422083856
:10716000B0FBF2F00F22800002FA00F00A68104330
:10717000086070470400024070B5404C207C38B174
:107180004148772101603E4890F8C40330B170BD9A
:107190003B4D95F8C40320B1012000E0002020748D
:1071A00070BD95F8C903022804D101206074D5F898
:1071B000BC0045E095F8C00301280ED0B0BB28689C
:1071C0003649FBF733FB617C002848D00029DED12B
:1071D0000120002160742C4846E095F8C20348B3B2
:1071E000012823D195F8D90310BB607C25490128DB
:1071F00004BF002060742C68FDF764FC224EA8B325
:107200002349FDF75FFCB0BB1E49FDF720FC90BB96
:107210002046FBF7B2FB1F4A1F4BFBF76CF8FBF74E
:10722000BFFBC5F8B400FBF77BFB25E095F8D9035D
:107230000128ACD1607C08B901206074D5F89800B1
:10724000FBF79BFB164A174BFBF755F8164B002232
:10725000FAF7AAFFFBF778FB0B49086070BD00291D
:107260007FF495AF08483221016070BD0748C5F82A
:10727000B400562000E00020306070BD08010020FE
:107280006414002000007A43380000400000C84227
:1072900000008C429A9999999999D93F000020420F
:1072A000EC51B81E85EBE13F00003E40064907481F
:1072B0000A7822B94CF6CC42026001220A704AF6E2
:1072C000AA210160704700BFE00D0020003000409F
:1072D00010B5214C226842F00102226001804FF477
:1072E000801000F017F8FDF7DEBC00BF0848016809
:1072F000C9071CBF002070470168490744BF01202F
:1073000070470068C0064FF0020058BF0320704766
:107310000C200240B0B50446FFF7E8FF0025013C11
:1073200045F1000118B911B1FFF7E0FFF7E7B0BD73
:1073300010B5094C216841F00201216060602068AD
:1073400040F0400020604FF08040FFF7E3FF2068EE
:1073500020F00200206010BD102002402DE9F0470F
:10736000DFF8348998F80100032800F2DD80DFE8B7
:1073700000F002E30BBCDFF8445895F8E90300285D
:1073800000F000820120F9E1684E98F80C10DFF857
:107390002C58674ADFF8389606F1100011F0010703
:1073A000924608BF02F10E0095F8C613C84706F1D1
:1073B0001200002F08BF0AF1100095F8CD13C8473E
:1073C00006F11400002F08BF0AF1120095F8D0133F
:1073D000C84706F11600002F08BF0AF1140095F8FF
:1073E000D613C84706F11804002F08BF0AF1160487
:1073F000A86AFBF77CFA01462046C84706F11A0046
:10740000002F08BF0AF1180095F8D313C84706F1FA
:107410001C00002F08BF0AF11A0095F8D913C847BD
:1074200006F11E00002F08BF0AF11C0095F8C913D1
:10743000C84706F12000002F08BF0AF11E0095F88A
:10744000E013C84706F12200002F08BF0AF1200010
:1074500095F8E213C84706F12400002F08BF0AF18F
:10746000220095F8E413C84706F12604002F08BF50
:107470000AF12404D5F8BC00FBF739FA014620468E
:10748000C84795F8C60388F8020095F8CD0388F838
:10749000030095F8D00388F8040095F8D60388F81F
:1074A000050095F8D30388F8060095F8D90388F805
:1074B000070095F8C90388F8080095F8E00388F8F4
:1074C0000900A86AFBF713FAA8F8400095F8E20350
:1074D00088F80A0095F8E40388F80B00D5F8BC009A
:1074E000FBF705FAA8F8420045E1104898F80C208F
:1074F0000F492830D20708BF01F12600B8F8441020
:10750000FFF7E6FE0B48C16841F08001C160012031
:1075100088F80100B8F844000130A8F8440098F851
:107520000C00013088F80C00BDE8F08700F001087D
:1075300002F8010804200240B8F83800FBF7D2F93D
:10754000DFF878960146D9F81800FBF799F900287A
:1075500000F08C80B8F83A00FBF7C4F90146D9F87E
:107560009800FBF78DF9002800F08080B8F83C0007
:10757000FBF7B8F90446D9F86800FDF753FA00287C
:1075800074D0B8F83E00FBF7ADF90546D9F8800095
:10759000FDF76BFA002869D0D9F86C00FDF742FAC4
:1075A000002863D0D9F88400FDF75FFA00285DD089
:1075B000D9F87000FDF736FA002857D0D9F88800BE
:1075C000FDF753FA002851D099F8C60398F8021035
:1075D00081424BD199F8CD0398F80310814245D1EF
:1075E00099F8D00398F8041081423FD199F8D60356
:1075F00098F80510814239D1B8F84000FBF772F9CC
:107600000146D9F82800FBF73BF978B399F8D30382
:1076100098F80610814229D199F8D90398F80710F3
:10762000814223D199F8C90398F8081081421DD1ED
:1076300099F8E00398F80910814217D199F8E2030C
:1076400098F80A10814211D199F8E40398F80B10C8
:1076500081420BD1B8F84200FBF744F90146D9F852
:10766000BC00FBF70DF900287FF45EAFD748D9497D
:107670000160D9490160D44998F80C000C468A464B
:1076800010F0010708BF04F500642046FFF750FE24
:10769000D9F81800FBF72BF9CD4EFDF7F7F90AF1F1
:1076A0000204002F04BF4FF60204C0F60104D9F80B
:1076B0009800FBF71CF9FDF7E9F90AF10404C14D44
:1076C000002F08BFAC1CD9F86800FBF710F9FDF7D4
:1076D000DDF90AF10604002F08BF2C1DD9F880003F
:1076E000FBF705F9FDF7D2F90AF10804002F08BFEE
:1076F000AC1DD9F86C00FBF7FAF8FDF7C7F90AF1F1
:107700000A04002F08BF05F10804D9F88400FBF72C
:10771000EEF8FDF7BBF90AF10C04002F08BF05F1E4
:107720000A04D9F87000FBF7E2F8FDF7AFF90AF1A7
:107730000E04002F08BF05F10C04D9F88800FBF7F0
:10774000D6F8FDF7A3F9D9F81800D9F87040D9F8A0
:107750008850D9F89860FBF7CAF8A8F83800FDF708
:1077600011FAA8F83A00FDF775F9A8F83C00FDF702
:10777000ACF9A8F83E0098F80100013088F8010043
:10778000BDE8F087E34C2046FFF77CFC4FF6FF7620
:10779000B04210D02046FFF775FCB0420BD004F188
:1077A000280000F045F904468648263000F040F9EC
:1077B000844205D80DE02046FFF764FCB04202D0B9
:1077C00000F05AF935E004F50060FFF75BFCB042C9
:1077D00002D000F0A1F92CE08048834A844B804914
:1077E0000024012685F8D64385F8D06385F8CD437B
:1077F00085F8C64385F8D94385F8D363AC6285F82C
:10780000E46385F8E26385F8C943C5F8BC007548B0
:10781000C5F88020C5F88430744A764BC5F89810B6
:10782000C5F88810A86128670220C5E91A2385F8E1
:10783000E003AC697049FDF7F2F818B96749FDF744
:1078400006F908B96748A861D5F898406B49FDF773
:10785000E6F818B96A49FDF7FAF810B96048C5F8B2
:107860009800D5F8BC406549FDF7D9F818B96449C6
:10787000FDF7EDF810B95948C5F8BC00AC6E5E498B
:10788000FDF7CDF818B95549FDF7E1F808B95748A3
:10789000A866EC6E5849FDF7C2F818B94F49FDF7D4
:1078A000D6F808B95348E8662C6F5349FDF7B7F886
:1078B00018B94A49FDF7CBF808B94A482867D5F8FE
:1078C00080404E49FDF7ABF818B94D49FDF7BFF8B8
:1078D00010B94548C5F88000D5F884404749FDF700
:1078E0009EF818B94649FDF7B2F810B94048C5F8F6
:1078F0008400D5F888404149FDF791F818B940490E
:10790000FDF7A5F810B93648C5F8880095F8C60304
:107910003249022824BF002085F8C60395F8CD031C
:10792000022824BF002085F8CD0395F8D003022853
:1079300024BF012085F8D00395F8D603022824BF80
:10794000002085F8D603AC6AFDF769F818B92D490F
:10795000FDF77DF808B90020A86295F8D303022846
:1079600024BF002085F8D30395F8D90310B1002077
:1079700085F8D90395F8C903022824BF002085F8AB
:10798000C90395F8E003043810F1030F9CBF0220EF
:1079900085F8E00395F8E203043810F1040F9CBF6A
:1079A000012085F8E20395F8E403043810F1040F90
:1079B0009CBF012085F8E403012085F8E903BDE8B8
:1079C000F08700BF02F8010800F00108042002401F
:1079D000D172000823016745AB89EFCD0000C84292
:1079E0000000A0420000BE43000048420000A04347
:1079F000000070420000AF430000FA430000204343
:107A00000000A0400000C8C210B5074C074920681C
:107A100040F001002060A44801604FF48010FFF79F
:107A200079FCFDF740B900BF10200240384B5441AB
:107A300081B00168D0F801008DF800108DF80100C8
:107A40009DF801009DF8001041EA0020ADF8020009
:107A5000BDF8020001B0704780B5FFF745FA054850
:107A6000816841F48001816001688907FCD5C06CA0
:107A700080B280BD0024014070B5264C4E4D20469A
:107A8000A847FAF72FFF4D4EB061A01CA847FAF7A0
:107A900029FFC6F89800201DA847FAF723FFB06613
:107AA000A01DA847FAF71EFFFDF7F8F8FAF71AFF2E
:107AB000F06604F10A00A847FAF714FFFDF7E9F8A9
:107AC000FAF710FF306704F10E00A847FAF70AFF33
:107AD000FDF7DAF8FDF7C6F8FDF7BFF8FDF7B8F8DF
