:020000040800F2
:10400000080F00208541000827680008B553000804
:1040100025680008D94A00080D7200080000000059
:10402000000000000000000000000000B36E000867
:10403000DB4A000800000000B16E0008B56E000801
:104040009F4100089F4100089F4100089F410008D0
:104050009F4100089F4100089F4100089F410008C0
:104060009F4100089F4100089F4100089F410008B0
:104070009F4100089F4100089F4100089F410008A0
:104080009F4100089F4100089F4100089F41000890
:104090009F4100089F4100089F4100089F41000880
:1040A0006D7000089F4100089F4100089F41000873
:1040B0009F4100089F4100089F4100089F41000860
:1040C0009F4100089F4100089F4100089F41000850
:1040D0009F410008A17100089F4100089F4100080E
:1040E0009F4100089F4100089F4100080000000018
:1040F00000000000000000000000000000000000C0
:10410000000000009F410008A170000800000000AE
:104110009F4100089F4100080000000000000000CF
:104120009F4100089F4100089F4100089F410008EF
:10413000000000000000000000000000000000007F
:104140000000000000000000000000009F41000887
:1041500000000000000000009F4100089F4100088F
:104160000000000000000000000000009F41000867
:10417000DFF80CD000F034FC00480047C19A00087A
:10418000080F00200648804706480047FEE7FEE784
:10419000FEE7FEE7FEE7FEE7FEE7FEE7FEE7FEE7F7
:1041A000F96F000871410008D2B201E000F8012B5C
:1041B000491EFBD270470022F6E710B513460A46A7
:1041C00004461946FFF7F0FF204610BDF0B480EA20
:1041D0000102D40F4200B2EB410F02D20246084660
:1041E00011464A0042D0C30DDDB2C1F3C752AD1A29
:1041F000202D35DAC1F3160141F4000204B1524218
:10420000C5F1200602FA06F12A411044B3EBD05F53
:1042100023D0C4B1012DA0EBC35009DCF0BC4FF09A
:10422000004202EAC352DBB200F5000000F04DBBD1
:10423000400000F1807000EBC350A0F1807040EAB4
:10424000D170490009E0490841EAC071A0EBC350B0
:1042500000F50000400800EBC350F0BC00F02CBBA0
:104260006142012202EB4101001BF6E7F0BC7047FE
:1042700081F00041AAE780F00040A7E780EA010250
:1042800010B502F00043400022D04A001FD0010EBA
:1042900001EB1261C0F35600C2F3560240F4000075
:1042A00042F40002A0FB022000047F39140400D075
:1042B000401C50EA124001D44000491EC2B20C0614
:1042C00004EBD010401C4008802A02D003E00020FC
:1042D00010BD20F00100002900DA0020184310BDB5
:1042E00030B480EA010202F0004530F0004221F0D3
:1042F000004013D090B1C30DD40DC2F31601C0F32A
:104300001600E41A41F4000140F400027D349142A9
:1043100001D3641C00E04900002C02DA30BC00200C
:1043200070474FF400000023914201D3891A0343E0
:1043300040084FEA4101F7D151B1914202D14FF00B
:10434000004105E002D24FF0010101E06FF00101F0
:1043500003EBC450284430BC00F0AEBA2DE9FE4F48
:10436000804681EA0300C00F0C46009021F0004116
:1043700023F00045B8EB0200A94105D24046214692
:1043800090461C460B46024623F00040104347D09F
:10439000270DC7F30A00C3F30A510290401A019097
:1043A00040286BDAC3F3130040F4801B0098924658
:1043B00020B10023D2EB030A63EB0B0B01985946A3
:1043C000C0F14002504600F046FA06460D465046FF
:1043D0005946019A00F05EFA10EB08006141002492
:1043E00087EA115284EAE7731A4340D0009A62B315
:1043F000019A012A4FEA075215DC001B61EB02010A
:104400004FF0004202EA0752CDE90042001C41F59C
:10441000801132462B4600F095FA03B0BDE8F08FCC
:1044200040462146F9E7001B61EB0201001C41F503
:10443000801300185B412018A2F5001747EB030119
:1044400040EAD570B6196D4111E06D084FEA3606A5
:1044500045EAC0754FEA0752001B61EB0201001CE0
:1044600041F5801149084FEA3000001951413246A8
:104470002B4603B0BDE8F04F00F055BA009801227A
:1044800040000023D0EB020263EBE073009821466A
:104490004FEAE074B8EB000061EB0401E9E783F058
:1044A00000435BE781F0004158E72DE9FE4F81EAC8
:1044B000030404F0004421F0004100944FF0000B8D
:1044C00023F0004350EA01045ED052EA03045BD0BB
:1044D000C3F30A54C1F30A552C44A4F2F3340194F3
:1044E000A0FB0254C1F3130141F48011C3F3130381
:1044F00043F4801301FB024400FB034E840A970A35
:1045000044EA815447EA8357A4FB076802958D0A61
:1045100005FB07854FEA932C04FB0C542705029DED
:104520004FEA065847EA1637B5EB08056EEB070C5D
:10453000870E920E47EA811742EA8312A7FB020117
:10454000B6EB0B0164EB00042B0D43EA0C335E1851
:1045500044EB1C50DA465146E7FB0201C5F3130455
:104560004FEA0B3343EA14534FEA0432019C43EA07
:104570000603A4F10C040294009CCDE900B400F001
:10458000E1F903B0BDE8F08F00200146F9E72DE91D
:10459000F04D81EA030404F0004B21F0004514467D
:1045A0004FF0000A23F0004150EA050220D054EAFF
:1045B00001021DD0C5F30A570246C5F31303C1F328
:1045C0001300C1F30A5640F4801543F48013A7EB9F
:1045D0000608101BD64608F2FD3873EB050002D31F
:1045E00008F1010801E092185B41B8F1000F03DA0D
:1045F00000200146BDE8F08D00204FF480110646F2
:1046000084460EE0171B73EB050705D3121B63EB03
:10461000050306434CEA010C49084FEA30009218A2
:104620005B4150EA0107EDD152EA030012D082EA61
:10463000040083EA0501084305D0101BAB4106D2F4
:104640000122002306E000224FF0004302E06FF059
:10465000010253101AEB06004CEB085110EB0A0054
:1046600041EB0B01BDE8F04D00F05DB9002801DB26
:10467000C0F10040002901DBC1F10041814201D8B5
:104680000120704700207047002801DBC0F1004086
:10469000002901DBC1F10041814201D201207047B4
:1046A00000207047002801DBC0F10040002901DB39
:1046B000C1F10041814201D30120704700207047C1
:1046C000002801DBC0F10040002901DBC1F10041FD
:1046D000814201D90120704700207047002801DB8A
:1046E000C0F10040002901DBC1F10041814201D14C
:1046F0000120704700207047C10F80EAE070084435
:10470000CA079623002100F0E0B896230022114644
:1047100000F0DBB80EB540F2334102910021CDE943
:1047200000110A460B4600F00DF903B000BD00F081
:10473000004220F00040C10DC0F3160040F400001C
:104740007F2901DA00207047962903DCC1F1960128
:10475000C84001E096398840002AF4D040427047B2
:1047600020F00040C10DC0F3160040F400007F2986
:1047700001DA00207047962903DCC1F19601C84098
:10478000704796398840704770B5C1F30A5201F0FE
:1047900000450024C1F3130140F2FF3341F48011BE
:1047A0009A4201DA002070BD40F233439A42A2F2ED
:1047B000334203DC524200F05DF800E090402C43AD
:1047C000F1D0404270BDC1F30A5210B5C1F31301DC
:1047D00040F2FF3341F480119A4201DA002010BD0B
:1047E00040F233439A42A2F2334203DC524200F0D9
:1047F00041F810BD904010BD00F0004230F0004084
:104800000AD0C10D01F56071C0F3160042EA0151F2
:10481000C20840071143704700200146704701F06D
:10482000004330B421F0004150EA010206D00A0DE5
:10483000A2F56072C1F31301002A02DC30BC002033
:104840007047440F44EAC104C100E01830BC00EBDB
:10485000C25000F031B8202A04DB203A00FA02F1FD
:10486000002070479140C2F1200320FA03F319435E
:1048700090407047202A04DB203A21FA02F0002100
:10488000704721FA02F3D040C2F120029140084360
:1048900019467047202A06DBCB17203A41FA02F06E
:1048A00043EAE07306E041FA02F3D040C2F120028D
:1048B00091400843194670470029A8BF7047401C23
:1048C000490008BF20F00100704710B4B0FA80FC26
:1048D00000FA0CF050EA010404BF10BC704749B163
:1048E000CCF1200421FA04F411FA0CF118BF0121D3
:1048F00021430843A3EB0C01CB1D4FEA00614FEAB3
:10490000102042BF002010BC704700EBC350104481
:104910000029A4BF10BC7047401C490008BF20F00C
:10492000010010BC704710B5141E73F1000408DAC2
:10493000401C41F1000192185B411A4301D120F063
:10494000010010BD2DE9F04D92469B4611B1B1FA20
:1049500081F202E0B0FA80F220329046FFF77BFF4E
:1049600004460F4640EA0A0041EA0B0153465A4604
:10497000084313D0114653EA010019D0C8F1400290
:104980005046FFF777FF05460E46504659464246C9
:10499000FFF761FF084305D0012004E020463946B7
:1049A000BDE8F08D0020054346EAE0762C4337430E
:1049B0000A986305E40AA0EB08000022FD0A44EA15
:1049C00047540A3002D500200146E9E701051019D5
:1049D0006941DDE9084500196941BDE8F04DA2E7EC
:1049E0001CB509480090094801900546009C06E066
:1049F000E06840F0010394E8070098471034AC42A7
:104A0000F6D3FFF7B9FB0000A4EB0108C4EB0108E3
:104A100070B58C1810F8015B15F0070301D110F880
:104A2000013B2A1106D110F8012B03E010F8016BAD
:104A300001F8016B5B1EF9D12B0705D40023521E30
:104A40000DD401F8013BFAE710F8013BCB1A921C98
:104A500003E013F8015B01F8015B521EF9D5A14296
:104A6000D8D3002070BD000010B50446007902289C
:104A700015D001280AD088B9E068804760790128FC
:104A800021D058B90120207102201FE0A068804782
:104A9000104801780139017008060DD010BDE0689A
:104AA00080470C480178013901700806F6D14FF4AF
:104AB0000070A080002009E061790220207129B1F6
:104AC000012902D0EAE7012020711920014908706C
:104AD00010BD00BFEC010020FEE770472DE9FE4F3E
:104AE0000646109892460E9A02930D9C2C4D9846BD
:104AF0000090581A622A28BF622280B2052A98BF05
:104B00000522C2F1640250436422B0FBF2F0524627
:104B100001EB000BABEB540087B2A1EB54001FFA82
:104B200080F930463B464946A84711980C9A3946C9
:104B300023460090701E85B2284602F0DDFA0F98D9
:104B40004346DFF85C80524600900BEB540084B281
:104B500030462146C047DDF840B028464946324637
:104B60003B46CDF800B0C0473246029E284621465B
:104B7000CDF800B03346C0470AF1010049463B4634
:104B8000CDF800B085B250462A46C047504621466F
:104B90002A463346CDF800B0C047BDE8FE8F00BFBF
:104BA000B95500082DE9F843089E07469846154672
:104BB0008946642E28BF6426012E98BF0126101A4C
:104BC00080B2FFF7A2FD0446C6F16400FFF79DFD29
:104BD000D649FFF785FB2146FFF750FBFFF7A7FDFE
:104BE0000999281A434684B238460091494622461C
:104BF00000F0E2FC0A9849462A46434600902046C7
:104C000000F0DAFCBDE8F883438E4FF6FF72934262
:104C10001CBF5A1C428670B5CB1C0021062B24D821
:104C2000DFE803F0042314230823200001F04AFEE8
:104C300004211AE0038C41869A4238BF012180F892
:104C400034104FF0010138BF09210EE0038C41867A
:104C50009A4238BF012180F834104FF0020138BF6A
:104C60000A2102E001F02EFE0321024612F8305F15
:104C700012F8093C12F8036CDCB202F8033C84F031
:104C800001033343B3FA83F35B094DB1002B5ED0CC
:104C9000002280F83020C285826280F82C2056E005
:104CA000458D6DB1013D45852D0401D0002508E0FD
:104CB00090F82C50012D03D1002101F003FE0521B5
:104CC0000125BCB1002B42D0024632F8283F32F811
:104CD000104CA34239D3448BA3422FD290F82C30EE
:104CE00085F00104013B18BF012323432DD1838BA1
:104CF00043852AE0038D048B013303859BB2A342D5
:104D00000AD12DB990F82C40012C01D1062101E0E7
:104D100000F12C0201241470428B934217D3C38DEF
:104D2000C28B01339CB2B4FBF2F505FB1242002AA0
:104D300018BF1A46C28508BF082108E0002180F884
:104D40003010C185116011710721002010800846C4
:104D500070BD80B504F02AFD0138B0FA80F040093A
:104D600080BD000070B5044681880068374DA847B3
:104D7000374EA1893070A068A84770702069A18A59
:104D8000A847A37D94F82420317884F8270084F87C
:104D9000260083B191421AD0737894F8255085F09B
:104DA0000102DBB21A43B2FA82F25209012911D18F
:104DB0002AB3012210E0914209D0727884F82410BD
:104DC000012A84F8252018BF4FF0FF3249B1022193
:104DD00000220FE0CAB1FF22002384F8253084F8B6
:104DE0002410D3B26FF00201012B08BF0321002B66
:104DF00008BF0221002808BF0A4650B270BD55B94D
:104E0000012B08D1FF220123E7E78DB9012B0FD138
:104E100001230122E1E700229D4208BF002BC8D0F8
:104E20005D4083F00106354308BF4FF0FF32D4E701
:104E30009D4208BF002BCED085EA030283F0010516
:104E40002A43B2FA82F25209C7E700BF534D000865
:104E5000AE010020F8B5314E0025012704464FF47D
:104E60003371FA22A0F85C50056080F8C05380F8D6
:104E7000BE534563C0E90A5580F8BC73066286617B
:104E8000E830FFF791F94FF0013026492A4AA4F89B
:104E9000CD734FF4807784F8D653A4F8D353A4F895
:104EA000D05384F8C85384F8C45384F8B453C4F876
:104EB000B450E666C4F8B05084F8E35384F8C253A3
:104EC00084F8BA53A4F8B653C4F8AC50A56425646A
:104ED000C4F8DD030220A4F8CA7384F8DC0340F2AE
:104EE0000120A4F8DA030E48C4E919100E4811494C
:104EF00060640E48C4E91F211421C4F8B8000C48AE
:104F0000C4F8840040F20110A4F8E10304F1940015
:104F1000FFF751F9A4F8E473F8BD00BF0000BE43E9
:104F20000000AF430000A04300007A440000C842E4
:104F30000000704200004842000020422DE9F04786
:104F4000DFF85C9499F80000032800F2C880DFE8DD
:104F500000F002C80BAADFF8545495F8E4030028C7
:104F600000F0E4810120D8E1EE49DFF84054EE4A38
:104F7000DFF83C6401F11000884699F80B10924666
:104F800011F0010708BF02F10E0095F8C213B047F7
:104F900008F11200002F08BF0AF1100095F8C8139D
:104FA000B04708F11400002F08BF0AF1120095F86D
:104FB000CB13B04708F11600002F08BF0AF1140008
:104FC00095F8D113B04708F11804002F08BF0AF173
:104FD0001604A86AFFF7ABFB01462046B04708F16C
:104FE0001A00002F08BF0AF1180095F8CE13B04739
:104FF00008F11C00002F08BF0AF11A0095F8D4131D
:10500000B04708F11E00002F08BF0AF11C0095F8F8
:10501000C513B04708F12000002F08BF0AF11E0099
:1050200095F8DB13B04708F12200002F08BF0AF102
:10503000200095F8DD13B04708F12400002F08BFC9
:105040000AF1220095F8DF13B04795F8C20389F8FA
:10505000010095F8C80389F8020095F8CB0389F898
:10506000030095F8D10389F8040095F8CE0389F878
:10507000050095F8D40389F8060095F8C50389F86A
:10508000070095F8DB0389F80800A86AFFF74FFBD3
:10509000A9F8140095F8DD0395F8DF1389F80900E5
:1050A00089F80A1036E1C04899F80B20BD4926302E
:1050B000D20708BF01F12400B9F8161003F0D4FE9E
:1050C00003F0DCFE012089F80000B9F81600013079
:1050D000A9F8160099F80B00013089F80B00BDE81B
:1050E000F087B9F80C00FFF710FBDFF8C08201462B
:1050F000D8F81800FFF7F2FA002800F08680B9F817
:105100000E00FFF702FB0146D8F89400FFF7E6FA1D
:1051100000287AD0B9F81000FFF7F7FA0446D8F85B
:1051200064002146FFF7DAFA00286ED0B9F81200C1
:10513000FFF7EBFA0546D8F87C002946FFF7CEFAD0
:10514000002862D0D8F868002146FFF7C7FA002887
:105150005BD0D8F880002946FFF7C0FA002854D069
:10516000D8F86C002146FFF7B9FA00284DD0D8F8DE
:1051700084002946FFF7B2FA002846D098F8C20307
:1051800099F80110814240D198F8C80399F80210AB
:1051900081423AD198F8CB0399F80310814234D177
:1051A00098F8D10399F8041081422ED1B9F814006F
:1051B000FFF7ABFA0146D8F82800FFF78FFA20B3C3
:1051C00098F8CE0399F8051081421ED198F8D403BF
:1051D00099F80610814218D198F8C50399F807107C
:1051E000814212D198F8DB0399F8081081420CD162
:1051F00098F8DD0399F80910814206D198F8DF0389
:1052000099F80A1081423FF46AAF03F077FE6649CD
:1052100099F80B000C4610F001068A4608BF04F509
:105220000064204603F058FED8F81800FFF77FFA14
:105230005F4F01F046FC0AF10204002E04BF4FF656
:105240000244C0F60104D8F89400FFF770FA01F0A8
:1052500038FC0AF10404534D002E08BFAC1CD8F8EA
:105260006400FFF764FA01F02CFC0AF10604002E3A
:1052700008BF2C1DD8F87C00FFF759FA01F021FC7B
:105280000AF10804002E08BFAC1DD8F86800FFF72B
:105290004EFA01F016FC0AF10A04002E08BF05F1CF
:1052A0000804D8F88000FFF742FA01F00AFC0AF17E
:1052B0000C04002E08BF05F10A04D8F86C00FFF7B3
:1052C00036FA01F0FEFB0AF10E04002E08BF05F1CC
:1052D0000C04D8F88400FFF72AFA01F0F2FBD8F8A2
:1052E0001800D8F86C40D8F88450D8F89460FFF7CC
:1052F0001EFAA9F80C003046FFF719FAA9F80E00BB
:105300002046FFF714FAA9F810002846FFF70FFA15
:10531000A9F8120099F80000013089F80000BDE8F2
:10532000F08700BF00F4010802FC01081E4C1521A3
:10533000204602F0EFFD4FF6FF76B04214D0204633
:10534000152102F0E7FDB0420ED004F1260003F073
:10535000E1FDA9F818001348243003F0DBFDB9F88B
:105360001810814206D80FE02046152102F0D2FD28
:10537000B04202D003F0FCFD0BE004F50060152103
:1053800002F0C8FDB04202D003F042FE01E004F09A
:1053900073F902F01DFB012085F8E403BDE8F087F6
:1053A0009001002002FC010800F40108D80600204A
:1053B000698E0008FEE700002DE9F84FDFF8B0B372
:1053C00007462A20984692468946D847F64C4FF41D
:1053D0000045380AF5494FF480666560C4F8FC035F
:1053E000F8B20E60C4F80068256065600F46C4F826
:1053F000FC034FEA1A200E6001F0C3FC5FFA8AF04A
:105400000E6001F0BEFC2B200E60C4F80068256021
:10541000D8474FEA192065605946C4F8FC035FFA83
:1054200089F03E6001F0ADFC4FEA18203E6001F0CB
:10543000A8FC5FFA88F03E6001F0A3FC3E60C4F86F
:10544000006825602C20BDE8F84F0847F8B5CA4D24
:105450000446002668882988013901388AB283B257
:1054600000200021FFF7A8FF2888864228BFF8BD4A
:1054700000276888874204D2204600F095FC013757
:10548000F7E70136F0E700BFEF492B2200288A81B9
:105490000A4A8A60024618BF01228A714FF4F072EC
:1054A00018BF4FF4A0724A8000284FF4A07218BFB2
:1054B0004FF4F07203200A8000F07AB92C002A0021
:1054C0002DE9FE4F0C46A3EB010B111A05460029EE
:1054D000029101DD012008E005D0029840420290CF
:1054E0004FF0FF3001E000200290BBF1000F01906F
:1054F00001DD012607E019BFCBF1000B4FF0FF36AD
:105500004FF0000B002602985F464FF000084FF066
:1055100000094FF0000A584588BF07461FFA88F077
:105520008742B8BFBDE8FE8F0C9AA8B2A1B200F0C6
:1055300016F80AEB0B0008F10108B842C8BF344462
:105540000299019A4944B942C8BF1544B0EB070A11
:10555000D8BF8246B1EB0709D8BF8946DEE710B550
:10556000144602460B46FFF727FF2046BDE81040D1
:1055700000F01ABC2DE9F843DDF82090DFF8348004
:105580001C460B4615460E460746CDF80090C04710
:10559000384631463A4601F0C7FA384621462A468F
:1055A00001F0C2FA284631462A4601F0BDFABDE8AC
:1055B000F88300BFC15400082DE9F8438146501E0E
:1055C000154698460E4682B2581E83B24846FFF7EB
:1055D000F3FE089CB0B2404528BFBDE8F8834F46B3
:1055E000B8B2A84204D2204600F0DEFB0137F7E74C
:1055F0000136EFE72DE9F0415A4804265A4D06607E
:105600007820A847594CF020C4F81068A8472046D5
:105610004FF6FF71A04604F06BF8554ED320B0470B
:10562000544FB847884CA080B847A080B8470002C4
:10563000A080B847A1880843A080C020B047884F09
:105640000F20B8470F20B847C120B0470F20B847F8
:10565000C520B0470020B8475720B8478020B8473A
:10566000B120B047A020B847B420B0470220B847C7
:105670003620B0474820B8473A20B0475520B847B1
:105680002120B0470020B847E920B0470020B847A4
:10569000F720B047A920B8475120B8472C20B84779
:1056A0008220B847E020B0470020B8470920B8471B
:1056B0000C20B8470220B8470E20B8470520B8474D
:1056C0002F20B8474620B8474720B8470420B8479E
:1056D0000E20B8470B20B8472D20B8473620B847D2
:1056E0000F20B847E120B0470020B8471020B84746
:1056F0001320B8470320B8471020B8470620B84702
:105700003A20B8474620B8475120B8470620B84746
:105710001020B8470D20B8473320B8473720B84786
:105720000F20B847B620B0470220B8472220B8471C
:105730003B20B8470120FFF7A7FE2C20B047782078
:10574000A8471120B047C820A8470020FFF77EFED9
:105750002920B04708F580601021BDE8F04103F032
:10576000C7BF00BF141401402DBA0008000C01404F
:10577000C15D00087D5700084C06002010B50020D0
:1057800004F026FD0848094A4FF400414FF4006335
:1057900041601360D0F8F843C0F800380160102071
:1057A00004F016FDA0B210BD100801401410014015
:1057B000B0B5254CA279A188D3B2012B08D141F60E
:1057C000631291420ED046F6040291420AD005E0DF
:1057D000120607D141F66312914203D108280AD27A
:1057E0001BA104E00138C0B2072804D2174901EB1D
:1057F0004000018800E00821362000F0F9FA6089B5
:1058000000F0DEFA164D0020A8470020A8472088A7
:105810000138C0F30F20A84720880138C0B2A8473C
:10582000A08900F0CDFA0020A8470020A847608892
:105830000138C0F30F20A847608829460138C0B25C
:10584000BDE8B040084700BF4C06002030C000084B
:10585000A800E8002800680088000800C800480088
:10586000A95D00082DE9F04F89B0139F814690464D
:105870001C46089100EB5700013882B2C819013864
:1058800083B24846FFF798FD01213809DDF850A0A2
:105890004E4617F00E0F18BF01EB17104FF4C871EA
:1058A00078437D080690A8F120004FF00008C2B2AE
:1058B0003748059212FB01000490394800EB0210B2
:1058C0000390354800EB82100290324800EB022032
:1058D00000220190069990B2884256D2502F07922A
:1058E00016D0102F18D00599182F01EB410109D0BF
:1058F000202F0FD0402F09D00C2F46D1294A02EB80
:1059000081010AE0254A02EB011106E0019904E059
:10591000049902E0029900E003990844002790F8F6
:1059200000B0082F2DD00120B84000EA0B00BAF1DA
:10593000000F0DD028B10899B0B2224689B2FFF706
:105940000EFE0136B0B2A0EB0900A84210D111E062
:1059500000282046129908BF084600F025FA08F1F1
:1059600001081FFA88F0B0FBF5F101FB150030B11A
:105970000137D6E708984E460130089001E04FF015
:105980000008079A139F0132A4E709B0BDE8F08F21
:105990002457010824F8000864E0000894CE0008A9
:1059A000A4C8000830C400082DE9F04F85B001F00C
:1059B0003AF8444524D06FEA080000F0E6FFBAFB4D
:1059C000F0F001F043F906D10498404503DD0804E6
:1059D0000DD04FF0010B0F9841F030010E9BCAB271
:1059E000314601F092F8A94408F10108E1E70F9867
:1059F0000E9B3146302201F088F84FF0000BF2E7A1
:105A000001F09BB82DE9FE4FDDF83480DDF838A0B9
:105A1000DDF830B0994615460E4607464FEA580461
:105A20002A785AB1B8B231464B46CDE900B8CDF824
:105A300008A0FFF717FF27440135F1E7BDE8FE8F07
:105A40002DE9FE4F0C9D8946434907469B46144667
:105A50002846FEF727FE414E00281CBF0025C4F251
:105A6000FA3528463146FEF701FE3D4ACDF800B032
:105A700000281CBF0025C4F2C825284631464B46E5
:105A800005F01AFF374E0D9D374930802846FEF746
:105A900009FE00281CBF0025C4F248352846002115
:105AA000FEF7E4FD0028314ACDF800B018BF00250C
:105AB00028464B46002105F0FFFE7080E01B029750
:105AC0000E9F00F0EBFF811E441E0191A2453BDAC0
:105AD000029807EB0A0817F80A1098F80130CDF879
:105AE00000B0504485B2023086B228463246FFF7F5
:105AF000E7FC0F98324600EB0A0910F80A10284616
:105B000099F80130CDF800B0FFF7DAFC0198824532
:105B10000FDA98F8023098F801104FF2604001F067
:105B200033F899F8023099F8011044F6384001F042
:105B30002BF898F801000AF1010A88F8000099F89A
:105B4000010089F80000C1E70649088838554888EF
:105B50000F990855BDE8FE8F0000FA430000C842C7
:105B600000001644AA0100200000484300007A43C8
:105B70002DE9F04F87B01C46049005915B1A052172
:105B8000101A002700F08AFF069293FBF1F590FBB4
:105B9000F1F6DDE90489BBF1000F17D0BBF1050F69
:105BA00020D01098069A009009EB070081B2404679
:105BB0000B46FFF785FC109849462346009008EBFA
:105BC0000A0080B20246FFF77BFC06E010982346ED
:105BD000009004AA07CAFFF7CDFC2F44B2440BF192
:105BE000010BD8E773202A212F22192300901420BB
:105BF00001F082FA0498059D374F4FF000080C24FD
:105C000032A201F076F8033086B205F11E001FFAC9
:105C100080FA30465146B84705F148002FA201F0FE
:105C200068F81FFA80FB30465946B84705F1720004
:105C30002DA201F05EF881B230460491B84705F11B
:105C40009C002CA201F055F881B230460391B84770
:105C500005F1C6002AA201F04CF81FFA80F930467F
:105C60004946B847069E7420A91C172217230090A6
:105C700089B2A6F1190080B201F03EFAA6F1140033
:105C800022A2514601F05BF885B22846B84720A20F
:105C90002846594601F053F8B84704991DA22846F2
:105CA00001F04DF8B847A6F10E0003991AA201F0D1
:105CB00046F880B2B847A6F1080018A2494601F09C
:105CC0003EF880B2B84707B0BDE8F08F35303028D5
:105CD0003933322900000000055A000834303028DA
:105CE000373532290000000033303028353732296B
:105CF0000000000032303028333932290000000023
:105D0000313030283231322900000000323030008A
:105D100031353000313030003530000030000000C7
:105D20002DE9FE4F07460D98994615460E460FF28F
:105D30002C0A4FF000084FF0000B44085D4508BFE7
:105D4000BDE8FE8FABF10100C0B2052801D800F01C
:105D50004DFEA0440BF1010BF0E700BF56312E3091
:105D60002E3300002DE9FE4F07460D989946154643
:105D70000E460FF22C0A4FF000084FF0000B4408BB
:105D80005D4508BFBDE8FE8FABF10100C0B205283C
:105D900001D800F02BFEA0440BF1010BF0E700BF8F
:105DA00056312E302E31000010494FF400424FF48E
:105DB00080634A60C1F8FC030B4800F0DDBE00BF01
:105DC00010B50949094B4FF480524FF400440A6062
:105DD0005C60C3F8FC034FF480600860C3F80008FF
:105DE000C3F800281C6010BD1410014010080140C9
:105DF00010B50C46FFF7E4FF2046BDE81040FFF762
:105E0000D3BF00002DE9F04F97B0DFF8F89999F86B
:105E10000300012827D0002840F0D283DFF8E8B93A
:105E20009BF8E10302283DD1DBF8AC50CA49284673
:105E3000FEF72AFC9BF8BC63002837D1002E35D032
:105E400099F80900013089F80900C0B2152848D333
:105E5000002089F8090099F80800013000F00300DB
:105E600089F808003FE004F099FDDFF89C7997F885
:105E7000C00310B1FF2187F8C11397F8E11301F0B7
:105E8000FE02022A40F08D8097F8C123824245D05D
:105E900003283DD8DFE800F002343032012087F8D3
:105EA000E20335E0002089F80A00EBE0AA49284621
:105EB000FEF7F8FB002840F0E580002E40F0E2807D
:105EC00099F80A00002840F0DD8099F80B000130B5
:105ED00089F80B00C0B2032824BF0120A9F80A00EA
:105EE00008E099F80800002189F80A10DFE800F0BE
:105EF00002C1BDBF5620BDE0462002E0442000E0C4
:105F0000422000907B207B21EB22672301F0F4F8F4
:105F100097F8C00397F8E11387F8C103022940D12D
:105F200097F8BC03022803D0012800F0908080B9C4
:105F3000002418204FF6FF7100220323CDE900143E
:105F4000CDE9020440F245103421FFF72DFDA9F8F8
:105F50001240DFF8C048B9F812002188814220D0F1
:105F600041F6A30144F25072C0B24323CDE90002CE
:105F70000291CF203F214FF48772FEF713FEB9F84C
:105F80001220002018214FF6FF73CDE90030CDE933
:105F9000021040F24510342100F0F1FCB9F8120073
:105FA000208004F035F999F8100020BB0120BE696B
:105FB000D7E9195889F810003868FEF7B8FB00EBEC
:105FC000C000052400F005FE786000F03EFD00F002
:105FD000ADFC386200F0C3FC00F0A8FC3867404616
:105FE000FEF7A5FB00F0A2FC7867F86EFEF79FFBBA
:105FF00000F09CFCB86797F8C80397F8C913814272
:1060000021D03868BE69D7E91958FEF790FB00EB3C
:10601000C000052400F0DDFD786000F016FD00F002
:1060200085FC386200F09BFC00F080FC386740463D
:10603000FEF77DFB00F07AFC7867F86EFEF777FBE1
:1060400000F074FCB86704F047FA0020B6E297F855
:10605000BE03012840F0B78297F8D403002840F02F
:10606000B2820020A9F8120073E7582002E05920FC
:1060700000E0572000904FF4D770282124222223DB
:1060800001F03AF803F0BEFE99F80E0001280FD097
:10609000002840F01981BBF8B603C0B19BF8E1734A
:1060A000022F26D0032F27D11921D0FA51F021E059
:1060B000BBF8B803A0B19BF8E183B8F1020F4DD053
:1060C000B8F1030F4DD11921D0FA51F047E099F8FA
:1060D0000000002800F0A580013889F8000089E060
:1060E00099F80100002800F0DE80013889F80100ED
:1060F000E7E00138ABF8B6030020DBF82060CBE91D
:106100000200DBE9065000F030FE28B1DBF8240085
:1061100000F07EFC00286DD19BF8C803CBF824600A
:10612000CBF81C50002808BF2E4600F08EFC054618
:10613000022F4DD0032F5DD10020202143F2861283
:106140004FF66143CDE90032CDE90210AAB240F228
:10615000891050214CE000BF0000C8420138ABF864
:10616000B8039BF8C573022F04D0B648CBF8B4002F
:10617000CBF89C00DBE92550DBF8B86000F0F5FDBA
:1061800030B1DBF8BC0000F043FC002840F09980FF
:10619000CBF8BC60CBF89850022F08BF354600F012
:1061A000DEFB00260546B8F1020F27D0B8F1030F39
:1061B00040F0888043F2861143F67F422020CDE9EB
:1061C0000021AAB2CDE9020640F29510CD2125E0CA
:1061D0005E2000F0FFFB41F6A3024FF66143002072
:1061E0005021CDE90032AAB2CDE902105020782129
:1061F00000F0C5FB99F80E00461C63E0622000F039
:10620000D6FD502041F6A30143F67F42CDE900219F
:10621000CDE90206AAB24FF48770782100F0AFFBF7
:1062200050E09BF8C0030028E4D1DBF8285000219F
:106230002846FEF753FA844906462846FEF71EF81C
:106240008249FEF74DF84FF08441FDF7BFFF85F01E
:106250000041002E18BF08469BF8C8A3BAF1010FF1
:1062600018BF0846FEF763FA8046BAF1010F40F006
:106270001282DBF8006074493046FDF7FFFF734976
:10628000FEF72EF84FF08441FDF7A0FF7049054658
:10629000CBF80400FDF79AFF07469BF8C5030128D9
:1062A00018BF2F4602E2DBF89450DBF89C0000F0A8
:1062B0005CFD002840F0B1819BF8BA03002800F093
:1062C000C481002689F80E60584603F0EDFF9BF864
:1062D000E103011F11F1020FC0F0C88046F26960AE
:1062E0005D214FF481724FF49473ADF85800302063
:1062F000129346F268531491CDE90E21CDE909219C
:106300009BF8B4131392159010900B905A20ADF88F
:106310004430C12308909BF8B5030D9346F26743C0
:10632000ADF8303088424BD008AD012705F10806A2
:10633000042F10D09BF8B503874209D1747AB38833
:10634000328836F8041C36F8080C009400F0D4FEAD
:1063500001371436ECE79BF8B50308B104280DD3D8
:1063600000263C2E0AD0AC19A85BA3892289A188FB
:10637000647C009400F0C0FE1436F2E79BF8B4038E
:10638000411ECAB2022A0FD8900050FA81F105EBE3
:10639000810435F82100A3892289A188247C0094F6
:1063A00000F0AAFE9BF8B403264900228BF8B5033F
:1063B00089F80F20CBE93411CBE93611CBE938113C
:1063C000002851D099F80F0000284DD1DBE91907BA
:1063D000DBF81860DBF82050FEF7A9F9ADF81A00D9
:1063E0003846FEF7A4F9ADF81C00DBF86C00FEF7A8
:1063F0009EF9ADF81E00DBF87000FEF798F9ADF8D5
:106400001400DBF87400FEF792F9ADF81600DBF823
:106410007800FEF78CF9ADF8180000F016FB064680
:1064200000F09DFA00210DF11A0205AB032911D0ED
:1064300032F81140B44217D033F811400131844290
:10644000F4D111E000007F43000010410000A040A3
:106450000000F4C2E448CBE93400CBE93600CBE9D4
:106460003800012089F80F009BF8E10300F0FE00DE
:10647000022840F0A080DBF86450DBF8D000DBF8A5
:10648000706000F072FC4FF6FF7720B1DBF8DC00A3
:1064900000F0BEFA98B99BF8C803012808BF35463A
:1064A00000F05DFA00F020FB602000F0BBFBDBF8A1
:1064B0006400DBF87010CBF8D000CBF8DC10DBF810
:1064C0006850DBF8D400DBF8746000F04EFC20B1BB
:1064D000DBF8E00000F09CFA98B99BF8C8030128AB
:1064E00008BF354600F03BFA00F0FEFAC72000F086
:1064F00099FBDBF86800DBF87410CBF8D400CBF81C
:10650000E010DBF86C50DBF8D800DBF8786000F0C6
:106510002CFC20B1DBF8E40000F07AFAA0B99BF87B
:10652000C803012808BF354600F019FA00F0DCFA6C
:106530004FF4977000F076FBDBF86C00DBF8781016
:10654000CBF8D800CBF8E410DBF87C50DBF88800FF
:1065500000F00BFC50B900F002FA00F0C5FA8D20F3
:1065600000F060FBDBF87C00CBF88800DBF88050A3
:10657000DBF88C0000F0F9FB50B900F0F0F900F006
:10658000B3FAF42000F04EFBDBF88000CBF88C006F
:10659000DBF88450DBF8900000F0E7FB58B900F01E
:1065A000DEF900F0A1FA40F25B1000F03BFBDBF8F3
:1065B0008400CBF8900099F80300013089F80300BB
:1065C00017B0BDE8F08F3868D7F81880FEF7AFF83D
:1065D00097F8C513012908BF323800B2FEF78CF8CE
:1065E0008A4904464046FDF7F1FD21468246FEF702
:1065F0004BF8874905464046FDF7E8FD06462DB9AC
:1066000030462146FEF75CF8002861D0304621462E
:10661000FEF72CF870B90120E9E0DBE92C7039466F
:10662000FEF75CF8002600287FF44CAE9BF8BA0316
:1066300068B147E650462146FEF734F8002840F09E
:10664000DB80002089F80C00D4E0DBF8B0709BF808
:10665000BE139BF8D4239BF8E103CBF8B470CBF8BE
:106660009C5081F00101D2B2114308BF3D46C9F8E8
:106670001450002602284AD003287FF423AE00F0ED
:106680006EF902460026202043F286114FF6FF7372
:10669000CDE9003196E5DBF800605F4900F0E7F9ED
:1066A00007469BF8C503012818BF37464046FEF74A
:1066B00023F801463846FDF789FDFEF738F89BF8C8
:1066C000E153804645F00200032832D1142036E021
:1066D00099F80D00022840F089804E484188013920
:1066E000418009B2002900F3878032214180404671
:1066F0002146FDF7BDFDFEF71AF801B280EAE13050
:10670000A0EBE13000B20128D8BF012072E0602088
:1067100000F04DFBD9F81400FEF709F802465020AE
:1067200041F6A3014FF6FF73CDE90031CDE9020632
:1067300071E59BF8BC03002818BF6FF0370089F89B
:106740000000DBE9017000F063F938B1DBF80C0000
:106750003946FDF7C3FF00287FF44CAD9BF8CE030C
:10676000CBE9026701281CD14046FDF7C5FFDBF8E5
:1067700018602A49074600F07AF93946FDF7A0FF6C
:1067800078B9274900F073F93946FDF77DFF40B924
:10679000DBF82000BAF1010F08BF064600F055F9FA
:1067A0008046032D12D0022D7FF424AD5C2000F032
:1067B00011F90020502141F6A3024FF6FF73CDE9F5
:1067C0000032CDE902101FFA88F20FE543F286127B
:1067D0004FF6FF7300202021CDE900321FFA88F226
:1067E000CDE90210B3E400BF00007F43022089F826
:1067F0000C006420A9F8120099F80C0089F80D002B
:10680000FFF7A7BBC8010020D80600200000C8423F
:106810000000C8C2C8000020000048C20000A0C19B
:106820000000A041FEE770475E2086214FF492727F
:106830003323009500F060BC012101F033BA4FF022
:1068400080400221002270475146ADF80940019076
:10685000584648470725A34005FA04F40C250A29A1
:10686000704700BF00BF00BF00BF00BF00BF00BF38
:1068700000BF00BF00BF704701F00F0123F4704359
:1068800043EA013170472046FDF70CBFA5F8B80375
:10689000D5F89400FDF79ABCBDF808100A31ADF8A0
:1068A00008109DF80B100131704725221E2300901F
:1068B0004FF4AA7000F020BCA6F8B803D6F89400F4
:1068C000FDF784BC80F83010C185816280F82C10FF
:1068D0007047C0E90056C0E90243C0E9042170478F
:1068E0004FF0804000217047514601904046ADF87E
:1068F00009404847206840F0400020604FF0804049
:1069000002F0D6BA2046FDF7DBBE6962C5E9221166
:10691000C5E92412C5F8981085F8B4037047BDF88E
:1069200008109DF807201144A142704700EBC000F9
:10693000B0FBF4F0203080B2FDF7E7BEA6F8B80354
:10694000D6F8B800FDF742BCC6F8840004F1100088
:10695000284795F8E10300F0FE000228704728461A
:10696000FDF7E5BE05462046FDF730BCC6F88000C1
:1069700004F10C00284741704FF47A7070470323EC
:10698000FFF712B82046FDF721BC2044C1B20A200F
:1069900003F062B986F8DD0304F1240028474FF0C4
:1069A00042412862FDF712BCFA2158222D230090A3
:1069B000C42000F0A1BB417195F8C80301287047BD
:1069C00086F8DB0304F12200284720464FF07E5171
:1069D000FDF7FCBBD2217B221C2300905A2000F043
:1069E0008BBB05F1880002EB810270470C991AF805
:1069F000002007EB08004B4680B200910D990191F1
:106A0000002102913146FEF72DBF0446FDF73CBE42
:106A10003146FDF763BE252085F8E10395F8DB03D9
:106A200085F8DC037047074610981C4692460E46D0
:106A30004FF000094FF000084FF0000B4508581EBA
:106A4000049070472046FDF7C1BB3046FDF76FBE8E
:106A5000272085F8E10395F8DD0385F8DE0370470C
:106A6000C5E92211C5F89010D5F89410704730464A
:106A7000FDF7ACBB292085F8E10395F8DF0385F825
:106A8000E0037047CAB2C90141EA5201C9B20B29F9
:106A90007047C8F834002846FDF798BB4FF0000A4D
:106AA0004FF0000B7047D8F82C402846FDF7E6BBA6
:106AB000054620462946FDF703BE4FF4801002F03C
:106AC000F7B901462046384750F8210052F8211006
:106AD0000068A8610968C5F8941070470020A8F8FC
:106AE000040088F802007047024643F28613002033
:106AF0001821CDE90210CDE9007370474FF08441B1
:106B0000FDF764BB002101F01BBA009010980190C2
:106B10001198029007EB090080B2FEF7A3BE05466C
:106B200020462946FDF7B0BD2346CDF800904047EA
:106B3000044628462146FDF7B5BD05B0BDE8F08FF7
:106B4000044628462146FDF791BD00BA000CFFF728
:106B50002BB9A8632863A869FDF78ABB013A013BFA
:106B600092B29BB2FEF728BC20464FF07E51FDF753
:106B70002DBB0446FDF796BD0360C1F800380A60DE
:106B800070470446FDF780BD324600902846FEF768
:106B900097BC90F8E11301F0FE02022A70471C46F0
:106BA00015460E460746704740F8081C02F00301E0
:106BB00050F8082C704786F8C50304F120002847D8
:106BC0004FF08441FDF702BB8DF80B109DF80B10C0
:106BD0007047B0FBF4F0203080B2FDF796BD06F1AF
:106BE000880002EB81027047012101F0A9B92168F8
:106BF00021F00101216010BD01F00F0123F0F0032D
:106C000043EA0111704786F8D40304F11E002847B7
:106C10001E214FF448720023CDF8008030473046E3
:106C2000FDF7D4BA4FF48C710323FEF7BDBE85F88F
:106C3000E10395F8DC0395F8DE1395F8E02385F879
:106C4000DB0385F8DD1385F8DF2370470A21BBF1EC
:106C5000000FB0FBF1F101EB8101A0EB41017047A6
:106C600003F0030324F4407444EA0323704786F8D6
:106C7000CE0304F11C002847C5F89800C5E922009E
:106C8000C5F89000C5F8B61370472846FDF7FCBC60
:106C9000E040C0B200904FF4AA7030474FF47A70D1
:106CA0000021A5F8B6037047226842F00102226075
:106CB000704740F8041C02F0030150F8042C7047A0
:106CC00086F8D10304F11800284741704FF47A7018
:106CD000A5F8B60395F8C80301287047C0B2009024
:106CE0004FF4AA70704796F8B413C6F8B840032959
:106CF00070474FF26043CDE90084CDF808807047BB
:106D000001F0070125F4E04545EA0131704786F8B6
:106D1000CB0304F11600284705F1880002EB81023D
:106D200070477B20282196224B230090A52000F05D
:106D3000E3B996F8B413C6F894400329704744F6B3
:106D40003843CDE90084CDF80880704703604B7864
:106D50000468704786F8C80304F11400284795F8C2
:106D6000B413C5F89440032970472946FDF7B6BC13
:106D700080F8E1230239B1FA81F1490980F8C213A0
:106D80007047C4F8006825606560C4F8FC0370476C
:106D900022F4406242EA8121704786F8C20304F17E
:106DA000120028471E214FF4487200237047D42157
:106DB0007B22192300904FF4877000F09DB94FF0AB
:106DC00042412862FDF702BA00210162C1614161BE
:106DD0000161C160704710B500240462C461446160
:106DE0000461C460029C446280E80E00846210BDAD
:106DF000F8B5044608461146FDF73AFA606129499C
:106E00006069FDF75DFC20B960692749FDF73CFC2E
:106E100008B1002003E06069E169FDF7D7F9E0619E
:106E2000224DE0692946FDF72FFC00B9E561E069D4
:106E300000210025FDF744FC00B9E561D4E90056C6
:106E400060692169FDF714FAA06130466769E1695C
:106E5000FDF714FA616A00F0DAF906462846394669
:106E6000FDF70CFA3146FDF7B1F90546A068A169B6
:106E7000FDF704FA2946FDF7A9F92062606920614F
:106E8000206AA16AFDF7F2FB08B9A06A2062206AB5
:106E9000A16A81F00041FDF705FC08B900202062DD
:106EA000206AF8BD0000C8420000C8C200C82F47D1
:106EB0007047704770B5434E7078013870700006A7
:106EC00019D1B34C1420707094F8CB0301280FD162
:106ED00000F070FD94F8C00368B1B0780138B0706C
:106EE000000608D13848012141712820B07002E025
:106EF0003548C0688047A64C94F8BC0350B1307840
:106F00000138307000060BD105203070A04801F028
:106F1000E9FE05E0204601F0E5FE012084F8E503E6
:106F200094F8BC0302280AD1A56D00212846FDF77C
:106F3000D5FB20B925492846FDF748F9A065B0885A
:106F40000138B080000408D14FF47A70B080534803
:106F50004168C4F8AC1000214160504E307850BBFD
:106F6000102001F0EBFF70807088FDF7D3FB184A0A
:106F7000184BFDF79AFA184B0022FDF796FA174ABC
:106F8000174BFDF7EBF9174A174BFDF700FB174BB3
:106F90000022FDF7E3F9FDF742FC15490546A06420
:106FA000FDF78EFB38B928460021FDF75FFB10B9CD
:106FB00001202560307004F0DBFE0E480068BDE85B
:106FC000704000470000002040010020000080BF0A
:106FD00052B81E85EB510A400000303F295C8FC239
:106FE000F528F4BF33E197FA7953713F0000394037
:106FF00000004842F00A00201848C16941F0805161
:10700000C16117490A7842F004020A70C16921F08F
:107010008051C161016841F0010101600168890787
:10702000FCD5416821F003014160416811F00C0F6B
:10703000FBD101680B4A114001600021416041F61B
:107040001071C1624FF4801101634FF41F01816020
:1070500005484FF000610160704700BF001002401A
:1070600050700040FFFFF2FE08ED00E0B0B50A4CA2
:107070000221204604F0C4F960B1084D4FF07E5162
:107080006868FDF7A3F8686020460221BDE8B040BB
:1070900004F001B9B0BD00BF004C0140B0010020B8
:1070A00070B5144C0121204604F0F8F808B3384DAF
:1070B00095F8E403012808D1284602F079FF2E6CE8
:1070C00000213046FDF7FCFA08B900262E64304650
:1070D000FDF746FB02462046062104F0B5F820469F
:1070E000012104F0D3F820460121BDE8704004F0EE
:1070F000D2B870BD000C00402DE9F041244D02FBD8
:1071000003F4640095F8D163069D012E06D076B98C
:10711000023DEEB27B2E0AD21F4E04E0023DEEB2DB
:107120007A2E04D81B4EEDB256F8255000E000250B
:1071300002440B44FFF712FD184E4FF000082CB329
:1071400030462946B8EB942F0CD1224603F0A6FD19
:107150000027A74204D2F05BFFF7F7FC0237F8E7FD
:10716000002010E04FF4806203F098FD0027B7F58F
:10717000806F04D2F05BFFF7E8FC0237F7E7A4F575
:1071800080604FF4806425440446D8E7BDE8F08170
:10719000D80600202CC2000840C00008ED010020E5
:1071A000BCB5184CE06880060FD52046202104F0BD
:1071B000F6FA50B1204604F0DBFA134DC1B228466E
:1071C00002F0EDFF4FF48270A881E068400612D50E
:1071D0002046402104F0E3FA68B12046402104F043
:1071E000D7FA094D0DF1070105F1100002F0C4FFB7
:1071F00010B100206877BCBD9DF80710204604F050
:10720000BAFABCBD00380140C40A0020FEE7E0B570
:107210000190009101980099FDF728FA08B90098AB
:1072200001900198009981F00041FDF73BFA18B9EF
:10723000009880F00040019001988CBD0A78436866
:1072400002F0010223F4807343EA022242604A788A
:10725000836862F3410383608A78836802F00102E5
:1072600023F4006343EAC2228260C978C26A01390A
:1072700022F4700201F00F0142EA0151C16270472D
:107280004FF0807101607047816841F008018160B2
:1072900070478068C0F3C0007047816841F0040106
:1072A000816070478068C0F380007047826861F336
:1072B0000002826070470068084018BF01207047D4
:1072C00070B501EB41040A2928BF1E3CFFF7C2FA42
:1072D00038BF1025465926EA0404234302EB8204F2
:1072E00043516FF00403062A88BF6FF022030C2A73
:1072F00088BF6FF04003342523441F249C40062A96
:1073000088BF30250C2A88BF2C2542599940A243BA
:107310001143415170BDC06C80B2704710B54B0431
:107320008468082904D344F0007103F4602301E069
:1073300024F000718160816821F46021194381602B
:1073400002F00101826822F4801242EA0151816058
:1073500010BD426801F0010122F4006242EAC1213D
:1073600041607047826801F0010122F4800242EA24
:107370008151816070470000044900F001000A68F3
:1073800022F4000242EAC05008607047082401401D
:107390000138092800F29780DFE800F0052795956D
:1073A000577A91163748DFF898077346FFF7F1FBD5
:1073B0009E4640F0908090F8C503022840F0D180AE
:1073C000DFF8E0050521CEE0DFF8080401780029A8
:1073D00079D101210170DFF868077346FFF7D9FB07
:1073E0009E4640F08A8000208EE0DFF85407734606
:1073F000FFF7CFFB9E4667D190F8C5030228DFF860
:10740000A40514BF02210621ADE0DFF8B00500217C
:107410004171DFF82C07DFF88C1590F8C5030238AE
:10742000B0FA80F04009800008707047DFF88C05E2
:1074300000214171DFF80807032190F8C5030228F5
:10744000DFF8600508BF07213CE0B0B5DFF8F05673
:1074500095F8E103A0F12301062944D9811E0229F0
:10746000C0F020811B2800F0B7802F2800F0C080DA
:10747000372800F0B580392840F09F8095F8C20386
:10748000002800F00C81012840F00C81032007E166
:10749000DFF8AC067346FFF77CFB9E4613D1AF4A7C
:1074A0000023C0F8B623AE4AC0F89820DFF80C25B8
:1074B00053710222022908BF0322FFF759BCDFF8EB
:1074C00014030021017070474A1F162A21D8DFF8E3
:1074D000D404032105E04A1F162A48D8DFF8C40463
:1074E0000221417063E0DFE801F06B680468046822
:1074F00004002320FFF79BFBD4E00539362905D88B
:1075000090F8E30310B90420B3494870B34801214F
:107510002BE01D391A2900F24A80DFE811F04B00F8
:107520004800B8004800B50048001B004800D600DD
:107530004800F3004800DE0048009F00A400AB00B4
:107540004800CF0048009C004800990048004800CF
:107550004800960090F8DA1301390A0608BF0421A2
:1075600007E19D480121017021E0417170471D39FB
:107570001A291CD8DFE811F01E001B008B001B002D
:1075800088001B00F6001B00CD001B00DE001B0066
:1075900000011B00720077007E001B00B8001B007A
:1075A0006F001B006C001B001B001B0069008B4858
:1075B0000021DAE7FB48092193E7FA4801210DE0B1
:1075C00095F8DA03013803286CD8DFE800F002747C
:1075D0006F72FFF720FA65E0F2480421417061E024
:1075E00095F8D803012855D000285BD1172057E023
:1075F00095F8D70301280AD10220A9692A6A85F8DB
:10760000D703EB48C5E90B10C5E90D204AE001207E
:10761000D5E90A4185F8D703E548FFF79AFA01460C
:10762000FFF7B0F96E49FFF7A4FA6E4900281CBFB6
:107630000024C4F2C8242046FDF718F800281CBF17
:107640000024CCF2C824AC622CE0D648172148E7CD
:10765000D448142145E7D348132142E7012180F89B
:10766000D1132C2103E0002180F8D1132B2180F8C5
:10767000E1139CE790F8D71300297FF498AF2F21EE
:1076800080F8E11301213AE0C6480F2129E7C548F7
:107690000A2126E7C34815214170392000E0022065
:1076A00085F8E103C54800214171B0BDFFF7E2F95B
:1076B000F8E70B201EE7FFF7CBF9F3E790F8D713B5
:1076C000022915D1B7480C210BE790F8DC130139DA
:1076D000CAB2022A38BF032122E090F8E013013930
:1076E0000A0608BF03214EE090F8D71302296DD097
:1076F00001297FF45CAF2D2180F8E113002180F88F
:10770000D71354E790F8DE1301390A0608BF0321A6
:1077100017E090F8DC130131CAB2032A88BF0221B6
:1077200080F8DC13C9B203293DD002297FF43FAFB2
:10773000022139E090F8DE130131CAB2032A88BF72
:10774000012180F8DE13C9B2032932D002292ED0DC
:10775000012904BF012180F8DD1328E7E803E803CD
:1077600000007F4390F8DA130131CAB2042A88BFBF
:10777000012180F8DA131AE790F8E0130131CAB258
:10778000032A88BF012180F8E013C9B2032914D06D
:10779000022916D001297FF40AAF012180F8DF13F6
:1077A00011480021DFE6032180F8DB13FFE6022108
:1077B00000E0032180F8DD13F9E6032180F8DF13F0
:1077C000F5E6022180F8DF130748CBE675480B2168
:1077D00087E600BFED050020D0000020400100201A
:1077E0000000C8420000C8C2E201002070B56D4D23
:1077F0002878072800F2D580DFE800F0047D364EB7
:107800001D96AF66CE4E4FF47A70D249FFF754F80A
:10781000CF490446FCF754FF00281CBF0024C4F2E3
:107820004834FFF786FA00F2B680FFF7D8F9DFE8B0
:1078300001F0B6B0ABAEC24E4FF47A70C549FFF757
:107840007DF8C3490446FCF711FF18B9C04C00206D
:10785000C6F8BC00FFF747FA00F29D80FFF7BFF9BA
:10786000DFE801F09D979295B54E4FF47A704F493D
:10787000FFF722F8B749FFF784F900281CBF00245E
:10788000C4F2A004FFF755FA00F28580FFF7A7F9CC
:10789000DFE801F0857F7A7DA94E4FF47A70424986
:1078A000FFF70AF8AB49FFF76CF900281CBF00246A
:1078B000C4F2A004FFF73DFA00F26D80FFF78FF9E4
:1078C000DFE801F06D6762659D4E4FF47A703649CE
:1078D000FFF734F89F49FFF74CF918B99D4C002089
:1078E000C6F8BC00FFF7FFF955D8FFF778F9DFE8D5
:1078F00001F056504B4E924E4FF47A704FF07E513D
:10790000FEF7DAFF92490446FCF7DAFE00281CBFB6
:107910000024C4F24834FFF70CFA3CD8FFF75FF9B3
:10792000DFE801F03D373235854E4FF47A704FF085
:107930007E51FFF703F886490446FCF797FE18B915
:10794000834C0020C6F8BC00FFF7CDF923D8FFF721
:1079500046F9DFE801F0241E191C794E4FF47A70C5
:107960001249FEF7EBFF7B49FFF703F918B9794C91
:107970000020C6F8BC00FFF7B6F90CD8FFF72FF9C6
:10798000DFE801F00D07020506F18C0001E006F1C9
:107990009000074901606A48002180F8B41308206C
:1079A000287070BDD00000200000A0C0000080BF83
:1079B00000007F430148FDF757B800BF4001002099
:1079C0007E48102101F092BE7C48102101F090BE4B
:1079D000B0B55B4D5B49AC69FEF794FF18B95A49E5
:1079E000FEF751FF08B95948A861D5F894405849A5
:1079F000FEF788FF18B95749FEF745FF10B95648FA
:107A0000C5F894006C6E4F49FEF77CFF18B94E49DB
:107A1000FEF739FF08B951486866AC6E4949FEF770
:107A200071FF18B94849FEF72EFF08B94C48A866FF
:107A3000EC6E4449FEF766FF18B94349FEF723FF91
:107A400008B94248E866EC6F4149FEF75BFF18B998
:107A50004049FEF718FF08B94248E867D5F880406A
:107A60003B49FEF74FFF18B93A49FEF70CFF10B932
:107A70003D48C5F88000D5F884403549FEF742FFFF
:107A800018B93449FEF7FFFE10B93348C5F8840031
:107A900095F8C2032C49022824BF002085F8C203B0
:107AA00095F8C803022824BF002085F8C80395F87C
:107AB000CB03022824BF012085F8CB0395F8D1031E
:107AC000022824BF002085F8D103AC6AFEF71AFF14
:107AD00018B92649FEF7D7FE08B90020A86295F824
:107AE000CE03022824BF002085F8CE0395F8D403E6
:107AF000022824BF002085F8D40395F8C503022886
:107B000024BF002085F8C50395F8DB03043810F185
:107B1000030F9CBF022085F8DB0395F8DD030438D2
:107B200010F1040F9CBF012085F8DD0395F8DF03F9
:107B3000043810F1040F9CBF012085F8DF03B0BDAD
:107B4000D80600200000FA430000C8420000BE43EF
:107B5000000048430000A0400000A0420000A043F5
:107B60000000AF4300004842000070420000C8C25D
:107B70001FB5124C2021204601F018FE80B10020D4
:107B800010210FA24FF47843CDE900010290B020FC
:107B90009821FDF737FF04F5A050002102F0E7FF20
:107BA0002046202101F002FE0028F9D104F5A05062
:107BB000012104B0BDE8104002F0D9BF001C014013
:107BC00075706461746120666C6173682E2E2E2E50
:107BD000000000001748016841F001010160704792
:107BE00001490860704700BF10300240114900F0A1
:107BF00003000A6822F0180242EAC00008607047D9
:107C000001490860704700BF14300240094900F084
:107C100003000A6822F0600242EA401008607047E0
:107C2000044900F001000A6822F0800242EAC01014
:107C30000860704708300240B5490A6860F38F3227
:107C400080080A600A6860F31C720A60704700BF0F
:107C5000AF4900F00F000A6822F0F00242EA00107B
:107C600008607047AA4900F007000A6822F4E06241
:107C700042EA002008607047A54900F007000A6842
:107C800022F4605242EAC02008607047044901288B
:107C90000A6822F0300208BF30320A60704700BF25
:107CA00054100240042809D8DFE800F0031E0F1822
:107CB00009008B48026861F300020260704788483F
:107CC000426A61F300024262704701F00100844998
:107CD0000A6822F0807242EA00600DE08048026A81
:107CE00061F300020262704701F001007C490A68FA
:107CF00022F4803242EA00400860704732490A6844
:107D0000C2F38103314AF0B5DFE803F002380A38E4
:107D10000B6D9B0532D5CB6A9B0148BF2D4A2DE0E8
:107D20000B688C6A1B0C002C13D40C680D68C5F30F
:107D30004175C4F383440DB90F2C43D12D01013596
:107D40002C44DB0702D00B689B0300D5204A62431A
:107D500014E08C6A8D6A8E6ADB071D4BC4F3031432
:107D6000C5F3082506F0070603D00F68BF0358BF08
:107D7000134604FA06F26B43B3FBF2F2026016A458
:107D80000B68C3F30313E35C174CDA4042600B68E3
:107D9000C3F30223E35C22FA03F3C3600B68C3F36B
:107DA000C223E35C0424DA4082600B68096804EAB9
:107DB0009363C1F3813119440CA3595CB2FBF1F117
:107DC0000161F0BD0225BBE70410024000127A00F9
:107DD00000093D00006CDC02000000000000000013
:107DE000010203040607080994EB010802040608CF
:107DF000020C08103A4A010C00F01F00895821FAC1
:107E000000F000F00100704735480021026892033D
:107E100004D44A1CB1F5405F1146F7D30068C0F3A3
:107E20004040704700F01F020123000C93402C4A91
:107E30000129815814BF994319438150704700BFED
:107E4000B0B5334C256858B145F48035012825601C
:107E5000256814BF45F4003025F40030206006E0AA
:107E600025F480302060E06A40F00070E062A06A93
:107E70006FF35F216FF3102040EA0120A06202F04F
:107E80000F00A16A21F0F00141EA0010A062A06A8F
:107E900063F30200A062A06A40F00040A062B0BD9F
:107EA0000F48016841F00101016001688907FCD5B4
:107EB000416821F003014160416811F00C0FFBD1D2
:107EC0000168084A114001600021416041F61071CB
:107ED000C1624FF4801101634FF41F01816070474C
:107EE00000100240FFFFF2FE09490A6860F3010238
:107EF0000A607046FEF7B5FC86467046FEF7B1FC98
:107F00008646704702480068C0F38100704700BF92
:107F100004100240F8B505460C4600204FF6FF76E7
:107F2000C7B2A74209D2781900F0F4FFADF80200F9
:107F3000B81CBDF80210B142F2D1BDF80200F8BD84
:107F4000026861F300020260704780B51221FCF7FD
:107F500032F980BD3C49B0F1805F92BF086020F0EB
:107F60007040C1F8000470470549B0F1805F88BFD8
:107F700001F580610968084018BF0120704700BF03
:107F80000000024002684BF6EF731A4002600A8953
:107F900003681A4302604A7C036802F0030223F478
:107FA000405343EA02320260CA7B036802F00302D4
:107FB00023F4406343EA822202608A7B036802F072
:107FC000030223F4407343EA022202604A7B0368FF
:107FD00002F0010223F0800343EAC21202600A7B2E
:107FE000036862F3861303600A7C036862F3451337
:107FF00003604A8942600A6882604968C1607047CC
:10800000016821F00101016000210160416081608F
:10801000C16040F2FF4100EA01020B49B2F5816FF5
:1080200004D3D208902A0ED801F5806100F0FC003C
:1080300014220838B0FBF2F00F22800002FA00F0A0
:108040000A68104308607047040002402DE9F041BF
:10805000DFF834787878172800F27583DFE810F0BD
:108060001800F700AE00B501CA01B7003E015C017F
:10807000FC01F0017900D400850059008501A901B7
:10808000730373037303320226021E007303A200FC
:10809000DFF8780F052180F8E11352E3DFF86C0F69
:1080A000D349CF4DCF4ED04C00230122C0F89410BD
:1080B000CE49C0E91F65D84DC0F88440D74C80F840
:1080C000E32380F8B433836280F8D63380F8D43366
:1080D00080F8D023A0F8C733A0F8C43380F8C233A7
:1080E000C3648161C0E9191540F20111C466A0F8AA
:1080F000CD134FF48071A0F8CA134FF00131C0F8CE
:10810000DD1340F20221A0F8DB13C549C0F8B61315
:1081100017E3DFF89C6F96F8C803012800F0DE81B2
:10812000002840F00E83B469BE49F56A2046FCF78A
:10813000A5F8BD49FCF7D4F8FEF7E0FCBB49706335
:108140002846FCF743F8A649FEF70CFCFEF7F0FCC6
:108150002AE1DFF85C0F90F8CA13002900F0C9810A
:10816000012940F0EE820021C4E1DFF8448F98F845
:10817000C803012800F0C381002840F0E282D8F84B
:108180001850A849FEF78FFCA749FCF7A9F8FEF79D
:10819000B5FCA749FEF77DFCFEF78AFCA54906461B
:1081A00020464EE0DFF8080F90F8D813002900F0C1
:1081B000B381012940F0C5820021AEE1DFF8F00E65
:1081C00090F8E1138A1C1A2988BF052205E1DFF81F
:1081D000E05E95F8C003002840F0B382FEF75EFD34
:1081E000DFF8C406FEF7E7FB00F00082002840F04D
:1081F0005A82AC6990492046FCF746FA002800F004
:108200003882FEF7B1FC37E2DFF8A48E98F8C80395
:10821000012800F08581002840F09382D8F818509A
:108220008049FEF740FC8049FCF75AF8FEF766FCEF
:108230006B49FEF72EFCFEF772FC064620464FF017
:108240007E51FBF7C3FF002E08BF284686E1DFF80A
:10825000600E90F8E1130539362900F27282DFE8EA
:1082600011F037007002AD0270029A027002DE0255
:108270007002E4027002A0027002B3027002B9023E
:108280007002F1027002EB0270028602700270024C
:108290007002A5027002880270027E0270027002F3
:1082A0007002700270027002700270027002CF02DF
:1082B000D402FD027002F402700274027002910294
:1082C00070020503700270027002700270027C027C
:1082D0001D2180F8E11390F8C51378E1DFF8D05D37
:1082E00095F8C003002840F02C82FEF7D7FCDFF899
:1082F000B805FEF760FB00F08381002840F0F781AD
:10830000AC6937492046FCF7DBF9002800F0D5813D
:108310004849FEF737FBD3E1DFF8945D95F8C003D9
:10832000002840F00E82FEF7B9FCDFF87C05FEF76E
:1083300042FB00F07081002840F08581A8693B492C
:10834000FBF744FF3C49FEF71CFC10B93A4C0020F7
:10835000E86134492046AC61FBF790FF3249FBF7F6
:10836000BFFFFEF7CBFB28626DE1DFF8446D96F8A6
:10837000C803012800F0F580002840F0E281B469CC
:108380002849F56A2046FBF779FF2749FBF7A8FF44
:10839000FEF7B4FB294970632846FBF717FF244911
:1083A000FEF7E0FAFEF7CCFB002818BF2546F56281
:1083B000C7E1DFF8FC0C90F8CD13002900F0EC8049
:1083C000012940F0BE810021E7E0DFF8E40C90F8DD
:1083D000E1138A1E062938BF1B2280F8E123B0E191
:1083E0000000C8420000A0420000F0420000BE436E
:1083F00000002042DFF8B80C90F8C213012900F009
:10840000D180002940F0D18090F8BE13012900F2FC
:10841000CC800221C7E000BF0000C8430000D24367
:10842000E803E803000010410000A04000002041E4
:108430000000C8C2000080BF0000FA43000020C155
:10844000DFF86C0C90F8C713002900F0BD800129FB
:1084500040F077810021B8E0DFF8545C95F8C00364
:10846000002840F06E81FEF719FCDFF83C04FEF7AF
:10847000A2FA00F0F380002840F04F81A869D849A3
:10848000FBF7A4FED7490446FCF71AF910B9D54CFE
:108490000020E861D4492046AC61FBF7EFFED349E8
:1084A000FBF71EFFFEF72AFB286236E1DFF8000C1F
:1084B00090F8D613012900F08D80002940F0418109
:1084C000012188E0DFF8E80B90F8D013012900F0D3
:1084D0008780002940F03581012182E0706BC4491A
:1084E000346AFBF773FEC349FEF73CFAFEF720FB44
:1084F00041E0012180F8C81380F8CA1321E1D8F8BF
:108500002000BD49D8F83440FBF760FEFEF7D0FAF2
:10851000BA490646204610E0012180F8D81310E140
:10852000D8F82000B349D8F83440FBF74FFEFEF7E7
:10853000F6FA064620464FF07E51FBF747FE4FF015
:108540004241002E08BF2846C8F83400FBF73EFE23
:10855000D149FBF793FED149FBF7C2FEC8F82C00C6
:10856000EFE0706BCA49346AFBF730FEC949FEF789
:10857000F9F9FEF7E5FA002818BF254628464FF01E
:1085800042417563FBF722FEC349FBF777FEC349FF
:10859000FBF7A6FEF062D4E0012180F8CB1380F84F
:1085A000CD13CEE0032180F8E113C2490022C0E9D7
:1085B000261190F8C503C34902280A7040F0C18013
:1085C000C148FF210170BCE0012180F8C51380F88B
:1085D000C713B6E0002180F8D41380F8D613B0E0BA
:1085E000002180F8CE1380F8D013AAE02C6AB3499A
:1085F0002046FCF749F8002849D0FEF7B5FA49E0D3
:108600002C6AA7492046FCF75BF8002863D0A549EF
:10861000FEF7B8F962E0286AA749FBF7D7FDA7493A
:10862000FEF7AFFA10B9A54C0020686220464FF063
:1086300042412C62FBF7CAFD9749FBF71FFE9749A1
:10864000FBF74EFEA86195F8B413032900F276807B
:10865000FEF7C7F9DFE801F075706B6E2C6A93497D
:108660002046FCF72DF800284BD09149FEF78AF9F7
:108670004AE00020E86192488849A861FBF7FEFDC6
:108680008549FBF72DFEFEF739FA28620BE0002042
:1086900068628A48FEF793FB7F49FBF7EFFD7F494D
:1086A000FBF71EFEA86195F8B413032946D8FEF720
:1086B00098F9DFE801F046413C3F0020E86173484B
:1086C0007649A861FBF7DAFD7349FBF709FEFEF76F
:1086D00015FA28620BE0002068627148FEF76FFB14
:1086E0006D49FBF7CBFD6D49FBF7FAFDA86195F8E5
:1086F000B413032922D8FEF774F9DFE801F0221D34
:10870000181B002068626648FEF759FB6249FBF7B8
:10871000B5FD6249FBF7E4FDA86195F8B4130329A0
:108720000CD8FEF75EF9DFE801F00C07020505F151
:108730008C0001E005F190005E490160002085F8A1
:10874000B40316207870BDE8F08190F8D0130129A9
:1087500098BF80F8CE1311219DE419219BE490F875
:10876000CD13012998BF80F8CB13092193E43B2155
:1087700091E490F8CA13012998BF80F8C813072123
:10878000FFF789BC90F8D613012998BF80F8D4135D
:108790001321FFF780BC212180F8E11390F8CB135F
:1087A000FDE62D2180F8E113002169E090F8C71360
:1087B000012998BF80F8C513FFF76CBC1F2180F812
:1087C000E11390F8C81397E6312180F8E11390F88F
:1087D000CE1308E7332180F8E11390F8D413FCE6B8
:1087E000000020C10000C842000010410000A0406D
:1087F0000000204100005443000054C3000080BF2B
:1088000090F8D31341B9002104E090F8D313012963
:1088100002D1012180F8D1130D21FFF73CBC0421C6
:1088200080F8DA132321FFF736BC90F8D11301B397
:10883000012921D12C221DE0002180F8D8133721F5
:10884000FFF729BC3521FFF726BC90F8D713022982
:1088500015D001297FF475AF022111E090F8D713EC
:1088600000297FF46EAF0F21FFF715BC1521FFF72C
:1088700012BC2B2280F8E12380F8D31361E7012199
:1088800080F8D7135DE700BFD00000200000C84289
:10889000000020C1000054C30000A04000001041AF
:1088A00000005443000080BF4001002000007D43D1
:1088B000000024C200007F430000484200006944D9
:1088C0000000FA43C8010020CA010020B0B50E4CD8
:1088D0002046FCF747FA01462046FCF795F90B4D78
:1088E000287002F06BFAFFF7B1FB094C2046FCF749
:1088F00039FA01462046FCF787F96870FEF748FD13
:10890000BDE8B040FEF772BF54010020E001002036
:1089100000010020FFF7DABFF8B5DFF82C6D3078E2
:10892000072800F2BB81DFE800F004923D551DB539
:10893000D47450200121DFF8985D7060DFF8040DD9
:10894000FEF7C3F900F0F880002840F08D81AC6993
:10895000CC492046FBF798FE002800F04C81FEF73A
:1089600034F84BE150200121CE4D7060CC48FEF729
:1089700002F84FF07E51FDF789FFCD490446FBF721
:108980009FFE00281CBF0024C4F24834FEF7E7F91C
:1089900000F27E81FEF7C0F9DFE811F07E01780178
:1089A0007001760150200121BE4D7060BC48FEF779
:1089B0008CF900F0AA80002840F00681AC69C34918
:1089C0002046FBF77DFE002800F0E480B949FEF761
:1089D00039F8E2E050200121B24F7060B048FDF755
:1089E000CAFFA7F8B60397F8C803012800F09880DB
:1089F000002840F01D81BC69B349FEF723F8B34954
:108A00000546FBF75DFE002800F0E8802C46BD61BE
:108A1000E6E050200121FD4D7060A148FDF7ABFF5D
:108A2000A149FDF733FFA149FDF7EFFF00281CBF67
:108A30000024C4F2A004FEF792F900F22981FEF7A7
:108A40006BF9DFE811F0290123011B0121015020FE
:108A50000121EE4D70609248FEF737F900F0778003
:108A6000002840F08C80A8699B49FBF7AFFB9B492D
:108A7000FDF7CBFF10B9994C0020E86191492046E1
:108A8000AC61FBF7FBFB8949FBF72AFCFEF798F882
:108A9000286274E050200121DC4D70608048FDF7B1
:108AA0006AFF8249FDF7F2FE81490446FBF708FEA2
:108AB00000281CBF0024C4F24834FEF750F900F22D
:108AC000E780FEF729F9DFE811F0E700E100D900BF
:108AD000DF0050200121CD4D70607148FDF74BFF44
:108AE0007449FDF7D3FE7149FDF78FFF00281CBFC5
:108AF0000024C4F2A004FEF732F900F2C980FEF7A8
:108B00000BF9DFE801F0C9C3BBC12C6A6B492046F1
:108B1000FBF7D6FD00284BD06649FDF793FF4AE0EE
:108B20003C6A65492046FBF7CBFD002800F07180C8
:108B30006349FDF787FF6FE02C6A66492046FBF723
:108B4000A3FD002800F08480FDF73FFF83E0286A42
:108B50005F49FBF73BFB5F49FDF757FF10B95D4CE1
:108B60000020686220464FF042412C62FBF72EFB4A
:108B70004E49FBF783FB5349FBF7B2FBA86195F81D
:108B8000B413032900F28480FEF7C6F8DFE801F091
:108B9000847E767C0020E8619E484A49A861FBF704
:108BA0006DFB4249FBF79CFBFEF70AF828620BE0DD
:108BB000002068624148FDF7F2FE3C49FBF75EFB8E
:108BC0004049FBF78DFBA86195F8B41303295FD8E2
:108BD000FEF7A2F8DFE801F0605A52580020F86171
:108BE00038492046FBF74AFB3049FBF779FBFDF794
:108BF000E7FF38621CE00020E86138483149A8618D
:108C0000FBF73CFB2949FBF76BFBFDF7D9FF28621B
:108C10002AE00020786229484FF042413862FBF791
:108C2000D5FA2249FBF72AFB2649FBF759FBB86125
:108C300097F8B41303292BD807F18800DFE801F077
:108C40002C26020507F18C0020E007F190001DE0C2
:108C5000002068621F48FDF7A2FE1449FBF70EFBD7
:108C60001849FBF73DFBA86195F8B41303290FD809
:108C7000FEF752F8DFE801F0100A020805F18C0057
:108C800004E000BF0000FA4305F1900014490160C0
:108C9000DE48002180F8B41308203070F8BD00BF12
:108CA000E2010020D80600200000A0C00000A04083
:108CB00000004843000080BF00007D430000544393
:108CC000000024C200001041000020C10000C84282
:108CD0000000484200006944000020410000FA43BF
:108CE00000007F4370B5484D0446287848B14FF0E6
:108CF00080400221FF2202F0A7FA94F8C00328B1B5
:108D000070BD94F8C00320B1012000E0002028705D
:108D100070BDE74890F8C503022804D101206870AF
:108D2000D4F8B80029E094F8BC03012813D0D0B9D6
:108D300024683F492046FBF7A7FC6E7888BB36497C
:108D40002046FBF7AFFC60BB002ED9D14FF080402E
:108D50000221322221E094F8BE0340B1012802D161
:108D600094F8D40330B394F8D4030128C8D16878B8
:108D700008B901206870D4F89400FBF73DFD294A3A
:108D8000294BFBF792FB294B0022FBF7E7FAFBF795
:108D90001AFD02464FF080400221BDE8704002F00B
:108DA00053BA002EACD1012068704FF080400221F0
:108DB0000022F2E768781649012804BF0020687095
:108DC0002568FDF762FFB0B11349FDF75EFF00288B
:108DD000EBD10F492846FBF765FC0028E5D1284672
:108DE000FBF70AFD0D4A0E4BFBF75FFBFBF717FD88
:108DF000C4F8B000C1E7074802218F22C4F8B000D0
:108E00004FF08040C9E700BFB8010020D80600201D
:108E100000007A430000C84200008C429A99999958
:108E20009999D93F14AE47E17A14F23F00003E40D1
:108E3000000070420348017809B90121017002F075
:108E400071BD00BFEE05002058B100220023282B81
:108E500002D0C2500433FAE780F82C10002181625E
:108E600000E001210846704710B5224CFDF71CFFB9
:108E70000180FDF722FEFDF7BABE00BF1D48016864
:108E800041F080010160704708480168C9071CBFB4
:108E9000002070470168490744BF012070470068FF
:108EA000C0064FF0020058BF032070470C2002405C
:108EB00070B50446FFF7E8FF0025661E45F1000186
:108EC000020604D119B1FFF7DFFF3446F5E7002CA5
:108ED00008BF0420C0B270BD10B5064C216841F037
:108EE000020121606060FDF705FD216821F00201AB
:108EF000216010BD10200240FCF720B80248034951
:108F00000160034901607047042002402301674566
:108F1000AB89EFCD81B00168D0F801008DF8001069
:108F20008DF801009DF801009DF8001041EA002035
:108F3000ADF80200BDF8020001B0704710B50B4C4F
:108F40000146012207232046FEF7BAF920460121F7
:108F5000FEF708FA20460221FEF7ADF90028F9D005
:108F60002046BDE81040FEF7D6B900BF00240140FE
:108F700070B5254C4D4D2046A847FBF7C6FB4C4E1F
:108F8000B061A01CA847FBF7C0FBC6F89400201DE9
:108F9000A847FBF7BAFB7066A01DA847FBF7B5FB17
:108FA000F06704F10800A847FBF7AFFBB06604F1D7
:108FB0000A00A847FBF7A9FBFDF7D8FCFBF7A5FBC8
:108FC000F06604F10E00A847FBF79FFBFDF7BCFC21
:108FD000FDF7E3FEFDF7BEFEFDF799FEFDF770FE1F
:108FE000FBF793FBB06204F11A00A847FDF73FFEC0
:108FF000FDF709FEFDF7DFFDFDF7E2FCFDF7CAFC1A
:1090000086F8DF0370BD00BF00F40108D806002019
:1090100070B5254C254D2046A847FBF776FB244E1E
:10902000B061A01CA847FBF770FBC6F89400201D98
:10903000A847FBF76AFB7066A01DA847FBF765FB16
:10904000F06704F10800A847FBF75FFBB06604F186
:109050000A00A847FBF759FBFDF788FCFBF755FB17
:10906000F06604F10E00A847FBF74FFBFDF76CFC20
:10907000FDF793FEFDF76EFEFDF749FEFDF720FEBE
:10908000FBF743FBB06204F11A00A847FDF7EFFDC0
:10909000FDF7B9FDFDF78FFDFDF792FCFDF77AFCBA
:1090A00086F8DF0370BD00BF00FC0108158F0008C3
:1090B000D80600202DE9FC41DFF88048E07850BB5D
:1090C0000120E0701E2000F03DFCDFF87478DFF82E
:1090D0007C654FF00008FDF765FECDF8008007F1D4
:1090E0000800B04707F11C00FDF792FD07F13000C2
:1090F000FDF78EFD642507F14400FDF753FE009552
:10910000B04707F15800FDF74DFE0095B047DFF876
:109110004005FDF77DFDDFF838650025062D08D0F8
:1091200006EB8500406900F065FB611901350871A7
:10913000F4E72079022817D003283FD1DFF85C5EDE
:10914000FDF707FC3AD195F8C803012828D1286A11
:109150004FF042412867FBF739F8CE49FBF78EF80C
:10916000CD49FBF7BDF81CE0DFF8305E95F8C5038C
:10917000022823D0C948CA49EA6FC5F8B6030120BE
:10918000FDF7C3FB686EC5E90601C349FBF776F836
:10919000C049FBF7A5F8FDF713FD286200200AE09F
:1091A000A869BF496866012085F8B40385F8BA0349
:1091B000FDF756FCE967DFF8341C48716079032835
:1091C0001ED0022842D1DFF8945F95F8C50302282B
:1091D0003CD0B248B249D5F88020C5F8B603022089
:1091E000FDF793FBA86EC5E90601AB49FBF746F80E
:1091F000A849FBF775F8FDF7E3FC2862002022E0A0
:10920000DFF8585FFDF7A5FB20D195F8C8030128CA
:109210000CD1286A4FF042416867FAF7D7FF9D49A1
:10922000FBF72CF89C49FBF75BF800E0A8699C4928
:10923000A866022085F8B4030120FDF711FC85F82B
:10924000BA03C5F88010DFF8A41B4871A079032881
:109250001ED0022844D1DFF8045F95F8C503022828
:109260003ED08E488E49D5F88420C5F8B603032039
:10927000FDF74BFBE86EC5E906018749FAF7FEFFEB
:109280008449FBF72DF8FDF79BFC2862002024E0C1
:10929000DFF8C85EFDF75DFB22D195F8C803012811
:1092A0000CD1286A4FF04241A867FAF78FFF79493D
:1092B000FAF7E4FF7849FBF713F800E0A869E866DD
:1092C00003207749D5F8942085F8B403012085F868
:1092D000BA03C5E92121C5E92311DFF8101B487144
:1092E000E079042816D002286BD1DFF8000BDFF8F4
:1092F000B45F0021417195F8DF03032831D00228C3
:1093000026D001285DD1A078012824D0DFF83006CE
:10931000217055E0DFF8D40A00214171DFF8840F95
:1093200090F8DF03022809D001284AD1A07801284B
:1093300007D0C5480121017000203AE0A07801283B
:1093400030D12078012836D0D8BBBF48012137E082
:10935000A078012829D1207801282FD088BBBA48CD
:109360002EE095F8B4030130C1B2032988BF012073
:1093700085F8B4030138C1B202290CD8BA48BB4AF7
:10938000FDF7A2FBB449FAF779FFB249FAF7A8FF53
:10939000FDF716FC2862B148B149FDF76DFC686223
:1093A000E8610EE0A848052101E0A748042101700A
:1093B0000120207005E0A448052101E0A248042115
:1093C0000170207A042813D002286ED1A548C04D20
:1093D0000021417195F8DF03032830D0022824D002
:1093E000012862D1A078012822D0974802210EE0FE
:1093F0009C4800214171B64890F8DF03022809D04B
:10940000012852D1A078012807D08F48032101708C
:1094100000203DE0A078012831D12078012830D00B
:10942000002842D1884803213EE0A07801282BD1B2
:109430002078012836D0C0BB8348022134E095F85B
:10944000B403411E022838BF032185F8B413481E17
:10945000C1B202290CD88448844AFDF735FB7E4905
:10946000FAF70CFF7B49FAF73BFFFDF7A9FB2862EF
:109470007A487B49FDF700FC6862E86115E001204D
:109480002070714807210FE06F480621017001200C
:1094900020700AE00000A04000001041E803E8034B
:1094A00000007F43684806210170607A032827D0B6
:1094B000022840F08E806B48854D0021417195F85F
:1094C000DD0303285CD0022843D0012840F08180CE
:1094D000607801285BD101205021A0705A4841607A
:1094E00095F8DF13207802297AD001297ED1013046
:1094F000C1B22070022924BF0021A4F8011075E038
:10950000584801214171724890F8DB13032918D0A3
:1095100002295ED190F8C513022907D8C90040F28C
:109520000222C9B222FA01F180F8C5134FF47A7110
:10953000A0F8B8130021C0F8A810C0F8BC10BDE80E
:10954000FC8190F8C513012940D0002941D10121A7
:109550003DE095F8C503022807D8C00040F202217B
:10956000C0B221FA00F085F8C5034FF47A70A5F86F
:10957000B8030020C5F8A800C5F8BC00BDE8FC8110
:1095800095F8C503012826D018BB012024E095F8E2
:10959000B4030130C1B2032988BF012085F8B403A8
:1095A0000138C1B202290CD82F48304AFDF78CFA95
:1095B0002949FAF763FE2749FAF792FEFDF700FB07
:1095C000286226482649FDF757FB1DE0002180F858
:1095D000C513BDE8FC81002085F8C503BDE8FC810A
:1095E00008B3012802D10020207003E0C0B2012896
:1095F0000ED0E0B94FF47A700021C5F8B6031D48CB
:1096000001701648C5F89C006862E861BDE8FC81FD
:109610001748002101704FF07A70C5F8B6030F4863
:10962000C5F8980009E00020A070022020800B48B7
:109630000021C5F8B613C5F89C00C5E90200BDE8D5
:10964000FC8100BFE2010020080000209199000881
:10965000D40000200000A0400000104100007F4323
:10966000E803E8034001002018C4000824C40008EF
:10967000C8010020C901002070B5D649174B194C0C
:109680001548144A00250126CB67C1F88040144BC9
:10969000154C8861C8660220C1F8942081F8D15326
:1096A00081F8CB6381F8C85381F8C253C1F8842094
:1096B00081F8D45381F8CE538D6281F8DF6381F84D
:1096C000DD6381F8C55381F8DB03C1E9193470BD4E
:1096D000D80600200000A0420000BE43000048421F
:1096E0000000A043000070420000AF43416170479A
:1096F00001617047024A4FF6FF71C0E900127047DE
:1097000000040001F0B58B790A88032B0AD05BB9FD
:109710004979282913D0182912BF01F00F010261DD
:1097200008210EE000210CE00C79C97903F0080350
:1097300004F0040401F003012344194401E04261F0
:109740000821130616D000230F240025082D11D060
:1097500022FA05F6F6070AD0076804FA03F627EAA4
:109760000606066001FA03F607683E430660043306
:109770000135EBE7B2F5807F17D3120A00230F24DF
:109780000025082D11D022FA05F6F6070AD0476801
:1097900004FA03F627EA0606466001FA03F647686C
:1097A0003E43466004330135EBE7F0BD8068084076
:1097B000401AB0FA80F040097047000070B5C0F35D
:1097C00007424FF0FF3352FA90F503FA02F4C5F165
:1097D0002005EB40064D2340040EC0B26659904070
:1097E000002926EA030318BF0343635170BD00BF7D
:1097F0000000014010B5044681880068FFF7D6FFDD
:10980000002818BF0120E279042A46D8A179DFE8B0
:1098100002F003391D320E00814205D100200221E1
:10982000E0732081E171A0810020608110BD814240
:1098300035D1A089E17C0130A08171B382B20020D2
:109840008A4222BFA081042010BD10BD81421EBFEC
:109850000020E07110BD2089217C0130208182B27E
:1098600000208A42F1D32081A07B0121E1710130E7
:10987000A073012010BD814217D100200221A060F9
:10988000E17110BD814221D12089617C01302081AC
:1098900080B2884201D3E07B98B3002010BD002045
:1098A0000221E073E171208110BD6089A17C01304B
:1098B000608182B200208A42C7D3A17BE071A0738D
:1098C000481EB0FA80F04009400010BD02212289F4
:1098D0000020E171617C60818A420CD2A07B60B182
:1098E000012803BF0320E071002000201EBFE071AB
:1098F000A073052001E0A07302200021E173218103
:1099000010BD0420E0714FF08070E060032010BDB6
:1099100080B5FFF7CFFBFEF7FFFF0848417801292C
:1099200004D107494A68013A4A6000D080BD00224C
:10993000A0F801205020486080BD00BFE201002057
:109940000800002008B1C34908807047E8B12DE93C
:10995000F0410E46B9B1B6F800800C4D04464046C1
:10996000A847074620747088A8476074B088A84745
:10997000A074F088A847E074380604D1B8F1000F4D
:109980001CBF01202074BDE8F04170473D9C0008D9
:109990001CB5049CADF800106946ADF80430ADF874
:1099A0000220ADF80640FFF7D1FF1CBD8A4890F8B1
:1099B000E413012904D190F8C00308B9FFF7A8BF48
:1099C000704700BF844890F8E403012808BFFCF703
:1099D00019BA7047D8060020FEB5044600267E4816
:1099E00035498DF80B60ADF808608DF80760D0F848
:1099F00094502846FAF73AFE98B9A0088DF8076007
:109A00004A2830D864200021ADF808002B48FDF723
:109A1000DBF8132948D8FCF782FF45D2FCF73CFF5E
:109A2000F5E725492846FAF74BFE002600283ED1E7
:109A3000284600210027FAF719FEC0BBA0088DF8C0
:109A400007704A281FD864200021ADF808001B4881
:109A50002930FDF7B9F813292BD8FCF760FF23D282
:109A6000FCF71AFFF5E74FF496701421ADF80800E3
:109A70001248FDF7A9F8272916D8FCF750FF13D292
:109A8000FCF70AFFF5E74FF496701421ADF80800D3
:109A90000A482930FDF798F8272905D8FCF73FFF39
:109AA00002D2FCF7F9FEF5E79DF80B10465C70B2A8
:109AB000FEBD0026FBE700BF0000A04174000020AF
:109AC00082B04FF000604FF4804100F00FF902F0D7
:109AD00001F902F085F801F0A3FF02F04DF802F061
