:020000040800F2
:10400000080F002085410008E3670008B553000849
:10401000E1670008D94A0008257100080000000087
:10402000000000000000000000000000B76D000864
:10403000DB4A000800000000B56D0008B96D0008FB
:104040009F4100089F4100089F4100089F410008D0
:104050009F4100089F4100089F4100089F410008C0
:104060009F4100089F4100089F4100089F410008B0
:104070009F4100089F4100089F4100089F410008A0
:104080009F4100089F4100089F4100089F41000890
:104090009F4100089F4100089F4100089F41000880
:1040A0009F4100089F4100089F4100089F41000870
:1040B000856F00089F4100089F4100089F4100084C
:1040C0009F4100089F4100089F4100089F41000850
:1040D0009F410008B97000089F4100089F410008F7
:1040E0009F4100089F4100089F4100080000000018
:1040F00000000000000000000000000000000000C0
:10410000000000009F410008B56F0008000000009B
:104110009F4100089F4100080000000000000000CF
:104120009F4100089F4100089F4100089F410008EF
:10413000000000000000000000000000000000007F
:104140000000000000000000000000009F41000887
:1041500000000000000000009F4100089F4100088F
:104160000000000000000000000000009F41000867
:10417000DFF80CD000F034FC004800478D940008B4
:10418000080F00200648804706480047FEE7FEE784
:10419000FEE7FEE7FEE7FEE7FEE7FEE7FEE7FEE7F7
:1041A000116F000871410008D2B201E000F8012B44
:1041B000491EFBD270470022F6E710B513460A46A7
:1041C00004461946FFF7F0FF204610BDF0B480EA20
:1041D0000102D40F4200B2EB410F02D20246084660
:1041E00011464A0042D0C30DDDB2C1F3C752AD1A29
:1041F000202D35DAC1F3160141F4000204B1524218
:10420000C5F1200602FA06F12A411044B3EBD05F53
:1042100023D0C4B1012DA0EBC35009DCF0BC4FF09A
:10422000004202EAC352DBB200F5000000F04DBBD1
:10423000400000F1807000EBC350A0F1807040EAB4
:10424000D170490009E0490841EAC071A0EBC350B0
:1042500000F50000400800EBC350F0BC00F02CBBA0
:104260006142012202EB4101001BF6E7F0BC7047FE
:1042700081F00041AAE780F00040A7E780EA010250
:1042800010B502F00043400022D04A001FD0010EBA
:1042900001EB1261C0F35600C2F3560240F4000075
:1042A00042F40002A0FB022000047F39140400D075
:1042B000401C50EA124001D44000491EC2B20C0614
:1042C00004EBD010401C4008802A02D003E00020FC
:1042D00010BD20F00100002900DA0020184310BDB5
:1042E00030B480EA010202F0004530F0004221F0D3
:1042F000004013D090B1C30DD40DC2F31601C0F32A
:104300001600E41A41F4000140F400027D349142A9
:1043100001D3641C00E04900002C02DA30BC00200C
:1043200070474FF400000023914201D3891A0343E0
:1043300040084FEA4101F7D151B1914202D14FF00B
:10434000004105E002D24FF0010101E06FF00101F0
:1043500003EBC450284430BC00F0AEBA2DE9FE4F48
:10436000804681EA0300C00F0C46009021F0004116
:1043700023F00045B8EB0200A94105D24046214692
:1043800090461C460B46024623F00040104347D09F
:10439000270DC7F30A00C3F30A510290401A019097
:1043A00040286BDAC3F3130040F4801B0098924658
:1043B00020B10023D2EB030A63EB0B0B01985946A3
:1043C000C0F14002504600F046FA06460D465046FF
:1043D0005946019A00F05EFA10EB08006141002492
:1043E00087EA115284EAE7731A4340D0009A62B315
:1043F000019A012A4FEA075215DC001B61EB02010A
:104400004FF0004202EA0752CDE90042001C41F59C
:10441000801132462B4600F095FA03B0BDE8F08FCC
:1044200040462146F9E7001B61EB0201001C41F503
:10443000801300185B412018A2F5001747EB030119
:1044400040EAD570B6196D4111E06D084FEA3606A5
:1044500045EAC0754FEA0752001B61EB0201001CE0
:1044600041F5801149084FEA3000001951413246A8
:104470002B4603B0BDE8F04F00F055BA009801227A
:1044800040000023D0EB020263EBE073009821466A
:104490004FEAE074B8EB000061EB0401E9E783F058
:1044A00000435BE781F0004158E72DE9FE4F81EAC8
:1044B000030404F0004421F0004100944FF0000B8D
:1044C00023F0004350EA01045ED052EA03045BD0BB
:1044D000C3F30A54C1F30A552C44A4F2F3340194F3
:1044E000A0FB0254C1F3130141F48011C3F3130381
:1044F00043F4801301FB024400FB034E840A970A35
:1045000044EA815447EA8357A4FB076802958D0A61
:1045100005FB07854FEA932C04FB0C542705029DED
:104520004FEA065847EA1637B5EB08056EEB070C5D
:10453000870E920E47EA811742EA8312A7FB020117
:10454000B6EB0B0164EB00042B0D43EA0C335E1851
:1045500044EB1C50DA465146E7FB0201C5F3130455
:104560004FEA0B3343EA14534FEA0432019C43EA07
:104570000603A4F10C040294009CCDE900B400F001
:10458000E1F903B0BDE8F08F00200146F9E72DE91D
:10459000F04D81EA030404F0004B21F0004514467D
:1045A0004FF0000A23F0004150EA050220D054EAFF
:1045B00001021DD0C5F30A570246C5F31303C1F328
:1045C0001300C1F30A5640F4801543F48013A7EB9F
:1045D0000608101BD64608F2FD3873EB050002D31F
:1045E00008F1010801E092185B41B8F1000F03DA0D
:1045F00000200146BDE8F08D00204FF480110646F2
:1046000084460EE0171B73EB050705D3121B63EB03
:10461000050306434CEA010C49084FEA30009218A2
:104620005B4150EA0107EDD152EA030012D082EA61
:10463000040083EA0501084305D0101BAB4106D2F4
:104640000122002306E000224FF0004302E06FF059
:10465000010253101AEB06004CEB085110EB0A0054
:1046600041EB0B01BDE8F04D00F05DB9002801DB26
:10467000C0F10040002901DBC1F10041814201D8B5
:104680000120704700207047002801DBC0F1004086
:10469000002901DBC1F10041814201D201207047B4
:1046A00000207047002801DBC0F10040002901DB39
:1046B000C1F10041814201D30120704700207047C1
:1046C000002801DBC0F10040002901DBC1F10041FD
:1046D000814201D90120704700207047002801DB8A
:1046E000C0F10040002901DBC1F10041814201D14C
:1046F0000120704700207047C10F80EAE070084435
:10470000CA079623002100F0E0B896230022114644
:1047100000F0DBB80EB540F2334102910021CDE943
:1047200000110A460B4600F00DF903B000BD00F081
:10473000004220F00040C10DC0F3160040F400001C
:104740007F2901DA00207047962903DCC1F1960128
:10475000C84001E096398840002AF4D040427047B2
:1047600020F00040C10DC0F3160040F400007F2986
:1047700001DA00207047962903DCC1F19601C84098
:10478000704796398840704770B5C1F30A5201F0FE
:1047900000450024C1F3130140F2FF3341F48011BE
:1047A0009A4201DA002070BD40F233439A42A2F2ED
:1047B000334203DC524200F05DF800E090402C43AD
:1047C000F1D0404270BDC1F30A5210B5C1F31301DC
:1047D00040F2FF3341F480119A4201DA002010BD0B
:1047E00040F233439A42A2F2334203DC524200F0D9
:1047F00041F810BD904010BD00F0004230F0004084
:104800000AD0C10D01F56071C0F3160042EA0151F2
:10481000C20840071143704700200146704701F06D
:10482000004330B421F0004150EA010206D00A0DE5
:10483000A2F56072C1F31301002A02DC30BC002033
:104840007047440F44EAC104C100E01830BC00EBDB
:10485000C25000F031B8202A04DB203A00FA02F1FD
:10486000002070479140C2F1200320FA03F319435E
:1048700090407047202A04DB203A21FA02F0002100
:10488000704721FA02F3D040C2F120029140084360
:1048900019467047202A06DBCB17203A41FA02F06E
:1048A00043EAE07306E041FA02F3D040C2F120028D
:1048B00091400843194670470029A8BF7047401C23
:1048C000490008BF20F00100704710B4B0FA80FC26
:1048D00000FA0CF050EA010404BF10BC704749B163
:1048E000CCF1200421FA04F411FA0CF118BF0121D3
:1048F00021430843A3EB0C01CB1D4FEA00614FEAB3
:10490000102042BF002010BC704700EBC350104481
:104910000029A4BF10BC7047401C490008BF20F00C
:10492000010010BC704710B5141E73F1000408DAC2
:10493000401C41F1000192185B411A4301D120F063
:10494000010010BD2DE9F04D92469B4611B1B1FA20
:1049500081F202E0B0FA80F220329046FFF77BFF4E
:1049600004460F4640EA0A0041EA0B0153465A4604
:10497000084313D0114653EA010019D0C8F1400290
:104980005046FFF777FF05460E46504659464246C9
:10499000FFF761FF084305D0012004E020463946B7
:1049A000BDE8F08D0020054346EAE0762C4337430E
:1049B0000A986305E40AA0EB08000022FD0A44EA15
:1049C00047540A3002D500200146E9E701051019D5
:1049D0006941DDE9084500196941BDE8F04DA2E7EC
:1049E0001CB509480090094801900546009C06E066
:1049F000E06840F0010394E8070098471034AC42A7
:104A0000F6D3FFF7B9FB00003CE401085CE40108C1
:104A100070B58C1810F8015B15F0070301D110F880
:104A2000013B2A1106D110F8012B03E010F8016BAD
:104A300001F8016B5B1EF9D12B0705D40023521E30
:104A40000DD401F8013BFAE710F8013BCB1A921C98
:104A500003E013F8015B01F8015B521EF9D5A14296
:104A6000D8D3002070BD000010B50446007902289C
:104A700015D001280AD088B9E068804760790128FC
:104A800021D058B90120207102201FE0A068804782
:104A9000104801780139017008060DD010BDE0689A
:104AA00080470C480178013901700806F6D14FF4AF
:104AB0000070A080002009E061790220207129B1F6
:104AC000012902D0EAE7012020711920014908706C
:104AD00010BD00BFE6010020FEE770472DE9FE4F44
:104AE0000646109892460E9A02930D9C2C4D9846BD
:104AF0000090581A622A28BF622280B2052A98BF05
:104B00000522C2F1640250436422B0FBF2F0524627
:104B100001EB000BABEB540087B2A1EB54001FFA82
:104B200080F930463B464946A84711980C9A3946C9
:104B300023460090701E85B2284602F069FA0F984D
:104B40004346DFF85C80524600900BEB540084B281
:104B500030462146C047DDF840B028464946324637
:104B60003B46CDF800B0C0473246029E284621465B
:104B7000CDF800B03346C0470AF1010049463B4634
:104B8000CDF800B085B250462A46C047504621466F
:104B90002A463346CDF800B0C047BDE8FE8F00BFBF
:104BA000B95500082DE9F843089E07469846154672
:104BB0008946642E28BF6426012E98BF0126101A4C
:104BC00080B2FFF7A2FD0446C6F16400FFF79DFD29
:104BD000D649FFF785FB2146FFF750FBFFF7A7FDFE
:104BE0000999281A434684B238460091494622461C
:104BF00000F0E2FC0A9849462A46434600902046C7
:104C000000F0DAFCBDE8F883438E4FF6FF72934262
:104C10001CBF5A1C428670B5CB1C0021062B24D821
:104C2000DFE803F0042314230823200001F019FE19
:104C300004211AE0038C41869A4238BF012180F892
:104C400034104FF0010138BF09210EE0038C41867A
:104C50009A4238BF012180F834104FF0020138BF6A
:104C60000A2102E001F0FDFD0321024612F8305F47
:104C700012F8093C12F8036CDCB202F8033C84F031
:104C800001033343B3FA83F35B094DB1002B5ED0CC
:104C9000002280F83020C285826280F82C2056E005
:104CA000458D6DB1013D45852D0401D0002508E0FD
:104CB00090F82C50012D03D1002101F0D2FD0521E7
:104CC0000125BCB1002B42D0024632F8283F32F811
:104CD000104CA34239D3448BA3422FD290F82C30EE
:104CE00085F00104013B18BF012323432DD1838BA1
:104CF00043852AE0038D048B013303859BB2A342D5
:104D00000AD12DB990F82C40012C01D1062101E0E7
:104D100000F12C0201241470428B934217D3C38DEF
:104D2000C28B01339CB2B4FBF2F505FB1242002AA0
:104D300018BF1A46C28508BF082108E0002180F884
:104D40003010C185116011710721002010800846C4
:104D500070BD80B504F012FA0138B0FA80F0400955
:104D600080BD000070B5044681880068374DA847B3
:104D7000374EA1893070A068A84770702069A18A59
:104D8000A847A37D94F82420317884F8270084F87C
:104D9000260083B191421AD0737894F8255085F09B
:104DA0000102DBB21A43B2FA82F25209012911D18F
:104DB0002AB3012210E0914209D0727884F82410BD
:104DC000012A84F8252018BF4FF0FF3249B1022193
:104DD00000220FE0CAB1FF22002384F8253084F8B6
:104DE0002410D3B26FF00201012B08BF0321002B66
:104DF00008BF0221002808BF0A4650B270BD55B94D
:104E0000012B08D1FF220123E7E78DB9012B0FD138
:104E100001230122E1E700229D4208BF002BC8D0F8
:104E20005D4083F00106354308BF4FF0FF32D4E701
:104E30009D4208BF002BCED085EA030283F0010516
:104E40002A43B2FA82F25209C7E700BF534D000865
:104E5000A8010020F8B5314E0025012704464FF483
:104E60003371FA22A0F85C50056080F8C05380F8D6
:104E7000BE534563C0E90A5580F8BC73066286617B
:104E8000E830FFF791F94FF0013026492A4AA4F89B
:104E9000CD734FF4807784F8D653A4F8D353A4F895
:104EA000D05384F8C85384F8C45384F8B453C4F876
:104EB000B450E666C4F8B05084F8E35384F8C253A3
:104EC00084F8BA53A4F8B653C4F8AC50A56425646A
:104ED000C4F8DD030220A4F8CA7384F8DC0340F2AE
:104EE0000120A4F8DA030E48C4E919100E4811494C
:104EF00060640E48C4E91F211421C4F8B8000C48AE
:104F0000C4F8840040F20110A4F8E10304F1940015
:104F1000FFF751F9A4F8E473F8BD00BF0000BE43E9
:104F20000000AF430000A04300007A440000C842E4
:104F30000000704200004842000020422DE9F04786
:104F4000DFF85C9499F80000032800F2C880DFE8DD
:104F500000F002C80BAADFF8545495F8E4030028C7
:104F600000F0E4810120D8E1EE49DFF84054EE4A38
:104F7000DFF83C6401F11000884699F80B10924666
:104F800011F0010708BF02F10E0095F8C213B047F7
:104F900008F11200002F08BF0AF1100095F8C8139D
:104FA000B04708F11400002F08BF0AF1120095F86D
:104FB000CB13B04708F11600002F08BF0AF1140008
:104FC00095F8D113B04708F11804002F08BF0AF173
:104FD0001604A86AFFF7ABFB01462046B04708F16C
:104FE0001A00002F08BF0AF1180095F8CE13B04739
:104FF00008F11C00002F08BF0AF11A0095F8D4131D
:10500000B04708F11E00002F08BF0AF11C0095F8F8
:10501000C513B04708F12000002F08BF0AF11E0099
:1050200095F8DB13B04708F12200002F08BF0AF102
:10503000200095F8DD13B04708F12400002F08BFC9
:105040000AF1220095F8DF13B04795F8C20389F8FA
:10505000010095F8C80389F8020095F8CB0389F898
:10506000030095F8D10389F8040095F8CE0389F878
:10507000050095F8D40389F8060095F8C50389F86A
:10508000070095F8DB0389F80800A86AFFF74FFBD3
:10509000A9F8140095F8DD0395F8DF1389F80900E5
:1050A00089F80A1036E1C04899F80B20BD4926302E
:1050B000D20708BF01F12400B9F8161003F064FC10
:1050C00003F06CFC012089F80000B9F816000130EB
:1050D000A9F8160099F80B00013089F80B00BDE81B
:1050E000F087B9F80C00FFF710FBDFF8C08201462B
:1050F000D8F81800FFF7F2FA002800F08680B9F817
:105100000E00FFF702FB0146D8F89400FFF7E6FA1D
:1051100000287AD0B9F81000FFF7F7FA0446D8F85B
:1051200064002146FFF7DAFA00286ED0B9F81200C1
:10513000FFF7EBFA0546D8F87C002946FFF7CEFAD0
:10514000002862D0D8F868002146FFF7C7FA002887
:105150005BD0D8F880002946FFF7C0FA002854D069
:10516000D8F86C002146FFF7B9FA00284DD0D8F8DE
:1051700084002946FFF7B2FA002846D098F8C20307
:1051800099F80110814240D198F8C80399F80210AB
:1051900081423AD198F8CB0399F80310814234D177
:1051A00098F8D10399F8041081422ED1B9F814006F
:1051B000FFF7ABFA0146D8F82800FFF78FFA20B3C3
:1051C00098F8CE0399F8051081421ED198F8D403BF
:1051D00099F80610814218D198F8C50399F807107C
:1051E000814212D198F8DB0399F8081081420CD162
:1051F00098F8DD0399F80910814206D198F8DF0389
:1052000099F80A1081423FF46AAF03F007FC66493F
:1052100099F80B000C4610F001068A4608BF04F509
:105220000064204603F0E8FBD8F81800FFF77FFA87
:105230005F4F01F01DFC0AF10204002E04BF4FF67F
:105240000244C0F60104D8F89400FFF770FA01F0A8
:105250000FFC0AF10404534D002E08BFAC1CD8F813
:105260006400FFF764FA01F003FC0AF10604002E63
:1052700008BF2C1DD8F87C00FFF759FA01F0F8FBA5
:105280000AF10804002E08BFAC1DD8F86800FFF72B
:105290004EFA01F0EDFB0AF10A04002E08BF05F1F9
:1052A0000804D8F88000FFF742FA01F0E1FB0AF1A8
:1052B0000C04002E08BF05F10A04D8F86C00FFF7B3
:1052C00036FA01F0D5FB0AF10E04002E08BF05F1F5
:1052D0000C04D8F88400FFF72AFA01F0C9FBD8F8CB
:1052E0001800D8F86C40D8F88450D8F89460FFF7CC
:1052F0001EFAA9F80C003046FFF719FAA9F80E00BB
:105300002046FFF714FAA9F810002846FFF70FFA15
:10531000A9F8120099F80000013089F80000BDE8F2
:10532000F08700BF00F4010802FC01081E4C1521A3
:10533000204602F081FB4FF6FF76B04214D02046A3
:10534000152102F079FBB0420ED004F1260003F0E3
:1053500071FBA9F818001348243003F06BFBB9F86F
:105360001810814206D80FE02046152102F064FB98
:10537000B04202D003F08CFB0BE004F50060152175
:1053800002F05AFBB04202D003F0D2FB01E003F07E
:105390005BFE02F0AFF8012085F8E403BDE8F0877A
:1053A0008801002002FC010800F40108D406002056
:1053B00089890008FEE700002DE9F84FDFF8B0B357
:1053C00007462A20984692468946D847F64C4FF41D
:1053D0000045380AF5494FF480666560C4F8FC035F
:1053E000F8B20E60C4F80068256065600F46C4F826
:1053F000FC034FEA1A200E6001F04FFC5FFA8AF0BE
:105400000E6001F04AFC2B200E60C4F80068256095
:10541000D8474FEA192065605946C4F8FC035FFA83
:1054200089F03E6001F039FC4FEA18203E6001F03F
:1054300034FC5FFA88F03E6001F02FFC3E60C4F857
:10544000006825602C20BDE8F84F0847F8B5CA4D24
:105450000446002668882988013901388AB283B257
:1054600000200021FFF7A8FF2888864228BFF8BD4A
:1054700000276888874204D2204600F095FC013757
:10548000F7E70136F0E700BFEF492B2200288A81B9
:105490000A4A8A60024618BF01228A714FF4F072EC
:1054A00018BF4FF4A0724A8000284FF4A07218BFB2
:1054B0004FF4F07203200A8000F07AB92C002A0021
:1054C0002DE9FE4F0C46A3EB010B111A05460029EE
:1054D000029101DD012008E005D0029840420290CF
:1054E0004FF0FF3001E000200290BBF1000F01906F
:1054F00001DD012607E019BFCBF1000B4FF0FF36AD
:105500004FF0000B002602985F464FF000084FF066
:1055100000094FF0000A584588BF07461FFA88F077
:105520008742B8BFBDE8FE8F0C9AA8B2A1B200F0C6
:1055300016F80AEB0B0008F10108B842C8BF344462
:105540000299019A4944B942C8BF1544B0EB070A11
:10555000D8BF8246B1EB0709D8BF8946DEE710B550
:10556000144602460B46FFF727FF2046BDE81040D1
:1055700000F01ABC2DE9F843DDF82090DFF8348004
:105580001C460B4615460E460746CDF80090C04710
:10559000384631463A4601F099FA384621462A46BD
:1055A00001F094FA284631462A4601F08FFABDE808
:1055B000F88300BFC15400082DE9F8438146501E0E
:1055C000154698460E4682B2581E83B24846FFF7EB
:1055D000F3FE089CB0B2404528BFBDE8F8834F46B3
:1055E000B8B2A84204D2204600F0DEFB0137F7E74C
:1055F0000136EFE72DE9F0415A4804265A4D06607E
:105600007820A847594CF020C4F81068A8472046D5
:105610004FF6FF71A04603F053FD554ED320B0471F
:10562000544FB847884CA080B847A080B8470002C4
:10563000A080B847A1880843A080C020B047884F09
:105640000F20B8470F20B847C120B0470F20B847F8
:10565000C520B0470020B8475720B8478020B8473A
:10566000B120B047A020B847B420B0470220B847C7
:105670003620B0474820B8473A20B0475520B847B1
:105680002120B0470020B847E920B0470020B847A4
:10569000F720B047A920B8475120B8472C20B84779
:1056A0008220B847E020B0470020B8470920B8471B
:1056B0000C20B8470220B8470E20B8470520B8474D
:1056C0002F20B8474620B8474720B8470420B8479E
:1056D0000E20B8470B20B8472D20B8473620B847D2
:1056E0000F20B847E120B0470020B8471020B84746
:1056F0001320B8470320B8471020B8470620B84702
:105700003A20B8474620B8475120B8470620B84746
:105710001020B8470D20B8473320B8473720B84786
:105720000F20B847B620B0470220B8472220B8471C
:105730003B20B8470120FFF7A7FE2C20B047782078
:10574000A8471120B047C820A8470020FFF77EFED9
:105750002920B04708F580601021BDE8F04103F032
:10576000AFBC00BF141401403DB30008000C014061
:10577000C15D00087D5700084806002010B50020D4
:1057800004F074FA0848094A4FF400414FF40063EA
:1057900041601360D0F8F843C0F800380160102071
:1057A00004F064FAA0B210BD1008014014100140CA
:1057B000B0B5254CA279A188D3B2012B08D141F60E
:1057C000631291420ED046F6040291420AD005E0DF
:1057D000120607D141F66312914203D108280AD27A
:1057E0001BA104E00138C0B2072804D2174901EB1D
:1057F0004000018800E00821362000F0F9FA6089B5
:1058000000F0DEFA164D0020A8470020A8472088A7
:105810000138C0F30F20A84720880138C0B2A8473C
:10582000A08900F0CDFA0020A8470020A847608892
:105830000138C0F30F20A847608829460138C0B25C
:10584000BDE8B040084700BF48060020C8B80008BF
:10585000A800E8002800680088000800C800480088
:10586000A95D00082DE9F04F89B0139F814690464D
:105870001C46089100EB5700013882B2C819013864
:1058800083B24846FFF798FD01213809DDF850A0A2
:105890004E4617F00E0F18BF01EB17104FF4C871EA
:1058A00078437D080690A8F120004FF00008C2B2AE
:1058B0003748059212FB01000490394800EB0210B2
:1058C0000390354800EB82100290324800EB022032
:1058D00000220190069990B2884256D2502F07922A
:1058E00016D0102F18D00599182F01EB410109D0BF
:1058F000202F0FD0402F09D00C2F46D1294A02EB80
:1059000081010AE0254A02EB011106E0019904E059
:10591000049902E0029900E003990844002790F8F6
:1059200000B0082F2DD00120B84000EA0B00BAF1DA
:10593000000F0DD028B10899B0B2224689B2FFF706
:105940000EFE0136B0B2A0EB0900A84210D111E062
:1059500000282046129908BF084600F025FA08F1F1
:1059600001081FFA88F0B0FBF5F101FB150030B11A
:105970000137D6E708984E460130089001E04FF015
:105980000008079A139F0132A4E709B0BDE8F08F21
:10599000BC4F0108BCF00008FCD800082CC7000868
:1059A0003CC10008C8BC00082DE9F04F85B001F0EB
:1059B0000CF8444524D06FEA080000F0BCFFBAFBA5
:1059C000F0F001F0E5F806D10498404503DD080445
:1059D0000DD04FF0010B0F9841F030010E9BCAB271
:1059E000314601F066F8A94408F10108E1E70F9893
:1059F0000E9B3146302201F05CF84FF0000BF2E7CD
:105A000001F068B82DE9FE4FDDF83480DDF838A0EC
:105A1000DDF830B0994615460E4607464FEA580461
:105A20002A785AB1B8B231464B46CDE900B8CDF824
:105A300008A0FFF717FF27440135F1E7BDE8FE8F07
:105A40002DE9FE4F0C9D8946434907469B46144667
:105A50002846FEF727FE414E00281CBF0025C4F251
:105A6000FA3528463146FEF701FE3D4ACDF800B032
:105A700000281CBF0025C4F2C825284631464B46E5
:105A800005F0A2FB374E0D9D374930802846FEF7C2
:105A900009FE00281CBF0025C4F248352846002115
:105AA000FEF7E4FD0028314ACDF800B018BF00250C
:105AB00028464B46002105F087FB7080E01B0297CB
:105AC0000E9F00F0BAFF811E441E0191A2453BDAF1
:105AD000029807EB0A0817F80A1098F80130CDF879
:105AE00000B0504485B2023086B228463246FFF7F5
:105AF000E7FC0F98324600EB0A0910F80A10284616
:105B000099F80130CDF800B0FFF7DAFC0198824532
:105B10000FDA98F8023098F801104FF2604000F068
:105B2000EBFF99F8023099F8011044F6384000F084
:105B3000E3FF98F801000AF1010A88F8000099F8DB
:105B4000010089F80000C1E70649088838554888EF
:105B50000F990855BDE8FE8F0000FA430000C842C7
:105B600000001644A40100200000484300007A43CE
:105B70002DE9F04F87B01C46049005915B1A052172
:105B8000101A002700F059FF069293FBF1F590FBE5
:105B9000F1F6DDE90489BBF1000F17D0BBF1050F69
:105BA00020D01098069A009009EB070081B2404679
:105BB0000B46FFF785FC109849462346009008EBFA
:105BC0000A0080B20246FFF77BFC06E010982346ED
:105BD000009004AA07CAFFF7CDFC2F44B2440BF192
:105BE000010BD8E773202A212F22192300901420BB
:105BF00001F00EFA0498059D374F4FF000080C2471
:105C000032A201F00BF8033086B205F11E001FFA34
:105C100080FA30465146B84705F148002FA200F0FF
:105C2000FDFF1FFA80FB30465946B84705F1720068
:105C30002DA200F0F3FF81B230460491B84705F180
:105C40009C002CA200F0EAFF81B230460391B847D5
:105C500005F1C6002AA200F0E1FF1FFA80F93046E4
:105C60004946B847069E7420A91C172217230090A6
:105C700089B2A6F1190080B201F0CAF9A6F11400A8
:105C800022A2514600F0EDFF85B22846B84720A277
:105C90002846594600F0E5FFB84704991DA228465A
:105CA00000F0DFFFB847A6F10E0003991AA200F03A
:105CB000D8FF80B2B847A6F1080018A2494600F004
:105CC000D0FF80B2B84707B0BDE8F08F353030283C
:105CD0003933322900000000055A000834303028DA
:105CE000373532290000000033303028353732296B
:105CF0000000000032303028333932290000000023
:105D0000313030283231322900000000323030008A
:105D100031353000313030003530000030000000C7
:105D20002DE9FE4F07460D98994615460E460FF28F
:105D30002C0A4FF000084FF0000B44085D4508BFE7
:105D4000BDE8FE8FABF10100C0B2052801D800F01C
:105D50001FFEA0440BF1010BF0E700BF56312E30BF
:105D60002E3200002DE9FE4F07460D989946154644
:105D70000E460FF22C0A4FF000084FF0000B4408BB
:105D80005D4508BFBDE8FE8FABF10100C0B205283C
:105D900001D800F0FDFDA0440BF1010BF0E700BFBE
:105DA00056312E302E31000010494FF400424FF48E
:105DB00080634A60C1F8FC030B4800F098BE00BF46
:105DC00010B50949094B4FF480524FF400440A6062
:105DD0005C60C3F8FC034FF480600860C3F80008FF
:105DE000C3F800281C6010BD1410014010080140C9
:105DF00010B50C46FFF7E4FF2046BDE81040FFF762
:105E0000D3BF00002DE9F04F97B003F049FDDFF854
:105E1000B0A99AF80C00012811D0002840F0148194
:105E2000DFF8A079B7F8B603D0B197F8E163022E96
:105E300028D0032E29D11921D0FA51F023E0DFF820
:105E40008479B7F8B803A0B197F8E183B8F1020FED
:105E500046D0B8F1030F46D11921D0FA51F040E0F5
:105E60009AF80000002800F09F8001388AF80000AE
:105E700083E09AF80100002800F0D58001388AF804
:105E80000100DEE00138A7F8B60300203D6AC7E94B
:105E90000200D7E9064000F016FE20B1786A00F053
:105EA000D8FE002869D197F8C8037D62FC610028FC
:105EB00008BF254600F022FD0446022E4BD0032EDB
:105EC0005BD10020202143F286124FF66143CDE9D9
:105ED0000032CDE90210A2B240F2891050214AE00E
:105EE0000138A7F8B80397F8C563022E04D0BC4860
:105EF000C7F8B400C7F89C00D7E92540D7F8B850D8
:105F000000F0E1FD30B1D7F8BC0000F0A2FE00289F
:105F100040F09780C7F8BC50C7F89840022E08BFE1
:105F20002C462046FEF703FC00250446B8F1020F7C
:105F300027D0B8F1030F40F0858043F2861143F675
:105F40007F422020CDE90021A2B2CDE9020540F236
:105F50009510CD2125E05E2000F0FCFC41F6A30267
:105F60004FF6614300205021CDE90032A2B2CDE9C5
:105F700002105020782100F0A2FE9AF80C00451C77
:105F800060E0622000F07DFE502041F6A30143F660
:105F90007F42CDE90021CDE90205A2B24FF487701E
:105FA000782100F08CFE4DE097F8C0030028E4D182
:105FB000BC6A00212046FEF791FB8A49054620462F
:105FC000FEF75CF98849FEF78BF94FF08441FEF744
:105FD000FDF884F00041002D18BF084697F8C893DB
:105FE000B9F1010F18BF0846FEF7A1FB8046B9F1D1
:105FF000010F40F033833D687A492846FEF73EF9A9
:106000007949FEF76DF94FF08441FEF7DFF87749E3
:1060100004467860FEF7DAF8064697F8C5030128CB
:1060200018BF264624E3D7F89440D7F89C0000F028
:106030004AFD002840F0CF8297F8BA03002800F00C
:10604000E18200258AF80C50DFF8C0BF9BF8C0033E
:1060500010B1FF218BF8C1139BF8E11301F0FE0290
:10606000022A62D19BF8C12382421BD0032813D895
:10607000DFE800F0020A060801208BF8E2030BE0DB
:10608000462002E0442000E0422000907B207B215B
:10609000EB22672300F0BCFF9BF8C0039BF8E113E1
:1060A0008BF8C103022940D19BF8BC03022803D01E
:1060B000012800F0FF8080B9002518204FF6FF71FD
:1060C00000220323CDE90015CDE9020540F2451079
:1060D0003421FFF769FCAAF81050DFF80057BAF82E
:1060E00010002988814220D041F6A30144F2507269
:1060F000C0B24323CDE900020291CF203F214FF4EB
:106100008772FEF74FFDBAF81020002018214FF6D5
:10611000FF73CDE90030CDE9021040F24510342183
:1061200000F0CDFDBAF810002880584603F008FEB4
:106130009BF8E103011F11F1020FC0F0D58046F278
:1061400069605D214FF481724FF49473ADF858008B
:106150003020129346F268531491CDE90E21CDE917
:1061600009219BF8B4131392159010900B905A20AC
:10617000ADF84430C12308909BF8B5030D9346F267
:106180006743ADF83030884254D008AD012705F19F
:106190000806042F10D09BF8B503874209D1747A02
:1061A000B388328836F8041C36F8080C009400F0E6
:1061B0002FFF01371436ECE79BF8B50308B104282C
:1061C00016D300263C2E13D0AC19A85BA3892289D4
:1061D000A188647C009400F01BFF1436F2E700BF36
:1061E00000007F43000010410000A0400000F4C206
:1061F0009BF8B403411ECAB2022A0FD8900050FA8D
:1062000081F105EB810435F82100A3892289A18859
:10621000247C009400F0FCFE9BF8B403D7490022D4
:106220008BF8B5038AF80D20CBE93411CBE9361190
:10623000CBE93811002855D09AF80D00002851D12B
:10624000DBE91907DBF81860DBF82050FEF76FFA7E
:10625000ADF81A003846FEF76AFAADF81C0000F0F7
:10626000ABFBADF81E00DBF87000FEF760FAADF88E
:106270001400DBF87400FEF75AFAADF81600DBF8EC
:106280007800FEF754FAADF8180000F0B0FB0646AF
:1062900000F034FB00210DF11A0205AB032917D0E1
:1062A00032F81140B4421DD033F81140013184421C
:1062B000F4D117E09BF8BE03012840F061819BF800
:1062C000D403002840F05C810020AAF8100004E705
:1062D000AA48CBE93400CBE93600CBE938000120ED
:1062E0008AF80D009BF8E10300F0FE00022840F060
:1062F000A080DBF86450DBF8D000DBF8706000F0C1
:10630000A8FC4FF6FF7720B1DBF8DC0000F038FB8B
:1063100098B99BF8C803012808BF354600F0EEFA8B
:1063200000F0B6FB602000F028FCDBF86400DBF82E
:106330007010CBF8D000CBF8DC10DBF86850DBF83D
:10634000D400DBF8746000F084FC20B1DBF8E000DE
:1063500000F016FB98B99BF8C803012808BF354622
:1063600000F0CCFA00F094FBC72000F006FCDBF84C
:106370006800DBF87410CBF8D400CBF8E010DBF841
:106380006C50DBF8D800DBF8786000F062FC20B1DC
:10639000DBF8E40000F0F4FAA0B99BF8C803012888
:1063A00008BF354600F0AAFA00F072FB4FF4977070
:1063B00000F0E3FBDBF86C00DBF87810CBF8D800DA
:1063C000CBF8E410DBF87C50DBF8880000F041FCEF
:1063D00050B900F093FA00F05BFB8D2000F0CDFB8C
:1063E000DBF87C00CBF88800DBF88050DBF88C0011
:1063F00000F02FFC50B900F081FA00F049FBF420C6
:1064000000F0BBFBDBF88000CBF88C00DBF884509D
:10641000DBF8900000F01DFC58B900F06FFA00F0B6
:1064200037FB40F25B1000F0A8FBDBF88400CBF8F0
:10643000900003F03BFC9AF80E0028BB0120DBF82B
:106440001870DBE919688AF80E00DBF80000FEF727
:106450006EF900EBC000052500F06BFB00F0E3FADD
:1064600000F033FACBF8200000F0C1FA00F02DFA6A
:1064700000F0C8FA00F029FACBF8740000F09CFA9A
:1064800000F023FACBF878009BF8C8039BF8C913F7
:10649000814222D0DBF80000DBF81870DBE91968D4
:1064A000FEF745F900EBC000052500F042FB00F0C7
:1064B000BAFA00F00AFACBF8200000F098FA00F0DF
:1064C00004FA00F09FFA00F000FACBF8740000F034
:1064D00073FA00F0FAF9CBF8780003F03BFD03F013
:1064E00097FF9BF8E10302281CD1DBF8AC50B949B7
:1064F0002846FEF7C9F89BF8BC43B8B9B4B19AF87E
:10650000080001308AF80800C0B229281BD30020F7
:106510008AF808009AF80700013000F003008AF8B2
:10652000070012E000208AF8090024E0A949284663
:10653000FEF7B8F8F8B9F4B99AF80900D8B901200B
:106540008AF8090008E09AF8070000218AF8091083
:10655000DFE800F002080406562004E0582002E0BC
:10656000592000E0572000904FF4D77028212422B2
:10657000222300F04DFD17B0BDE8F08F00007F43EF
:10658000DBF80000DBF81880FEF7D1F89BF8C513A4
:10659000012908BF323800B2FEF7AEF88D49054632
:1065A0004046FDF713FE29468146FEF76DF88A49FD
:1065B00007464046FDF70AFE06462FB930462946F3
:1065C000FEF77EF8002865D030462946FEF74EF8E3
:1065D00068B90120E9E0D7E92C6000F0D1F9002585
:1065E00000287FF42FAD97F8BA0368B12AE5484632
:1065F0002946FEF757F8002840F0DC8000208AF892
:106600000A00D5E0D7F8B06097F8BC1397F8BE231E
:1066100097F8D43397F8E103C7F8B460C7F89C4003
:1066200081F0010182F0010211431943090608BFFC
:106630003446CAF81440002502284AD003287FF4C3
:1066400001AD2046FEF773F802460025202043F2F4
:1066500086114FF6FF73CDE9003176E43D685A4963
:1066600000F0F0F9064697F8C503012818BF2E463A
:106670004046FEF741F801463046FDF7A7FDFEF71C
:1066800056F897F8E143804644F00200032833D1DE
:10669000142037E09AF80B00022840F085804F481C
:1066A00041880139418009B2002900F383803221F9
:1066B000418040462946FDF7DBFDFEF738F801B280
:1066C00080EAE130A0EBE13000B20128D8BF012020
:1066D0006EE0602000F0D5FADAF81400FEF727F833
:1066E0000246502041F6A3014FF6FF73CDE9003179
:1066F000CDE90205FFF752BC97F8BC03002818BF8C
:106700006FF037008AF80000D7E9016000F0A1FAC5
:1067100028B1F86800F034F900287FF42EAC97F81F
:10672000CE03C7E9025601281AD14046FDF7E4FF1F
:10673000BD692649064600F085F93146FDF7C0FFE0
:1067400070B9234900F07EF93146FDF79DFF38B955
:10675000386AB9F1010F08BF054600F0CFF880464E
:10676000032C13D0022C7FF408AC5C2000F0F2F86C
:106770000020502141F6A3024FF6FF73CDE900320D
:10678000CDE902101FFA88F2FFF7F3BB43F286123D
:106790004FF6FF7300202021CDE900321FFA88F266
:1067A000CDE90210FFF798BB02208AF80A006420A6
:1067B000AAF810009AF80A008AF80B008DE400BFCE
:1067C000C4010020D4060020000048C20000A0C17F
:1067D0000000A0410000C8420000C8C2C80000205C
:1067E000FEE77047012100F0EFBF4FF0804002212B
:1067F000002270475146ADF809400190584648477D
:106800000725A34005FA04F40C250A29704700BFA8
:1068100000BF00BF00BF00BF00BF00BF00BF00BF80
:1068200000BF70472046FDF73DBFA5F8B803D5F877
:106830009400FDF7CBBCBDF808100A31ADF8081084
:106840009DF80B100131704725221E2300904FF454
:10685000AA7000F0DDBBA6F8B803D6F89400FDF7E7
:10686000B5BC80F83010C185816280F82C1070476B
:10687000C0E90056C0E90243C0E9042170474FF067
:10688000804000217047514601904046ADF80940D4
:106890004847206840F0400020604FF0804002F000
:1068A00097B82046FDF70CBF4162C0E92211C0E94C
:1068B0002413C0F8981080F8B4237047BDF808106E
:1068C0009DF807201144A142704700EBC000B0FBC7
:1068D000F5F0203080B2FDF718BFA6F8B803D6F85F
:1068E000B800FDF773BCC6F8840004F11000284717
:1068F00052F821100968C0F8941070472846FDF737
:1069000016BF417195F8C80301287047C6F880008A
:1069100004F10C00284701704FF47A707047FA2197
:1069200058222D230090C42000F072BB05F188008E
:1069300002EB810270472044C1B20A2002F06EBE11
:1069400086F8DD0304F12400284720464FF07E51ED
:10695000FDF73CBCD2217B221C2300905A2000F082
:1069600057BBC8F834002846FDF730BC86F8DB0377
:1069700004F1220028474FF042412862FDF726BC6F
:106980003146FDF7ABBED8F82C402846FDF776BC63
:106990000C991AF8002007EB08004B4680B20091D2
:1069A0000D990191002102913146FEF75BBF52F82B
:1069B0002120126882617047DBF86C00FDF7B7BEDA
:1069C000054620462946FDF77BBE074610981C4623
:1069D00092460E464FF000094FF000084FF0000BB2
:1069E0004508581E049070470446FDF74DBE3046DA
:1069F000FDF79DBE054620462946FDF745BE2046CB
:106A0000FDF7E4BBCBF870004046FDF790BE0446AE
:106A100028462146FDF72ABEC5E92211C5F8901087
:106A2000D5F894107047CBF804003846FDF77FBEC8
:106A3000044628462146FDF735BE4FF0000A4FF0C8
:106A4000000B70472846FDF7C1BB20464FF07E5132
:106A5000FDF7BCBBCAB2C90141EA5201C9B20B2958
:106A600070470446FDF710BE4FF4801001F0B0BF30
:106A70000146204638471E214FF448720023CDF8C6
:106A8000008030470020A8F8040088F80200704712
:106A9000024643F2861300201821CDE90210CDE909
:106AA000007370474FF08441FDF790BB002100F068
:106AB000D9BF0090109801901198029007EB09003F
:106AC00080B2FEF7CFBE2146FDF708BE2346CDF8C3
:106AD0000090404705B0BDE8F08F00BA000CFFF70A
:106AE00063B9013A013B92B29BB2FEF765BC036009
:106AF000C1F800380A607047324600902846FEF719
:106B0000DFBC1C4615460E460746704786F8C5038F
:106B100004F12000284701704FF47A70A5F8B603FD
:106B200095F8C803012870478DF80B109DF80B10DD
:106B30007047B0FBF5F0203080B2FDF7E6BD06F1FE
:106B4000880002EB81027047012100F08BBF2168B1
:106B500021F00101216010BD86F8D40304F11E006C
:106B60002847C0F89810C0E92211C0F89010C0F86A
:106B7000B62370473046FDF729BB4FF48C710323D1
:106B8000FEF712BF96F8B413C6F8B8400329704751
:106B90000A21BBF1000FB0FBF1F101EB8101A0EB89
:106BA0004101704786F8CE0304F11C00284705F127
:106BB000880002EB810270470020A7F85C00704754
:106BC000E040C0B200904FF4AA70304796F8B4137A
:106BD000C6F8944003297047226842F001022260FF
:106BE000704786F8D10304F11800284795F8B413CC
:106BF000C5F8944003297047B7F85C000130A7F846
:106C00005C0080B27047C0B200904FF4AA70704729
:106C10004FF47A700021A5F8B60370474FF2604335
:106C2000CDE90084CDF80880704701F0070125F414
:106C3000E04545EA0131704786F8CB0304F11600C0
:106C400028471E214FF44872002370472846FDF75D
:106C50001BBD2946FDF742BD4FF042412862FDF7BA
:106C6000B5BA44F63843CDE90084CDF808807047C2
:106C700086F8C80304F1140028474FF08441FDF75B
:106C8000A5BAD4217B22192300904FF4877000F01D
:106C9000BFB905462046FDF799BAC4F800682560DB
:106CA0006560C4F8FC03704786F8C20304F1120063
:106CB000284795F8E10300F0FE00022870470323FF
:106CC000FEF772BE2046FDF781BA00210162C16164
:106CD00041610161C160704710B500240462C46164
:106CE00044610461C460029C446280E80E008462D6
:106CF00010BD0000F8B5044608461146FDF7B8FA85
:106D0000606129496069FDF7DBFC20B960692749AA
:106D1000FDF7BAFC08B1002003E06069E169FDF706
:106D200055FAE061224DE0692946FDF7ADFC00B956
:106D3000E561E06900210025FDF7C2FC00B9E561CD
:106D4000D4E9005660692169FDF792FAA0613046E6
:106D50006769E169FDF792FA616A00F0E4F90646B5
:106D600028463946FDF78AFA3146FDF72FFA0546DF
:106D7000A068A169FDF782FA2946FDF727FA20628B
:106D800060692061206AA16AFDF770FC08B9A06AF9
:106D90002062206AA16A81F00041FDF783FC08B9F6
:106DA00000202062206AF8BD0000C8420000C8C26E
:106DB00000C82F477047704770B5484E707801384B
:106DC0007070000619D1B84C1420707094F8CB0381
:106DD00001280FD100F080FB94F8C00368B1B078AF
:106DE0000138B070000608D13D48012141712820CA
:106DF000B07002E03A48C0688047AB4C94F8BC03DE
:106E000050B130780138307000060BD10520307059
:106E1000A54801F0F7FC05E0204601F0F3FC012055
:106E200084F8E50394F8BC0302280AD1A56D00217B
:106E30002846FDF753FC20B92A492846FDF7C6F934
:106E4000A065F0880138F080000403D10120F080B3
:106E500001F0CEFAB0880138B080000408D14FF4B8
:106E60007A70B08052484168C4F8AC10002141608B
:106E70004F4E307850BB102001F0F0FD70807088CC
:106E8000FDF748FC184A194BFDF70FFB184B002281
:106E9000FDF70BFB174A184BFDF760FA174A184B22
:106EA000FDF775FB174B0022FDF758FAFDF7B7FC0D
:106EB00015490546A064FDF703FC38B928460021B2
:106EC000FDF7D4FB10B901202560307004F0D4FB2D
:106ED0000E480068BDE87040004700BF0000002079
:106EE0003C010020000080BF52B81E85EB510A40D3
:106EF0000000303F295C8FC2F528F4BF33E197FAD8
:106F00007953713F0000394000004842EC0A0020EC
:106F10001848C16941F08051C16117490A7842F0AF
:106F200004020A70C16921F08051C161016841F019
:106F30000101016001688907FCD5416821F0030166
:106F40004160416811F00C0FFBD101680B4A114000
:106F500001600021416041F61071C1624FF480115F
:106F600001634FF41F01816005484FF0006101602B
:106F7000704700BF0010024050700040FFFFF2FE5B
:106F800008ED00E010B54FF08040022103F0C0FE94
:106F900068B1074C4FF07E516068FDF717F96060EB
:106FA0004FF080400221BDE8104003F09EBE10BDAE
:106FB000AC01002070B5144C0121204603F098FE6E
:106FC00008B3D14D95F8E403012808D1284602F012
:106FD0003DFD2E6C00213046FDF772FB08B90026FE
:106FE0002E643046FDF7BCFB02462046062103F026
:106FF00055FE2046012103F073FE20460121BDE825
:10700000704003F072BE70BD000C0040D40600203A
:107010002DE9F041BC4D02FB03F4640095F8D16307
:10702000069D012E06D076B9023DEEB27B2E0AD225
:107030001F4E04E0023DEEB27A2E04D81B4EEDB294
:1070400056F8255000E0002502440B44FFF749FDA7
:10705000184E4FF000082CB330462946B8EB942F59
:107060000CD1224603F054FB0027A74204D2F05B68
:10707000FFF733FD0237F8E7002010E04FF480629D
:1070800003F046FB0027B7F5806F04D2F05BFFF7F3
:1070900024FD0237F7E7A4F580604FF480642544AF
:1070A0000446D8E7BDE8F081D4060020C4BA000841
:1070B000D8B80008E7010020BCB5184CE06880068D
:1070C0000FD52046202103F0F2FF50B1204603F0F7
:1070D000D7FF134DC1B2284602F0AFFD4FF48270C6
:1070E000A881E068400612D52046402103F0DFFF6A
:1070F00068B12046402103F0D3FF094D0DF107018F
:1071000005F1100002F086FD10B100206877BCBDCB
:107110009DF80710204603F0B6FFBCBD00380140C3
:10712000C00A0020FEE7E0B50190009101980099A7
:10713000FDF79CFA08B9009801900198009981F038
:107140000041FDF7AFFA18B9009880F000400190B7
:1071500001988CBD0A78436802F0010223F4807321
:1071600043EA022242604A78836862F34103836003
:107170008A78836802F0010223F4006343EAC222A2
:107180008260C978C26A013922F4700201F00F01ED
:1071900042EA0151C16270474FF08071016070474F
:1071A000816841F00801816070478068C0F3C000C9
:1071B0007047816841F00401816070478068C0F3C6
:1071C00080007047826861F3000282607047006847
:1071D000084018BF0120704770B501EB41040A292F
:1071E00028BF1E3CFFF70CFB38BF1025465926EA86
:1071F0000404234302EB820443516FF00403062A84
:1072000088BF6FF022030C2A88BF6FF0400334253B
:1072100023441F249C40062A88BF30250C2A88BF9F
:107220002C2542599940A2431143415170BDC06C75
:1072300080B2704710B54B048468082904D344F029
:10724000007103F4602301E024F000718160816823
:1072500021F460211943816002F00101826822F467
:10726000801242EA0151816010BD426801F00101C3
:1072700022F4006242EAC12141607047826801F055
:10728000010122F4800242EA8151816070470000CE
:10729000044900F001000A6822F4000242EAC050EA
:1072A0000860704708240140013809282BD8DFE81E
:1072B00000F005162A2A2A2A2A2A0D1EE94890F8E3
:1072C000C5130120022908BF052017E0E54890F802
:1072D000C5030238B0FA80F0400980000EE0E148B2
:1072E00090F8C5130220022908BF062006E0DD48F9
:1072F00090F8C5130320022908BF0720784900220F
:107300004A71714908707047D406002070B56E4DFF
:107310002878072800F2D780DFE800F0047E364E98
:107320001D97B066CF4E4FF47A70D349FFF793FAAA
:10733000D0490446FDF7C4F900281CBF0024C4F25C
:107340004834FFF743FC00F2B880FFF7F8FBDFE8B2
:1073500001F0B8B2ADB0C34E4FF47A70C649FFF732
:10736000BCFAC4490446FDF781F918B9C14C0020A4
:10737000C6F8BC00FFF706FC00F29F80FFF7DFFBBA
:10738000DFE801F09F999497B64E4FF47A70504918
:10739000FFF761FAB849FFF764FB00281CBF00241F
:1073A000C4F2A004FFF712FC00F28780FFF7C7FBCE
:1073B000DFE801F087817C7FAA4E4FF47A70434961
:1073C000FFF749FAAC49FFF74CFB00281CBF00242B
:1073D000C4F2A004FFF7FAFB00F26F80FFF7AFFBE7
:1073E000DFE801F06F6964679E4E4FF47A703749A9
:1073F000FFF773FAA0490446FDF754F918B99E4CFB
:107400000020C6F8BC00FFF7BDFB56D8FFF797FB7E
:10741000DFE801F057514C4F924E4FF47A704FF025
:107420007E51FFF718FA93490446FDF749F9002801
:107430001CBF0024C4F24834FFF7C8FB3DD8FFF757
:107440007EFBDFE801F03E383336864E4FF47A702B
:107450004FF07E51FFF741FA86490446FDF706F9E1
:1074600018B9844C0020C6F8BC00FFF78BFB24D869
:10747000FFF765FBDFE801F0251F1A1D794E4FF479
:107480007A701349FFF729FA7B490446FDF70AF998
:1074900018B9794C0020C6F8BC00FFF773FB0CD874
:1074A000FFF74DFBDFE801F00D07020506F18C0048
:1074B00001E006F19000074901606A48002180F868
:1074C000B4130820287070BD340100200000A0C053
:1074D000000080BF00007F430148FDF7C5BA00BF30
:1074E0003C0100207E48102101F0E8BD7C481021BD
:1074F00001F0E6BDB0B55B4D5B49AC69FFF7D1F972
:1075000018B95A49FFF78EF908B95948A861D5F852
:1075100094405849FFF7C5F918B95749FFF782F960
:1075200010B95648C5F894006C6E4F49FFF7B9F989
:1075300018B94E49FFF776F908B951486866AC6E3C
:107540004949FFF7AEF918B94849FFF76BF908B98F
:107550004C48A866EC6E4449FFF7A3F918B94349B3
:10756000FFF760F908B94248E866EC6F4149FFF758
:1075700098F918B94049FFF755F908B94248E86742
:10758000D5F880403B49FFF78CF918B93A49FFF725
:1075900049F910B93D48C5F88000D5F8844035490F
:1075A000FFF77FF918B93449FFF73CF910B93348B0
:1075B000C5F8840095F8C2032C49022824BF002096
:1075C00085F8C20395F8C803022824BF002085F877
:1075D000C80395F8CB03022824BF012085F8CB030C
:1075E00095F8D103022824BF002085F8D103AC6AA6
:1075F000FFF757F918B92649FFF714F908B9002021
:10760000A86295F8CE03022824BF002085F8CE0397
:1076100095F8D403022824BF002085F8D40395F8F8
:10762000C503022824BF002085F8C50395F8DB03B5
:10763000043810F1030F9CBF022085F8DB0395F896
:10764000DD03043810F1040F9CBF012085F8DD0331
:1076500095F8DF03043810F1040F9CBF012085F872
:10766000DF03B0BDD40600200000FA430000C8428A
:107670000000BE43000048430000A0400000A042BC
:107680000000A0430000AF430000484200007042E9
:107690000000C8C21FB5124C2021204601F06EFD2B
:1076A00080B1002010210FA24FF47843CDE90001F2
:1076B0000290B0209821FEF7A5F904F5A050002112
:1076C00002F08FFF2046202101F058FD0028F9D15B
:1076D00004F5A050012104B0BDE8104002F081BFC4
:1076E000001C014075706461746120666C61736890
:1076F0002E2E2E2E000000001748016841F00101D7
:107700000160704701490860704700BF10300240B7
:10771000114900F003000A6822F0180242EAC00092
:107720000860704701490860704700BF143002408C
:10773000094900F003000A6822F0600242EA4010A2
:1077400008607047044900F001000A6822F08002D6
:1077500042EAC0100860704708300240B5490A6824
:1077600060F38F3280080A600A6860F31C720A6056
:10777000704700BFAF4900F00F000A6822F0F00226
:1077800042EA001008607047AA4900F007000A6842
:1077900022F4E06242EA002008607047A54900F048
:1077A00007000A6822F4605242EAC020086070476D
:1077B000044901280A6822F0300208BF30320A600A
:1077C000704700BF54100240042809D8DFE800F0D9
:1077D000031E0F1809008B48026861F30002026063
:1077E00070478848426A61F300024262704701F0C4
:1077F000010084490A6822F0807242EA00600DE0CC
:107800008048026A61F300020262704701F00100E1
:107810007C490A6822F4803242EA004008607047DE
:1078200032490A68C2F38103314AF0B5DFE803F058
:1078300002380A380B6D9B0532D5CB6A9B0148BFD5
:107840002D4A2DE00B688C6A1B0C002C13D40C689D
:107850000D68C5F34175C4F383440DB90F2C43D1B2
:107860002D0101352C44DB0702D00B689B0300D5AA
:10787000204A624314E08C6A8D6A8E6ADB071D4BD6
:10788000C4F30314C5F3082506F0070603D00F68F8
:10789000BF0358BF134604FA06F26B43B3FBF2F280
:1078A000026016A40B68C3F30313E35C174CDA40C1
:1078B00042600B68C3F30223E35C22FA03F3C36064
:1078C0000B68C3F3C223E35C0424DA4082600B68D4
:1078D000096804EA9363C1F3813119440CA3595C2C
:1078E000B2FBF1F10161F0BD0225BBE704100240DB
:1078F00000127A0000093D00006CDC02000000006C
:107900000000000001020304060708092CE4010836
:1079100002040608020C08103A4A010C00F01F008D
:10792000895821FA00F000F0010070473548002125
:107930000268920304D44A1CB1F5405F1146F7D3A4
:107940000068C0F34040704700F01F020123000CA4
:1079500093402C4A0129815814BF994319438150FF
:10796000704700BFB0B5334C256858B145F4803539
:1079700001282560256814BF45F4003025F4003047
:10798000206006E025F480302060E06A40F000705E
:10799000E062A06A6FF35F216FF3102040EA0120DC
:1079A000A06202F00F00A16A21F0F00141EA00108C
:1079B000A062A06A63F30200A062A06A40F00040E7
:1079C000A062B0BD0F48016841F00101016001688B
:1079D0008907FCD5416821F003014160416811F03D
:1079E0000C0FFBD10168084A114001600021416081
:1079F00041F61071C1624FF4801101634FF41F0111
:107A00008160704700100240FFFFF2FE09490A68DA
:107A100060F301020A607046FEF7F9FE8646704682
:107A2000FEF7F5FE8646704702480068C0F3810005
:107A3000704700BF04100240F8B505460C46002010
:107A40004FF6FF76C7B2A74209D2781900F0F2FFCD
:107A5000ADF80200B81CBDF80210B142F2D1BDF879
:107A60000200F8BD026861F300020260704780B551
:107A70001221FCF7A0FB80BD3C49B0F1805F92BFB2
:107A8000086020F07040C1F8000470470549B0F16B
:107A9000805F88BF01F580610968084018BF012038
:107AA000704700BF0000024002684BF6EF731A40B7
:107AB00002600A8903681A4302604A7C036802F084
:107AC000030223F4405343EA02320260CA7B036894
:107AD00002F0030223F4406343EA822202608A7BBD
:107AE000036802F0030223F4407343EA02220260B7
:107AF0004A7B036802F0010223F0800343EAC212CA
:107B000002600A7B036862F3861303600A7C0368E1
:107B100062F3451303604A8942600A6882604968DB
:107B2000C1607047016821F001010160002101601E
:107B300041608160C16040F2FF4100EA01020B49EF
:107B4000B2F5816F04D3D208902A0ED801F5806176
:107B500000F0FC0014220838B0FBF2F00F22800085
:107B600002FA00F00A6810430860704704000240FF
:107B70002DE9F041DFF834783878172800F2748363
:107B8000DFE810F01800F800AF00B601DE01B80021
:107B90003F015D01FB01EF017A00D50086005A002C
:107BA0008601AA01720372037203310225021E00CC
:107BB0007203A300DFF8740F052180F8E11351E38D
:107BC000DFF8680FD049D14DD14ED24C00230122AD
:107BD000C0F89410D049C0E91F65D04DC0F884406A
:107BE000CF4C80F8E32380F8B433836280F8D63337
:107BF00080F8D43380F8D023A0F8C733A0F8C4337A
:107C000080F8C233C3648161C0E9191540F20111E3
:107C1000C466A0F8CD134FF48071A0F8CA134FF0DA
:107C20000131C0F8DD1340F20221A0F8DB134FF45C
:107C30007A71A0F8B61315E3DFF8946F96F8C803CD
:107C4000012800F0DC81002840F00C83B469B549BC
:107C5000F56A2046FCF712FBB349FCF741FBFEF73F
:107C600021FFB24970632846FCF7B0FAA749FFF735
:107C700010F8FEF7DDFE2AE1DFF8540F90F8CA1382
:107C8000002900F0C781012940F0EC820021C2E107
:107C9000DFF83C8F98F8C803012800F0C181002864
:107CA00040F0E082D8F818509E49FEF76CFE9E49DD
:107CB000FCF716FBFEF7F6FE9D49FEF752FEFEF7B7
:107CC0007FFE9C49064620464EE0DFF8040F90F800
:107CD000D813002900F0B181012940F0C3820021AE
:107CE000ACE1DFF8EC0E90F8E1138A1C1A2988BF8A
:107CF000052205E1DFF8D85E95F8C003002840F0C2
:107D0000B182FEF785FFDFF8C406FEF7FAFD00F04A
:107D1000FE81002840F05882AC6987492046FCF774
:107D2000B3FC002800F03682FEF78FFE35E2DFF864
:107D3000A08E98F8C803012800F08381002840F045
:107D40009182D8F818507749FEF71DFE7649FCF766
:107D5000C7FAFEF7A7FE6D49FEF703FEFEF74AFEDF
:107D6000064620464FF07E51FCF730FA002E08BF41
:107D7000284684E1DFF8580E90F8E11305393629DA
:107D800000F27082DFE811F037006E02AB026E0283
:107D900098026E02DD026E02E3026E029E026E0225
:107DA000B1026E02B7026E02F0026E02EA026E02C9
:107DB00084026E026E026E02A3026E0286026E02E0
:107DC0007C026E026E026E026E026E026E026E0225
:107DD0006E026E02CE02D302FC026E02F3026E024B
:107DE00072026E028F026E0204036E026E026E0257
:107DF0006E026E027A021D2180F8E11390F8C5131D
:107E000076E1DFF8CC5D95F8C003002840F02A82C7
:107E1000FEF7FEFEDFF8B405FEF773FD00F081818A
:107E2000002840F0F581AC6938492046FCF748FC51
:107E3000002800F0D3813F49FEF744FFD1E1DFF88D
:107E4000905D95F8C003002840F00C82FEF7E0FE3C
:107E5000DFF87805FEF755FD00F06E81002840F050
:107E60008381A8693149FCF7B1F93349FEF7F9FD7F
:107E700010B9314C0020E8612A492046AC61FCF77A
:107E8000FDF92949FCF72CFAFEF70CFE28626BE19C
:107E9000DFF83C6D96F8C803012800F0F380002855
:107EA00040F0E081B4691F49F56A2046FCF7E6F925
:107EB0001D49FCF715FAFEF7F5FD204970632846C9
:107EC000FCF784F91A49FEF7E4FEFEF7A0FD00284E
:107ED00018BF2546F562C5E1DFF8F40C90F8CD1324
:107EE000002900F0EA80012940F0BC810021E5E092
:107EF000DFF8DC0C90F8E1138A1E062938BF1B223C
:107F000080F8E123AEE100BF000020420000C8423B
:107F10000000A0420000F0420000BE430000C84341
:107F20000000D243000010410000A04000002041AA
:107F30000000C8C2000080BF0000FA43000020C15A
:107F4000DFF88C0C90F8C213012900F0BC800029E6
:107F500040F0BC8090F8BE13012900F2B7800221E6
:107F6000B2E0DFF86C0C90F8C713002900F0BD8078
:107F7000012940F077810021B8E0DFF8545C95F8E2
:107F8000C003002840F06E81FEF742FEDFF83C049B
:107F9000FEF7B7FC00F0F380002840F04F81A8699D
:107FA000D849FCF713F9D8490446FCF789FB10B906
:107FB000D54C0020E861D5492046AC61FCF75EF95C
:107FC000D349FCF78DF9FEF76DFD286236E1DFF845
:107FD000000C90F8D613012900F08D80002940F0A4
:107FE0004181012188E0DFF8E80B90F8D0130129E6
:107FF00000F08780002940F03581012182E0706B1C
:10800000C449346AFCF7E2F8C349FEF742FEFEF7C2
:108010000FFD41E0012180F8C81380F8CA1321E167
:10802000D8F82000BD49D8F83440FCF7CFF8FEF767
:10803000C7FCBB490646204610E0012180F8D81352
:1080400010E1D8F82000B449D8F83440FCF7BEF865
:10805000FEF7D0FC064620464FF07E51FCF7B6F8FE
:108060004FF04241002E08BF2846C8F83400FCF704
:10807000ADF8D249FCF702F9D149FCF731F9C8F85B
:108080002C00EFE0706BCB49346AFCF79FF8CA49CB
:10809000FEF7FFFDFEF7BBFC002818BF254628466B
:1080A0004FF042417563FCF791F8C449FCF7E6F8DC
:1080B000C349FCF715F9F062D4E0012180F8CB1335
:1080C00080F8CD13CEE0032180F8E113C2490022ED
:1080D000C0E9261190F8C503C34902280A7040F090
:1080E000C180C248FF210170BCE0012180F8C513A6
:1080F00080F8C713B6E0002180F8D41380F8D613B7
:10810000B0E0002180F8CE1380F8D013AAE02C6AEA
:10811000B3492046FCF7B8FA002849D0FEF795FC91
:1081200049E02C6AA7492046FCF7CAFA002863D028
:10813000A549FEF7C7FD62E0286AA849FCF746F8A2
:10814000A749FEF78EFC10B9A54C002068622046B6
:108150004FF042412C62FCF739F89849FCF78EF851
:108160009749FCF7BDF8A86195F8B413032900F20C
:108170007680FEF7DBFBDFE801F075706B6E2C6A32
:1081800093492046FCF79CFA00284BD09149FEF712
:1081900099FD4AE00020E86192488949A861FCF70E
:1081A0006DF88649FCF79CF8FEF77CFC28620BE032
:1081B000002068628A48FEF74FFD8049FCF75EF8B0
:1081C0007F49FCF78DF8A86195F8B413032946D8C8
:1081D000FEF7ACFBDFE801F046413C3F0020E861E0
:1081E00073487749A861FCF749F87449FCF778F8B7
:1081F000FEF758FC28620BE0002068627148FEF729
:108200002BFD6E49FCF73AF86D49FCF769F8A86157
:1082100095F8B413032922D8FEF788FBDFE801F0B4
:10822000221D181B002068626648FEF715FD634991
:10823000FCF724F86249FCF753F8A86195F8B413E9
:1082400003290CD8FEF772FBDFE801F00C070205EA
:1082500005F18C0001E005F190005F49016000200C
:1082600085F8B40316203870BDE8F08190F8D0137B
:10827000012998BF80F8CE1311219EE419219CE4B6
:1082800090F8CD13012998BF80F8CB13092194E40D
:108290003B2192E490F8CA13012998BF80F8C813D3
:1082A0000721FFF78ABC90F8D613012998BF80F800
:1082B000D4131321FFF781BC212180F8E11390F83A
:1082C000CB13FDE62D2180F8E11300216AE090F840
:1082D000C713012998BF80F8C513FFF76DBC1F2194
:1082E00080F8E11390F8C81397E6312180F8E11384
:1082F00090F8CE1308E7332180F8E11390F8D413F7
:10830000FCE600BF000020C10000C8420000104190
:108310000000A0400000204100005443000054C36E
:10832000000080BF90F8D31341B9002104E090F819
:10833000D313012902D1012180F8D1130D21FFF7B8
:108340003CBC042180F8DA132321FFF736BC90F8F7
:10835000D11301B3012921D12C221DE0002180F885
:10836000D8133721FFF729BC3521FFF726BC90F839
:10837000D713022915D001297FF474AF022111E02F
:1083800090F8D71300297FF46DAF0F21FFF715BCCC
:108390001521FFF712BC2B2280F8E12380F8D313BC
:1083A00060E7012180F8D7135CE700BF35010020AA
:1083B0000000C842000020C1000054C30000A040DB
:1083C0000000104100005443000080BF3C01002029
:1083D00000007D43000024C200007F4300004842AB
:1083E000000069440000FA43C4010020C6010020D7
:1083F000B0B50E4C2046FCF7B5FC01462046FCF714
:1084000003FC0B4D287002F013FAFFF7B1FB094C87
:108410002046FCF7A7FC01462046FCF7F5FB6870F8
:10842000FEF742FFBDE8B040FEF770BF50010020EC
:10843000A2010020FC000020F8B5DFF8D06E3078F3
:10844000072800F2BB81DFE800F004923D551DB51E
:10845000D47450200121DFF8485F7060DFF8A80E67
:10846000FEF759FB00F0F880002840F08D81AC69E0
:10847000CC492046FCF708F9002800F04C81FEF7B3
:1084800064FA4BE150200121CE4D7060CC48FEF7DC
:1084900042FA4FF07E51FEF7C8F9CD490446FCF789
:1084A0000FF900281CBF0024C4F24834FEF79EFBDD
:1084B00000F27E81FEF77BFBDFE811F07E017801A0
:1084C0007001760150200121BE4D7060BC48FEF75E
:1084D00022FB00F0AA80002840F00681AC69C34965
:1084E0002046FCF7EDF8002800F0E480B949FEF7DB
:1084F00086FAE2E050200121B24F7060B048FEF7EA
:108500000AFAA7F8B60397F8C803012800F0988084
:10851000002840F01D81BC69B349FEF770FAB349E9
:108520000546FCF7CDF8002800F0E8802C46BD6138
:10853000E6E050200121FD4D7060A148FEF7EBF907
:10854000A149FEF772F9A149FEF74EFA00281CBFB7
:108550000024C4F2A004FEF749FB00F22981FEF7D3
:1085600026FBDFE811F0290123011B012101502026
:108570000121EE4D70609248FEF7CDFA00F0778051
:10858000002840F08C80A8699B49FBF71FFE9B499F
:10859000FEF72AFA10B9994C0020E861914920466B
:1085A000AC61FBF76BFE8949FBF79AFEFEF765FBB2
:1085B000286274E050200121DC4D70608048FEF795
:1085C000AAF98249FEF731F981490446FCF778F8A7
:1085D00000281CBF0024C4F24834FEF707FB00F259
:1085E000E780FEF7E4FADFE811F0E700E100D900E8
:1085F000DF0050200121CD4D70607148FEF78BF9EE
:108600007449FEF712F97149FEF7EEF900281CBF14
:108610000024C4F2A004FEF7E9FA00F2C980FEF7D4
:10862000C6FADFE801F0C9C3BBC12C6A6B4920461A
:10863000FCF746F800284BD06649FEF7E0F94AE01F
:108640003C6A65492046FCF73BF8002800F0718041
:108650006349FEF7D4F96FE02C6A66492046FCF7BF
:1086600013F8002800F08480FEF76FF983E0286A91
:108670005F49FBF7ABFD5F49FEF7B6F910B95D4CFA
:108680000020686220464FF042412C62FBF79EFDBD
:108690004E49FBF7F3FD5349FBF722FEA86195F81D
:1086A000B413032900F28480FEF781FADFE801F0B9
:1086B000847E767C0020E8619E484A49A861FBF7E9
:1086C000DDFD4249FBF70CFEFEF7D7FA28620BE00E
:1086D000002068624148FEF74EF93C49FBF7CEFDA9
:1086E0004049FBF7FDFDA86195F8B41303295FD855
:1086F000FEF75DFADFE801F0605A52580020F86199
:1087000038492046FBF7BAFD3049FBF7E9FDFEF793
:10871000B4FA38621CE00020E86138483149A861A9
:10872000FBF7ACFD2949FBF7DBFDFEF7A6FA286253
:108730002AE00020786229484FF042413862FBF776
:1087400045FD2249FBF79AFD2649FBF7C9FDB861B3
:1087500097F8B41303292BD807F18800DFE801F05C
:108760002C26020507F18C0020E007F190001DE0A7
:10877000002068621F48FEF7FEF81449FBF77EFDF3
:108780001849FBF7ADFDA86195F8B41303290FD87C
:10879000FEF70DFADFE801F0100A020805F18C007F
:1087A00004E000BF0000FA4305F1900014490160A5
:1087B000DE48002180F8B41308203070F8BD00BFF7
:1087C000DC010020D40600200000A0C00000A04072
:1087D00000004843000080BF00007D430000544378
:1087E000000024C200001041000020C10000C84267
:1087F0000000484200006944000020410000FA43A4
:1088000000007F4370B5484D0446287848B14FF0CA
:1088100080400221FF2202F041FA94F8C00328B1FF
:1088200070BD94F8C00320B1012000E00020287042
:1088300070BDE74890F8C503022804D10120687094
:10884000D4F8B80029E094F8BC03012813D0D0B9BB
:1088500024683F492046FBF717FF6E7888BB3649EE
:108860002046FBF71FFF60BB002ED9D14FF08040A0
:108870000221322221E094F8BE0340B1012802D146
:1088800094F8D40330B394F8D4030128C8D168789D
:1088900008B901206870D4F89400FBF7ADFF294AAD
:1088A000294BFBF702FE294B0022FBF757FDFBF794
:1088B0008AFF02464FF080400221BDE8704002F07E
:1088C000EDB9002EACD1012068704FF0804002213C
:1088D0000022F2E768781649012804BF002068707A
:1088E0002568FEF7B3F9B0B11349FEF7AFF90028D8
:1088F000EBD10F492846FBF7D5FE0028E5D12846E5
:10890000FBF77AFF0D4A0E4BFBF7CFFDFBF787FF16
:10891000C4F8B000C1E7074802218F22C4F8B000B4
:108920004FF08040C9E700BFB4010020D40600200A
:1089300000007A430000C84200008C429A9999993D
:108940009999D93F14AE47E17A14F23F00003E40B6
:10895000000070420348017809B90121017002F05A
:1089600069BC00BFE705002058B100220023282B76
:1089700002D0C2500433FAE780F82C100021816243
:1089800000E001210846704710B5224CFEF724F99B
:108990000180FEF769F8FEF7DAB800BF1D480168EC
:1089A00041F080010160704708480168C9071CBF99
:1089B000002070470168490744BF012070470068E4
:1089C000C0064FF0020058BF032070470C20024041
:1089D00070B50446FFF7E8FF0025661E45F100016B
:1089E000020604D119B1FFF7DFFF3446F5E7002C8A
:1089F00008BF0420C0B270BD10B5064C216841F01C
:108A0000020121606060FDF744FF216821F002014E
:108A1000216010BD10200240FCF790BA02480349C3
:108A2000016003490160704704200240230167454B
:108A3000AB89EFCD81B00168D0F801008DF800104E
:108A40008DF801009DF801009DF8001041EA00201A
:108A5000ADF80200BDF8020001B0704710B50B4C34
:108A60000146012207232046FEF7B6FB20460121DE
:108A7000FEF704FC20460221FEF7A9FB0028F9D0EE
:108A80002046BDE81040FEF7D2BB00BF00240140E5
:108A900070B5254C4D4D2046A847FBF736FE4C4E91
:108AA000B061A01CA847FBF730FEC6F89400201D5B
:108AB000A847FBF72AFE7066A01DA847FBF725FE16
:108AC000F06704F10800A847FBF71FFEB06604F149
:108AD0000A00A847FBF719FEFDF718FFFBF715FE84
:108AE000F06604F10E00A847FBF70FFEFDF7FBFE52
:108AF000FEF7DAF8FEF7BCF8FEF79EF8FEF771F81D
:108B0000FBF703FEB06204F11A00A847FEF74AF82B
:108B1000FEF722F8FDF7FAFFFDF728FFFDF710FF3B
:108B200086F8DF0370BD00BF00F40108D406002002
:108B300070B5254C254D2046A847FBF7E6FD244E91
:108B4000B061A01CA847FBF7E0FDC6F89400201D0B
:108B5000A847FBF7DAFD7066A01DA847FBF7D5FD17
:108B6000F06704F10800A847FBF7CFFDB06604F1F9
:108B70000A00A847FBF7C9FDFDF7C8FEFBF7C5FDD6
:108B8000F06604F10E00A847FBF7BFFDFDF7ABFE52
:108B9000FEF78AF8FEF76CF8FEF74EF8FEF721F8BC
:108BA000FBF7B3FDB06204F11A00A847FDF7FAFF26
:108BB000FDF7D2FFFDF7AAFFFDF7D8FEFDF7C0FED7
:108BC00086F8DF0370BD00BF00FC0108358A00088D
:108BD000D40600202DE9FC41DFF82C47A07850BBDB
:108BE0000120A0701E2000F093FBDFF82077DFF853
:108BF0002C644FF00008FEF724F8CDF8008007F150
:108C00000800B04707F11C00FDF735FF07F1300001
:108C1000FDF731FF642507F14400FEF712F80095D7
:108C2000B04707F15800FEF70CF80095B047DFF8A1
:108C3000F003FDF720FFDFF8E8630025062D08D0DC
:108C400006EB8500406900F0BDFA61190135087135
:108C5000F4E72079022817D0032836D1DFF8985F8F
:108C6000FEF727F831D195F8C80301281FD1286AEB
:108C70004FF042412867FBF7A9FAC849FBF7FEFA13
:108C8000C749FBF72DFB13E0DFF86C0F90F8C51315
:108C900002291AD0C34AC449C36FC0F8B6230122BF
:108CA000FDF702FE426EC0E9062100200AE0A86935
:108CB000BD496866012085F8B40385F8BA03FDF75D
:108CC000ABFEE967DFF8B41B48716079032815D063
:108CD000022837D1DFF8200F90F8C513022931D0D0
:108CE000B04AB149D0F88030C0F8B6230222FDF76F
:108CF000DBFD826EC0E90621002021E0E84DFDF792
:108D0000D8FF1FD195F8C80301280CD1286A4FF06D
:108D100042416867FBF75AFAC249FBF7AFFAC2490A
:108D2000FBF7DEFA00E0A869C049A866022085F8D2
:108D3000B4030120FDF770FE85F8BA03C5F8801072
:108D4000BC494871A079032814D0022838D1D448EE
:108D500090F8C513022933D0B54AB449D0F884300D
:108D6000C0F8B6230322FDF79FFDC26EC0E90621BD
:108D7000002023E0CA4DFDF79CFF21D195F8C803E0
:108D800001280CD1286A4FF04241A867FBF71EFA70
:108D9000A449FBF773FAA449FBF7A2FA00E0A8691B
:108DA000E8660320A149D5F8942085F8B403012092
:108DB00085F8BA03C5E92121C5E923119D49487108
:108DC000E079042811D002284DD19A480021417140
:108DD000B34890F8DF13032928D002291ED00129B7
:108DE00041D1607801281CD03AE0924800214171BD
:108DF000AB4890F8DF03022805D0012833D1607812
:108E0000012803D007E06078012801D1E07810B193
:108E10008148052126E08048012123E0607801286F
:108E200001D1E078E0B17C4804211BE090F8B41354
:108E30000131CAB2032A88BF012180F8B413013975
:108E4000C9B2022905D87C4AFDF7B1FD7B4AFDF77E
:108E50004FFD7649764AFDF784FE4162C16102E02A
:108E60006D4800210170207A042811D002284CD1CD
:108E70007048002141718A4890F8DF13032928D0F7
:108E800002291ED0012940D1607801281CD039E088
:108E9000684800214171824890F8DF03022805D01C
:108EA000012832D16078012803D007E060780128DA
:108EB00001D1E07810B15848072125E05648032138
:108EC00022E06078012801D1E078D8B1524806212B
:108ED0001AE090F8B4134A1E022938BF032280F822
:108EE000B423511EC9B2022905D8534AFDF75FFDCC
:108EF000524AFDF7FDFC4D494D4AFDF732FE4162F5
:108F0000C16102E0444802210170607A032824D044
:108F1000022855D1474800214171614890F8DD137E
:108F2000032943D0022922D0012949D121780129DE
:108F300048D1F64A5023012161705360E278914391
:108F4000E1705AD14FF47A710022C0F8B6133D494E
:108F50000A703649C0F89C104BE036480121417137
:108F60004F4890F8DB13032920D0022928D190F82C
:108F7000C513022907D8C90040F20222C9B222FA59
:108F800001F180F8C5134FF47A71A0F8B8130021ED
:108F9000C0F8A810C0F8BC10BDE8FC810000A040DB
:108FA00000001041E803E80300007F4390F8C51378
:108FB000012902D021B9012100E0002180F8C51368
:108FC000BDE8FC8190F8B4130131CAB2032A88BF0E
:108FD000012180F8B4130139C9B2022905D8164A13
:108FE000FDF7E5FC154AFDF783FC1049104AFDF733
:108FF000B8FD4162C161BDE8FC81114900220A70DF
:109000004FF07A71C0F8B6130849C0F89810C0E95B
:109010000211BDE8FC8100BF080000205D9300083C
:10902000D00000200000A0400000104100007F435D
:10903000E803E8033C010020B0BC0008BCBC000809
:10904000C4010020C501002070B5D549174B194C4B
:109050001548144A00250126CB67C1F88040144BFF
:10906000154C8861C8660220C1F8942081F8D1535C
:1090700081F8CB6381F8C85381F8C253C1F88420CA
:1090800081F8D45381F8CE538D6281F8DF6381F883
:10909000DD6381F8C55381F8DB03C1E9193470BD84
:1090A000D40600200000A0420000BE430000484259
:1090B0000000A043000070420000AF4341617047D0
:1090C00001617047024A4FF6FF71C0E90012704714
:1090D00000040001F0B58B790A88032B0AD05BB934
:1090E0004979282913D0182912BF01F00F01026114
:1090F00008210EE000210CE00C79C97903F0080387
:1091000004F0040401F003012344194401E0426126
:109110000821130616D000230F240025082D11D096
:1091200022FA05F6F6070AD0076804FA03F627EADA
:109130000606066001FA03F607683E43066004333C
:109140000135EBE7B2F5807F17D3120A00230F2415
:109150000025082D11D022FA05F6F6070AD0476837
:1091600004FA03F627EA0606466001FA03F64768A2
:109170003E43466004330135EBE7F0BD80680840AC
:10918000401AB0FA80F040097047000070B5C0F393
:1091900007424FF0FF3352FA90F503FA02F4C5F19B
:1091A0002005EB40064D2340040EC0B266599040A6
:1091B000002926EA030318BF0343635170BD00BFB3
:1091C0000000014010B5044681880068FFF7D6FF13
:1091D000002818BF0120E279042A46D8A179DFE8E7
:1091E00002F003391D320E00814205D10020022118
:1091F000E0732081E171A0810020608110BD814277
:1092000035D1A089E17C0130A08171B382B2002008
:109210008A4222BFA081042010BD10BD81421EBF22
:109220000020E07110BD2089217C0130208182B2B4
:1092300000208A42F1D32081A07B0121E17101301D
:10924000A073012010BD814217D100200221A0602F
:10925000E17110BD814221D12089617C01302081E2
:1092600080B2884201D3E07B98B3002010BD00207B
:109270000221E073E171208110BD6089A17C013081
:10928000608182B200208A42C7D3A17BE071A073C3
:10929000481EB0FA80F04009400010BD022122892A
:1092A0000020E171617C60818A420CD2A07B60B1B8
:1092B000012803BF0320E071002000201EBFE071E1
:1092C000A073052001E0A07302200021E173218139
:1092D00010BD0420E0714FF08070E060032010BDED
:1092E00080B5FFF777FCFFF7A7F807480178012959
:1092F00004D106494A68013A4A6000D080BD002284
:1093000002805020486080BDDC0100200800002061
:1093100008B1C14908807047E8B12DE9F0410E4617
:10932000B9B1B6F800800C4D04464046A847074640
:1093300020747088A8476074B088A847A074F0882B
:10934000A847E074380604D1B8F1000F1CBF012013
:109350002074BDE8F0417047019600081CB5049CDC
:10936000ADF800106946ADF80430ADF80220ADF854
:109370000640FFF7D1FF1CBD884890F8E41301298F
:1093800004D190F8C00308B9FFF7AABF704700BF27
:10939000824890F8E403012808BFFCF733BD70470A
:1093A000D4060020FEB5044600267C4835498DF8D9
:1093B0000B60ADF808608DF80760D0F8945028462F
:1093C000FBF754F998B9A0088DF807604A2830D8FF
:1093D00064200021ADF808002B48FDF7A5FB1329F8
:1093E00048D8FDF76BFA45D2FDF725FAF5E7254990
:1093F0002846FBF765F9002600283ED128460021C3
:109400000027FBF733F9C0BBA0088DF807704A2886
:109410001FD864200021ADF808001B482930FDF753
:1094200083FB13292BD8FDF749FA23D2FDF703FA62
:10943000F5E74FF496701421ADF808001248FDF7D7
:1094400073FB272916D8FDF739FA13D2FDF7F3F984
:10945000F5E74FF496701421ADF808000A4829305A
:10946000FDF762FB272905D8FDF728FA02D2FDF7A0
:10947000E2F9F5E79DF80B10465C70B2FEBD0026E0
:10948000FBE700BF0000A0417400002082B04FF055
:1094900000604FF4804100F00BF902F09FF802F0F9
:1094A00027F801F045FF01F0EFFF02F0EFF801F0BF
:1094B00073FF01F051FF2C4C0021002200232046B5
:1094C00001F066FF204601210125FEF7CBFA02F0EC
:1094D000A1F902F047F801F0CBFE02F0F1F802F03A
:1094E00041F901F00DFF02F0D1F920482149224B4A
:1094F0004FF0814200901E48FDF7EEFB01F048FD61
:109500001E4C1F486421A2689047A2681D48012193
:109510009047A2681C4805219047A2681B48322149
:109520009047A2681A48C8219047A26819481E218E
:10953000904719480A21FFF717FAD848FBF78AFC29
:10954000FCF758F85E2086214FF492723323009581
:10955000FDF75EFDFEF79EF84FF47A7001F0EEFE27
:1095600060688047FCE700BF0800024000B8084779
:10957000EC0500200000484400409C46EC0A002016
:1095800055890008919300088D980008198A0008F1
:10959000A9B800087993000818060020D406002016
:1095A00070B50446408D092819D894F82C00FFF7AF
:1095B00055FAFBF7AAF80546608D461C44F8205082
:1095C000208D6685FBF7A1F801462846FAF7FEFDD7
:1095D000FBF7ADF8B1B22085B0FBF1F070BD208D86
:1095E0000A25B0FBF5F1401A208594F82C00FFF70E
:1095F00035FA218D0844208580B2B0FBF5F070BDAE
:1096000038B10549098821B108440138B0FBF1F0AF
:1096100000E0002080B270473601002002460120A1
:109620000B0608BF704750430139F9E7F0B51E4BF0
:109630004FF0FF361C68C4F30224E51E84F00704D3
:1096400038BF002506FA05F7BA43042C28BF0424C6
:1096500006FA04F4A143A94000F00F051143043DAC
:109660000A010A492B444418002804F5407448BFF5
:1096700003F10C04227008D400F01F020123C0F390
:10968000421003FA02F241F82020F0BD00E100E0B0
:1096900005494FF6FF030A681A4060F30A2203489F
:1096A00010430860704700BF0CED00E00000FA05B1
:1096B000024A1140084302490860704780FFFF1FBB
:1096C00008ED00E02DE9F8436A484FF40051FFF738
:1096D00055FD0446B0FA80F0D74F400987F8BE0325
:1096E00097F8BC03022833D0012811D000284DD1AF
:1096F00097F8D40301283DD0002845D124B997F824
:10970000C503022840F0B380012087F8BC033BE08A
:1097100097F8D4032CBB20BB97F8C503022835D09B
:1097200038685549FAF7CCFF80BBB7F8C000013064
:10973000A7F8C00080B2332828D30020012187F881
:10974000E503A7F8C00087F8BC034C4841711DE051
:10975000B86D0021FAF7C2FF30B9BCB10020B8657E
:1097600004E0012802D011E0002C7ED0012087F80F
:10977000BC030BE04FF47A70A7F8B603012087F81A
:10978000BC0300207862F861FDF716FADFF8F0906C
:1097900099F8000048B197F8D4032043000662D13D
:1097A000FDF70AFA87F8C0035BE097F8C5030228C3
:1097B0000FD1D7F8AC003449FAF774FF002852D122
:1097C000FDF71AFAB0F5C87F4DD9FDF7F5F903207A
:1097D00044E01CB997F8D403012838D13E68294CDD
:1097E00030462146FAF75EFF804630462146FAF7BA
:1097F0004BFF214905463046FAF762FF0446002830
:1098000018BF0124002D18BF0125B8F1000F0AD19F
:1098100019493046FAF72AFF28B9D7F8AC001A4997
:10982000FAF740FF98B9FDF7E7F965281BD395B122
:10983000B0F5C87F17D9D7F8AC001349FAF732FF53
:109840000028C2D07CB9FDF7B7F90120AAE7FDF7DF
:10985000B3F9BDE8F883FDF7AFF9022087F8C0033C
:10986000012089F80000BDE8F88300207FE7002090
:109870004BE700BF0010014000008C423C0100207B
:10988000E8050020000016440000C842DA4890F8BD
:10989000E403012808BFFFF715BF7047D406002076
:1098A000BCB5D54C94F8E303A8B164490A68501ECE
:1098B000086094F8C203002A0FDC002284F8E32336
:1098C0004FF4967201280A6029D030B9032084F839
:1098D000E103002001E094F8C20359494A790AB132
:1098E00040BB0BE0012201284A7120D010BB94F844
:1098F000BE03012809D8022084F8E10394F8BE13BE
:109900000020022938BF012000E0002094F8E11374
:1099100001F0FE0102290DD160B1022008E0022011
:1099200084F8E1034648417921B9012141710320BE
:1099300084F8E10394F8E10394F8E213814257D0EC
:1099400040493F4DFF22404B84F8E20384F8B523A1
:1099500084F8C92384F8CF2384F8C323E161216507
:10996000A160C4E93411C4E93611C4E93811C4F85E
:1099700098106164C4F8A010C4E92211C4F89010D2
:10998000A0F11D012A71C4E90433A3632363CAB2A1
:109990001F2A22D8AA797AB904201E214FF4F07226
:1099A0004FF4917300900020FDF732FB0120A87165
:1099B00094F8E103A0F11D01C9B2062904D3A0F176
:1099C0002D01C9B20D2914D800904F2046214FF423
:1099D000A172A523FDF71CFBBCBD00210090002057
:1099E0004FF4F0724FF49173A9711E21FDF710FB33
:1099F000BCBDA0F12301C9B2072906D800905020B0
:109A00003B2140F23F12BB23E4E7A0F13B010229D6
:109A10000AD3A0F12B010129EAD80090482058214F
:109A20004FF4A8728223D5E70090092057214FF404
:109A3000E7728423CEE700BFD4060020380100205F
:109A4000C401002000007F4300007A442DE9F84360
:109A5000DFF890810446644D98F80200A946012879
:109A600006D16248624D80682946FAF729FE08B996
:109A70005E488560A6695F49FDF77CF8AF4F0546F3
:109A800097F8C503012818BF3546D8F80C002946B9
:109A9000C8F80850FAF722FE88B9544E4FF07C51AE
:109AA000F069FAF7EBFBF0612846FAF740FEFFF7A2
:109AB00079FCC8F80C50FAF71FFEC4F8CC004F48E8
:109AC000FFF76EFD8008FAF720FEA16A2060FAF722
:109AD000CFFB054697F8C503022806D1FCF7D2FF55
