:020000040800F2
:10200000881C002085210008FF470008712D00086A
:10201000FD470008472A0008FD6D00080000000089
:10202000000000000000000000000000FF4C00085D
:10203000492A000800000000FD4C0008014D00087E
:102040009F2100089F2100089F2100089F21000870
:102050009F2100089F2100089F2100089F21000860
:102060009F2100089F2100089F2100089F21000850
:102070009F2100089F2100089F2100089F21000840
:102080009F2100089F2100089F2100089F21000830
:102090009F2100089F2100089F2100089F21000820
:1020A0006D6200089F2100089F2100089F21000801
:1020B0009F2100089F2100089F2100089F21000800
:1020C0009F2100089F2100089F2100089F210008F0
:1020D0009F2100089D6D00089F2100089F21000896
:1020E0009F2100089F2100089F2100080000000098
:1020F00000000000000000000000000000000000E0
:10210000000000009F2100089D6200080000000000
:102110009F2100089F21000800000000000000002F
:102120009F2100089F2100089F2100089F2100088F
:10213000000000000000000000000000000000009F
:102140000000000000000000000000009F210008C7
:1021500000000000000000009F2100089F210008EF
:102160000000000000000000000000009F210008A7
:10217000DFF80CD000F0A0F90048004711880008F3
:10218000881C00200648804706480047FEE7FEE717
:10219000FEE7FEE7FEE7FEE7FEE7FEE7FEE7FEE717
:1021A000F9610008712100082DE9FE4F804681EA9F
:1021B0000300C00F0C46009021F0004123F00045C1
:1021C000B8EB0200A94105D24046214690461C4684
:1021D0000B46024623F00040104347D0270DC7F3BB
:1021E0000A00C3F30A510290401A019040286BDAAA
:1021F000C3F3130040F4801B0098924620B10023E3
:10220000D2EB030A63EB0B0B01985946C0F1400275
:10221000504600F069F906460D4650465946019A67
:1022200000F081F910EB08006141002487EA1152A7
:1022300084EAE7731A4340D0009A62B3019A012AF4
:102240004FEA075215DC001B61EB02014FF0004220
:1022500002EA0752CDE90042001C41F580113246E6
:102260002B4600F081F903B0BDE8F08F40462146CF
:10227000F9E7001B61EB0201001C41F58013001817
:102280005B412018A2F5001747EB030140EAD57027
:10229000B6196D4111E06D084FEA360645EAC07582
:1022A0004FEA0752001B61EB0201001C41F580114F
:1022B00049084FEA30000019514132462B4603B01D
:1022C000BDE8F04F00F041B9009801224000002322
:1022D000D0EB020263EBE073009821464FEAE07412
:1022E000B8EB000061EB0401E9E783F000435BE732
:1022F00081F0004158E72DE9FE4F81EA030404F024
:10230000004421F0004100944FF0000B23F0004303
:1023100050EA01045ED052EA03045BD0C3F30A54CE
:10232000C1F30A552C44A4F2F3340194A0FB0254E7
:10233000C1F3130141F48011C3F3130343F4801379
:1023400001FB024400FB034E840A970A44EA8154CD
:1023500047EA8357A4FB076802958D0A05FB0785AA
:102360004FEA932C04FB0C542705029D4FEA0658B4
:1023700047EA1637B5EB08056EEB070C870E920E91
:1023800047EA811742EA8312A7FB0201B6EB0B0171
:1023900064EB00042B0D43EA0C335E1844EB1C5035
:1023A000DA465146E7FB0201C5F313044FEA0B334B
:1023B00043EA14534FEA0432019C43EA0603A4F1B2
:1023C0000C040294009CCDE900B400F0CDF803B0F9
:1023D000BDE8F08F00200146F9E72DE9F04D81EAD4
:1023E000030404F0004B21F0004514464FF0000AAE
:1023F00023F0004150EA050220D054EA01021DD02A
:10240000C5F30A570246C5F31303C1F31300C1F322
:102410000A5640F4801543F48013A7EB0608101BFE
:10242000D64608F2FD3873EB050002D308F1010827
:1024300001E092185B41B8F1000F03DA0020014679
:10244000BDE8F08D00204FF48011064684460EE072
:10245000171B73EB050705D3121B63EB050306433C
:102460004CEA010C49084FEA300092185B4150EAEF
:102470000107EDD152EA030012D082EA040083EA98
:102480000501084305D0101BAB4106D201220023F1
:1024900006E000224FF0004302E06FF0010253100B
:1024A0001AEB06004CEB085110EB0A0041EB0B0154
:1024B000BDE8F04D00F049B81CB509480090094846
:1024C00001900546009C06E0E06840F0010394E8B6
:1024D000070098471034AC42F6D3FFF74DFE0000DA
:1024E00014C6010834C60108202A04DB203A00FA89
:1024F00002F1002070479140C2F1200320FA03F35B
:10250000194390407047202A04DB203A21FA02F058
:102510000021704721FA02F3D040C2F1200291401D
:10252000084319467047202A06DBCB17203A41FAA8
:1025300002F043EAE07306E041FA02F3D040C2F150
:102540002002914008431946704710B5141E73F1DC
:10255000000408DA401C41F1000192185B411A4363
:1025600001D120F0010010BD2DE9F04D92469B46AF
:1025700011B1B1FA81F202E0B0FA80F22032904655
:10258000FFF7B2FF04460F4640EA0A0041EA0B019A
:1025900053465A46084313D0114653EA010019D056
:1025A000C8F140025046FFF7AEFF05460E465046C2
:1025B00059464246FFF798FF084305D0012004E042
:1025C00020463946BDE8F08D0020054346EAE07616
:1025D0002C4337430A986305E40AA0EB0800002265
:1025E000FD0A44EA47540A3002D500200146E9E7D3
:1025F000010510196941DDE9084500196941BDE887
:10260000F04DA2E70EB540F2334102910021CDE931
:1026100000110A460B46FFF7A7FF03B000BD70B5D7
:10262000C1F30A5201F000450024C1F3130140F246
:10263000FF3341F480119A4201DA002070BD40F26C
:1026400033439A42A2F2334203DC5242FFF75BFF6C
:1026500000E090402C43F1D0404270BDD2B201E086
:1026600000F8012B491EFBD270470022F6E710B597
:1026700013460A4604461946FFF7F0FF204610BDF0
:10268000F0B480EA0102D40F4200B2EB410F02D253
:102690000246084611464A0042D0C30DDDB2C1F3DE
:1026A000C752AD1A202D35DAC1F3160141F40002EC
:1026B00004B15242C5F1200602FA06F12A41104443
:1026C000B3EBD05F23D0C4B1012DA0EBC35009DC24
:1026D000F0BC4FF0004202EAC352DBB200F500004A
:1026E00000F083B9400000F1807000EBC350A0F10E
:1026F000807040EAD170490009E0490841EAC071A0
:10270000A0EBC35000F50000400800EBC350F0BC44
:1027100000F062B96142012202EB4101001BF6E7C1
:10272000F0BC704781F00041AAE780F00040A7E7C5
:1027300080EA010210B502F00043400022D04A00B6
:102740001FD0010E01EB1261C0F35600C2F3560216
:1027500040F4000042F40002A0FB022000047F3994
:10276000140400D0401C50EA124001D44000491E1D
:10277000C2B20C0604EBD010401C4008802A02D0E4
:1027800003E0002010BD20F00100002900DA002045
:10279000184310BD30B480EA010202F0004530F069
:1027A000004221F0004013D090B1C30DD40DC2F30C
:1027B0001601C0F31600E41A41F4000140F40002CF
:1027C0007D34914201D3641C00E04900002C02DA00
:1027D00030BC002070474FF400000023914201D329
:1027E000891A034340084FEA4101F7D151B19142A0
:1027F00002D14FF0004105E002D24FF0010101E0AB
:102800006FF0010103EBC450284430BC00F0E4B881
:10281000002801DBC0F10040002901DBC1F10041CB
:10282000814201D80120704700207047002801DB59
:10283000C0F10040002901DBC1F10041814201D219
:102840000120704700207047002801DBC0F10040E4
:10285000002901DBC1F10041814201D30120704711
:1028600000207047002801DBC0F10040002901DB97
:10287000C1F10041814201D9012070470020704719
:10288000002801DBC0F10040002901DBC1F100415B
:10289000814201D1012070470020704730B5041EED
:1028A00071F1000404DB4FF00044404264EB01018D
:1028B000141E73F1000405DB1C464FF00043524226
:1028C00063EB0403801A994101D2012030BD00203E
:1028D00030BDC10F80EAE0700844CA07962300218A
:1028E00000F083B896230022114600F07EB800F075
:1028F000004220F00040C10DC0F3160040F400007B
:102900007F2901DA00207047962903DCC1F1960186
:10291000C84001E096398840002AF4D04042704710
:1029200020F00040C10DC0F3160040F400007F29E4
:1029300001DA00207047962903DCC1F19601C840F6
:102940007047963988407047C1F30A5210B5C1F3F9
:10295000130140F2FF3341F480119A4201DA002062
:1029600010BD40F233439A42A2F2334203DC52429A
:10297000FFF7C9FD10BD904010BD00F0004230F0DF
:1029800000400AD0C10D01F56071C0F3160042EAA3
:102990000151C208400711437047002001467047AB
:1029A00001F0004330B421F0004150EA010206D0AA
:1029B0000A0DA2F56072C1F31301002A02DC30BCDB
:1029C00000207047440F44EAC104C100E01830BC45
:1029D00000EBC250AFF300800029A8BF7047401C35
:1029E000490008BF20F00100704710B4B0FA80FC25
:1029F00000FA0CF050EA010404BF10BC704749B162
:102A0000CCF1200421FA04F411FA0CF118BF0121D1
:102A100021430843A3EB0C01CB1D4FEA00614FEAB1
:102A2000102042BF002010BC704700EBC350104480
:102A30000029A4BF10BC7047401C490008BF20F00B
:102A4000010010BC7047FEE7704700002DE9F84F09
:102A500041F6A309622A88460546DFF890A09B4606
:102A6000CDF8009028BF6222052A98BF0522C2F146
:102A70006400A62148436421424680B2B0FBF1F7CE
:102A80002846532107F153063346D0470A9831466A
:102A90000F220F230090681E84B2204603F02CFE04
:102AA0006137284642464FF48073CDF800B039466E
:102AB000D047204653212A463346CDF80090D047D0
:102AC000204639462A4602F082F808F101005321D7
:102AD0003346CDF8009084B240462246D047404667
:102AE0003946224602F073F8BDE8F88FB32E00088D
:102AF000438E4FF6FF7293421CBF5A1C428670B53C
:102B0000CB1C0021062B24D8DFE803F00423142378
:102B10000823200001F078FF04211AE0038C41868D
:102B20009A4238BF012180F834104FF0010138BFBC
:102B300009210EE0038C41869A4238BF012180F8BA
:102B400034104FF0020138BF0A2102E001F05CFFAF
:102B50000321024612F8305F12F8093C12F8036CA8
:102B6000DCB202F8033C84F001033343B3FA83F38D
:102B70005B094DB1002B5ED0002280F83020C28569
:102B8000826280F82C2056E0458D6DB1013D45856F
:102B90002D0401D0002508E090F82C50012D03D120
:102BA000002101F031FF05210125BCB1002B42D0ED
:102BB000024632F8283F32F8104CA34239D3448BF6
:102BC000A3422FD290F82C3085F00104013B18BFAE
:102BD000012323432DD1838B43852AE0038D048B6E
:102BE000013303859BB2A3420AD12DB990F82C4042
:102BF000012C01D1062101E000F12C020124147006
:102C0000428B934217D3C38DC28B01339CB2B4FB6A
:102C1000F2F505FB1242002A18BF1A46C28508BF0A
:102C2000082108E0002180F83010C1851160117181
:102C3000072100201080084670BD2DE9F04701688B
:102C400082888B68816886898D680469818AA46816
:102C500005EA0607BD1B04EA010CB5FA85F5ACEBE5
:102C600001044FEA551E90F82450B4FA84F4640924
:102C700080F8264080F8274003EA0204A31AB3FA3A
:102C800083F34FEA531A837D1BB355452ED0B7EB20
:102C9000060918BF4FF0010990F82580B8F101032B
:102CA00018BF0123BD1BB5FA85F56D091D4394427C
:102CB0001FD165B1B8F1000F08BFB7423DD0A8EBF6
:102CC0000E02B2FA82F2520912EA090F3DD0012532
:102CD0001EE055450AD04FF0FF35B74280F825E099
:102CE00080F824A008BF0125944217D102200025B6
:102CF0001DE065B1B8F1000F08BFB74221D0A8EBC5
:102D00000E02B2FA82F2520912EA090F27D0FF2509
:102D10004FF0000E80F825E080F824A0EAB26FF0B2
:102D20000200012A08BF0320002A08BF02208C45A8
:102D300018BF054668B2BDE8F087FF254FF0010EC9
:102D4000E8E74FF0010E0125E4E787EA060288EA8A
:102D50000E031A43B2FA82F252095542DAE787EAC1
:102D6000060288EA0E031A43B2FA82F25509D1E745
:102D7000FEE700002DE9F84FDFF88CB007462A2067
:102D8000984692468946D847F44C4FF40045380A95
:102D9000F3494FF480666560C4F8FC03F8B20E6036
:102DA000C4F80068256065600F46C4F8FC034FEA6C
:102DB0001A200E6001F086FD5FFA8AF00E6001F0C5
:102DC00081FD2B200E60C4F800682560D8474FEACB
:102DD000192065605946C4F8FC035FFA89F03E602B
:102DE00001F070FD4FEA18203E6001F06BFD5FFAC4
:102DF00088F03E6001F066FD3E60C4F80068256022
:102E00002C20BDE8F84F0847653100082DE9FE4F3A
:102E10000C46A3EB010B111A05460029029101DDB6
:102E2000012008E005D00298404202904FF0FF30A8
:102E300001E000200290BBF1000F019001DD0126AE
:102E400007E019BFCBF1000B4FF0FF364FF0000B3E
:102E5000002602985F464FF000084FF000094FF03F
:102E6000000A584588BF07461FFA88F08742B8BF56
:102E7000BDE8FE8FA8B2A1B202460B46FFF77AFF6B
:102E80000C9800F05DF90AEB0B0008F10108B8425C
:102E9000C8BF34440299019A4944B942C8BF154495
:102EA000B0EB070AD8BF8246B1EB0709D8BF894605
:102EB000DAE72DE9F8438146501E154698460E463E
:102EC00082B2581E83B24846FFF754FF089CB0B246
:102ED000404528BFBDE8F8834F46B8B2A84204D2A7
:102EE000204600F02DF90137F7E70136EFE7000043
:102EF00010B5002006F06EFDA548A44A4FF400412D
:102F00004FF4006341601360D0F8F843C0F8003814
:102F10000160102006F05EFDA0B210BD2DE9F04F5B
:102F200087B0119F1C46904600EB5702CB1901F069
:102F3000E4FD01203909109E4FF0000B17F00E0F31
:102F400018BF00EB171101FB07F00690A8F1200055
:102F50004FF4C8717D084FF00008C2B22D480592A9
:102F600012FB010004902F4800EB021003902B4845
:102F700000EB82100290284800EB02200190069896
:102F8000804543D0502F16D0102F18D00598182FF9
:102F900000EB400009D0202F0FD0402F09D00C2F7C
:102FA00034D1214901EB80000AE01D4901EB0010FA
:102FB00006E0019804E0049802E0029800E003981B
:102FC00040440BF108074FF0000A90F80090BAF166
:102FD000080F13D029FA0AF0C007204608BF304670
:102FE00000F0AEF80BF1010B1FFA8BF0B0FBF5F11E
:102FF00001FB150020B10AF1010AE8E7BB4601E038
:103000004FF0000B119F08F10108B8E707B0BDE8C9
:10301000F08F00BF4831010848D2000888BA000884
:10302000B8A80008C8A20008549E00082DE9FE4F69
:1030300007460D98994692460E4600254FF00A081D
:103040004FF0000B4408032D08BFBDE8FE8FC5F10B
:1030500002000121020604D001EB81010138490080
:10306000F8E7BAFBF1F0BBF1000FB0FBF8F101EBB0
:103070008101A0EB410105D1012D03D8080410D036
:103080004FF0010BDDE90C2041F030014B46CDE95A
:10309000002005FB0470CAB2314601F0CEFB0135B9
:1030A000D1E7DDE90C1030224B46CDE9001005FBDD
:1030B0000470314601F0C1FB4FF0000BEFE72DE942
:1030C000FC47DDF82880994615460E4607464FF026
:1030D000000A4FEA58042A784AB1B8B231464B4642
:1030E000CDE900A8FFF71AFF27440135F3E7BDE853
:1030F000FC8700002DE9FE4F1C469046894683461A
:103100005D0800260FF2300A0027072F08BFBDE830
:10311000FE8F781EC0B205280AD81AF800200BEBE3
:10312000060049464FF6FF73CDE9008401F085FBA8
:103130002E440137E9E700BF56312E302E3500000E
:1031400013494FF400424FF480634A60C1F8FC0316
:103150000E480360C1F800380A607047100801404B
:103160001410014010B50949094B4FF480524FF437
:1031700000440A605C60C3F8FC034FF480600860A0
:10318000C3F80008C3F800281C6010BD14100140EB
:10319000100801402DE9F04F95B0DFF898BB9BF87F
:1031A000140001282AD0002841F0ED82DFF8889B26
:1031B00099F8E60302282AD1D9F8B040CA4901F0AB
:1031C00088FC88B3C84901F046FC002840F0C48060
:1031D00099F8C003002840F0BF809BF81C0000282D
:1031E00040F0BA809BF81D0001308BF81D00C0B282
:1031F000032824BF0120ABF81C0076E09BF82800D0
:10320000012808D1DFF8480E90F8D10336E00020FD
:103210008BF81C00A0E0DFF8384E94F8EB03B0B157
:1032200001281DD17F2013E09BF81B0001308BF893
:103230001B00C0B215284FD300208BF81B009BF851
:103240001A00013000F003008BF81A0046E03D2020
:103250000090002000214FF4F0721E2303F04CFA7E
:1032600040F29F10082143F286121023FFF742FF1D
:1032700001208BF82800FF2084F8D103DFF8D08DDF
:1032800098F8D01388420FD03F20012908BF3E2074
:1032900000904FF4C77006211522152303F02CFA75
:1032A00098F8D00388F8D10398F8C90398F8CA139E
:1032B000814221D0012803D098F8CB13012916D1DF
:1032C000702003212A221823009040F2631003F09B
:1032D00013FA98F8C9030DE09BF81A0000218BF847
:1032E0001C10DFE800F002302C2E56202CE00021CC
:1032F0008BF8281088F8CA0398F8C40310B1FF218E
:1033000088F8C51398F8E6134FF6FF7A01F0FE022D
:10331000022A4FF6FF7240F04E8798F8C52382428A
:1033200000F0B781032800F2AE81DFE810F004005E
:10333000A401A001A201012088F8E703A3E158201D
:1033400002E0592000E0572000904FF4D770282168
:103350002422222303F0D0F999F8E80301280FD1A1
:10336000DFF8F00C81694A1E0029826108DC002127
:1033700089F8E8134FF496718161172089F8E60304
:103380009BF8181099F8C60319B108BB99F8C21335
:103390000CE0012101288BF818100CD0C0B999F865
:1033A000C213012909D8022089F8E6030020022966
:1033B00038BF012002E0032008E0002099F8E6135E
:1033C00001F0FE01022903D110B1022089F8E603C1
:1033D00099F8E60399F8E7234FF6FF7182425CD033
:1033E000DFF8702C414B89F8E703D1814049FF2277
:1033F000C9E90433C9F83830C9F8303089F8B9233D
:1034000089F8CE2389F8D42389F8C7238BF81620AE
:10341000C9F81C10C9F85410C9F8081001F05DFC77
:10342000C9F89C10C9F84410C9F8A41001F000FABA
:10343000A0F11D01CAB21F2A23D89BF8192082B916
:1034400004201E214FF4F0724FF49173009000207D
:1034500003F052F901208BF8190099F8E603A0F166
:103460001D01C9B2062905D3A0F12D01C9B20D294C
:1034700000F2D68000904F2046214FF4A172A52380
:1034800009E00021009000204FF4F0724FF4917396
:103490008BF819101E2103F02FF99BF8200001284A
:1034A0000DD0002840F07A81B9F8BA0390B199F8AC
:1034B000E663022E57D0032E5AD1192154E0B9F8F1
:1034C000BC03B8B199F8E663022E78D0032E7BD105
:1034D000192175E09BF82900002800F009810138C6
:1034E0005F468BF82900B2E00000A04200007A4459
:1034F00000007F43D9F89850D9F8A000D9F8B4401B
:1035000001F097FA30B1D9F8B80001F08AFA002832
:1035100040F0418199F8C01399F8C22399F8D93342
:1035200099F8E603C9F8B840C9F8A050090608BFE1
:103530002C4682F00101DAB2114318BF2C46CBF8B9
:103540006040022800F01381032840F0248101F03C
:1035500085FA0246202043F28611CDE900104FF48F
:10356000CB70CD2113E10521D0FA51F0A9F8BA03AF
:103570000020D9F820505F46C9E90200D9E9064089
:1035800001F04FFA28B1D9F8240001F052FA0028CE
:103590005DD199F8CD03C9F82450C9F81C40002822
:1035A00008BF254601F098FA0446022E45D0032EA6
:1035B0004DD101F073FB40F28910502143E0052109
:1035C000D0FA51F0A9F8BC0399F8C973022F04D0BE
:1035D000E948C9F8B800C9F8A000D9E92640D9F8E7
:1035E000BC5001F01EFA30B1D9F8C00001F021FA48
:1035F000002840F0D080C9F8C050C9F89C40022F84
:1036000008BF2C4601F02AFA0446022E24D0032ECD
:1036100040F0C18001F042FB4FF4CB70CD2123E09C
:10362000A0F12301C9B2072900F23984009050208B
:103630003B2140F23F12BB232DE75E2001F020FA30
:1036400001F033FB78214FF66143FFF7EFFC97F869
:103650002000BB4601309FE0622001F002FA01F039
:1036600024FB4FF48770782143F67F4391E0462096
:1036700002E0442000E0422000907B207B21EB22EE
:10368000672303F039F898F8C40398F8E61388F82C
:10369000C50302294FF6FF7240F08D8598F8C003EC
:1036A000022804D0012812D0002840F045851820B7
:1036B0000024342100224FF6FF73CDE9004040F290
:1036C0004510FFF7B3FCABF84C4000F035BD98F85F
:1036D000C203012802D198F8D90320B198F8C94350
:1036E000022C40F0ED830020ABF84C0000F024BD2C
:1036F00099F8C4035F460028A9D1D9F82850D9F811
:10370000008000212846FFF7BBF89C490646284662
:10371000FFF70EF89A49FFF73DF801F0BEF885F083
:103720000041002E18BF084699F8CDB3BBF1010F38
:1037300018BF0846FFF7DBF899F8C9A30546BAF1A8
:10374000010F40F0EF83BBF1010F40F015848B496E
:103750004046FEF7EDFF8A49FFF71CF801F09DF89F
:103760008849C9F80400FEF78BFF0646E9E36020AC
:1037700001F077F9DBF86000FFF7B9F80246502056
:1037800041F6A301CDE900104FF4877078214FF680
:10379000FF73FFF74BFC00208BF8200099F8E6033D
:1037A000022800F06F81032840F081819BF8170008
:1037B00058B9002029214FF4BC72FA23009012203E
:1037C000FFF777FB01208BF81700D9F800606E49EE
:1037D000D9F84850D9F8B08001F0B6F999F8C94342
:1037E000012C18BF3046FFF782F80646FFF771F844
:1037F00001462846FFF736F8074601F06DF9054601
:10380000002F08BF354699F8C00350B15F494046C4
:10381000FFF70CF828B99820022C08BFBC2059F8F3
:10382000008028B2CA46FFF754F859490546FFF709
:103830000BF8584E00281CBF0025C4F2FA35284664
:103840003146FEF7E5FF544A00281CBF0025C4F2AC
:10385000C8252846314606F0A1FAABF8500040468C
:10386000FFF745F8FFF73EF84C4901F02FF9002823
:103870001CBF0024C4F24834204600210026FEF775
:10388000C7FF0028464A18BF00242046002106F042
:1038900085FAABF8520040F2651744F6384B4FF00A
:1038A0000009B9453CD009F112000AEB090800965D
:1038B00084B209F1140098F8EC1098F8ED3085B254
:1038C00020462A46FFF7A2FA98F8521298F8533287
:1038D00020462A460096FFF799FAB9F5B27F14D030
:1038E0004FF2604098F8EE3098F8ED102A460090BC
:1038F0002046FFF78BFA98F8543298F85312204676
:103900002A46CDF800B0FFF781FA98F8ED0009F1EA
:10391000010988F8EC0098F8530288F85202C0E7D1
:10392000DFF8681EDFF8206BD146002448F20F450F
:103930004727B1F850008AF85102B1F852008AF8CE
:10394000B7034FF02A0A6CB3052C43D004FB0AF0EE
:103950004FF4BC720095283081B212200B46FFF75D
:1039600055FA04FB07F02821FA230095123080B2A3
:103970000246FFF74BFA2BE000007F4300001041A6
:103980000000A0400000F4C2000048C20000F04166
:103990000000FA430000C8420000164400004843FB
:1039A00000007A43122028214FF4BC72282300958E
:1039B000B047122028211222FA230095B047122086
:1039C000FA2101F045F94FF4BC70282101F040F9CB
:1039D0000134B8E773202A212F22192300901420E4
:1039E00002F08AFEDFF8CC4D0C250FF6BC521520F4
:1039F000462100F0DAFF0FF6C0521520702100F0CA
:103A0000D4FF0FF6C05215209A2100F0CEFF0FF61A
:103A1000C0521520C42100F0C8FF0FF6C052152077
:103A2000EE2100F0C2FF74202A21172217230090F4
:103A300040F25F1002F060FE0FF6AC524FF4B2702D
:103A4000462100F0AEFF0FF6A4524FF4B270702181
:103A500000F0A7FF0FF698524FF4B2709A2100F0D1
:103A6000A0FF0FF690524FF4B570C42100F099FFFB
:103A70000FF684524FF4B870EE2100F092FFDFF899
:103A80000CBD91E0D9E90045D9F8100000F0C9FF5C
:103A900088B9B9F8BA1399F8CD03C9E90445A1B1B9
:103AA00000B3D9F820009B49FEF7EAFD17E000209B
:103AB0008BF8170078E0D9F8140000F0BAFFB9F8D5
:103AC000BA130028E7D059B3E5E799F8C96360B1A4
:103AD00090492846FEF7D4FD012E18BF28468E4C8B
:103AE0008E4D0AE0D9F8180005E08D4900F096FFE8
:103AF000012E18BF20468B4C8B4DFEF73EFF024631
:103B00000B4628462146FEF7F6FBFEF788FD0246E7
:103B10006A2027214FF6A04300901A20FEF796FF57
:103B2000D9F89840D9F8A400D9F8B45000F079FF3A
:103B300010B9D9F8BC600CE0D9F8A800D9F8BC607D
:103B400000F077FF28B1D9F8AC003146FEF798FEB7
:103B500050BB09F1A40070C099F8C003012809D135
:103B600099F8C203012805D199F8D90310B9B9F819
:103B7000BC0320B101F018F808BF3446254600F018
:103B8000ABFFFEF73FFD694B0022FEF7B4FBFEF7EB
:103B900046FD02466B204FF4E37140F25F43009014
:103BA00040F2B910FEF752FF99F8E603011F11F138
:103BB000020FC0F0CF8046F269605D214FF4817240
:103BC0004FF49473ADF850003020109346F26853D0
:103BD0001291CDE90C21CDE9072199F8B813119282
:103BE00013900E9009905A20ADF83C30C1230690F6
:103BF00099F8B9030B9346F26743ADF82830884231
:103C000047D006AC012604F10805042E10D099F81F
:103C1000B903864209D16F7AAB882A8835F8041C2B
:103C200035F8080C009702F067FD14350136ECE713
:103C300099F8B90308B104280DD300253C2D0AD00A
:103C40006619605BB3893289B188767C009602F090
:103C500053FD1435F2E799F8B803411ECAB2022A9F
:103C60000FD8900050FA81F134F8210004EB810460
:103C7000A3892289A188247C009402F03DFD99F853
:103C8000B8032B49002289F8B9038BF8212001F0F1
:103C900024F800285CD09BF82100002858D1D9E9ED
:103CA0001A06D9F81850D9F82040FEF720FEADF8D2
:103CB000120000F06CFFADF81400D9F87000FEF7A8
:103CC00016FEADF81600D9F87400FEF710FEADF838
:103CD0000C00D9F87800FEF70AFEADF80E00D9F80E
:103CE0007C00FEF704FEADF8100000F0F5FE05467E
:103CF00000F0B4FE00210DF1120203AB03291DD028
:103D000032F81140AC4223D033F8114001318442E3
:103D1000F4D11DE00000F4C2E3A5BB3FD9CEF753B8
:103D2000000048C29999C93F9A9999990000E43FC7
:103D300000007F43080100209C140020C648C9E908
:103D40003500C9E93700C9E9390001208BF82100A5
:103D500099F8E60300F0FE00022840F09B80D9F8B5
:103D60006840D9F8D400D9F8745000F05AFE20B158
:103D7000D9F8E00000F05DFE90B900F0A3FE08BFA6
:103D80002C4600F06BFE00F08EFE602000F0E4FD9B
:103D9000D9F86800D9F87410C9F8D400C9F8E0104F
:103DA000D9F86C40D9F8D800D9F8785000F039FE2D
:103DB00020B1D9F8E40000F03CFE90B900F082FE9A
:103DC00008BF2C4600F04AFE00F06DFEC72000F050
:103DD000C3FDD9F86C00D9F87810C9F8D800C9F833
:103DE000E410D9F87040D9F8DC00D9F87C5000F024
:103DF00018FE20B1D9F8E80000F01BFE98B900F0D9
:103E000061FE08BF2C4600F029FE00F04CFE4FF486
:103E1000977000F0A1FDD9F87000D9F87C10C9F8AE
:103E2000DC00C9F8E810D9F88040D9F88C0000F01F
:103E3000F8FD50B900F012FE00F035FE8D2000F0C4
:103E40008BFDD9F88000C9F88C00D9F88440D9F8E6
:103E5000900000F0E6FD50B900F000FE00F023FEF7
:103E6000F42000F079FDD9F88400C9F89000D9F861
:103E70008840D9F8940000F0D4FD58B900F0EEFD68
:103E800000F011FE40F25B1000F066FDD9F88800EA
:103E9000C9F894009BF81400013000F072BCA0F146
:103EA0003B01022936D3A0F12B0101293FF6F5AAE7
:103EB0000090482058214FF4A8728223FFF7EBBAF4
:103EC000D8F80000D8F81870FEF711FD012C08BFD3
:103ED000323800B2FEF7FDFC604904463846FEF772
:103EE000CFFB21468246FEF7A1FC5D4905463846D8
:103EF000FEF7C6FB064635B930462146FEF7B2FC52
:103F0000002800F0B58030462146FEF781FC30BB2A
:103F1000012006E10090092057214FF4E772842325
:103F2000FFF7B9BABBF1010F7CD14E494046FEF70D
:103F3000FFFB4D49FEF72EFC00F0AFFC0646C9F82A
:103F400004002846FEF7C5FC014600F0FDFDFEF723
:103F5000CEFC0546FEF7BDFCD9F84C601EE050468D
:103F60002146FEF771FC00284FF6FF7A40F0E08012
:103F700000208BF81E00D9E03C494046FEF780FB4C
:103F800006462846FEF7A5FC014600F0DDFDFEF7DB
:103F9000AEFC0546FEF79DFCD9F848600146304668
:103FA000FEF760FC10B100F0F2FD054699F8E6431B
:103FB00044F00200032801D1142004E099F8C00362
:103FC000002818BF142087F82900D9E9016041466C
:103FD000FEF756FC38B1D9F80C003146FEF750FC1C
:103FE00000287FF434ABBAF1020FC9E9028617D07A
:103FF00099F8D303012813D197F82A00CA46B94685
:10400000002855D00AF11800BBF1010F08BF0AF1D2
:1040100020000068FEF76BFC0546C9F8640060E00C
:104020007D665FE02846FEF754FC01464046FEF7F9
:1040300027FBFEF75CFC0546FEF74BFCD9F8486011
:1040400001463046FEF7E4FB0028ACD0AEE700BFE7
:104050009C1400200000002000007F430000C842A4
:104060000000C8C2000010410000A040000048C28B
:104070009BF81F00022853D1DFF814074FF6FF7A90
:10408000018A0139018209B2002951DC3221018201
:1040900038462146FEF746FBFEF729FC01B280EACE
:1040A000E130A0EBE13000B20128D8BF01203DE0B3
:1040B0002846C9F86450FEF70CFCDAF81860DC49B1
:1040C000804600F041FD4146FEF7CCFB48B9D94996
:1040D00000F03AFD4146FEF7A9FB10B9012089F82E
:1040E0002A00D146032C0ED0022C7FF4B0AA5C200B
:1040F00000F0C6FCB7F86420502041F6A301CDE9DA
:104100000010782108E0202043F28611AAB2CDE900
:10411000001040F2891050214FF6FF73FFF795BA57
:1041200002208BF81E0064204FF6FF7AABF84C009B
:104130009BF81E008BF81F00DFF85416BBF84C00EC
:10414000C98981423AD0C0B2642828BF64200128BE
:1041500098BF0120C0F16400FEF7C4FBB649FEF72A
:1041600019FBB649FEF7E4FAFEF7C1FBC0F587700C
:1041700044F25071432384B20091CF203F21224664
:10418000FEF797FE41F6A3003F214FF487724323C9
:1041900000902046FEF78DFEBBF84C201820002131
:1041A0004FF6FF73CDE9001040F245103421FEF7C1
:1041B0003DFFBBF84C20DFF8D805C28198F8E673C4
:1041C00007F0FD002D2804D1D8F82C50D8F8344041
:1041D00007E0D8F81850D8F82040C8F82C50C8F894
:1041E0003440D8F83000D8F8386000F022FC18B11C
:1041F000304600F016FC28BB47F00200C8F83840F3
:10420000C8F830502F281DD198F8CD0398F8DC63FA
:10421000002808BF2C4600F021FC0246202043F273
:1042200066114FF6FF73CDE90010F0B2022808BF07
:104230004FF4FC634FF487702F2F18BF534696211D
:10424000FEF7F4FE9BF8220038BB0120D8F8186076
:10425000D8E91A548BF82200D8F80000FEF747FB83
:1042600000EBC000052700F0E7FBC8F8040000F0F1
:104270008EFC00F0CCFAC8F8200000F02DFC00F015
:10428000C6FAC8F8740000F0E9FB00F0C0FA00F0CC
:1042900055FC00F0BCFAC8F87C0098F8CD9398F86B
:1042A000CE434C4527D0D8F80000D8F81860D8E99C
:1042B0001A5AFEF71CFB00EBC000052700F0BCFB00
:1042C000C8F8040000F063FC00F0A1FAC8F8200070
:1042D00000F002FC00F09BFAC8F8740050464FF65C
:1042E000FF7AFEF704FB00F092FA00F027FC00F0E2
:1042F0008EFAC8F87C009BF81500062800F2408270
:10430000DFE800F00478183C09A4C1004C4540F0F7
:10431000CD80012032E298F8E603372840F01A8178
:1043200098F8DD03012800F00B81002840F023827B
:104330006F2006E198F8E603232840F0B58098F84E
:10434000DF030138C1B2032900F2AE80C000DFF8FC
:104350004C54782114221423C4B2394800F01AFCBA
:10436000384EA1211422142306F57F4000F012FCE0
:1043700026FA04F0CA2114221423C3E198F8E603B4
:10438000A0F1230100F0A2FC00F2F581012202FA63
:1043900001F140F66162114200F0ED812D2808D054
:1043A000352806D0372802D198F8DD1309B139280D
:1043B00004D14E2000F05DFB98F8E6032F2805D0CD
:1043C000372808D198F8DD13012904D1512000F0D5
:1043D00050FB98F8E603232840F0CD8198F8DF03DE
:1043E0005121042808BF4E210091C420FF215822EA
:1043F0002D2345E098F8E603A0F11D0100F066FCCE
:1044000000F2B981012202FA01F140F6774211422D
:1044100000F0B1811D2840F0CA8098F8CC03002834
:1044200000F0BC80012840F0C2808924B121B7E0AF
:10443000000020C1000020410000C84200007C4272
:10444000797A7A7A7A7A797A0D2E000898F8C00308
:104450009BF81610814200F08E8198F8C91302294A
:1044600000F0898198F8E61300288BF816004CD1EB
:1044700002294AD14020282196224B230090A520D2
:1044800002F03AF977E19BF8252098F8C913022A3F
:1044900022D1022920D098F8E6038BF825100228B3
:1044A00040F053817C2049E1032067E198F8E6035E
:1044B0002F283BD0032800F028812D2836D0022851
:1044C00040F05581B9F1010F00F04981B9F1000FB9
:1044D00040F04D814C2043E10020022A00F04E8143
:1044E000022940F04B8102208BF8250098F8E60362
:1044F000022840F02A8198F8D603002800F01581A0
:10450000012840F01A817E2010E1012808BF02290D
:1045100040F031817B20282196224B230090A5205A
:1045200002F0EAF89A48A0F80EA024E1B9F1010FD0
:1045300000F0F380B9F1000F40F019814820EDE060
:104540006C200090CD20BE214622202302F0D4F81A
:1045500098F8E603352840F00E81EC20832143F2E1
:10456000661220234FF0EC0843F266152026FEF772
:10457000C1FD002787A4072F00F0FD80781EC0B280
:10458000052809D8225C08EB0710B5214FF6FF7308
:10459000CDE9005600F051F90137ECE7B12489214B
:1045A0005A2000F02DF95B20214600F029F998F8F7
:1045B000E6031F2812D198F8CF03012803D0A8BB27
:1045C0008924B12101E0B12489215A2000F018F991
:1045D0005B20214600F014F998F8E603212810D159
:1045E00098F8D20320B101280BD18924B12101E030
:1045F000B12489215A2000F003F95B20214600F004
:10460000FFF898F8E603312812D198F8D50301286D
:1046100003D0B8BB8924B12101E0B12489215A20FB
:1046200000F0EEF85B20214600F0EAF898F8E60387
:10463000332810D198F8DB03012803D058B9892416
:10464000B12101E0B12489215A2000F0D9F85B2082
:10465000214600F0D5F898F8E603252814D198F8FB
:10466000E103022805D0032840F085808924B12188
:1046700001E0B12489215A2000F0C2F85B202146D4
:1046800000F0BEF898F8E60327281ED198F8E30357
:1046900000F086FA6FD8C000404D752125221E23F8
:1046A000C4B23F4800F076FA3E4E9E2125221E23DA
:1046B00006F57F4000F06EFA26FA04F0C7212522A5
:1046C0001E2300F09DFA98F8E603292853D198F8A4
:1046D000E50300F065FA4ED8C000304D7521252263
:1046E0001E23C4B22E4800F055FA2E4E9E212522DC
:1046F0001E2306F57F4000F04DFA26FA04F0C7218C
:1047000025221E2300F07CFA35E0B9F1010F1ED0FE
:10471000B9F1000F2BD14A201AE0492000904FF444
:10472000A07099211C221B231FE07B200090A52054
:10473000282196224B2301F0DFFF75200090912065
:104740005021BE22232301F0D7FF002016E04B208A
:1047500000904FF4DC7054211A22182305E04D20FC
:104760000090C820AA211422152301F0C5FF98F853
:10477000CD0388F8CE039BF8150001308BF81500A7
:1047800000208BF8140015B0BDE8F08F0801002060
:104790000000002056312E302E310000F96600084E
:1047A0005A5B5B005B5B5A00353030283933322965
:1047B00000000000BF30000834303028373532297F
:1047C0000000000033303028353732290000000067
:1047D000323030283339322900000000313030289F
:1047E00032313229000000003230300031353000E3
:1047F000313030003530000030000000FEE77047F7
:1048000025221E2300904FF4AA7001F075BF00EB23
:10481000C000B0FBF7F0203080B2FEF763B8BDF8FF
:1048200008100A31ADF808109DF80B1001317047DF
:10483000C9E92311C9F89410704780B2FEF76EBB26
:104840004FF47A704FF07E517047D9F820004FF046
:104850004241704795F82D00013885F82D0000067B
:104860007047ADF809908DF80450CDF80560704799
:104870000A6842F001020A6070472D2087F8E603BB
:104880000020704700BF00BF00BF00BF00BF00BFD7
:1048900000BF00BF00BF00BF70474FF08441FDF76D
:1048A000EFBE97F8E60300F0FE010229704750F8CA
:1048B000210052F821100068C9F818000968C9F8E9
:1048C00098107047C4F8006825606560C4F8FC0360
:1048D0007047C9F82410C9E92311C9E92512C9F89C
:1048E0009C1089F8B8037047A9F8BC03D9F8BC003C
:1048F000FDF7C6BEA7F8BC03D7F8BC00FDF7C0BEE5
:10490000A7F8BC03D7F89800FDF7BABE09F18C00F0
:1049100002EB8102704701208AF80D0000208AF81E
:104920002A00502068614FF47A70A9F8BA0399F808
:10493000CD030128704707F18C0002EB810270471C
:10494000BDF808109DF807201144B1427047204679
:104950004FF07E51FDF794BE4FF48C71FEF766BBAD
:104960004FF04241C9F82000FDF78ABE87F8E60300
:1049700097F8E10397F8E31397F8E52387F8E00346
:1049800087F8E21387F8E423704799F8B813C9F859
:10499000BC400329704799F8B813C9F89840032917
:1049A000704744F63843009520474FF26043009526
:1049B0002047686101208AF80D004FF47A70A9F849
:1049C000BC03D9F89800FDF75BBE97F8B813C7F899
:1049D000BC400329704797F8B813C7F898400329DB
:1049E00070470021017299F8C9130229704700210C
:1049F000C16581650165C164A9F8461089F8121086
:104A0000C8F840108164704780F83010C185816219
:104A100080F82C1070472046FDF724BF2046FDF794
:104A20002FBE2146FDF72CBF4FF042413862FDF703
:104A300027BE2946FDF724BFB0FBF7F0203080B237
:104A4000FDF750BF386840F0010038607047786368
:104A50002846FDF715BE2046FDF7F6BE2046FDF7B9
:104A600046BFD4217B22192300904FF4877001F0B8
:104A700043BEFA2158222D230090C42001F03CBEF1
:104A8000D2217B221C2300905A2001F035BE04461F
:104A9000FDF7CCBE01462046304799F8E60300F00A
:104AA000FE00022870470246182043F286114FF696
:104AB000FF73CDE90010704700214FF4F0724FF4FE
:104AC000A073704799F8CD03012870470446FDF79D
:104AD000BBBE2046FDF7AABE2846FDF708BF8DF8ED
:104AE0000B109DF80B10704787F8E6130238B0FAE8
:104AF00080F0400987F8C6037047013A013B92B243
:104B00009BB2FEF737B90446FDF7ACBE014630460E
:104B1000FDF78CBE0020307281F82A004FF47A70C5
:104B2000A7F8BA0397F8CD03012870479AF80E103A
:104B3000012970470130C1B203297047C8F87800D5
:104B4000D8F87000FDF7D3BE3046FDF799BD97F851
:104B5000C9030228704797F8DC0302287047272012
:104B600087F8E60397F8E20387F8E3037047292004
:104B700087F8E60397F8E40387F8E50370472520F4
:104B800087F8E60397F8E00387F8E10370473046BB
:104B9000FDF7ADBEE040C0B200904FF4AA702847C8
:104BA0000138C1B20229704799F8C9030228704739
:104BB000D7F82C802846FDF7BBBD04462846214681
:104BC000FDF726BE044628462146FDF73DBE4FF4BC
:104BD0008073CDF80090504786F8E40304F1260076
:104BE000284786F8E20304F12400284786F8E0030A
:104BF00004F122002847B8633863B869FDF792BD15
:104C0000C0B200904FF4AA70284786F8C90304F197
:104C10002000284786F8D90304F11E00284786F8AB
:104C2000D30304F11C00284786F8D60304F11800CA
:104C3000284786F8D00304F11600284786F8CD03EC
:104C400004F11400284786F8C60304F1120028472F
:104C50004FF4BC72FA2300953047C6F8880004F17F
:104C600010002847C6F8840004F10C002847C9F852
:104C70009C00C9E92300C9F89400C9F8BA13C9F81F
:104C80002400C9F81C007047C6F8800004F1080031
:104C90002847206820F00100206010BD202043F24A
:104CA0008611A2B2CDE900107047502041F6A30151
:104CB000A2B2CDE90010704701F0070125F4E045EC
:104CC00045EA013170470446FDF7A2BDCAB2C901E9
:104CD00041EA5201C9B20B297047C9E93511C9E946
:104CE0003711C9E93911704781F825200021317247
:104CF0000221022870475846FDF7C2BC7047704732
:104D00002DE9F041DFF8906B707801387070000683
:104D100048D1DFF8884B1420707094F8D003012834
:104D200013D1DFF87C5B95F82C0002281DD00128F8
:104D30000ED058BB02F090F8307A012820D028BB62
:104D4000012085F82C0002201EE002F085F829E001
:104D500002F088F8FFF77EFD18D1317A022085F83D
:104D60002C0089B101290ED010E002F075F8FFF790
:104D700071FD0BD102203072002085F82C0003E079
:104D8000012085F82C00192085F82D0094F8C40323
:104D900040B1B0780138B070000603D10120307204
:104DA0002820B070DFF8147D97F8C00348B1307840
:104DB00001383070000609D10520307002F082F908
:104DC00004E002F07FF9012087F8EA0397F8C003B6
:104DD000022809D1FC6D00212046FDF751FD18B9CC
:104DE000BF49FFF71BFEF865B0890138B0810004A8
:104DF00040F0F5870120B081DFF8C80C00F12804ED
:104E00002046FDF71AFF01462046FDF771FE0138E6
:104E1000092800F27180DFE800F0051C6F6F35573C
:104E20006A0D272E97F8E603411F162900F24F81DD
:104E3000022015E0DFF8880C90F8261000295BD1DD
:104E4000012180F82610FFF72CFD40F0EA820020B7
:104E5000EEE297F8E603411F162900F2BB8003201B
:104E60007071D9E0307247E0FFF71BFD40F0DE8043
:104E70000720707163E0FFF714FD40F0FD8008200B
:104E8000707181E097F8E603A0F12301062940F252
:104E90005A81811E0229C0F0BF801B2800F0D483F4
:104EA0002F2800F0DE83372800F0D183392840F026
:104EB000B98397F8C603002800F0F484012840F075
:104EC000AB80032000F0EFBCFFF7EBFC14D193495B
:104ED000FF22C7F8BA139249C7F89C10DFF8E01B0D
:104EE000FFF702FF08BF0321FFF7FEFD04E0DFF834
:104EF000D00B002180F826107079172800F22B853E
:104F0000DFE810F01800DF019D014A025302A401FE
:104F100027021D00420062026C01BC0176019D0067
:104F2000C300400229052905290585027B022E01BF
:104F300029059301052087F8E60300F00ABD97F8DC
:104F4000C403002840F00585DFF8741BFFF7E2FD7D
:104F500000F03983002840F04E83B8697149FDF7AD
:104F60008FFB7149FFF793FD10B96F4C0020F8617A
:104F70006E492046BC61FDF7DBFB6D49FDF70AFC7D
:104F8000FFF78BFC386236E397F8C403002840F043
:104F9000E084DFF82C1BFFF7BDFD00F0398300280B
:104FA00040F0B383B8696349FDF76AFB6249FFF7D4
:104FB000AAFD10B9604C0020F8615C492046BC6134
:104FC000FDF7B6FB5A49FDF7E5FBFFF766FC3862D3
:104FD00000F09BBBA0F11D011A2900F25183DFE80C
:104FE00011F0B0001B0065031B006B031B001D00CC
:104FF0001B00DB031B00E2031B000C041B007B03F4
:10500000800371031B00D5031B006E031B00850387
:105010001B001B001B006803002023E797F8DF0339
:105020000138010608BF042000F0F5BB2F287FF4EB
:1050300063AFFFF790FD7FF45FAF0D20707197F8BD
:10504000CD03012800F0F781002840F08284BC697C
:105050003649FD6A2046FDF76BFB3549FDF79AFBA3
:10506000FFF71BFC2F49FFF7F2FC33490546FFF71A
:10507000D5FCFFF7A7FD24E02F287FF43DAFFFF715
:105080006AFD7FF439AF0E20707197F8CD030128C7
:1050900000F0DD81002840F05C84BC692349FD6A92
:1050A0002046FDF745FB2249FDF774FBFFF7F5FBB2
:1050B0002049FFF7CCFC21490546FFF7AFFCFFF77D
:1050C0007CFD002818BF2546FD6200F042BCA0F11F
:1050D0001D011A2900F2DB820FF20800D0E811F05E
:1050E000000080BF31003000E6023000EC023000EA
:1050F000940330009F03300077033000B00330008A
:10510000FC020103F20230006A033000EF023000BB
:105110000603300030003000E90200BFE803E80376
:1051200000007F43000020410000FA4300001041CE
:105130000000A040000020C10000C8420000C8C21A
:105140006AE709208CE6DFE811F070026D020700C3
:105150006D0207006D0207002320FFF707FC5BE7E5
:10516000CF48D04CD04DD14B0022012187F8E81315
:1051700087F8B823BA6287F8D82387F8D62387F848
:10518000D213A7F8CC23A7F8C82387F8C6233A651B
:1051900087F8DB2387F8D92387F8D51387F8D3134B
:1051A000C7F89800C248C7E92054C24CC7F88830F5
:1051B000C14BB861C7E91A044FF480703B67A7F888
:1051C000CF034FF00130C7F8E20340F20220A7F806
:1051D000E003BA48C7F8BA0300F0BBBB97F8CF03A7
:1051E000002800F04581012840F0B383002040E111
:1051F00097F8CD03012800F04181002840F0A983F1
:10520000BD69AF49FFF7D4FCAE49FDF7C3FAFFF71C
:1052100044FBAD49FFF71BFC054640462946FDF718
:1052200021FBAA490446404645E097F8DD030028E3
:1052300000F03281012840F08C8300202DE197F8A6
:10524000E603811C1A2888BF0521ABE097F8C40348
:10525000002840F07E83DFF86818FFF75BFC00F061
:105260006182002840F03D83BC699949FFF731FC19
:10527000002800F01C83FFF76AFB1BE397F8CD03BF
:10528000012800F02F81002840F06383BD698C491C
:10529000FFF78EFC8B49FDF77DFAFFF7FEFA814997
:1052A000FFF7D5FB054640462946FDF7BFFA044601
:1052B00040464FF07E51FDF7E3F9002C08BF284629
:1052C0002FE197F8E6030538362800F24283DFE83D
:1052D00010F037004003E6064003C10640030A070A
:1052E000400310074003C8064003ED064003F406E0
:1052F00040031E07400318074003AC064003400369
:105300004003D8064003AF064003A3064003400312
:105310004003400340034003400340034003FB06B7
:105320000007290740032107400397064003B806FA
:105330004003400740034003400340034003A006EE
:105340001D2087F8E603FFF702FC08BF97F8CB03A0
:10535000A9E197F8C403002840F0FB82DFF860174A
:10536000FFF7D8FB00F0E881002840F0DE82BC693E
:105370004C49FFF750FB002800F0BD825349FFF76E
:105380004DFBBBE297F8D203002800F0CC80012847
:1053900040F0DF820020C7E097F8E603811E062870
:1053A00038BF1B2187F8E613D3E297F8C60301281C
:1053B00000F0BF80002840F0BF8097F8C2030128AA
:1053C00000F2BA800220B5E097F8CC03012800F083
:1053D000DF80002840F0BD82FFF7B9FB40F05E811E
:1053E0000120002187F8CC0340F2FF10A7F8CA0380
:1053F000DFF8CC0680F82810ABE297F8DB03012831
:1054000000F0D580002840F0A4820120D0E097F879
:10541000D503012800F0D180002840F09A820120B5
:10542000CCE00538362804D897F8E80308B90420FA
:105430007071012016E5786B26493C6AFDF720F96A
:1054400025490546FFF7EAFAFFF7BCFB0AE0786B4F
:1054500022493C6AFDF714F921490546FFF7DEFAB7
:10546000FFF7ABFB002818BF254628467D634EE0BA
:10547000012087F8CD0387F8CF036AE2386A18491C
:105480007C6BFDF7FDF8054620462946FDF7EAF955
:105490000E498046204633E0012087F8DD0358E2BC
:1054A000000020420000C8420000A0420000F0427C
:1054B0000000BE430000C8430000D243E803E803F5
:1054C000000010410000A0400000C8C2000080BFE2
:1054D0000000FA430000204100005443000020C1B6
:1054E000000054C3386AE3497C6BFDF7C9F80546F0
:1054F00020462946FDF79AF9804620464FF07E5116
:10550000FDF7BEF8B8F1000F08BF284678634FF0EA
:105510004241FDF7B5F8D849FDF70AF9D749FDF73B
:1055200039F9F86215E2012087F8D00387F8D20331
:105530000FE2032087F8E603DFF85C0D90F82710F0
:10554000012909D100214FF60172A0F82710A7F810
:10555000C92380F8291010E0002180F8291097F85D
:10556000C913022909D14FF47A71A7F8BC13FF219E
:1055700080F8251007F19C0007E0C148C7F89C009F
:105580000020A7F8BC0307F1A000BD490160E0E1DD
:10559000FFF7DDFA40F08480FF210020A7F8CA134E
:1055A000DFF8F41C87F8CC0381F82800D1E1002053
:1055B00087F8D90387F8DB03CBE1002087F8D30312
:1055C00087F8D503C5E1386AAE49FDF759F8AE4909
:1055D000FFF75DFA10B9AC4C0020786220464FF01E
:1055E00042413C62FDF74CF8A349FDF7A1F8A349FD
:1055F000FDF7D0F8B86197F8B813032900F2A68137
:10560000FFF799F9DFE811F0A501A0019B019E01C8
:105610003C6A9E49FFF7FFF900286AD09C49FFF7D2
:10562000FDF969E00120FFF71BBC97F8DF030138A3
:1056300003283FF6F1ACDFE810F0040071044204E7
:105640004904FFF79CFAE7E40420FFF709BC97F848
:10565000DD03012800F00A8100287FF4DDAC17206B
:1056600021E197F8DC03012871D10220B9693A6A77
:1056700087F8DC038248C7E90B10C7E90D20CBE4AB
:1056800002380228BFF4C8AC0620FFF7E9BB023895
:105690000228BFF4C1AC0520FFF7E2BB012000E007
:1056A000002087F8C90387F8CC0352E10A20FFF7EE
:1056B000D7BB1720FFF7D4BB0F20FFF7D1BB1320B8
:1056C000FFF7CEBB97F8DC0300287FF4A5AC2F20B2
:1056D00087F8E603012076E0012087F8D6032C2026
:1056E000E1E0002087F8D6032B20DCE01420FFF750
:1056F000B7BB002078625F48FFF796F95E49FDF777
:1057000017F85E49FDF746F8B86197F8B813032912
:1057100000F21C81FFF70FF9DFE811F01B01160101
:10572000110114013C6A5849FFF7D3F9002800F031
:10573000CC80FFF70CF9CBE03C6A4E49FFF76BF9E0
:10574000002800F0E6805349FFF768F9E4E0012003
:10575000D7E90A4187F8DC034948FFF74CFA0146CC
:10576000FFF75CF9D849FFF7B1F9D84900281CBF09
:105770000024C4F2C8242046FDF74AF800281CBFC4
:105780000024CCF2C824BC62FFF746BCFFF7E3F963
:1057900014D10C20FFF764BB97F8E103FFF700FA80
:1057A00038BF032041E097F8E3030138010608BF42
:1057B000032012E0FFF7CFF900F0E78401287FF41F
:1057C0002BACFFF75AF887F8DC03FFF725BC97F8F6
:1057D000E303FFF7AFF988BF012087F8E303C0B206
:1057E000032800F0BB84022800F0B684012804BF1F
:1057F000012087F8E203FFF70FBC97F8E5030138B3
:10580000010608BF032021E097F8DF030130C1B291
:10581000042988BF012087F8DF03FFF7FDBB97F855
:10582000E103FFF787F988BF022087F8E103C0B2E0
:10583000032800F03F8302287FF4EEAB02203AE316
:1058400097F8E503FFF776F988BF012087F8E503AD
:10585000C0B2032800F09084022800F0848401285C
:105860007FF4DAAB0120002100F07FBC15207071BD
:10587000392018E0000054430000A040000010410F
:1058800000007F43000048420000694400007D435F
:10589000000024C2000080BF000000209C140020F3
:1058A00008010020022087F8E603FFF7B5BB0020BF
:1058B000F86187488749B861FCF73AFF8649FCF7E9
:1058C00069FFFEF7EAFF38620BE000207862834848
:1058D000FFF7AAF88049FCF72BFF7E49FCF75AFF37
:1058E000B86197F8B813032930D8FFF724F8DFE838
:1058F00001F0302B26290020F86173487549B86102
:10590000FCF716FF7449FCF745FFFEF7C6FF386247
:105910000BE0002078627248FFF786F86E49FCF7CA
:1059200007FF6C49FCF736FFB86197F8B8130329F5
:105930000CD8FFF700F8DFE801F00C07020507F1CB
:10594000900001E007F1940066490160002087F8AB
:10595000B80316207071DFF898482046FDF76DF9FE
:1059600001462046FDF7C4F80138092800F26F818E
:10597000DFE810F00A0023006D016D014B006B00A1
:105980007F0013002C003C00FEF78BFF7CD1FFF75B
:10599000DEF814BF0120052026E0DFF8140D90F892
:1059A0002310002940F05381012180F82310FEF7D5
:1059B00078FF40F0798000207DE0FEF772FF5ED135
:1059C000FFF7C5F814BF022006200DE097F8E603A4
:1059D00000F0FE00022840F0388197F8C903023831
:1059E000B0FA80F04009800030712EE197F8E603AC
:1059F00000F0FE00022840F0288197F8C903032137
:105A0000022808BF072131711FE197F8E603A0F1D2
:105A1000230106293ED9811E0229C0F016811B28C8
:105A200000F0BF802F2800F0C780372800F0BB802F
:105A3000392840F0A68097F8C603002800F0368287
:105A4000012840F00281032031E2FEF72AFF40F0F6
:105A5000FE802549FF22C7F8BA132249C7F89C10D7
:105A6000DFF84C1CFFF740F908BF0321FFF73CF8B3
:105A7000EDE0DFF83C0C002180F82310E7E0411F47
:105A8000162933D80320DFE0411F162900F2568083
:105A90000220D9E0DFE801F0777504750475040091
:105AA0002320FEF763FFD0E00538362804D897F8A6
:105AB000E80308B9042070710120C7E09C1400209D
:105AC000080100206C0000200000C8420000C8C28D
:105AD0000000FA43000010410000A04000006944AB
:105AE0000000544300007F43E803E8031D381A28F0
:105AF00000F2AB80DFE810F04300A900A700A90086
:105B0000A500A9001B00A9001E02A9003802A900D7
:105B10002502A900930098009D00A9001902A90080
:105B20009100A9008F00A900A900A9008D0097F895
:105B3000DF030138010608BF042049E21D381A2896
:105B400000F28380DFE810F01B0081007F008100FD
:105B50007D0081003D028100170281002802810042
:105B6000470281006B007000750081000402810013
:105B700069008100670081008100810065000920C3
:105B800062E0012060E097F8DF03013803285CD869
:105B9000DFE810F00400C8019901C201FEF7EFFF31
:105BA00053E0042050E097F8DD03012800F07A81EB
:105BB00000284AD117207AE197F8DC0301280AD19E
:105BC0000220B9693A6A87F8DC03C248C7E90B10BA
:105BD000C7E90D2039E00120D7E90A4187F8DC0345
:105BE000BC48FFF708F80146FEF718FFBA49FEF770
:105BF0006DFFBA4900281CBF0024C4F2C824204607
:105C0000FCF706FE00281CBF0024CCF2C824BC62AE
:105C10001BE0172018E0142016E0132014E00120E8
:105C200087F8D6032C2042E1002087F8D6032B20EA
:105C30003DE197F8DC0340B92F2087F8E603012007
:105C40008FE10F2000E00A2070710020307230795F
:105C5000072800F2C480DFE800F0047632491B8B8D
:105C6000A0604FF47A709E49FEF74AFE9D49FEF708
:105C70004AFF00281CBF0024C4F22034FEF7ABFE0C
:105C800000F2A880FEF757FEDFE801F0A7A29DA072
:105C90004FF47A709249FEF72DFE9249FFF713F800
:105CA00018B9904C0020C7F8C000FEF78EFE00F235
:105CB0009180FEF740FEDFE801F0908B86894FF47B
:105CC0007A708949FEF71CFE8549FEF7E0FE002840
:105CD0001CBF0024C4F2A004FEF77DFE00F27A800F
:105CE000FEF729FEDFE801F079746F724FF47A70E5
:105CF0007E49FEF705FE7A49FEF7C9FE00281CBF63
:105D00000024C4F2A004FEF766FE00F26380FEF7F2
:105D100012FEDFE801F0625D585B4FF47A70734960
:105D2000FEF7E8FD6E49FEF7D1FE18B96C4C002075
:105D3000C7F8C000FEF749FE4CD8FEF7FCFDDFE8CF
:105D400001F04C474245FEF77BFDFEF7D9FD654962
:105D5000FEF7D9FE00281CBF0024C4F22034FEF751
:105D60003AFE37D8FEF7E7FDDFE801F037322D3095
:105D7000FEF766FDFEF7BEFD5A49FEF7A4FF18B90F
:105D8000584C0020C7F8C000FEF71FFE22D8FEF7CF
:105D9000D2FDDFE801F0221D181B4FF47A70524942
:105DA000FEF7A8FD4E49FEF791FE18B94C4C0020B5
:105DB000C7F8C000FEF709FE0CD8FEF7BCFDDFE80F
:105DC00001F00C07020507F1900001E007F19400D3
:105DD00040490160002087F8B803082030717089BD
:105DE00001387081000409D14FF47A707081DFF8B6
:105DF000C008416DC7F8B01000214165DFF8B05808
:105E0000287898BB102001F0CDFDE886E88EFCF7DD
:105E1000F9FB374A374BFCF76EFA374B0022FCF799
:105E20006AFA364A364BFCF7BFF9364A364BFCF76E
:105E3000D4FA364B0022FCF7B7F9FCF7B1FD344930
:105E40000446B864FCF774FC2549FCF7A3FCFEF794
:105E500024FD3049F864FEF7DEFD38B92046002104
:105E6000FCF7D6FC10B901203C602870A86DE14C0D
:105E70000130A8652068804794F82500012809D1E1
:105E800094F8240018B1013884F8240002E00220BC
:105E900084F8250094F8340010B1013884F83400F7
:105EA000BDE8F08115207071392000E0022087F8EC
:105EB000E603CAE6032087F8E003FFF7ADB8FEF774
:105EC00056FEFFF7A9B8FEF752FEBEE60B20FFF71D
:105ED00044B900BF00007F430000C8420000C8C2B0
:105EE0000000A04000002043000080BF0000A0C0D0
:105EF00052B81E85EB510A400000303F295C8FC22A
:105F0000F528F4BF33E197FA7953713F0000184048
:105F100000001041000048420B20C2E5FEF71FFEC2
:105F2000FFF77AB8FEF71BFE8FE6FEF714FE13D1DB
:105F30000C2089E697F8E103FEF732FE38BF032014
:105F40001FE097F8E5030138010608BF032048E089
:105F5000FEF701FE00F02E8101287FF476AEFEF7F9
:105F60008CFC87F8DC0370E697F8E3030138010640
:105F700008BF032016E097F8E103FEF7DBFD88BFBA
:105F8000022087F8E103C0B2032800F0FA8002285B
:105F90007FF45BAE0220F5E097F8E303FEF7CAFD5D
:105FA00088BF012087F8E303C0B2032800F0FA801D
:105FB000022800F0ED80012804BF012087F8E203E9
:105FC00043E697F8DF030130C1B2042988BF0120FE
:105FD00087F8DF0339E697F8E503FEF7ABFD88BFE6
:105FE000012087F8E503C0B2032800F0DF80022813
:105FF00000F0D08001287FF428AE01200021CBE002
:1060000097F8D503012898BF87F8D3031120FEF72E
:1060100092BF1920FEF78FBF97F8D203012898BFCF
:1060200087F8D0030920FEF786BF3B20FEF783BF29
:1060300097F8CF03012898BF87F8CD030720FEF714
:106040007ABF97F8DB03012898BF87F8D90313209C
:10605000FEF771BF212087F8E60397F8D003FFF71A
:1060600065BAFEF70AFC87F8DC0397F8C903012834
:106070007FF46FAC88480121A0F827104FF47F40CF
:1060800063E097F8CC03012800F0968000287EF4A6
:1060900051AFFEF75CFD40F0A380002090E01F2090
:1060A00087F8E60397F8CD03FFF7E5B9312087F8C5
:1060B000E60397F8D303FFF783BA332087F8E603A4
:1060C00097F8D903FFF776BA97F8D80340B90020BC
:1060D00004E097F8D803012802D1012087F8D603FD
:1060E0000D20FEF728BF042087F8DF032320FEF7EA
:1060F00022BF97F8D603002866D0012867D12C214B
:1061000063E0002087F8DD033720FEF714BF352059
:10611000FEF711BFFEF71FFD5DD001287FF419AC1B
:10612000022059E097F8DC0300287FF412AC0F201E
:1061300087F8E603584890F8271001297FF409AC46
:106140000021A0F827104FF60170A7F8C903FFF748
:1061500000BC1520FEF7EFBE022000E0032087F808
:10616000E203FEF759BF0220012187F8E4034A4801
:1061700080F82410FEF750BF032087F8E403FEF7F1
:106180004BBF032087F8E0035FE50B20FEF768BEF6
:10619000022008E00220012187F8E4033E4880F84D
:1061A000241052E5032087F8E2034EE5032087F828
:1061B000E4034AE50B2047E5FEF7C9FC12D10120B4
:1061C00087F8CB03FEF7B6BE2B2187F8E61387F8D6
:1061D000D803FFF7BEBB012087F8DC03FFF7B9BB8C
:1061E000002000E0012087F8C903FEF7A3BE00BF2E
:1061F000CC000020780100201848C16941F080518E
:10620000C16117490A7842F004020A70C16921F09D
:106210008051C161016841F0010101600168890795
:10622000FCD5416821F003014160416811F00C0F79
:10623000FBD101680B4A114001600021416041F629
:106240001071C1624FF4801101634FF41F0181602E
:1062500005484FF000610160704700BF0010024028
:1062600050700040FFFFF2FE08ED00E0B0B5094CB1
:10627000606880070CD52068800709D5064D4FF06F
:106280007E51686DFCF7FCF968656FF00200606094
:10629000B0BD00BF0C4C0140080100202DE9F04FBB
:1062A00085B0A74F3869C00700F04781DFF81C8F21
:1062B00098F8E903012840F03481DFF80C9F99F841
:1062C000120001280BD1DFF8304B9E4D666C294639
:1062D0003046FCF7C7FA48B965642E4606E09A4E88
:1062E000DFF8140B4FF08141C0E910160096D8F882
:1062F00018609649FEF728FC834698F8C9030128E0
:1063000018BFB346D9F85C005946FCF7B9FA002823
:1063100040F08680DFF8E04A4FF07C51CA46B9462B
:10632000A06DFCF705FA0025A06589498DF80B5092
:10633000ADF808508DF80750D8F898703846FCF73B
:1063400067FA04465846FCF7D2FA002C06464FEA94
:10635000900414D14A2C8DF8075032D864204F464F
:106360000021D146ADF80800D648FEF7B8FB132946
:106370004CD8FEF7E5FA49D2FEF751FAF5E7CF49D6
:106380003846FCF76FFA002568BB38460021FCF759
:106390003FFA4F46D146E0BB00204A2C8DF807005B
:1063A00024D864200021ADF80800C548FEF797FB0B
:1063B000132900F24481FEF7C3FA27D2FEF72FFA21
:1063C000F4E74FF496704F461421D146ADF808001B
:1063D000BC48FEF784FB272918D8FEF7B1FA15D27E
:1063E000FEF71DFAF5E74F46D14612E04FF49670DE
:1063F0001421ADF80800B248FEF771FB272905D833
:10640000FEF79EFA02D2FEF70AFAF5E79DF80B10A6
:10641000455C68B2C9F85CB0FCF75BFAC8F8D0001C
:10642000A94E758E0B2D16D896F8340001F0BAFAE5
:10643000FCF758FA46F825000446308E013575867B
:10644000FCF750FA0146FEF7E9FAFCF750FAA9B258
:10645000B0FBF1F10CE0308E0C24B0FBF4F1451AE6
:1064600096F8340001F09EFA284481B2B1FBF4F1B1
:1064700030868808FCF736FAD8F82810C8F80000EB
:10648000FCF750F9064698F8C903022803D1894859
:10649000FEF7ADFA2EE098F8C20318B198F8D913B8
:1064A000012919D189495846BA46FCF7E9F8074647
:1064B00030463946FCF7D6F930B98549FEF71BFC62
:1064C000FEF724FB002845D030463946FCF7CAF9D0
:1064D00038B10025574615E0012808BF002909D129
:1064E000D5E77B49FEF707FCFEF710FB574608B1DE
:1064F000804D07E0D8F84040204600210025FCF7F9
:10650000B1F910B92C46C8F8405098F8C40318B136
:106510006848FEF76CFA04E020460021FCF7A2F977
:1065200010B90024C8F840402046FCF7F9F9386457
:10653000FEF788FA6FF00100386105B0BDE8F08F12
:10654000000C004000606A460050C346000048420C
:106550000000A0415F49FEF7CEFB01463046FCF744
:1065600081F930B95C49FEF7C6FBFEF7CFFA002887
:1065700067D00020A9F8460089F812005846314635
:10658000FCF7D0F84B4F3865386DB96DFCF778F8EB
:10659000B865574DB86D2946FCF748F900B9BD6597
:1065A000B86D00210024FCF75DF900B9BC65D7E99E
:1065B0000F54386DF96CFCF7B5F8786520463E6DE0
:1065C000B96DFCF7B5F8396E0490039104980399FE
:1065D000FCF71EF908B9039804900498039981F018
:1065E0000041FCF731F918B9039880F0004004909D
:1065F00028463146FCF79CF80499FCF741F804461C
:10660000796D0098FCF794F82146FCF739F8F865A5
:10661000386DF864F86D796EFCF7FAF808B9786EA1
:10662000F865F86D796E81F00041FCF70DF908B955
:106630000020F865FC6D5746C8F840405CE700252F
:10664000E7E6B9F846000130A9F8460080B23C28D8
:1066500094D322490098FCF713F8174F04463946A3
:10666000FCF700F918B113480094446418E0114D88
:10667000286C6F64FCF781F9194A1A4BFBF794FDFB
:10668000194B002204460F46FCF708F920B12046BA
:106690003946FCF785F900E0144828640648009064
:1066A000012089F812000020A9F8460066E700BF23
:1066B000080100207801002000606A460000A04127
:1066C000E9C50108C0C50108E40D002000004843E9
:1066D000000048C30000A0400000A0C00000FAC4B1
:1066E0009A9999999999B9BF0000084000004040D3
:1066F00000C82F47007F3B472DE9F843DFF8CC5A0D
:1067000002FB03F4089E4FF00008640095F8D6538E
:10671000023E012D00F08A80002D40F023827E2E63
:1067200000F22082DFE816F07F0034013A01800198
:106730001E028E011E0292011E02A0011E0276019F
:106740001E0284011E0294011E0298011E02B00165
:106750001E0296011E027E011E0278011E02B80171
:106760001E02AE011E027C011E029A011E029E0143
:106770001E027A011E02AA011E0230013201A2018C
:106780001E02C0011E02B4011E02BA011E02A401B3
:106790001E02A6011E0288011E02AC011E02520149
:1067A00022013C0170011E02B2011E02B6011E024E
:1067B00090011E021801240128013E015A01200106
:1067C000BC011E021E02A80172011E0286011E02E9
:1067D00016011A015E0158011C012E019C011E02C6
:1067E00074011E02C2011E026E011E0264016201DA
:1067F00056014A0140012C014C0108018A011E0288
:106800001E0268014E016C011E024401100182014A
:106810001E024201140154010C01360166011E02E0
:106820001E02120146014FF496289BE17E2E00F2D3
:106830009981DFE816F07F00AD00B3006F0197018A
:10684000630197015701970173019701790197013E
:106850005D01970159019701750197014D0197015C
:106860004B0197017B0197015F019701610197013E
:10687000770197016B0197018301970151019701FE
:106880007D01970147019701A900AB005B019701CA
:106890004901970189019701870197014F019701EC
:1068A000530197016501970155019701CB009B00AA
:1068B000B5008B01970143019701690197014101DF
:1068C000970191009D00A100B700D30099006701D6
:1068D0009701970171018D0197016D0197018F005B
:1068E0009300D700D1009500A7007F0197013F01D9
:1068F00097018501970181019701DD00DB00CF0041
:10690000C300B900A500C50081008F019701970160
:106910009101C70095019701BD00890045019701CC
:10692000BB008D00CD008500AF00DF0097013D0169
:106930008B00BF00A54D14E1B24D05F5E17811E1E2
:10694000B74D05F548780DE1B94D0AE1B14D08E1C3
:10695000B44D06E1A74D04E1A14D02E1A54D00E0D3
:10696000A94D05F51968FDE0A34DFAE09D4D22E023
:106970009B4D05F5BD68F5E0994D05F53D68F1E0E5
:10698000B04DEEE0B94DECE0974DEAE0974DE8E010
:106990008F4DE6E0A24D05F5C868E3E08D4DE0E0DF
:1069A000BF4DDEE0B94DDCE0A74DDAE09E4DD8E00A
:1069B000A04DD6E0974D05F5E148D3E0A34DD0E0DA
:1069C0009F4DCEE09D4D05F55258CBE0B54DC8E04A
:1069D000934DC6E09E4DC4E0A54DC2E0AB4D05F51C
:1069E0009C68BFE0A34D05F59958BBE0994DB8E010
:1069F000994DB6E0894DB4E0904D05F50C58B1E0E5
:106A0000C54DAEE0C54DACE0CE4DAAE0C84DA8E006
:106A1000C44DA6E0704DA4E0754DA2E07B4DA0E012
:106A20007B4D9EE0754D9CE06C4D9AE0B94D98E031
:106A3000734D96E0BD4D94E0C44D92E0804D05F558
:106A400061788FE0D34D8CE0BB4D8AE0D04D88E07B
:106A5000CD4D86E0C94D84E0CA4D82E0C44D80E052
:106A6000B14D7EE0C14D7CE0C84D7AE0BD4D78E08F
:106A7000B84D76E0B64D74E0AE4D72E0BA4D70E0C0
:106A8000B14D6EE0BB4D6CE0BD4D6AE0AC4D68E0D1
:106A9000B24D66E0A94D64E0B74D62E0AE4D60E0F6
:106AA000794D05F552785DE0AD4D5AE09C4D58E0CA
:106AB000594D56E06B4D54E0754D52E0764D50E027
:106AC0005A4D4EE0804D4CE07D4D4AE0874D48E008
:106AD000874D46E0774D44E07D4D42E0744D40E007
:106AE000714D3EE0884D3CE0834D3AE0754D38E015
:106AF000824D36E07B4D34E0794D32E0834D30E01D
:106B00006A4D2EE05F4D2CE0624D2AE0724D28E088
:106B1000594D26E07E4D24E0594D22E0794D20E08C
:106B2000744D1EE06D4D1CE0754D1AE06E4D18E081
:106B3000664D16E04C4D14E0484D12E0654D10E0F6
:106B4000474D0EE05C4D0CE05C4D0AE0534D08E013
:106B50004A4D06E0394D04E0384D05F58C5801E00A
:106B6000354DA84602440B44FDF7C7FF8A4F4FF04E
:106B70000009404644B30646B9EB942F0ED1214696
:106B800002F05CFF0025A54206D2785B00BA000C3B
:106B9000FCF7D6FA0235F6E7002112E04FF48061E7
:106BA00002F04CFF0025B5F5806F06D2785B00BA85
:106BB000000CFCF7C5FA0235F5E7A4F580614FF447
:106BC0008064A0190C46D5E7BDE8F8830481B700BE
:106BD00080EF0800002F0D00806A3300806E1100E6
:106BE0008859B200C0C3AC0048AD8F008802910044
:106BF00080E36E005091B3006072B2008064660062
:106C000080E93B00E065B50000AEB3002065880078
:106C1000D0DE7D006818BC0084C0BB00104DB700FA
:106C2000ECEEB60064DDB600DCCBB600E897B6004B
:106C3000D25FB600A456B600F406B600E47AB500FA
:106C4000E065B5000043B5002020B50040FDB4006C
:106C500060DAB40080B7B400A094B4009A7CB400A9
:106C60008E4CB400A019B400D0E3B3003CC0B30014
:106C700000AEB3005091B3005669B3006219B3007F
:106C800088B3B2009894B2006072B200386AB20061
:106C90006E9CB1003A22B00006A8AE000893AD0089
:106CA000B237AD00C0C3AC0050E7AA00CC6BA70060
:106CB000A42DA4007CEFA00054B19D002C739A0079
:106CC00004359700DCF693003EDB8D002A378A00FE
:106CD0001693860002EF8200E47D7F00BC3F7C00BB
:106CE000940179000023730000A46A00002562006B
:106CF00000A659000027510000A8480000294000C4
:106D000000AA3700002B2F0000AC2600002D1E002B
:106D100000AE1500F463B60044B7B5009464B40047
:106D20008834B400B8FEB300E8C8B3005C41B300D7
:106D300068F1B20078D2B20054DFB0002065AF0035
:106D4000ECEAAD00243BAD00E00AA900B8CCA500F8
:106D5000908EA20068509F0040129C0018D49800AA
:106D6000F0959500C857920034098C000CC184003E
:106D7000F81C8100A8A07A008062770080E55D00A1
:106D80008066550080E74C008068440080EB2A0054
:106D9000806C220080ED1900E0010020BCB5154C8C
:106DA0002068E06880060CD52068800609D56168F7
:106DB000114D05F11800C9B202F0F2FD4FF48270D6
:106DC000A884E068400610D5206840060DD50A4D1D
:106DD0006FF040000DF10701206005F1280002F07E
:106DE000CCFD18B1002085F83500BCBD9DF807002A
:106DF0006060BCBD0038014078010020FEE7000063
:106E00000648BFF34F8F064A016801F4E061114361
:106E10000160BFF34F8F00BFFDE700BF0CED00E046
:106E20000400FA0510B500EB40010A284FF00702F4
:106E3000084B28BF1E3902FA01F14FF00C0238BF8F
:106E40001022D4582143D150596B21F01F0108431F
:106E5000586310BD002401400148102101607047B3
:106E6000141C01400148102101607047101C0140B2
:106E700008B3F0B5164A8B0801301D4602F50174BF
:106E80002DB150F8046B013D36BA40C4F8E711F05B
:106E900003010ED0002418250026A14205D0075D6D
:106EA0000134AF40083D3E43F7E702EB8300C0F8F2
:106EB0000462BDE8F0407047054901F501720549DB
:106EC00018B108CA01380B60FAE70868704700BFBC
:106ED000980E00200030024032490A68C2F3810354
:106EE000314AF0B5DFE803F002380A380B6D9B0534
:106EF00032D5CB6A9B0148BF2D4A2DE00B688C6AC6
:106F00001B0C002C13D40C680D68C5F34175C4F339
:106F100083440DB90F2C43D12D0101352C44DB07DF
:106F200002D00B689B0300D5204A624314E08C6AB0
:106F30008D6A8E6ADB071D4BC4F30314C5F3082565
:106F400006F0070603D00F68BF0358BF134604FAC4
:106F500006F26B43B3FBF2F2026016A40B68C3F3B4
:106F60000313E35C174CDA4042600B68C3F302235F
:106F7000E35C22FA03F3C3600B68C3F3C223E35C50
:106F80000424DA4082600B68096804EA9363C1F361
:106F9000813119440CA3595CB2FBF1F10161F0BDE0
:106FA0000225BBE70410024000127A0000093D00F0
:106FB000006CDC020000000000000000010203047D
:106FC00006070809B8C5010802040608020C0810E3
:106FD0007CB5044600204FF6FF75C6B2152E09D8C1
:106FE000301900F0CBFCADF80600B01CBDF806105F
:106FF000A942F2D1BDF806007CBD02684BF6EF73E2
:107000001A4002600A8903681A4302604A7C0368D6
:1070100002F0030223F4405343EA02320260CA7BC7
:10702000036802F0030223F4406343EA8222026011
:107030008A7B036802F0030223F4407343EA0222CE
:1070400002604A7B036802F0010223F0800343EAF6
:10705000C21202600A7B036862F3861303600A7C33
:10706000036862F3451303604A8942600A688260DC
:107070004968C16070470000016821F001010160AA
:107080000021016041608160C16040F2FF4100EA7F
:1070900001020B49B2F5816F04D3D208902A0ED8B1
:1070A00001F5806100F0FC0014220838B0FBF2F01A
:1070B0000F22800002FA00F00A681043086070474F
:1070C0000400024070B5404C207C38B14148D221C8
:1070D00001603E4890F8C40330B170BD3B4D95F857
:1070E000C40320B1012000E00020207470BD95F899
:1070F000C903022804D101206074D5F8BC0045E022
:1071000095F8C00301280ED0B0BB28683649FBF7BC
:107110008DFB617C002848D00029DED101200021B0
:1071200060742C4846E095F8C20348B3012823D187
:1071300095F8D90310BB607C2549012804BF0020C5
:1071400060742C68FDF7C5FC224EA8B32349FDF7F7
:10715000C0FCB0BB1E49FDF77EFC90BB2046FBF790
:107160000CFC1F4A1F4BFBF7C6F8FBF719FCC5F8D0
:10717000B400FBF7D5FB25E095F8D9030128ACD185
:10718000607C08B901206074D5F89800FBF7F5FB26
:10719000164A174BFBF7AFF8164B0022FBF704F823
:1071A000FBF7D2FB0B49086070BD00297FF495AF57
:1071B00008483221016070BD0748C5F8B40070204E
:1071C00000E00020306070BD080100209C14002009
:1071D00000007A43380000400000C84200008C42A2
:1071E0009A9999999999D93F0000204214AE47E1A4
:1071F0007A14F23F00003E40064907480A7822B957
:107200004CF6CC42026001220A704AF6AA210160C3
:10721000704700BFE00D00200030004010B5214C49
:10722000226842F00102226001804FF4801000F0D9
:1072300017F8FDF72EBD00BF08480168C9071CBF3D
:10724000002070470168490744BF0120704700686B
:10725000C0064FF0020058BF032070470C200240C8
:10726000B0B50446FFF7E8FF0025013C45F10001F9
:1072700018B911B1FFF7E0FFF7E7B0BD10B5094C41
:10728000216841F0020121606060206840F0400008
:1072900020604FF08040FFF7E3FF206820F00200FD
:1072A000206010BD102002402DE9F047DFF834893E
:1072B00098F80100032800F2DD80DFE800F002E327
:1072C0000BBCDFF8445895F8E903002800F0008271
:1072D0000120F9E1684E98F80C10DFF82C58674A45
:1072E000DFF8389606F1100011F00107924608BF4A
:1072F00002F10E0095F8C613C84706F11200002FE0
:1073000008BF0AF1100095F8CD13C84706F1140024
:10731000002F08BF0AF1120095F8D013C84706F1F4
:107320001600002F08BF0AF1140095F8D613C847BD
:1073300006F11804002F08BF0AF11604A86AFBF72B
:10734000D6FA01462046C84706F11A00002F08BFAA
:107350000AF1180095F8D313C84706F11C00002F56
:1073600008BF0AF11A0095F8D913C84706F11E00A4
:10737000002F08BF0AF11C0095F8C913C84706F191
:107380002000002F08BF0AF11E0095F8E013C8473F
:1073900006F12200002F08BF0AF1200095F8E21341
:1073A000C84706F12400002F08BF0AF1220095F813
:1073B000E413C84706F12604002F08BF0AF124048D
:1073C000D5F8BC00FBF793FA01462046C84795F86C
:1073D000C60388F8020095F8CD0388F8030095F8F5
:1073E000D00388F8040095F8D60388F8050095F8CE
:1073F000D30388F8060095F8D90388F8070095F8B4
:10740000C90388F8080095F8E00388F80900A86A1D
:10741000FBF76DFAA8F8400095F8E20388F80A0037
:1074200095F8E40388F80B00D5F8BC00FBF75FFA89
:10743000A8F8420045E1104898F80C200F49283080
:10744000D20708BF01F12600B8F84410FFF7E6FEA6
:107450000B48C16841F08001C160012088F801003B
:10746000B8F844000130A8F8440098F80C00013046
:1074700088F80C00BDE8F08700F0010802F8010868
:1074800004200240B8F83800FBF72CFADFF87896B1
:107490000146D9F81800FBF7F3F9002800F08C80BA
:1074A000B8F83A00FBF71EFA0146D9F89800FBF746
:1074B000E7F9002800F08080B8F83C00FBF712FAEA
:1074C0000446D9F86800FDF7ACFA002874D0B8F883
:1074D0003E00FBF707FA0546D9F88000FDF7A9FA48
:1074E000002869D0D9F86C00FDF79BFA002863D01A
:1074F000D9F88400FDF79DFA00285DD0D9F8700016
:10750000FDF78FFA002857D0D9F88800FDF791FAD7
:10751000002851D099F8C60398F8021081424BD147
:1075200099F8CD0398F80310814245D199F8D0031A
:1075300098F8041081423FD199F8D60398F80510C5
:10754000814239D1B8F84000FBF7CCF90146D9F8AF
:107550002800FBF795F978B399F8D30398F806104B
:10756000814229D199F8D90398F80710814223D193
:1075700099F8C90398F8081081421DD199F8E003E1
:1075800098F80910814217D199F8E20398F80A1087
:10759000814211D199F8E40398F80B1081420BD184
:1075A000B8F84200FBF79EF90146D9F8BC00FBF79A
:1075B00067F900287FF45EAFD748D9490160D949FF
:1075C0000160D44998F80C000C468A4610F0010777
:1075D00008BF04F500642046FFF750FED9F81800F4
:1075E000FBF785F9CD4EFDF755FA0AF10204002F9D
:1075F00004BF4FF60204C0F60104D9F89800FBF767
:1076000076F9FDF747FA0AF10404C14D002F08BFCF
:10761000AC1CD9F86800FBF76AF9FDF73BFA0AF1F0
:107620000604002F08BF2C1DD9F88000FBF75FF976
:10763000FDF730FA0AF10804002F08BFAC1DD9F895
:107640006C00FBF754F9FDF725FA0AF10A04002F44
:1076500008BF05F10804D9F88400FBF748F9FDF7E5
:1076600019FA0AF10C04002F08BF05F10A04D9F831
:107670007000FBF73CF9FDF70DFA0AF10E04002F3C
:1076800008BF05F10C04D9F88800FBF730F9FDF7C5
:1076900001FAD9F81800D9F87040D9F88850D9F80B
:1076A0009860FBF724F9A8F83800FDF770FAA8F8FD
:1076B0003A00FDF7D3F9A8F83C00FDF70DFAA8F859
:1076C0003E0098F80100013088F80100BDE8F0871D
:1076D000E34C2046FFF77CFC4FF6FF76B04210D01B
:1076E0002046FFF775FCB0420BD004F1280000F0F3
:1076F00045F904468648263000F040F9844205D812
:107700000DE02046FFF764FCB04202D000F05AF9C9
:1077100035E004F50060FFF75BFCB04202D000F0FA
:10772000A1F92CE08048834A844B8049002401263B
:1077300085F8D64385F8D06385F8CD4385F8C643F0
:1077400085F8D94385F8D363AC6285F8E46385F89E
:10775000E26385F8C943C5F8BC007548C5F88020C8
:10776000C5F88430744A764BC5F89810C5F888106F
:10777000A86128670220C5E91A2385F8E003AC69EF
:107780007049FDF748F918B96749FDF764F908B978
:107790006748A861D5F898406B49FDF73CF918B9DE
:1077A0006A49FDF758F910B96048C5F89800D5F84E
:1077B000BC406549FDF72FF918B96449FDF74BF94D
:1077C00010B95948C5F8BC00AC6E5E49FDF723F905
:1077D00018B95549FDF73FF908B95748A866EC6E46
:1077E0005849FDF718F918B94F49FDF734F908B9A8
:1077F0005348E8662C6F5349FDF70DF918B94A490B
:10780000FDF729F908B94A482867D5F880404E495C
:10781000FDF701F918B94D49FDF71DF910B94548B3
:10782000C5F88000D5F884404749FDF7F4F818B949
:107830004649FDF710F910B94048C5F88400D5F85D
:1078400088404149FDF7E7F818B94049FDF703F9C9
:1078500010B93648C5F8880095F8C60332490228A1
:1078600024BF002085F8C60395F8CD03022824BF65
:10787000002085F8CD0395F8D003022824BF01200D
:1078800085F8D00395F8D603022824BF002085F898
:10789000D603AC6AFDF7BFF818B92D49FDF7DBF840
:1078A00008B90020A86295F8D303022824BF00205D
:1078B00085F8D30395F8D90310B1002085F8D903D2
:1078C00095F8C903022824BF002085F8C90395F85C
:1078D000E003043810F1030F9CBF022085F8E00399
:1078E00095F8E203043810F1040F9CBF012085F8DD
:1078F000E20395F8E403043810F1040F9CBF012063
:1079000085F8E403012085F8E903BDE8F08700BFAE
:1079100002F8010800F00108042002401D7200086E
:1079200023016745AB89EFCD0000C8420000A042AB
:107930000000BE43000048420000A0430000704227
:107940000000AF430000FA43000020430000A040C5
:107950000000C8C210B5074C0749206840F001007C
:107960002060A44801604FF48010FFF779FCFDF718
:1079700090B900BF10200240384B544181B00168DB
:10798000D0F801008DF800108DF801009DF801007D
:107990009DF8001041EA0020ADF80200BDF8020099
:1079A00001B0704780B5FFF73DFA0548816841F4A2
:1079B0008001816001688907FCD5C06C80B280BD00
:1079C0000024014070B5264C4E4D2046A847FAF7DA
:1079D00089FF4D4EB061A01CA847FAF783FFC6F897
:1079E0009800201DA847FAF77DFFB066A01DA847A4
:1079F000FAF778FFFDF748F9FAF774FFF06604F13B
:107A00000A00A847FAF76EFFFDF72CF9FAF76AFFAC
:107A1000306704F10E00A847FAF764FFFDF71DF97F
:107A2000FDF711F9FDF70AF9FDF703F9FDF7FCF889
:107A3000FAF758FFB06204F11A00A847FDF7EFF813
:107A4000FDF7E8F8FDF7E1F8FDF7D0F8FDF7C9F824
:107A5000FDF7C2F8FAF746FFC6F8BC0070BD00BFDC
:107A600000F0010870B5264C264D2046A847FAF7CD
:107A700039FF254EB061A01CA847FAF733FFC6F8BE
:107A80009800201DA847FAF72DFFB066A01DA84753
:107A9000FAF728FFFDF7F8F8FAF724FFF06604F18B
:107AA0000A00A847FAF71EFFFDF7DCF8FAF71AFFFD
:107AB000306704F10E00A847FAF714FFFDF7CDF880
:107AC000FDF7C1F8FDF7BAF8FDF7B3F8FDF7ACF82C
:107AD000FAF708FFB06204F11A00A847FDF79FF813
