:020000040800F2
:10400000C80E002085410008FF670008F55200082F
:10401000FD670008D94A000855700008000000003C
:104020000000000000000000000000002B6D0008F0
:10403000DB4A000800000000296D00082D6D000813
:104040009F4100089F4100089F4100089F410008D0
:104050009F4100089F4100089F4100089F410008C0
:104060009F4100089F4100089F4100089F410008B0
:104070009F4100089F4100089F4100089F410008A0
:104080009F4100089F4100089F4100089F41000890
:104090009F4100089F4100089F4100089F41000880
:1040A0009F4100089F4100089F4100089F41000870
:1040B000B96E00089F4100089F4100089F41000819
:1040C0009F4100089F4100089F4100089F41000850
:1040D0009F410008E96F00089F4100089F410008C8
:1040E0009F4100089F4100089F4100080000000018
:1040F00000000000000000000000000000000000C0
:10410000000000009F410008E96E00080000000068
:104110009F4100089F4100080000000000000000CF
:104120009F4100089F4100089F4100089F410008EF
:10413000000000000000000000000000000000007F
:104140000000000000000000000000009F41000887
:1041500000000000000000009F4100089F4100088F
:104160000000000000000000000000009F41000867
:10417000DFF80CD000F034FC004800471D8F000829
:10418000C80E00200648804706480047FEE7FEE7C5
:10419000FEE7FEE7FEE7FEE7FEE7FEE7FEE7FEE7F7
:1041A000456E000871410008D2B201E000F8012B11
:1041B000491EFBD270470022F6E710B513460A46A7
:1041C00004461946FFF7F0FF204610BDF0B480EA20
:1041D0000102D40F4200B2EB410F02D20246084660
:1041E00011464A0042D0C30DDDB2C1F3C752AD1A29
:1041F000202D35DAC1F3160141F4000204B1524218
:10420000C5F1200602FA06F12A411044B3EBD05F53
:1042100023D0C4B1012DA0EBC35009DCF0BC4FF09A
:10422000004202EAC352DBB200F5000000F04DBBD1
:10423000400000F1807000EBC350A0F1807040EAB4
:10424000D170490009E0490841EAC071A0EBC350B0
:1042500000F50000400800EBC350F0BC00F02CBBA0
:104260006142012202EB4101001BF6E7F0BC7047FE
:1042700081F00041AAE780F00040A7E780EA010250
:1042800010B502F00043400022D04A001FD0010EBA
:1042900001EB1261C0F35600C2F3560240F4000075
:1042A00042F40002A0FB022000047F39140400D075
:1042B000401C50EA124001D44000491EC2B20C0614
:1042C00004EBD010401C4008802A02D003E00020FC
:1042D00010BD20F00100002900DA0020184310BDB5
:1042E00030B480EA010202F0004530F0004221F0D3
:1042F000004013D090B1C30DD40DC2F31601C0F32A
:104300001600E41A41F4000140F400027D349142A9
:1043100001D3641C00E04900002C02DA30BC00200C
:1043200070474FF400000023914201D3891A0343E0
:1043300040084FEA4101F7D151B1914202D14FF00B
:10434000004105E002D24FF0010101E06FF00101F0
:1043500003EBC450284430BC00F0AEBA2DE9FE4F48
:10436000804681EA0300C00F0C46009021F0004116
:1043700023F00045B8EB0200A94105D24046214692
:1043800090461C460B46024623F00040104347D09F
:10439000270DC7F30A00C3F30A510290401A019097
:1043A00040286BDAC3F3130040F4801B0098924658
:1043B00020B10023D2EB030A63EB0B0B01985946A3
:1043C000C0F14002504600F046FA06460D465046FF
:1043D0005946019A00F05EFA10EB08006141002492
:1043E00087EA115284EAE7731A4340D0009A62B315
:1043F000019A012A4FEA075215DC001B61EB02010A
:104400004FF0004202EA0752CDE90042001C41F59C
:10441000801132462B4600F095FA03B0BDE8F08FCC
:1044200040462146F9E7001B61EB0201001C41F503
:10443000801300185B412018A2F5001747EB030119
:1044400040EAD570B6196D4111E06D084FEA3606A5
:1044500045EAC0754FEA0752001B61EB0201001CE0
:1044600041F5801149084FEA3000001951413246A8
:104470002B4603B0BDE8F04F00F055BA009801227A
:1044800040000023D0EB020263EBE073009821466A
:104490004FEAE074B8EB000061EB0401E9E783F058
:1044A00000435BE781F0004158E72DE9FE4F81EAC8
:1044B000030404F0004421F0004100944FF0000B8D
:1044C00023F0004350EA01045ED052EA03045BD0BB
:1044D000C3F30A54C1F30A552C44A4F2F3340194F3
:1044E000A0FB0254C1F3130141F48011C3F3130381
:1044F00043F4801301FB024400FB034E840A970A35
:1045000044EA815447EA8357A4FB076802958D0A61
:1045100005FB07854FEA932C04FB0C542705029DED
:104520004FEA065847EA1637B5EB08056EEB070C5D
:10453000870E920E47EA811742EA8312A7FB020117
:10454000B6EB0B0164EB00042B0D43EA0C335E1851
:1045500044EB1C50DA465146E7FB0201C5F3130455
:104560004FEA0B3343EA14534FEA0432019C43EA07
:104570000603A4F10C040294009CCDE900B400F001
:10458000E1F903B0BDE8F08F00200146F9E72DE91D
:10459000F04D81EA030404F0004B21F0004514467D
:1045A0004FF0000A23F0004150EA050220D054EAFF
:1045B00001021DD0C5F30A570246C5F31303C1F328
:1045C0001300C1F30A5640F4801543F48013A7EB9F
:1045D0000608101BD64608F2FD3873EB050002D31F
:1045E00008F1010801E092185B41B8F1000F03DA0D
:1045F00000200146BDE8F08D00204FF480110646F2
:1046000084460EE0171B73EB050705D3121B63EB03
:10461000050306434CEA010C49084FEA30009218A2
:104620005B4150EA0107EDD152EA030012D082EA61
:10463000040083EA0501084305D0101BAB4106D2F4
:104640000122002306E000224FF0004302E06FF059
:10465000010253101AEB06004CEB085110EB0A0054
:1046600041EB0B01BDE8F04D00F05DB9002801DB26
:10467000C0F10040002901DBC1F10041814201D8B5
:104680000120704700207047002801DBC0F1004086
:10469000002901DBC1F10041814201D201207047B4
:1046A00000207047002801DBC0F10040002901DB39
:1046B000C1F10041814201D30120704700207047C1
:1046C000002801DBC0F10040002901DBC1F10041FD
:1046D000814201D90120704700207047002801DB8A
:1046E000C0F10040002901DBC1F10041814201D14C
:1046F0000120704700207047C10F80EAE070084435
:10470000CA079623002100F0E0B896230022114644
:1047100000F0DBB80EB540F2334102910021CDE943
:1047200000110A460B4600F00DF903B000BD00F081
:10473000004220F00040C10DC0F3160040F400001C
:104740007F2901DA00207047962903DCC1F1960128
:10475000C84001E096398840002AF4D040427047B2
:1047600020F00040C10DC0F3160040F400007F2986
:1047700001DA00207047962903DCC1F19601C84098
:10478000704796398840704770B5C1F30A5201F0FE
:1047900000450024C1F3130140F2FF3341F48011BE
:1047A0009A4201DA002070BD40F233439A42A2F2ED
:1047B000334203DC524200F05DF800E090402C43AD
:1047C000F1D0404270BDC1F30A5210B5C1F31301DC
:1047D00040F2FF3341F480119A4201DA002010BD0B
:1047E00040F233439A42A2F2334203DC524200F0D9
:1047F00041F810BD904010BD00F0004230F0004084
:104800000AD0C10D01F56071C0F3160042EA0151F2
:10481000C20840071143704700200146704701F06D
:10482000004330B421F0004150EA010206D00A0DE5
:10483000A2F56072C1F31301002A02DC30BC002033
:104840007047440F44EAC104C100E01830BC00EBDB
:10485000C25000F031B8202A04DB203A00FA02F1FD
:10486000002070479140C2F1200320FA03F319435E
:1048700090407047202A04DB203A21FA02F0002100
:10488000704721FA02F3D040C2F120029140084360
:1048900019467047202A06DBCB17203A41FA02F06E
:1048A00043EAE07306E041FA02F3D040C2F120028D
:1048B00091400843194670470029A8BF7047401C23
:1048C000490008BF20F00100704710B4B0FA80FC26
:1048D00000FA0CF050EA010404BF10BC704749B163
:1048E000CCF1200421FA04F411FA0CF118BF0121D3
:1048F00021430843A3EB0C01CB1D4FEA00614FEAB3
:10490000102042BF002010BC704700EBC350104481
:104910000029A4BF10BC7047401C490008BF20F00C
:10492000010010BC704710B5141E73F1000408DAC2
:10493000401C41F1000192185B411A4301D120F063
:10494000010010BD2DE9F04D92469B4611B1B1FA20
:1049500081F202E0B0FA80F220329046FFF77BFF4E
:1049600004460F4640EA0A0041EA0B0153465A4604
:10497000084313D0114653EA010019D0C8F1400290
:104980005046FFF777FF05460E46504659464246C9
:10499000FFF761FF084305D0012004E020463946B7
:1049A000BDE8F08D0020054346EAE0762C4337430E
:1049B0000A986305E40AA0EB08000022FD0A44EA15
:1049C00047540A3002D500200146E9E701051019D5
:1049D0006941DDE9084500196941BDE8F04DA2E7EC
:1049E0001CB509480090094801900546009C06E066
:1049F000E06840F0010394E8070098471034AC42A7
:104A0000F6D3FFF7B9FB000050D9010870D90108AF
:104A100070B58C1810F8015B15F0070301D110F880
:104A2000013B2A1106D110F8012B03E010F8016BAD
:104A300001F8016B5B1EF9D12B0705D40023521E30
:104A40000DD401F8013BFAE710F8013BCB1A921C98
:104A500003E013F8015B01F8015B521EF9D5A14296
:104A6000D8D3002070BD000010B50446007902289C
:104A700015D001280AD088B9E068804760790128FC
:104A800021D058B90120207102201FE0A068804782
:104A9000104801780139017008060DD010BDE0689A
:104AA00080470C480178013901700806F6D14FF4AF
:104AB0000070A080002009E061790220207129B1F6
:104AC000012902D0EAE7012020711920014908706C
:104AD00010BD00BFBC010020FEE770472DE9FE4F6E
:104AE0000646109892460E9A02930D9C2C4D9846BD
:104AF0000090581A622A28BF622280B2052A98BF05
:104B00000522C2F1640250436422B0FBF2F0524627
:104B100001EB000BABEB540087B2A1EB54001FFA82
:104B200080F930463B464946A84711980C9A3946C9
:104B300023460090701E85B2284602F001FA0F98B5
:104B40004346DFF85C80524600900BEB540084B281
:104B500030462146C047DDF840B028464946324637
:104B60003B46CDF800B0C0473246029E284621465B
:104B7000CDF800B03346C0470AF1010049463B4634
:104B8000CDF800B085B250462A46C047504621466F
:104B90002A463346CDF800B0C047BDE8FE8F00BFBF
:104BA0001D5500082DE9F843089E0746984615460E
:104BB0008946642E28BF6426012E98BF0126101A4C
:104BC00080B2FFF7A2FD0446C6F16400FFF79DFD29
:104BD0000D49FFF785FB2146FFF750FBFFF7A7FDC7
:104BE0000999281A434684B238460091494622461C
:104BF00000F094FC0A9849462A4643460090204615
:104C000000F08CFCBDE8F8830000C842438E4FF6EC
:104C1000FF7293421CBF5A1C428670B5CB1C002108
:104C2000062B24D8DFE803F00423142308232000F4
:104C300001F030FE04211AE0038C41869A4238BF0D
:104C4000012180F834104FF0010138BF09210EE036
:104C5000038C41869A4238BF012180F834104FF00E
:104C6000020138BF0A2102E001F014FE03210246CE
:104C700012F8305F12F8093C12F8036CDCB202F84B
:104C8000033C84F001033343B3FA83F35B094DB172
:104C9000002B5ED0002280F83020C285826280F82E
:104CA0002C2056E0458D6DB1013D45852D0401D088
:104CB000002508E090F82C50012D03D1002101F0CF
:104CC000E9FD05210125BCB1002B42D0024632F896
:104CD000283F32F8104CA34239D3448BA3422FD241
:104CE00090F82C3085F00104013B18BF01232343C9
:104CF0002DD1838B43852AE0038D048B01330385FB
:104D00009BB2A3420AD12DB990F82C40012C01D1BD
:104D1000062101E000F12C0201241470428B934221
:104D200017D3C38DC28B01339CB2B4FBF2F505FBE4
:104D30001242002A18BF1A46C28508BF082108E09F
:104D4000002180F83010C185116011710721002009
:104D50001080084670BD80B503F0F0FC0138B0FA51
:104D600080F0400980BD000070B50446818800686D
:104D7000374DA847374EA1893070A068A84770709A
:104D80002069A18AA847A37D94F82420317884F86B
:104D9000270084F8260083B191421AD0737894F8E2
:104DA000255085F00102DBB21A43B2FA82F25209B1
:104DB000012911D12AB3012210E0914209D0727861
:104DC00084F82410012A84F8252018BF4FF0FF3200
:104DD00049B1022100220FE0CAB1FF22002384F86A
:104DE000253084F82410D3B26FF00201012B08BFE4
:104DF0000321002B08BF0221002808BF0A4650B239
:104E000070BD55B9012B08D1FF220123E7E78DB909
:104E1000012B0FD101230122E1E700229D4208BFAF
:104E2000002BC8D05D4083F00106354308BF4FF02A
:104E3000FF32D4E79D4208BF002BCED085EA0302A3
:104E400083F001052A43B2FA82F25209C7E700BF94
:104E5000574D000886010020F8B5254E0025012792
:104E600004464FF43371FA22A0F85C50056080F8D4
:104E7000AE5380F8AC534563C0E90A5580F8AA7375
:104E800006628661D830FFF78FF91A481A49A4F8EC
:104E9000BB734FF4807784F8C453A4F8C153A4F8CB
:104EA000BE5384F8B65384F8B25384F8A453C4F8BC
:104EB000AC50E66684F8CA53C4F8A85084F8B053DE
:104EC000A4F8A65384F8A853A564A4F8B873C4E959
:104ED00019100A4840F20111A4F8C8131421C4E9BA
:104EE000105004F19400FFF766F9A4F8CB73F8BDF5
:104EF0000000BE430000AF430000A04300007A441E
:104F00002DE9F047DFF8D89399F80000032800F264
:104F10009F80DFE800F0029F0B81DFF8D05395F807
:104F2000CB03002800F0A18101209AE1EE49EF4D6A
:104F3000EC4AEF4E01F11000884699F808109246AD
:104F400011F0010708BF02F10E0095F8B013B04749
:104F500008F11200002F08BF0AF1100095F8B613EF
:104F6000B04708F11400002F08BF0AF1120095F8AD
:104F7000B913B04708F11600002F08BF0AF114005A
:104F800095F8BF13B04708F11804002F08BF0AF1C5
:104F90001604A86AFFF7CBFB01462046B04708F18C
:104FA0001A00002F08BF0AF1180095F8BC13B0478B
:104FB00008F11C00002F08BF0AF11A0095F8C2136F
:104FC000B04708F11E00002F08BF0AF11C0095F839
:104FD000B313B04795F8B00389F8010095F8B6030C
:104FE00089F8020095F8B90389F8030095F8BF0322
:104FF00089F8040095F8BC0389F8050095F8C20308
:1050000089F8060095F8B30389F80700A86AFFF746
:105010008EFBA9F8120021E1B34899F80820B149A4
:105020002030D20708BF01F11E00B9F8141003F0B8
:10503000A9F903F0B1F9012089F80000B9F81400CA
:105040000130A9F8140099F80800013089F8080027
:10505000BDE8F087B9F80A00FFF757FBDFF88C824C
:105060000146D8F81800FFF739FB002871D0B9F8CD
:105070000C00FFF74AFB0146D8F89400FFF72EFB1F
:10508000002866D0B9F80E00FFF73FFB0446D8F8B9
:1050900064002146FFF722FB00285AD0B9F810001F
:1050A000FFF733FB0546D8F87C002946FFF716FBCF
:1050B00000284ED0D8F868002146FFF70FFB0028E3
:1050C00047D0D8F880002946FFF708FB002840D0D9
:1050D000D8F86C002146FFF701FBD0B3D8F8840064
:1050E0002946FFF7FBFAA0B398F8B00399F801102E
:1050F00081422ED198F8B60399F80210814228D146
:1051000098F8B90399F80310814222D198F8BF03A7
:1051100099F8041081421CD1B9F81200FFF7F5FA92
:105120000146D8F82800FFF7D9FA90B198F8BC03E7
:1051300099F8051081420CD198F8C20399F806102D
:10514000814206D198F8B30399F8071081423FF4E1
:105150007FAF03F061F9644999F808000C4610F03C
:1051600001068A4608BF04F58064204603F042F930
:10517000D8F81800FFF7DBFA5D4D01F04FFC0AF19B
:105180000204002E04BF4FF60204C0F60104D8F852
:105190009400FFF7CCFA01F041FC0AF10404514FEE
:1051A000002E08BFBC1CD8F86400FFF7C0FA01F05D
:1051B00035FC0AF10604002E08BF3C1DD8F87C001F
:1051C000FFF7B5FA01F02AFC0AF10804002E08BF27
:1051D000BC1DD8F86800FFF7AAFA01F01FFC0AF11D
:1051E0000A04002E08BF07F10804D8F88000FFF772
:1051F0009EFA01F013FC0AF10C04002E08BF07F11F
:105200000A04D8F86C00FFF792FA01F007FC0AF1E3
:105210000E04002E08BF07F10C04D8F88400FFF735
:1052200086FA01F0FBFBD8F81800D8F86C40D8F8E3
:105230008450D8F89460FFF77AFAA9F80A0030464B
:10524000FFF775FAA9F80C002046FFF770FAA9F8E5
:105250000E002846FFF76BFAA9F8100099F8000035
:10526000013089F80000BDE8F0871F4C1521204669
:1052700002F012FB4FF6FF76B04214D02046152103
:1052800002F00AFBB0420ED004F1200003F0D0F887
:10529000A9F8160013481E3003F0CAF8B9F8161022
:1052A000814206D80FE02046152102F0F5FAB042FF
:1052B00002D003F0EBF80BE004F58060152102F05A
:1052C000EBFAB04202D003F029F901E003F0A2F9B1
:1052D00002F05AF8012085F8CB03BDE8F08700BF43
:1052E0006801002002F8010800F40108AC06002063
:1052F00085830008FEE7000070B5074D08242E46A0
:10530000682C08BF70BD28190A2103F03BFA06F883
:10531000010B1034F4E700BF080000202DE9F84F1E
:10532000DFF8B0B307462A20984692468946D84708
:10533000F64C4FF40045380AF5494FF48066656035
:10534000C4F8FC03F8B20E60C4F80068256065601C
:105350000F46C4F8FC034FEA1A200E6001F05CFC13
:105360005FFA8AF00E6001F057FC2B200E60C4F843
:1053700000682560D8474FEA192065605946C4F88F
:10538000FC035FFA89F03E6001F046FC4FEA18200A
:105390003E6001F041FC5FFA88F03E6001F03CFCA9
:1053A0003E60C4F8006825602C20BDE8F84F08472F
:1053B000F8B5CA4D044600266888298801390138A5
:1053C0008AB283B200200021FFF7A8FF2888864216
:1053D00028BFF8BD00276888874204D2204600F025
:1053E00095FC0137F7E70136F0E700BFEF492B22C4
:1053F00000288A810A4A8A60024618BF01228A71FF
:105400004FF4F07218BF4FF4A0724A8000284FF496
:10541000A07218BF4FF4F07203200A8000F07AB92E
:105420002C002A002DE9FE4F0C46A3EB010B111AAC
:1054300005460029029101DD012008E005D002980F
:10544000404202904FF0FF3001E000200290BBF19B
:10545000000F019001DD012607E019BFCBF1000B21
:105460004FF0FF364FF0000B002602985F464FF0DA
:1054700000084FF000094FF0000A584588BF074662
:105480001FFA88F08742B8BFBDE8FE8F0C9AA8B219
:10549000A1B200F016F80AEB0B0008F10108B842BF
:1054A000C8BF34440299019A4944B942C8BF15445F
:1054B000B0EB070AD8BF8246B1EB0709D8BF8946CF
:1054C000DEE710B5144602460B46FFF727FF2046DD
:1054D000BDE8104000F01ABC2DE9F843DDF820903B
:1054E000DFF834801C460B4615460E460746CDF8BD
:1054F0000090C047384631463A4601F0BBFA38467C
:1055000021462A4601F0B6FA284631462A4601F0DD
:10551000B1FABDE8F88300BF255400082DE9F8432F
:105520008146501E154698460E4682B2581E83B2DA
:105530004846FFF7F3FE089CB0B2404528BFBDE8DF
:10554000F8834F46B8B2A84204D2204600F0DEFBF2
:105550000137F7E70136EFE72DE9F0415A48042615
:105560005A4D06607820A847594CF020C4F81068BE
:10557000A84720464FF6FF71A04603F081F8554E2C
:10558000D320B047544FB847884CA080B847A0807C
:10559000B8470002A080B847A1880843A080C02077
:1055A000B047884F0F20B8470F20B847C120B047F9
:1055B0000F20B847C520B0470020B8475720B8474C
:1055C0008020B847B120B047A020B847B420B047EA
:1055D0000220B8473620B0474820B8473A20B047A5
:1055E0005520B8472120B0470020B847E920B047F0
:1055F0000020B847F720B047A920B8475120B84746
:105600002C20B8478220B847E020B0470020B84798
:105610000920B8470C20B8470220B8470E20B847E9
:105620000520B8472F20B8474620B8474720B8473D
:105630000420B8470E20B8470B20B8472D20B847A4
:105640003620B8470F20B847E120B0470020B847C0
:105650001020B8471320B8470320B8471020B84798
:105660000620B8473A20B8474620B8475120B847E7
:105670000620B8471020B8470D20B8473320B84758
:105680003720B8470F20B847B620B0470220B847A8
:105690002220B8473B20B8470120FFF7A7FE2C2067
:1056A000B0477820A8471120B047C820A847292034
:1056B000B04708F58060102102F0E2FF0020BDE84D
:1056C000F041FFF775BE00BF14140140F9A80008AF
:1056D000000C0140255D0008E1560008220600206C
:1056E00010B5002003F0ACFF0848094A4FF4004110
:1056F0004FF4006341601360D0F8F843C0F80038FD
:105700000160102003F09CFFA0B210BD1008014002
:1057100014100140B0B5254CA279A188D3B2012B59
:1057200008D141F6631291420ED046F6040291422E
:105730000AD005E0120607D141F66312914203D167
:1057400008280AD21BA104E00138C0B2072804D2FD
:10575000174901EB4000018800E00821362000F0E5
:10576000F9FA608900F0DEFA164D0020A847002003
:10577000A84720880138C0F30F20A84720880138A7
:10578000C0B2A847A08900F0CDFA0020A8470020A9
:10579000A84760880138C0F30F20A84760882946D1
:1057A0000138C0B2BDE8B040084700BF2206002063
:1057B00084AE0008A800E8002800680088000800FF
:1057C000C80048000D5D00082DE9F04F89B0139F17
:1057D000814690461C46089100EB5700013882B282
:1057E000C819013883B24846FFF798FD01213809EE
:1057F000DDF850A04E4617F00E0F18BF01EB171042
:105800004FF4C87178437D080690A8F120004FF04E
:105810000008C2B23748059212FB010004903948D3
:1058200000EB02100390354800EB821002903248E2
:1058300000EB022000220190069990B2884256D2D5
:10584000502F079216D0102F18D00599182F01EB62
:10585000410109D0202F0FD0402F09D00C2F46D165
:10586000294A02EB81010AE0254A02EB011106E018
:10587000019904E0049902E0029900E003990844C8
:10588000002790F800B0082F2DD00120B84000EA82
:105890000B00BAF1000F0DD028B10899B0B2224622
:1058A00089B2FFF70EFE0136B0B2A0EB0900A842A4
:1058B00010D111E000282046129908BF084600F0D8
:1058C00025FA08F101081FFA88F0B0FBF5F101FB99
:1058D000150030B10137D6E708984E4601300890E0
:1058E00001E04FF00008079A139F0132A4E709B0C6
:1058F000BDE8F08FD0440108D0E5000810CE0008C4
:1059000040BC000850B60008DCB100082DE9F04F9B
:1059100085B001F045F8444524D06FEA080001F055
:105920000FF8BAFBF0F001F012F906D104984045E7
:1059300003DD08040DD04FF0010B0F9841F030014A
:105940000E9BCAB2314601F088F8A94408F101085B
:10595000E1E70F980E9B3146302201F07EF84FF0C0
:10596000000BF2E701F08DB82DE9FE4FDDF8348031
:10597000DDF838A0DDF830B0994615460E460746EA
:105980004FEA58042A785AB1B8B231464B46CDE9AD
:1059900000B8CDF808A0FFF717FF27440135F1E75D
:1059A000BDE8FE8F2DE9FE4F0C9D89464349074611
:1059B0009B4614462846FEF775FE414E00281CBF44
:1059C0000025C4F2FA3528463146FEF74FFE3D4A1F
:1059D000CDF800B000281CBF0025C4F2C825284619
:1059E00031464B4604F0CEFE374E0D9D3749308090
:1059F0002846FEF757FE00281CBF0025C4F2483594
:105A000028460021FEF732FE0028314ACDF800B0CA
:105A100018BF002528464B46002104F0B3FE7080D5
:105A2000E01B02970E9F00F0E5FF811E441E0191CE
:105A3000A2453BDA029807EB0A0817F80A1098F813
:105A40000130CDF800B0504485B2023086B228460D
:105A50003246FFF7E7FC0F98324600EB0A0910F8D0
:105A60000A10284699F80130CDF800B0FFF7DAFCAB
:105A7000019882450FDA98F8023098F801104FF239
:105A8000604001F022F899F8023099F8011044F6CC
:105A9000384001F01AF898F801000AF1010A88F874
:105AA000000099F8010089F80000C1E7064908885C
:105AB000385548880F990855BDE8FE8F0000FA4315
:105AC0000000C84200001644820100200000484344
:105AD00000007A432DE9F04F87B01C4604900591F1
:105AE0005B1A0521101A002700F084FF069293FB31
:105AF000F1F590FBF1F6DDE90489BBF1000F17D059
:105B0000BBF1050F20D01098069A009009EB070012
:105B100081B240460B46FFF785FC10984946234664
:105B2000009008EB0A0080B20246FFF77BFC06E01B
:105B300010982346009004AA07CAFFF7CDFC2F4413
:105B4000B2440BF1010BD8E769202A212F22192337
:105B50000090142001F0F4F90498059D374F4FF0A0
:105B600000080C2432A201F023F8033086B205F1BC
:105B70001E001FFA80FA30465146B84705F148002A
:105B80002FA201F015F81FFA80FB30465946B8479E
:105B900005F172002DA201F00BF881B2304604919C
:105BA000B84705F19C002CA201F002F881B2304602
:105BB0000391B84705F1C6002AA200F0F9FF1FFAC9
:105BC00080F930464946B847069E6A20A91C17222C
:105BD0001723009089B2A6F1190080B201F0B0F944
:105BE000A6F1140022A2514601F002F885B228461F
:105BF000B84720A22846594600F0FAFFB847049952
:105C00001DA2284600F0F4FFB847A6F10E00039944
:105C10001AA200F0EDFF80B2B847A6F1080018A262
:105C2000494600F0E5FF80B2B84707B0BDE8F08F05
:105C30003530302839333229000000006959000816
:105C40003430302837353229000000003330302816
:105C500035373229000000003230302833393229FC
:105C600000000000313030283231322900000000BD
:105C70003230300031353000313030003530000006
:105C8000300000002DE9FE4F07460D989946154655
:105C90000E460FF22C0A4FF000084FF0000B44089C
:105CA0005D4508BFBDE8FE8FABF10100C0B205281D
:105CB00001D800F05CFEA0440BF1010BF0E700BF3F
:105CC00056312E302E3100002DE9FE4F07460D983B
:105CD000994615460E460FF22C0A4FF000084FF079
:105CE000000B44085D4508BFBDE8FE8FABF1010025
:105CF000C0B2052801D800F03AFEA0440BF1010B18
:105D0000F0E700BF56312E302E30000010494FF41E
:105D100000424FF480634A60C1F8FC030B4800F076
:105D2000CFBE00BF10B50949094B4FF480524FF464
:105D300000440A605C60C3F8FC034FF480600860B4
:105D4000C3F80008C3F800281C6010BD14100140FF
:105D50001008014010B50C46FFF7E4FF2046BDE8EF
:105D60001040FFF7D3BF00002DE9F04F85B003F0DE
:105D7000C1FADFF86C8A4FF6E771B8F8A603A0B352
:105D800098F8C863042E02D0022E05D114310844BD
:105D9000A8F8A603000431D00020D8F82040C8F8A5
:105DA000AC00C8F89800C8E90200D8E9065000F035
:105DB000CCFD30B1D8F8240000F03AFF002840F0C4
:105DC0008C81022EC8F82440C8F81C5000F0CA800C
:105DD000042E40F0828198F8B603012800F05C811F
:105DE000002840F07A81284657E1DFF8F8194FF68D
:105DF000E77A087950B10138087104E0DFF8E40966
:105E00004FF6E77A0079000640F0A681DFF8D079F6
:105E100097F8B6B3BBF1010F2BD13E68E149BC6ADC
:105E20003046FEF72BFAE049FEF75AFA00F066FE1C
:105E30000546786020460021FEF750FC68B9D94934
:105E40002046FEF71BFAD849FEF74AFA00F056FE44
:105E5000FEF76DFCDFF88C19C87297F8B3030128C0
:105E600003D1D24900F0D3FD0546DFF87809C47AA2
:105E700013E0B86A3E6880F00040FEF758FC044624
:105E8000DFF86009CA49C4723046FEF79FF905463B
:105E900097F8B303012818BF35462046FEF735FCB6
:105EA000014600F0B4FDFEF742FCDFF8381997F820
:105EB000C853814648611420012D07D0042D05D018
:105EC00097F8AA03002818BF6FF037000871D7E9C8
:105ED00001403146FEF702FC28B1F86800F0A8FE48
:105EE000002840F09A80022DC7E9026448D197F853
:105EF000A803002844D1502000F016FD97F8AA030B
:105F0000012865D197F8BC03002861D0012840F032
:105F10008480DFF8D008D0F814904846FEF7ECFBF8
:105F2000D7F818B0A34904465846FEF74FF9214662
:105F3000FEF79CFBA04905465846FEF747F997F83F
:105F4000B663002D40F02A842146FEF7ABFB002803
:105F500040F02484002E00F02F84012E5DD1386A99
:105F600000F02BBC522000F0DFFC98F8B6030128AB
:105F700000F0A280002840F0B080D8F818009DE022
:105F8000042D4AD197F8AC03012833D097F8BC030D
:105F900080B3012841D14846FEF7AEFBBD69854973
:105FA000044600F034FD2146FEF760FB82490646B8
:105FB00000F02DFDF6B92146FEF774FBD0B9BBF118
:105FC000010F00F0FF83BBF1000F26D12846FAE352
:105FD00097F8B60308B101281FD1DFF80808828AB4
:105FE0000AF1180400F0D2FCA4B200F0B6FC502074
:105FF000782110E0BBF1000F02D0BBF1010F0CD1F2
:106000000AF1180343F286120020202100F0EAFC76
:1060100040F28910502100F0F7FDD7E9255000F03B
:1060200094FC38B997F8A803002840F09580D7F879
:10603000A8400BE0D7E92A4000F0FAFD002840F024
:106040008B8097F8A803002840F0868097F8AA1361
:1060500097F8AC2397F8C23397F8C803C7F8AC4059
:10606000C7F8985081F0010182F0010211431943F1
:10607000090608BF2546DFF86C470228A56156D0FF
:1060800004286DD12846FEF752FB00F056FD202172
:1060900043F28613A4B237E02046FEF748FB0246DF
:1060A0000020202143F286134FF6614400F055FC96
:1060B00040F2891050210EE0D8F82000FEF737FB9F
:1060C000024600F063FC4FF66144CDE90210502017
:1060D0007821CDE9004300F097FDD8E9254000F094
:1060E000A7FDC8BBDFF8FC06046198F8C8030228C6
:1060F00010D0042834D100F062FC02460020202198
:1061000043F2861343F67F4400F027FC40F29510DB
:10611000CD211FE0562000F05EFDD8F89400FEF778
:1061200006FB024600F032FC43F67F440BE05420AD
:1061300000F051FDA069FEF7FAFA00F0FEFC5021D4
:1061400041F6A303A4B2CDE902104FF48770782181
:10615000CDE9004300F058FDDFF87C0E90F8C8034D
:1061600098F8AA13022808BF012927D002284FF661
:10617000E77A70D141F0020002286CD10AF11801CF
:10618000002418200022032389B2CDE9020440F242
:106190004510CDE900143421FFF7B8FBDFF84406C1
:1061A000847258E0000010410000A0400000F4C2DA
:1061B000000048C20000A0410000A0C1DFF8185E46
:1061C00095F8AC03012809D195F8C20330B9DFF87E
:1061D000140600214FF6E77A81723CE02C68AE4944
:1061E000D5F818902046FDF7F1FF95F8B313012973
:1061F00018BF2046FEF79BFAFEF77EFAA74906462F
:106200004846FDF7E3FF31460746FEF73DFAA4494D
:1062100005464846FDF7DAFF044635B920463146C3
:10622000FEF74EFA002800F08D8220463146FEF738
:106230002BFA4FF6E77A40B138463146FEF740FA7E
:1062400048B9DFF8A005002103E0DFF8980546F221
:106250000141A0F80910DFF88CB5DFF898759BF8BC
:106260000A003978814220D041F6A30144F25072ED
:106270004323CDE900020291CF203F214FF48772E2
:10628000FEF790FC0AF118039BF80A200020182161
:106290009BB2CDE902103421CDE9003040F2451027
:1062A00000F0B2FC9BF80A003870404603F034FA64
:1062B00098F8C803042802D0022840F08A80DFF84A
:1062C000186D96F8A41396F8A50388424DD00328BC
:1062D0000BD0022805D0012810D1582000905A2058
:1062E00007E059200090C12003E05A2000904FF4AD
:1062F000947000F055FC00F023FE14E05820DFF805
:10630000F85400F04DFC5A2400905A20A847592018
:1063100000F046FC0090C120A8474FF4947000F0B4
:106320003FFC0094A84796F8A40303280BD002284A
:1063300005D001280FD15B2000905A2007E05C2097
:106340000090C12003E05D2000904FF4947000F0B5
:1063500027FC00F0F5FD534800F096FB00208BF879
:106360000C0096F8A40386F8A50380B3B069756E97
:10637000FEF7DDF904462846FEF7D9F9844209D034
:10638000B06EFEF7D4F9844204D0F06EFEF7CFF978
:10639000844213D1306A356FFEF7C9F904462846A6
:1063A000FEF7C5F9844212D0706FFEF7C0F984423F
:1063B0000DD0B06FFEF7BBF9844208D09BF80C00FB
:1063C00028B9384800F060FB01208BF80C0096F8E3
:1063D000C803042802D0022840F0AC80DFF89C6F8C
:1063E000756ED6F8C00000F0B0FA28B1316FD6F85B
:1063F000CC00FEF773F9B8B900F051FB0129012870
:1064000002D060B9786801E006F170000068FEF71C
:106410008EF900F02EFA612000F00FFB756E306FE0
:10642000C6F8C050C6F8CC00B56ED6F8C40000F06F
:106430008CFA28B1716FD6F8D000FEF74FF9B8B9D1
:1064400000F02DFB0229012802D060B9B86801E0F4
:1064500006F174000068FEF76AF900F00AFAC82035
:1064600000F0EBFAB56E706FC6F8C450C6F8D000F5
:10647000F56ED6F8C80000F068FA28B1B16FD6F80A
:10648000D400FEF72BF900BB00F009FB032901281B
:106490000AD0A8B9F86809E0000048C20000C84264
:1064A0000000C8C200007F4306F178000068FEF7D4
:1064B0003EF900F0DEF940F22F1000F0BEFAF56E62
:1064C000B06FC6F8C850C6F8D400F46FD6F888008C
:1064D00000F0AEFB48B900F072FA00F0CAF98E2065
:1064E00000F0ABFAF06FC6F88800D6F88040D6F816
:1064F0008C0000F09DFB50B900F061FA00F0B9F992
:10650000F52000F09AFAD6F88000C6F88C00D6F88C
:106510008440D6F8900000F08BFB58B900F04FFA99
:1065200000F0A7F94FF4AE7000F087FAD6F88400B7
:10653000C6F8900003F0A4F89BF80D00D0BB012032
:10654000A94DBA46D8F81870D8E919498BF80D004A
:10655000D8F8000000F0B1FAA44E00F08FFA00F075
:10656000CDFAC8F80400384629465746FDF786FE9E
:1065700000F084FA00F0C2FAC8F82000204600F0CB
:106580009CFA00F07BFA00F0B9FAC8F870004846AF
:1065900000F093FA00F072FA00F0B0FAC8F8740054
:1065A000D8F86C0000F089FA00F068FA00F0A6FA5A
:1065B000C8F8780098F8B60398F8B71381425BD012
:1065C000012832D0002857D1DFF8F8AE864CBB4600
:1065D000DAF80000DAF8186000F06CFA834D00F089
:1065E00046FA00F08BFACAF80400304600F062FA6E
:1065F00000F03DFA00F082FA5746CAF82000214622
:1066000057F8640FFDF73AFE00F031FA00F076FA21
:10661000CAF870000AF16C080AF168000AF17809FA
:106620000AF17406024641460CE0BB4608F17801C7
:1066300008F1740208F1700708F1040908F1200656
:1066400008F11800684C0068CBF80C10CBE9017217
:1066500000F030FA654D00F00AFA00F04FFA3060B1
:10666000D8F8000000F026FA00F001FA00F046FA2F
:10667000DFF870B1C9F8000003F028F903F066FAFA
:106680009BF8070010B90120ABF80700544D58499A
:10669000D5F8A4402046FDF7F7FF95F8AA6395F8D2
:1066A000C85398B9022D11D186B19BF8060001306C
:1066B0008BF80600C0B2292823D300208BF80600EF
:1066C0009BF8050001308BF805001CE04849204686
:1066D000FDF7E8FF78B9022D0DD166B99BF80800E7
:1066E00068BB01202821242222238BF808004A209D
:1066F00000F040FA23E0022D1CBF00208BF80800B8
:106700001DE09BF8050000218BF80810411EC9B25E
:10671000022908D84930282124222223C0B200F0BF
:1067200029FA9BF80500C0B2042808D14D20282181
:106730002422222300F01EFA00208BF8050005B069
:10674000BDE8F08F274F4FF6E77A787A022820D1FC
:10675000F8890138F88100B200283FF77CAD32207B
:106760003146F8814846FDF78FFF044630464946DA
:10677000FDF77EFD054648463146FDF779FD002CC4
:1067800018BF2846FDF7D3FF012898BF0120B87233
:1067900061E546F20240A7F809005CE516B1012E5A
:1067A0007FF43BAC0AF118030020502141F6A3020C
:1067B00000F018F9FFF71BBC5846FDF7B8FF02467A
:1067C000FFF70EBC386AFDF7B2FF00F0B6F92021E2
:1067D00043F28613A4B200F0C0F8FFF719BC00BF63
:1067E000AC060020A0010020000010410000A040E5
:1067F0000000C842C4000020416F0008FEE7704757
:10680000002000214FF4F0724FF4A073009500F0C7
:1068100097BB012100F008BF4FF080400221002209
:1068200070475146ADF80940019058464847072542
:10683000A34005FA04F40C250A29704700BF00BFE5
:1068400000BF00BF00BF00BF00BF00BF00BF00BF50
:1068500070472046FDF734BFB0FA80F0400980BD94
:10686000BDF808100A31ADF808109DF80B10013181
:1068700070470AF1180402460020182143F28613DB
:10688000A4B2CDE902107047C6F89800D6F894007B
:10689000FDF79CBC80F83010C185816280F82C1017
:1068A0007047C0E90056C0E90243C0E904217047BF
:1068B0004FF0804000217047514601904046ADF8AE
:1068C00009404847206840F0400020604FF0804079
:1068D00001F07CBD2046FDF7E5BE4FF08441FDF799
:1068E00075BCBDF808109DF807201144A1427047FF
:1068F00025221E2300904FF4AA7000F021BB4FF018
:106900008441FDF763BC86F8BF0304F118002847F3
:10691000FA2158222D230090C42000F011BB054617
:1069200020462946FDF7B0BED2217B221C230090D1
:106930005A2000F005BB054620462946FDF7C0BE9B
:106940002044C1B20A2002F0A5BB2946FDF7C6BE0D
:10695000044628462146FDF789BECDE90210CDE95F
:1069600000437047044628462146FDF79BBE0C991C
:106970001AF8002007EB08004B4680B200910D99F1
:106980000191002102913146FEF71EBF00205021E7
:1069900041F6A3037047C8F834002846FDF716BC3B
:1069A000074610981C4692460E464FF000094FF0DD
:1069B00000084FF0000B4508581E04907047204611
:1069C000FDF7B5BED8F82C402846FDF757BC4FF46C
:1069D0008073CDE90044FEF781B820464FF07E5128
:1069E000FDF7F4BB9BB2CDE90210CDE900321FFAEE
:1069F00089F270474FF0000A4FF0000B704741F6E4
:106A0000A3020F24CDE90203CDE9042170472846F3
:106A1000FDF7DCBB4FF4801001F0D8BC01462046E6
:106A200028474FF04241C9F82000FDF7CFBB0020B6
:106A3000A8F8040088F8020070474FF48C71CDE983
:106A400000430323FEF762BF4FF47A700021A5F8DC
:106A5000A6037047002100F035BF00901098019008
:106A60001198029007EB090080B2FEF7ADBE2946EF
:106A7000FDF736BC2346CDF8009040473146FDF780
:106A80002FBC05B0BDE8F08FC6E93000C6E9320082
:106A9000C6E93400704700BA000CFFF737B996F822
:106AA000A41396F8B6037047013A013B92B29BB229
:106AB000FEF734BC2146FDF7E1BB2946FDF7DEBBFE
:106AC0000360C1F800380A607047324600902846DB
:106AD000FEF7A8BC1C4615460E460746704786F8CA
:106AE000B90304F11600284720464FF07E51FDF708
:106AF0006DBB8DF80B109DF80B1070474FF0844163
:106B0000FDF764BB96F8A413C6F8944003297047B8
:106B1000012100F0D7BE216821F00101216010BDE4
:106B200086F8B60304F1140028474FF0424138625A
:106B3000FDF74CBB3046FDF749BB0AF1180402468D
:106B4000002070474FF042412862FDF73FBB0A2109
:106B5000BBF1000FB0FBF1F101EB8101A0EB4101B2
:106B6000704786F8B00304F1120028470020A8F807
:106B70005C00704700904FF4D77000F0E1B9054613
:106B80002046FDF723BB226842F0010222607047D5
:106B9000C6F8840004F1100028472846FDF774BDAC
:106BA0004FF481715D22302370472046FDF70EBB04
:106BB0004FF26043CDE90084CDF80880704701F0C2
:106BC000070125F4E04545EA01317047C6F8800029
:106BD00004F10C002847D4217B22192300904FF4A4
:106BE000877000F0ADB905F1880002EB81027047B3
:106BF00044F63843CDE90084CDF80880704786F824
:106C0000C20304F11E0028470323FEF77FBE06F1EE
:106C1000880002EB81027047C4F800682560656057
:106C2000C4F8FC03704786F8BC0304F11C00284735
:106C30002146FDF753BD417195F8B6030128704711
:106C400000210162C16141610161C160704710B5FD
:106C500000240462C46144610461C460029C446213
:106C600080E80E00846210BDF8B50446084611465F
:106C7000FDF7FEFA606129496069FDF721FD20B941
:106C800060692749FDF700FD08B1002003E0606955
:106C9000E169FDF79BFAE061224DE0692946FDF7C5
:106CA000F3FC00B9E561E06900210025FDF708FD6E
:106CB00000B9E561D4E9005660692169FDF7D8FAA9
:106CC000A06130466769E169FDF7D8FA616A00F0B2
:106CD000C2F9064628463946FDF7D0FA3146FDF797
:106CE00075FA0546A068A169FDF7C8FA2946FDF7BF
:106CF0006DFA206260692061206AA16AFDF7B6FC26
:106D000008B9A06A2062206AA16A81F00041FDF7FB
:106D1000C9FC08B900202062206AF8BD0000C84202
:106D20000000C8C200C82F477047704770B5AA4C12
:106D300094F8AA0358B1374801780139017009065F
:106D40000BD105210170A44801F066FA05E0204648
:106D500001F062FA012084F8CC0394F8AA03022817
:106D60000AD1A56D00212846FDF7B8FC20B92A49B3
:106D70002846FDF72BFAA065264DA8880138A88083
:106D8000000403D10120A88001F022FA68880138AC
:106D90006880000408D14FF47A70688051484168D7
:106DA000C4F8A410002141604E4E307850BB102032
:106DB00001F052FB70807088FDF7ACFC174A184B4D
:106DC000FDF773FB174B0022FDF76FFB164A174BBD
:106DD000FDF7C4FA164A174BFDF7D9FB164B0022F4
:106DE000FDF7BCFAFDF71BFD14490546A064FDF74D
:106DF00067FC38B928460021FDF738FC10B901209E
:106E00002560307003F016FF0D480068BDE8704043
:106E1000004700BF00000020000080BF52B81E8560
:106E2000EB510A400000303F295C8FC2F528F4BFC7
:106E300033E197FA7953713F00003940000048422E
:106E4000AC0A00201848C16941F08051C16117495E
:106E50000A7842F004020A70C16921F08051C161D0
:106E6000016841F00101016001688907FCD54168B2
:106E700021F003014160416811F00C0FFBD1016862
:106E80000B4A114001600021416041F61071C1625E
:106E90004FF4801101634FF41F01816005484FF0EA
:106EA00000610160704700BF001002405070004058
:106EB000FFFFF2FE08ED00E010B54FF08040022128
:106EC00003F004FA68B1074C4FF07E516068FDF79B
:106ED0007DF960604FF080400221BDE8104003F072
:106EE000E2B910BD8801002070B5144C0121204684
:106EF00003F0DCF908B3384D95F8CB03012808D12D
:106F0000284602F091FA2E6C00213046FDF7D8FB9E
:106F100008B900262E643046FDF722FC02462046C2
:106F2000062103F099F92046012103F0B7F9204624
:106F30000121BDE8704003F0B6B970BD000C0040FF
:106F40002DE9F041F54D02FB03F4640095F8BF63B1
:106F5000069D012E06D076B9023DEEB2692E0AD208
:106F60001F4E04E0023DEEB2682E04D81B4EEDB277
:106F700056F8255000E0002502440B44FFF794FD2D
:106F8000184E4FF000082CB330462946B8EB942F2A
:106F90000CD1224602F05EFF0027A74204D2F05B2C
:106FA000FFF779FD0237F8E7002010E04FF4806228
:106FB00002F050FF0027B7F5806F04D2F05BFFF7B7
:106FC0006AFD0237F7E7A4F580604FF4806425443A
:106FD0000446D8E7BDE8F081AC06002038B00008D0
:106FE00094AE0008BD010020BCB5184CE0688006D6
:106FF0000FD52046202103F038FB50B1204603F086
:107000001DFB134DC1B2284602F001FB4FF4827004
:10701000A881E068400612D52046402103F025FBF8
:1070200068B12046402103F019FB094D0DF107011D
:1070300005F1100002F0D8FA10B100206877BCBD4D
:107040009DF80710204603F0FCFABCBD0038014053
:10705000800A0020FEE7E0B50190009101980099B8
:10706000FDF704FB08B9009801900198009981F0A0
:107070000041FDF717FB18B9009880F0004001901F
:1070800001988CBD0A78436802F0010223F48073F2
:1070900043EA022242604A78836862F341038360D4
:1070A0008A78836802F0010223F4006343EAC22273
:1070B0008260C978C26A013922F4700201F00F01BE
:1070C00042EA0151C16270474FF080710160704720
:1070D000816841F00801816070478068C0F3C0009A
:1070E0007047816841F00401816070478068C0F397
:1070F00080007047826861F3000282607047006818
:10710000084018BF0120704770B501EB41040A29FF
:1071100028BF1E3CFFF78BFB38BF1025465926EAD7
:107120000404234302EB820443516FF00403062A54
:1071300088BF6FF022030C2A88BF6FF0400334250C
:1071400023441F249C40062A88BF30250C2A88BF70
:107150002C2542599940A2431143415170BDC06C46
:1071600080B2704710B54B048468082904D344F0FA
:10717000007103F4602301E024F0007181608168F4
:1071800021F460211943816002F00101826822F438
:10719000801242EA0151816010BD426801F0010194
:1071A00022F4006242EAC12141607047826801F026
:1071B000010122F4800242EA81518160704700009F
:1071C000044900F001000A6822F4000242EAC050BB
:1071D00008607047082401400138C0B209280BD864
:1071E00040F20331C140C90706D0044900224A7168
:1071F00003A1085C48490870704700BF14010020D3
:1072000001020101010101010003000070B5424DBE
:107210002878032800F27E80DFE800F002531D3852
:10722000A84E4FF47A70AC49A6F8A6033C48FFF785
:107230002BFBA8490446FDF719FA18B9A54C002004
:10724000C6F89800FFF75EFC5ED8FFF7E0FCDFE8C9
:1072500001F05F5954579B4E4FF47A703249A6F8AB
:10726000A6032F48FFF710FB9B490446FDF71AFAC7
:1072700018B9994C0020C6F89800FFF743FC43D892
:10728000FFF7C5FCDFE801F0443E393C8D4E4FF47A
:107290007A702449A6F8A6032148FFF7F5FA8E492B
:1072A0000446FDF7FFF918B98B4C0020C6F898008A
:1072B000FFF728FC28D8FFF7AAFCDFE801F0292314
:1072C0001E21804E4FF47A704FF07E51A6F8A6032F
:1072D0001348FFF7D9FA7F490446FDF7C7F918B9F3
:1072E0007C4C0020C6F89800FFF70CFC0CD8FFF788
:1072F0008EFCDFE801F00D07020506F18C0001E0CD
:1073000006F19000064901606E48002180F8A41340
:107310000420287070BD00BF0C010020AC060020C6
:1073200000007F430000A0C0000080BF1448FDF7AC
:107330009BBB00BF8248102101F0A0B980481021FA
:1073400001F09EB910B55F4C94F8B90320B1012843
:1073500005D1FFF7EBFF02E00948C068804794F8C9
:10736000AE0350B1074801784A1C3229027004D19B
:10737000034902224A710021017010BDAC060020B1
:1073800014010020BE050020B0B54E4D4E49AC6939
:10739000FFF75FFA18B94D49FFF79CFA08B94C4856
:1073A000A861D5F894404B49FFF753FA18B94A49F8
:1073B000FFF790FA10B94948C5F894006C6E42493D
:1073C000FFF747FA18B94149FFF784FA08B944486A
:1073D0006866AC6E3C49FFF73CFA18B93B49FFF7C9
:1073E00079FA08B93F48A866EC6E3749FFF731FAD9
:1073F00018B93649FFF76EFA08B93548E866EC6FF8
:107400003449FFF726FA18B93349FFF763FA08B988
:107410003548E867D5F880402E49FFF71AFA18B9C1
:107420002D49FFF757FA10B93048C5F88000D5F854
:1074300084402849FFF70DFA18B92749FFF74AFA9F
:1074400010B92648C5F8840095F8B0031F490228F2
:1074500024BF002085F8B00395F8B603022824BFA6
:10746000002085F8B60395F8B903022824BF01204F
:1074700085F8B90395F8BF03022824BF002085F8DA
:10748000BF03AC6AFFF7E5F918B91949FFF722FA0B
:1074900008B90020A86295F8BC03022824BF002088
:1074A00085F8BC0395F8C203022824BF002085F8A4
:1074B000C20395F8B303022824BF002085F8B30364
:1074C000B0BD00BFAC0600200000FA430000C84277
:1074D0000000BE43000048430000A0400000A0425E
:1074E0000000A0430000AF4300004842000070428B
:1074F0000000C8C21FB5124C2021204601F01EF921
:1075000080B1002010210FA24FF47843CDE9000193
:107510000290B0209821FEF727FA04F5A050002130
:1075200002F001FC2046202101F008F90028F9D1E1
:1075300004F5A050012104B0BDE8104002F0F3BBF7
:10754000001C014075706461746120666C61736831
:107550002E2E2E2E000000001748016841F0010178
:107560000160704701490860704700BF1030024059
:10757000114900F003000A6822F0180242EAC00034
:107580000860704701490860704700BF143002402E
:10759000094900F003000A6822F0600242EA401044
:1075A00008607047044900F001000A6822F0800278
:1075B00042EAC0100860704708300240B5490A68C6
:1075C00060F38F3280080A600A6860F31C720A60F8
:1075D000704700BFAF4900F00F000A6822F0F002C8
:1075E00042EA001008607047AA4900F007000A68E4
:1075F00022F4E06242EA002008607047A54900F0EA
:1076000007000A6822F4605242EAC020086070470E
:10761000044901280A6822F0300208BF30320A60AB
:10762000704700BF54100240042809D8DFE800F07A
:10763000031E0F1809008B48026861F30002026004
:1076400070478848426A61F300024262704701F065
:10765000010084490A6822F0807242EA00600DE06D
:107660008048026A61F300020262704701F0010083
:107670007C490A6822F4803242EA00400860704780
:1076800032490A68C2F38103314AF0B5DFE803F0FA
:1076900002380A380B6D9B0532D5CB6A9B0148BF77
:1076A0002D4A2DE00B688C6A1B0C002C13D40C683F
:1076B0000D68C5F34175C4F383440DB90F2C43D154
:1076C0002D0101352C44DB0702D00B689B0300D54C
:1076D000204A624314E08C6A8D6A8E6ADB071D4B78
:1076E000C4F30314C5F3082506F0070603D00F689A
:1076F000BF0358BF134604FA06F26B43B3FBF2F222
:10770000026016A40B68C3F30313E35C174CDA4062
:1077100042600B68C3F30223E35C22FA03F3C36005
:107720000B68C3F3C223E35C0424DA4082600B6875
:10773000096804EA9363C1F3813119440CA3595CCD
:10774000B2FBF1F10161F0BD0225BBE7041002407C
:1077500000127A0000093D00006CDC02000000000D
:1077600000000000010203040607080940D90108CF
:1077700002040608020C08103A4A010C00F01F002F
:10778000895821FA00F000F00100704735480021C7
:107790000268920304D44A1CB1F5405F1146F7D346
:1077A0000068C0F34040704700F01F020123000C46
:1077B00093402C4A0129815814BF994319438150A1
:1077C000704700BFB0B5334C256858B145F48035DB
:1077D00001282560256814BF45F4003025F40030E9
:1077E000206006E025F480302060E06A40F0007000
:1077F000E062A06A6FF35F216FF3102040EA01207E
:10780000A06202F00F00A16A21F0F00141EA00102D
:10781000A062A06A63F30200A062A06A40F0004088
:10782000A062B0BD0F48016841F00101016001682C
:107830008907FCD5416821F003014160416811F0DE
:107840000C0FFBD10168084A114001600021416022
:1078500041F61071C1624FF4801101634FF41F01B2
:107860008160704700100240FFFFF2FE09490A687C
:1078700060F301020A607046FEF7E0FF864670463C
:10788000FEF7DCFF8646704702480068C0F38100BF
:10789000704700BF04100240F8B505460C460020B2
:1078A0004FF6FF76C7B2A74209D2781900F0C0FDA3
:1078B000ADF80200B81CBDF80210B142F2D1BDF81B
:1078C0000200F8BD026861F300020260704780B5F3
:1078D0001221FCF770FC80BD3C49B0F1805F92BF83
:1078E000086020F07040C1F8000470470549B0F10D
:1078F000805F88BF01F580610968084018BF0120DA
:10790000704700BF0000024002684BF6EF731A4058
:1079100002600A8903681A4302604A7C036802F025
:10792000030223F4405343EA02320260CA7B036835
:1079300002F0030223F4406343EA822202608A7B5E
:10794000036802F0030223F4407343EA0222026058
:107950004A7B036802F0010223F0800343EAC2126B
:1079600002600A7B036862F3861303600A7C036883
:1079700062F3451303604A8942600A68826049687D
:10798000C1607047016821F00101016000210160C0
:1079900041608160C16040F2FF4100EA01020B4991
:1079A000B2F5816F04D3D208902A0ED801F5806118
:1079B00000F0FC0014220838B0FBF2F00F22800027
:1079C00002FA00F00A6810430860704704000240A1
:1079D0002DE9F041DFF8C0773878142800F23F83B2
:1079E000DFE810F01500E400A0008D019801A90067
:1079F0001F013801D201A9016B00C10077004B00C3
:107A00005D0181010302F7011B003D039400DFF8D3
:107A1000500C052180F8C8131FE3DFF8440CCC4953
:107A2000CC4DCD4ECD4C00230122C0F89410CC4952
:107A3000C0E91F65CB4DC0F88440CB4C80F8CA2309
:107A400080F8A433836280F8C43380F8C23380F8AE
:107A5000BE23A0F8B533A0F8B23380F8B033C364C6
:107A60008161C0E9191540F20111C466A0F8BB1389
:107A70004FF48071A0F8B81365E2DFF8E46B96F874
:107A8000B603012800F0BD81002840F0E682B46909
:107A9000B649F56A2046FCF7F1FBB549FCF720FC36
:107AA000FEF72DFFB34970632846FCF78FFBA94909
:107AB000FFF765F8FEF756FF10E1DFF8A40B90F82A
:107AC000B813002900F0A881012940F0C6820021E6
:107AD000A3E1DFF88C8B98F8B603012800F0A281AF
:107AE000002840F0BA82D8F81850A049FEF76AFF83
:107AF0009F49FCF7F5FBFEF702FF9F49FEF74BFF9E
:107B0000FEF719FF9D490646204649E0DFF8500B75
:107B100090F8C613002900F09281012940F09D825F
:107B200000218DE1DFF8380B90F8C8138A1C182962
:107B300088BF0522EBE0DFF8285BFEF785FFDFF862
:107B40007406FFF778F800F07E81002840F0378255
:107B5000AC698B492046FCF797FD002800F01582A0
:107B6000FEF73BFF14E2DFF8F88A98F8B603012825
:107B700000F07481002840F07082D8F818507B49DA
:107B8000FEF720FF7A49FCF7ABFBFEF7B8FE714920
:107B9000FEF701FFFEF7C3FE064620464FF07E517A
:107BA000FCF714FB002E08BF284675E1DFF8B00A89
:107BB00090F8C823511F2A2900F25382DFE811F000
:107BC0002B004D0284024D0298024D028A024D02A2
:107BD0006C024D02B5024D0266024D0282024D0258
:107BE00073024D02CB024D024D024D02C3024D0203
:107BF000AC024D0278024D02CE029202BB024D024F
:107C00005E024D02D7024D0280024D024D024D022E
:107C10004D024D025C021B2180F8C81390F8B3138B
:107C200099E1DFF83C5AFEF70FFFDFF88805FFF710
:107C300002F800F03481002840F0E581AC69454944
:107C40002046FCF73DFD002800F0C3814B49FEF7BC
:107C5000ACFFC1E1DFF8085AFEF7F6FEDFF8540585
:107C6000FEF7E9FF00F02781002840F03D81A86978
:107C70004049FCF7ABFA42490446FCF705FD10B950
:107C80003F4C0020E86139492046AC61FCF7F6FA28
:107C90003749FCF725FBFEF732FE286224E1DFF8C6
:107CA000C06996F8B603012800F02981002840F049
:107CB000D481B4692D49F56A2046FCF7DFFA2C49D6
:107CC000FCF70EFBFEF71BFE2E4970632846FCF7FF
:107CD0007DFA2949FEF753FFFEF73AFE002818BF48
:107CE0002546F562B9E1DFF8780990F8BB13002961
:107CF00000F02081012940F0B08100211BE1DFF874
:107D0000600990F8C8138A1E062938BF192280F826
:107D1000C823A2E1DFF8480990F8B013012900F068
:107D20000F81002940F00F8190F8AC13012900F277
:107D30000A81022105E1DFF8280990F8B51300292E
:107D400000F00681012940F08881002101E100BF97
:107D5000000020420000C8420000A0420000F042A3
:107D60000000BE430000C8430000D24300001041A1
:107D70000000A040000020410000C8C2000080BFF9
:107D80000000FA43000020C1DFF8D458FEF75CFE83
:107D9000DFF82004FEF74FFF00F0E080002840F0FD
:107DA0004881A869D549FCF711FAD5490446FCF782
:107DB00087FC10B9D24C0020E861D2492046AC6162
:107DC000FCF75CFAD049FCF78BFAFEF798FD2862C5
:107DD0002FE1DFF88C0890F8C413012900F0C98066
:107DE000002940F03A810121C4E0DFF8740890F8DE
:107DF000BE13012900F0C380002940F02E8101212B
:107E0000BEE0706BC149346AFCF7E0F9C049FEF787
:107E1000B6FEFEF7A7FD7CE0012180F8B61380F8DE
:107E2000B8131AE1D8F82000BA49D8F83440FCF762
:107E3000CDF9FEF780FDD649064620461BE001211C
:107E400080F8C61309E12C6AD2492046FCF71CFCD5
:107E5000002800F0A880FEF7C0FDA7E0D8F82000B9
:107E6000D249D8F83440FCF7B1F9FEF758FD064680
:107E700020464FF07E51FCF7A9F94FF04241002E09
:107E800008BF2846C8F83400FCF7A0F9C549FCF73C
:107E9000F5F9C549FCF724FAC8F82C00DDE02C6A96
:107EA000C2492046FCF70CFC002800F0A080C04925
:107EB000FEF77BFE9EE0286AC249FCF787F9C249BB
:107EC0000446FCF7E1FB10B9BF4C00206862204675
:107ED0004FF042412C62FCF779F9B249FCF7CEF938
:107EE000B149FCF7FDF9A86195F8A413032900F244
:107EF000B180FEF778FEDFE801F0B0ABA6A9706BA9
:107F0000A649346AFCF762F9A549FEF738FEFEF788
:107F10001FFD002818BF254628464FF042417563D3
:107F2000FCF754F99F49FCF7A9F99F49FCF7D8F9E8
:107F3000F06292E0012180F8B91380F8BB138CE065
:107F4000042180F8C8134FF47A71A0F8A61384E0D6
:107F5000012180F8B31380F8B5137EE02C6A9649AE
:107F60002046FCF7ADFB002857D09449FEF71DFED4
:107F700056E0002180F8C21380F8C4136DE00021A0
:107F800080F8BC1380F8BE1367E00020E8618F48DA
:107F90008549A861FCF772F98249FCF7A1F9FEF75F
:107FA000AEFC28620BE0002068628748FEF7CAFD3D
:107FB0007C49FCF763F97C49FCF792F9A86195F8D4
:107FC000A413032946D8FEF70EFEDFE801F0464170
:107FD0003C3F0020E861D6487349A861FCF74EF9A0
:107FE0007049FCF77DF9FEF78AFC28620BE000205F
:107FF00068626E48FEF7A6FD6A49FCF73FF96A49D8
:10800000FCF76EF9A86195F8A413032922D8FEF7AE
:10801000EAFDDFE801F0221D181B002068626348BA
:10802000FEF790FD5F49FCF729F95F49FCF758F925
:10803000A86195F8A41303290CD8FEF7D4FDDFE856
:1080400001F00C07020505F18C0001E005F190003C
:108050005B490160002085F8A40313203870BDE857
:10806000F081602AF9D190F8C513022900F08E80C2
:108070000129F2D1022113E01721CBE490F8BE13BD
:10808000012998BF80F8BC130F21C3E4272180F891
:10809000C81390F8C2136FE7232180F8C81300219A
:1080A00080F8C513D9E7002180F8C6132B21B1E46D
:1080B00090F8BB13012998BF80F8B9130921A9E4EE
:1080C0001321A7E42921A5E41D2180F8C81390F805
:1080D000B613A4E690F8BF13002951D0012952D15C
:1080E00022224EE090F8C11301293DD1012139E04F
:1080F0001F2180F8C81390F8B9131EE7000020C1B3
:108100000000C842000010410000A04000002041D3
:1081100000005443000054C390F8B813012998BFDD
:1081200080F8B6130721FFF775BC252180F8C81326
:1081300090F8BC1326E790F8C51300297FF48DAFA3
:108140000D21FFF767BC90F8B513012998BF80F89F
:10815000B313FFF75EBC2F21FFF75CBC90F8C1138F
:1081600011B9002180F8BF130B21FFF753BC90F821
:10817000C413012998BF80F8C2131121FFF74ABC2C
:10818000212280F8C82380F8C11366E7012187E720
:10819000000080BF000069440D010020000020C1E4
:1081A000000054C30000A0400000104100005443F0
:1081B000000080BF1401002000007D43000024C2A5
:1081C00000007F4300004842000069440000FA4379
:1081D000B0B50E4C2046FCF7C7FD01462046FCF723
:1081E00015FD0B4D287001F0C5FEFFF7F1FB094CA2
:1081F0002046FCF7B9FD01462046FCF707FD6870F4
:10820000FEF7EAFFBDE8B040FFF700B82C01002000
:1082100080010020D400002070B5434D044628782A
:1082200048B14FF080400221FF2202F015F894F887
:10823000AE0328B170BD94F8AE0320B1012000E078
:108240000020287070BD94F8AA03012813D0D0B97B
:1082500024683E492046FCF717FA6E7888BB3549FA
:108260002046FCF71FFA60BB002EE3D14FF08040A0
:108270000221322221E094F8AC0340B1012802D15E
:1082800094F8C20330B394F8C2030128D2D16878BD
:1082900008B901206870D4F89400FCF7ADFA284AB8
:1082A000284BFCF702F9284B0022FCF757F8FCF7A3
:1082B0008AFA02464FF080400221BDE8704001F08A
:1082C000CBBF002EB6D1012068704FF08040022154
:1082D0000022F2E768781549012804BF0020687081
:1082E0002568FEF75AFCB0B11249FEF756FC00288B
:1082F000EBD10E492846FCF7D5F90028E5D12846F0
:10830000FCF77AFA0C4A0D4BFCF7CFF8FCF787FA2A
:10831000C4F8A800C1E7064802218F22C4F8A800CB
:108320004FF08040C9E700BF9001002000007A4371
:108330000000C84200008C429A9999999999D93FB6
:1083400014AE47E17A14F23F00003E400000704254
:108350000348017809B90121017002F049BA00BF50
:10836000BF05002058B100220023282B02D0C250A4
:108370000433FAE780F82C100021816200E001212B
:108380000846704710B5224CFEF7FDFB0180FEF752
:1083900041FBFEF7C0BB00BF1D48016841F08001F2
:1083A0000160704708480168C9071CBF002070477A
:1083B0000168490744BF012070470068C0064FF0BC
:1083C000020058BF032070470C20024070B50446DD
:1083D000FFF7E8FF0025661E45F10001020604D103
:1083E00019B1FFF7DFFF3446F5E7002C08BF042082
:1083F000C0B270BD10B5064C216841F00201216089
:108400006060FEF75FFA216821F00201216010BD73
:1084100010200240FCF774BD024803490160034983
:10842000016070470420024023016745AB89EFCD0E
:1084300081B00168D0F801008DF800108DF80100BE
:108440009DF801009DF8001041EA0020ADF80200FF
:10845000BDF8020001B0704710B50B4C0146012277
:1084600007232046FEF750FE20460121FEF79EFE20
:1084700020460221FEF743FE0028F9D02046BDE841
:108480001040FEF76CBE00BF0024014070B5224CC6
:10849000464D2046A847FCF738F9714EB061A01C44
:1084A000A847FCF732F9C6F89400201DA847FCF74E
:1084B0002CF97066A01DA847FCF727F9F06704F1B6
:1084C0000800A847FCF721F9B06604F10A00A847A4
:1084D000FCF71BF9FEF77AFBFCF717F9F06604F1DD
:1084E0000E00A847FCF711F9FEF752FBFEF739FB27
:1084F000FEF716FBFEF7F3FAFEF705FAFCF705F9AF
:10850000B06204F11A00A847FEF78DFBFEF777FB77
:1085100086F8B30370BD00BF00F4010870B5224CAB
:10852000224D2046A847FCF7F0F84D4EB061A01C44
:10853000A847FCF7EAF8C6F89400201DA847FCF706
:10854000E4F87066A01DA847FCF7DFF8F06704F1B7
:108550000800A847FCF7D9F8B06604F10A00A8475C
:10856000FCF7D3F8FEF732FBFCF7CFF8F06604F126
:108570000E00A847FCF7C9F8FEF70AFBFEF7F1FA70
:10858000FEF7CEFAFEF7ABFAFEF7BDF9FCF7BDF841
:10859000B06204F11A00A847FEF745FBFEF72FFB77
:1085A00086F8B30370BD00BF00F8010831840008ED
:1085B00080B51748402100F0C1F8FEF74DB900BF63
:1085C00080B51348802100F0B9F8FEF745B900BF27
:1085D00080B50F484FF4807100F0B0F8FEF73CB959
:1085E00080B50B48022100F0A9F8FEF735B900BFAD
:1085F00080B50748042100F0A1F8FEF72DB900BFAF
:1086000080B50348082100F099F8FEF725B900BFAE
:108610000010014070B51249144B164C114A124813
:1086200000250126CB67C1F88040114B124CC1F8E0
:108630009420886181F8BF5381F8B96381F8B653FB
:1086400081F8B053C1F88420C86681F8C25381F81C
:10865000BC538D6281F8B353C1E9193470BD00BFBA
:10866000AC0600200000A0420000BE4300004842CB
:108670000000A043000070420000AF43416170471A
:1086800001617047024A4FF6FF71C0E9001270475E
:1086900000040001F0B58B790A88032B0AD05BB97E
:1086A0004979282913D0182912BF01F00F0102615E
:1086B00008210EE000210CE00C79C97903F00803D1
:1086C00004F0040401F003012344194401E0426171
:1086D0000821130616D000230F240025082D11D0E1
:1086E00022FA05F6F6070AD0076804FA03F627EA25
:1086F0000606066001FA03F607683E430660043387
:108700000135EBE7B2F5807F17D3120A00230F245F
:108710000025082D11D022FA05F6F6070AD0476881
:1087200004FA03F627EA0606466001FA03F64768EC
:108730003E43466004330135EBE7F0BD80680840F6
:10874000401AB0FA80F040097047000070B5C0F3DD
:1087500007424FF0FF3352FA90F503FA02F4C5F1E5
:108760002005EB40064D2340040EC0B266599040F0
:10877000002926EA030318BF0343635170BD00BFFD
:1087800000000140B0B504460078032841D80D46EA
:10879000DFE800F00227101AE068002565608047D6
:1087A000012807BF012020701C4803211CBF017055
:1087B00025702EE00A2100200122A16016492070B8
:1087C0000A701649087024E0E0688047012819BF44
:1087D000002020700320207002BF10480221017089
:1087E00017E0E0688047012802D1606801306060CE
:1087F000E068804708B902202070A0680138A060B6
:1088000007D10A20A0606068A842B4BF02200320FC
:10881000207002480078B0BDBD0500200E01002088
:108820002DE9F84FDFF89C552878012804BF002077
:108830002870FCF761FDDFF890852E7898F80070BD
:10884000022F08BF002E49D098F80140A01E18BF83
:1088500001203043C00754D098F802A0BAF10200BA
:1088600018BF01203043C00777D098F803B0BBF1A0
:10887000020018BF01203043C00740F0E780DFF856
:108880004C954FF47A700021A9F8A603DFF84C0547
:10889000417199F8B603012800F0A680002840F045
:1088A000BD80D9F81800DB49FBF790FCDA49834614
:1088B000FBF7EAFE0028584603D10020C9F81C0047
:1088C000D548D649C9F81800FBF7D8FCD449FBF7BE
:1088D00007FDFEF702F8C9F820009FE0DFF8EC443E
:1088E00094F8B60301281FD1206A4FF04241206757
:1088F000FBF76CFCCA49FBF7C1FCC849FBF7F0FC6D
:1089000013E0DFF8C84494F8B603012838D1206A90
:108910004FF042416067FBF759FCC149FBF7AEFCE1
:10892000BE49FBF7DDFC2CE0A069BE496066012072
:1089300084F8A40384F8A8032870C4F89810C4E944
:108940002211C4F890106162E161DFF8901448715F
:10895000D4F89400E067BDE8F88FDFF8704494F82D
:10896000B603012827D1206A4FF04241A067FBF7E8
:108970002DFCAB49FBF782FCA849FBF7B1FC1BE0DF
:10898000A069A0660220012184F8A403A54884F808
:10899000A8132970C4F89800C4E92200C4F8900014
:1089A0006062E061DFF834044171D4F89400C4F8E7
:1089B0008000BDE8F88FA069DFF820240121E0667F
:1089C000032084F8A403974884F8A81329705171F0
:1089D000D4F89410C4F898006062E061C4E9230000
:1089E000C4E92110BDE8F88FD9F820008E49FBF7C3
:1089F000EDFB8E498346FBF747FE0028584603D11E
:108A00000020C9F824008948FEF70BF88449FBF7D9
:108A100035FC8249FBF764FCC9F8180099F8A413E7
:108A200003290ED809F188004FF0020BDFE801F0AE
:108A30000E07020509F18C0001E009F19000794967
:108A4000016000204FF0020B89F8A40398F804900D
:108A5000B9F1020018BF01203043C00760D1DFF830
:108A60006C334FF47A700021A3F8A603DFF86C038F
:108A7000417193F8B60301281BD0C8BB9869CF4950
:108A8000FBF7A4FBCE498146FBF71AFECF4900282D
:108A9000484602D10020C861C9488861CD49FBF72A
:108AA000EDFBCB49FBF71CFCFDF717FFC74B18622A
:108AB0001EE0D3F82090CC494846FBF701FE30B1C8
:108AC000CB494846FBF782FBDFF8009305E0DFF86F
:108AD000FC920020C9F82400C448FDF7A2FFBC495D
:108AE000FBF7CCFBBB49FBF7FBFB4B46C9F8180077
:108AF00093F8A41303290ED803F188004FF002095C
:108B0000DFE801F00E07020503F18C0001E003F13C
:108B10009000B149016000204FF0020983F8A403DE
:108B2000002F18BF012747EA0600C00731D0002CEC
:108B300018BF012444EA0600C0073BD0BAF1000F79
:108B400018BF4FF0010A4AEA0600C00745D0BBF142
:108B5000000F18BF4FF0010B4BEA0600C00740F0B2
:108B60009E809A4F4FF47A700021A7F8A6039B4885
:108B7000417197F8B60301285AD000287BD1BC690F
:108B800098492046FBF780FD00285AD0FDF7ACFF3E
:108B90005AE08E494FF47A7200238F48A1F8A62339
:108BA0000122486281F8A4232A708C4A53714A6ECC
:108BB000CB6F24E085494FF47A7287480023A1F8EF
:108BC000A6230222486281F8A42301222A70834A44
:108BD00053718A6ED1F8803011E07C494FF47A727B
:108BE0007D480023A1F8A6230322486281F8A4232C
:108BF00001222A70794A5371CA6ED1F88430C1E9D2
:108C00000620C1E92200C1E92403C1F89800BDE8AB
:108C1000F88F00BF000020410000FA43000010411F
:108C20000000A04000007F4300004842000069446B
:108C30003C6A6B492046FBF727FD80B1FDF754FFE6
:108C400010E00020F86167486249B861FBF716FB45
:108C50005F49FBF745FBFDF740FE38620BE0002063
:108C600078625F48FDF761FF5949FBF707FB5949F7
:108C7000FBF736FBB86197F8A41303290CD807F16A
:108C80008800DFE801F00C07020507F18C0001E025
:108C900007F1900050490160002087F8A403B9F162
:108CA000000F18BF4FF0010949EA0600C00750D174
:108CB000464F4FF47A700021A7F8A6034748417148
:108CC00097F8B60301280BD078BBBC694949204608
:108CD000FBF7F6FC78B148492046FBF777FA0DE040
:108CE0003C6A42492046FBF7EBFC90B142492046E2
:108CF000FBF76CFA10E00020F8613E483549B86196
:108D0000FBF7BCFA3249FBF7EBFAFDF7E6FD3862F8
:108D10000BE0002078623548FDF707FF2C49FBF790
:108D2000ADFA2C49FBF7DCFAB86197F8A4130329D4
:108D30000CD807F18800DFE801F00C07020507F105
:108D40008C0001E007F1900023490160002087F8C2
:108D5000A40398F80500002818BF01203043C0077D
:108D60002AD11A4890F8A4130131CAB2032A88BF45
:108D7000012180F8A4130139C9B202290AD81FA21F
:108D800052F82120126882611FA252F8211009684E
:108D9000C0F8941010494FF47A72A0F8A623C0F8D6
:108DA0009810C0E92211C0F890104162C161012001
:108DB0000021287009484171BDE8F88F000020C1EA
:108DC0000000C8422006002008000020AC06002059
:108DD0000000A0400000104100007F43140100206B
:108DE000000069440000FA4300007D430000544342
:108DF000000024C20000C842000080BF100700200D
:108E00001407002018070020280700202C07002046
:108E100030070020864890F8CB03012808BFFFF7F1
:108E2000FFBC7047824890F8CB03012808BFFCF7CD
:108E30009BBF7047FEB5044600267D4835498DF836
:108E40000B60ADF808608DF80760D0F894502846A4
:108E5000FBF70CFC98B9A0088DF807604A2830D8B9
:108E600064200021ADF808002B48FDF742FE1329CD
:108E700048D8FDF736FD45D2FDF7F2FCF5E7254968
:108E80002846FBF71DFC002600283ED1284600217D
:108E90000027FBF7EBFBC0BBA0088DF807704A2842
:108EA0001FD864200021ADF808001B482930FDF7C9
:108EB00020FE13292BD8FDF714FD23D2FDF7D0FC9B
:108EC000F5E74FF496701421ADF808001248FDF74D
:108ED00010FE272916D8FDF704FD13D2FDF7C0FCBC
:108EE000F5E74FF496701421ADF808000A482930D0
:108EF000FDF7FFFD272905D8FDF7F3FC02D2FDF7AA
:108F0000AFFCF5E79DF80B10465C70B2FEBD002685
:108F1000FBE700BF0000A0417000002082B04FF0CE
:108F200000604FF4804100F0FFF801F035FE01F0E1
:108F3000BDFD01F0DBFC01F085FD01F085FE01F0D7
:108F400009FD01F0E7FC2C4C002100220023204603
:108F500001F0FCFC204601210125FEF7B3FC01F0E5
:108F600037FF01F0DDFD01F061FC01F087FE01F04B
:108F7000D7FE01F0A3FC01F067FF20482149224BF6
:108F80004FF0814200901E48FDF761FE01F0DEFACD
:108F90001E4C1F486421A2689047A2681D48012109
:108FA0009047A2681C4805219047A2681B483221BF
:108FB0009047A2681A48C8219047A268194814210E
:108FC0009047A26818481E21904718480A21FFF7C9
:108FD000C9F9C748FBF740FFFCF7BEFAFDF710FCE4
:108FE000FDF70EFCFEF786FA4FF47A7001F084FC70
:108FF00060688047FCE700BF0800024000B80847EF
:10900000C40500200000484400409C46AC0A0020F3
:1090100051830008258E0008E1920008158400089D
:1090200065AE000845730008158E0008F0050020A5
:10903000AC06002070B50446408D092819D894F874
:109040002C00FFF709FAFBF760FB0546608D461C14
:1090500044F82050208D6685FBF757FB01462846D3
:10906000FBF7B4F8FBF763FBB1B22085B0FBF1F07E
:1090700070BD208D0A25B0FBF5F1401A208594F8CB
:109080002C00FFF7E9F9218D0844208580B2B0FB60
:10909000F5F070BD024601200B0608BF7047504333
:1090A0000139F9E7F0B51E4B4FF0FF361C68C4F3E9
:1090B0000224E51E84F0070438BF002506FA05F7F0
:1090C000BA43042C28BF042406FA04F4A143A9409F
:1090D00000F00F051143043D0A010A492B444418CE
:1090E000002804F5407448BF03F10C04227008D432
:1090F00000F01F020123C0F3421003FA02F241F80C
:109100002020F0BD00E100E005494FF6FF030A68AA
:109110001A4060F30A22034810430860704700BFFA
:109120000CED00E00000FA05024A11400843024934
:109130000860704780FFFF1F08ED00E02DE9F8434D
:1091400061484FF40051FFF7F9FA0446B0FA80F095
:10915000DFF8AC8A400988F8AC0398F8AA03022823
:1091600037D0012818D0002846D198F8C20301282A
:1091700003D070B9002C00F09D804FF47A70A8F8ED
:10918000A603012088F8AA030020C8F82400C8F824
:109190001C00FDF7EBFC2FE098F8C20324BB18BBC2
:1091A000D8F800004949FBF78BFA28BBB8F8B000A3
:1091B0000130A8F8B00080B233281DD3002001216F
:1091C00088F8CC03A8F8B00088F8AA034048417199
:1091D00012E0D8F858000021FBF780FA38B95CB1EA
:1091E0000020C8F8580004E0012802D004E0002C58
:1091F0005ED0012088F8AA03DFF8D89099F8000023
:1092000048B198F8C203204300064FD1FDF7AEFCE9
:1092100088F8AE0348E01CB998F8C203012839D198
:10922000D8F800602C4C30462146FBF73BFA074645
:1092300030462146FBF728FA244905463046FBF71D
:109240003FFA0446002818BF0124002D18BF01254D
:1092500057B91E493046FBF709FA28B9D8F8A400D7
:109260001E49FBF71FFAA8B9B8F85C000130A8F84E
:109270005C0080B2652819D385B1B0F5C87F15D9D7
:10928000D8F8A4001549FBF70DFAB8B9FDF76EFC44
:10929000032006E0FDF76AFCBDE8F883FDF766FCF5
:1092A000022088F8AE03012089F80000BDE8F883A9
:1092B00000209FE7002088F8AA036AE7002CF5D178
:1092C000FDF754FC0120A3E70010014000008C4290
:1092D00014010020C0050020000016440000C84210
:1092E000BA4890F8CB03012808BFFFF727BF7047A3
:1092F000AC060020BCB5B54890F8CA13A1B14649E8
:109300000A68531E0B6090F8B033002A0EDC00226E
:1093100080F8CA234FF49672002B0A6076D0012B96
:1093200004D10221012373E090F8B0333B49CA789D
:109330006AB9012B06D043B990F8AC23012A04D8AE
:10934000022200E0042280F8C8230122CA7090F8AB
:10935000C82353B9042A01D0022A06D190F8AC33AD
:10936000012B9CBF022280F8C82390F8AA3390F802
:10937000AB439C4217D0022A15D12CB9012B03D143
:10938000FF2480F8C9430AE0012C08BF002B06D156
:109390000024C0F8AC40C0E92644C0F8A040002436
:1093A00080F8AB330C7190F8C93393422DD01D4C2B
:1093B0001B4BFF2580F8C92300924FF4F07280F810
:1093C000B75380F8BD5380F8B1530D7080F8A553A2
:1093D000C0E9044484630463D0F894400365836067
:1093E000C3614364C0E92633C0E93033C0E9323396
:1093F000C0E93433C0E92233C0F8903000204FF484
:1094000091730C611E21FDF79BFDBCBD042100235F
:1094100080F8C8138AE700BF10010020A0010020D7
:1094200000007F4300007A442DE9F843DFF888818B
:109430000446624F98F802003D46012806D1604874
:10944000604D80682946FBF73BF908B95C488560A8
:10945000A6695D49FDF76EFB0546AE4890F8B3037B
:10946000012818BF3546D8F80C002946C8F808501E
:10947000FBF734F988B9524E4FF07C51F069FAF796
:10948000FDFEF0612846FBF752F9FFF7D3FCC8F860
:109490000C50FBF731F9C4F8BC004D48FFF7CAFD8A
:1094A0008008FBF732F9A16A2060FAF7E1FE054671
:1094B00094F8AC0318B194F8C213012919D1D8F863
:1094C00008604449B946FDF735FB0746284639464A
:1094D000FBF7F6F830B94049FDF72CFB0146FDF7E4
:1094E0005CFBE0B128463946FBF7C0F860B90020C4
:1094F0002BE0012808BF002928D1FDF798FA206445
:109500002F48FDF79DFB21E03349FDF713FB014692
:109510002846FBF7C7F8C8B9C4F8409016E02F49B1
:10952000FDF708FB01462846FBF7CAF830B92C497D
:10953000FDF700FB0146FDF730FBD8B1FDF777FAE8
:109540001F4831462A46FDF78FFB2064206C00211E
:109550000025FBF7B5F800B9256494F8AE0338B1DF
:10956000FDF765FA20641648BDE8F843FDF768BBCF
:10957000BDE8F883B8F804000130A8F8040080B210
:109580000F28DDD30020DFF838901649A8F8040032
:10959000012088F80200D9F80800FAF717FE0949F7
:1095A0000746FBF763F800281CBF44F20007C4F22B
:1095B0009C57C9F80870C3E79001002000B808471D
:1095C000C405002000409C4500004842AC06002035
:1095D000F005002000004843000048C30000A04000
:1095E0000000A0C000409CC542880388934204BF8D
:1095F0000220704783689A5C0A7042888188013231
:10960000B2FBF1F303FB1121418000207047B0B59C
:1096100002888388541CB4FBF3F505FB134344888C
:10962000A34204BF0120B0BD836899540288818899
:109630000132B2FBF1F303FB112101800020B0BD28
:109640001CB504466846FFF71DF80020102C07D112
:109650008DF80400022004218DF80700102000E09E
:1096600018218DF805104FF6FF718DF8060003489C
:1096700000916946FFF70EF81CBD00BF000C0140C9
:10968000F0B585B0874E96F8C873232F05D0602FAC
:1096900003D0B069316AF0627163D6E90B50746B24
:1096A000FDF753F918B1B06BFDF7C2FA78BB602F24
:1096B000B463356302D0232F06D028E096F8C503A3
:1096C000022809D0012822D196F8B6034FF6FF767A
:1096D00060B101280BD01AE096F8B60320B101283A
:1096E00015D14FF4FC6602E04FF4FC662C46FDF702
:1096F00066F9024643F2661300202021CDE90210EC
:10970000CDE900634FF487709621FDF77DFA05B02F
:10971000F0BD00BFAC060020F0B587B0044690F85D
:10972000C80302281BD004283AD1614D687850B98B
:10973000002029214FF4BC72FA2300901220FBF77D
:10974000EDFE0120687094F8AA0328B1D4F8A400B3
:109750005D49FAF799FF38B300262E6125E0F84FEE
:10976000D7E900563869FDF7F0F828B17869314635
:10977000FAF7B4FF00285ED194F8B603C7E904569F
:10978000D0B301284BD197F8B3136068012902D1F7
:109790004849FAF71BFDFBF72FF8434A434B37E0E4
:1097A000E848002141707BE02E69E54F44493D685F
:1097B000FDF72DF997F8B31304F23E2204F1D80314
:1097C000012918BF2846CDE90232CDE900064FF441
:1097D000BC7212202821FA23FCF7E4F894F8B603AF
:1097E00048F20F414FF4BC72FA23CDE90010122069
:1097F0002821FCF76FF953E097F8B313206801298B
:1098000002D12F49FAF7E2FCFAF7F6FF2A4A2B4B6E
:10981000FAF74BFEFAF7B8FFCA49887001E0C94869
:1098200080784FF6A0435E21FDF7E9F81A205A210F
:109830002722FDF7CCF8D7F89440D7F89C00D7F84A
:10984000A850FDF7F5F920B1D7F8A000FDF77DF895
:1098500030BB97F8AA0397F8AC1397F8C223C7E96F
:10986000274580F0010081F0010108431043000604
:1098700008BF2C46FDF7A3F8FAF74CFF114B002266
:10988000FAF713FEFAF780FF44F638435F21FDF73D
:10989000B6F840F2B9105A214FF4E372FDF797F889
:1098A00007B0F0BDAC060020D9CEF753E3A5BB3F0F
:1098B000A00100200000F4C29A9999999999C93F92
:1098C000000048C20000E03F0000F0417CB5CC4DF4
:1098D00095F8B61395F8B72395F8C8038A4234D0A3
:1098E00060280AD004280DD0232806D0022826D1CB
:1098F00001291CD019BB40201AE0012907D0F1B979
:109900003C2005E001290AD0C9B93E2008E03D20ED
:1099100000904FF4A07099211C221B230DE03F20E2
:1099200000904FF4DC7054211A22182305E04120E6
:109930000090C820AA2114221523FDF701FB95F8F9
:10994000B61395F8C80385F8B713A0F11B01CAB286
:10995000C90141EA5201C9B206296FD8012202FAAF
:1099600001F111F0670F69D01B2810D195F8B503EC
:1099700020B101280BD18924B12101E0B124892132
:109980004E20FCF7B5FF4F202146FCF7B1FF95F8BC
:10999000C8031D2812D195F8B803012803D0B0BB25
:1099A0008924B12101E0B12489214E20FCF7A0FFD8
:1099B0004F202146FCF79CFF95F8C8031F2810D1C3
:1099C00095F8BB0320B101280BD18924B12101E016
:1099D000B12489214E20FCF78BFF4F202146FCF754
:1099E00087FF95F8C803252813D195F8BE030128F1
:1099F00004D0002870D18924B12101E0B12489214B
:109A00004E20FCF775FF4F202146FCF771FF95F8BB
:109A1000C803272810D195F8C403012803D058B9EA
:109A20008924B12101E0B12489214E20FCF760FF97
:109A30004F202146FCF75CFF95F8C80323280CD083
:109A400029280AD02B2818BF602821D12B2802D121
:109A500095F8C61309B12D2804D14220FCF758FF10
:109A600095F8C803602805D02B2808D195F8C613AF
:109A7000012904D14420FCF74BFF95F8C8032B289B
:109A800013D195F8C603012805D028BB642003E054
:109A90002D28DBD0F3E762200090CD20BE214622A6
:109AA0002023FDF74DFA95F8C803292814D1202466
:109AB00043F26616EC20802107224FF6FF73CDE9B2
:109AC0000064FCF7DFF8EC20B22107224FF6FF73A9
:109AD000CDE90064FCF7F8F81A4995F8AA030A786A
