:020000040800F2
:10400000500E002085410008EB670008714D000844
:10401000E9670008474A00085187000800000000CF
:10402000000000000000000000000000B76C000865
:10403000494A000800000000B56C0008B96C00088F
:104040009F4100089F4100089F4100089F410008D0
:104050009F4100089F4100089F4100089F410008C0
:104060009F4100089F4100089F4100089F410008B0
:104070009F4100089F4100089F4100089F410008A0
:104080009F4100089F4100089F4100089F41000890
:104090009F4100089F4100089F4100089F41000880
:1040A000F98100089F4100089F4100089F410008D6
:1040B0009F4100089F4100089F4100089F41000860
:1040C0009F4100089F4100089F4100089F41000850
:1040D0009F410008298700089F4100089F41000870
:1040E0009F4100089F4100089F4100080000000018
:1040F00000000000000000000000000000000000C0
:10410000000000009F410008298200080000000014
:104110009F4100089F4100080000000000000000CF
:104120009F4100089F4100089F4100089F410008EF
:10413000000000000000000000000000000000007F
:104140000000000000000000000000009F41000887
:1041500000000000000000009F4100089F4100088F
:104160000000000000000000000000009F41000867
:10417000DFF80CD000F0A0F90048004705A00008C7
:10418000500E00200648804706480047FEE7FEE73D
:10419000FEE7FEE7FEE7FEE7FEE7FEE7FEE7FEE7F7
:1041A00085810008714100082DE9FE4F804681EAB3
:1041B0000300C00F0C46009021F0004123F00045A1
:1041C000B8EB0200A94105D24046214690461C4664
:1041D0000B46024623F00040104347D0270DC7F39B
:1041E0000A00C3F30A510290401A019040286BDA8A
:1041F000C3F3130040F4801B0098924620B10023C3
:10420000D2EB030A63EB0B0B01985946C0F1400255
:10421000504600F069F906460D4650465946019A47
:1042200000F081F910EB08006141002487EA115287
:1042300084EAE7731A4340D0009A62B3019A012AD4
:104240004FEA075215DC001B61EB02014FF0004200
:1042500002EA0752CDE90042001C41F580113246C6
:104260002B4600F081F903B0BDE8F08F40462146AF
:10427000F9E7001B61EB0201001C41F580130018F7
:104280005B412018A2F5001747EB030140EAD57007
:10429000B6196D4111E06D084FEA360645EAC07562
:1042A0004FEA0752001B61EB0201001C41F580112F
:1042B00049084FEA30000019514132462B4603B0FD
:1042C000BDE8F04F00F041B9009801224000002302
:1042D000D0EB020263EBE073009821464FEAE074F2
:1042E000B8EB000061EB0401E9E783F000435BE712
:1042F00081F0004158E72DE9FE4F81EA030404F004
:10430000004421F0004100944FF0000B23F00043E3
:1043100050EA01045ED052EA03045BD0C3F30A54AE
:10432000C1F30A552C44A4F2F3340194A0FB0254C7
:10433000C1F3130141F48011C3F3130343F4801359
:1043400001FB024400FB034E840A970A44EA8154AD
:1043500047EA8357A4FB076802958D0A05FB07858A
:104360004FEA932C04FB0C542705029D4FEA065894
:1043700047EA1637B5EB08056EEB070C870E920E71
:1043800047EA811742EA8312A7FB0201B6EB0B0151
:1043900064EB00042B0D43EA0C335E1844EB1C5015
:1043A000DA465146E7FB0201C5F313044FEA0B332B
:1043B00043EA14534FEA0432019C43EA0603A4F192
:1043C0000C040294009CCDE900B400F0CDF803B0D9
:1043D000BDE8F08F00200146F9E72DE9F04D81EAB4
:1043E000030404F0004B21F0004514464FF0000A8E
:1043F00023F0004150EA050220D054EA01021DD00A
:10440000C5F30A570246C5F31303C1F31300C1F302
:104410000A5640F4801543F48013A7EB0608101BDE
:10442000D64608F2FD3873EB050002D308F1010807
:1044300001E092185B41B8F1000F03DA0020014659
:10444000BDE8F08D00204FF48011064684460EE052
:10445000171B73EB050705D3121B63EB050306431C
:104460004CEA010C49084FEA300092185B4150EACF
:104470000107EDD152EA030012D082EA040083EA78
:104480000501084305D0101BAB4106D201220023D1
:1044900006E000224FF0004302E06FF001025310EB
:1044A0001AEB06004CEB085110EB0A0041EB0B0134
:1044B000BDE8F04D00F049B81CB509480090094826
:1044C00001900546009C06E0E06840F0010394E896
:1044D000070098471034AC42F6D3FFF74DFE0000BA
:1044E00054DD010874DD0108202A04DB203A00FABB
:1044F00002F1002070479140C2F1200320FA03F33B
:10450000194390407047202A04DB203A21FA02F038
:104510000021704721FA02F3D040C2F120029140FD
:10452000084319467047202A06DBCB17203A41FA88
:1045300002F043EAE07306E041FA02F3D040C2F130
:104540002002914008431946704710B5141E73F1BC
:10455000000408DA401C41F1000192185B411A4343
:1045600001D120F0010010BD2DE9F04D92469B468F
:1045700011B1B1FA81F202E0B0FA80F22032904635
:10458000FFF7B2FF04460F4640EA0A0041EA0B017A
:1045900053465A46084313D0114653EA010019D036
:1045A000C8F140025046FFF7AEFF05460E465046A2
:1045B00059464246FFF798FF084305D0012004E022
:1045C00020463946BDE8F08D0020054346EAE076F6
:1045D0002C4337430A986305E40AA0EB0800002245
:1045E000FD0A44EA47540A3002D500200146E9E7B3
:1045F000010510196941DDE9084500196941BDE867
:10460000F04DA2E70EB540F2334102910021CDE911
:1046100000110A460B46FFF7A7FF03B000BD70B5B7
:10462000C1F30A5201F000450024C1F3130140F226
:10463000FF3341F480119A4201DA002070BD40F24C
:1046400033439A42A2F2334203DC5242FFF75BFF4C
:1046500000E090402C43F1D0404270BDD2B201E066
:1046600000F8012B491EFBD270470022F6E710B577
:1046700013460A4604461946FFF7F0FF204610BDD0
:10468000F0B480EA0102D40F4200B2EB410F02D233
:104690000246084611464A0042D0C30DDDB2C1F3BE
:1046A000C752AD1A202D35DAC1F3160141F40002CC
:1046B00004B15242C5F1200602FA06F12A41104423
:1046C000B3EBD05F23D0C4B1012DA0EBC35009DC04
:1046D000F0BC4FF0004202EAC352DBB200F500002A
:1046E00000F083B9400000F1807000EBC350A0F1EE
:1046F000807040EAD170490009E0490841EAC07180
:10470000A0EBC35000F50000400800EBC350F0BC24
:1047100000F062B96142012202EB4101001BF6E7A1
:10472000F0BC704781F00041AAE780F00040A7E7A5
:1047300080EA010210B502F00043400022D04A0096
:104740001FD0010E01EB1261C0F35600C2F35602F6
:1047500040F4000042F40002A0FB022000047F3974
:10476000140400D0401C50EA124001D44000491EFD
:10477000C2B20C0604EBD010401C4008802A02D0C4
:1047800003E0002010BD20F00100002900DA002025
:10479000184310BD30B480EA010202F0004530F049
:1047A000004221F0004013D090B1C30DD40DC2F3EC
:1047B0001601C0F31600E41A41F4000140F40002AF
:1047C0007D34914201D3641C00E04900002C02DAE0
:1047D00030BC002070474FF400000023914201D309
:1047E000891A034340084FEA4101F7D151B1914280
:1047F00002D14FF0004105E002D24FF0010101E08B
:104800006FF0010103EBC450284430BC00F0E4B861
:10481000002801DBC0F10040002901DBC1F10041AB
:10482000814201D80120704700207047002801DB39
:10483000C0F10040002901DBC1F10041814201D2F9
:104840000120704700207047002801DBC0F10040C4
:10485000002901DBC1F10041814201D301207047F1
:1048600000207047002801DBC0F10040002901DB77
:10487000C1F10041814201D90120704700207047F9
:10488000002801DBC0F10040002901DBC1F100413B
:10489000814201D1012070470020704730B5041ECD
:1048A00071F1000404DB4FF00044404264EB01016D
:1048B000141E73F1000405DB1C464FF00043524206
:1048C00063EB0403801A994101D2012030BD00201E
:1048D00030BDC10F80EAE0700844CA07962300216A
:1048E00000F083B896230022114600F07EB800F055
:1048F000004220F00040C10DC0F3160040F400005B
:104900007F2901DA00207047962903DCC1F1960166
:10491000C84001E096398840002AF4D040427047F0
:1049200020F00040C10DC0F3160040F400007F29C4
:1049300001DA00207047962903DCC1F19601C840D6
:104940007047963988407047C1F30A5210B5C1F3D9
:10495000130140F2FF3341F480119A4201DA002042
:1049600010BD40F233439A42A2F2334203DC52427A
:10497000FFF7C9FD10BD904010BD00F0004230F0BF
:1049800000400AD0C10D01F56071C0F3160042EA83
:104990000151C2084007114370470020014670478B
:1049A00001F0004330B421F0004150EA010206D08A
:1049B0000A0DA2F56072C1F31301002A02DC30BCBB
:1049C00000207047440F44EAC104C100E01830BC25
:1049D00000EBC250AFF300800029A8BF7047401C15
:1049E000490008BF20F00100704710B4B0FA80FC05
:1049F00000FA0CF050EA010404BF10BC704749B142
:104A0000CCF1200421FA04F411FA0CF118BF0121B1
:104A100021430843A3EB0C01CB1D4FEA00614FEA91
:104A2000102042BF002010BC704700EBC350104460
:104A30000029A4BF10BC7047401C490008BF20F0EB
:104A4000010010BC7047FEE7704700002DE9F84FE9
:104A500041F6A309622A88460546DFF890A09B46E6
:104A6000CDF8009028BF6222052A98BF0522C2F126
:104A70006400A62148436421424680B2B0FBF1F7AE
:104A80002846532107F153063346D0470A9831464A
:104A90000F220F230090681E84B2204603F0ECFD25
:104AA0006137284642464FF48073CDF800B039464E
:104AB000D047204653212A463346CDF80090D047B0
:104AC000204639462A4602F0A1F808F10100532198
:104AD0003346CDF8009084B240462246D047404647
:104AE0003946224602F092F8BDE8F88FB34E00082E
:104AF000438E4FF6FF7293421CBF5A1C428670B51C
:104B0000CB1C0021062B24D8DFE803F00423142358
:104B10000823200001F04CFF04211AE0038C418699
:104B20009A4238BF012180F834104FF0010138BF9C
:104B300009210EE0038C41869A4238BF012180F89A
:104B400034104FF0020138BF0A2102E001F030FFBB
:104B50000321024612F8305F12F8093C12F8036C88
:104B6000DCB202F8033C84F001033343B3FA83F36D
:104B70005B094DB1002B5ED0002280F83020C28549
:104B8000826280F82C2056E0458D6DB1013D45854F
:104B90002D0401D0002508E090F82C50012D03D100
:104BA000002101F005FF05210125BCB1002B42D0F9
:104BB000024632F8283F32F8104CA34239D3448BD6
:104BC000A3422FD290F82C3085F00104013B18BF8E
:104BD000012323432DD1838B43852AE0038D048B4E
:104BE000013303859BB2A3420AD12DB990F82C4022
:104BF000012C01D1062101E000F12C0201241470E6
:104C0000428B934217D3C38DC28B01339CB2B4FB4A
:104C1000F2F505FB1242002A18BF1A46C28508BFEA
:104C2000082108E0002180F83010C1851160117161
:104C3000072100201080084670BD2DE9F04701686B
:104C400082888B68816886898D680469818AA468F6
:104C500005EA0607BD1B04EA010CB5FA85F5ACEBC5
:104C600001044FEA551E90F82450B4FA84F4640904
:104C700080F8264080F8274003EA0204A31AB3FA1A
:104C800083F34FEA531A837D1BB355452ED0B7EB00
:104C9000060918BF4FF0010990F82580B8F101030B
:104CA00018BF0123BD1BB5FA85F56D091D4394425C
:104CB0001FD165B1B8F1000F08BFB7423DD0A8EBD6
:104CC0000E02B2FA82F2520912EA090F3DD0012512
:104CD0001EE055450AD04FF0FF35B74280F825E079
:104CE00080F824A008BF0125944217D10220002596
:104CF0001DE065B1B8F1000F08BFB74221D0A8EBA5
:104D00000E02B2FA82F2520912EA090F27D0FF25E9
:104D10004FF0000E80F825E080F824A0EAB26FF092
:104D20000200012A08BF0320002A08BF02208C4588
:104D300018BF054668B2BDE8F087FF254FF0010EA9
:104D4000E8E74FF0010E0125E4E787EA060288EA6A
:104D50000E031A43B2FA82F252095542DAE787EAA1
:104D6000060288EA0E031A43B2FA82F25509D1E725
:104D7000FEE700002DE9F84FDFF88CB007462A2047
:104D8000984692468946D847F44C4FF40045380A75
:104D9000F3494FF480666560C4F8FC03F8B20E6016
:104DA000C4F80068256065600F46C4F8FC034FEA4C
:104DB0001A200E6001F05CFD5FFA8AF00E6001F0CF
:104DC00057FD2B200E60C4F800682560D8474FEAD5
:104DD000192065605946C4F8FC035FFA89F03E600B
:104DE00001F046FD4FEA18203E6001F041FD5FFAF8
:104DF00088F03E6001F03CFD3E60C4F8006825602C
:104E00002C20BDE8F84F0847655100082DE9FE4FFA
:104E10000C46A3EB010B111A05460029029101DD96
:104E2000012008E005D00298404202904FF0FF3088
:104E300001E000200290BBF1000F019001DD01268E
:104E400007E019BFCBF1000B4FF0FF364FF0000B1E
:104E5000002602985F464FF000084FF000094FF01F
:104E6000000A584588BF07461FFA88F08742B8BF36
:104E7000BDE8FE8FA8B2A1B202460B46FFF77AFF4B
:104E80000C9800F05DF90AEB0B0008F10108B8423C
:104E9000C8BF34440299019A4944B942C8BF154475
:104EA000B0EB070AD8BF8246B1EB0709D8BF8946E5
:104EB000DAE72DE9F8438146501E154698460E461E
:104EC00082B2581E83B24846FFF754FF089CB0B226
:104ED000404528BFBDE8F8834F46B8B2A84204D287
:104EE000204600F02DF90137F7E70136EFE7000023
:104EF00010B5002005F042FFA548A44A4FF4004138
:104F00004FF4006341601360D0F8F843C0F80038F4
:104F10000160102005F032FFA0B210BD2DE9F04F66
:104F200087B0119F1C46904600EB5702CB1901F049
:104F3000D9FD01203909109E4FF0000B17F00E0F1C
:104F400018BF00EB171101FB07F00690A8F1200035
:104F50004FF4C8717D084FF00008C2B22D48059289
:104F600012FB010004902F4800EB021003902B4825
:104F700000EB82100290284800EB02200190069876
:104F8000804543D0502F16D0102F18D00598182FD9
:104F900000EB400009D0202F0FD0402F09D00C2F5C
:104FA00034D1214901EB80000AE01D4901EB0010DA
:104FB00006E0019804E0049802E0029800E00398FB
:104FC00040440BF108074FF0000A90F80090BAF146
:104FD000080F13D029FA0AF0C007204608BF304650
:104FE00000F0AEF80BF1010B1FFA8BF0B0FBF5F1FE
:104FF00001FB150020B10AF1010AE8E7BB4601E018
:105000004FF0000B119F08F10108B8E707B0BDE8A9
:10501000F08F00BF8848010888E90008C8D100085F
:10502000F8BF000808BA000894B500082DE9FE4F43
:1050300007460D98994692460E4600254FF00A08FD
:105040004FF0000B4408032D08BFBDE8FE8FC5F1EB
:1050500002000121020604D001EB81010138490060
:10506000F8E7BAFBF1F0BBF1000FB0FBF8F101EB90
:105070008101A0EB410105D1012D03D8080410D016
:105080004FF0010BDDE90C2041F030014B46CDE93A
:10509000002005FB0470CAB2314601F0F5FD013570
:1050A000D1E7DDE90C1030224B46CDE9001005FBBD
:1050B0000470314601F0E8FD4FF0000BEFE72DE9F9
:1050C000FC47DDF82880994615460E4607464FF006
:1050D000000A4FEA58042A784AB1B8B231464B4622
:1050E000CDE900A8FFF71AFF27440135F3E7BDE833
:1050F000FC8700002DE9FE4F1C46904689468346FA
:105100005D0800260FF2300A0027072F08BFBDE810
:10511000FE8F781EC0B205280AD81AF800200BEBC3
:10512000060049464FF6FF73CDE9008401F0ACFD5F
:105130002E440137E9E700BF56312E302E340000EF
:1051400013494FF400424FF480634A60C1F8FC03F6
:105150000E480360C1F800380A607047100801402B
:105160001410014010B50949094B4FF480524FF417
:1051700000440A605C60C3F8FC034FF48060086080
:10518000C3F80008C3F800281C6010BD14100140CB
:10519000100801402DE9F04F95B0DFF884BB9BF873
:1051A000140001282BD0002841F0E182DFF8749B25
:1051B00099F8E60302282BD1D9F8B040C74901F08D
:1051C00033FC00286FD0C54901F02BFC002840F0CB
:1051D000BD8099F8C003002840F0B8809BF81C00FF
:1051E000002840F0B3809BF81D0001308BF81D00B3
:1051F000C0B2032824BF0120ABF81C006FE09BF86D
:105200002800012808D1DFF8340E90F8D1031CE003
:1052100000208BF81C0099E03D2000214FF4F07233
:105220001E230090002003F027FA40F29F1008216F
:1052300043F286121023FFF75DFF0120DFF8FC1D0B
:105240008BF82800FF2081F8D103DFF8F08D98F863
:10525000D01388420FD03F20012908BF3E20009084
:105260004FF4C77006211522152303F005FA98F8AC
:10527000D00388F8D10398F8C90398F8CA1381427B
:1052800034D0012803D098F8CB13012929D17020FC
:1052900003212A221823009040F2631003F0ECF956
:1052A00098F8C90320E09BF81B0001308BF81B0025
:1052B000C0B215280AD300208BF81B009BF81A00F7
:1052C000013000F003008BF81A0001E09BF81A008F
:1052D00000218BF81C10DFE800F002302C2E562045
:1052E0002CE000218BF8281088F8CA0398F8C40332
:1052F00010B1FF2188F8C51398F8E6134FF6FF7A2E
:1053000001F0FE02022A4FF6FF7240F04A8798F839
:10531000C523824200F0B581032800F2AC81DFE8AA
:1053200010F00400A2019E01A001012088F8E7030B
:10533000A1E1582002E0592000E0572000904FF4EE
:10534000D77028212422222303F096F999F8E80344
:1053500001280FD1DFF8E80C81694A1E002982611B
:1053600008DC002189F8E8134FF496718161172059
:1053700089F8E6039BF8181099F8C60319B108BB21
:1053800099F8C2130CE0012101288BF818100CD0F9
:10539000C0B999F8C213012909D8022089F8E60397
:1053A0000020022938BF012002E0032008E000208D
:1053B00099F8E61301F0FE01022903D110B1022091
:1053C00089F8E60399F8E60399F8E7234FF6FF71A9
:1053D00082425CD0DFF8682C414B89F8E703D18129
:1053E0004049FF22C9E90433C9F83830C9F83030E0
:1053F00089F8B92389F8CE2389F8D42389F8C723FB
:105400008BF81620C9F81C10C9F85410C9F80810F8
:1054100001F012FAC9F89C10C9F84410C9F8A41098
:1054200001F02DFCA0F11D01CAB21F2A23D89BF860
:10543000192082B904201E214FF4F0724FF49173A9
:105440000090002003F018F901208BF8190099F85A
:10545000E603A0F11D01C9B2062905D3A0F12D0173
:10546000C9B20D2900F2D48000904F2046214FF49C
:10547000A172A52309E00021009000204FF4F072F2
:105480004FF491738BF819101E2103F0F5F89BF877
:10549000200001280DD0002840F07681B9F8BA0329
:1054A00090B199F8E663022E55D0032E58D11921F8
:1054B00052E0B9F8BC03B8B199F8E663022E76D091
:1054C000032E79D1192173E09BF82900002800F000
:1054D000078101385F468BF82900B0E00000A04248
:1054E00000007A4400007F43D9F89850D9F8A00012
:1054F000D9F8B44001F086FA30B1D9F8B80001F01B
:1055000070FA002840F03D8199F8C01399F8C22341
:1055100099F8D93399F8E603C9F8B840C9F8A0500A
:10552000090608BF2C4682F00101DAB2114318BF08
:105530002C46022800F01381032840F0228101F05C
:1055400058FA0246202043F28611CDE900104FF4AC
:10555000CB70CD2111E10521D0FA51F0A9F8BA03A1
:105560000020D9F820505F46C9E90200D9E9064079
:1055700001F037FA28B1D9F8240001F043FA0028E5
:105580005DD199F8CD03C9F82450C9F81C40002812
:1055900008BF254601F075FA0446022E45D0032EB9
:1055A0004DD101F060FB40F28910502143E005210C
:1055B000D0FA51F0A9F8BC0399F8C973022F04D0AE
:1055C000E848C9F8B800C9F8A000D9E92640D9F8D8
:1055D000BC5001F006FA30B1D9F8C00001F012FA5F
:1055E000002840F0CE80C9F8C050C9F89C40022F76
:1055F00008BF2C4601F0FDF90446022E24D0032EEC
:1056000040F0BF8001F02FFB4FF4CB70CD2123E0A1
:10561000A0F12301C9B2072900F23784009050207D
:105620003B2140F23F12BB232FE75E2001F006FA38
:1056300001F00AFB78214FF66143FFF7F7FC97F87A
:105640002000BB4601309DE0622001F0DEF901F050
:10565000FBFA4FF48770782143F67F438FE04620B2
:1056600002E0442000E0422000907B207B21EB22DE
:10567000672303F001F898F8C40398F8E61388F854
:10568000C50302294FF6FF7240F08B8598F8C003DE
:10569000022804D0012812D0002840F043851820A9
:1056A0000024342100224FF6FF73CDE9004040F280
:1056B0004510FFF7BBFCABF8404000F033BD98F855
:1056C000C203012802D198F8D90320B198F8C94340
:1056D000022C40F0EB830020ABF8400000F022BD2C
:1056E00099F8C4035F460028A9D1D9F82850D9F801
:1056F000008000212846FFF7C3F89B49064628464C
:10570000FFF716F89949FFF745F801F0A7F885F07B
:105710000041002E18BF084699F8CDB3BBF1010F28
:1057200018BF0846FFF7E3F899F8C9A30546BAF190
:10573000010F40F0ED83BBF1010F40F013848A4963
:105740004046FEF7F5FF8949FFF724F801F086F897
:105750008749C9F80400FEF793FF0646E7E3602097
:1057600001F053F901F045F90246502041F6A3013A
:10577000CDE900104FF4877078214FF6FF73FFF7E3
:1057800055FC00208BF8200099F8E603022800F071
:105790006F81032840F081819BF8170058B90020E1
:1057A00029214FF4BC72FA2300901220FFF781FBED
:1057B00001208BF81700D9F800606E49D9F84850DD
:1057C000D9F8B08001F077F999F8C943012C18BFD6
:1057D0003046FFF78CF80646FFF77BF8014628466F
:1057E000FFF740F8074601F04CF90546002F08BFC7
:1057F000354699F8C00350B15F494046FFF716F8A7
:1058000028B99820022C08BFBC2059F8008028B283
:10581000CA46FFF75EF859490546FFF715F8584E96
:1058200000281CBF0025C4F2FA3528463146FEF791
:10583000EFFF544A00281CBF0025C4F2C8252846A3
:10584000314605F05BFCABF844004046FFF74FF8EB
:10585000FFF748F84C4901F011F900281CBF00245B
:10586000C4F24834204600210026FEF7D1FF00286C
:10587000464A18BF00242046002105F03FFCABF843
:10588000460040F2651744F6384B4FF00009B94521
:105890003CD009F112000AEB0908009684B209F124
:1058A000140098F8EC1098F8ED3085B220462A469E
:1058B000FFF7ACFA98F8521298F8533220462A466D
:1058C0000096FFF7A3FAB9F5B27F14D04FF260400B
:1058D00098F8EE3098F8ED102A4600902046FFF731
:1058E00095FA98F8543298F8531220462A46CDF883
:1058F00000B0FFF78BFA98F8ED0009F1010988F87C
:10590000EC0098F8530288F85202C0E7DFF8681EEE
:10591000DFF8606ED146002448F20F454727B1F802
:1059200044008AF85102B1F846008AF8B7034FF0F4
:105930002A0A6CB3052C43D004FB0AF04FF4BC7266
:105940000095283081B212200B46FFF75FFA04FB66
:1059500007F02821FA230095123080B20246FFF7A3
:1059600055FA2BE000007F43000010410000A040EA
:105970000000F4C2000048C20000F0410000FA43F9
:105980000000C842000016440000484300007A436B
:10599000122028214FF4BC7228230095B047122012
:1059A00028211222FA230095B0471220FA2101F093
:1059B0001EF94FF4BC70282101F019F90134B8E741
:1059C00073202A212F2219230090142002F054FE64
:1059D000DFF8CC4D0C250FF6BC521520462100F007
:1059E000B9FF0FF6C0521520702100F0B3FF0FF67B
:1059F000C05215209A2100F0ADFF0FF6C0521520BD
:105A0000C42100F0A7FF0FF6C0521520EE2100F0D0
:105A1000A1FF74202A2117221723009040F25F1063
:105A200002F02AFE0FF6AC524FF4B270462100F09D
:105A30008DFF0FF6A4524FF4B270702100F086FF74
:105A40000FF698524FF4B2709A2100F07FFF0FF6D4
:105A500090524FF4B570C42100F078FF0FF68452D5
:105A60004FF4B870EE2100F071FFDFF80CBD91E04B
:105A7000D9E90045D9F8100000F0B3FF88B9B9F8AA
:105A8000BA1399F8CD03C9E90445A1B100B3D9F817
:105A900020009B49FEF7F4FD17E000208BF817006B
:105AA00078E0D9F8140000F0ADFFB9F8BA13002877
:105AB000E7D059B3E5E799F8C96360B19049284642
:105AC000FEF7DEFD012E18BF28468E4C8E4D0AE0F3
:105AD000D9F8180005E08D4900F080FF012E18BFAD
:105AE00020468B4C8B4DFEF748FF02460B4628465E
:105AF0002146FEF700FCFEF792FD02466A202721B0
:105B00004FF6A04300901A20FEF7A0FFD9F8984066
:105B1000D9F8A400D9F8B45000F063FF10B9D9F84F
:105B2000BC600CE0D9F8A800D9F8BC6000F06AFFAE
:105B300028B1D9F8AC003146FEF7A2FE50BB09F1FE
:105B4000A40070C099F8C003012809D199F8C203D4
:105B5000012805D199F8D90310B9B9F8BC0320B1CF
:105B600000F0F0FF08BF3446254600F08AFFFEF73C
:105B700049FD694B0022FEF7BEFBFEF750FD0246D1
:105B80006B204FF4E37140F25F43009040F2B91094
:105B9000FEF75CFF99F8E603011F11F1020FC0F058
:105BA000CF8046F269605D214FF481724FF49473A7
:105BB000ADF850003020109346F268531291CDE9B1
:105BC0000C21CDE9072199F8B813119213900E908A
:105BD00009905A20ADF83C30C123069099F8B903DA
:105BE0000B9346F26743ADF82830884247D006ACA5
:105BF000012604F10805042E10D099F8B903864255
:105C000009D16F7AAB882A8835F8041C35F8080C5E
:105C1000009702F031FD14350136ECE799F8B9032D
:105C200008B104280DD300253C2D0AD06619605B0D
:105C3000B3893289B188767C009602F01DFD143557
:105C4000F2E799F8B803411ECAB2022A0FD89000B1
:105C500050FA81F134F8210004EB8104A3892289F0
:105C6000A188247C009402F007FD99F8B8032B4921
:105C7000002289F8B9038BF8212000F0DDFD00280F
:105C80005CD09BF82100002858D1D9E91A06D9F830
:105C90001850D9F82040FEF72AFEADF8120000F0A7
:105CA00047FFADF81400D9F87000FEF720FEADF8FC
:105CB0001600D9F87400FEF71AFEADF80C00D9F8FA
:105CC0007800FEF714FEADF80E00D9F87C00FEF760
:105CD0000EFEADF8100000F0D4FE054600F089FE7F
:105CE00000210DF1120203AB03291DD032F811403F
:105CF000AC4223D033F8114001318442F4D11DE08D
:105D00000000F4C2E3A5BB3FD9CEF753000048C260
:105D10009999C93F9A9999990000E43F00007F43FF
:105D20000801002064060020C648C9E93500C9E919
:105D30003700C9E9390001208BF8210099F8E60302
:105D400000F0FE00022840F09B80D9F86840D9F8A6
:105D5000D400D9F8745000F044FE20B1D9F8E00026
:105D600000F050FE90B900F076FE08BF2C4600F01F
:105D700040FE00F074FE602000F0CFFDD9F868000E
:105D8000D9F87410C9F8D400C9F8E010D9F86C40FB
:105D9000D9F8D800D9F8785000F023FE20B1D9F80E
:105DA000E40000F02FFE90B900F055FE08BF2C462D
:105DB00000F01FFE00F053FEC72000F0AEFDD9F842
:105DC0006C00D9F87810C9F8D800C9F8E410D9F8EF
:105DD0007040D9F8DC00D9F87C5000F002FE20B108
:105DE000D9F8E80000F00EFE98B900F034FE08BFC4
:105DF0002C4600F0FEFD00F032FE4FF4977000F0EC
:105E00008CFDD9F87000D9F87C10C9F8DC00C9F80D
:105E1000E810D9F88040D9F88C0000F0E2FD50B9C4
:105E200000F0E7FD00F01BFE8D2000F076FDD9F8B4
:105E30008000C9F88C00D9F88440D9F8900000F0AF
:105E4000D0FD50B900F0D5FD00F009FEF42000F0BF
:105E500064FDD9F88400C9F89000D9F88840D9F8D1
:105E6000940000F0BEFD58B900F0C3FD00F0F7FD4E
:105E700040F25B1000F051FDD9F88800C9F8940099
:105E80009BF81400013000F070BCA0F13B01022926
:105E900036D3A0F12B0101293FF6F9AA0090482042
:105EA00058214FF4A8728223FFF7EFBAD8F8000008
:105EB000D8F81870FEF71BFD012C08BF323800B26D
:105EC000FEF707FD604904463846FEF7D9FB214638
:105ED0008246FEF7ABFC5D4905463846FEF7D0FB2F
:105EE000064635B930462146FEF7BCFC002800F0D6
:105EF000B58030462146FEF78BFC30BB012006E121
:105F00000090092057214FF4E7728423FFF7BDBAB0
:105F1000BBF1010F7CD14E494046FEF709FC4D49CB
:105F2000FEF738FC00F09AFC0646C9F80400284643
:105F3000FEF7CFFC014600F0BEFDFEF7D8FC05469B
:105F4000FEF7C7FCD9F84C601EE050462146FEF72C
:105F50007BFC00284FF6FF7A40F0E08000208BF8B1
:105F60001E00D9E03C494046FEF78AFB064628461B
:105F7000FEF7AFFC014600F09EFDFEF7B8FC0546BB
:105F8000FEF7A7FCD9F8486001463046FEF76AFCE8
:105F900010B100F0CDFD054699F8E64344F002004B
:105FA000032801D1142004E099F8C003002818BF89
:105FB000142087F82900D9E901604146FEF760FC0A
:105FC00038B1D9F80C003146FEF75AFC00287FF4AE
:105FD00036ABBAF1020FC9E9028617D099F8D3039C
:105FE000012813D197F82A00CA46B946002855D08F
:105FF0000AF11800BBF1010F08BF0AF12000006888
:10600000FEF775FC0546C9F8540060E07D655FE069
:106010002846FEF75EFC01464046FEF731FBFEF7E0
:1060200066FC0546FEF755FCD9F848600146304647
:10603000FEF7EEFB0028ACD0AEE700BF6406002000
:106040000000002000007F430000C8420000C8C2DA
:10605000000010410000A040000048C29BF81F0053
:10606000022853D1DFF814074FF6FF7A018A01396D
:10607000018209B2002951DC3221018238462146D1
:10608000FEF750FBFEF733FC01B280EAE130A0EBF3
:10609000E13000B20128D8BF01203DE02846C9F810
:1060A0005450FEF716FCDAF81860DC49804600F020
:1060B00002FD4146FEF7D6FB48B9D94900F0FBFC8A
:1060C0004146FEF7B3FB10B9012089F82A00D146FA
:1060D000032C0ED0022C7FF4B2AA5C2000F0AEFCA0
:1060E000B7F85420502041F6A301CDE900107821E3
:1060F00008E0202043F28611AAB2CDE9001040F258
:10610000891050214FF6FF73FFF797BA02208BF8E2
:106110001E0064204FF6FF7AABF840009BF81E008B
:106120008BF81F00DFF85416BBF84000C989814284
:106130003AD0C0B2642828BF6420012898BF01204B
:10614000C0F16400FEF7CEFBB649FEF723FBB6496B
:10615000FEF7EEFAFEF7CBFBC0F5877044F2507104
:10616000432384B20091CF203F212246FEF7A1FEB7
:1061700041F6A3003F214FF487724323009020464D
:10618000FEF797FEBBF84020182000214FF6FF7362
:10619000CDE9001040F245103421FEF747FFBBF86F
:1061A0004020DFF8D805C28198F8E67307F0FD00BB
:1061B0002D2804D1D8F82C50D8F8344007E0D8F86E
:1061C0001850D8F82040C8F82C50C8F83440D8F8F7
:1061D0003000D8F8386000F015FC18B1304600F0F7
:1061E00000FC28BB47F00200C8F83840C8F830501F
:1061F0002F281DD198F8CD0398F8DC63002808BF3C
:106200002C4600F0F6FB0246202043F266114FF6C2
:10621000FF73CDE90010F0B2022808BF4FF4FC6311
:106220004FF487702F2F18BF53469621FEF7FEFEBE
:106230009BF8220038BB0120D8F81860D8E91A541E
:106240008BF82200D8F80000FEF751FB00EBC000ED
:10625000052700F0D1FBC8F8040000F069FC00F04D
:10626000CCFAC8F8200000F00CFC00F0C6FAC8F820
:10627000740000F0BEFB00F0C0FA00F013FC00F068
:10628000BCFAC8F87C0098F8CD9398F8CE434C45FA
:1062900027D0D8F80000D8F81860D8E91A5AFEF7C5
:1062A00026FB00EBC000052700F0A6FBC8F80400A1
:1062B00000F03EFC00F0A1FAC8F8200000F0E1FB7D
:1062C00000F09BFAC8F8740050464FF6FF7AFEF7CC
:1062D0000EFB00F092FA00F0E5FB00F08EFAC8F831
:1062E0007C009BF81500062800F23E82DFE800F0F3
:1062F0000478183C09A2BF004C4540F0CB80012037
:1063000030E298F8E603372840F0188198F8DD036A
:10631000012800F00981002840F021826F2004E16B
:1063200098F8E603232840F0B38098F8DF0301389B
:10633000C1B2032900F2AC80C000DFF84C547821D0
:1063400014221423C4B2394800F000FC384EA121B5
:106350001422142306F57F4000F0F8FB26FA04F01F
:10636000CA2114221423C1E198F8E603A0F1230105
:1063700000F05BFA00F2F381012202FA01F140F62B
:106380006162114200F0EB812D2808D0352806D03B
:10639000372802D198F8DD1309B1392804D14E20ED
:1063A00000F045FB98F8E6032F2805D0372808D1E0
:1063B00098F8DD13012904D1512000F038FB98F83A
:1063C000E603232840F0CB8198F8DF03512104280D
:1063D00008BF4E210091C420FF2158222D2343E005
:1063E00098F8E603A0F11D0100F01FFA00F2B78152
:1063F000012202FA01F140F67742114200F0AF812A
:106400001D2840F0C88098F8CC03002800F0BA801E
:10641000012840F0C0808924B121B5E0000020C1EE
:10642000000020410000C84200007C42797A7A7A5C
:106430007A7A797A98F8C0039BF81610814200F0B6
:106440008E8198F8C913022900F0898198F8E61323
:1064500000288BF816004CD102294AD1402028216F
:1064600096224B230090A52002F006F977E19BF8D5
:10647000252098F8C913022A22D1022920D098F8A1
:10648000E6038BF82510022840F053817C2049E177
:10649000032067E198F8E6032F283BD0032800F09B
:1064A00028812D2836D0022840F05581B9F1010FFE
:1064B00000F04981B9F1000F40F04D814C2043E1DB
:1064C0000020022A00F04E81022940F04B81022078
:1064D0008BF8250098F8E603022840F02A8198F806
:1064E000D603002800F01581012840F01A817E2093
:1064F00010E1012808BF022940F031817B202821CA
:1065000096224B230090A52002F0B6F89B48A0F8F5
:106510000EA024E1B9F1010F00F0F380B9F1000FF2
:1065200040F019814820EDE06C200090CD20BE2184
:106530004622202302F0A0F898F8E603352840F020
:106540000E81EC20832143F2661220234FF0EC08E9
:1065500043F266152026FEF7CDFD002788A4072FFD
:1065600000F0FD80781EC0B2052809D8225C08EB37
:106570000710B5214FF6FF73CDE9005600F084FBFC
:106580000137ECE7B12489215A2000F02FF95B2074
:10659000214600F02BF998F8E6031F2812D198F84D
:1065A000CF03012803D0A8BB8924B12101E0B12485
:1065B00089215A2000F01AF95B20214600F016F9D3
:1065C00098F8E603212810D198F8D20320B10128C9
:1065D0000BD18924B12101E0B12489215A2000F096
:1065E00005F95B20214600F001F998F8E60331280F
:1065F00012D198F8D503012803D0B8BB8924B12162
:1066000001E0B12489215A2000F0F0F85B202146F6
:1066100000F0ECF898F8E603332810D198F8DB0383
:10662000012803D058B98924B12101E0B12489217E
:106630005A2000F0DBF85B20214600F0D7F898F8EC
:10664000E603252814D198F8E103022805D0032891
:1066500040F085808924B12101E0B12489215A20AC
:1066600000F0C4F85B20214600F0C0F898F8E6037B
:1066700027281ED198F8E30300F060FA6FD8C00015
:10668000414D752125221E23C4B2404800F05EFA18
:106690003F4E9E2125221E2306F57F4000F056FA2C
:1066A00026FA04F0C72125221E2300F087FA98F865
:1066B000E603292853D198F8E50300F03FFA4ED8B5
:1066C000C000314D752125221E23C4B22F4800F091
:1066D0003DFA2F4E9E2125221E2306F57F4000F015
:1066E00035FA26FA04F0C72125221E2300F066FAA7
:1066F00035E0B9F1010F1ED0B9F1000F2BD14A20BE
:106700001AE0492000904FF4A07099211C221B230D
:106710001FE07B200090A520282196224B2301F02A
:10672000ABFF7520009091205021BE22232301F061
:10673000A3FF002016E04B2000904FF4DC705421A2
:106740001A22182305E04D200090C820AA21142207
:10675000152301F091FF98F8CD0388F8CE039BF83C
:10676000150001308BF8150000208BF8140015B0CF
:10677000BDE8F08F0D4E0008080100200000002049
:1067800056312E302E310000798600085A5B5B00AE
:106790005B5B5A0035303028393332290000000065
:1067A000BF5000083430302837353229000000004F
:1067B000333030283537322900000000323030289D
:1067C000333932290000000031303028323132298B
:1067D0000000000032303000313530003130300000
:1067E0003530000030000000FEE7704725221E23F0
:1067F00000904FF4AA7001F03FBF00EBC000B0FB67
:10680000F7F0203080B2FEF76DB8BDF808100A31FD
:10681000ADF808109DF80B100131704781F8252064
:1068200000213172022102287047CAB2C90141EA2F
:106830005201C9B20B297047C9E93511C9E93711AD
:10684000C9E93911704700BF00BF00BF00BF00BFDA
:1068500000BF00BF00BF00BF00BF70474FF08441C2
:10686000FDF70EBF97F8E60300F0FE01022970471E
:10687000C4F8006825606560C4F8FC03704750F8F0
:10688000210052F821100068C9F818000968C9F8F9
:1068900098107047C9F82410C9E92311C9E92512D5
:1068A000C9F89C1089F8B8037047A9F8BC03D9F857
:1068B000BC00FDF7E5BEA7F8BC03D7F8BC00FDF7A8
:1068C000DFBEA7F8BC03D7F89800FDF7D9BE09F1E1
:1068D0008C0002EB8102704701208AF80D00002035
:1068E0008AF82A00502068614FF47A70A9F8BA0338
:1068F00099F8CD030128704707F18C0002EB810263
:106900007047BDF808109DF807201144B142704748
:1069100020464FF07E51FDF7B3BE4FF48C71FEF769
:1069200085BB4FF04241C9F82000FDF7A9BE87F8AA
:10693000E60397F8E10397F8E31397F8E52387F860
:10694000E00387F8E21387F8E423704744F63843FE
:10695000009520474FF260430095204799F8B813FF
:10696000C9F8BC400329704799F8B813C9F8984092
:1069700003297047686101208AF80D004FF47A708E
:10698000A9F8BC03D9F89800FDF77ABE97F8B813B8
:10699000C7F898400329704797F8B813C7F8BC4068
:1069A000032970470021017299F8C9130229704721
:1069B00080F83010C185816280F82C107047204625
:1069C000FDF750BF3062F06170613061A9F83E00A0
:1069D00089F81200C8F84000F06070472046FDF7C3
:1069E0004FBE2146FDF74CBF4FF042413862FDF7E4
:1069F00047BE2046FDF77BBFB0FBF7F0203080B2EA
:106A0000FDF770BF2946FDF73BBFD4217B22192338
:106A100000904FF4877001F02FBE78632846FDF791
:106A20002FBE2046FDF710BF2046FDF7FFBEFA211E
:106A300058222D230090C42001F01EBED2217B22BB
:106A40001C2300905A2001F017BE0446FDF7EEBE4D
:106A500001462046384799F8CD0301287047024681
:106A6000182043F286114FF6FF73CDE900107047EE
:106A700099F8E60300F0FE00022870470446FDF78F
:106A8000E3BE2846FDF733BF8DF80B109DF80B10C1
:106A9000704787F8E6130238B0FA80F0400987F8AB
:106AA000C6037047C8F87800D8F87000FDF71FBF1C
:106AB0000446FDF7D7BE3046FDF7E2BD9AF80E104A
:106AC000012970470130C1B203297047002030729C
:106AD00081F82A004FF47A70A7F8BA0397F8CD032B
:106AE00001287047013A013B92B29BB2FEF742B9CE
:106AF000272087F8E60397F8E20387F8E303704757
:106B0000252087F8E60397F8E00387F8E10370474C
:106B100097F8C9030228704797F8DC0302287047EA
:106B2000292087F8E60397F8E40387F8E503704720
:106B30003046FDF7DCBE5846FDF7A2BD0138C1B2B4
:106B40000229704799F8C90302287047E040C0B293
:106B500000904FF4AA702847044628462146FDF7C6
:106B600057BE044628462146FDF76EBEB86338631B
:106B7000B869FDF7D7BD86F8E20304F12400284781
:106B800086F8E00304F12200284786F8C90304F1DF
:106B90002000284786F8D90304F11E00284786F80C
:106BA000D30304F11C00284786F8D60304F118002B
:106BB000284786F8D00304F116002847C0B2009099
:106BC0004FF4AA70284786F8CD0304F11400284733
:106BD00086F8C60304F112002847C6F8880004F1BD
:106BE00010002847C6F8840004F10C0028474FF431
:106BF000BC72FA2300953047C6F8800004F1080003
:106C00002847D7F82C802846FDF792BD4FF48073B3
:106C1000CDF8009050472D2087F8E60300207047FC
:106C200095F82D00013885F82D0000067047C9F849
:106C30009C00C9E92300C9F89400C9F8BA13C9F83F
:106C40002400C9F81C007047502041F6A301A2B2ED
:106C5000CDE900107047306840F0010030607047A7
:106C60000446FDF7D5BD202043F28611A2B2CDE93E
:106C7000001070474FF47A704FF07E517047C9E9A9
:106C80002311C9F89410704780B2FEF747B9D9F8BC
:106C900020004FF04241704701F0070125F4E04524
:106CA00045EA01317047ADF809908DF80450CDF8F0
:106CB00005407047704770472DE9F041DFF8906B51
:106CC000707801387070000648D1DFF8884B1420C6
:106CD000707094F8D003012813D1DFF87C5B95F82D
:106CE0002C0002281DD001280ED058BB01F04CFD0D
:106CF000307A012820D028BB012085F82C00022002
:106D00001EE001F041FD29E001F044FDFFF788FF9E
:106D100018D1317A022085F82C0089B101290ED0D2
:106D200010E001F031FDFFF77BFF0BD10220307244
:106D3000002085F82C0003E0012085F82C001920A4
:106D400085F82D0094F8C40340B1B0780138B070D4
:106D5000000603D1012030722820B070DFF8147DC6
:106D600097F8C00348B1307801383070000609D177
:106D70000520307001F00AFE04E001F007FE01205A
:106D800087F8EA0397F8C003022809D1FC6D0021B7
:106D90002046FDF775FD18B9BF49FFF71FFEF865DE
:106DA000B0890138B081000440F0F5870120B0813E
:106DB000DFF8C80C00F128042046FDF73EFF01462D
:106DC0002046FDF795FE0138092800F27180DFE8C2
:106DD00000F0051C6F6F35576A0D272E97F8E603F4
:106DE000411F162900F24F81022015E0DFF8880CC0
:106DF00090F8261000295BD1012180F82610FFF7BA
:106E000031FD40F0EA820020EEE297F8E603411FF0
:106E1000162900F2BB8003207071D9E0307247E080
:106E2000FFF720FD40F0DE800720707163E0FFF780
:106E300019FD40F0FD800820707181E097F8E603AD
:106E4000A0F12301062940F25A81811E0229C0F0D7
:106E5000BF801B2800F0D4832F2800F0DE83372862
:106E600000F0D183392840F0B98397F8C603002891
:106E700000F0F484012840F0AB80032000F0EFBC68
:106E8000FFF7F0FC14D19349FF22C7F8BA139249D7
:106E9000C7F89C10DFF8E01BFFF7C0FC08BF032118
:106EA000FFF7F7FD04E0DFF8D00B002180F8261093
:106EB0007079172800F22B85DFE810F01800DF0149
:106EC0009D014A025302A40127021D0042006202F2
:106ED0006C01BC0176019D00C30040022905290513
:106EE000290585027B022E0129059301052087F8DB
:106EF000E60300F00ABD97F8C403002840F00585BA
:106F0000DFF8741BFFF7E2FD00F03983002840F042
:106F10004E83B8697149FDF7B3FB7149FFF795FDE1
:106F200010B96F4C0020F8616E492046BC61FDF736
:106F3000FFFB6D49FDF72EFCFFF790FC386236E34E
:106F400097F8C403002840F0E084DFF82C1BFFF71B
:106F5000BDFD00F03983002840F0B383B869634970
:106F6000FDF78EFB6249FFF7A3FD10B9604C0020CE
:106F7000F8615C492046BC61FDF7DAFB5A49FDF730
:106F800009FCFFF76BFC386200F09BBBA0F11D0110
:106F90001A2900F25183DFE811F0B0001B006503ED
:106FA0001B006B031B001D001B00DB031B00E20327
:106FB0001B000C041B007B03800371031B00D50323
:106FC0001B006E031B0085031B001B001B006803D6
:106FD000002023E797F8DF030138010608BF0420EB
:106FE00000F0F5BB2F287FF463AFFFF795FD7FF42A
:106FF0005FAF0D20707197F8CD03012800F0F78185
:10700000002840F08284BC693649FD6A2046FDF7BD
:107010008FFB3549FDF7BEFBFFF720FC2F49FFF73B
:10702000FCFC33490546FFF7D9FCFFF79AFD24E045
:107030002F287FF43DAFFFF76FFD7FF439AF0E20AF
:10704000707197F8CD03012800F0DD81002840F031
:107050005C84BC692349FD6A2046FDF769FB22492F
:10706000FDF798FBFFF7FAFB2049FFF7D6FC214913
:107070000546FFF7B3FCFFF76FFD002818BF254654
:10708000FD6200F042BCA0F11D011A2900F2DB8272
:107090000FF20800D0E811F0000080BF310030008E
:1070A000E6023000EC023000940330009F03300011
:1070B00077033000B0033000FC020103F20230001D
:1070C0006A033000EF023000060330003000300069
:1070D000E90200BFE803E80300007F43000020410D
:1070E0000000FA43000010410000A040000020C151
:1070F0000000C8420000C8C26AE709208CE6DFE849
:1071000011F070026D0207006D0207006D020700AA
:107110002320FFF70CFC5BE7CF48D04CD04DD14B80
:107120000022012187F8E81387F8B823BA6287F8AC
:10713000D82387F8D62387F8D213A7F8CC23A7F84B
:10714000C82387F8C6233A6587F8DB2387F8D92355
:1071500087F8D51387F8D313C7F89800C248C7E952
:107160002054C24CC7F88830C14BB861C7E91A0433
:107170004FF480703B67A7F8CF034FF00130C7F89A
:10718000E20340F20220A7F8E003BA48C7F8BA03C6
:1071900000F0BBBB97F8CF03002800F04581012821
:1071A00040F0B383002040E197F8CD03012800F0C0
:1071B0004181002840F0A983BD69AF49FFF721FD57
:1071C000AE49FDF7E7FAFFF749FBAD49FFF725FCAC
:1071D000054640462946FDF745FBAA490446404678
:1071E00045E097F8DD03002800F03281012840F0E7
:1071F0008C8300202DE197F8E603811C1A2888BFB4
:107200000521ABE097F8C403002840F07E83DFF847
:107210006818FFF75BFC00F06182002840F03D83B6
:10722000BC699949FFF700FC002800F01C83FFF7B8
:107230006FFB1BE397F8CD03012800F02F81002896
:1072400040F06383BD698C49FFF7DBFC8B49FDF798
:10725000A1FAFFF703FB8149FFF7DFFB0546404634
:107260002946FDF7E3FA044640464FF07E51FDF70C
:1072700007FA002C08BF28462FE197F8E6030538E7
:10728000362800F24283DFE810F037004003BB06E7
:10729000400396064003DF064003E50640039D06D3
:1072A0004003C2064003C9064003F3064003ED064F
:1072B00040038106400340034003AD0640038406BB
:1072C000400378064003400340034003400340036B
:1072D000400340034003D006D506FE064003F606F1
:1072E00040036C0640038D0640031507400340032E
:1072F00040034003400375061D2087F8E603FFF7AF
:1073000007FC08BF97F8CB03A9E197F8C40300284E
:1073100040F0FB82DFF86017FFF7D8FB00F0E88150
:10732000002840F0DE82BC694C49FFF748FB00288A
:1073300000F0BD825349FFF751FBBBE297F8D2033F
:10734000002800F0CC80012840F0DF820020C7E058
:1073500097F8E603811E062838BF1B2187F8E6133D
:10736000D3E297F8C603012800F0BF80002840F060
:10737000BF8097F8C203012800F2BA800220B5E06E
:1073800097F8CC03012800F0DF80002840F0BD8290
:10739000FFF7BEFB40F05E810120002187F8CC039F
:1073A00040F2FF10A7F8CA03DFF8CC0680F82810D7
:1073B000ABE297F8DB03012800F0D580002840F00D
:1073C000A4820120D0E097F8D503012800F0D180F5
:1073D000002840F09A820120CCE00538362804D8F5
:1073E00097F8E80308B904207071012016E5786B5E
:1073F00026493C6AFDF744F925490546FFF7EEFAB0
:10740000FFF7AFFB0AE0786B22493C6AFDF738F9D9
:1074100021490546FFF7E2FAFFF79EFB002818BF57
:10742000254628467D634EE0012087F8CD0387F886
:10743000CF036AE2386A18497C6BFDF721F90546EB
:1074400020462946FDF70EFA0E498046204633E0D5
:10745000012087F8DD0358E2000020420000C84206
:107460000000A0420000F0420000BE430000C843FC
:107470000000D243E803E803000010410000A040F0
:107480000000C8C2000080BF0000FA430000204195
:1074900000005443000020C1000054C3386AE3498F
:1074A0007C6BFDF7EDF8054620462946FDF7BEF951
:1074B000804620464FF07E51FDF7E2F8B8F1000F0C
:1074C00008BF284678634FF04241FDF7D9F8D84904
:1074D000FDF72EF9D749FDF75DF9F86215E20120B5
:1074E00087F8D00387F8D2030FE2032087F8E6037A
:1074F000DFF8300D90F82710012909D100214FF64F
:107500000172A0F82710A7F8C92380F8291010E00D
:10751000002180F8291097F8C913022909D14FF4E6
:107520007A71A7F8BC13FF2180F8251007F19C00A1
:1075300007E0C148C7F89C000020A7F8BC0307F18A
:10754000A000BD490160E0E1FFF7E2FA40F084806D
:10755000FF210020A7F8CA13DFF8C81C87F8CC0366
:1075600081F82800D1E1002087F8D90387F8DB03F0
:10757000CBE1002087F8D30387F8D503C5E1386A4B
:10758000AE49FDF77DF8AE49FFF75FFA10B9AC4C94
:107590000020786220464FF042413C62FDF770F8CF
:1075A000A349FDF7C5F8A349FDF7F4F8B86197F8CA
:1075B000B813032900F2A681FFF79EF9DFE811F066
:1075C000A501A0019B019E013C6A9E49FFF7F7F9C6
:1075D00000286AD09C49FFF701FA69E00120FFF713
:1075E0001BBC97F8DF03013803283FF6F1ACDFE856
:1075F00010F0040038042C043304FFF781FAE7E4A8
:107600000420FFF709BC97F8DD03012800F00A8188
:1076100000287FF4DDAC172021E197F8DC03012876
:1076200071D10220B9693A6A87F8DC038248C7E958
:107630000B10C7E90D20CBE402380228BFF4C8AC18
:107640000620FFF7E9BB02380228BFF4C1AC0520D1
:10765000FFF7E2BB012000E0002087F8C90387F8AC
:10766000CC0352E10A20FFF7D7BB1720FFF7D4BBAA
:107670000F20FFF7D1BB1320FFF7CEBB97F8DC0339
:1076800000287FF4A5AC2F2087F8E603012076E0E0
:10769000012087F8D6032C20E1E0002087F8D603EC
:1076A0002B20DCE01420FFF7B7BB002078625F4896
:1076B000FFF79AF95E49FDF73BF85E49FDF76AF876
:1076C000B86197F8B813032900F21C81FFF714F989
:1076D000DFE811F01B011601110114013C6A584941
:1076E000FFF7A2F9002800F0CC80FFF711F9CBE0FA
:1076F0003C6A4E49FFF763F9002800F0E6805349E1
:10770000FFF76CF9E4E00120D7E90A4187F8DC03D0
:107710004948FFF72BFA0146FFF760F9D849FFF710
:10772000ADF9D84900281CBF0024C4F2C824204663
:10773000FDF76EF800281CBF0024CCF2C824BC6200
:10774000FFF746BCFFF7E8F914D10C20FFF764BB44
:1077500097F8E103FFF7F2F938BF032041E097F80B
:10776000E3030138010608BF032012E0FFF7D4F954
:1077700000F0BC8401287FF42BACFFF74CFA87F8AB
:10778000DC03FFF725BC97F8E303FFF79BF988BFFD
:10779000012087F8E303C0B2032800F09084022898
:1077A00000F08B84012804BF012087F8E203FFF773
:1077B0000FBC97F8E5030138010608BF032021E05C
:1077C00097F8DF030130C1B2042988BF012087F890
:1077D000DF03FFF7FDBB97F8E103FFF773F988BFFD
:1077E000022087F8E103C0B2032800F029830228B1
:1077F0007FF4EEAB022024E397F8E503FFF762F98C
:1078000088BF012087F8E503C0B2032800F0658433
:10781000022800F0598401287FF4DAAB012000210E
:1078200000F054BC15207071392018E0000054435A
:107830000000A0400000104100007F4300004842CB
:107840000000694400007D43000024C2000080BFA6
:10785000000000206406002008010020022087F8B4
:10786000E603FFF7B5BB0020F86187488749B86198
:10787000FCF75EFF8649FCF78DFFFEF7EFFF3862ED
:107880000BE0002078628348FFF7AEF88049FCF7F0
:107890004FFF7E49FCF77EFFB86197F8B8130329C4
:1078A00030D8FFF729F8DFE801F0302B2629002037
:1078B000F86173487549B861FCF73AFF7449FCF701
:1078C00069FFFEF7CBFF38620BE000207862724858
:1078D000FFF78AF86E49FCF72BFF6C49FCF75AFF5B
:1078E000B86197F8B81303290CD8FFF705F8DFE85B
:1078F00001F00C07020507F1900001E007F1940088
:1079000066490160002087F8B80316207071DFF81F
:1079100050482046FDF791F901462046FDF7E8F86A
:107920000138092800F26F81DFE810F00A00230017
:107930006D016D014B006B007F0013002C003C00BB
:10794000FEF790FF7CD1FFF7E3F814BF012005207C
:1079500026E0DFF8E00C90F82310002940F0538176
:10796000012180F82310FEF77DFF40F07980002090
:107970007DE0FEF777FF5ED1FFF7CAF814BF022063
:1079800006200DE097F8E60300F0FE00022840F024
:10799000388197F8C9030238B0FA80F040098000B6
:1079A00030712EE197F8E60300F0FE00022840F067
:1079B000288197F8C9030321022808BF07213171E4
:1079C0001FE197F8E603A0F1230106293ED9811EA5
:1079D0000229C0F016811B2800F0BF802F2800F07C
:1079E000C780372800F0BB80392840F0A68097F880
:1079F000C603002800F02082012840F00281032005
:107A00001BE2FEF72FFF40F0FE802549FF22C7F85A
:107A1000BA132249C7F89C10DFF8181CFEF7FEFEC7
:107A200008BF0321FFF735F8EDE0DFF8080C00216F
:107A300080F82310E7E0411F162933D80320DFE048
:107A4000411F162900F256800220D9E0DFE801F03C
:107A500077750475047504002320FEF768FFD0E0F5
:107A60000538362804D897F8E80308B9042070715F
:107A70000120C7E064060020080100206C000020FF
:107A80000000C8420000C8C20000FA4300001041D4
:107A90000000A040000069440000544300007F4300
:107AA000E803E8031D381A2800F2AB80DFE810F085
:107AB0004300A900A700A900A500A9001B00A90078
:107AC000E501A9000D02A900FA01A90093009800A0
:107AD0009D00A900E001A9009100A9008F00A90064
:107AE000A900A9008D0097F8DF030138010608BF3F
:107AF00004201EE21D381A2800F28380DFE810F00F
:107B00001B0081007F0081007D0081001202810046
:107B1000EC018100FD0181001C0281006B007000FE
:107B200075008100D9018100690081006700810032
:107B3000810081006500092062E0012060E097F883
:107B4000DF03013803285CD8DFE810F004008F0160
:107B500083018901FEF7D4FF53E0042050E097F839
:107B6000DD03012800F0648100284AD1172064E178
:107B700097F8DC0301280AD10220B9693A6A87F82C
:107B8000DC03C148C7E90B10C7E90D2039E001202B
:107B9000D7E90A4187F8DC03BB48FEF7E7FF014657
:107BA000FEF71CFFB949FEF769FFB94900281CBF61
:107BB0000024C4F2C8242046FCF72AFE00281CBF7B
:107BC0000024CCF2C824BC621BE0172018E014206B
:107BD00016E0132014E0012087F8D6032C202CE1B6
:107BE000002087F8D6032B2027E197F8DC0340B963
:107BF0002F2087F8E603012064E10F2000E00A202F
:107C00007071002030723079072800F2C480DFE8FC
:107C100000F0047632491B8BA0604FF47A709D49C6
:107C2000FEF74FFE9C49FEF743FF00281CBF0024CF
:107C3000C4F22034FEF7AAFE00F2A880FEF75CFE34
:107C4000DFE801F0A7A29DA04FF47A709149FEF7FA
:107C500032FE9149FFF704F818B98F4C0020C7F89D
:107C6000C000FEF799FE00F29180FEF745FEDFE8C6
:107C700001F0908B86894FF47A708849FEF721FED7
:107C80008449FEF7E2FE00281CBF0024C4F2A004D1
:107C9000FEF77CFE00F27A80FEF72EFEDFE801F0B0
:107CA00079746F724FF47A707D49FEF70AFE794954
:107CB000FEF7CBFE00281CBF0024C4F2A004FEF790
:107CC00065FE00F26380FEF717FEDFE801F0625DFB
:107CD000585B4FF47A707249FEF7EDFD6D49FEF77F
:107CE000CDFE18B96B4C0020C7F8C000FEF754FE5B
:107CF0004CD8FEF701FEDFE801F04C474245FEF7A5
:107D0000B9FFFEF7DEFD6449FEF7D2FE00281CBF76
:107D10000024C4F22034FEF739FE37D8FEF7ECFD1C
:107D2000DFE801F037322D30FEF7A4FFFEF7C3FD88
:107D30005949FEF795FF18B9574C0020C7F8C00005
:107D4000FEF72AFE22D8FEF7D7FDDFE801F0221D5C
:107D5000181B4FF47A705149FEF7ADFD4D49FEF7FF
:107D60008DFE18B94B4C0020C7F8C000FEF714FE7A
:107D70000CD8FEF7C1FDDFE801F00C07020507F1A2
:107D8000900001E007F194003F490160002087F86E
:107D9000B80308203071708901387081000409D15E
:107DA0004FF47A707081DFF8E80C816CC7F8B0107E
:107DB00000218164E64D287898BB102001F016FA66
:107DC0002886288EFCF71EFCE64AE74BFCF793FA60
:107DD000E64B0022FCF78FFAE54AE64BFCF7E4F9A4
:107DE000E54AE64BFCF7F9FAE54B0022FCF7DCF933
:107DF000FCF7D6FDD8490446B864FCF799FCD54990
:107E0000FCF7C8FCFEF72AFDD449F864FEF7D7FD5D
:107E100038B920460021FCF7FBFC10B901203C607A
:107E20002870E86C296E0130E864BDE8F04108472D
:107E300015207071392000E0022087F8E603E0E6A3
:107E4000032087F8E003FFF7C3B8FEF769FEFFF7EA
:107E5000BFB8FEF765FED4E60B20FFF75AB90B203A
:107E6000FBE5FEF745FEFFF7B3B8FEF741FEC8E6B7
:107E7000FEF752FE21D10C20C2E697F8E103FEF78F
:107E80005DFE38BF03202DE000007F430000C842A4
:107E90000000C8C20000A04000002043000080BFD6
:107EA0000000A0C097F8E5030138010608BF0320D1
:107EB00048E0FEF731FE00F02E8101287FF4A1AEEC
:107EC000FEF7A9FE87F8DC039BE697F8E303013889
:107ED000010608BF032016E097F8E103FEF7F2FD64
:107EE00088BF022087F8E103C0B2032800F0FA80BF
:107EF00002287FF486AE0220F5E097F8E303FEF750
:107F0000E1FD88BF012087F8E303C0B2032800F039
:107F1000FA80022800F0ED80012804BF012087F8D4
:107F2000E2036EE697F8DF030130C1B2042988BF8F
:107F3000012087F8DF0364E697F8E503FEF7C2FD4A
:107F400088BF012087F8E503C0B2032800F0DF8076
:107F5000022800F0D08001287FF453AE01200021D8
:107F6000CBE097F8D503012898BF87F8D3031120F9
:107F7000FEF7BDBF1920FEF7BABF97F8D20301285C
:107F800098BF87F8D0030920FEF7B1BF3B20FEF76A
:107F9000AEBF97F8CF03012898BF87F8CD0307201D
:107FA000FEF7A5BF97F8DB03012898BF87F8D90330
:107FB0001320FEF79CBF212087F8E60397F8D00333
:107FC000FFF790BAFEF727FE87F8DC0397F8C9039E
:107FD00001287FF49AAC93480121A0F827104FF4B0
:107FE0007F4063E097F8CC03012800F096800028DA
:107FF0007EF47CAFFEF78CFD40F0A380002090E083
:108000001F2087F8E60397F8CD03FFF710BA312059
:1080100087F8E60397F8D303FFF7AEBA332087F863
:10802000E60397F8D903FFF7A1BA97F8D80340B948
:10803000002004E097F8D803012802D1012087F836
:10804000D6030D20FEF753BF042087F8DF0323205B
:10805000FEF74DBF97F8D603002866D0012867D1F8
:108060002C2163E0002087F8DD033720FEF73FBFB7
:108070003520FEF73CBFFEF74FFD5DD001287FF4B1
:1080800044AC022059E097F8DC0300287FF43DACB3
:108090000F2087F8E603634890F8271001297FF442
:1080A00034AC0021A0F827104FF60170A7F8C903DF
:1080B000FFF72BBC1520FEF71ABF022000E00320BB
:1080C00087F8E203FEF784BF0220012187F8E4036A
:1080D000544880F82410FEF77BBF032087F8E403A0
:1080E000FEF776BF032087F8E0038AE50B20FEF752
:1080F00093BE022008E00220012187F8E4034948EA
:1081000080F824107DE5032087F8E20379E5032059
:1081100087F8E40375E50B2072E5FEF7F9FC12D150
:10812000012087F8CB03FEF7E1BE2B2187F8E61389
:1081300087F8D803FFF7E9BB012087F8DC03FFF7D6
:10814000E4BB002000E0012087F8C903FEF7CEBEA3
:10815000080100200000A04000001041000048423B
:10816000CC00002052B81E85EB510A400000303F81
:10817000295C8FC2F528F4BF33E197FA7953713F38
:10818000000018401848C16941F08051C161174989
:108190000A7842F004020A70C16921F08051C1617D
:1081A000016841F00101016001688907FCD541685F
:1081B00021F003014160416811F00C0FFBD101680F
:1081C0000B4A114001600021416041F61071C1620B
:1081D0004FF4801101634FF41F01816005484FF097
:1081E00000610160704700BF001002405070004005
:1081F000FFFFF2FE08ED00E0B0B5094C60688007B3
:108200000CD52068800709D5064D4FF07E51A86C2B
:10821000FCF736FAA8646FF002006060B0BD00BFE2
:108220000C4C0140080100202DE9F04F85B0A64D0F
:108230002869C00700F04481DFF84C8F98F8E90303
:10824000012840F02F81DFF8309F99F812000128B3
:108250000BD1DFF8E4439D4DA66829463046FCF774
:1082600001FB48B9A5602E4606E0994EDFF8C80329
:108270004FF08141C0E901160096D8F81860954981
:10828000FEF719FC834698F8C903012818BFB346C6
:10829000D9F850005946FCF7F3FA00287BD1DFF8F3
:1082A00098434FF07C51E069FCF742FA0025E06109
:1082B00089498DF80B50ADF808508DF80750D8F863
:1082C00098703846FCF7A4FA04465846FCF70FFBB2
:1082D000002C06464FEA900412D14A2C8DF8075024
:1082E0002FD864200021ADF80800D748FEF7CCFB5A
:1082F000132946D8FEF705FB43D2FEF786FAF5E7C9
:10830000CF493846FCF7AEFA0025E8BB38460021D5
:108310004FF0000AFCF77CFAB0BB4A2C8DF807A09E
:108320001FD864200021ADF80800C648FEF7ACFB5A
:10833000132900F24681FEF7E4FA22D2FEF765FA2D
:10834000F4E74FF496701421ADF80800BE48FEF72C
:108350009BFB272915D8FEF7D4FA12D2FEF755FA5F
:10836000F5E74FF496701421ADF80800B548FEF714
:108370008BFB272905D8FEF7C4FA02D2FEF745FA8F
:10838000F5E79DF80B10455C68B2C9F850B0FCF7F2
:10839000A0FAC8F8D000A84EB6F85E400B2C19D849
:1083A00096F8600000F022FF651C06EB8407A6F833
:1083B0005E50FCF797FA0446F862B6F85C00FCF7EA
:1083C00091FA0146FEF70AFBFCF791FAA9B2B0FB5D
:1083D000F1F10DE0B6F85C000C24B0FBF4F1451AA5
:1083E00096F8600000F002FF284481B2B1FBF4F17E
:1083F000A6F85C008808FCF775FAD8F82810C8F8C9
:108400000000FCF78FF9044698F8C903022803D14D
:108410000020FEF7D7FA2CE098F8C20318B198F8BC
:10842000D913012917D18949FEF785FB0746204654
:108430003946FCF717FA38B98549FEF77CFB014647
:10844000FEF7F2FA002849D020463946FCF70AFA2E
:1084500030B1002515E0012808BF002909D1D7E770
:108460007B49FEF768FB0146FEF7DEFA08B1814D55
:1084700007E0D8F84040204600210025FCF7F2F93B
:1084800010B92C46C8F8405098F8C40320B1002019
:10849000674DFEF797FA05E020460021FCF7E2F968
:1084A000634D10B90024C8F840402046FCF738FA64
:1084B0002864286840F0010028606FF001002861FE
:1084C00005B0BDE8F08F00BF000C004000606A46B8
:1084D0000050C346000048420000A0415D49FEF73D
:1084E0002AFB0146FEF76BFA38B95B49FEF723FB1E
:1084F0000146FEF799FA002865D00020A9F83E0051
:1085000089F8120058462146FCF70CF97061706931
:10851000F169FCF7B5F8F061554DF0692946FCF7B3
:1085200085F900B9F561F06900210024FCF79AF99A
:1085300000B9F461D6E9005470693169FCF7F2F8CA
:10854000B06120467769F169FCF7F2F8716A04902E
:10855000039104980399FCF75BF908B90398049018
:108560000498039981F00041FCF76EF918B903985B
:1085700080F00040049028463946FCF7D9F8049969
:10858000FCF77EF80446B1690098FCF7D1F8214663
:10859000FCF776F8306270693061306AB16AFCF7D6
:1085A00037F908B9B06A3062306AB16A81F00041C7
:1085B000FCF74AF908B900203062346AC8F8404034
:1085C00059E70025E0E6B9F83E000130A9F83E0081
:1085D00080B23C2896D321490098FCF751F8174FF8
:1085E00005463946FCF73EF910B10095B56017E035
:1085F0007068B760FCF7C1F9194A1A4BFBF7D4FD54
:10860000194B002282460F46FCF748F920B150462C
:108610003946FCF7C5F900E014487060074800903F
:10862000012089F812000020A9F83E006AE700BF87
:10863000000C0040080100208001002000606A4614
:108640000000A04129DD010800DD010800004843C9
:10865000000048C30000A0400000A0C00000FAC411
:108660009A9999999999B9BF000008400000404033
:1086700000C82F47007F3B472DE9F041264D02FB04
:1086800003F4640095F8D663069D012E06D076B9F2
:10869000023DEDB27B2D0AD2214E04E0023DEDB247
:1086A0007D2D04D21D4E06EB85052D6800E00025CA
:1086B00002440B44FEF716FA1A4F4FF0000844B379
:1086C0002846B8EB942F0ED1214602F08BFB0026F2
:1086D000A64206D2B85B00BA000CFCF731FD0236A8
:1086E000F6E7002012E04FF4806102F07BFB0026E9
:1086F000B6F5806F06D2B85B00BA000CFCF720FD1F
:108700000236F5E7A4F580604FF480642544044602
:10871000D5E7BDE8F08100BF6406002088B30008FB
:108720009CB10008E40100200848C168890603D50F
:108730000168890648BF4168C168490605D50168D6
:10874000490644BF6FF040010160704700380140A6
:10875000FEE7000010B500EB40010A284FF00702C9
:10876000084B28BF1E3902FA01F14FF00C0238BF46
:108770001022D4582143D150596B21F01F010843D6
:10878000586310BD0024014001481021016070476A
:10879000141C01400148102101607047101C014069
:1087A00032490A68C2F38103314AF0B5DFE803F0C9
:1087B00002380A380B6D9B0532D5CB6A9B0148BF46
:1087C0002D4A2DE00B688C6A1B0C002C13D40C680E
:1087D0000D68C5F34175C4F383440DB90F2C43D123
:1087E0002D0101352C44DB0702D00B689B0300D51B
:1087F000204A624314E08C6A8D6A8E6ADB071D4B47
:10880000C4F30314C5F3082506F0070603D00F6868
:10881000BF0358BF134604FA06F26B43B3FBF2F2F0
:10882000026016A40B68C3F30313E35C174CDA4031
:1088300042600B68C3F30223E35C22FA03F3C360D4
:108840000B68C3F3C223E35C0424DA4082600B6844
:10885000096804EA9363C1F3813119440CA3595C9C
:10886000B2FBF1F10161F0BD0225BBE7041002404B
:1088700000127A0000093D00006CDC0200000000DC
:10888000000000000102030406070809F8DC0108E3
:1088900002040608020C08107CB5044600204FF6BE
:1088A000FF75C6B2142E09D8301900F08BFCADF854
:1088B0000600B01CBDF80610A942F2D1BDF80600B2
:1088C0007CBD02684BF6EF731A4002600A890368A8
:1088D0001A4302604A7C036802F0030223F4405307
:1088E00043EA02320260CA7B036802F0030223F407
:1088F000406343EA822202608A7B036802F003023B
:1089000023F4407343EA022202604A7B036802F0C8
:10891000010223F0800343EAC21202600A7B03686B
:1089200062F3861303600A7C036862F345130360F5
:108930004A8942600A6882604968C16070470000E5
:10894000016821F001010160002101604160816046
:10895000C16040F2FF4100EA01020B49B2F5816FAC
:1089600004D3D208902A0ED801F5806100F0FC00F3
:1089700014220838B0FBF2F00F22800002FA00F057
:108980000A681043086070470400024070B5404C0C
:10899000207C38B14148D22101603E4890F8C403A0
:1089A00030B170BD3B4D95F8C40320B1012000E00B
:1089B0000020207470BD95F8C903022804D101205D
:1089C0006074D5F8BC0045E095F8C00301280ED0CE
:1089D000B0BB28683649FBF729FF617C002848D0E6
:1089E0000029DED10120002160742C4846E095F872
:1089F000C20348B3012823D195F8D90310BB607C8A
:108A00002549012804BF002060742C68FEF70CF88B
:108A1000224EA8B32349FEF707F8B0BB1E49FEF764
:108A200000F890BB2046FBF7A8FF1F4A1F4BFBF73F
:108A300062FCFBF7B5FFC5F8B400FBF771FF25E05A
:108A400095F8D9030128ACD1607C08B90120607485
:108A5000D5F89800FBF791FF164A174BFBF74BFC34
:108A6000164B0022FBF7A0FBFBF76EFF0B490860DB
:108A700070BD00297FF495AF08483221016070BDB8
:108A80000748C5F8B400702000E00020306070BDD9
:108A9000080100206406002000007A4338000040EE
:108AA0000000C84200008C429A9999999999D93F3F
:108AB0000000204214AE47E17A14F23F00003E402D
:108AC000064907480A7822B94CF6CC4202600122D6
:108AD0000A704AF6AA210160704700BFE405002031
:108AE0000030004010B5074C226842F001022260BD
:108AF00001804FF4801000F01BF8206820F0010086
:108B0000206010BD1020024008480168C9071CBF42
:108B1000002070470168490744BF01207047006882
:108B2000C0064FF0020058BF032070470C200240DF
:108B3000B0B50446FFF7E8FF0025013C45F1000110
:108B400018B911B1FFF7E0FFF7E7B0BD2DE9F04725
:108B5000DFF8249699F80100032800F2CB80DFE8C3
:108B600000F002D10BAADFF8D85795F8E9030028E6
:108B700000F0F2810120EBE15F49DFF8C4575F4A62
:108B8000DFF8086601F11000884699F80C1092464B
:108B900011F0010708BF02F10E0095F8C613B047A7
:108BA00008F11200002F08BF0AF1100095F8CD134C
:108BB000B04708F11400002F08BF0AF1120095F821
:108BC000D013B04708F11600002F08BF0AF11400B7
:108BD00095F8D613B04708F11804002F08BF0AF122
:108BE0001604A86AFBF783FE01462046B04708F149
:108BF0001A00002F08BF0AF1180095F8D313B047E8
:108C000008F11C00002F08BF0AF11A0095F8D913CB
:108C1000B04708F11E00002F08BF0AF11C0095F8AC
:108C2000C913B04708F12000002F08BF0AF11E0049
:108C300095F8E013B04708F12200002F08BF0AF1B1
:108C4000200095F8E213B04708F12400002F08BF78
:108C50000AF1220095F8E413B04795F8C60389F8A5
:108C6000020095F8CD0389F8030095F8D00389F840
:108C7000040095F8D60389F8050095F8D30389F820
:108C8000060095F8D90389F8070095F8C90389F813
:108C9000080095F8E00389F80900A86AFBF727FEA9
:108CA000A9F83A0095F8E20389F80A0095F8E40378
:108CB00089F80B0049E1104899F80C200F4926303B
:108CC000D20708BF01F12400B9F83C10FFF70AFFF2
:108CD0000B48016841F080010160012089F8010022
:108CE000B9F83C000130A9F83C0099F80C000130BB
:108CF00089F80C00BDE8F08700F4010802FC0108C7
:108D000010200240B9F83200FBF7ECFDDFF83086A6
:108D10000146D8F81800FBF7B3FD002800F080806A
:108D2000B9F83400FBF7DEFD0146D8F89800FBF7F0
:108D3000A7FD002874D0B9F83600FBF7D3FD044630
:108D4000D8F86800FDF74DFE002869D0B9F8380062
:108D5000FBF7C8FD0546D8F88000FDF753FE002854
:108D60005ED0D8F86C00FDF73CFE002858D0D8F84B
:108D70008400FDF747FE002852D0D8F87000FDF7B8
:108D800030FE00284CD0D8F88800FDF73BFE0028C4
:108D900046D098F8C60399F80210814240D198F85D
:108DA000CD0399F8031081423AD198F8D00399F88D
:108DB0000410814234D198F8D60399F80510814205
:108DC0002ED1B9F83A00FBF78DFD0146D8F82800FE
:108DD000FBF756FD20B398F8D30399F806108142AB
:108DE0001ED198F8D90399F80710814218D198F844
:108DF000C90399F80810814212D198F8E00399F854
:108E0000091081420CD198F8E20399F80A108142C6
:108E100006D198F8E40399F80B1081423FF46AAF49
:108E2000D84DDB4845F80C0CDA4845F80C0C99F89D
:108E30000C00296841F0020110F001062960D049B8
:108E40000C468A4608BF04F500646C60286840F050
:108E5000400028604FF08040FFF76AFE286820F04D
:108E600002002860D8F81800FBF741FDC74FFDF756
:108E7000EFFD0AF10204002E04BF4FF60244C0F6D3
:108E80000104D8F89800FBF732FDFDF7E1FD0AF187
:108E90000404BA4D002E08BFAC1CD8F86800FBF7DC
:108EA00026FDFDF7D5FD0AF10604002E08BF2C1D96
:108EB000D8F88000FBF71BFDFDF7CAFD0AF1080496
:108EC000002E08BFAC1DD8F86C00FBF710FDFDF7B5
:108ED000BFFD0AF10A04002E08BF05F10804D8F806
:108EE0008400FBF704FDFDF7B3FD0AF10C04002E2E
:108EF00008BF05F10A04D8F87000FBF7F8FCFDF78D
:108F0000A7FD0AF10E04002E08BF05F10C04D8F8E5
:108F10008800FBF7ECFCFDF79BFDD8F81800D8F8AB
:108F20007040D8F88850D8F89860FBF7E0FCA9F8B2
:108F30003200FDF7FDFDA9F83400FDF75AFDA9F850
:108F40003600FDF79EFDA9F8380099F801000130C0
:108F500089F80100BDE8F087D14C2046FFF79CFC62
:108F60004FF6FF76B04210D02046FFF795FCB04296
:108F70000BD004F1260000F025F904467F48243088
:108F800000F020F9844205D80DE02046FFF784FC6C
:108F9000B04202D000F03AF932E004F50060FFF789
:108FA0007BFCB04202D000F07DF929E07C4A7E4B88
:108FB0007A4879490024012685F8D64385F8D0639C
:108FC00085F8CD4385F8C64385F8D94385F8D34362
:108FD000AC6285F8E46385F8E26385F8C943C5F8B7
:108FE0008020C5F884306F4A704BA8612867022042
:108FF000C5F89810C5F8881085F8E003C5E91A236C
:10900000AC696B49FDF7DBFC18B96A49FDF709FD4E
:1090100008B96248A861D5F898406749FDF7CFFCC8
:1090200018B96649FDF7FDFC10B95B48C5F8980012
:10903000AC6E5F49FDF7C3FC18B95E49FDF7F1FC62
:1090400008B95848A866EC6E5949FDF7B8FC18B93C
:109050005849FDF7E6FC08B95448E8662C6F5449B6
:10906000FDF7ADFC18B95349FDF7DBFC08B94B48D7
:109070002867D5F880405049FDF7A1FC18B94F4941
:10908000FDF7CFFC10B94648C5F88000D5F88440FC
:109090004949FDF794FC18B94849FDF7C2FC10B9DD
:1090A0004148C5F88400D5F888404349FDF787FC5E
:1090B00018B94249FDF7B5FC10B93748C5F8880022
:1090C00095F8C6033B49022824BF002085F8C60353
:1090D00095F8CD03022824BF002085F8CD0395F82C
:1090E000D003022824BF012085F8D00395F8D603C9
:1090F000022824BF002085F8D603AC6AFDF75FFC88
:1091000018B92F49FDF78DFC08B90020A86295F821
:10911000D303022824BF002085F8D30395F8D90390
:1091200010B1002085F8D90395F8C903022824BF9F
:10913000002085F8C90395F8E003043810F1030F07
:109140009CBF022085F8E00395F8E203043810F193
:10915000040F9CBF012085F8E20395F8E40304386E
:1091600010F1040F9CBF012085F8E403012085F86D
:10917000E903BDE8F08700BF0801002002FC0108F8
:1091800000F401081020024064060020E58A00086F
:1091900023016745AB89EFCD0000A0420000BE432C
:1091A000000048420000A043000070420000AF43AE
:1091B0000000FA430000C842000020430000A04025
:1091C0000000C8C281B00168D0F801008DF800101D
:1091D0008DF801009DF801009DF8001041EA002083
:1091E000ADF80200BDF8020001B0704780B5FFF78E
:1091F000B1FA0548816841F48001816001688907FE
:10920000FCD5C06C80B280BD0024014070B5244CF8
:109210004A4D2046A847FBF765FB494EB061A01CAC
:10922000A847FBF75FFBC6F89800201DA847FBF78F
:1092300059FBB066A01DA847FBF754FBFDF7DCFC0B
:10924000FBF750FBF06604F10A00A847FBF74AFB66
:10925000FDF7C8FCFBF746FB306704F10E00A8479A
:10926000FBF740FBFDF7B9FCFDF7B2FCFDF7ABFCEB
:10927000FDF79FFCFDF798FCFBF734FBB06204F1AF
:109280001A00A847FDF78BFCFDF784FCFDF77DFC79
:10929000FDF776FCFDF76FFC86F8E40370BD00BFB8
:1092A00000F4010870B5244C244D2046A847FBF774
:1092B00019FB234EB061A01CA847FBF713FBC6F8AF
:1092C0009800201DA847FBF70DFBB066A01DA8471E
:1092D000FBF708FBFDF790FCFBF704FBF06604F1DD
:1092E0000A00A847FBF7FEFAFDF77CFCFBF7FAFA49
:1092F000306704F10E00A847FBF7F4FAFDF76DFCA8
:10930000FDF766FCFDF75FFCFDF753FCFDF74CFC39
:10931000FBF7E8FAB06204F11A00A847FDF73FFC3A
:10932000FDF738FCFDF731FCFDF72AFCFDF723FCC7
:1093300086F8E40370BD00BF00FC0108C591000879
:1093400064060020F0B58B790A88032B0AD05BB93C
:109350004979282913D0182912BF01F00F010261A1
:1093600008210EE000210CE00C79C97903F0080314
:1093700004F0040401F003012344194401E04261B4
:109380000821130616D000230F240025082D11D024
:1093900022FA05F6F6070AD0076804FA03F627EA68
:1093A0000606066001FA03F607683E4306600433CA
:1093B0000135EBE7B2F5807F17D3120A00230F24A3
:1093C0000025082D11D022FA05F6F6070AD04768C5
:1093D00004FA03F627EA0606466001FA03F6476830
:1093E0003E43466004330135EBE7F0BDB8B1F8B554
:1093F0000B4F04461E200D46B847064620744FF416
:109400004870B84760740020B847A0742846B84731
:10941000E074300604BF01202074BDE8F8407047B6
:1094200005AC00082DE9F84FDFF85C9B99F8E903DB
:10943000012840F09D8599F8C403002840F09885E4
:10944000DFF848AB9AF80F0008BBDFF8444B012067
:10945000DFF8405B00218AF82E008AF80F0004F143
:109460001C00A84704F130000021A84704F1440083
:109470000021A84704F158006421A847DFF8184BE1
:1094800064212046A84704F114000021A8470020C9
:109490000FF608314FF0020B4FF0040E4FF08078BA
:1094A0004FF0030C0025062D00F08A8051F825307E
:1094B0001C689E88A768DC79042C59D83740BE1BED
:1094C000B6FA86F677099E79DFE804F003311A2AA6
:1094D0000D00BE4204D1D873188183F807B098817B
:1094E00000245C8145E0BE4232D19A89DE7C541C66
:1094F0009C81EEB3A2B2B2423AD39881042438E000
:10950000BE422BD11A891C7C01321A8192B2A2422E
:109510002ED39A7B01241881DC7101329A7328E0E2
:10952000BE421ED1002483F807B09C6021E0BE42F9
:1095300025D11A895C7C01321A8192B2A24217D3DA
:10954000DA7BAAB983F807E0C3F80C80032410E0A3
:10955000002483F807B0DC731C810AE00024DC716E
:1095600007E05A899C7C01325A8192B2A24219D2F8
:1095700000240AEB0502013582F8584093E75A7C33
:109580001C89588183F807B0944214D29C7BA4B103
:10959000012C07BF83F807C00024D871987318BF47
:1095A00005240AE09A7BD8719873013AB2FA82F2E4
:1095B00052095400DDE702249873D8731881D8E764
:1095C0009AF85800022814D0032841D1FDF750FA28
:1095D0003ED1FDF740FA28D1FDF759FBC9F87400D8
:1095E000FBF74EF8D749FBF7A3F8D749FBF7D2F8BA
:1095F0001DE0FDF7A7FA2BD0D448D549D9F8802033
:10960000C9F8BA030120FDF745F9D9F86800C9E99E
:109610000601CD49FBF78CF8CA49FBF7BBF8FDF70B
:109620001DF9C9F8200000200FE0D9F81800C8493A
:10963000C9F86800012089F8B80389F8BE03FDF76E
:109640001EFBD9F89810C9F88010DFF84419087289
:109650009AF8590003281DD0022842D1FDF772FA6A
:109660003FD0BA48BA49D9F88420C9F8BA030220D1
:10967000FDF710F9D9F86C00C9E90601B249FBF70A
:1096800057F8B049FBF786F8FDF7E8F8C9F820006D
:10969000002023E0FDF7ECF923D1FDF7DCF90CD134
:1096A000FDF7F5FAC9F87800FAF7EAFFA549FBF7E4
:1096B0003FF8A549FBF76EF801E0D9F81800A44976
:1096C000C9F86C00022089F8B8030120FDF7D7FA29
:1096D000D9F8981089F8BE03C9F88410DFF8B018DB
:1096E00008729AF85A0003281DD0022842D1FDF7CB
:1096F00029FA3FD095489649D9F88820C9F8BA0385
:109700000320FDF7C7F8D9F87000C9E906018E49B2
:10971000FBF70EF88B49FBF73DF8FDF79FF8C9F80A
:109720002000002023E0FDF7A3F923D1FDF793F9F2
:109730000CD1FDF7ACFAC9F87C00FAF7A1FF81491A
:10974000FAF7F6FF8049FBF725F801E0D9F8180091
:10975000C9F8700003207E49D9F8982089F8B80329
:10976000012089F8BE03C9E92221C9E92411DFF8E3
:10977000201808729AF85B00042808D002280DD13E
:10978000DFF80C08FDF70EF91DD1092105E0DFF81F
:109790000008FDF707F934D10821C1709AF85C0080
:1097A000042809D0022840F0D780DFF8E407FDF74D
:1097B000F9F818D10A21CEE0DFF8D407FDF7F2F866
:1097C0002CD10B21C7E099F8E413032961D00229B9
:1097D00048D00129E2D1FDF771F946D00021C170CE
:1097E0008AF82410DAE799F8E413032971D00229E2
:1097F00044D0012940F0B080FDF760F941D002214A
:1098000017E099F8E413022916D00129C6D1FDF713
:1098100055F914D00121C170002085E099F8E413B6
:10982000022914D0012940F09780FDF747F911D0A3
:109830000321C17000207DE0FDF740F96AD19AF85C
:109840002410012979D00029A8D10121A5E7FDF72D
:1098500035F961D19AF82410012960D000297BD113
:10986000032178E0FDF72AF95BD19AF82410012949
:1098700065D000297FF492AF00218EE7FDF71EF935
:1098800055D19AF82410012964D0002964D102210D
:1098900061E099F8B803FDF715F988BF012089F850
:1098A000B803FDF74BF90FD8DFF81407DFF81427DA
:1098B000FCF7E5FF2449FAF73BFF2249FAF76AFF74
:1098C000FCF7CCFFC9F8200021482049FDF7AFF98B
:1098D00064E799F8B803411E022838BF032189F8CC
:1098E000B813481EC1B202290FD8DFF8D406DFF83A
:1098F000D426FCF7C4FF1449FAF71AFF1149FAF706
:1099000049FFFCF7ABFFC9F8200011480F49FDF7EC
:109910008EF921E0052105E001218AF824100721B4
:1099200019E00421C17001208AF8240036E70621DD
:10993000C17001208AF824000EE005212DE70421E2
:109940002BE700BF0000A04000001041E803E8033F
:1099500000007F430621C1709AF85D00032837D0CC
:10996000022840F0E180DFF828060021017299F812
:10997000E21303294BD002293ED0012940F0D480C4
:109980009AF80D10012946D0FDF7DCF800F0CC80E4
:1099900099F8B803FDF796F888BF012089F8B80355
:1099A000FDF7CCF80FD8DFF81806DFF81826FCF71B
:1099B00066FFD249FAF7BCFED149FAF7EBFEFCF795
:1099C0004DFFC9F82000D048CE49FDF730F9ABE093
:1099D000DFF8BC050121017299F8E003032802D0E9
:1099E00002280DD0A0E099F8C90301285ED0002814
:1099F00040F09A8001205AE09AF80D1001290AD00F
:109A0000FDF7A0F81ED289F8CB0302201DE09AF8DA
:109A10000D1001293CD101218AF80E10502141611D
:109A200099F8E4139AF8240002291AD001291FD1C9
:109A30000130C1B28AF82400022924BF0021AAF80B
:109A40000D1015E003D199F8CB0389F8C9034FF441
:109A50007A70A9F8BC030020C9F8AC00C9F8C000AE
:109A600062E090B3012803D100208AF8240003E0CB
:109A7000C0B201281ED070BBA848C9F8A000C9F820
:109A80002400C9F81C004FF47A70C9F8BA034BE0FF
:109A900099F8C90350B3012826D0022829D199F892
:109AA000CB0301282ED080BB01202CE0002089F8B8
:109AB000C90339E000208AF829004FF07A70C9F80C
:109AC000BA039648C9F89C000BE00020AAF80D00E4
:109AD00002208AF8240091480021C9F8BA13C9F875
