:020000040800F2
:10400000480E00208541000803680008714D000833
:1040100001680008474A00082D87000800000000DA
:10402000000000000000000000000000DD6C00083F
:10403000494A000800000000DB6C0008E16C000841
:104040009F4100089F4100089F4100089F410008D0
:104050009F4100089F4100089F4100089F410008C0
:104060009F4100089F4100089F4100089F410008B0
:104070009F4100089F4100089F4100089F410008A0
:104080009F4100089F4100089F4100089F41000890
:104090009F4100089F4100089F4100089F41000880
:1040A000B58100089F4100089F4100089F4100081A
:1040B0009F4100089F4100089F4100089F41000860
:1040C0009F4100089F4100089F4100089F41000850
:1040D0009F410008058700089F4100089F41000894
:1040E0009F4100089F4100089F4100080000000018
:1040F00000000000000000000000000000000000C0
:10410000000000009F410008E58100080000000059
:104110009F4100089F4100080000000000000000CF
:104120009F4100089F4100089F4100089F410008EF
:10413000000000000000000000000000000000007F
:104140000000000000000000000000009F41000887
:1041500000000000000000009F4100089F4100088F
:104160000000000000000000000000009F41000867
:10417000DFF80CD000F0A0F900480047CD9F000800
:10418000480E00200648804706480047FEE7FEE745
:10419000FEE7FEE7FEE7FEE7FEE7FEE7FEE7FEE7F7
:1041A00041810008714100082DE9FE4F804681EAF7
:1041B0000300C00F0C46009021F0004123F00045A1
:1041C000B8EB0200A94105D24046214690461C4664
:1041D0000B46024623F00040104347D0270DC7F39B
:1041E0000A00C3F30A510290401A019040286BDA8A
:1041F000C3F3130040F4801B0098924620B10023C3
:10420000D2EB030A63EB0B0B01985946C0F1400255
:10421000504600F069F906460D4650465946019A47
:1042200000F081F910EB08006141002487EA115287
:1042300084EAE7731A4340D0009A62B3019A012AD4
:104240004FEA075215DC001B61EB02014FF0004200
:1042500002EA0752CDE90042001C41F580113246C6
:104260002B4600F081F903B0BDE8F08F40462146AF
:10427000F9E7001B61EB0201001C41F580130018F7
:104280005B412018A2F5001747EB030140EAD57007
:10429000B6196D4111E06D084FEA360645EAC07562
:1042A0004FEA0752001B61EB0201001C41F580112F
:1042B00049084FEA30000019514132462B4603B0FD
:1042C000BDE8F04F00F041B9009801224000002302
:1042D000D0EB020263EBE073009821464FEAE074F2
:1042E000B8EB000061EB0401E9E783F000435BE712
:1042F00081F0004158E72DE9FE4F81EA030404F004
:10430000004421F0004100944FF0000B23F00043E3
:1043100050EA01045ED052EA03045BD0C3F30A54AE
:10432000C1F30A552C44A4F2F3340194A0FB0254C7
:10433000C1F3130141F48011C3F3130343F4801359
:1043400001FB024400FB034E840A970A44EA8154AD
:1043500047EA8357A4FB076802958D0A05FB07858A
:104360004FEA932C04FB0C542705029D4FEA065894
:1043700047EA1637B5EB08056EEB070C870E920E71
:1043800047EA811742EA8312A7FB0201B6EB0B0151
:1043900064EB00042B0D43EA0C335E1844EB1C5015
:1043A000DA465146E7FB0201C5F313044FEA0B332B
:1043B00043EA14534FEA0432019C43EA0603A4F192
:1043C0000C040294009CCDE900B400F0CDF803B0D9
:1043D000BDE8F08F00200146F9E72DE9F04D81EAB4
:1043E000030404F0004B21F0004514464FF0000A8E
:1043F00023F0004150EA050220D054EA01021DD00A
:10440000C5F30A570246C5F31303C1F31300C1F302
:104410000A5640F4801543F48013A7EB0608101BDE
:10442000D64608F2FD3873EB050002D308F1010807
:1044300001E092185B41B8F1000F03DA0020014659
:10444000BDE8F08D00204FF48011064684460EE052
:10445000171B73EB050705D3121B63EB050306431C
:104460004CEA010C49084FEA300092185B4150EACF
:104470000107EDD152EA030012D082EA040083EA78
:104480000501084305D0101BAB4106D201220023D1
:1044900006E000224FF0004302E06FF001025310EB
:1044A0001AEB06004CEB085110EB0A0041EB0B0134
:1044B000BDE8F04D00F049B81CB509480090094826
:1044C00001900546009C06E0E06840F0010394E896
:1044D000070098471034AC42F6D3FFF74DFE0000BA
:1044E000F4DD010814DE0108202A04DB203A00FA7A
:1044F00002F1002070479140C2F1200320FA03F33B
:10450000194390407047202A04DB203A21FA02F038
:104510000021704721FA02F3D040C2F120029140FD
:10452000084319467047202A06DBCB17203A41FA88
:1045300002F043EAE07306E041FA02F3D040C2F130
:104540002002914008431946704710B5141E73F1BC
:10455000000408DA401C41F1000192185B411A4343
:1045600001D120F0010010BD2DE9F04D92469B468F
:1045700011B1B1FA81F202E0B0FA80F22032904635
:10458000FFF7B2FF04460F4640EA0A0041EA0B017A
:1045900053465A46084313D0114653EA010019D036
:1045A000C8F140025046FFF7AEFF05460E465046A2
:1045B00059464246FFF798FF084305D0012004E022
:1045C00020463946BDE8F08D0020054346EAE076F6
:1045D0002C4337430A986305E40AA0EB0800002245
:1045E000FD0A44EA47540A3002D500200146E9E7B3
:1045F000010510196941DDE9084500196941BDE867
:10460000F04DA2E70EB540F2334102910021CDE911
:1046100000110A460B46FFF7A7FF03B000BD70B5B7
:10462000C1F30A5201F000450024C1F3130140F226
:10463000FF3341F480119A4201DA002070BD40F24C
:1046400033439A42A2F2334203DC5242FFF75BFF4C
:1046500000E090402C43F1D0404270BDD2B201E066
:1046600000F8012B491EFBD270470022F6E710B577
:1046700013460A4604461946FFF7F0FF204610BDD0
:10468000F0B480EA0102D40F4200B2EB410F02D233
:104690000246084611464A0042D0C30DDDB2C1F3BE
:1046A000C752AD1A202D35DAC1F3160141F40002CC
:1046B00004B15242C5F1200602FA06F12A41104423
:1046C000B3EBD05F23D0C4B1012DA0EBC35009DC04
:1046D000F0BC4FF0004202EAC352DBB200F500002A
:1046E00000F083B9400000F1807000EBC350A0F1EE
:1046F000807040EAD170490009E0490841EAC07180
:10470000A0EBC35000F50000400800EBC350F0BC24
:1047100000F062B96142012202EB4101001BF6E7A1
:10472000F0BC704781F00041AAE780F00040A7E7A5
:1047300080EA010210B502F00043400022D04A0096
:104740001FD0010E01EB1261C0F35600C2F35602F6
:1047500040F4000042F40002A0FB022000047F3974
:10476000140400D0401C50EA124001D44000491EFD
:10477000C2B20C0604EBD010401C4008802A02D0C4
:1047800003E0002010BD20F00100002900DA002025
:10479000184310BD30B480EA010202F0004530F049
:1047A000004221F0004013D090B1C30DD40DC2F3EC
:1047B0001601C0F31600E41A41F4000140F40002AF
:1047C0007D34914201D3641C00E04900002C02DAE0
:1047D00030BC002070474FF400000023914201D309
:1047E000891A034340084FEA4101F7D151B1914280
:1047F00002D14FF0004105E002D24FF0010101E08B
:104800006FF0010103EBC450284430BC00F0E4B861
:10481000002801DBC0F10040002901DBC1F10041AB
:10482000814201D80120704700207047002801DB39
:10483000C0F10040002901DBC1F10041814201D2F9
:104840000120704700207047002801DBC0F10040C4
:10485000002901DBC1F10041814201D301207047F1
:1048600000207047002801DBC0F10040002901DB77
:10487000C1F10041814201D90120704700207047F9
:10488000002801DBC0F10040002901DBC1F100413B
:10489000814201D1012070470020704730B5041ECD
:1048A00071F1000404DB4FF00044404264EB01016D
:1048B000141E73F1000405DB1C464FF00043524206
:1048C00063EB0403801A994101D2012030BD00201E
:1048D00030BDC10F80EAE0700844CA07962300216A
:1048E00000F083B896230022114600F07EB800F055
:1048F000004220F00040C10DC0F3160040F400005B
:104900007F2901DA00207047962903DCC1F1960166
:10491000C84001E096398840002AF4D040427047F0
:1049200020F00040C10DC0F3160040F400007F29C4
:1049300001DA00207047962903DCC1F19601C840D6
:104940007047963988407047C1F30A5210B5C1F3D9
:10495000130140F2FF3341F480119A4201DA002042
:1049600010BD40F233439A42A2F2334203DC52427A
:10497000FFF7C9FD10BD904010BD00F0004230F0BF
:1049800000400AD0C10D01F56071C0F3160042EA83
:104990000151C2084007114370470020014670478B
:1049A00001F0004330B421F0004150EA010206D08A
:1049B0000A0DA2F56072C1F31301002A02DC30BCBB
:1049C00000207047440F44EAC104C100E01830BC25
:1049D00000EBC250AFF300800029A8BF7047401C15
:1049E000490008BF20F00100704710B4B0FA80FC05
:1049F00000FA0CF050EA010404BF10BC704749B142
:104A0000CCF1200421FA04F411FA0CF118BF0121B1
:104A100021430843A3EB0C01CB1D4FEA00614FEA91
:104A2000102042BF002010BC704700EBC350104460
:104A30000029A4BF10BC7047401C490008BF20F0EB
:104A4000010010BC7047FEE7704700002DE9F84FE9
:104A500041F6A309622A88460546DFF890A09B46E6
:104A6000CDF8009028BF6222052A98BF0522C2F126
:104A70006400A62148436421424680B2B0FBF1F7AE
:104A80002846532107F153063346D0470A9831464A
:104A90000F220F230090681E84B2204603F0DAFD37
:104AA0006137284642464FF48073CDF800B039464E
:104AB000D047204653212A463346CDF80090D047B0
:104AC000204639462A4602F0B5F808F10100532184
:104AD0003346CDF8009084B240462246D047404647
:104AE0003946224602F0A6F8BDE8F88FB34E00081A
:104AF000438E4FF6FF7293421CBF5A1C428670B51C
:104B0000CB1C0021062B24D8DFE803F00423142358
:104B10000823200001F063FF04211AE0038C418682
:104B20009A4238BF012180F834104FF0010138BF9C
:104B300009210EE0038C41869A4238BF012180F89A
:104B400034104FF0020138BF0A2102E001F047FFA4
:104B50000321024612F8305F12F8093C12F8036C88
:104B6000DCB202F8033C84F001033343B3FA83F36D
:104B70005B094DB1002B5ED0002280F83020C28549
:104B8000826280F82C2056E0458D6DB1013D45854F
:104B90002D0401D0002508E090F82C50012D03D100
:104BA000002101F01CFF05210125BCB1002B42D0E2
:104BB000024632F8283F32F8104CA34239D3448BD6
:104BC000A3422FD290F82C3085F00104013B18BF8E
:104BD000012323432DD1838B43852AE0038D048B4E
:104BE000013303859BB2A3420AD12DB990F82C4022
:104BF000012C01D1062101E000F12C0201241470E6
:104C0000428B934217D3C38DC28B01339CB2B4FB4A
:104C1000F2F505FB1242002A18BF1A46C28508BFEA
:104C2000082108E0002180F83010C1851160117161
:104C3000072100201080084670BD2DE9F04701686B
:104C400082888B68816886898D680469818AA468F6
:104C500005EA0607BD1B04EA010CB5FA85F5ACEBC5
:104C600001044FEA551E90F82450B4FA84F4640904
:104C700080F8264080F8274003EA0204A31AB3FA1A
:104C800083F34FEA531A837D1BB355452ED0B7EB00
:104C9000060918BF4FF0010990F82580B8F101030B
:104CA00018BF0123BD1BB5FA85F56D091D4394425C
:104CB0001FD165B1B8F1000F08BFB7423DD0A8EBD6
:104CC0000E02B2FA82F2520912EA090F3DD0012512
:104CD0001EE055450AD04FF0FF35B74280F825E079
:104CE00080F824A008BF0125944217D10220002596
:104CF0001DE065B1B8F1000F08BFB74221D0A8EBA5
:104D00000E02B2FA82F2520912EA090F27D0FF25E9
:104D10004FF0000E80F825E080F824A0EAB26FF092
:104D20000200012A08BF0320002A08BF02208C4588
:104D300018BF054668B2BDE8F087FF254FF0010EA9
:104D4000E8E74FF0010E0125E4E787EA060288EA6A
:104D50000E031A43B2FA82F252095542DAE787EAA1
:104D6000060288EA0E031A43B2FA82F25509D1E725
:104D7000FEE700002DE9F84FDFF88CB007462A2047
:104D8000984692468946D847F44C4FF40045380A75
:104D9000F3494FF480666560C4F8FC03F8B20E6016
:104DA000C4F80068256065600F46C4F8FC034FEA4C
:104DB0001A200E6001F07AFD5FFA8AF00E6001F0B1
:104DC00075FD2B200E60C4F800682560D8474FEAB7
:104DD000192065605946C4F8FC035FFA89F03E600B
:104DE00001F064FD4FEA18203E6001F05FFD5FFABC
:104DF00088F03E6001F05AFD3E60C4F8006825600E
:104E00002C20BDE8F84F0847655100082DE9FE4FFA
:104E10000C46A3EB010B111A05460029029101DD96
:104E2000012008E005D00298404202904FF0FF3088
:104E300001E000200290BBF1000F019001DD01268E
:104E400007E019BFCBF1000B4FF0FF364FF0000B1E
:104E5000002602985F464FF000084FF000094FF01F
:104E6000000A584588BF07461FFA88F08742B8BF36
:104E7000BDE8FE8FA8B2A1B202460B46FFF77AFF4B
:104E80000C9800F05DF90AEB0B0008F10108B8423C
:104E9000C8BF34440299019A4944B942C8BF154475
:104EA000B0EB070AD8BF8246B1EB0709D8BF8946E5
:104EB000DAE72DE9F8438146501E154698460E461E
:104EC00082B2581E83B24846FFF754FF089CB0B226
:104ED000404528BFBDE8F8834F46B8B2A84204D287
:104EE000204600F02DF90137F7E70136EFE7000023
:104EF00010B5002005F092FFA548A44A4FF40041E8
:104F00004FF4006341601360D0F8F843C0F80038F4
:104F10000160102005F082FFA0B210BD2DE9F04F16
:104F200087B0119F1C46904600EB5702CB1901F049
:104F3000D8FD01203909109E4FF0000B17F00E0F1D
:104F400018BF00EB171101FB07F00690A8F1200035
:104F50004FF4C8717D084FF00008C2B22D48059289
:104F600012FB010004902F4800EB021003902B4825
:104F700000EB82100290284800EB02200190069876
:104F8000804543D0502F16D0102F18D00598182FD9
:104F900000EB400009D0202F0FD0402F09D00C2F5C
:104FA00034D1214901EB80000AE01D4901EB0010DA
:104FB00006E0019804E0049802E0029800E00398FB
:104FC00040440BF108074FF0000A90F80090BAF146
:104FD000080F13D029FA0AF0C007204608BF304650
:104FE00000F0AEF80BF1010B1FFA8BF0B0FBF5F1FE
:104FF00001FB150020B10AF1010AE8E7BB4601E018
:105000004FF0000B119F08F10108B8E707B0BDE8A9
:10501000F08F00BF2849010828EA000868D200087C
:1050200098C00008A8BA000834B600082DE9FE4F61
:1050300007460D98994692460E4600254FF00A08FD
:105040004FF0000B4408032D08BFBDE8FE8FC5F1EB
:1050500002000121020604D001EB81010138490060
:10506000F8E7BAFBF1F0BBF1000FB0FBF8F101EB90
:105070008101A0EB410105D1012D03D8080410D016
:105080004FF0010BDDE90C2041F030014B46CDE93A
:10509000002005FB0470CAB2314601F01BFE013549
:1050A000D1E7DDE90C1030224B46CDE9001005FBBD
:1050B0000470314601F00EFE4FF0000BEFE72DE9D2
:1050C000FC47DDF82880994615460E4607464FF006
:1050D000000A4FEA58042A784AB1B8B231464B4622
:1050E000CDE900A8FFF71AFF27440135F3E7BDE833
:1050F000FC8700002DE9FE4F1C46904689468346FA
:105100005D0800260FF2300A0027072F08BFBDE810
:10511000FE8F781EC0B205280AD81AF800200BEBC3
:10512000060049464FF6FF73CDE9008401F0D2FD39
:105130002E440137E9E700BF56312E302E330000F0
:1051400013494FF400424FF480634A60C1F8FC03F6
:105150000E480360C1F800380A607047100801402B
:105160001410014010B50949094B4FF480524FF417
:1051700000440A605C60C3F8FC034FF48060086080
:10518000C3F80008C3F800281C6010BD14100140CB
:10519000100801402DE9F04F95B0DFF844BE9BF8B0
:1051A000150001282BD0002841F0ED82DFF8349E55
:1051B00099F8E60302282BD1D9F8B040D14901F083
:1051C0004EFC00286FD0CF4901F046FC002840F08B
:1051D000BD8099F8C003002840F0B8809BF81D00FE
:1051E000002840F0B3809BF81E0001308BF81E00B1
:1051F000C0B2032824BF0120ABF81D006FE09BF86C
:105200002900012808D1DFF8DC0D90F8D1031CE05B
:1052100000208BF81D0099E03D2000214FF4F07232
:105220001E230090002003F015FA40F29F10082181
:1052300043F286121023FFF75DFF0120DFF8A41D63
:105240008BF82900FF2081F8D103DFF8988D98F8BA
:10525000D01388420FD03F20012908BF3E20009084
:105260004FF4C77006211522152303F0F3F998F8BF
:10527000D00388F8D10398F8C90398F8CA1381427B
:1052800034D0012803D098F8CB13012929D17020FC
:1052900003212A221823009040F2631003F0DAF968
:1052A00098F8C90320E09BF81C0001308BF81C0023
:1052B000C0B215280AD300208BF81C009BF81B00F5
:1052C000013000F003008BF81B0001E09BF81B008D
:1052D00000218BF81D10DFE800F002302C2E562044
:1052E0002CE000218BF8291088F8CA0398F8C40331
:1052F00010B1FF2188F8C51398F8E6134FF6FF7A2E
:1053000001F0FE02022A4FF6FF7240F0518798F832
:10531000C523824200F0A381032800F29A81DFE8CE
:1053200010F0040090018C018E01012088F8E70341
:105330008FE1582002E0592000E0572000904FF400
:10534000D77028212422222303F084F999F8E80356
:10535000D8B1DFF8941C8A69501E886199F8C60399
:10536000002A14DC002289F8E8234FF496728A613F
:1053700020B301280BD1022089F8E6039BF819001D
:10538000A0BB01208BF8190014E099F8C6039BF824
:10539000191009B150BB19E0012101288BF819102F
:1053A00008D018BB99F8C203012805D8022089F853
:1053B000E6030BE0032017E000200DE0032089F84E
:1053C000E6039BF81900002800F0E68199F8C21363
:1053D0000020022938BF012099F8E61301F0FE01F0
:1053E000022903D110B1022089F8E60399F8E603F7
:1053F00099F8E7234FF6FF7182425CD0DFF8E82B83
:10540000414B89F8E703D1814049FF22C9E90433C0
:10541000C9F83830C9F8303089F8B92389F8CE2373
:1054200089F8D42389F8C7238BF81720C9F81C10F2
:10543000C9F85410C9F8081001F018FAC9F89C10FE
:10544000C9F84410C9F8A41001F033FCA0F11D0103
:10545000CAB21F2A23D89BF81A2082B904201E2121
:105460004FF4F0724FF491730090002003F0F2F8C3
:1054700001208BF81A0099F8E603A0F11D01C9B2CA
:10548000062905D3A0F12D01C9B20D2900F2AE8085
:1054900000904F2046214FF4A172A52309E000217E
:1054A000009000204FF4F0724FF491738BF81A10B3
:1054B0001E2103F0CFF89BF8210001280DD0002811
:1054C00040F09D81B9F8BA0390B199F8E663022ED5
:1054D0002FD0032E32D119212CE0B9F8BC03B8B17A
:1054E00099F8E663022E50D0032E53D119214DE0D6
:1054F0009BF82800002800F0E18001385F468BF817
:1055000028008AE00000A04200007A4400007F43A7
:10551000D9F89850D9F8A00001F08FFA002840F08F
:105520000B8199F8BE03002840F06681D9F8B44099
:105530000DE10521D0FA51F0A9F8BA030020D9F8FD
:1055400020505F46C9E90200D9E9064001F05DFA42
:1055500028B1D9F8240001F070FA00285DD199F83B
:10556000CD03C9F82450C9F81C40002808BF2546BF
:1055700001F0A2FA0446022E45D0032E4DD101F0CF
:1055800086FB40F28910502143E00521D0FA51F00A
:10559000A9F8BC0399F8C973022F04D08948C9F847
:1055A000B800C9F8A000D9E92640D9F8BC5001F0EC
:1055B0002CFA30B1D9F8C00001F03FFA002840F0D1
:1055C0001B81C9F8C050C9F89C40022F08BF2C4667
:1055D00001F023FA0446022E24D0032E40F00C8161
:1055E00001F055FB4FF4CB70CD2123E0A0F1230156
:1055F000C9B2072900F2D480009050203B2140F22C
:105600003F12BB2355E75E2001F033FA01F023FB84
:1056100078214FF66143FFF709FD97F82100BB465B
:10562000411CEAE0622001F00BFA01F014FB4FF498
:105630008770782143F67F43DCE0462002E0442077
:1056400000E0422000907B207B21EB22672303F0C7
:1056500001F898F8C40398F8E61388F8C5030229FE
:105660004FF6FF7240F0A48598F8C003022804D0DA
:10567000012812D0002840F05C8518200024342135
:1056800000224FF6FF73CDE9004040F24510FFF7CE
:10569000CDFCABF8404000F04CBD98F8C2030128A7
:1056A00002D198F8D90320B198F8C943022C40F0F0
:1056B00016840020ABF8400000F03BBD99F8C4030D
:1056C0005F460028A9D1D9F82850D9F80040002118
:1056D0002846FFF7D5F83C4906462846FFF728F844
:1056E0003A49FFF757F801F0D7F885F00041002E4E
:1056F00018BF084699F8CDA3BAF1010F18BF0846A4
:10570000FFF7F5F8054699F8C903012840F0198418
:10571000BAF1010F40F042842B4901F0BFFA2B4946
:10572000FFF738F801F0B8F82949C9F80400FEF786
:10573000A7FF064600F014BCD9E92D4001F065F939
:105740000021002859D199F8BE03002855D199F8B5
:10575000C01399F8C22399F8D93399F8E603C9F828
:10576000B840C9F8A050090608BF2C4682F00101D4
:10577000DAB2114318BF2C4602282BD003283BD1A4
:1057800001F04BF90246202043F28611CDE90010CA
:105790004FF4CB70CD212BE001208BF8190001E6EE
:1057A000A0F13B010229C0F0C483A0F12B01012923
:1057B0003FF681AE0090482058214FF4A872822312
:1057C00077E600BF00007F43000010410000A040CA
:1057D0000000F4C2602001F033F901F01EF9024626
:1057E000502041F6A301CDE900104FF487707821D5
:1057F0004FF6FF73FFF71AFC00218BF8211099F880
:10580000E603022800F05981032840F06B819BF8E1
:10581000180058B9002029214FF4BC72FA230090D7
:105820001220FFF746FB01208BF81800D9F8006022
:10583000CF49D9F84850D9F8B08001F025FA99F845
:10584000C943012C18BF3046FFF751F80646FFF751
:1058500040F801462846FFF705F8074601F02CF905
:105860000546002F08BF354699F8C00350B1C1491D
:105870004046FEF7DBFF28B99820022C08BFBC2069
:1058800059F8008028B2CA46FFF723F8BA490546FE
:10589000FEF7DAFFB94E00281CBF0025C4F2FA3526
:1058A00028463146FEF7B4FFB54A00281CBF002544
:1058B000C4F2C8252846314605F070FCABF8440018
:1058C0004046FFF714F8FFF70DF8AE4901F0F1F884
:1058D00000281CBF0024C4F24834204600210026C2
:1058E000FEF796FF0028A84A18BF00242046002192
:1058F00005F054FCABF8460040F2651744F6384B0F
:105900004FF00009B9453CD009F112000AEB090833
:10591000009684B209F1140098F8EC1098F8ED3074
:1059200085B220462A46FFF771FA98F8521298F885
:10593000533220462A460096FFF768FAB9F5B27F3F
:1059400014D04FF2604098F8EE3098F8ED102A46E7
:1059500000902046FFF75AFA98F8543298F85312FC
:1059600020462A46CDF800B0FFF750FA98F8ED002F
:1059700009F1010988F8EC0098F8530288F85202FE
:10598000C0E7DFF8081EDFF8206ED146002448F299
:105990000F454727B1F844008AF85102B1F8460094
:1059A0008AF8B7034FF02A0ABCB1052C2DD004FBAE
:1059B0000AF04FF4BC720095283081B212200B46D9
:1059C000FFF724FA04FB07F02821FA230095123090
:1059D00080B20246FFF71AFA15E0122028214FF490
:1059E000BC7228230095B047122028211222FA23E6
:1059F0000095B0471220FA2101F0E0F84FF4BC7096
:105A0000282101F0DBF80134CEE773202A212F2270
:105A100019230090142002F01DFEDFF89C4D0C2588
:105A20000FF688521520462100F0BAFF0FF68C526F
:105A30001520702100F0B4FF0FF68C5215209A212A
:105A400000F0AEFF0FF68C521520C42100F0A8FF25
:105A50000FF68C521520EE2100F0A2FF74202A21AF
:105A600017221723009040F25F1002F0F3FD0FF6AB
:105A70007C524FF4B270462100F082FF0FF6705254
:105A80004FF4B270702100F07BFF0FF668524FF4B4
:105A9000B2709A2100F074FF0FF65C524FF4B570AB
:105AA000C42100F06DFF0FF654524FF4B870EE2190
:105AB00000F066FFDFF8D4BCAAE0D9E90045D9F8C8
:105AC000100000F0A2FF88B9B9F8BA1399F8CD0315
:105AD000C9E90445A1B100B3D9F820002B49FEF76C
:105AE000CFFD17E000208BF8180091E0D9F81400E2
:105AF00000F0A3FFB9F8BA130028E7D059B3E5E7DF
:105B000099F8C96360B121492846FEF7B9FD012E15
:105B100018BF28461E4C1F4D0AE0D9F8180005E0B2
:105B2000134900F059FF012E18BF20461A4C1B4D97
:105B3000FEF723FF02460B4628462146FEF7DBFB15
:105B4000FEF76DFD02466A2027214FF6A043009024
:105B50001A20FEF77BFFD9F89840D9F8A400D9F8AD
:105B6000B45000F052FFD8B9D9F8BC6025E000BFAE
:105B7000000048C20000F0410000FA430000C842A3
:105B8000000016440000484300007A430000F4C2BD
:105B9000E3A5BB3FD9CEF7539999C93F9A999999F3
:105BA000D9F8A800D9F8BC6000F047FF28B1D9F8AF
:105BB000AC003146FEF764FE50BB09F1A40070C092
:105BC00099F8C003012809D199F8C203012805D129
:105BD00099F8D90310B9B9F8BC0320B100F04DFE13
:105BE00008BF3446254600F067FFFEF70BFDEA4B81
:105BF0000022FEF780FBFEF712FD02466B204FF4F9
:105C0000E37140F25F43009040F2B910FEF71EFFCF
:105C100099F8E603011F11F1020FC0F0BB8046F2B4
:105C200069605D214FF481724FF49473ADF85000B8
:105C30003020109346F268531291CDE90C21CDE942
:105C4000072199F8B813119213900E9009905A20D9
:105C5000ADF83C30C123069099F8B9030B9346F296
:105C60006743ADF82830884247D006AC012604F1DE
:105C70000805042E10D099F8B903864209D16F7A2D
:105C8000AB882A8835F8041C35F8080C009702F018
:105C9000E1FC14350136ECE799F8B90308B10428A2
:105CA0000DD300253C2D0AD06619605BB38932897B
:105CB000B188767C009602F0CDFC1435F2E799F8B5
:105CC000B803411ECAB2022A0FD8900050FA81F1DF
:105CD00034F8210004EB8104A3892289A188247C63
:105CE000009402F0B7FC99F8B803C049002289F883
:105CF000B9038BF8222000F0B9FD002848D09BF8AA
:105D00002200002844D1D9E91A06D9F81850D9F848
:105D10002040FEF7ECFDADF8120000F019FFADF8E1
:105D20001400D9F87000FEF7E2FDADF81600D9F8BE
:105D30007400FEF7DCFDADF80C00D9F87800FEF732
:105D4000D6FDADF80E00D9F87C00FEF7D0FDADF819
:105D5000100000F0B1FE054600F05FFE00210DF1DD
:105D6000120203AB032909D032F81140AC420FD024
:105D700033F8114001318442F4D109E09B48C9E96C
:105D80003500C9E93700C9E9390001208BF8220044
:105D900099F8E60300F0FE00022840F09B80D9F855
:105DA0006840D9F8D400D9F8745000F02EFE20B124
:105DB000D9F8E00000F041FE90B900F067FE08BF9E
:105DC0002C4600F02AFE00F065FE602000F0C5FDC4
:105DD000D9F86800D9F87410C9F8D400C9F8E010EF
:105DE000D9F86C40D9F8D800D9F8785000F00DFEF9
:105DF00020B1D9F8E40000F020FE90B900F046FE92
:105E000008BF2C4600F009FE00F044FEC72000F059
:105E1000A4FDD9F86C00D9F87810C9F8D800C9F8F1
:105E2000E410D9F87040D9F8DC00D9F87C5000F0C3
:105E3000ECFD20B1D9F8E80000F0FFFD98B900F0C2
:105E400025FE08BF2C4600F0E8FD00F023FE4FF4CD
:105E5000977000F082FDD9F87000D9F87C10C9F86D
:105E6000DC00C9F8E810D9F88040D9F88C0000F0BF
:105E7000CCFD50B900F0D1FD00F00CFE8D2000F0FB
:105E80006CFDD9F88000C9F88C00D9F88440D9F8A5
:105E9000900000F0BAFD50B900F0BFFD00F0FAFD2F
:105EA000F42000F05AFDD9F88400C9F89000D9F820
:105EB0008840D9F8940000F0A8FD58B900F0ADFD75
:105EC00000F0E8FD40F25B1000F047FDD9F88800D3
:105ED000C9F894009BF81500013000F052BCD8F8C6
:105EE0000000D8F81870FEF702FD012C08BF323808
:105EF00000B2FEF7EEFC3E4904463846FEF7C0FB12
:105F000021468246FEF792FC3A4905463846FEF79E
:105F1000B7FB064635B930462146FEF7A3FC0028FC
:105F200000F0DB8030462146FEF772FC30BB0120DA
:105F3000F4E00090092057214FF4E7728423FFF723
:105F4000B8BABAF1010F40F0B3802B4900F0A6FEB9
:105F50002A49FEF71FFC00F09FFC0646C9F8040022
:105F60002846FEF7B6FC014600F08EFEFEF7BFFCA9
:105F70008046FEF7AEFCD9F84C6020E05046214642
:105F8000FEF762FC00284FF6FF7A40F0CE8000203A
:105F90008BF81F00C7E000BF0000E43F184900F085
:105FA0001BFD06462846FEF794FC014600F06CFEF9
:105FB000FEF79DFC8046FEF78CFCD9F84860014650
:105FC0003046FEF74FFC10B100F0C2FD804699F854
:105FD000E65345F00200032814D1142017E000BF57
:105FE00008010020580600200000002000007F4328
:105FF0000000C8420000C8C2000010410000A040DC
:10600000000048C299F8C003002818BF142087F880
:106010002800D9E9016000F0F8FC38B1D9F80C008B
:106020003146FEF72DFC00287FF4F7AA99F8D30338
:10603000C9E9024601281CD14046FEF74AFCD9F8BE
:106040001840CF49064600F0C7FC3146FEF70AFC6F
:1060500078B9CC4900F0C0FC3146FEF7E7FB40B907
:10606000D9F82000BAF1010F08BF044600F0D5FCB2
:106070008046032D0ED0022D7FF4CFAA5C2000F0C5
:10608000F8FC502041F6A3011FFA88F2CDE9001078
:10609000782109E0202043F286111FFA88F2CDE929
:1060A000001040F2891050214FF6FF73FFF7B3BA8A
:1060B0002846FEF70EFC014600F08EFCFEF717FCAA
:1060C0008046FEF706FCD9F8486001463046FEF7E8
:1060D0009FFB00283FF478AF79E79BF82000022867
:1060E0001BD1DFF8AC064FF6FF7A018A0139018235
:1060F00009B2002919DC3221018238462146FEF717
:1061000011FBFEF7F4FB01B280EAE130A0EBE130D5
:1061100000B20128D8BF012005E002208BF81F0043
:1061200064204FF6FF7AABF840009BF81F008BF815
:106130002000DFF85C16BBF84000C98981423AD0E4
:10614000C0B2642828BF6420012898BF0120C0F194
:106150006400FEF7C7FB8C49FEF71CFB8B49FEF77A
:10616000E7FAFEF7C4FBC0F5877044F25071432391
:1061700084B20091CF203F212246FEF79AFE41F6DD
:10618000A3003F214FF48772432300902046FEF77F
:1061900090FEBBF84020182000214FF6FF73CDE998
:1061A000001040F245103421FEF740FFBBF84020BC
:1061B000DFF8DC05C28198F8E67307F0FD002D28B2
:1061C00004D1D8F82C50D8F8344007E0D8F818504B
:1061D000D8F82040C8F82C50C8F83440D8F830001F
:1061E000D8F8386000F029FC18B1304600F00DFCFA
:1061F00028BB47F00200C8F83840C8F830502F28B4
:106200001DD198F8CD0398F8DC63002808BF2C4610
:1062100000F003FC0246202043F266114FF6FF73A4
:10622000CDE90010F0B2022808BF4FF4FC634FF430
:1062300087702F2F18BF53469621FEF7F7FE9BF865
:10624000230048BB0120D8F81860D8E91A548BF80D
:106250002300D8F80000FEF74AFB00EBC00005273A
:1062600000F0A2FBC8F8040000F072FC00F0D1FAC4
:10627000C8F8200000F020FC00F0CBFAC8F8740049
:1062800000F0CBFB00F0C5FAC8F8780000F02FFC56
:1062900000F0BFFAC8F87C0098F8CD9398F8CE4388
:1062A0004C4529D0D8F80000D8F81860D8E91A5A17
:1062B000FEF71DFB00EBC000052700F075FBC8F8DA
:1062C000040000F045FC00F0A4FAC8F8200000F03B
:1062D000F3FB00F09EFAC8F8740050464FF6FF7AC0
:1062E000FEF705FB00F095FAC8F8780000F0FFFB18
:1062F00000F08FFAC8F87C009BF81600062800F220
:106300003F82DFE800F00485184909A3C0004C452E
:1063100040F0CC80012031E298F8E603372840F0C5
:10632000198198F8DD03012800F00A81002840F067
:1063300022826F2005E198F8E603232840F0B4801C
:1063400098F8DF030138C1B2032900F2AD80C00024
:10635000DFF84854782114221423C4B20C4800F00A
:10636000D1FB0C4EA1211422142306F57F4000F02E
:10637000C9FB26FA04F0CA2114221423C2E100BF8B
:106380000000A0C10000A0410000C84200007C4203
:10639000797A7A7A7A7A797A98F8E603A0F1230101
:1063A00000F05DFA00F2E781012202FA01F140F605
:1063B0006162114200F0DF812D2808D0352806D017
:1063C000372802D198F8DD1309B1392804D14E20BD
:1063D00000F048FB98F8E6032F2805D0372808D1AD
:1063E00098F8DD13012904D1512000F03BFB98F807
:1063F000E603232840F0BF8198F8DF0351210428E9
:1064000008BF4E210091C420FF2158222D2337E0E0
:1064100098F8E603A0F11D0100F021FA00F2AB812B
:10642000012202FA01F140F67742114200F0A38105
:106430001D2840F0BC8098F8CC03002800F0AE8006
:10644000012840F0B4808924B121A9E098F8C00364
:106450009BF81710814200F08E8198F8C913022929
:1064600000F0898198F8E61300288BF817004CD1CA
:1064700002294AD14020282196224B230090A520B2
:1064800002F0E8F877E19BF8262098F8C913022A71
:1064900022D1022920D098F8E6038BF82610022892
:1064A00040F053817C2049E1032067E198F8E6033E
:1064B0002F283BD0032800F028812D2836D0022831
:1064C00040F05581B9F1010F00F04981B9F1000F99
:1064D00040F04D814C2043E10020022A00F04E8123
:1064E000022940F04B8102208BF8260098F8E60341
:1064F000022840F02A8198F8D603002800F0158180
:10650000012840F01A817E2010E1012808BF0229ED
:1065100040F031817B20282196224B230090A5203A
:1065200002F098F89A48A0F80EA024E1B9F1010F02
:1065300000F0F380B9F1000F40F019814820EDE040
:106540006C200090CD20BE214622202302F082F84C
:1065500098F8E603352840F00E81EC20832143F2C1
:10656000661220234FF0EC0843F266152026FEF752
:10657000C1FD002787A4072F00F0FD80781EC0B260
:10658000052809D8225C08EB0710B5214FF6FF73E8
:10659000CDE9005600F09EFB0137ECE7B1248921DC
:1065A0005A2000F02FF95B20214600F02BF998F8D3
:1065B000E6031F2812D198F8CF03012803D0A8BB07
:1065C0008924B12101E0B12489215A2000F01AF96F
:1065D0005B20214600F016F998F8E603212810D137
:1065E00098F8D20320B101280BD18924B12101E010
:1065F000B12489215A2000F005F95B20214600F0E2
:1066000001F998F8E603312812D198F8D50301284A
:1066100003D0B8BB8924B12101E0B12489215A20DB
:1066200000F0F0F85B20214600F0ECF898F8E60363
:10663000332810D198F8DB03012803D058B98924F6
:10664000B12101E0B12489215A2000F0DBF85B2060
:10665000214600F0D7F898F8E603252814D198F8D9
:10666000E103022805D0032840F085808924B12168
:1066700001E0B12489215A2000F0C4F85B202146B2
:1066800000F0C0F898F8E60327281ED198F8E30335
:1066900000F064FA6FD8C000404D752125221E23FA
:1066A000C4B23F4800F02EFA3E4E9E2125221E2302
:1066B00006F57F4000F026FA26FA04F0C7212522CD
:1066C0001E2300F094FA98F8E603292853D198F88D
:1066D000E50300F043FA4ED8C000304D7521252265
:1066E0001E23C4B22E4800F00DFA2E4E9E21252204
:1066F0001E2306F57F4000F005FA26FA04F0C721B4
:1067000025221E2300F073FA35E0B9F1010F1ED0E7
:10671000B9F1000F2BD14A201AE0492000904FF424
:10672000A07099211C221B231FE07B200090A52034
:10673000282196224B2301F08DFF75200090912097
:106740005021BE22232301F085FF002016E04B20BC
:1067500000904FF4DC7054211A22182305E04D20DC
:106760000090C820AA211422152301F073FF98F885
:10677000CD0388F8CE039BF8160001308BF8160085
:1067800000208BF8150015B0BDE8F08F080100203F
:106790000000002056312E302E31000055860008B2
:1067A0005A5B5B005B5B5A000D4E000835303028A9
:1067B0003933322900000000BF500008343030283F
:1067C0003735322900000000333030283537322980
:1067D0000000000032303028333932290000000038
:1067E00031303028323132290000000032303000A0
:1067F00031353000313030003530000030000000DD
:10680000FEE7704725221E2300904FF4AA7001F086
:1068100021BF00EBC000B0FBF7F0203080B2FEF7E4
:1068200061B8BDF808100A31ADF808109DF80B10DA
:106830000131704701F0070125F4E04545EA0131D7
:106840007047ADF809908DF80450CDF805407047B9
:1068500081F8262000213172022102287047CAB235
:10686000C90141EA5201C9B20B297047C9E9351182
:10687000C9E93711C9E93911704799F8C9030228E4
:10688000704700BF00BF00BF00BF00BF00BF00BF18
:1068900000BF00BF00BF70474FF08441FDF7F0BE5E
:1068A00097F8E60300F0FE0102297047C4F800687B
:1068B00025606560C4F8FC03704750F8210052F869
:1068C00021100068C9F818000968C9F898107047C5
:1068D000C9F82410C9E92311C9E92512C9F89C1087
:1068E00089F8B8037047A9F8BC03D9F8BC00FDF7D4
:1068F000C7BEA7F8BC03D7F8BC00FDF7C1BEA7F818
:10690000BC03D7F89800FDF7BBBE09F18C0002EB81
:1069100081027047686101208AF80D004FF47A7097
:10692000A9F8BC03D9F89800FDF7AABE07F18C00BE
:1069300002EB81027047BDF808109DF80720114452
:10694000B142704720464FF07E51FDF799BE4FF09F
:106950004241C9F82000FDF793BE4FF48C71FEF759
:1069600065BB87F8E60397F8E10397F8E31397F818
:10697000E52387F8E00387F8E21387F8E4237047FC
:1069800044F638430095204799F8B813C9F8BC403D
:106990000329704799F8B813C9F89840032970473C
:1069A0004FF2604300952047B0FBF7F0203080B2F3
:1069B000FDF798BF97F8B813C7F8984003297047B8
:1069C00097F8B813C7F8BC4003297047002101723B
:1069D00099F8C913022970472046FDF751BE80F887
:1069E0003010C185816280F82C1070472046FDF779
:1069F00039BF3062F06170613061A9F83E0089F8FA
:106A00001200C8F84000F06070472146FDF738BF1B
:106A10004FF042413862FDF733BE2046FDF767BFB5
:106A20005020686101208AF80D004FF47A70A9F8AF
:106A3000BA0399F8CD03012870472946FDF720BF16
:106A4000D4217B22192300904FF4877001F002BEFD
:106A500078632846FDF714BE2046FDF7F5BE2046B4
:106A6000FDF7E4BEFA2158222D230090C42001F046
:106A7000F1BDD2217B221C2300905A2001F0EABDF7
:106A80000146204638470446FDF7D0BE99F8CD03AD
:106A9000012870470246182043F286114FF6FF7313
:106AA000CDE90010704799F8E60300F0FE000228D7
:106AB00070470446FDF7C8BE2846FDF718BF87F8A3
:106AC000E6130238B0FA80F0400987F8C603704731
:106AD0008DF80B109DF80B10704797F8C90302282A
:106AE0007047013A013B92B29BB2FEF743B9D8F826
:106AF0007000FDF7FCBE9AF80E100129704704469D
:106B0000FDF7B0BEE040C0B200904FF4AA70284735
:106B10000130C1B203297047272087F8E60397F8B0
:106B2000E20387F8E3037047252087F8E60397F828
:106B3000E00387F8E103704797F8DC030228704709
:106B4000292087F8E60397F8E40387F8E503704700
:106B50003046FDF7CCBE5846FDF792BD0138C1B2B4
:106B6000022970470020A7F860007047B8633863B7
:106B7000B869FDF7D7BD4FF47A70A7F8BA030020C3
:106B8000307297F8CD030128704786F8E20304F1CC
:106B90002400284786F8E00304F12200284786F8FD
:106BA000C90304F12000284786F8D90304F11E0028
:106BB000284786F8D30304F11C0028474FF4BC7221
:106BC000FA230095304786F8D60304F118002847C9
:106BD00086F8D00304F11600284786F8CD0304F1A7
:106BE0001400284786F8C60304F112002847C0B2F3
:106BF00000904FF4AA702847C6F8880004F11000EE
:106C00002847C6F8840004F10C00284704462846AB
:106C10002146FDF7FDBD044628462146FDF714BE7A
:106C2000C6F8800004F108002847D7F82C802846D1
:106C3000FDF77EBD4FF48073CDF80090504795F876
:106C40002D00013885F82D00000670472D2087F8AB
:106C5000E60300207047502041F6A301A2B2CDE91F
:106C600000107047C9F89C00C9E92300C9F89400D6
:106C7000C9F8BA13C9F82400C9F81C007047306875
:106C800040F00100306070473046FDF7F9BC20202D
:106C900043F28611A2B2CDE9001070472046FDF7FD
:106CA00047BD4FF47A704FF07E5170470446FDF7B0
:106CB000AFBDC9E92311C9F894107047B7F8600057
:106CC0000130A7F8600080B27047D9F820004FF07B
:106CD0004241704780B2FEF721B97047704700000B
:106CE0002DE9F041DFF87C6B707801387070000698
:106CF00048D1DFF8744B1420707094F8D003012849
:106D000013D1DFF8685B95F82C0002281DD001280C
:106D10000ED058BB01F026FD307A012820D028BBC8
:106D2000012085F82C0002201EE001F01BFD29E067
:106D300001F01EFDFFF783FF18D1317A022085F89C
:106D40002C0089B101290ED010E001F00BFDFFF7F6
:106D500076FF0BD102203072002085F82C0003E072
:106D6000012085F82C00192085F82D0094F8C40323
:106D700040B1B0780138B070000603D10120307204
:106D80002820B070DFF8EC7C97F8C00348B1307869
:106D900001383070000609D10520307001F0E4FDA3
:106DA00004E001F0E1FD012087F8EA0397F8C00351
:106DB000022809D1FC6D00212046FDF761FD18B9BC
:106DC000BC49FFF709FEF865B0890138B0810004BD
:106DD00040F0DA870120B081DFF8D80C00F12804F8
:106DE0002046FDF72AFF01462046FDF781FE0138C7
:106DF000092800F27180DFE800F0051C6F6F35573D
:106E00006A0D272E97F8E603411F162900F24981E3
:106E1000022015E0DFF8600C90F8271000295BD104
:106E2000012180F82710FFF73BFD40F0DC820020B5
:106E3000E0E297F8E603411F162900F2B78003202D
:106E40007071D5E0307247E0FFF72AFD40F0DA803C
:106E50000720707163E0FFF723FD40F0F880082001
:106E600070717FE097F8E603A0F12301062940F254
:106E70005481811E0229C0F0BB801B2800F0B3831F
:106E80002F2800F0BD83372800F0B083392840F068
:106E9000988397F8C603002800F0BB84012840F0CF
:106EA000A780032000F0B6BCFFF7FAFC14D190498C
:106EB000FF22C7F8BA138F49C7F89C10DFF8B81B38
:106EC000FFF7C6FC08BF0321FFF7F9FD04E0DFF878
:106ED000A80B002180F827107079172800F20E8582
:106EE000DFE810F01800D30193013C0245029A013B
:106EF0001B021D00400054026201B0016C019900A8
:106F0000BE0032020C050C050C0577026D0228014B
:106F10000C058901052087F8E60300F0EDBC97F821
:106F2000C403002840F0E884FFF725FE00F01A8330
:106F3000002840F02F83B8696F49FDF7A1FB6F4926
:106F4000FFF7A1FD10B96D4C0020F8616C49204697
:106F5000BC61FDF7EDFB6B49FDF71CFCFFF79CFCEA
:106F6000386217E397F8C403002840F0C584FFF7A0
:106F700002FE00F01C83002840F09683B869624945
:106F8000FDF77EFB6149FFF7BAFD10B95F4C0020A9
:106F9000F8615B492046BC61FDF7CAFB5949FDF722
:106FA000F9FBFFF779FC386200F07EBBA0F11D0110
:106FB0001A2900F23483DFE811F0AE001B00480309
:106FC0001B004E031B001D001B00BE031B00C5035E
:106FD0001B00EF031B005E03630354031B00B80395
:106FE0001B0051031B0068031B001B001B004B030D
:106FF000002027E797F8DF030138010608BF0420C7
:1070000000F0D8BB2F287FF467AFFFF795FD7FF422
:1070100063AF0D20707197F8CD03012800F0ED816A
:10702000002840F06984BC693549FD6AFFF736FEE7
:107030003449FDF7AFFBFFF72FFC2F49FFF708FDA1
:1070400032490546FFF7C8FCFFF7E5FD23E02F288E
:107050007FF442AFFFF770FD7FF43EAF0E207071FA
:1070600097F8CD03012800F0D481002840F0448433
:10707000BC692349FD6AFFF711FE2249FDF78AFB2F
:10708000FFF70AFC2049FFF7E3FC21490546FFF71B
:10709000A3FCFFF7BBFD002818BF2546FD6200F0EA
:1070A0002BBCA0F11D011A2900F2C0820FF20800CA
:1070B000D0E811F0000080BF31003000CB0230007A
:1070C000D102300079033000840330005C033000CB
:1070D00095033000E102E602D70230004F03300092
:1070E000D4023000EB02300030003000CE0200BF8E
:1070F000E803E80300007F43000020410000FA435A
:10710000000010410000A040000020C10000C84263
:107110000000C8C26CE7092092E6DFE811F05502D2
:107120005202070052020700520207002320FFF715
:1071300018FC5DE7CB48CC4CCC4DCD4B0022012157
:1071400087F8E81387F8B823BA6287F8DB2387F853
:10715000D92387F8D513A7F8CC23A7F8C82387F835
:10716000C6233A65C7F89800C248C7E92054C24C04
:10717000C7F88830C14BB861C7E91A0440F2011062
:107180003B67A7F8D2034FF48070A7F8CF034FF006
:107190000130C7F8E20340F20220A7F8E003B84844
:1071A000C7F8BA0300F0A8BB97F8CF03002800F097
:1071B0004181012840F0A08300203CE197F8CD03F5
:1071C000012800F03D81002840F09683BD69AD495B
:1071D000FFF72BFDAC49FDF7DDFAFFF75DFBAB498F
:1071E000FFF736FC054640462946FDF73BFBA8491C
:1071F0000446404643E097F8DD03002800F02E8166
:10720000012840F07983002029E197F8E603811CEA
:107210001A2888BF0521A7E097F8C403002840F08A
:107220006B83FFF7A8FC00F04C82002840F02C8311
:10723000BC699849FFF713FC002800F0EF82FFF7C4
:1072400081FBEEE297F8CD03012800F02D810028A4
:1072500040F05283BD698B49FFF7E7FC8A49FDF78F
:1072600099FAFFF719FB8049FFF7F2FB0546404604
:107270002946FDF7DBFA044640464FF07E51FDF704
:10728000FFF9002C08BF28462DE197F8E6030538E2
:10729000362800F23183DFE810F037002F039E0616
:1072A0002F0386062F03C2062F03C8062F038D0661
:1072B0002F03A5062F03AC062F03D6062F03D006F7
:1072C0002F0371062F032F032F0390062F0374063D
:1072D0002F0368062F032F032F032F032F032F03E2
:1072E0002F032F032F03B306B806E1062F03D90699
:1072F0002F035C062F037D062F03E9062F032F03C0
:107300002F032F032F0365061D2087F8E603FFF7E1
:10731000E4FB08BF97F8CB0394E197F8C403002877
:1073200040F0EA82FFF727FC00F0D581002840F00A
:10733000CF82BC694C49FFF759FB002800F0AE82B0
:107340005349FFF749FBACE297F8D203002800F05D
:10735000CC80012840F0D0820020C7E097F8E603F7
:10736000811E062838BF1B2187F8E613C4E297F870
:10737000C603012800F0BF80002840F0BF8097F8C6
:10738000C203012800F2BA800220B5E097F8CC03CE
:10739000012800F0CC80002840F0AE82FFF79DFB72
:1073A00040F04B810120002187F8CC0340F2FF1010
:1073B000A7F8CA03DFF8C00680F829109CE297F806
:1073C000DB03012800F0C280002840F095820120F4
:1073D000BDE097F8D503012800F0BE80002840F0FA
:1073E0008B820120B9E00538362804D897F8E803E5
:1073F00008B904207071012024E5786B26493C6AA5
:10740000FDF73EF925490546FFF7E6FAFFF703FCCD
:107410000AE0786B22493C6AFDF732F921490546BA
:10742000FFF7DAFAFFF7F2FB002818BF25462846D7
:107430007D634EE0012087F8CD0387F8CF035BE240
:10744000386A18497C6BFDF71BF90546204629462A
:10745000FDF708FA0E498046204633E0012087F800
:10746000DD0349E2000020420000C8420000A042C3
:107470000000F0420000BE430000C8430000D243B9
:10748000E803E803000010410000A0400000C8C26B
:10749000000080BF0000FA43000020410000544378
:1074A000000020C1000054C3386AE3497C6BFDF73B
:1074B000E7F8054620462946FDF7B8F980462046FC
:1074C0004FF07E51FDF7DCF8B8F1000F08BF2846F9
:1074D00078634FF04241FDF7D3F8D849FDF728F91A
:1074E000D749FDF757F9F86206E2012087F8D00383
:1074F00087F8D20300E2032087F8E603DFF8E00C08
:10750000002180F8281097F8C913022905D1FF211E
:1075100080F826104FF47A7003E0CA48C7F8A0003C
:107520000020C849A7F8BC03C7F89C10E4E1FFF7A6
:10753000D4FA40F08480FF210020A7F8CA13DFF8B6
:10754000A01C87F8CC0381F82900D5E1002087F83A
:10755000D90387F8DB03CFE1002087F8D30387F84E
:10756000D503C9E1386AB849FDF78AF8B749FFF78A
:107570008AFA10B9B54C0020786220464FF042419B
:107580003C62FDF77DF8AD49FDF7D2F8AC49FDF757
:1075900001F9B86197F8B813032900F2AA81FFF73F
:1075A000C5F9DFE811F0A901A4019F01A2013C6A1D
:1075B000A749FFF71BFA00286AD0A649FFF70CFA83
:1075C00069E00120FFF73CBC97F8DF03013803288E
:1075D0003FF60EADDFE810F004003D04310438043E
:1075E000FFF7A2FA04E50420FFF72ABC97F8DD03B1
:1075F000012800F00A8100287FF4FAAC172009E185
:1076000097F8DC03012871D10220B9693A6A87F83A
:10761000DC038C48C7E90B10C7E90D20E8E4023809
:107620000228BFF4E5AC0620FFF70ABC02380228A6
:10763000BFF4DEAC0520FFF703BC012000E0002012
:1076400087F8C90387F8CC0356E10A20FFF7F8BB97
:107650001720FFF7F5BB0F20FFF7F2BB1320FFF752
:10766000EFBB97F8DC0300287FF4C2AC2F2087F82B
:10767000E603012076E0012087F8D6032C20C9E03C
:10768000002087F8D6032B20C4E01420FFF7D8BBD6
:10769000002078626848FFF7BBF96849FDF748F8B1
:1076A0006749FDF777F8B86197F8B813032900F236
:1076B0002081FFF73BF9DFE811F01F011A011501E6
:1076C00018013C6A6149FFF7CAF9002800F0D08030
:1076D000FFF738F9CFE03C6A5749FFF787F90028F0
:1076E00000F0EA805C49FFF777F9E8E00120D7E98C
:1076F0000A4187F8DC035348FFF738FA0146FFF7E1
:107700006BF95649FFF7D5F9554900281CBF0024ED
:10771000C4F2C8242046FDF77BF800281CBF0024D3
:10772000CCF2C824BC62FFF763BCFFF705FA14D1A2
:107730000C20FFF785BB97F8E103FFF70FFA38BF7E
:10774000032041E097F8E3030138010608BF032056
:1077500012E0FFF7F1F900F0A58401287FF448ACAE
:10776000FFF774FA87F8DC03FFF742BC97F8E303EE
:10777000FFF7CEF988BF012087F8E303C0B20328E2
:1077800000F07984022800F07484012804BF0120ED
:1077900087F8E203FFF72CBC97F8E50301380106F0
:1077A00008BF032021E097F8DF030130C1B20429AC
:1077B00088BF012087F8DF03FFF71ABC97F8E103C1
:1077C000FFF7A6F988BF022087F8E103C0B20328BB
:1077D00000F02E8302287FF40BAC022029E397F8F7
:1077E000E503FFF795F988BF012087F8E503C0B2EC
:1077F000032800F04E84022800F0428401287FF420
:10780000F7AB0120002100F03DBC1520707139203C
:1078100000E0022087F8E603FFF7EABB0020F861EA
:10782000A5480749B861FCF783FF0449FCF7B2FF9C
:10783000FFF732F8386227E0000054430000A04010
:107840000000104100007F430000484200006944EE
:1078500000007D43000024C2000080BF0000C84239
:107860000000C8C2000000205806002008010020C7
:10787000002078629148FFF7CBF89149FCF758FF58
:107880009049FCF787FFB86197F8B813032930D8FF
:10789000FFF74CF8DFE801F0302B26290020F861D3
:1078A00089488849B861FCF743FF8549FCF772FFB6
:1078B000FEF7F2FF38620BE0002078628348FFF7A2
:1078C000A7F87F49FCF734FF7E49FCF763FFB861F6
:1078D00097F8B81303290CD8FFF728F8DFE801F070
:1078E0000C07020507F1900001E007F194007849C8
:1078F0000160002087F8B80316207071DFF81C487B
:107900002046FDF79AF901462046FDF7F1F80138C7
:10791000092800F27181DFE810F00A0023006F01EE
:107920006F014B006B007F0013002C003C00FEF742
:10793000B7FF7CD1FFF7D1F814BF0120052026E066
:10794000DFF8C40C90F82410002940F05581012183
:1079500080F82410FEF7A4FF40F0798000207DE03D
:10796000FEF79EFF5ED1FFF7B8F814BF0220062095
:107970000DE097F8E60300F0FE00022840F03A819F
:1079800097F8C9030238B0FA80F0400980003071DE
:1079900030E197F8E60300F0FE00022840F02A816B
:1079A00097F8C9030321022808BF0721317121E19B
:1079B00097F8E603A0F1230106293ED9811E02298A
:1079C000C0F018811B2800F0C1802F2800F0C9806A
:1079D000372800F0BD80392840F0A88097F8C6030A
:1079E000002800F02182012840F0048103201CE2DD
:1079F000FEF756FF40F000813649FF22C7F8BA1360
:107A00003349C7F89C10DFF8001CFEF721FF08BFC0
:107A10000321FFF754F8EFE0DFF8EC0B002180F8CA
:107A20002410E9E0411F16291BD80320E1E0411F83
:107A3000162900F258800220DBE0DFE801F07977B8
:107A40000477047704002320FEF78BFFD2E005388B
:107A5000362804D897F8E80308B90420707101208B
:107A6000C9E01D381A2800F2C5800FF21001D1E8D4
:107A700010F000BF58060020080100205B00C10084
:107A8000BF00C100BD00C1003300C100FC01C10046
:107A90002402C1001102C100AB00B000B500C1005A
:107AA000F701C100A900C100A700C100C100C100C9
:107AB000A50000BF6C0000200000FA4300006944EC
:107AC0000000A040000010410000C84200005443E4
:107AD00000007F43E803E80397F8DF03013801065D
:107AE00008BF04201DE21D381A2800F28380DFE859
:107AF00010F01B0081007F0081007D0081001102D9
:107B00008100EB018100FC0181001B0281006B0000
:107B1000700075008100D801810069008100670054
:107B20008100810081006500092062E0012060E0A1
:107B300097F8DF03013803285CD8DFE810F0040071
:107B40008E0182018801FEF7EFFF53E0042050E030
:107B500097F8DD03012800F0638100284AD117203F
:107B600063E197F8DC0301280AD10220B9693A6A77
:107B700087F8DC03C048C7E90B10C7E90D2039E0DE
:107B80000120D7E90A4187F8DC03BB48FEF7EEFF86
:107B90000146FEF721FFB949FEF78BFFB8490028DF
:107BA0001CBF0024C4F2C8242046FCF731FE002884
:107BB0001CBF0024CCF2C824BC621BE0172018E0D4
:107BC000142016E0132014E0012087F8D6032C209F
:107BD0002BE1002087F8D6032B2026E197F8DC0361
:107BE00040B92F2087F8E603012063E10F2000E071
:107BF0000A207071002030723079072800F2C480AA
:107C0000DFE800F0047632491B8BA0604FF47A70F5
:107C10009C49FEF774FE9C49FEF771FF00281CBFCB
:107C20000024C4F22034FEF7C5FE00F2A880FEF75F
:107C30007DFEDFE801F0A7A29DA04FF47A70914984
:107C4000FEF757FE9049FFF731F818B98E4C002027
:107C5000C7F8C000FEF7B4FE00F29180FEF766FEA2
:107C6000DFE801F0908B86894FF47A708749FEF740
:107C700046FE8449FEF707FF00281CBF0024C4F21B
:107C8000A004FEF797FE00F27A80FEF74FFEDFE8D1
:107C900001F079746F724FF47A707D49FEF72FFE10
:107CA0007849FEF7F0FE00281CBF0024C4F2A004AF
:107CB000FEF780FE00F26380FEF738FEDFE801F099
:107CC000625D585B4FF47A707149FEF712FE6D49A0
:107CD000FEF7EFFE18B96B4C0020C7F8C000FEF7A6
:107CE0006FFE4CD8FEF722FEDFE801F04C4742451C
:107CF000FEF7D7FFFEF703FE6349FEF700FF0028FB
:107D00001CBF0024C4F22034FEF754FE37D8FEF71F
:107D10000DFEDFE801F037322D30FEF7C2FFFEF72F
:107D2000E8FD5949FEF7C2FF18B9574C0020C7F8C3
:107D3000C000FEF745FE22D8FEF7F8FDDFE801F0AF
:107D4000221D181B4FF47A705049FEF7D2FD4D49A1
:107D5000FEF7AFFE18B94B4C0020C7F8C000FEF785
:107D60002FFE0CD8FEF7E2FDDFE801F00C0702055C
:107D700007F1900001E007F19400E4490160002060
:107D800087F8B803082030717089013870810004C9
:107D900008D14FF47A707081DB48816CC7F8B0105D
:107DA00000218164D84D287898BB102001F00AFA90
:107DB0002886288EFCF726FCD94ADA4BFCF79BFA7A
:107DC000D94B0022FCF797FAD84AD94BFCF7ECF9CB
:107DD000D84AD94BFCF701FBD84B0022FCF7E4F959
:107DE000FCF7DEFDCB490446B864FCF7A1FCC849AA
:107DF000FCF7D0FCFEF750FDC749F864FEF7F6FD2E
:107E000038B920460021FCF703FD10B901203C6081
:107E10002870E86CE96D0130E864BDE8F04108477E
:107E200015207071392000E0022087F8E603E1E6B2
:107E3000032087F8E003FFF7DBB8FEF781FEFFF7CA
:107E4000D7B8FEF77DFED5E60B20FFF770B90B2003
:107E5000FAE5FEF761FEFFF7CBB8FEF75DFEC9E677
:107E6000FEF76AFE21D10C20C3E697F8E103FEF786
:107E700075FE38BF03202DE000007F430000C8429C
:107E80000000C8C20000A04000002043000080BFE6
:107E90000000A0C097F8E5030138010608BF0320E1
:107EA00048E0FEF749FE00F0128101287FF4A2AEFF
:107EB000FEF7CCFE87F8DC039CE697F8E303013875
:107EC000010608BF032016E097F8E103FEF720FE45
:107ED00088BF022087F8E103C0B2032800F0DE80EB
:107EE00002287FF487AE0220D9E097F8E303FEF77B
:107EF0000FFE88BF012087F8E303C0B2032800F01B
:107F0000DE80022800F0D180012804BF012087F81C
:107F1000E2036FE697F8DF030130C1B2042988BF9E
:107F2000012087F8DF0365E697F8E503FEF7F0FD2B
:107F300088BF012087F8E503C0B2032800F0C380A2
:107F4000022800F0B48001287FF454AE0120002103
:107F5000AFE097F8D503012898BF87F8D303112025
:107F6000FEF7D9BF1920FEF7D6BF97F8D203012834
:107F700098BF87F8D0030920FEF7CDBF3B20FEF75E
:107F8000CABF97F8CF03012898BF87F8CD03072011
:107F9000FEF7C1BF97F8DB03012898BF87F8D90324
:107FA0001320FEF7B8BF212087F8E60397F8D00327
:107FB000FFF79EBAFEF74AFE9BE097F8CC03012834
:107FC00000F0878000287EF4A5AFFEF786FD40F024
:107FD0009480002081E01F2087F8E60397F8CD0306
:107FE000FFF72BBA312087F8E60397F8D303FFF7A2
:107FF000B6BA332087F8E60397F8D903FFF7A9BA92
:1080000097F8D80340B9002004E097F8D803012876
:1080100002D1012087F8D6030D20FEF77CBF042093
:1080200087F8DF032320FEF776BF97F8D6030028F2
:1080300057D0012858D12C2154E0002087F8DD03C7
:108040003720FEF768BF3520FEF765BFFEF774FDE9
:108050004ED001287FF450AC02204AE097F8DC03B0
:1080600000287FF449AC0F20FEF755BF1520FEF71E
:1080700052BF022000E0032087F8E203FEF7B8BFFA
:108080000220012187F8E403554880F82510FEF707
:10809000AFBF032087F8E403FEF7AABF032087F8E9
:1080A000E003A7E50B20FEF7CBBE022008E002208C
:1080B000012187F8E4034A4880F825109AE5032057
:1080C00087F8E20396E5032087F8E40392E50B20A6
:1080D0008FE5FEF702FD12D1012087F8CB03FEF7F2
:1080E00019BF2B2187F8E61387F8D803FFF704BCE4
:1080F000012087F8DC03FFF7FFBB002000E0012030
:1081000087F8C903FEF706BF0801002000007F437F
:108110000000A0400000104100004842CC000020B8
:1081200052B81E85EB510A400000303F295C8FC2D7
:10813000F528F4BF33E197FA7953713F00001840F6
:108140001848C16941F08051C16117490A7842F06D
:1081500004020A70C16921F08051C161016841F0D7
:108160000101016001688907FCD5416821F0030124
:108170004160416811F00C0FFBD101680B4A1140BE
:1081800001600021416041F61071C1624FF480111D
:1081900001634FF41F01816005484FF000610160E9
:1081A000704700BF0010024050700040FFFFF2FE19
:1081B00008ED00E0B0B5094C606880070CD5206878
:1081C000800709D5064D4FF07E51A86CFCF758FA90
:1081D000A8646FF002006060B0BD00BF0C4C0140AD
:1081E000080100202DE9F04F85B0C44D2869C00773
:1081F00000F04581DFF8688F98F8E903012840F026
:108200003081DFF84C9F99F8120001280BD1DFF87C
:10821000FC43BB4DA66829463046FCF723FB48B912
:10822000A5602E4606E0B74EDFF8E0034FF081412F
:10823000C0E901160096D8F81860B349FEF724FD8E
:10824000834698F8C903012818BFB346D9F85000EF
:108250005946FCF715FB00287CD1DFF8B0434FF0FE
:108260007C51E069FCF764FA0025E061A7498DF8CC
:108270000B50ADF808508DF80750D8F89870384674
:10828000FCF7C6FA04465846FCF731FB002C0646BC
:108290004FEA900413D14A2C8DF8075030D864204F
:1082A0000021ADF80800DFF87403FEF711FC132974
:1082B00046D8FEF740FB43D2FEF7B3FAF5E7D549BF
:1082C0003846FCF7CFFA0025E8BB384600214FF0CE
:1082D000000AFCF79DFAB0BB4A2C8DF807A01FD806
:1082E00064200021ADF80800CB48FEF7F1FB13290C
:1082F00000F2EC80FEF71FFB22D2FEF792FAF4E7C1
:108300004FF496701421ADF80800C448FEF7E0FB66
:10831000272915D8FEF70FFB12D2FEF782FAF5E7F0
:108320004FF496701421ADF80800BB48FEF7D0FB5F
:10833000272905D8FEF7FFFA02D2FEF772FAF5E711
:108340009DF80B10455C68B2C9F850B0FCF7C1FA53
:10835000C8F8D000AD4EB6F85640092C19D896F89A
:10836000580000F02FFF651C06EB8407A6F8565056
:10837000FCF7B8FA0446F862B6F85400FCF7B2FA13
:108380000146FEF729FBFCF7B2FAA9B2B0FBF1F106
:108390000DE0B6F854000A24B0FBF4F1451A96F843
:1083A000580000F00FFF284481B2B1FBF4F1A6F8A9
:1083B00054008808FCF796FAD8F82810C8F800008E
:1083C000FCF7B0F9044698F8C903022803D100204D
:1083D000FEF70FFB2CE098F8C20318B198F8D913F8
:1083E000012917D18E49FEF7B6FB074620463946CC
:1083F000FCF738FA38B98B49FEF7ADFB0146FEF7BA
:108400002EFB00283ED020463946FCF72BFA30B12F
:10841000002515E0012808BF002909D1D7E78149C7
:10842000FEF799FB0146FEF71AFB08B1884D07E0FD
:10843000D8F84040204600210025FCF713FA10B977
:108440002C46C8F8405098F8C40320B100206D4D68
:10845000FEF7CFFA05E020460021FCF703FA694D4C
:1084600010B90024C8F840402046FCF759FA2864A7
:10847000286840F0010028606FF00100286105B015
:10848000BDE8F08F6849FEF766FB0146FEF7AEFADD
:1084900030B96649FEF75FFB0146FEF7E0FAB8B176
:1084A0000020A9F83E0089F8120058462146FCF742
:1084B00039F9706163497069FCF7D4F920B97069C2
:1084C0006149FCF7B3F918B3002025E000253AE72D
:1084D000B9F83E000130A9F83E0080B23C28E4D350
:1084E00053490098FCF7CCF8494F05463946FCF74C
:1084F000B9F9002866D00095B5607BE0000C00401B
:1085000000401C4600A08C46000048420000A041EC
:108510007069F169FCF7B4F8F0614C4DF0692946D7
:10852000FCF784F900B9F561F06900210024FCF73B
:1085300099F900B9F461D6E9005470693169FCF722
:10854000F1F8B06120467769F169FCF7F1F8716ADA
:108550000490039104980399FCF75AF908B9039819
:1085600004900498039981F00041FCF76DF918B963
:10857000039880F00040049028463946FCF7D8F86C
:108580000499FCF77DF80446B1690098FCF7D0F82F
:108590002146FCF775F8306270693061306AB16A63
:1085A000FCF736F908B9B06A3062306AB16A81F016
:1085B0000041FCF749F908B900203062346AC8F874
:1085C000404037E77068B760FCF7D7F9194A1A4B93
:1085D000FBF7EAFD194B002282460F46FCF75EF9D5
:1085E00020B150463946FCF7DBF900E014487060D2
:1085F00007480090012089F812000020A9F83E00E9
:1086000053E700BF000C0040080100207C0100205F
:1086100000401C460000A041C9DD0108A0DD0108A2
:1086200000004843000048C30000A0400000A0C074
:108630000000FAC49A9999999999B9BF0000084025
:10864000000040400000C8420000C8C200C82F47D8
:10865000007F3B472DE9F041264D02FB03F4640007
:1086600095F8D663069D012E06D076B9023DEDB28F
:108670007B2D0AD2214E04E0023DEDB27D2D04D2C5
:108680001D4E06EB85052D6800E0002502440B44D5
:10869000FEF727FA1A4F4FF0000844B32846B8EB0C
:1086A000942F0ED1214602F0EDFB0026A64206D201
:1086B000B85B00BA000CFCF743FD0236F6E7002079
:1086C00012E04FF4806102F0DDFB0026B6F5806F0A
:1086D00006D2B85B00BA000CFCF732FD0236F5E7B3
:1086E000A4F580604FF4806425440446D5E7BDE8D6
:1086F000F08100BF5806002028B400083CB20008F2
:10870000D80100200848C168890603D50168890698
:1087100048BF4168C168490605D50168490644BF9C
:108720006FF040010160704700380140FEE7000033
:1087300010B500EB40010A284FF00702084B28BF94
:108740001E3902FA01F14FF00C0238BF1022D45842
:108750002143D150596B21F01F010843586310BDCC
:10876000002401400148102101607047141C0140A1
:108770000148102101607047101C014032490A680D
:10878000C2F38103314AF0B5DFE803F002380A385A
:108790000B6D9B0532D5CB6A9B0148BF2D4A2DE05E
:1087A0000B688C6A1B0C002C13D40C680D68C5F385
:1087B0004175C4F383440DB90F2C43D12D0101350C
:1087C0002C44DB0702D00B689B0300D5204A624390
:1087D00014E08C6A8D6A8E6ADB071D4BC4F30314A8
:1087E000C5F3082506F0070603D00F68BF0358BF7E
:1087F000134604FA06F26B43B3FBF2F2026016A4CE
:108800000B68C3F30313E35C174CDA4042600B6858
:10881000C3F30223E35C22FA03F3C3600B68C3F3E0
:10882000C223E35C0424DA4082600B68096804EA2E
:108830009363C1F3813119440CA3595CB2FBF1F18C
:108840000161F0BD0225BBE70410024000127A006E
:1088500000093D00006CDC02000000000000000088
:10886000010203040607080998DD0108020406084E
:10887000020C08107CB5044600204FF6FF75C6B206
:10888000142E09D8301900F089FCADF80600B01C90
:10889000BDF80610A942F2D1BDF806007CBD026801
:1088A0004BF6EF731A4002600A8903681A430260AC
:1088B0004A7C036802F0030223F4405343EA023285
:1088C0000260CA7B036802F0030223F4406343EAB8
:1088D000822202608A7B036802F0030223F4407361
:1088E00043EA022202604A7B036802F0010223F09D
:1088F000800343EAC21202600A7B036862F38613B4
:1089000003600A7C036862F3451303604A8942608E
:108910000A6882604968C16070470000016821F000
:10892000010101600021016041608160C16040F28D
:10893000FF4100EA01020B49B2F5816F04D3D2086E
:10894000902A0ED801F5806100F0FC00142208384E
:10895000B0FBF2F00F22800002FA00F00A68104328
:10896000086070470400024070B5404C207C38B16C
:108970004148D22101603E4890F8C40330B170BD37
:108980003B4D95F8C40320B1012000E00020207485
:1089900070BD95F8C903022804D101206074D5F890
:1089A000BC0045E095F8C00301280ED0B0BB286894
:1089B0003649FBF73BFF617C002848D00029DED117
:1089C0000120002160742C4846E095F8C20348B3AA
:1089D000012823D195F8D90310BB607C25490128D3
:1089E00004BF002060742C68FEF739F8224EA8B34B
:1089F0002349FEF734F8B0BB1E49FEF72DF890BBB3
:108A00002046FBF7BAFF1F4A1F4BFBF774FCFBF72E
:108A1000C7FFC5F8B400FBF783FF25E095F8D9033D
:108A20000128ACD1607C08B901206074D5F89800A9
:108A3000FBF7A3FF164A174BFBF75DFC164B002212
:108A4000FBF7B2FBFBF780FF0B49086070BD002904
:108A50007FF495AF08483221016070BD0748C5F822
:108A6000B400702000E00020306070BD08010020DC
:108A70005806002000007A43380000400000C84239
:108A800000008C429A9999999999D93F0000204207
:108A900014AE47E17A14F23F00003E400649074811
:108AA0000A7822B94CF6CC42026001220A704AF6DA
:108AB000AA210160704700BFD805002000300040A7
:108AC00010B5074C226842F00102226001804FF489
:108AD000801000F01BF8206820F00100206010BD1D
:108AE0001020024008480168C9071CBF00207047D9
:108AF0000168490744BF012070470068C0064FF075
:108B0000020058BF032070470C200240B0B5044655
:108B1000FFF7E8FF0025013C45F1000118B911B14C
:108B2000FFF7E0FFF7E7B0BD2DE9F047DFF820964B
:108B300099F80100032800F2CB80DFE800F002CBB7
:108B40000BAADFF8D45795F8E903002800F0F0816C
:108B50000120E3E1F349DFF8C057F34ADFF8046688
:108B600001F11000884699F80C10924611F00107A7
:108B700008BF02F10E0095F8C613B04708F11200C5
:108B8000002F08BF0AF1100095F8CD13B04708F187
:108B90001400002F08BF0AF1120095F8D013B04757
:108BA00008F11600002F08BF0AF1140095F8D6133B
:108BB000B04708F11804002F08BF0AF11604A86A8C
:108BC000FBF795FE01462046B04708F11A00002F3A
:108BD00008BF0AF1180095F8D313B04708F11C003C
:108BE000002F08BF0AF11A0095F8D913B04708F111
:108BF0001E00002F08BF0AF11C0095F8C913B047EA
:108C000008F12000002F08BF0AF11E0095F8E013BC
:108C1000B04708F12200002F08BF0AF1200095F8A4
:108C2000E213B04708F12400002F08BF0AF1220028
:108C300095F8E413B04795F8C60389F8020095F853
:108C4000CD0389F8030095F8D00389F8040095F85E
:108C5000D60389F8050095F8D30389F8060095F83E
:108C6000D90389F8070095F8C90389F8080095F831
:108C7000E00389F80900A86AFBF739FEA9F83A0071
:108C800095F8E20389F80A0095F8E40389F80B00E7
:108C900041E1A44899F80C20A3492630D20708BF27
:108CA00001F12400B9F83C10FFF70AFF9F48016862
:108CB00041F080010160012089F80100B9F83C0011
:108CC0000130A9F83C0099F80C00013089F80C003B
:108CD000BDE8F087B9F83200FBF704FEDFF838860C
:108CE0000146D8F81800FBF7CBFD002800F0808083
:108CF000B9F83400FBF7F6FD0146D8F89800FBF709
:108D0000BFFD002874D0B9F83600FBF7EBFD044630
:108D1000D8F86800FDF779FE002869D0B9F8380066
:108D2000FBF7E0FD0546D8F88000FDF786FE002839
:108D30005ED0D8F86C00FDF768FE002858D0D8F84F
:108D40008400FDF77AFE002852D0D8F87000FDF7B5
:108D50005CFE00284CD0D8F88800FDF76EFE002895
:108D600046D098F8C60399F80210814240D198F88D
:108D7000CD0399F8031081423AD198F8D00399F8BD
:108D80000410814234D198F8D60399F80510814235
:108D90002ED1B9F83A00FBF7A5FD0146D8F8280016
:108DA000FBF76EFD20B398F8D30399F806108142C3
:108DB0001ED198F8D90399F80710814218D198F874
:108DC000C90399F80810814212D198F8E00399F884
:108DD000091081420CD198F8E20399F80A108142F7
:108DE00006D198F8E40399F80B1081423FF470AF74
:108DF000DA4DDD4845F80C0CDC4845F80C0C99F8C8
:108E00000C00296841F0020110F001062960D249E6
:108E10000C468A4608BF04F500646C60286840F080
:108E2000400028604FF08040FFF770FE286820F077
:108E300002002860D8F81800FBF759FDC94FFDF76C
:108E40001FFE0AF10204002E04BF4FF60244C0F6D2
:108E50000104D8F89800FBF74AFDFDF711FE0AF16E
:108E60000404BC4D002E08BFAC1CD8F86800FBF70A
:108E70003EFDFDF705FE0AF10604002E08BF2C1D7D
:108E8000D8F88000FBF733FDFDF7FAFD0AF108047E
:108E9000002E08BFAC1DD8F86C00FBF728FDFDF7CD
:108EA000EFFD0AF10A04002E08BF05F10804D8F806
:108EB0008400FBF71CFDFDF7E3FD0AF10C04002E16
:108EC00008BF05F10A04FDF712FEFDF7D9FD0AF10E
:108ED0000E04002E08BF05F10C04D8F88800FBF73B
:108EE00006FDFDF7CDFDD8F81800D8F87040D8F889
:108EF0008850D8F89860FBF7FAFCA9F83200FDF723
:108F000027FEA9F83400FDF788FDA9F83600FDF723
:108F1000D3FDA9F8380099F80100013089F8010063
:108F2000BDE8F08700F4010802FC010810200240AF
:108F3000D14C2046FFF79EFC4FF6FF76B04210D092
:108F40002046FFF797FCB0420BD004F1260000F05A
:108F500025F904467F48243000F020F9844205D8E2
:108F60000DE02046FFF786FCB04202D000F03AF94F
:108F700032E004F50060FFF77DFCB04202D000F063
:108F80007DF929E07C4A7E4B7A4879490024012604
:108F900085F8D64385F8D06385F8CD4385F8C64378
:108FA00085F8D94385F8D343AC6285F8E46385F846
:108FB000E26385F8C943C5F88020C5F884306F4A5C
:108FC000704BA86128670220C5F89810C5F8881072
:108FD00085F8E003C5E91A23AC696B49FDF706FD86
:108FE00018B96A49FDF738FD08B96248A861D5F893
:108FF00098406749FDF7FAFC18B96649FDF72CFD62
:1090000010B95B48C5F89800AC6E5F49FDF7EEFCFF
:1090100018B95E49FDF720FD08B95848A866EC6EFE
:109020005949FDF7E3FC18B95849FDF715FD08B992
:109030005448E8662C6F5449FDF7D8FC18B95349D9
:10904000FDF70AFD08B94B482867D5F8804050491C
:10905000FDF7CCFC18B94F49FDF7FEFC10B94648A6
:10906000C5F88000D5F884404949FDF7BFFC18B920
:109070004849FDF7F1FC10B94148C5F88400D5F81E
:1090800088404349FDF7B2FC18B94249FDF7E4FCBA
:1090900010B93748C5F8880095F8C6033B4902283F
:1090A00024BF002085F8C60395F8CD03022824BF0D
:1090B000002085F8CD0395F8D003022824BF0120B5
:1090C00085F8D00395F8D603022824BF002085F840
:1090D000D603AC6AFDF78AFC18B92F49FDF7BCFC32
:1090E00008B90020A86295F8D303022824BF002005
:1090F00085F8D30395F8D90310B1002085F8D9037A
:1091000095F8C903022824BF002085F8C90395F803
:10911000E003043810F1030F9CBF022085F8E00340
:1091200095F8E203043810F1040F9CBF012085F884
:10913000E20395F8E403043810F1040F9CBF01200A
:1091400085F8E403012085F8E903BDE8F08700BF56
:109150000801002002FC010800F401081020024070
:1091600058060020C18A000823016745AB89EFCD6E
:109170000000A0420000BE43000048420000A0439F
:10918000000070420000AF430000FA430000C842F4
:10919000000020430000A0400000C8C281B0016868
:1091A000D0F801008DF800108DF801009DF8010045
:1091B0009DF8001041EA0020ADF80200BDF8020061
:1091C00001B0704780B5FFF7B3FA0548816841F4F4
:1091D0008001816001688907FCD5C06C80B280BDC8
:1091E0000024014070B5244C4A4D2046A847FBF7A7
:1091F00079FB494EB061A01CA847FBF773FBC6F88A
:109200009800201DA847FBF76DFBB066A01DA8477E
:10921000FBF768FBFDF704FDFBF764FBF06604F168
:109220000A00A847FBF75EFBFDF7EBFCFBF75AFBD8
:10923000306704F10E00A847FBF754FBFDF7DCFC98
:10924000FDF7D0FCFDF7C9FCFDF7C2FCFDF7BBFC48
:10925000FBF748FBB06204F11A00A847FDF7A9FC30
:10926000FDF7A2FCFDF79BFCFDF794FCFDF78DFCE0
:1092700086F8E40370BD00BF00F4010870B5244C0B
:10928000244D2046A847FBF72DFB234EB061A01CC0
:10929000A847FBF727FBC6F89800201DA847FBF757
:1092A00021FBB066A01DA847FBF71CFBFDF7B8FC2F
:1092B000FBF718FBF06604F10A00A847FBF712FB66
:1092C000FDF79FFCFBF70EFB306704F10E00A8478B
:1092D000FBF708FBFDF790FCFDF784FCFDF77DFC38
:1092E000FDF776FCFDF76FFCFBF7FCFAB06204F1CA
:1092F0001A00A847FDF75DFCFDF756FCFDF74FFC93
:10930000FDF748FCFDF741FC86F8E40370BD00BFA3
:1093100000FC01089D91000858060020F0B58B79EB
:109320000A88032B0AD05BB94979282913D0182958
:1093300012BF01F00F01026108210EE000210CE0D4
:109340000C79C97903F0080304F0040401F0030167
:109350002344194401E042610821130616D000237A
:109360000F240025082D11D022FA05F6F6070AD0A1
:10937000076804FA03F627EA0606066001FA03F610
:1093800007683E43066004330135EBE7B2F5807FA2
:1093900017D3120A00230F240025082D11D022FA1A
:1093A00005F6F6070AD0476804FA03F627EA060628
:1093B000466001FA03F647683E43466004330135D0
:1093C000EBE7F0BDB8B1F8B50B4F04461E200D46D3
:1093D000B847064620744FF44870B84760740020C0
:1093E000B847A0742846B847E074300604BF01208F
:1093F0002074BDE8F8407047C5AB00082DE9F84F70
:10940000DFF84C9B99F8E903012840F0938599F81F
:10941000C403002840F08E85DFF838AB9AF80F00BF
:1094200008BBDFF8344B0120DFF8305B00218AF8FD
:109430002E008AF80F0004F11C00A84704F1300048
:109440000021A84704F144000021A84704F1580076
:109450006421A847DFF8084B64212046A84704F19F
:1094600014000021A84700200FF6F8214FF0020B4E
:109470004FF0040E4FF080784FF0030C0025062DBE
:1094800000F08A8051F825301C689E88A768DC7936
:10949000042C59D83740BE1BB6FA86F677099E7958
:1094A000DFE804F003311A2A0D00BE4204D1D8735C
:1094B000188183F807B0988100245C8145E0BE42A2
:1094C00032D19A89DE7C541C9C81EEB3A2B2B242A6
:1094D0003AD39881042438E0BE422BD11A891C7CEF
:1094E00001321A8192B2A2422ED39A7B01241881B2
:1094F000DC7101329A7328E0BE421ED1002483F849
:1095000007B09C6021E0BE4225D11A895C7C013203
:109510001A8192B2A24217D3DA7BAAB983F807E084
:10952000C3F80C80032410E0002483F807B0DC7338
:109530001C810AE00024DC7107E05A899C7C01321E
:109540005A8192B2A24219D200240AEB05020135D7
:1095500082F8544093E75A7C1C89588183F807B0FD
:10956000944214D29C7BA4B1012C07BF83F807C09E
:109570000024D871987318BF05240AE09A7BD8712B
:109580009873013AB2FA82F252095400DDE70224DC
:109590009873D8731881D8E79AF85400022814D029
:1095A000032841D1FDF77FFA3ED1FDF76FFA28D1AC
:1095B000FDF78BFBC9F87400FBF762F8D749FBF79E
:1095C000B7F8D749FBF7E6F81DE0FDF756F92BD0C1
:1095D000D448D549D9F88020C9F8BA030120FDF74D
:1095E00077F9D9F86800C9E90601CD49FBF7A0F879
:1095F000CA49FBF7CFF8FDF74FF9C9F82000002062
:109600000FE0D9F81800C849C9F86800012089F8A6
:10961000B80389F8BE03FDF74CFBD9F89810C9F8D8
:109620008010DFF8341908729AF8550003281DD00D
:10963000022842D1FDF721F93FD0BA48BA49D9F8FA
:109640008420C9F8BA030220FDF742F9D9F86C006A
:10965000C9E90601B249FBF76BF8B049FBF79AF884
:10966000FDF71AF9C9F82000002023E0FDF71BFAE6
:1096700023D1FDF70BFA0CD1FDF727FBC9F87800D1
:10968000FAF7FEFFA549FBF753F8A549FBF782F867
:1096900001E0D9F81800A449C9F86C00022089F843
:1096A000B8030120FDF705FBD9F8981089F8BE032F
:1096B000C9F88410DFF8A01808729AF85600032839
:1096C0001DD0022842D1FDF7D8F83FD095489649E1
:1096D000D9F88820C9F8BA030320FDF7F9F8D9F8BA
:1096E0007000C9E906018E49FBF722F88B49FBF7A8
:1096F00051F8FDF7D1F8C9F82000002023E0FDF76C
:10970000D2F923D1FDF7C2F90CD1FDF7DEFAC9F881
:109710007C00FAF7B5FF8149FBF70AF88049FBF7AF
:1097200039F801E0D9F81800C9F8700003207E4923
:10973000D9F8982089F8B803012089F8BE03C9E94F
:109740002221C9E92411DFF8101808729AF857008D
:10975000042808D002280DD1DFF8FC07FDF736F900
:109760001DD1092105E0DFF8F007FDF72FF934D10D
:109770000821C1709AF85800042809D0022840F046
:10978000D780DFF8D407FDF721F918D10A21CEE000
:10979000DFF8C407FDF71AF92CD10B21C7E099F8BF
:1097A000E413032961D0022948D00129E2D1FDF751
:1097B000A2F946D00021C1708AF82510DAE799F89D
:1097C000E413032971D0022944D0012940F0B0806C
:1097D000FDF791F941D0022117E099F8E41302292D
:1097E00016D00129C6D1FDF786F914D00121C17028
:1097F000002085E099F8E413022914D0012940F0F3
:109800009780FDF778F911D00321C17000207DE029
:10981000FDF771F96AD19AF82510012979D000294C
:10982000A8D10121A5E7FDF766F961D19AF82510C5
:10983000012960D000297BD1032178E0FDF75BF995
:109840005BD19AF82510012965D000297FF492AFE9
:1098500000218EE7FDF74FF955D19AF8251001291F
:1098600064D0002964D1022161E099F8B803FDF7C2
:109870004FF988BF012089F8B803FDF76FF90FD8B9
:10988000DFF80407DFF80427FDF717F82449FAF793
:109890004FFF2249FAF77EFFFCF7FEFFC9F82000D0
:1098A00021482049FDF7DEF964E799F8B803411E25
:1098B000022838BF032189F8B813481EC1B2022913
:1098C0000FD8DFF8C406DFF8C426FCF7F6FF14490A
:1098D000FAF72EFF1149FAF75DFFFCF7DDFFC9F833
:1098E000200011480F49FDF7BDF921E0052105E0F1
:1098F00001218AF82510072119E00421C1700120F7
:109900008AF8250036E70621C17001208AF8250073
:109910000EE005212DE704212BE700BF0000A04049
:1099200000001041E803E80300007F430621C170F6
:109930009AF85900032833D0022840F0DB80DFF882
:1099400018060021017299F8E213032947D0022971
:109950003AD0012940F0CE809AF80D10012942D06A
:1099600099F8B803FDF7D4F888BF012089F8B80347
:10997000FDF7F4F80FD8DFF81006DFF81026FCF733
:109980009CFFD149FAF7D4FED049FAF703FFFCF760
:1099900083FFC9F82000D248D249FDF763F9A9E056
:1099A000DFF8B4050121017299F8E003032802D021
:1099B00002280DD09EE099F8C90301285ED0002846
:1099C00040F0988001205AE09AF80D1001290AD041
:1099D000FCF753FF1ED289F8CB0302201DE09AF852
:1099E0000D1001293CD101218AF80E10502141614E
:1099F00099F8E4139AF8250002291AD001291FD1F9
:109A00000130C1B28AF82500022924BF0021AAF83A
:109A10000D1015E003D199F8CB0389F8C9034FF471
:109A20007A70A9F8BC030020C9F8AC00C9F8C000DE
:109A300060E090B3012803D100208AF8250003E0FC
:109A4000C0B201281ED070BBA548C9F8A000C9F853
:109A50002400C9F81C004FF47A70C9F8BA0349E031
:109A600099F8C90350B3012826D0022829D199F8C2
:109A7000CB0301282CD070BB01202AE0002089F8FC
:109A8000C90337E000208AF828004FF07A70C9F83F
:109A9000BA039348C9F89C000BE00020AAF80D0017
:109AA00002208AF825008E480021C9F8BA13C9F8A7
:109AB000A000C9E902001DE0002000E0012089F8B3
:109AC000C903FF2089F8CA0300208AF8290011E0A1
:109AD000002089F8CB034FF602710020A9F8C913C2
