:020000040800F2
:10400000D00D00208541000847510008394D0008B7
:1040100045510008114A0008016600080000000030
:10402000000000000000000000000000EF53000846
:10403000134A000800000000ED530008F153000887
:104040009F4100089F4100089F4100089F410008D0
:104050009F4100089F4100089F4100089F410008C0
:104060009F4100089F4100089F4100089F410008B0
:104070009F4100089F4100089F4100089F410008A0
:104080009F4100089F4100089F4100089F41000890
:104090009F4100089F4100089F4100089F41000880
:1040A0009F4100089F4100089F4100089F41000870
:1040B000E16000089F4100089F4100089F410008FF
:1040C0009F4100089F4100089F4100089F41000850
:1040D0009F410008D96500089F4100089F410008E2
:1040E0009F4100089F4100089F4100080000000018
:1040F00000000000000000000000000000000000C0
:10410000000000009F41000811610008000000004D
:104110009F4100089F4100080000000000000000CF
:104120009F4100089F4100089F4100089F410008EF
:10413000000000000000000000000000000000007F
:104140000000000000000000000000009F41000887
:1041500000000000000000009F4100089F4100088F
:104160000000000000000000000000009F41000867
:10417000DFF80CD000F0A0F9004800477D86000869
:10418000D00D00200648804706480047FEE7FEE7BE
:10419000FEE7FEE7FEE7FEE7FEE7FEE7FEE7FEE7F7
:1041A0006D600008714100082DE9FE4F804681EAEC
:1041B0000300C00F0C46009021F0004123F00045A1
:1041C000B8EB0200A94105D24046214690461C4664
:1041D0000B46024623F00040104347D0270DC7F39B
:1041E0000A00C3F30A510290401A019040286BDA8A
:1041F000C3F3130040F4801B0098924620B10023C3
:10420000D2EB030A63EB0B0B01985946C0F1400255
:10421000504600F069F906460D4650465946019A47
:1042200000F081F910EB08006141002487EA115287
:1042300084EAE7731A4340D0009A62B3019A012AD4
:104240004FEA075215DC001B61EB02014FF0004200
:1042500002EA0752CDE90042001C41F580113246C6
:104260002B4600F081F903B0BDE8F08F40462146AF
:10427000F9E7001B61EB0201001C41F580130018F7
:104280005B412018A2F5001747EB030140EAD57007
:10429000B6196D4111E06D084FEA360645EAC07562
:1042A0004FEA0752001B61EB0201001C41F580112F
:1042B00049084FEA30000019514132462B4603B0FD
:1042C000BDE8F04F00F041B9009801224000002302
:1042D000D0EB020263EBE073009821464FEAE074F2
:1042E000B8EB000061EB0401E9E783F000435BE712
:1042F00081F0004158E72DE9FE4F81EA030404F004
:10430000004421F0004100944FF0000B23F00043E3
:1043100050EA01045ED052EA03045BD0C3F30A54AE
:10432000C1F30A552C44A4F2F3340194A0FB0254C7
:10433000C1F3130141F48011C3F3130343F4801359
:1043400001FB024400FB034E840A970A44EA8154AD
:1043500047EA8357A4FB076802958D0A05FB07858A
:104360004FEA932C04FB0C542705029D4FEA065894
:1043700047EA1637B5EB08056EEB070C870E920E71
:1043800047EA811742EA8312A7FB0201B6EB0B0151
:1043900064EB00042B0D43EA0C335E1844EB1C5015
:1043A000DA465146E7FB0201C5F313044FEA0B332B
:1043B00043EA14534FEA0432019C43EA0603A4F192
:1043C0000C040294009CCDE900B400F0CDF803B0D9
:1043D000BDE8F08F00200146F9E72DE9F04D81EAB4
:1043E000030404F0004B21F0004514464FF0000A8E
:1043F00023F0004150EA050220D054EA01021DD00A
:10440000C5F30A570246C5F31303C1F31300C1F302
:104410000A5640F4801543F48013A7EB0608101BDE
:10442000D64608F2FD3873EB050002D308F1010807
:1044300001E092185B41B8F1000F03DA0020014659
:10444000BDE8F08D00204FF48011064684460EE052
:10445000171B73EB050705D3121B63EB050306431C
:104460004CEA010C49084FEA300092185B4150EACF
:104470000107EDD152EA030012D082EA040083EA78
:104480000501084305D0101BAB4106D201220023D1
:1044900006E000224FF0004302E06FF001025310EB
:1044A0001AEB06004CEB085110EB0A0041EB0B0134
:1044B000BDE8F04D00F049B81CB509480090094826
:1044C00001900546009C06E0E06840F0010394E896
:1044D000070098471034AC42F6D3FFF74DFE0000BA
:1044E00088BC0108A8BC0108202A04DB203A00FA95
:1044F00002F1002070479140C2F1200320FA03F33B
:10450000194390407047202A04DB203A21FA02F038
:104510000021704721FA02F3D040C2F120029140FD
:10452000084319467047202A06DBCB17203A41FA88
:1045300002F043EAE07306E041FA02F3D040C2F130
:104540002002914008431946704710B5141E73F1BC
:10455000000408DA401C41F1000192185B411A4343
:1045600001D120F0010010BD2DE9F04D92469B468F
:1045700011B1B1FA81F202E0B0FA80F22032904635
:10458000FFF7B2FF04460F4640EA0A0041EA0B017A
:1045900053465A46084313D0114653EA010019D036
:1045A000C8F140025046FFF7AEFF05460E465046A2
:1045B00059464246FFF798FF084305D0012004E022
:1045C00020463946BDE8F08D0020054346EAE076F6
:1045D0002C4337430A986305E40AA0EB0800002245
:1045E000FD0A44EA47540A3002D500200146E9E7B3
:1045F000010510196941DDE9084500196941BDE867
:10460000F04DA2E70EB540F2334102910021CDE911
:1046100000110A460B46FFF7A7FF03B000BD70B5B7
:10462000C1F30A5201F000450024C1F3130140F226
:10463000FF3341F480119A4201DA002070BD40F24C
:1046400033439A42A2F2334203DC5242FFF75BFF4C
:1046500000E090402C43F1D0404270BDD2B201E066
:1046600000F8012B491EFBD270470022F6E710B577
:1046700013460A4604461946FFF7F0FF204610BDD0
:10468000F0B480EA0102D40F4200B2EB410F02D233
:104690000246084611464A0042D0C30DDDB2C1F3BE
:1046A000C752AD1A202D35DAC1F3160141F40002CC
:1046B00004B15242C5F1200602FA06F12A41104423
:1046C000B3EBD05F23D0C4B1012DA0EBC35009DC04
:1046D000F0BC4FF0004202EAC352DBB200F500002A
:1046E00000F068B9400000F1807000EBC350A0F109
:1046F000807040EAD170490009E0490841EAC07180
:10470000A0EBC35000F50000400800EBC350F0BC24
:1047100000F047B96142012202EB4101001BF6E7BC
:10472000F0BC704781F00041AAE780F00040A7E7A5
:1047300080EA010210B502F00043400022D04A0096
:104740001FD0010E01EB1261C0F35600C2F35602F6
:1047500040F4000042F40002A0FB022000047F3974
:10476000140400D0401C50EA124001D44000491EFD
:10477000C2B20C0604EBD010401C4008802A02D0C4
:1047800003E0002010BD20F00100002900DA002025
:10479000184310BD30B480EA010202F0004530F049
:1047A000004221F0004013D090B1C30DD40DC2F3EC
:1047B0001601C0F31600E41A41F4000140F40002AF
:1047C0007D34914201D3641C00E04900002C02DAE0
:1047D00030BC002070474FF400000023914201D309
:1047E000891A034340084FEA4101F7D151B1914280
:1047F00002D14FF0004105E002D24FF0010101E08B
:104800006FF0010103EBC450284430BC00F0C9B87C
:10481000002801DBC0F10040002901DBC1F10041AB
:10482000814201D80120704700207047002801DB39
:10483000C0F10040002901DBC1F10041814201D2F9
:104840000120704700207047002801DBC0F10040C4
:10485000002901DBC1F10041814201D301207047F1
:1048600000207047002801DBC0F10040002901DB77
:10487000C1F10041814201D90120704700207047F9
:10488000002801DBC0F10040002901DBC1F100413B
:10489000814201D10120704700207047C10F80EA9A
:1048A000E0700844CA079623002100F083B89623DD
:1048B0000022114600F07EB800F0004220F00040D7
:1048C000C10DC0F3160040F400007F2901DA00207A
:1048D0007047962903DCC1F19601C84001E0963982
:1048E0008840002AF4D04042704720F00040C10DBB
:1048F000C0F3160040F400007F2901DA0020704761
:10490000962903DCC1F19601C8407047963988406A
:104910007047C1F30A5210B5C1F3130140F2FF33DF
:1049200041F480119A4201DA002010BD40F2334375
:104930009A42A2F2334203DC5242FFF7E4FD10BD7B
:10494000904010BD00F0004230F000400AD0C10D90
:1049500001F56071C0F3160042EA0151C208400738
:104960001143704700200146704701F0004330B406
:1049700021F0004150EA010206D00A0DA2F5607252
:10498000C1F31301002A02DC30BC00207047440F41
:1049900044EAC104C100E01830BC00EBC250AFF3E0
:1049A00000800029A8BF7047401C490008BF20F0C4
:1049B0000100704710B4B0FA80FC00FA0CF050EA25
:1049C000010404BF10BC704749B1CCF1200421FAA6
:1049D00004F411FA0CF118BF012121430843A3EBA1
:1049E0000C01CB1D4FEA00614FEA102042BF0020AE
:1049F00010BC704700EBC35010440029A4BF10BC8A
:104A00007047401C490008BF20F0010010BC7047EF
:104A1000FEE770472DE9F84F41F6A309622A884660
:104A20000546DFF890A09B46CDF8009028BF622293
:104A3000052A98BF0522C2F16400A62148436421DB
:104A4000424680B2B0FBF1F72846532107F15306E6
:104A50003346D0470A9831460F220F230090681E34
:104A600084B2204601F062FD6137284642464FF489
:104A70008073CDF800B03946D047204653212A46EE
:104A80003346CDF80090D047204639462A4600F0FC
:104A900057FC08F1010053213346CDF8009084B251
:104AA00040462246D04740463946224600F048FC60
:104AB000BDE8F88F7B4E0008438E4FF6FF7293429D
:104AC0001CBF5A1C428670B5CB1C0021062B24D873
:104AD000DFE803F0042314230823200000F071FB17
:104AE00004211AE0038C41869A4238BF012180F8E4
:104AF00034104FF0010138BF09210EE0038C4186CC
:104B00009A4238BF012180F834104FF0020138BFBB
:104B10000A2102E000F055FB0321024612F8305F43
:104B200012F8093C12F8036CDCB202F8033C84F082
:104B300001033343B3FA83F35B094DB1002B5ED01D
:104B4000002280F83020C285826280F82C2056E056
:104B5000458D6DB1013D45852D0401D0002508E04E
:104B600090F82C50012D03D1002100F02AFB0521E3
:104B70000125BCB1002B42D0024632F8283F32F862
:104B8000104CA34239D3448BA3422FD290F82C303F
:104B900085F00104013B18BF012323432DD1838BF2
:104BA00043852AE0038D048B013303859BB2A34226
:104BB0000AD12DB990F82C40012C01D1062101E039
:104BC00000F12C0201241470428B934217D3C38D41
:104BD000C28B01339CB2B4FBF2F505FB1242002AF2
:104BE00018BF1A46C28508BF082108E0002180F8D6
:104BF0003010C18511601171072100201080084616
:104C000070BD2DE9F047016882888B6881688689CC
:104C10008D680469818AA46805EA0607BD1B04EA59
:104C2000010CB5FA85F5ACEB01044FEA551E90F87E
:104C30002450B4FA84F4640980F8264080F82740B0
:104C400003EA0204A31AB3FA83F34FEA531A837DEB
:104C50001BB355452ED0B7EB060918BF4FF001091D
:104C600090F82580B8F1010318BF0123BD1BB5FAE8
:104C700085F56D091D4394421FD165B1B8F1000F50
:104C800008BFB7423DD0A8EB0E02B2FA82F2520939
:104C900012EA090F3DD001251EE055450AD04FF01C
:104CA000FF35B74280F825E080F824A008BF012531
:104CB000944217D1022000251DE065B1B8F1000F24
:104CC00008BFB74221D0A8EB0E02B2FA82F2520915
:104CD00012EA090F27D0FF254FF0000E80F825E0DB
:104CE00080F824A0EAB26FF00200012A08BF032076
:104CF000002A08BF02208C4518BF054668B2BDE8EF
:104D0000F087FF254FF0010EE8E74FF0010E012577
:104D1000E4E787EA060288EA0E031A43B2FA82F24F
:104D200052095542DAE787EA060288EA0E031A4377
:104D3000B2FA82F25509D1E7FEE700002DE9F84FFB
:104D4000DFF88CB007462A20984692468946D84715
:104D5000EF4C4FF40045380AF8494FF4806665601F
:104D6000C4F8FC03F8B20E60C4F800682560656002
:104D70000F46C4F8FC034FEA1A200E6000F0D4FA84
:104D80005FFA8AF00E6000F0CFFA2B200E60C4F8B4
:104D900000682560D8474FEA192065605946C4F875
:104DA000FC035FFA89F03E6000F0BEFA4FEA18207B
:104DB0003E6000F0B9FA5FFA88F03E6000F0B4FAA5
:104DC0003E60C4F8006825602C20BDE8F84F084715
:104DD000155100082DE9FE4F0C46A3EB010B111AEB
:104DE00005460029029101DD012008E005D0029866
:104DF000404202904FF0FF3001E000200290BBF1F2
:104E0000000F019001DD012607E019BFCBF1000B77
:104E10004FF0FF364FF0000B002602985F464FF030
:104E200000084FF000094FF0000A584588BF0746B8
:104E30001FFA88F08742B8BFBDE8FE8FA8B2A1B2C2
:104E400002460B46FFF77AFF0C9800F053F90AEB85
:104E50000B0008F10108B842C8BF34440299019A16
:104E60004944B942C8BF1544B0EB070AD8BF8246CF
:104E7000B1EB0709D8BF8946DAE72DE9F843814647
:104E8000501E154698460E4682B2581E83B24846BA
:104E9000FFF754FF089CB0B2404528BFBDE8F88337
:104EA0004F46B8B2A84204D2204600F023F9013799
:104EB000F7E70136EFE7000010B5002004F096F99F
:104EC0009F489E4A4FF400414FF4006341601360D5
:104ED000D0F8F843C0F800380160102004F086F9DB
:104EE000A0B210BD2DE9F04F87B0119E1C461546AB
:104EF00000EB56028B1900F0CDF9A6F11000320933
:104F00004FF0000BC1B2400140EAD100012116F080
:104F10000E0F18BF01EB161202FB06F1C3B23148A7
:104F20000691A5F120017708109E00250593CAB2CD
:104F30004FF4C87100EB021004920390274800EB75
:104F400082100290244800EB02200190264812FBB8
:104F500001000090069885423BD0082B39D8DFE845
:104F600003F00507103838380E38120003980BE0AC
:104F700004981B4900EB400001EB001004E001988D
:104F800002E0029800E0009828440BF108084FF076
:104F9000000A90F80090BAF1080F13D029FA0AF02D
:104FA000C007204608BF304600F0A4F80BF1010B03
:104FB0001FFA8BF0B0FBF7F101FB170020B10AF1EB
:104FC000010AE8E7C34601E04FF0000B059B0135FD
:104FD000C0E707B0BDE8F08FB8C80008F8B0000817
:104FE000289F000838990008B82701082DE9FE4FCE
:104FF00007460D98994692460E4600254FF00A083E
:105000004FF0000B4408032D08BFBDE8FE8FC5F12B
:1050100002000121020604D001EB810101384900A0
:10502000F8E7BAFBF1F0BBF1000FB0FBF8F101EBD0
:105030008101A0EB410105D1012D03D8080410D056
:105040004FF0010BDDE90C2041F030014B46CDE97A
:10505000002005FB0470CAB2314600F0A4F9013506
:10506000D1E7DDE90C1030224B46CDE9001005FBFD
:105070000470314600F097F94FF0000BEFE72DE98F
:10508000FC4114460D4606464FF0100800272278D2
:1050900052B1B0B2294648F20F43CDE90078FFF78C
:1050A00021FF01340836F2E7BDE8FC812DE9FE4F0F
:1050B000DFF83CA01C469046894683465D080026E2
:1050C0000027072F08BFBDE8FE8F781EC0B2052855
:1050D0000AD81AF800200BEB060049464FF6FF737A
:1050E000CDE9008400F05FF92E440137E9E700BF05
:1050F0000896000812494FF400424FF480634A605A
:10510000C1F8FC030D480360C1F800380A6070471D
:105110001008014010B50949094B4FF480524FF473
:1051200000440A605C60C3F8FC034FF480600860D0
:10513000C3F80008C3F800281C6010BD141001401B
:1051400010080140FEE7704725221E2300904FF40F
:10515000AA7001F0EBB90246182043F286114FF60F
:10516000FF73CDE90010704707F1880002EB810260
:1051700070474FF48C71FFF739BF97F8A413C7F845
:1051800094400329704799F81500FFF790BB064635
:105190002846FFF775BA00202862E8616861286137
:1051A000AAF82C008AF80C00C9F84000E8607047A3
:1051B000002000214FF4F0724FF4A073009401F02E
:1051C000B5B980F83010C185816280F82C10704725
:1051D0002146FFF755BB4FF042413862FFF750BA06
:1051E0004FF47A70A7F8A603002089F8040097F816
:1051F000B4030128704700904FF4D77001F096B9BE
:105200002046FFF721BB78633046FFF739BAD42137
:105210007B22192300904FF4877001F087B94FF477
:1052200081715D22302370472846FFF729BA29464D
:10523000FFF7B0BA2046FFF715BB2046FFF73CBB8F
:10524000D2217B221C2300905A2001F06FB9BDF8B7
:1052500008100A31ADF808109DF80B1001317047A5
:10526000FA2158222D230090C42001F05FB929466D
:10527000FFF706BB0146204648478DF80B109DF806
:105280000B1070474FF07E51FFF7FAB930462946B0
:10529000FFF7BEBA013A013B92B29BB2FFF74EBD97
:1052A00001463046FFF7C2BA84F8A41301216062B8
:1052B00029700021317170475846FFF7E1B94FF06E
:1052C0008441FFF7DDB997F8C30302287047D7F888
:1052D0002C803046FFF72CBA86F8BA0304F11C0084
:1052E00028474FF4BC72FA230096384786F8BD036E
:1052F00004F11800284786F8B70304F11600284780
:1053000086F8B40304F11400284786F8AE0304F1CC
:1053100012002847C6F8840004F11000284705460B
:1053200030462946FFF790BAC4F8006825606560EA
:10533000C4F8FC037047C6F8800004F10C0028474D
:105340004FF48073CDF800905047286840F001007A
:1053500028607047C8E93000C8E93200C8E9340065
:10536000704701F0070125F4E04545EA0131704737
:1053700098F8A41398F8B4037047ADF809B08DF805
:1053800004A0CDF8054070470022FEF70DBF20466F
:10539000FFF776B92046FFF749BAC7F89800D7F863
:1053A0009400FFF76DB980B2FFF79CBD00BF00BF4E
:1053B00000BF00BF00BF00BF00BF00BF00BF00BFF5
:1053C00070470246202043F28611CDE90010704755
:1053D0000246502041F6A301CDE900107047BDF808
:1053E00008109DF807201144B1427047704770477C
:1053F0002DE9F843DFF8207C97F8A80358B1DFF8CF
:105400001C0C017801390170090609D105210170D0
:1054100001F064FA04E001F061FA012087F8CA03A0
:1054200097F8A803022809D1BC6D00212046FFF798
:1054300027FA18B9B049FFF7AAFFB865DFF8DC9B77
:10544000B9F808000138A9F80800000440F0948574
:10545000DFF8D04B0120A9F808002046FFF7D1FB68
:1054600001462046FFF728FB0138092800F2058194
:10547000DFE810F00A002E00030103014B006F006B
:10548000790012003500400097F8C603411F142927
:1054900000F27E800220EBE0DFF88C0B417E0029D9
:1054A00040F0EB800121417697F8C61300200229D5
:1054B0000AD0042908D0481F2B2801D3602905D120
:1054C00097F8C80310B9042089F802000120D2E03F
:1054D00097F8C603411F14294AD80320C8E097F85B
:1054E000C603042802D0022840F06E80072089F805
:1054F0000200E1E097F8C603042802D0022840F039
:105500006C80082089F8020002E197F8C60302289F
:1055100000F0B080042800F0AD80192800F066800B
:105520002B2800F06E802D2800F06280602840F06B
:10553000708097F8C303012840F05C830220B969AA
:105540003A6A87F8C3036D48C7E90B10C7E90D2015
:1055500090E097F8C60302282BD0042840F08D80F5
:105560000020022127E0DFF8C00A0021417684E014
:10557000A0F11B01102900F24E80DFE801F0187B3A
:105580006D7B717B73685E7B787B6F7B7B7B66005A
:10559000A0F11B01102947D8DFE801F0096C5E6C0F
:1055A000626C64594F6C696C606C6C6C57000920BC
:1055B0005EE00120042187F8AE034FF47A7087F88B
:1055C000C613A7F8A60355E0602856D1FFF77BFE67
:1055D00053D10D2089F80200B9E060284DD1FFF7C2
:1055E00072FE4AD10E2089F80200CCE004203FE090
:1055F00097F8AE03002800F0728301283AD1042006
:1056000073E397F8C403012800F06B8390BB152067
:105610006BE301202CE0022804D0602800F06883AE
:10562000042827D1062023E0022804D0602800F0B7
:10563000648304281ED105201AE097F8C303C8B973
:10564000602087F8C603012062E3142010E00020E8
:1056500087F8BD03212048E30A2009E0112007E074
:105660000F2005E0012087F8BD0322203DE3102034
:1056700089F80200002089F8040099F80200142833
:1056800000F2E283DFE810F015003D0100018F0118
:1056900098010701720118004400A701CF001A0108
:1056A000D90063007F008501BB01B101A000E003C8
:1056B000F600052000F0C3BBFFF792FD00F0A981C2
:1056C000002840F0BF81B8690D49FEF7D9FF0D49A8
:1056D0000546FFF7ABF810B90A4D0020F8610A49FA
:1056E0002846BD61FFF724F80849FFF753F8FFF794
:1056F000E6FD3862A6E100BF000080BF00007F43E6
:10570000000020410000FA43000010410000A040CA
:10571000FFF766FD00F0A381002840F0F581B8692D
:10572000D449FEF7ADFFD4490546FFF79BF810B901
:10573000D14D0020F861D1492846BD61FEF7F8FF40
:10574000CF49FFF727F8FFF7BAFD3862DCE197F899
:10575000B403012800F0B081002840F07283BD69D5
:10576000C649FE6A2846FEF7E3FFC549FFF712F86F
:10577000FFF7A5FDC349FFF746FDBF49FFF707FD4A
:10578000FFF7CDFD1BE097F8B403012800F09F81DF
:10579000002840F05683BD69B849FE6A2846FEF7E6
:1057A000C7FFB749FEF7F6FFFFF789FDB149FFF7DD
:1057B0002AFDB549FFF7EBFC0546FFF767FD00281A
:1057C00018BF2E46FE623CE3B049AB4AB04B002006
:1057D00087F8A403B86287F8C20387F8C003A7F864
:1057E000B303A7F8B00387F8AE03F8644FF47A70F8
:1057F000C7F88410A749C7E91F32A74BA74AA7F8E3
:10580000A603F9660121C7E91932BB6187F8C813FD
:1058100087F8BC1340F20111A7F8B9134FF4807157
:10582000A7F8B6130DE397F8B603002800F07981C6
:10583000012840F00683002074E197F8B4030128A2
:1058400000F07581002840F0FC82BE698B49FFF7AB
:105850003EFD8B49FEF79EFFFFF731FD8A49FFF7BA
:10586000D2FC064640463146FEF7FCFF8C49054611
:10587000404640E097F8C403002800F06681012804
:1058800040F0DF82002061E197F8C603811C1828F0
:1058900088BF05218DE0FFF7A3FC00F05A810028A6
:1058A00040F0E481BD697F492846FEF7BFFF00282C
:1058B00000F0C2812846FFF7E5FCC0E197F8B40389
:1058C000012800F05181002840F0BB82BE696B497D
:1058D000FFF7FDFC6A49FEF75DFFFFF7F0FC664944
:1058E000FFF791FC064640463146FEF79FFF05460E
:1058F00040464FF07E51FEF7C3FE002D08BF3046F4
:1059000051E197F8C613481F2A2800F20482DFE805
:1059100010F02B009802360298024C0298023C02CA
:1059200098021E0298025A02980218029802340243
:105930009802250298026D02980298029802650268
:105940009802520298022A0298026F0246026002EE
:105950009802100298028F0298023202980298026E
:105960009802980298020E021B2068E2FFF738FCAA
:1059700000F01B81002840F09D81BD693E4928460A
:10598000FEF770FF002800F07B814549FFF74CFCD3
:1059900079E197F8B903002800F01281012840F05E
:1059A000508200200DE197F8C603811E062838BFFB
:1059B000192187F8C61344E297F8AE03012800F0D6
:1059C0000581002840F03D8297F8AA03012800F2E3
:1059D0003882022033E297F8B303002800F0F88001
:1059E000012840F02E820020F3E097F8C20301283E
:1059F00000F0F480002840F024820120EFE097F8C6
:105A0000BC03012800F0F080002840F01A82012039
:105A1000EBE0386A2449FEF733FE24490546FEF7D9
:105A200005FF10B9214D0020786228464FF0424111
:105A30003D62FEF725FE1249FEF77AFE0F49FEF79A
:105A4000A9FEB86197F8A413032900F24481FFF777
:105A50008BFBDFE811F0F6013E0139013C013D6AA4
:105A600013492846FEF7FEFE002841D01149FFF7F2
:105A7000DBFB40E0000020C10000C84200001041F4
:105A80000000A040000020410000C8C20000F04219
:105A90000000A0420000D2430000BE430000C84303
:105AA000000080BF0000FA43000048420000694443
:105AB00000007D43000024C2786BD1493D6AFEF7A7
:105AC000DFFDD049FFF763FBFFF729FC0AE0786BA5
:105AD000CD493D6AFEF7D4FDCC49FFF758FB05469A
:105AE000FFF7D4FB002818BF2E4630467E6350E0F7
:105AF00000207862C348FFF76EFBC549FEF718FE29
:105B0000C449FEF747FEB86197F8A413032900F2D1
:105B1000E280FFF729FBDFE811F09401DC00D700F9
:105B2000DA00012087F8B40387F8B60389E1386A00
:105B3000B6497D6BFEF7A4FD064628463146FEF7C2
:105B400091FEB549804628461CE0012087F8C40331
:105B500077E13D6AB1492846FEF768FE002879D012
:105B60002846FFF78FFB78E0386AA6497D6BFEF781
:105B700087FD064628463146FEF758FE80462846F1
:105B80004FF07E51FEF77CFDB8F1000F08BF3046A4
:105B900078634FF04241FEF773FD9D49FEF7C8FD63
:105BA0009C49FEF7F7FDF8624BE13D6A95492846AE
:105BB000FEF758FE002871D09749FFF735FB70E0DB
:105BC000012087F8B70387F8B9033AE1042036E1EA
:105BD000012087F8B10387F8B30332E1002087F88A
:105BE000C00387F8C2032CE1002087F8BA0387F8C6
:105BF000BC0326E10120D7E90A5187F8C30388488E
:105C0000B8633863B869FEF78DFD0146FFF70CFBFA
:105C100084490546FEF718FE834900281CBF00256D
:105C2000C4F2C8252846FEF7F3FD00281CBF002556
:105C3000CCF2C825BD621DE50020F8617B4875499E
:105C4000B861FEF775FD7249FEF7A4FDFFF737FB5B
:105C500038620BE0002078627048FFF7BCFA6C49AC
:105C6000FEF766FD6B49FEF795FDB86197F8A41342
:105C7000032930D8FFF778FADFE801F0E32B262973
:105C80000020F86167486349B861FEF751FD60493B
:105C9000FEF780FDFFF713FB38620BE0002078620F
:105CA0005848FFF798FA5A49FEF742FD5949FEF75E
:105CB00071FDB86197F8A41303290CD8FFF754FAC3
:105CC000DFE801F0BF07020507F18C0001E007F1F2
:105CD000900053490160002087F8A403B1E002203E
:105CE00003E0122089F802002D2087F8C603C1E4E2
:105CF000FFF7E9FA05D10C20BAE4FFF7E4FA00F067
:105D0000808101287FF4B6AC232087F8C6030020E9
:105D100087F8C303AEE4602940F09380FFF7D3FA1D
:105D200000F07881012840F08C80022013E01720D9
:105D300085E097F8BC03012898BF87F8BA030F20C5
:105D40007DE0272087F8C60397F8C00349E72320A2
:105D500087F8C603002087F8C30372E0002087F8A5
:105D6000C4032B206BE097F8B903012898BF87F88C
:105D7000B703092063E0132061E029205FE01D20C4
:105D800087F8C60397F8B403CEE697F8BD0300285A
:105D900000F03A81012840F03A81222135E197F85C
:105DA000BF0301282AD1012026E01F2087F8C6035F
:105DB00097F8B70307E797F8B603012898BF87F865
:105DC000B40307203BE0252087F8C60397F8BA0301
:105DD0000DE797F8C303A0BB0D2030E097F8B3039D
:105DE000012898BF87F8B103FFF763BC2F2026E096
:105DF00097F8BF0310B9002087F8BD030B201EE001
:105E00000000204100005443000020C1000054C3A2
:105E10000000A04000001041000080BF0000694465
:105E200000007F430000C8420000C8C20000FA43DF
:105E300097F8C203012898BF87F8C003112087F89C
:105E4000C603132089F8020038342046FEF7D9FE35
:105E500001462046FEF730FE0138C0B209280CD8B2
:105E600040F20331C140C90707D0002189F804106E
:105E700071A1085C89F8010001E099F8010003288C
:105E800000F27A80DFE800F002501C364FF47A709E
:105E90006749A7F8A6036548FFF77FFA6A490446F1
:105EA000FEF7B6FC18B9684C0020C7F89800FFF759
:105EB00064F95BD8FFF758F9DFE801F05B565154FD
:105EC0004FF47A705649A7F8A6035848FFF765FAC9
:105ED00057490446FEF7B8FC18B9554C0020C7F8DE
:105EE0009800FFF74AF941D8FFF73EF9DFE801F0E3
:105EF000413C373A4FF47A705249A7F8A6034B4811
:105F0000FFF74BFA4A490446FEF79EFC18B9484C85
:105F10000020C7F89800FFF730F927D8FFF724F9D9
:105F2000DFE801F027221D204FF47A704FF07E51F8
:105F3000A7F8A6033D48FFF730FA43490446FEF7A9
:105F400067FC18B9404C0020C7F89800FFF715F916
:105F50000CD8FFF709F9DFE801F00C07020507F19B
:105F60008C0001E007F1900030490160002087F8C3
:105F7000A403042089F80100B9F806000138A9F843
:105F80000600000409D14FF47A70A9F806002648EB
:105F9000816BC7F8A41000218163234D687848BB4A
:105FA000102001F03FF8E883E88BFEF72BFB274A2F
:105FB000274BFEF7A0F9274B0022FEF79CF9264A53
:105FC000264BFEF7F1F8264A264BFEF706FA264B3B
:105FD000FFF7DAF9FEF7C9FC16490446B864FEF784
:105FE00041FC38B920460021FEF712FC10B901200F
:105FF0003C606870E86BE96C0130E863BDE8F84329
:1060000008470B20FFF734BB212187F8C61387F818
:10601000BF0316E701209EE60006002000000020D6
:10602000000080BF50000020C000002000007F431F
:106030000000A040000048420102010101010101ED
:10604000000300000000A0C00000484352B81E85B5
:10605000EB510A400000303F295C8FC2F528F4BFA5
:1060600033E197FA7953713F000039401848C1690C
:1060700041F08051C16117490A7842F004020A7068
:10608000C16921F08051C161016841F001010160E5
:1060900001688907FCD5416821F00301416041682E
:1060A00011F00C0FFBD101680B4A11400160002177
:1060B000416041F61071C1624FF4801101634FF4E9
:1060C0001F01816005484FF000610160704700BF0B
:1060D0000010024050700040FFFFF2FE08ED00E0AB
:1060E000B0B5094C606880070CD52068800709D5D9
:1060F000064D4FF07E51A86BFEF7C2FAA8636FF011
:1061000002006060B0BD00BF0C000040C000002075
:106110002DE9F04F85B0B24D2869C00700F0E3814A
:10612000DFF8AC9F99F8C903012840F0D081DFF86F
:1061300084AE9AF80C00012808D1DFF8BC03A94D01
:1061400084682946FFF776F808B104E0A64DDFF829
:10615000A8032C46856099F8B103009450B101283A
:106160000DD1D9F81800A149FEF78AFA8346CAF87A
:10617000400006E0D9F818B0CAF840B001E0DAF8FB
:1061800040B0DAF844005946FEF77AFB00287BD18C
:10619000DFF864434FF07C51E069FEF7C9FA00254F
:1061A000E061D7498DF80B50ADF808508DF80750D5
:1061B000D9F894703846FEF72BFB04465846FEF794
:1061C0007BFB002C06464FEA900412D14A2C8DF836
:1061D00007502FD864200021ADF80800CA48FFF707
:1061E0004CF8132946D8FFF7FAF843D2FFF72FF8F7
:1061F000F5E7C3493846FEF735FB0025E8BB3846CE
:1062000000214FF00008FEF703FBB0BB4A2C8DF8CD
:1062100007801FD864200021ADF80800B948FFF7B7
:106220002CF8132900F26281FFF7D9F822D2FFF788
:106230000EF8F4E74FF496701421ADF80800B24858
:10624000FFF71BF8272915D8FFF7C9F812D2FEF778
:10625000FEFFF5E74FF496701421ADF80800A94849
:10626000FFF70BF8272905D8FFF7B9F802D2FEF798
:10627000EEFFF5E79DF80B10455C68B2CAF844B034
:10628000FEF70CFBC9F8BC009B4DB5F85640092C35
:1062900019D895F8580000F0C5FE661C05EB840778
:1062A000A5F85660FEF703FB0446F862B5F8540003
:1062B000FEF7FDFA0146FFF76AF8FEF7FDFAB1B204
:1062C000B0FBF1F10DE0B5F854000A24B0FBF4F195
:1062D000461A95F8580000F0A5FE304481B2B1FB93
:1062E000F4F1A5F854008808FEF7E1FAD9F828106F
:1062F000C9F80000FEF716FA064699F8AA0318B185
:1063000099F8C013012915D18049FEF7D5FF07463A
:1063100030463946FEF7A6FA28B97D49FEF7CCFF8C
:10632000FEF7BEFFC0B130463946FEF79BFA40B1DA
:106330000026BCE0012808BF00290AD1FEF72BFF88
:1063400007E07349FEF7B8FFFEF7AAFF08B1694EF0
:10635000ADE0D9F84040A4E06E49FEF7ADFF01463C
:106360003046FEF77FFA28B96B49FEF7A5FFFEF726
:1063700097FFA8B10020AAF82C008AF80C00584614
:106380003146FEF7CFF9686165496869FEF76AFA38
:1063900020B968696349FEF749FA48B300202BE049
:1063A000BAF82C000130AAF82C0080B20F28E6D3EE
:1063B00000205A49AAF82C0001208AF80C00009805
:1063C000FEF75EF94D490446FEF722FA00281CBF8D
:1063D00044F20004C4F29C540094AC60CFE700BFC8
:1063E000000C004000409C4500B8084700004842AF
:1063F0006869E969FEF744F9E8614B4CE8692146B0
:10640000FEF714FA00B9EC61E86900210024FEF7F8
:1064100029FA00B9EC61D5E9007468692969FEF7C9
:1064200081F9A86120466E69E969FEF781F9696A18
:106430000490039104980399FEF7EAF908B90398C8
:1064400004900498039981F00041FEF7FDF918B912
:10645000039880F00040049038463146FEF768F912
:106460000499FEF70DF90446A9690098FEF760F952
:106470002146FEF705F9286268692861286AA96A39
:10648000FEF7C6F908B9A86A2862286AA96A81F0E5
:106490000041FEF7D9F908B9002028622C6AC9F832
:1064A0004040204600210026FEF7DCF910B93446B2
:1064B000C9F8406099F8AC0318B1FEF76CFE0C4DBA
:1064C00005E020460021FEF7CDF9094D10B9002462
:1064D000C9F840402046FEF708FA2864FEF735FF69
:1064E0006FF00100286105B0BDE8F08F0025C4E61B
:1064F000000C004000B808472401002000409C45E3
:106500000000A0415DBC010830BC01080000484308
:10651000000048C30000A0400000A0C000409CC58F
:106520000000C8420000C8C200C82F472DE9F04152
:106530006D4D02FB03F4640095F8BD63069D012ECA
:1065400006D076B9023DEEB2652E0AD2204E04E0A6
:10655000023DEEB2642E04D81C4EEDB256F8255022
:1065600000E0002502440B44FEF794FE194F4FF063
:10657000000844B32846B8EB942F0ED1214602F010
:1065800069FE0026A64206D2B85B00BA000CFEF7F0
:10659000B1FD0236F6E7002012E04FF4806102F010
:1065A00059FE0026B6F5806F06D2B85B00BA000C23
:1065B000FEF7A0FD0236F5E7A4F580604FF4806495
:1065C00025440446D5E7BDE8F08100BFA497000844
:1065D00010960008800100200848C168890603D58C
:1065E0000168890648BF4168C168490605D5016848
:1065F000490644BF6FF04001016070470038014018
:10660000FEE7000010B500EB40010A284FF007023A
:10661000084B28BF1E3902FA01F14FF00C0238BFB7
:106620001022D4582143D150596B21F01F01084347
:10663000586310BD002401400148102101607047DB
:10664000141C01400148102101607047101C0140DA
:10665000B0B5E84C94F8B70398B1012834D1E44DB3
:10666000287F02281FD001280ED068BBFFF7E4FF67
:106670001E480079012823D030BB01202877022052
:1066800021E0FFF7D9FF1FE0FFF7DCFF687F01384B
:106690006877000618D1154902202877097991B149
:1066A00001290FD010E0FFF7C7FF687F0138687736
:1066B000000609D10D48022101710020287702E06F
:1066C000012028771920687794F8AC0350B1C848A6
:1066D00001784A1C3229027004D1044902220A714D
:1066E00000210170B0BD00BF0006002000000020A6
:1066F00032490A68C2F38103314AF0B5DFE803F09A
:1067000002380A380B6D9B0532D5CB6A9B0148BF16
:106710002D4A2DE00B688C6A1B0C002C13D40C68DE
:106720000D68C5F34175C4F383440DB90F2C43D1F3
:106730002D0101352C44DB0702D00B689B0300D5EB
:10674000204A624314E08C6A8D6A8E6ADB071D4B17
:10675000C4F30314C5F3082506F0070603D00F6839
:10676000BF0358BF134604FA06F26B43B3FBF2F2C1
:10677000026016A40B68C3F30313E35C174CDA4002
:1067800042600B68C3F30223E35C22FA03F3C360A5
:106790000B68C3F3C223E35C0424DA4082600B6815
:1067A000096804EA9363C1F3813119440CA3595C6D
:1067B000B2FBF1F10161F0BD0225BBE7041002401C
:1067C00000127A0000093D00006CDC0200000000AD
:1067D00000000000010203040607080928BC0108A4
:1067E00002040608020C08107CB5044600204FF68F
:1067F000FF75C6B2142E09D8301900F0FFFBADF8B2
:106800000600B01CBDF80610A942F2D1BDF8060082
:106810007CBD02684BF6EF731A4002600A89036878
:106820001A4302604A7C036802F0030223F44053D7
:1068300043EA02320260CA7B036802F0030223F4D7
:10684000406343EA822202608A7B036802F003020B
:1068500023F4407343EA022202604A7B036802F099
:10686000010223F0800343EAC21202600A7B03683C
:1068700062F3861303600A7C036862F345130360C6
:106880004A8942600A6882604968C16070470000B6
:10689000016821F001010160002101604160816017
:1068A000C16040F2FF4100EA01020B49B2F5816F7D
:1068B00004D3D208902A0ED801F5806100F0FC00C4
:1068C00014220838B0FBF2F00F22800002FA00F028
:1068D0000A681043086070470400024070B5444ED7
:1068E000B07A38B14548FF210160424890F8AC03C6
:1068F00030B170BD3F4D95F8AC0320B1012000E0F0
:106900000020B07270BD95F8A803012812D00028AD
:1069100044D12C684149FEF73DFDF57A002855D158
:106920003849FEF76DFC002850D1002DE1D13348E5
:10693000322152E095F8AA03A0B301282ED195F890
:10694000C00368BBF07A2C49012804BF0020F07214
:106950002C68FEF71FFD294E002840D02949FEF77C
:1069600019FD002840D12449FEF74AFCE0BB20462F
:10697000FDF7E8FF244A254BFDF7BDFCFDF7F5FFC9
:10698000C5F8A800FDF7DEFF214A224BFDF7B3FC56
:10699000214BFEF7F9FCFDF7BCFF26E095F8C0039C
:1069A0000128A6D1F07A08B90120F072D5F8940038
:1069B000FDF7C8FF164A174BFDF79DFC164BFEF777
:1069C000E3FCFDF7A6FF0D49086070BD002D7FF4C4
:1069D00090AF01200021F0720848016070BD0848A6
:1069E000C5F8A8008F2000E00020306070BD00BF17
:1069F000C00000200006002000007A43380000405C
:106A00000000C84200008C429A9999999999D93FFF
:106A100014AE47E17A14F23F00003E40000070429D
:106A200010B5074C226842F00102226001804FF449
:106A3000801000F01BF8206820F00100206010BDDD
:106A40001020024008480168C9071CBF0020704799
:106A50000168490744BF012070470068C0064FF035
:106A6000020058BF032070470C200240B0B5044616
:106A7000FFF7E8FF0025013C45F1000118B911B10D
:106A8000FFF7E0FFF7E7B0BD2DE9F047DFF824A5F9
:106A90009AF80200032800F29780DFE800F00297DE
:106AA0000B76DFF8AC5995F8C903002800F09A81FD
:106AB000012093E1E049DFF89859E04ADFF80465E6
:106AC00001F1100089469AF80910904611F001076B
:106AD00008BF02F10E0095F8AE13B04709F112009D
:106AE000002F08BF08F1100095F8B413B04709F162
:106AF0001400002F08BF08F1120095F8B713B04733
:106B000009F11600002F08BF08F1140095F8BD1315
:106B1000B04709F11804002F08BF08F11604A86A4D
:106B2000FDF7CAFE01462046B04709F11A00002FC2
:106B300008BF08F1180095F8BA13B04709F11C0016
:106B4000002F08BF08F11A0095F8C013B04795F858
:106B5000AE038AF8030095F8B4038AF8040095F8A8
:106B6000B7038AF8050095F8BD038AF8060095F882
:106B7000BA038AF8070095F8C0038AF80800A86AE3
:106B8000FDF79AFEAAF8280025E1AB489AF80920FB
:106B9000AA491E30D20708BF01F11C00BAF82A101A
:106BA000FFF73EFFA648016841F080010160012027
:106BB0008AF80200BAF82A000130AAF82A009AF8E6
:106BC000090001308AF80900BDE8F087BAF8200012
:106BD000FDF76DFEDFF878880146D8F81800FDF75C
:106BE0004FFE002863D0BAF82200FDF760FE014690
:106BF000D8F89400FDF744FE002858D0BAF82400D5
:106C0000FDF755FE0446D8F86400FEF7E1FA0028C7
:106C10004DD0BAF82600FDF74AFE0546D8F87C00AC
:106C2000FEF725FB002842D0D8F86800FEF7D0FA1E
:106C3000E8B3D8F88000FEF71AFBC0B3D8F86C00B0
:106C4000FEF7C6FA98B3D8F88400FEF710FB70B3CD
:106C500098F8AE039AF80310814228D198F8B4034B
:106C60009AF80410814222D198F8B7039AF80510D7
:106C700081421CD198F8BD039AF80610814216D1C2
:106C8000BAF82800FDF713FE0146D8F82800FDF7F2
:106C9000F7FD60B198F8BA039AF80710814206D15F
:106CA00098F8C0039AF8081081423FF48DAFC44DA4
:106CB000C548C24F45F80C0CC4483C4645F80C0C7E
:106CC0009AF80900296841F0020110F001062960D4
:106CD00008BF04F580646C60286840F040002860BC
:106CE0004FF08040FFF7C2FE286820F002002860C5
:106CF000D8F81800FDF7E0FDDFF8C892FEF7BAFA01
:106D0000BC1C002E04BF4FF60204C0F60104D8F8E4
:106D10009400FDF7D1FDFEF7ADFA3C1DA64D002E07
:106D200008BFAC1CD8F86400FDF7C6FDFEF7A2FA58
:106D3000BC1D002E08BF2C1DD8F87C00FDF7BCFD43
:106D4000FEF798FA07F10804002E08BFAC1DD8F82A
:106D50006800FDF7B1FDFEF78DFA07F10A04002E79
:106D600008BF05F10804D8F88000FDF7A5FDFEF77F
:106D700081FA07F10C04002E08BF05F10A04D8F8C7
:106D80006C00FDF799FDFEF775FA07F10E04002E71
:106D900008BF05F10C04D8F88400FDF78DFDFEF75F
:106DA00069FAD8F81800D8F86C40D8F88450D8F8A8
:106DB0009460FDF781FDAAF820003046FDF77CFDC8
:106DC000AAF82200FEF739FAAAF824002846FDF7AF
:106DD00073FDAAF826009AF8020001308AF8020032
:106DE000BDE8F087B94C2046FFF7FEFC4FF6FF7672
:106DF000B04210D02046FFF7F7FCB0420BD004F1B0
:106E00001E0000F0FBF804466B481C3000F0F6F85A
:106E1000844205D80DE02046FFF7E6FCB04202D0E0
:106E200000F010F92EE004F58060FFF7DDFCB042C1
:106E300008D000F04FF925E000F4010802F801083D
:106E400010200240644A664B6149624800240126D2
:106E500085F8BD4385F8B76385F8B44385F8AE433C
:106E600085F8C04385F8BA43AC62EA67C5F880305C
:106E70005A4A5C4BC5F89410A861C5F88410E866BE
:106E8000C5E91923AC695849FEF7D4F918B957492F
:106E9000FEF7B6F908B94F48A861D5F894405449AF
:106EA000FEF7C8F918B95349FEF7AAF910B94848CE
:106EB000C5F894006C6E4C49FEF7BCF918B94B4903
:106EC000FEF79EF908B945486866AC6E4649FEF77C
:106ED000B1F918B94549FEF793F908B94148A866D0
:106EE000EC6E4149FEF7A6F918B94049FEF788F95A
:106EF00008B93848E866EC6F3D49FEF79BF918B9C8
:106F00003C49FEF77DF908B93348E867D5F8804079
:106F10003749FEF78FF918B93649FEF771F910B9FC
:106F20002F48C5F88000D5F884403149FEF782F932
:106F300018B93049FEF764F910B92548C5F884003E
:106F400095F8AE032949022824BF002085F8AE0336
:106F500095F8B403022824BF002085F8B40395F8FF
:106F6000B703022824BF012085F8B70395F8BD03B5
:106F7000022824BF002085F8BD03AC6AFEF75AF949
:106F800018B91D49FEF73CF908B90020A86295F828
:106F9000BA03022824BF002085F8BA0395F8C0037D
:106FA000022824BF002085F8C003012085F8C9030A
:106FB000BDE8F087C000002002F8010800F40108D5
:106FC00010200240216A000823016745AB89EFCDFC
:106FD0000000A0420000BE43000048420000A04361
:106FE000000070420000AF430000FA430000C842B6
:106FF000000048430000A0400000C8C281B0016802
:10700000D0F801008DF800108DF801009DF8010006
:107010009DF8001041EA0020ADF80200BDF8020022
:1070200001B0704780B5FFF7EDFA0548816841F47B
:107030008001816001688907FCD5C06C80B280BD89
:107040000024014070B5214C454D2046A847FDF76E
:107050002EFC444EB061A01CA847FDF728FCC6F8E2
:107060009400201DA847FDF722FC7066A01DA847CC
:10707000FDF71DFCF06704F10800A847FDF717FCB9
:10708000B06604F10A00A847FDF711FCFEF753F9BA
:10709000FDF70DFCF06604F10E00A847FDF707FCB4
:1070A000FEF738F9FEF731F9FEF72AF9FEF723F972
:1070B000FEF71CF9FDF7FBFBB06204F11A00A847CC
:1070C000FEF70AF986F8C00370BD00BF00F401089E
:1070D0000006002070B5214C214D2046A847FDF741
:1070E000E6FBDB4EB061A01CA847FDF7E0FBC6F84D
:1070F0009400201DA847FDF7DAFB7066A01DA84785
:10710000FDF7D5FBF06704F10800A847FDF7CFFBBA
:10711000B06604F10A00A847FDF7C9FBFEF70BF9BA
:10712000FDF7C5FBF06604F10E00A847FDF7BFFBB5
:10713000FEF7F0F8FEF7E9F8FEF7E2F8FEF7DBF805
:10714000FEF7D4F8FDF7B3FBB06204F11A00A847CC
:10715000FEF7C2F886F8C00370BD00BF00F8010852
:10716000FD6F00080006002009480121006821EA9F
:1071700090107047064801210068C0B281EAD01023
:10718000704700BF02480121006821EA10207047C3
:1071900008100140F0B58B790A88032B0AD05BB93F
:1071A0004979282913D0182912BF01F00F01026173
:1071B00008210EE000210CE00C79C97903F00803E6
:1071C00004F0040401F003012344194401E0426186
:1071D0000821130616D000230F240025082D11D0F6
:1071E00022FA05F6F6070AD0076804FA03F627EA3A
:1071F0000606066001FA03F607683E43066004339C
:107200000135EBE7B2F5807F17D3120A00230F2474
:107210000025082D11D022FA05F6F6070AD0476896
:1072200004FA03F627EA0606466001FA03F6476801
:107230003E43466004330135EBE7F0BD2DE9F84FDE
:10724000834890F8C903012840F000818149824EAB
:107250004FF0020B4FF000084FF00A0908780128A0
:1072600004BF002008700A2700250324B9F10D0F80
:1072700051D006EB080A9AF82000032843D8DFE82B
:1072800000F0021E1016DAF82C00CAF824508047CD
:10729000012819BF8AF82050747101208AF8200053
:1072A00031E08AF820507571CAF828702BE0DAF8BE
:1072B0002C008047012824D186F805B01EE0DAF8BA
:1072C0002C008047012804D1DAF824000130CAF8E4
:1072D0002400DAF82C00804708B98AF820B0DAF8E0
:1072E00028000138CAF828000DD1DAF82400CAF8BD
:1072F00028700A2802DA8AF820B004E08AF82040D0
:1073000001E08AF82050707908F1100806F80900A9
:1073100009F10109AAE74F4DB17A2878022908BF7F
:1073200000282DD0F27A931E18BF01230343DB07F8
:107330003CD0337B9C1E18BF01240443E4074DD08E
:10734000002918BF0121424C0143C9075CD0002A23
:1073500018BF012242EA0001C90764D0002B18BF00
:1073600001231843C00771D14FF47A713B48D4F818
:107370008420A4F8A6130321FDF796FFE16E5DE0DB
:10738000334A364901203071287082F8A40390698D
:10739000C2F89810C2E92211C2F890105162D1616E
:1073A000D2F894105066D167BDE8F88F284A0220C1
:1073B00082F8A4032948D2F89410C2F89800C2E9D0
:1073C0002200C2F890005062D0610120C2F8801003
:1073D0003071287090699066BDE8F88F1C4B0121D0
:1073E00003203171297083F8A4031C489969D3F8EC
:1073F0009420C3F898005862D861D966C3E9212067
:10740000C3E92300BDE8F88F4FF47A711348E26FA7
:10741000A4F8A613012184F8A41329700021606246
:107420003171616E0AE04FF47A710C48D4F8802013
:10743000A4F8A6130221FDF737FFA16EC4E90610D8
:10744000C4E92200C4E92402C4F89800BDE8F88F1A
:1074500000060020800500200000002000007F437F
:107460002DE9FE4FDFF89C8B98F8C903012841F005
:10747000AB80B8F8A6034FF6FF7130B198F8C66339
:10748000042E09D0022E08D00AE0DFF87C1B087C0D
:10749000B0B30138087430E031390844A8F8A603C5
:1074A00080B238B3012803D1DFF8540E0021817572
:1074B000D8E90640D8F82050FDF78AFE30B1D8F858
:1074C0002400FDF7D4FE002840F0F980022EC8F811
:1074D0002450C8F81C4000F09280042E40F0EF8049
:1074E00098F8B403012800F0D680002840F0E78027
:1074F0002046D1E0DFF8080E007C000640F06B81EA
:10750000DFF8F8BD9BF8B473012F1CD1DBF8000045
:10751000C349DBF82840FDF70BF9C249FDF73AF9FA
:10752000FDF7CDFECBF8040020460021FDF7A8F9B9
:1075300090B9BB492046FDF7FBF8BA49FDF72AF997
:10754000FDF7BDFE03E0DBF8284084F00040FDF7C6
:10755000B3F9DFF8AC1D48759BF8C6031421012868
:1075600007D0042805D09BF8A813002918BF6FF096
:107570003701DBE90065DFF8889D042889F81010E1
:10758000CBE9026547D0022840F0E0805020FDF7AB
:1075900057FE9BF8A803012868D19BF8BA0300287E
:1075A00064D0012840F0D280C246DBF80080DBF8CE
:1075B0002810DBF818504046FDF7B4F89A49FDF75B
:1075C000E6FD01463046FDF73FF998490446FDF7D0
:1075D0002BFE9BF8B473002C41F00080014630462E
:1075E000FDF716F9002840F0F987002F01F004801C
:1075F000012FD04640F0AA80DBF820008FE0522017
:10760000FDF71EFE98F8B40301284DD0002856D18E
:10761000D8F818004AE09BF8AA03012832D09BF85A
:10762000BA0378B3012840F0918030462146FDF737
:1076300079F8DBF818407C490546FDF7A8FE0146BD
:107640002846FDF701F979490646FDF7A0FE002E10
:107650007CD101462846FDF7DBF8002876D1012FC2
:1076600000F0DB87002F71D1204664E09BF8B40363
:1076700000284DD0012869D1FDF785FD0146DBF8D2
:1076800004004AE0002F50D0012F5FD1FDF77BFDB1
:10769000014628464DE02846FDF70EF9FDF791FE1C
:1076A00040F28910502106E0D8F82000FDF704F9D7
:1076B000FDF78EFE78214FF66143FDF797FCD8E980
:1076C0002540FDF785FD002840F08580DFF8300C6F
:1076D000C8F89840846498F8C603022809D00428A2
:1076E00079D1FDF7AAFDFDF76CFE40F29510CD2192
:1076F0000BE05620FDF78BFDD8F89400FDF7DCF881
:10770000FDF766FE4FF48770782143F67F4360E013
:10771000FDF739FD0146DBF80000FCF7B1FFFDF78E
:10772000CBF8FDF755FE78210CE0FDF72CFD014666
:107730003046FCF7A5FFFDF7BFF8FDF742FE40F22B
:10774000891050214FF6FF73FDF750FCDBE925400F
:10775000FDF73EFD10B9DBF8A8500AE099F81600D5
:10776000DBF8A850012804D1DBF8AC00FDF77FFD61
:1077700088BB9BF8A8139BF8AA239BF8C033012071
:10778000CBF8AC50CBF8984089F816009BF8C603AC
:1077900081F0010182F0010211431943090608BF7B
:1077A0002C46022809D0042815D1FDF746FDFDF727
:1077B00008FE40F29510CD2109E05420FDF727FD89
:1077C000FDF73BFDFDF704FE4FF4877078214FF67F
:1077D000FF73FDF70BFCDFF828AB9AF814000128C3
:1077E00016D000286DD1BAF82E0098F8C623411E95
:1077F00098F8A803022AAAF82E1008BF012809D079
:10780000022A0AD140F002000024022848D055E0A4
:10781000002054E008B200280ADD00244EE000BF3A
:10782000000010410000A0400000A0410000A0C1E5
:107830003220AAF82E00D8E91040FDF7C9FC002834
:10784000EBD1CE492046FCF7A5FFFDF735F80446FD
:10785000642828BF6420012898BF0120C0F164007B
:10786000FDF725F8C649FCF795FFC649FCF760FF10
:10787000FDF722F8C0F5877044F25071432385B2BA
:107880000091CF203F212A46FDF7F7FA41F6A300E9
:107890003F214FF48772432300902846FDF7EDFA0D
:1078A0001820002122464FF6FF73CDE9001040F268
:1078B00045103421FDF79AFB9AF81440601C8AF8B1
:1078C000140098F8C663232E09D0602E07D0D8F88C
:1078D0001800D8F82010C8F82C00C8F83410D8E9DF
:1078E0000B40D8F83450FDF773FC20B1D8F83800BD
:1078F000FDF7BDFC28BBDFF82C7D602EBD633C632B
:1079000002D0232E05D01CE0FDF7DDFC59D0012864
:1079100062D197F8B4034FF6FF7610B101282C46D8
:107920005AD1FDF78AFC0246202043F26611334605
:10793000CDE900104FF487709621FDF757FB97F8BB
:10794000C663022E1FD0042E46D19AF80D0058B9F6
:10795000002029214FF4BC72FA2300901220FDF779
:107960008CFA01208AF80D00DFF8B88C98F8A8038B
:1079700028B1D8F8A4008449FCF758FF80B300244C
:10798000CAF848402EE0DFF89C6CD6E90054306914
:10799000FDF76DFC28B17069FDF71AFC002840F076
:1079A000758196F8B403C6E90454002800F05781A5
:1079B000012840F061812046FCF7C4FF734A744BF4
:1079C00052E197F8B403002800F00486012803D19F
:1079D0004FF4FC662C46A4E700208AF80D0089E1EC
:1079E000DAF84840D8F800504FF04241FDF71CFC4F
:1079F0006849FCF79DFE6849FCF7CCFE064698F8FE
:107A0000B4036649012818BF2E463046FCF71CFF18
:107A10005B4D00281CBF0026C4F2FA36FDF736FC89
:107A20005F4A00281CBF0026C4F2C82630462946FB
:107A300001F09CFD5B49AAF83200FDF7E1FB00284C
:107A40001CBF0024C4F24834204600210026FCF765
:107A5000DFFE0028544A18BF00242046002101F010
:107A600085FDAAF8340040F2651744F638494FF016
:107A7000000ABA453CD00AF1120008EB0A0B009646
:107A800084B20AF114009BF8D8109BF8D93085B263
:107A900020462A46FDF79EF99BF83E129BF83F329E
:107AA00020462A460096FDF795F9BAF5B27F14D024
:107AB0004FF260409BF8DA309BF8D9102A460090CC
:107AC0002046FDF787F99BF840329BF83F1220468D
:107AD0002A46CDF80090FDF77DF99BF8D9000AF110
:107AE000010A8BF8D8009BF83F028BF83E02C0E7F2
:107AF000DFF834ABDFF8387B002448F20F464FF054
:107B00002A0B4725BAF8320088F83D02BAF834004B
:107B100088F8A30398F8B483BCB1052C46D004FBC5
:107B20000BF04FF4BC720096283081B212200B4645
:107B3000FDF750F904FB05F02821FA2300961230D6
:107B400080B20246FDF746F915E0122028214FF4D5
:107B5000BC7228230096B847122028211222FA234B
:107B60000096B8471220FA21FDF7BBFB4FF4BC701A
:107B70002821FDF7B6FB0134CEE700BF0080EF43BC
:107B80000000C84200007C420000F041D9CEF7530B
:107B9000E3A5BB3F0000A040000010410000FA43F5
:107BA000000016440000484300007A430FF684208A
:107BB0000FF68422B8F1000FDFF8806A08BF024692
:107BC00014204221B0470FF678200FF67822B8F142
:107BD000000F08BF024614206C21B0470FF6682042
:107BE0000FF66822B8F1000F08BF02461420962154
:107BF000B0470FF65C200FF65C22B8F1000F08BF0B
:107C000002461420C021B0470FF65022B8F1000FF1
:107C1000DFF8444A08BF22461420EA21B0474FF457
:107C2000B07042212246B0470FF634224FF4B070B4
:107C30006C21B0470FF62C224FF4B0709621B0475C
:107C40000FF624224FF4B470C021B0470FF61C2267
:107C50004FF4B870EA21B047DFF8C8894AE02846F7
:107C6000FCF770FEE14AE24BFCF745FBFCF7D7FC62
:107C700002468AF80E0001E09AF80E205E202721C5
:107C80004FF6A04300901A20FCF7C4FED6F89440AB
:107C9000D6F89C00D6F8A850FDF79AFA20B1D6F88D
:107CA000A000FDF7E4FA28BB96F8A80396F8AA13FB
:107CB00096F8C023C6E9274580F0010081F0010154
:107CC00008431043000608BF2C46FDF7B6FAFCF740
:107CD00099FCC84B0022FCF70EFBFCF7A0FC024607
:107CE0005F204FF4E37144F63843009040F2B9103E
:107CF000FCF790FE9AF81800C0BB0120BE49D8F8E6
:107D0000186044468AF81800D8F80000D8E91978B5
:107D10008946FCF70DFDB94DFDF789FAFDF7CFFA5D
:107D2000606030464946FCF703FDFDF780FAFDF739
:107D3000C6FA206238464946FCF7FAFCFDF777FAA6
:107D4000FDF7BDFA206740464946A046FCF7F0FC27
:107D5000FDF76DFAFDF7B3FA6067E06E4946FCF790
:107D6000E7FCFDF764FAFDF7AAFAA06798F8B403F8
:107D700098F8B513814258D001282ED0002854D14C
:107D8000DFF8A0489C492068A6698846FCF7D0FC2B
:107D90009A4DFDF74CFAFDF792FA60603046414685
:107DA000FCF7C6FCFDF743FAFDF789FA2746206287
:107DB000414657F8640FFCF7BBFCFDF738FAFDF7B6
:107DC0007EFA206704F16C0604F1680004F178087B
:107DD00004F17409024631460CE0464608F1780188
:107DE00008F1740208F1700708F1040806F120098F
:107DF00006F11800DFF878387F4C0068D961214619
:107E0000C3E90572FCF794FC7C4DFDF710FAFDF711
:107E100056FAC9F8000030682146FCF789FCFDF7E6
:107E200006FAFDF74CFAC8F80000DFF8F88798F872
:107E3000C603042802D0022840F0908098F8A413CA
:107E400098F8A50388424DD003280BD0022805D00E
:107E5000012810D1582000905A2007E059200090A6
:107E6000C12003E05A2000904FF49470FDF7D7F939
:107E7000FEF75CFB14E05820DFF8F857FDF7CFF968
:107E80005A2400905A20A8475920FDF7C8F90090BD
:107E9000C120A8474FF49470FDF7C1F90094A8479A
:107EA00098F8A40303280BD0022805D001280FD18D
:107EB0005B2000905A2007E05C200090C12003E086
:107EC0005D2000904FF49470FDF7A9F9FEF72EFBAA
:107ED0004B48FDF73FFA00208AF8170098F8A403F2
:107EE00088F8A503C0B3D8F81800D8F86450FCF798
:107EF000E3FC04462846FCF7DFFC84420BD0D8F8AC
:107F00006800FCF7D9FC844205D0D8F86C00FCF777
:107F1000D3FC844217D1D8F82000D8F87050FCF771
:107F2000CBFC04462846FCF7C7FC844214D0D8F8A2
:107F30007400FCF7C1FC84420ED0D8F87800FCF73E
:107F4000BBFC844208D09AF8170028B92C48FDF7EA
:107F500001FA01208AF8170098F8C603042802D015
:107F6000022840F0C780D8F86440D8F8C000FDF778
:107F70002FF930B1D8F87010D8F8CC00FCF780FC9D
:107F8000D8B9FDF7F5F90129012804D078B9DFF84F
:107F9000E006406901E008F170000068FCF78CFC25
:107FA000FDF7D9F86120FDF7E4F8D8F86440D8F877
:107FB0007000C8F8C040C8F8CC00D8F86840D8F8BD
:107FC000C400FDF705F930B1D8F87410D8F8D00026
:107FD000FCF756FC60BBFDF7CBF90229012815D050
:107FE00000BBDFF88C06806912E000BF9A9999996E
:107FF0009999C93F0000E03F000010410000A040F7
:1080000000007F4300060020C000002008F174003B
:108010000068FCF751FCFDF79EF8C820FDF7A9F8B1
:10802000D8F86840D8F87400C8F8C440C8F8D00040
:10803000D8F86C40D8F8C800FDF7CAF830B1D8F8C5
:108040007810D8F8D400FCF71BFCE0B9FDF790F9E4
:108050000329012804D080B9DFF81406C06901E0C3
:1080600008F178000068FCF727FCFDF774F840F28F
:108070002F10FDF77EF8D8F86C40D8F87800C8F8D3
:10808000C840C8F8D400D8F87C40D8F88800FDF77C
:108090009FF850B9FDF7D1F8FDF75DF88E20FDF798
:1080A00068F8D8F87C00C8F88800D8F88040D8F87C
:1080B0008C00FDF78DF850B9FDF7BFF8FDF74BF8D0
:1080C000F520FDF756F8D8F88000C8F88C00D8F8ED
:1080D0008440D8F89000FDF77BF858B9FDF7ADF86B
:1080E000FDF739F84FF4AE70FDF743F8D8F8840087
:1080F000C8F8900098F8C803C0B1DFF874150A6991
:10810000501E086198F8AE03002A11DC002288F89E
:10811000C8234FF4967200280A6100F0BF8001283E
:1081200006D1022088F8C603012001E098F8AE03CA
:108130009AF80F1071B9012806D040B998F8AA131F
:10814000012904D8022100E0042188F8C613012186
:108150008AF80F1060B998F8C603042801D00228E5
:1081600006D198F8AA0301289CBF022088F8C6030C
:1081700098F8C00370B998F8AA0398F8AB13814235
:1081800008D0002188F8AB03C8F8AC10C8E9261164
:10819000C8F8A01098F8A81398F8A92398F8C6036F
:1081A0008A4218D0022816D12AB9012903D1FF2208
:1081B00088F8C7230AE0012A08BF002906D1002257
:1081C000C8F8AC20C8E92622C8F8A020002288F808
:1081D000A9138AF8102098F8C713814233D0494A6E
:1081E0004949FF2388F8C7030090002088F8B53379
:1081F00088F8BB3388F8AF3388F8A5334FF4917310
:10820000C8E90422C8F83820C8F83020D8F89420EB
:10821000C8F85010C8F80810C8F81C10C8F8441066
:10822000C8E92611C8E93011C8E93211C8E934118A
:10823000C8E92211C8F890101E21CAF848204FF44E
:10824000F072FEF773F998F8B41398F8B503884202
:1082500039D098F8C60360280CD004280FD0232802
:1082600008D0022831D1012925D0002940F0B08161
:10827000402021E0012909D029BB3C2007E0012949
:1082800011D0002940F0A2813E200DE03D20009059
:108290004FF4A07099211C221B2312E0042088F8BF
:1082A000C603002044E73F2000904FF4DC705421C7
:1082B0001A22182305E041200090C820AA21142288
:1082C0001523FEF733F998F8C603A0F11B01CAB2D3
:1082D000C90141EA5201C9B2062975D8012202FA40
:1082E00001F111F0670F6FD01B2818D198F8B30374
:1082F00060B1012813D18924B12109E000060020D2
:10830000C000002000007A4400007F43B12489218E
:108310004E20FCF719FF4F202146FCF715FF98F877
:10832000C6031D2812D198F8B603012803D0B0BBAC
:108330008924B12101E0B12489214E20FCF704FFFA
:108340004F202146FCF700FF98F8C6031F2810D1E4
:1083500098F8B90320B101280BD18924B12101E09B
:10836000B12489214E20FCF7EFFE4F202146FCF777
:10837000EBFE98F8C603252813D198F8BC03012812
:1083800004D000287ED18924B12101E0B1248921C3
:108390004E20FCF7D9FE4F202146FCF7D5FE98F879
:1083A000C603272810D198F8C203012803D058B972
:1083B0008924B12101E0B12489214E20FCF7C4FEBB
:1083C0004F202146FCF7C0FE98F8C60323280CD0A6
:1083D00029280AD02B2818BF602821D12B2802D1A8
:1083E00098F8C41309B12D2804D14220FCF738FFB6
:1083F00098F8C603602805D02B2808D198F8C41334
:10840000012904D14420FCF72BFF98F8C6032B2840
:1084100011D198F8C403012805D060B9642003E0A5
:108420002D28DBD0F3E762200090CD20BE2146222C
:108430002023FEF77BF898F8C603292823D1EC20E7
:10844000802143F2661220234FF0EC0943F26615B7
:108450002027FCF72BFE884C0026072E0FD0701E1D
:10846000C0B2052809D8225C09EB0610B2214FF6EC
:10847000FF73CDE90057FCF796FF0136EDE798F85A
:10848000C60300E0252098F8A81349B9022807D1AF
:108490003420282196224B230090A520FEF746F891
:1084A0009AF81100012802D198F8B81316E031208B
:1084B00000214FF4F0721E2300900020FEF736F8E2
:1084C00040F29F10082143F286121023FCF7EEFDC4
:1084D000FF2101208AF8110088F8B81398F8B70333
:1084E000814213D098F8C6131F290FD033210128D9
:1084F00008BF322100914FF4C770062115221523C1
:10850000FEF714F898F8B70388F8B80398F8B103A1
:1085100098F8B213814212D001280BD166200321B2
:108520002A221823009040F26310FDF7FFFF98F80D
:10853000B10302E000218AF8111088F8B203D8F8DC
:10854000A4403A49FCF726FF98F8C65318BB022D01
:1085500021D19AF8121000208AF81300481C022931
:108560008AF8120009D801F14A0028212422222386
:10857000C0B2FCF740FE9AF81200C0B2042823D122
:108580004D20282124222223FCF735FE00208AF8E2
:108590001200BDE8FE8F2549FCF732FE78B9022DA6
:1085A0000DD19AF8130078B9012028212422222322
:1085B0008AF813004A20FCF71EFEBDE8FE8F022D4C
:1085C0001CBF00208AF81300BDE8FE8F04207CE663
:1085D00002207AE64FF4FC66FFF7A3B92FB1012F12
:1085E000D0463FF449A8FFF7B1B8FCF7CCFD0146EF
:1085F0004046FCF745F800E02846FCF75DF90246E6
:10860000502041F6A3014FF6FF73CDE90010782109
:10861000FCF7ECFCD046FFF799B8DBF82000FFF739
:108620008AB800BF00060020C00000200000C84239
:10863000D54D000835303000393332007F50000806
:1086400034303000373532003330300035373200C7
:10865000323030003339320059BC01083231320037
:1086600037350000353000003235000030000000A2
:10867000000000202D6500080896000888B05148C9
:108680005149524C40F8041C216841F0010121601D
:1086900021688907FCD5616821F003016160616888
:1086A00011F00C0FFBD12168494A114014222160BE
:1086B0000021616041F61071E1624FF48011216385
:1086C0004FF41F01A16043490A60616A41F0010152
:1086D0006162616A8907FCD5216841F480312160BB
:1086E00000212268920304D44A1CB1F5405F114670
:1086F000F7D3216889034FF00001F2D5216841F0DA
:108700000101216021688907FCD56168482241F494
:1087100080316160616821F400316160E16A62F377
:1087200010210122E162E16A62F307110222E16293
:10873000E16A62F30201E162E16A41F00041E16253
:10874000216841F08071216021688901FCD5616850
:10875000042221F0F0016160616862F3CD21616063
:10876000616862F30A2102226160616D41F03001AB
:108770006165616862F3010161607146FCF716FE94
:108780008E467146FCF712FE8E46616801F00C01C0
:108790000829FAD1616D21F0300161656168C1F38A
:1087A0008101022905D0E9B9616D890548BF216BB6
:1087B00018E06168E26A090C002A0DD462686268F8
:1087C0000DE000BF0CED00E000400008001002408A
:1087D000FFFFF2FE00200240E26AE26AE26AC90795
:1087E00018BF61686168FD4D02234FF0000A61699E
:1087F000A94641F001016161616941F04001616197
:10880000A16941F00101A161A16941F00401A161E7
:10881000A16941F00801A161A16941F01001A161C4
:10882000A16941F02001A161A16941F08001A1612C
:10883000A16941F40071A161A16941F48051A16174
:10884000A16941F48041A161E16941F00101E16167
:10885000E16941F00801E161E1496A5863F31242BC
:108860006A504FF6FF02DF4D01681140DE4A1143A6
:108870000160016880F80CA0016880F80DA0016813
:1088800080F80EA0016880F813A0016880F814A099
:10889000016880F816A00168C1F30221CA1E81F0A8
:1088A000070138BF52460423042928BF19464FF058
:1088B000FF3303FA01F1C94391404FF0805209019F
:1088C000C1750168C94981F800A0C5F8F0200068A9
:1088D00081F816A04FF48020C5F8F40003A8FDF736
:1088E00007FF2868C24E40F0040028604FF47A70F9
:1088F0000499B1FBF0F001386860C5F808A0286859
:1089000040F003002860BB48DFF8B057049042F203
:108910002000039003AF30463946A8474FF47070EB
:108920004FF018083946B34603903046ADF8118031
:10893000A8474FF4C8503946ADF811800390484617
:10894000A847AD4EC0203946ADF81180039030469F
:10895000A84710233046A94948F21008A946042226
:10896000A74D7361A74E46F8018041F61041CBF840
:1089700014104FF6FF717161A3490A603946CDE9C1
:108980000335C84795483946CDE903858046C84731
:1089900041F610403946CDE903055846C8474FF621
:1089A000FF703946CDE903053046C84704203946F3
:1089B000CDE903050BF58060C8474CF20E004FF47B
:1089C0004175394603905846ADF81150C847052007
:1089D0003946ADF81150C34603904046C8472020A1
:1089E0003946ADF8115003908348C847874DC846B3
:1089F0002846FDF74DFF40F20110CDF814A0CDE957
:108A000003AAADF81CA006904FF48040ADF8140006
:108A100003A92846FDF7FDFEC5F804A0C5F808A087
:108A2000C5F80CA07A4EFCF790FC4FF4007002964B
:108A3000019001AD58462946C8474FF48060294649
:108A400001907448029081465846C04703A8FDF73C
:108A50004FFE0598704A4FF4E1314FF6FF7300EB7B
:108A600080004000B0FBF2F2B0FBF1F102EB8200BB
:108A7000A1EB40000428694888BF013250F8041C6B
:108A80009943114440F8041C016821F480510160AD
:108A9000416821F440514160016841F008010160E2
:108AA000016841F004010160016821F40071016076
:108AB000016821F480610160816821F48071816026
:108AC000816821F400718160016841F40051016006
:108AD0002020CDE9030603AD58462946C047402073
:108AE0002946CDE903095846C04780202946B146AA
:108AF00004965E4603905846C04749480125C1691F
:108B000021F40061C161016821F400410160016844
:108B100021F480410160016821F4806101600168F5
:108B200041F400710160016841F4807101600168E5
:108B300041F004010160416821F4807141600168E5
:108B400021F038010160016821F0800101600168B5
:108B500021F400610160016841F0020101600168D7
:108B600041F001010160016841F0400101602D48C0
:108B7000039504901E4803A9C047606865F38F30D1
:108B80006060606820F080506060274C206840F48E
:108B90000000206054F8040C20F4807044F8040CA9
:108BA000206820F002002060206820F4006020602F
:108BB000606A20F4700060620A20FDF723FD2068DF
:108BC00020F000702060206840F460202060206861
:108BD00040F48010206000F029B800BF0008014078
:108BE00030F8FFFF10E000E00003FA051CE400E0AD
:108BF0000010014000040001001C014014FCFFFFB4
:108C000000041002000C014014140140080002404E
:108C10000004080200040002009411000C38014016
:108C200000300140000403010824014054F8040C02
:108C300020F4006044F8040C206840F0010020603B
:108C4000206840F00800206020680007FCD42068FD
:108C500040F00400206020684007FCD44FF0020878
:108C60003046CDE9038903A9FEF794FA4FF0804519
:108C7000704F4FF0010B4FF0060A002402212868C4
:108C800020F070002860286820F440702860286870
:108C900020F080002860FF20B862132078623869D5
:108CA00040F001003861786820F080007860386812
:108CB00020F070003860FCF760FB01AA4FF08040A4
:108CC00000F04CFB786920F4006078617C6378697F
:108CD00020F480607861FCF738FBB86840F002004F
:108CE000B8600820CDE9030903A93046FEF752FA1F
:108CF000F04D0621286820F070002860286868F38D
:108D000009202860286820F0800028604EF65F2047
:108D1000E8629520A862686940F001006861A8686F
:108D200020F08000A860686820F070006860286803
:108D300040F008002860FCF720FB01AA284600F05C
:108D40000DFB2C644FF0FF31E44AE54BDFF898E36C
:108D5000EA4FEB4EDFF894C3DFF89483E86920F420
:108D60000060E861E86940F48060E861286840F0EC
:108D700001002860E86840F00100E860D148D44D67
:108D80008160016821F018010160CF49C16001686C
:108D900021F060010160016821F08001016001683B
:108DA00041F001010160C94845F255510160416837
:108DB00021F007014160632181604AF6AA21016028
:108DC000C448C5492C62EC616C612C61EC6068623E
:108DD000A960C449C5E90032C74AC64BC6E9137E3B
:108DE00081F87840E1E8027E81E80C1106F1540137
:108DF00081E80C11A862C3480121726D9047726D21
:108E0000C14805219047726DC04832219047726D6C
:108E1000BF48C8219047726DBE4814219047726DBB
:108E2000BD481E2190470020282805D0291804306D
:108E3000CC62F9E7040000400A20002401274FF427
:108E40003371FA2285F858006C65E44DB348286206
:108E5000A861804605F1D800A5F85C402C6085F833
:108E6000AC4385F8AA736C63C5E90A4485F8A87316
:108E7000FBF7F4FBAA48AB49A5F8B9734FF4807728
:108E800085F8C243A5F8BF43A5F8BC4385F8B443B1
:108E900085F8B04385F8A443C5F8AC40C5F86C80AC
:108EA00085F8C843C5F8A84085F8AE43A5F8A643A1
:108EB000AC64A5F8B673C5E919109B4840F20111DE
:108EC000A5F8C6131421C5E9104005F19400FBF77D
:108ED000CCFB7B48A5F8C9730425DFF850820560F8
:108EE0007820C04774488346C0F81054F020C0472B
:108EF000CE494FF6FF70DFF838A20861D320D04783
:108F00008C4FB847B847B8470546B84740EA0520F0
:108F10003086C020D047884D0F20A8470F20A84793
:108F2000C120D0470F20A847C520D0470020A84720
:108F30005720A8478020A847B120D047A020A847A5
:108F4000B420D0470220A8473620D0474820A84761
:108F50003A20D0475520A8472120D0470020A847D5
:108F6000E920D0470020A847F720D047A920A847EC
:108F70005120A8472C20A8478220A847E020D047AE
:108F80000020A8470920A8470C20A8470220A8478E
:108F90000E20A8470520A8472F20A8474620A8470D
:108FA0004720A8470420A8470E20A8470B20A84721
:108FB0002D20A8473620A8470F20A847E120D047FA
:108FC0000020A84710204FF01009A8471320A847F9
:108FD0000320A8471020A8470620A8473A20A84702
:108FE0004620A8475120A8470620A8471020A84798
:108FF0000D20A8473320A8473720A8470F20A847AF
:10900000B620D0470220A8472220A8473B20A847E7
:10901000378E3620D04741F6631168208F4208BF53
:10902000C82046F604018F4208BFC820A8472A205E
:10903000D0470020A8470020A8470120A847DF20EC
:10904000A8472B20D0470020A8470020A847012090
:10905000A8473F20A8472C20D0477820C0471120A0
:10906000D047C820C0472920D0470020002140F227
:10907000DF1240F23F13CBF81090FBF75FFE600960
:109080000E280AD80025A809042804D80020FCF7D7
:1090900031F80135F7E70134F1E70124FCF788F8EE
:1090A000FCF786F84FF47A7000F090FA306D804744
:1090B000FCE700BF000C0040001001409571000863
:1090C0001414014008300240B71DC10400300040B4
:1090D0002401002000B8084700409C4600004040A2
:1090E0000000484484050020BD940008F194000865
:1090F0001D95000861940008359400084D950008FE
:10910000C0000020617400083D910008896A0008D1
:10911000E9950008516600083D7200080000BE4352
:109120000000AF430000A04300007A44CD95000842
:1091300015510008B94E0008F5500008B0B5274C8D
:1091400094F8C903012840D125480068C0F3403590
:1091500085F0010084F8AA0394F8A803022829D016
:10916000012809D088BB94F8C00308B984F8A85333
:109170000020A4F85C00B0BD94F8C003C0B255EA6A
:10918000000120D120681749FBF76CFBE8B9B4F85F
:10919000B0000130A4F8B00080B2332815D300200D
:1091A000012184F8CA03A4F8B00084F8A8030E488B
:1091B0000171B0BDA06D0021FBF762FB30B925B194
:1091C0000020A06505E0012803D0B0BD0DB9002046
:1091D00000E0012084F8A803B0BD00BF0006002015
:1091E0000810014000008C4200000020E0B5002182
:1091F0008DF804104FF6FF7100910121102808BF6F
:1092000002218DF807104FF0180108BF0421103813
:109210008DF80510B0FA80F06946400900018DF81C
:1092200006000248FDF7B6FF8CBD00BF000C0140F0
:1092300048490A6822F002020A600A6822F0010224
:109240000A6088604868C007FCD0886848680006E3
:10925000FCD470472DE9F04F87B005463A484FF0EF
:1092600010083A4C0F46C0F804800320A047C5F30D
:109270000740A047C5F30720A047E8B2A047344CF9
:10928000A5208DF81B0004F11C0A5046FDF700FBD9
:1092900004F130063046FDF7FBFAADF80C800DF115
:1092A0001B00ADF80E70B8462A4F0DF104094FF0BF
:1092B000000B02904FF440704946CDF810B007F112
:1092C0000805ADF8140030460195FDF7A2FA2248D2
:1092D0004946ADF80CB0ADF80E80CDE901504FF421
:1092E000807004904FF44070ADF814005046FDF7C4
:1092F00090FA386840F002003860386840F00100A9
:109300003860E06940F00100E061206B40F001004E
:10931000206320688006FCD520200B496060E0694E
:1093200020F00100E061206B20F00100206338682C
:1093300020F002003860386820F00100386010200A
:10934000086007B0BDE8F08F1008014031920008B6
:1093500000000240043001408001002070B54FF44D
:1093600000735578947846688B4026EA030343607F
:1093700001F1090304FA03F344689BB223434360F9
:109380004FF4807344688B4024EA03030524436050
:109390004B00066A9C4026EA040401F108060462B8
:1093A000B5404668ADB235430629456017D004295B
:1093B0000BD002291CD1816921F44071816111789F
:1093C0008569FBF7CEFF816112E0C16921F00301DD
:1093D000C1611178C56961F30615C56108E0C1690D
:1093E00021F44071C1611178C569FBF7BAFFC16111
:1093F00008211679D578994024EA0101DC1C06FA87
:1094000004F44FF6FE763440214302249C40A143ED
:1094100043F0010405FA04F4A4B221430162547933
:1094200092799C4002339A40224392B211430162E6
:1094300070BD00004C4A92F87830072B84BF0120A1
:10944000704710B55C1C03EB430382F8784002EBD5
:10945000830290610020D183918382F8200010BDA7
:1094600070B5414A144992F878300BB3042402F1E4
:1094700018060C6000248C605C1C013C18D006F1BE
:109480000C05366886422E46F7D1581EC3B282F8C4
:1094900078005B0053FA80F002EB8000D0E90623ED
:1094A00045E9032390F8200005F8040C002000E0B3
:1094B000012004220A6070BD10E000E070B52A4C63
:1094C000002694F8780004F11805864228BF70BD84
:1094D000A98849B9297A012906D0E988A98029688B
:1094E00011B1884794F878000C350136EDE700BFDC
:1094F00010B51D4A02F1180392F878200132013AA2
:1095000004BF012010BD03F10C041B6883422346F5
:10951000F5D1002004F8041C10BD00BF10B5124A9C
:1095200002F1180392F878200132013A04BF0120B9
:1095300010BD03F10C041B6883422346F5D10020C3
:1095400024F8061C24F8081C10BD00BF064901F1D0
:109550001C0091F8781031B102880AB1013A0280FA
:1095600001390C30F7E770478405002070B51446C8
:109570000D460646FBF75AF9002818BF2E4630461E
:109580002146FBF76FF9002818BF264628463146CA
:10959000FBF7C8F8064620462946FBF7C3F8014604
:1095A0003046FBF7F7F8FBF76DFE0649FBF7C0F80E
:1095B000FBF7C8F9044BFBF7E7FEFBF730F8283060
:1095C00070BD00BF000052430000E03F054901307C
:1095D00028BF4FF0FF30CA6BCB6B9B1A8342FBD383
:1095E000704700BFC0000020704702E008C8121F8B
:1095F00008C1002AFAD170477047002001E001C17C
:10960000121F002AFBD1704756312E302E30000039
:1096100000B0040000000000002F0D00806E11005B
:109620000000000080ED190000000000806C2200A6
:109630000000000080EB2A0000000000806A330078
:109640000000000080E93B0000000000806844004A
:109650000000000080E74C0000000000806655001C
:109660000000000080E55D000000000080646600EE
:109670000000000080E36E000000000080627700C0
:109680000000000080E17F00000000008060880092
:1096900000A08C0080DF900000000000805E990038
:1096A0000000000080DDA10000000000805CAA0036
:1096B0000000000080DBB20000000000805ABB0008
:1096C0000000000080D9C300000000008058CC00DA
:1096D00000C9CC0072CCCC00E4CFCC00000000006C
:1096E000AC7FCD0000000000E0F9CE0000000000DB
:1096F0001474D0000000000048EED10030F4D10016
:1097000018FAD100F8FED100D803D2002007D20009
:10971000680AD200000000004848D20000000000A3
:109720002886D200000000001CD6D20000000000F5
:109730001026D300A02FD3003039D300C042D3006D
:10974000504CD300FC54D300A85DD30000000000AF
:109750007893D3000000000048C9D3000000000047
:1097600054F9D300000000006029D400404CD4001C
:10977000206FD4000092D400E0B4D400C0D7D4004D
:10978000A0FAD40062FCD40024FED4000000000043
:10979000247DDD000000000024A0DD0000000000AA
:1097A00024C3DD0080EF080000000000002F0D0042
:1097B00000AE150000000000002D1E00000000009B
:1097C00000AC260000000000002B2F00000000006D
:1097D00000AA37000000000000294000000000003F
:1097E00000A8480000000000002751000000000011
:1097F00000A65900000000000025620000000000E3
:1098000000A46A00000000000023730000000000B4
:1098100000A27B0000000000002184000000000086
:109820008060880000A08C00001F950000000000F0
:10983000009E9D0000000000001DA600000000002A
:10984000009CAE0000000000001BB70000000000FC
:10985000009ABF00000000000019C80000000000CE
:109860008058CC0000C9CC0072CCCC00C827CD00F9
:1098700000000000C63CCE0000000000FAB6CF0099
:10988000000000002E31D1000000000048EED100A1
:1098900030F4D10018FAD100F8FED100D803D2007C
:1098A0002007D2005829D200000000003867D200FB
:1098B0000000000022AED2000000000016FED20020
:1098C000000000001026D300A02FD3003039D300B1
:1098D000C042D300504CD300FC54D3009078D30046
:1098E0000000000060AED300000000004EE1D30095
:1098F000000000005A11D400000000006029D400CC
:10990000404CD400206FD4000092D400E0B4D400C6
:10991000C0D7D400A0FAD40062FCD400A43DD90082
:1099200000000000A48EDD0000000000A4B1DD00F6
:109930000000000024C3DD00000000000000000063
:1099400000000000000000000000000808080808EF
:10995000080800001818000000486C2412000000DD
:1099600000000000000000000000002424247F12FA
:1099700012127F12121200000000081C2A2A0A0C80
:109980001828282A2A1C0808000000222515151569
:109990002A585454542200000000000C1212120ADB
:1099A00076252911916E00000006060403000000D0
:1099B000000000000000000000402010100808080F
:1099C00008080810102040000002040808101010B9
:1099D00010101008080402000000000008086B1CAA
:1099E0001C6B0808000000000000000008080808C0
:1099F0007F080808080000000000000000000000C8
:109A00000000000006060403000000000000000043
:109A1000FE00000000000000000000000000000048
:109A200000000000060600000000804040202010DA
:109A300010080804040202000000001824424242F8
:109A40004242424224180000000000080E080808A4
:109A500008080808083E00000000003C424242207E
:109A600020100804427E00000000003C4242201802
:109A700020404042221C0000000000203028242406
:109A800022227E20207800000000007E0202021ABE
:109A900026404042221C0000000000382402021A26
:109AA00026424242241800000000007E22221010AC
:109AB00008080808080800000000003C4242422450
:109AC00018244242423C0000000000182442424256
:109AD00064584040241C00000000000000001818DA
