:020000040800F2
:10200000881C002085210008F3470008712D000876
:10201000F1470008472A0008FD6D00080000000095
:10202000000000000000000000000000274D000834
:10203000492A000800000000254D0008294D00082D
:102040009F2100089F2100089F2100089F21000870
:102050009F2100089F2100089F2100089F21000860
:102060009F2100089F2100089F2100089F21000850
:102070009F2100089F2100089F2100089F21000840
:102080009F2100089F2100089F2100089F21000830
:102090009F2100089F2100089F2100089F21000820
:1020A000956200089F2100089F2100089F210008D9
:1020B0009F2100089F2100089F2100089F21000800
:1020C0009F2100089F2100089F2100089F210008F0
:1020D0009F2100089D6D00089F2100089F21000896
:1020E0009F2100089F2100089F2100080000000098
:1020F00000000000000000000000000000000000E0
:10210000000000009F210008C562000800000000D8
:102110009F2100089F21000800000000000000002F
:102120009F2100089F2100089F2100089F2100088F
:10213000000000000000000000000000000000009F
:102140000000000000000000000000009F210008C7
:1021500000000000000000009F2100089F210008EF
:102160000000000000000000000000009F210008A7
:10217000DFF80CD000F0A0F90048004719870008EC
:10218000881C00200648804706480047FEE7FEE717
:10219000FEE7FEE7FEE7FEE7FEE7FEE7FEE7FEE717
:1021A00021620008712100082DE9FE4F804681EA76
:1021B0000300C00F0C46009021F0004123F00045C1
:1021C000B8EB0200A94105D24046214690461C4684
:1021D0000B46024623F00040104347D0270DC7F3BB
:1021E0000A00C3F30A510290401A019040286BDAAA
:1021F000C3F3130040F4801B0098924620B10023E3
:10220000D2EB030A63EB0B0B01985946C0F1400275
:10221000504600F069F906460D4650465946019A67
:1022200000F081F910EB08006141002487EA1152A7
:1022300084EAE7731A4340D0009A62B3019A012AF4
:102240004FEA075215DC001B61EB02014FF0004220
:1022500002EA0752CDE90042001C41F580113246E6
:102260002B4600F081F903B0BDE8F08F40462146CF
:10227000F9E7001B61EB0201001C41F58013001817
:102280005B412018A2F5001747EB030140EAD57027
:10229000B6196D4111E06D084FEA360645EAC07582
:1022A0004FEA0752001B61EB0201001C41F580114F
:1022B00049084FEA30000019514132462B4603B01D
:1022C000BDE8F04F00F041B9009801224000002322
:1022D000D0EB020263EBE073009821464FEAE07412
:1022E000B8EB000061EB0401E9E783F000435BE732
:1022F00081F0004158E72DE9FE4F81EA030404F024
:10230000004421F0004100944FF0000B23F0004303
:1023100050EA01045ED052EA03045BD0C3F30A54CE
:10232000C1F30A552C44A4F2F3340194A0FB0254E7
:10233000C1F3130141F48011C3F3130343F4801379
:1023400001FB024400FB034E840A970A44EA8154CD
:1023500047EA8357A4FB076802958D0A05FB0785AA
:102360004FEA932C04FB0C542705029D4FEA0658B4
:1023700047EA1637B5EB08056EEB070C870E920E91
:1023800047EA811742EA8312A7FB0201B6EB0B0171
:1023900064EB00042B0D43EA0C335E1844EB1C5035
:1023A000DA465146E7FB0201C5F313044FEA0B334B
:1023B00043EA14534FEA0432019C43EA0603A4F1B2
:1023C0000C040294009CCDE900B400F0CDF803B0F9
:1023D000BDE8F08F00200146F9E72DE9F04D81EAD4
:1023E000030404F0004B21F0004514464FF0000AAE
:1023F00023F0004150EA050220D054EA01021DD02A
:10240000C5F30A570246C5F31303C1F31300C1F322
:102410000A5640F4801543F48013A7EB0608101BFE
:10242000D64608F2FD3873EB050002D308F1010827
:1024300001E092185B41B8F1000F03DA0020014679
:10244000BDE8F08D00204FF48011064684460EE072
:10245000171B73EB050705D3121B63EB050306433C
:102460004CEA010C49084FEA300092185B4150EAEF
:102470000107EDD152EA030012D082EA040083EA98
:102480000501084305D0101BAB4106D201220023F1
:1024900006E000224FF0004302E06FF0010253100B
:1024A0001AEB06004CEB085110EB0A0041EB0B0154
:1024B000BDE8F04D00F049B81CB509480090094846
:1024C00001900546009C06E0E06840F0010394E8B6
:1024D000070098471034AC42F6D3FFF74DFE0000DA
:1024E000C4CB0108E4CB0108202A04DB203A00FA1F
:1024F00002F1002070479140C2F1200320FA03F35B
:10250000194390407047202A04DB203A21FA02F058
:102510000021704721FA02F3D040C2F1200291401D
:10252000084319467047202A06DBCB17203A41FAA8
:1025300002F043EAE07306E041FA02F3D040C2F150
:102540002002914008431946704710B5141E73F1DC
:10255000000408DA401C41F1000192185B411A4363
:1025600001D120F0010010BD2DE9F04D92469B46AF
:1025700011B1B1FA81F202E0B0FA80F22032904655
:10258000FFF7B2FF04460F4640EA0A0041EA0B019A
:1025900053465A46084313D0114653EA010019D056
:1025A000C8F140025046FFF7AEFF05460E465046C2
:1025B00059464246FFF798FF084305D0012004E042
:1025C00020463946BDE8F08D0020054346EAE07616
:1025D0002C4337430A986305E40AA0EB0800002265
:1025E000FD0A44EA47540A3002D500200146E9E7D3
:1025F000010510196941DDE9084500196941BDE887
:10260000F04DA2E70EB540F2334102910021CDE931
:1026100000110A460B46FFF7A7FF03B000BD70B5D7
:10262000C1F30A5201F000450024C1F3130140F246
:10263000FF3341F480119A4201DA002070BD40F26C
:1026400033439A42A2F2334203DC5242FFF75BFF6C
:1026500000E090402C43F1D0404270BDD2B201E086
:1026600000F8012B491EFBD270470022F6E710B597
:1026700013460A4604461946FFF7F0FF204610BDF0
:10268000F0B480EA0102D40F4200B2EB410F02D253
:102690000246084611464A0042D0C30DDDB2C1F3DE
:1026A000C752AD1A202D35DAC1F3160141F40002EC
:1026B00004B15242C5F1200602FA06F12A41104443
:1026C000B3EBD05F23D0C4B1012DA0EBC35009DC24
:1026D000F0BC4FF0004202EAC352DBB200F500004A
:1026E00000F083B9400000F1807000EBC350A0F10E
:1026F000807040EAD170490009E0490841EAC071A0
:10270000A0EBC35000F50000400800EBC350F0BC44
:1027100000F062B96142012202EB4101001BF6E7C1
:10272000F0BC704781F00041AAE780F00040A7E7C5
:1027300080EA010210B502F00043400022D04A00B6
:102740001FD0010E01EB1261C0F35600C2F3560216
:1027500040F4000042F40002A0FB022000047F3994
:10276000140400D0401C50EA124001D44000491E1D
:10277000C2B20C0604EBD010401C4008802A02D0E4
:1027800003E0002010BD20F00100002900DA002045
:10279000184310BD30B480EA010202F0004530F069
:1027A000004221F0004013D090B1C30DD40DC2F30C
:1027B0001601C0F31600E41A41F4000140F40002CF
:1027C0007D34914201D3641C00E04900002C02DA00
:1027D00030BC002070474FF400000023914201D329
:1027E000891A034340084FEA4101F7D151B19142A0
:1027F00002D14FF0004105E002D24FF0010101E0AB
:102800006FF0010103EBC450284430BC00F0E4B881
:10281000002801DBC0F10040002901DBC1F10041CB
:10282000814201D80120704700207047002801DB59
:10283000C0F10040002901DBC1F10041814201D219
:102840000120704700207047002801DBC0F10040E4
:10285000002901DBC1F10041814201D30120704711
:1028600000207047002801DBC0F10040002901DB97
:10287000C1F10041814201D9012070470020704719
:10288000002801DBC0F10040002901DBC1F100415B
:10289000814201D1012070470020704730B5041EED
:1028A00071F1000404DB4FF00044404264EB01018D
:1028B000141E73F1000405DB1C464FF00043524226
:1028C00063EB0403801A994101D2012030BD00203E
:1028D00030BDC10F80EAE0700844CA07962300218A
:1028E00000F083B896230022114600F07EB800F075
:1028F000004220F00040C10DC0F3160040F400007B
:102900007F2901DA00207047962903DCC1F1960186
:10291000C84001E096398840002AF4D04042704710
:1029200020F00040C10DC0F3160040F400007F29E4
:1029300001DA00207047962903DCC1F19601C840F6
:102940007047963988407047C1F30A5210B5C1F3F9
:10295000130140F2FF3341F480119A4201DA002062
:1029600010BD40F233439A42A2F2334203DC52429A
:10297000FFF7C9FD10BD904010BD00F0004230F0DF
:1029800000400AD0C10D01F56071C0F3160042EAA3
:102990000151C208400711437047002001467047AB
:1029A00001F0004330B421F0004150EA010206D0AA
:1029B0000A0DA2F56072C1F31301002A02DC30BCDB
:1029C00000207047440F44EAC104C100E01830BC45
:1029D00000EBC250AFF300800029A8BF7047401C35
:1029E000490008BF20F00100704710B4B0FA80FC25
:1029F00000FA0CF050EA010404BF10BC704749B162
:102A0000CCF1200421FA04F411FA0CF118BF0121D1
:102A100021430843A3EB0C01CB1D4FEA00614FEAB1
:102A2000102042BF002010BC704700EBC350104480
:102A30000029A4BF10BC7047401C490008BF20F00B
:102A4000010010BC7047FEE7704700002DE9F84F09
:102A500041F6A309622A88460546DFF890A09B4606
:102A6000CDF8009028BF6222052A98BF0522C2F146
:102A70006400A62148436421424680B2B0FBF1F7CE
:102A80002846532107F153063346D0470A9831466A
:102A90000F220F230090681E84B2204603F03AFEF6
:102AA0006137284642464FF48073CDF800B039466E
:102AB000D047204653212A463346CDF80090D047D0
:102AC000204639462A4602F0FDF808F1010053215C
:102AD0003346CDF8009084B240462246D047404667
:102AE0003946224602F0EEF8BDE8F88FB32E000812
:102AF000438E4FF6FF7293421CBF5A1C428670B53C
:102B0000CB1C0021062B24D8DFE803F00423142378
:102B10000823200001F099FF04211AE0038C41866C
:102B20009A4238BF012180F834104FF0010138BFBC
:102B300009210EE0038C41869A4238BF012180F8BA
:102B400034104FF0020138BF0A2102E001F07DFF8E
:102B50000321024612F8305F12F8093C12F8036CA8
:102B6000DCB202F8033C84F001033343B3FA83F38D
:102B70005B094DB1002B5ED0002280F83020C28569
:102B8000826280F82C2056E0458D6DB1013D45856F
:102B90002D0401D0002508E090F82C50012D03D120
:102BA000002101F052FF05210125BCB1002B42D0CC
:102BB000024632F8283F32F8104CA34239D3448BF6
:102BC000A3422FD290F82C3085F00104013B18BFAE
:102BD000012323432DD1838B43852AE0038D048B6E
:102BE000013303859BB2A3420AD12DB990F82C4042
:102BF000012C01D1062101E000F12C020124147006
:102C0000428B934217D3C38DC28B01339CB2B4FB6A
:102C1000F2F505FB1242002A18BF1A46C28508BF0A
:102C2000082108E0002180F83010C1851160117181
:102C3000072100201080084670BD2DE9F04701688B
:102C400082888B68816886898D680469818AA46816
:102C500005EA0607BD1B04EA010CB5FA85F5ACEBE5
:102C600001044FEA551E90F82450B4FA84F4640924
:102C700080F8264080F8274003EA0204A31AB3FA3A
:102C800083F34FEA531A837D1BB355452ED0B7EB20
:102C9000060918BF4FF0010990F82580B8F101032B
:102CA00018BF0123BD1BB5FA85F56D091D4394427C
:102CB0001FD165B1B8F1000F08BFB7423DD0A8EBF6
:102CC0000E02B2FA82F2520912EA090F3DD0012532
:102CD0001EE055450AD04FF0FF35B74280F825E099
:102CE00080F824A008BF0125944217D102200025B6
:102CF0001DE065B1B8F1000F08BFB74221D0A8EBC5
:102D00000E02B2FA82F2520912EA090F27D0FF2509
:102D10004FF0000E80F825E080F824A0EAB26FF0B2
:102D20000200012A08BF0320002A08BF02208C45A8
:102D300018BF054668B2BDE8F087FF254FF0010EC9
:102D4000E8E74FF0010E0125E4E787EA060288EA8A
:102D50000E031A43B2FA82F252095542DAE787EAC1
:102D6000060288EA0E031A43B2FA82F25509D1E745
:102D7000FEE700002DE9F84FDFF88CB007462A2067
:102D8000984692468946D847F44C4FF40045380A95
:102D9000F3494FF480666560C4F8FC03F8B20E6036
:102DA000C4F80068256065600F46C4F8FC034FEA6C
:102DB0001A200E6001F0A7FD5FFA8AF00E6001F0A4
:102DC000A2FD2B200E60C4F800682560D8474FEAAA
:102DD000192065605946C4F8FC035FFA89F03E602B
:102DE00001F091FD4FEA18203E6001F08CFD5FFA82
:102DF00088F03E6001F087FD3E60C4F80068256001
:102E00002C20BDE8F84F0847653100082DE9FE4F3A
:102E10000C46A3EB010B111A05460029029101DDB6
:102E2000012008E005D00298404202904FF0FF30A8
:102E300001E000200290BBF1000F019001DD0126AE
:102E400007E019BFCBF1000B4FF0FF364FF0000B3E
:102E5000002602985F464FF000084FF000094FF03F
:102E6000000A584588BF07461FFA88F08742B8BF56
:102E7000BDE8FE8FA8B2A1B202460B46FFF77AFF6B
:102E80000C9800F05DF90AEB0B0008F10108B8425C
:102E9000C8BF34440299019A4944B942C8BF154495
:102EA000B0EB070AD8BF8246B1EB0709D8BF894605
:102EB000DAE72DE9F8438146501E154698460E463E
:102EC00082B2581E83B24846FFF754FF089CB0B246
:102ED000404528BFBDE8F8834F46B8B2A84204D2A7
:102EE000204600F02DF90137F7E70136EFE7000043
:102EF00010B5002006F040FFA548A44A4FF4004159
:102F00004FF4006341601360D0F8F843C0F8003814
:102F10000160102006F030FFA0B210BD2DE9F04F87
:102F200087B0119F1C46904600EB5702CB1901F069
:102F30001AFE01203909109E4FF0000B17F00E0FFA
:102F400018BF00EB171101FB07F00690A8F1200055
:102F50004FF4C8717D084FF00008C2B22D480592A9
:102F600012FB010004902F4800EB021003902B4845
:102F700000EB82100290284800EB02200190069896
:102F8000804543D0502F16D0102F18D00598182FF9
:102F900000EB400009D0202F0FD0402F09D00C2F7C
:102FA00034D1214901EB80000AE01D4901EB0010FA
:102FB00006E0019804E0049802E0029800E003981B
:102FC00040440BF108074FF0000A90F80090BAF166
:102FD000080F13D029FA0AF0C007204608BF304670
:102FE00000F0AEF80BF1010B1FFA8BF0B0FBF5F11E
:102FF00001FB150020B10AF1010AE8E7BB4601E038
:103000004FF0000B119F08F10108B8E707B0BDE8C9
:10301000F08F00BFF8360108F8D7000838C0000864
:1030200068AE000878A8000804A400082DE9FE4F47
:1030300007460D98994692460E4600254FF00A081D
:103040004FF0000B4408032D08BFBDE8FE8FC5F10B
:1030500002000121020604D001EB81010138490080
:10306000F8E7BAFBF1F0BBF1000FB0FBF8F101EBB0
:103070008101A0EB410105D1012D03D8080410D036
:103080004FF0010BDDE90C2041F030014B46CDE95A
:10309000002005FB0470CAB2314601F03BFE013549
:1030A000D1E7DDE90C1030224B46CDE9001005FBDD
:1030B0000470314601F02EFE4FF0000BEFE72DE9D2
:1030C000FC47DDF82880994615460E4607464FF026
:1030D000000A4FEA58042A784AB1B8B231464B4642
:1030E000CDE900A8FFF71AFF27440135F3E7BDE853
:1030F000FC8700002DE9FE4F1C469046894683461A
:103100005D0800260FF2300A0027072F08BFBDE830
:10311000FE8F781EC0B205280AD81AF800200BEBE3
:10312000060049464FF6FF73CDE9008401F0F2FD39
:103130002E440137E9E700BF56312E302E3700000C
:1031400013494FF400424FF480634A60C1F8FC0316
:103150000E480360C1F800380A607047100801404B
:103160001410014010B50949094B4FF480524FF437
:1031700000440A605C60C3F8FC034FF480600860A0
:10318000C3F80008C3F800281C6010BD14100140EB
:10319000100801402DE9F04F95B0DFF8C0BB9BF857
:1031A000150001282AD0002841F0E582DFF8B09B05
:1031B00099F8E60302282AD1D9F8B040D34901F0A2
:1031C0009FFC88B3D14901F05EFC002840F0BC8030
:1031D00099F8C003002840F0B7809BF81D00002834
:1031E00040F0B2809BF81E0001308BF81E00C0B288
:1031F000032824BF0120ABF81D0074E09BF82900D0
:10320000012808D1DFF83C0E90F8D10334E000200B
:103210008BF81D0098E0DFF82C4E94F8EB03B0B16A
:1032200001281BD17F2013E09BF81C0001308BF894
:103230001C00C0B215284DD300208BF81C009BF851
:103240001B00013000F003008BF81B0044E03D2020
:10325000009001F02BFB1E2303F05CFA40F29F105C
:10326000082143F286121023FFF744FF01208BF858
:103270002900FF2084F8D103DFF8C88D98F8D01317
:1032800088420FD03F20012908BF3E2000904FF414
:10329000C77006211522152303F03CFA98F8D003D5
:1032A00088F8D10398F8C90398F8CA13814221D04D
:1032B000012803D098F8CB13012916D170200321DF
:1032C0002A221823009040F2631003F023FA98F8A2
:1032D000C9030DE09BF81B0000218BF81D10DFE8EF
:1032E00000F0022A2628562026E000218BF829101B
:1032F00088F8CA0398F8E6034FF6FF7A00F0FE015B
:1033000002294FF6FF7140F0508798F8C41398F8DF
:10331000C5238A4200F0DB80032900F2D280DFE877
:1033200001F002C8C4C6012088F8E703C9E05820AC
:1033300002E0592000E0572000904FF4D770282178
:103340002422222303F0E6F999F8E80301280FD19B
:10335000DFF8F40C81694A1E0029826108DC002133
:1033600089F8E8134FF496718161172089F8E60314
:103370009BF8191099F8C60319B108BB99F8C21344
:103380000CE0012101288BF819100CD0C0B999F874
:10339000C213012909D8022089F8E6030020022976
:1033A00038BF012002E0032008E0002099F8E6136E
:1033B00001F0FE01022903D110B1022089F8E603D1
:1033C00099F8E60399F8E7234FF6FF71824200F07F
:1033D000CF80DFF8742C4E4B89F8E703D1814D493B
:1033E000FF22C9E90433C9F83830C9F8303089F808
:1033F000B92389F8CE2389F8D42389F8C7238BF819
:103400001720C9F81C10C9F85410C9F8081001F0A9
:103410003FFAC9F89C10C9F84410C9F8A41001F08B
:1034200051FAA0F11D01CAB2202A04D300F17F0293
:10343000D2B2012A22D89BF81A2082B904201E2178
:103440004FF4F0724FF491730090002003F062F992
:1034500001208BF81A0099F8E603A0F11D01C9B20A
:10346000062904D3A0F12D01C9B20D2911D800906D
:103470004F2046214FF4A172A52377E00021009050
:1034800000204FF4F0724FF491738BF81A101E2144
:103490006CE0A0F12301C9B207294ED8009050205A
:1034A0003B2140F23F12BB2360E0462002E0442073
:1034B00000E0422000907B207B21EB22672303F079
:1034C00029F998F8C41398F8E60388F8C513022878
:1034D0004FF6FF7140F0698698F8C003022804D0C7
:1034E000012819D0002840F021861820002434211A
:1034F00000224FF6FF73CDE9004040F24510FFF780
:1035000095FDABF8504000F011BE00BF0000A04296
:1035100000007A4400007F4398F8C203012802D1DA
:1035200098F8D90320B198F8C943022C40F0CB8415
:103530000020ABF8500000F0F9BDA0F18101022994
:103540000ED3A0F13B0102290AD3A0F12B010129DE
:103550000ED80090482058214FF4A872822305E02D
:103560000090092057214FF4E772842303F0D2F82A
:103570009BF8210001280DD0002840F02581B9F8E2
:10358000BA0390B199F8E663022E51D0032E54D1BC
:1035900019214EE0B9F8BC0388B199F8E663022E10
:1035A00072D0032E75D119216FE09BF82A000028F4
:1035B00000F0B48001385F468BF82A009EE0D9F80D
:1035C0009850D9F8A000D9F8B44001F053FA30B1BE
:1035D000D9F8B80001F04BFA002840F0F28099F8D1
:1035E000C01399F8C22399F8D93399F8E603C9F8BA
:1035F000B840C9F8A050090608BF2C4682F0010166
:10360000DAB2114318BF2C46CBF86840022800F00C
:10361000C480032840F0D58001F038FA024620200B
:1036200043F28611CDE900104FF4CA70CD21C4E0F9
:103630000521D0FA51F0A9F8BA030020D9F820509A
:103640005F46C9E90200D9E9064001F010FA28B145
:10365000D9F8240001F00EFA00284FD199F8CD03D3
:10366000C9F82450C9F81C40002808BF254601F0BD
:103670004AFA0446022E37D0032E3FD101F00FF94B
:1036800040F28910502135E00521D0FA51F0A9F817
:10369000BC0399F8C973022F04D0CE48C9F8B8000A
:1036A000C9F8A000D9E92640D9F8BC5001F0DFF9EB
:1036B00030B1D9F8C00001F0DDF9002840F0818078
:1036C000C9F8C050C9F89C40022F08BF2C4601F031
:1036D000DDF90446022E16D0032E72D101F0DFF878
:1036E0004FF4CA70CD2116E05E2001F0E5F901F03B
:1036F000B8F878214FF66143FFF798FC97F821005E
:10370000BB4601305EE0622001F0C3F901F0A9F888
:103710004FF48770782143F67F4350E099F8C40353
:103720005F460028EAD1D9F82850D9F80080002156
:103730002846FFF7A5F8A84906462846FEF7F8FFF1
:10374000A649FFF727F801F09FF885F00041002E09
:1037500018BF084699F8CDB3BBF1010F18BF084652
:10376000FFF7C5F899F8C9A30546BAF1010F40F073
:10377000D483BBF1010F40F0FA8397494046FEF72E
:10378000D7FF9649FFF706F801F07EF89449C9F88B
:103790000400FEF775FF0646CEE3602001F079F9DC
:1037A000DBF86800FFF7A3F80246502041F6A301BA
:1037B000CDE900104FF4877078214FF6FF73FFF7C3
:1037C00035FC00208BF8210099F8E603022800F070
:1037D0006F81032840F081819BF8180058B90020C0
:1037E00029214FF4BC72FA2300901220FFF761FBED
:1037F00001208BF81800D9F800607A49D9F84850B0
:10380000D9F8B08001F09DF999F8C943012C18BF8F
:103810003046FFF76CF80646FFF75BF8014628468E
:10382000FFF720F8074601F06EF90546002F08BFA4
:10383000354699F8C00350B16B494046FEF7F6FF94
:1038400028B99820022C08BFBC2059F8008028B263
:10385000CA46FFF73EF865490546FEF7F5FF644E98
:1038600000281CBF0025C4F2FA3528463146FEF771
:10387000CFFF604A00281CBF0025C4F2C825284697
:10388000314606F063FDABF856004046FFF72FF8CF
:10389000FFF728F8584901F039F900281CBF002427
:1038A000C4F24834204600210026FEF7B1FF00286C
:1038B000524A18BF00242046002106F047FDABF80D
:1038C000580040F2651744F6384B4FF00009B945EF
:1038D0003CD009F112000AEB0908009684B209F104
:1038E000140098F8EC1098F8ED3085B220462A467E
:1038F000FFF78CFA98F8521298F8533220462A466D
:103900000096FFF783FAB9F5B27F14D04FF260400A
:1039100098F8EE3098F8ED102A4600902046FFF710
:1039200075FA98F8543298F8531220462A46CDF882
:1039300000B0FFF76BFA98F8ED0009F1010988F87B
:10394000EC0098F8530288F85202C0E7DFF82C1E0A
:10395000DFF8446ED146002448F20F454727B1F8FE
:1039600056008AF85102B1F858008AF8B7034FF0B0
:103970002A0ABCB1052C43D004FB0AF04FF4BC72F8
:103980000095283081B212200B46FFF73FFA04FB66
:1039900007F02821FA230095123080B20246FFF783
:1039A00035FA15E0122028214FF4BC722823009527
:1039B000B047122028211222FA230095B047122086
:1039C000FA2101F059F94FF4BC70282101F054F9A3
:1039D0000134CEE700007F43000010410000A0400A
:1039E0000000F4C2000048C20000F0410000FA43A9
:1039F0000000C842000016440000484300007A431B
:103A000073202A212F2219230090142002F082FE15
:103A1000DFF8944D0C250FF684521520462100F056
:103A2000D9FF0FF688521520702100F0D3FF0FF652
:103A3000885215209A2100F0CDFF0FF688521520EC
:103A4000C42100F0C7FF0FF688521520EE2100F0C8
:103A5000C1FF74202A2117221723009040F25F1023
:103A600002F058FE0FF674524FF4B270462100F087
:103A7000ADFF0FF66C524FF4B270702100F0A6FF4C
:103A80000FF660524FF4B2709A2100F09FFF0FF6CC
:103A900058524FF4B570C42100F098FF0FF64C5205
:103AA0004FF4B870EE2100F091FFDFF8D0BC91E048
:103AB000D9E90045D9F8100000F0D9FF88B9B9F864
:103AC000BA1399F8CD03C9E90445A1B100B3D9F8F7
:103AD00020009B49FEF7D4FD17E000208BF818006A
:103AE00078E0D9F8140000F0C5FFB9F8BA1300283F
:103AF000E7D059B3E5E799F8C96360B19049284622
:103B0000FEF7BEFD012E18BF28468E4C8E4D0AE0F2
:103B1000D9F8180005E08D4900F0A6FF012E18BF66
:103B200020468B4C8B4DFEF728FF02460B4628465D
:103B30002146FEF7E0FBFEF772FD02466A202721D0
:103B40004FF6A04300901A20FEF780FFD9F8984066
:103B5000D9F8A400D9F8B45000F089FF10B9D9F809
:103B6000BC600CE0D9F8A800D9F8BC6000F082FF76
:103B700028B1D9F8AC003146FEF782FE50BB09F1FE
:103B8000A40070C099F8C003012809D199F8C203B4
:103B9000012805D199F8D90310B9B9F8BC0320B1AF
:103BA00001F012F808BF3446254600F0ACFFFEF7DE
:103BB00029FD694B0022FEF79EFBFEF730FD024611
:103BC0006B204FF4E37140F25F43009040F2B91074
:103BD000FEF73CFF99F8E603011F11F1020FC0F058
:103BE000CD8046F269605D214FF481724FF4947389
:103BF000ADF850003020109346F268531291CDE991
:103C00000C21CDE9072199F8B813119213900E9069
:103C100009905A20ADF83C30C123069099F8B903B9
:103C20000B9346F26743ADF82830884247D006AC84
:103C3000012604F10805042E10D099F8B903864234
:103C400009D16F7AAB882A8835F8041C35F8080C3E
:103C5000009702F05FFD14350136ECE799F8B903DF
:103C600008B104280DD300253C2D0AD06619605BED
:103C7000B3893289B188767C009602F04BFD143509
:103C8000F2E799F8B803411ECAB2022A0FD8900091
:103C900050FA81F134F8210004EB8104A3892289D0
:103CA000A188247C009402F035FD99F8B803E74917
:103CB000002289F8B9038BF8222000F0E9FD0028E2
:103CC0005AD09BF82200002856D1D9E91A06D9F813
:103CD0001850D9F82040FEF70AFEADF8120000F0A7
:103CE0006CFFADF81400D9F87000FEF700FEADF8D7
:103CF0001600D9F87400FEF7FAFDADF80C00D9F8FB
:103D00007800FEF7F4FDADF80E00D9F87C00FEF760
:103D1000EEFDADF8100000F0F6FE054600F0B6FE30
:103D200000210DF1120203AB03291BD032F8114020
:103D3000AC4221D033F8114001318442F4D11BE070
:103D40000000F4C2E3A5BB3FD9CEF753000048C240
:103D50009999C93F9A9999990000E43F0801002078
:103D60009C140020B948C9E93500C9E93700C9E900
:103D7000390001208BF8220099F8E60300F0FE00DC
:103D8000022840F09B80D9F86840D9F8D400D9F8CF
:103D9000745000F06CFE20B1D9F8E00000F06AFE2B
:103DA00090B900F0A9FE08BF2C4600F06FFE00F0AD
:103DB0009AFE602000F0F7FDD9F86800D9F8741079
:103DC000C9F8D400C9F8E010D9F86C40D9F8D80087
:103DD000D9F8785000F04BFE20B1D9F8E40000F09B
:103DE00049FE90B900F088FE08BF2C4600F04EFE58
:103DF00000F079FEC72000F0D6FDD9F86C00D9F8A4
:103E00007810C9F8D800C9F8E410D9F87040D9F88A
:103E1000DC00D9F87C5000F02AFE20B1D9F8E80087
:103E200000F028FE98B900F067FE08BF2C4600F0AD
:103E30002DFE00F058FE4FF4977000F0B4FDD9F855
:103E40007000D9F87C10C9F8DC00C9F8E810D9F87E
:103E50008040D9F88C0000F00AFE50B900F016FE40
:103E600000F041FE8D2000F09EFDD9F88000C9F8D9
:103E70008C00D9F88440D9F8900000F0F8FD50B9D2
:103E800000F004FE00F02FFEF42000F08CFDD9F8C5
:103E90008400C9F89000D9F88840D9F8940000F05F
:103EA000E6FD58B900F0F2FD00F01DFE40F25B1097
:103EB00000F079FDD9F88800C9F894009BF8150046
:103EC000013000F056BCD8F80000D8F81870FEF7A2
:103ED0000EFD012C08BF323800B2FEF7FAFC5C4937
:103EE00004463846FEF7CCFB21468246FEF79EFC90
:103EF000584905463846FEF7C3FB064635B93046F5
:103F00002146FEF7AFFC002800F0AC803046214689
:103F1000FEF77EFCF0B90120FDE0BBF1010F7BD183
:103F20004D494046FEF704FC4C49FEF733FC00F0D7
:103F3000ABFC0646C9F804002846FEF7CAFC014659
:103F400000F0FFFDFEF7D3FC0546FEF7C2FCD9F8F2
:103F50004C601EE050462146FEF776FC00284FF6E6
:103F6000FF7A40F0DF8000208BF81F00D8E03C494A
:103F70004046FEF785FB06462846FEF7AAFC0146AA
:103F800000F0DFFDFEF7B3FC0546FEF7A2FCD9F812
:103F90004860014600F046FC10B100F00EFE0546F8
:103FA00099F8E64344F00200032801D1142004E00C
:103FB00099F8C003002818BF142087F82A00D9E90F
:103FC00001604146FEF75CFC38B1D9F80C0031467F
:103FD000FEF756FC00287FF491ABBAF1020FC9E955
:103FE000028617D099F8D303012813D197F82B0034
:103FF000CA46B946002855D00AF11800BBF1010F96
:1040000008BF0AF120000068FEF771FC0546C9F8F8
:104010006C0060E0FD665FE02846FEF75AFC014652
:104020004046FEF72DFBFEF762FC0546FEF751FC0D
:10403000D9F8486001463046FEF7EAFB0028ACD0CC
:10404000AEE700BF9C1400200000002000007F436A
:104050000000C8420000C8C2000010410000A0409B
:10406000000048C29BF82000022853D1DFF8100757
:104070004FF6FF7A018A0139018209B2002951DC29
:104080003221018238462146FEF74CFBFEF72FFC19
:1040900001B280EAE130A0EBE13000B20128D8BFE4
:1040A00001203DE02846C9F86C50FEF712FCDAF812
:1040B0001860DC49804600F044FD4146FEF7D2FB23
:1040C00048B9D94900F03DFD4146FEF7AFFB10B9B4
:1040D000012089F82B00D146032C0ED0022C7FF44E
:1040E0000DAB5C2000F0E8FCB7F86C20502041F6E6
:1040F000A301CDE90010782108E0202043F28611C9
:10410000AAB2CDE9001040F2891050214FF6FF739A
:10411000FFF7F2BA02208BF81F0064204FF6FF7AF7
:10412000ABF850009BF81F008BF82000DFF850160A
:10413000BBF85000C98981423AD0C0B2642828BF78
:104140006420012898BF0120C0F16400FEF7CAFB7B
:10415000B649FEF71FFBB649FEF7EAFAFEF7C7FBC2
:10416000C0F5877044F25071432384B20091CF2090
:104170003F212246FEF79DFE41F6A3003F214FF46A
:104180008772432300902046FEF793FEBBF8502031
:10419000182000214FF6FF73CDE9001040F24510C2
:1041A0003421FEF743FFBBF85010DFF8D405C1817E
:1041B00098F8E67307F0FD002D2804D1D8F82C50AC
:1041C000D8F8344007E0D8F81850D8F82040C8F89C
:1041D0002C50C8F83440D8F83000D8F8386000F0D7
:1041E00049FC18B1304600F042FC28BB47F0020001
:1041F000C8F83840C8F830502F281DD198F8CD03A2
:1042000098F8DC63002808BF2C4600F03FFC02460B
:10421000202043F266114FF6FF73CDE90010F0B293
:10422000022808BF4FF4FC634FF487702F2F18BF8C
:1042300053469621FEF7FAFE9BF8230038BB012077
:10424000D8F81860D8E91A548BF82300D8F8000081
:10425000FEF74DFB00EBC000052700F00EFCC8F890
:10426000040000F0AAFC00F0CCFAC8F8200000F02E
:104270004AFC00F0C6FAC8F8740000F007FC00F031
:10428000C0FA00F054FC00F0BCFAC8F87C0098F8C2
:10429000CD9398F8CE434C4527D0D8F80000D8F8F5
:1042A0001860D8E91A5AFEF722FB00EBC000052778
:1042B00000F0E3FBC8F8040000F07FFC00F0A1FA76
:1042C000C8F8200000F01FFC00F09BFAC8F874004A
:1042D00050464FF6FF7AFEF70AFB00F092FA00F024
:1042E00026FC00F08EFAC8F87C009BF81600062821
:1042F00000F23E82DFE800F00478183C09A2BF001B
:104300004C4540F0CB80012030E298F8E603372896
:1043100040F0188198F8DD03012800F00981002899
:1043200040F021826F2004E198F8E603232840F052
:10433000B38098F8DF030138C1B2032900F2AC80E2
:10434000C000DFF84854782114221423C4B239483D
:1043500000F03EFC384EA1211422142306F57F40C4
:1043600000F036FC26FA04F0CA2114221423C1E11D
:1043700098F8E603A0F1230100F07FFA00F2F38140
:10438000012202FA01F140F66162114200F0EB8174
:104390002D2808D0352806D0372802D198F8DD130B
:1043A00009B1392804D14E2000F07FFB98F8E603CC
:1043B0002F2805D0372808D198F8DD13012904D11A
:1043C000512000F072FB98F8E603232840F0CB81DF
:1043D00098F8DF035121042808BF4E210091C42022
:1043E000FF2158222D2343E098F8E603A0F11D0198
:1043F00000F043FA00F2B781012202FA01F140F61F
:104400007742114200F0AF811D2840F0C88098F833
:10441000CC03002800F0BA80012840F0C080892435
:10442000B121B5E0000020C1000020410000C842D9
:1044300000007C42797A7A7A7A7A797A98F8C0039D
:104440009BF81710814200F08E8198F8C913022959
:1044500000F0898198F8E61300288BF817004CD1FA
:1044600002294AD14020282196224B230090A520E2
:1044700002F050F977E19BF8262098F8C913022A38
:1044800022D1022920D098F8E6038BF826100228C2
:1044900040F053817C2049E1032067E198F8E6036E
:1044A0002F283BD0032800F028812D2836D0022861
:1044B00040F05581B9F1010F00F04981B9F1000FC9
:1044C00040F04D814C2043E10020022A00F04E8153
:1044D000022940F04B8102208BF8260098F8E60371
:1044E000022840F02A8198F8D603002800F01581B0
:1044F000012840F01A817E2010E1012808BF02291E
:1045000040F031817B20282196224B230090A5206A
:1045100002F000F99A48A0F80EA024E1B9F1010FC9
:1045200000F0F380B9F1000F40F019814820EDE070
:104530006C200090CD20BE214622202302F0EAF814
:1045400098F8E603352840F00E81EC20832143F2F1
:10455000661220234FF0EC0843F266152026FEF782
:10456000C9FD002787A4072F00F0FD80781EC0B288
:10457000052809D8225C08EB0710B5214FF6FF7318
:10458000CDE9005600F0C6FB0137ECE7B1248921E4
:104590005A2000F02FF95B20214600F02BF998F803
:1045A000E6031F2812D198F8CF03012803D0A8BB37
:1045B0008924B12101E0B12489215A2000F01AF99F
:1045C0005B20214600F016F998F8E603212810D167
:1045D00098F8D20320B101280BD18924B12101E040
:1045E000B12489215A2000F005F95B20214600F012
:1045F00001F998F8E603312812D198F8D50301287B
:1046000003D0B8BB8924B12101E0B12489215A200B
:1046100000F0F0F85B20214600F0ECF898F8E60393
:10462000332810D198F8DB03012803D058B9892426
:10463000B12101E0B12489215A2000F0DBF85B2090
:10464000214600F0D7F898F8E603252814D198F809
:10465000E103022805D0032840F085808924B12198
:1046600001E0B12489215A2000F0C4F85B202146E2
:1046700000F0C0F898F8E60327281ED198F8E30365
:1046800000F09EFA6FD8C000404D752125221E23F0
:10469000C4B23F4800F09CFA3E4E9E2125221E23C4
:1046A00006F57F4000F094FA26FA04F0C72125228F
:1046B0001E2300F0C3FA98F8E603292853D198F88E
:1046C000E50300F07DFA4ED8C000304D752125225B
:1046D0001E23C4B22E4800F07BFA2E4E9E212522C6
:1046E0001E2306F57F4000F073FA26FA04F0C72176
:1046F00025221E2300F0A2FA35E0B9F1010F1ED0E9
:10470000B9F1000F2BD14A201AE0492000904FF454
:10471000A07099211C221B231FE07B200090A52064
:10472000282196224B2301F0F5FF7520009091205F
:104730005021BE22232301F0EDFF002016E04B2084
:1047400000904FF4DC7054211A22182305E04D200C
:104750000090C820AA211422152301F0DBFF98F84D
:10476000CD0388F8CE039BF8160001308BF81600B5
:1047700000208BF8150015B0BDE8F08F080100206F
:104780000000002056312E302E3100001567000841
:104790005A5B5B005B5B5A000D2E000835303028F9
:1047A0003933322900000000BF300008343030288F
:1047B00037353229000000003330302835373229B0
:1047C0000000000032303028333932290000000068
:1047D00031303028323132290000000032303000D0
:1047E000313530003130300035300000300000000D
:1047F000FEE7704725221E2300904FF4AA7001F0B7
:1048000089BF00EBC000B0FBF7F0203080B2FEF7AC
:1048100069B8BDF808100A31ADF808109DF80B1002
:10482000013170473046FEF71DB80A6842F00102B8
:104830000A6070474FF47A704FF07E5170473068CD
:1048400040F0010030607047656005F0BBBA044677
:10485000FDF7DEBF01F0070125F4E04545EA01312F
:104860007047502041F6A301A2B2CDE90010704775
:104870002D2087F8E60300207047CAB2C90141EA3B
:104880005201C9B20B2970474FF08441FDF7F8BEC1
:10489000C9E93511C9E93711C9E939117047202033
:1048A00043F28611A2B2CDE900107047002000212A
:1048B0004FF4F072704781F82620002131720221F6
:1048C00002287047C9E92311C9F89410704700BF46
:1048D00000BF00BF00BF00BF00BF00BF00BF00BFE0
:1048E00000BF704797F8E60300F0FE010229704709
:1048F00050F8210052F821100068C9F81800096822
:10490000C9F898107047C4F8006825606560C4F85D
:10491000FC037047C9F82410C9E92311C9E925121D
:10492000C9F89C1089F8B8037047A7F8BC03D7F8FA
:104930009800FDF7A5BEA7F8BC03D7F8BC00FDF7AB
:104940009FBEA9F8BC03D9F8BC00FDF799BE07F1DA
:104950008C0002EB8102704701208AF80D000020D4
:104960008AF82B00502068614FF47A70A9F8BA03D6
:1049700099F8CD030128704709F18C0002EB810200
:104980007047BDF808109DF807201144B1427047E8
:1049900020464FF07E51FDF773BE4FF04241C9F8FB
:1049A0002000FDF76DBE4FF48C71FEF73FBB87F81A
:1049B000E60397F8E10397F8E31397F8E52387F800
:1049C000E00387F8E21387F8E423704744F638439E
:1049D000009520474FF260430095204797F8B813A1
:1049E000C7F8BC400329704797F8B813C7F8984038
:1049F00003297047686101208AF80D004FF47A702E
:104A0000A9F8BC03D9F89800FDF73ABE99F8B81395
:104A1000C9F898400329704799F8B813C9F8BC4001
:104A2000032970470021017299F8C91302297047C0
:104A30000021C16581650165C164A9F84A1089F842
:104A40001210C8F840108164704780F83010C1859A
:104A5000816280F82C1070472046FDF703BF4FF0AD
:104A600042413862FDF70CBE2046FDF709BE2146E3
:104A7000FDF706BF2946FDF703BFB0FBF7F0203076
:104A800080B2FDF72FBF2046FDF7DEBE2046FDF7C2
:104A90002EBFD4217B22192300904FF4877001F0A0
:104AA00039BE78632846FDF7EBBDFA2158222D2345
:104AB0000090C42001F02EBED2217B221C23009046
:104AC0005A2001F027BE0446FDF7B0BE014620463D
:104AD000304799F8E60300F0FE000228704797F887
:104AE000C903022870470246182043F286114FF688
:104AF000FF73CDE90010704799F8CD030128704786
:104B00002046FDF793BE2846FDF7F1BE0446FDF7AB
:104B10009BBE8DF80B109DF80B10704787F8E613BD
:104B20000238B0FA80F0400987F8C6037047C8F829
:104B30007800D8F87000FDF7DABE0130C1B2032961
:104B400070473046FDF79CBD0446FDF78BBE002044
:104B5000307281F82B004FF47A70A7F8BA0397F8F7
:104B6000CD0301287047013A013B92B29BB2FEF798
:104B700001B901463046FDF759BE9AF80E100129D9
:104B80007047272087F8E60397F8E20387F8E303E6
:104B90007047252087F8E60397F8E00387F8E103DC
:104BA0007047292087F8E60397F8E40387F8E503C0
:104BB000704797F8DC03022870473046FDF797BE30
:104BC0000138C1B20229704799F8C9030228704719
:104BD000E040C0B200904FF4AA7028470020A7F828
:104BE0006000704797F8C40300287047B8633863C3
:104BF000B869FDF797BD86F8E40304F1260028475D
:104C000086F8E20304F12400284786F8E00304F163
:104C10002200284786F8C90304F12000284786F8B7
:104C2000D90304F11E00284786F8D30304F11C00C1
:104C3000284786F8D60304F118002847C0B2009030
:104C40004FF4AA70284786F8D00304F116002847CD
:104C500086F8CD0304F11400284786F8C60304F152
:104C600012002847C6F8880004F110002847C6F84B
:104C7000840004F10C0028474FF4BC72FA2300951D
:104C80003047C6F8800004F10800284799F8EB1374
:104C9000284602F043BA044628462146FDF7D4BD13
:104CA000044628462146FDF7B3BDC9F89C00C9E972
:104CB0002300C9F89400C9F8BA13C9F82400C9F848
:104CC0001C0070474FF48073CDF800905047D7F820
:104CD0002C802846FDF72CBD206820F001002060C4
:104CE00010BD5846FDF7CCBCD9F820004FF042412A
:104CF00070472946FDF79ABDB7F860000130A7F864
:104D0000600080B2704795F83100013885F83100B5
:104D10000006704780B2FEF701B9CDE901BBADF8DE
:104D200014B07047704770472DE9F041DFF8786B99
:104D3000307801383070000648D1DFF8704B14200D
:104D4000307094F8D003012813D1DFF8645B95F834
:104D5000300002281DD001280ED058BB02F07CF88C
:104D6000307A012820D028BB012085F830000220AD
:104D70001EE002F071F829E002F074F8FFF7C3FFBB
:104D800018D1317A022085F8300089B101290ED07E
:104D900010E002F061F8FFF7B6FF0BD1022030728D
:104DA000002085F8300003E0012085F8300019204C
:104DB00085F8310094F8C40340B170780138707000
:104DC000000603D10120307228207070DFF8107DBA
:104DD00097F8C003022809D1FC6D00212046FDF799
:104DE0004FFD18B9BE49FFF73FFEF865B08901389D
:104DF000B081000440F0FE870120B081DFF8E80CAC
:104E000000F128042046FDF718FF01462046FDF773
:104E10006FFE0138092800F27180DFE800F0051C00
:104E20006F6F35576A0D272E97F8E603411F162935
:104E300000F24D81022015E0DFF8A80C90F8271051
:104E400000295BD1012180F82710FFF74BFD40F0CE
:104E5000E5820020EBE297F8E603411F162900F2F5
:104E6000B98003203071D7E0307247E0FFF73AFD98
:104E700040F0DC800720307163E0FFF733FD40F045
:104E8000FB800820307180E097F8E603A0F1230151
:104E9000062940F25881811E0229C0F0BD801B28DE
:104EA00000F0D0832F2800F0DA83372800F0CD837C
:104EB000392840F0B58397F8C603002800F0D9845C
:104EC000012840F0A980032000F0D4BCFFF70AFDC0
:104ED00014D19249FF22C7F8BA139149C7F89C1020
:104EE000DFF8001CFFF7E7FC08BF0321FFF716FE01
:104EF00004E0DFF8F00B002180F827103079172844
:104F000000F23185DFE810F01800DB019B0145025B
:104F10004E02A20123021D0041005D026A01B90197
:104F200074019B00C1003B022F052F052F05800255
:104F300076022C012F059101052087F8E60300F089
:104F400010BDFFF74FFE40F00C85DFF8981BFFF710
:104F5000FEFD00F03683002840F04B83B8697149AC
:104F6000FDF78EFB7049FFF7AEFD10B96E4C0020C7
:104F7000F8616E492046BC61FDF7DAFB6C49FDF72C
:104F800009FCFFF781FC386233E3FFF72BFE40F0AA
:104F9000E884DFF8501BFFF7DAFD00F037830028C4
:104FA00040F0B183B8696349FDF76AFB6249FFF7D6
:104FB000CBFD10B9604C0020F8615C492046BC6113
:104FC000FDF7B6FB5A49FDF7E5FBFFF75DFC3862DC
:104FD00000F099BBA0F11D011A2900F24F83DFE810
:104FE00011F0B0001B0063031B0069031B001D00D0
:104FF0001B00D9031B00E0031B000A041B007903FC
:105000007E036F031B00D3031B006C031B00830391
:105010001B001B001B006603002025E797F8DF0339
:105020000138010608BF042000F0F3BB2F287FF4ED
:1050300065AFFFF7BEFD7FF461AF0D20307197F8CB
:10504000CD03012800F0F681002840F08A84BC6975
:105050003649FD6A2046FDF76BFB3549FDF79AFBA3
:10506000FFF712FC2F49FFF71CFD33490546FFF7F8
:10507000FBFCFFF710FE24E02F287FF43FAFFFF783
:1050800098FD7FF43BAF0E20307197F8CD030128D7
:1050900000F0DC81002840F06484BC692349FD6A8B
:1050A0002046FDF745FB2249FDF774FBFFF7ECFBBB
:1050B0002049FFF7F6FC21490546FFF7D5FCFFF72D
:1050C000EFFD002818BF2546FD6200F04ABCA0F1A4
:1050D0001D011A2900F2D9820FF20800D0E811F060
:1050E000000080BF31003000E4023000EA023000EE
:1050F000920330009D03300075033000AF03300091
:10510000FA02FF02F002300068033000ED023000C6
:105110000403300030003000E70200BFE803E8037A
:1051200000007F43000020410000FA4300001041CE
:105130000000A040000020C10000C8420000C8C21A
:105140006AE709208EE6DFE811F06E026B020700C5
:105150006B0207006B0207002320FFF728FC5BE7C8
:10516000CF48D04CD04DD14B0022012187F8E81315
:1051700087F8B823BA6287F8D82387F8D62387F848
:10518000D213A7F8CC23A7F8C82387F8C6233A651B
:1051900087F8DB2387F8D92387F8D51387F8D3134B
:1051A000C7F89800C248C7E92054C24CC7F88830F5
:1051B000C14BB861C7E91A044FF480703B67A7F888
:1051C000CF034FF00130C7F8E20340F20220A7F806
:1051D000E003BA48C7F8BA0300F0C3BB97F8CF039F
:1051E000002800F04481012840F0BB8300203FE10B
:1051F00097F8CD03012800F04081002840F0B183EA
:10520000BD69AF49FFF763FDAE49FDF7C3FAFFF78C
:105210003BFBAD49FFF745FC054640462946FDF7F7
:1052200021FBAA490446404643E097F8DD030028E5
:1052300000F03181012840F0948300202CE197F8A0
:10524000E603811C1A2888BF0521A8E0FFF7CAFCE5
:1052500040F08783DFF88C18FFF779FC00F060825C
:10526000002840F04683BC699949FFF749FC0028B3
:1052700000F02583FFF78CFB24E397F8CD0301288A
:1052800000F03081002840F06C83BD698C49FFF745
:105290001EFD8C49FDF77EFAFFF7F6FA8149FFF70C
:1052A00000FC05464046FFF724FD044640464FF00B
:1052B0007E51FDF7E5F9002C08BF284630E197F84C
:1052C000E613481F362800F2F582DFE810F03700B9
:1052D0004A03E3064A03DC064A03F8064A03A30628
:1052E0004A03C4064A03B4064A0315074A03F506EF
:1052F0004A031C074A03EA064A034A034A03FE0616
:105300004A032B074A0322074A034A034A034A0374
:105310004A034A034A034A034A033407AD064007D7
:105320004A03D3064A03BB064A030C074A033D0758
:105330004A034A034A034A034A03F5021D2087F839
:10534000E603FFF7CCFB08BF97F8CB03A9E1FFF713
:1053500049FC40F00683DFF88C17FFF7F8FB00F0FC
:10536000E981002840F0E982BC694E49FFF774FBEF
:10537000002800F0C8825549FFF776FBC6E297F88F
:10538000D203002800F0CE80012840F0EA820020FD
:10539000C9E097F8E603811E062838BF1B2187F86D
:1053A000E613DEE297F8C603012800F0C18000286A
:1053B00040F0C18097F8C203012800F2BC800220AF
:1053C000B7E097F8CC03012800F0E080002840F017
:1053D000C882FFF784FB40F05F810120002187F83D
:1053E000CC0340F2FF10A7F8CA03DFF8F80680F8F4
:1053F0002910B6E297F8DB03012800F0D6800028D8
:1054000040F0AF820120D1E097F8D503012800F0E9
:10541000D280002840F0A5820120CDE0411F37292D
:1054200001D3812804D197F8E80308B9042030712A
:10543000012019E5786B27493C6AFDF721F92649D7
:105440000546FFF711FBFFF726FC0AE0786B2349BE
:105450003C6AFDF715F922490546FFF705FBFFF702
:105460001FFC002818BF254628467D634EE001201A
:1054700087F8CD0387F8CF0373E2386A18497C6B4D
:10548000FDF7FEF8054620462946FDF7EBF90F49E2
:105490008046204633E0012087F8DD0361E200BF4B
:1054A000000020420000C8420000A0420000F0427C
:1054B0000000BE430000C8430000D243E803E803F5
:1054C000000010410000A0400000C8C2000080BFE2
:1054D0000000FA430000204100005443000020C1B6
:1054E000000054C3386AE5497C6BFDF7C9F80546EE
:1054F0002046FFF7FEFB804620464FF07E51FDF729
:10550000BFF8B8F1000F08BF284678634FF042415A
:10551000FDF7B6F8DA49FDF70BF9DA49FDF73AF984
:10552000F8621EE2012087F8D00387F8D20318E260
:10553000032087F8E603DFF8880D90F8281001298A
:1055400008D100214FF601720185A7F8C92380F820
:105550002A1010E0002180F82A1097F8C9130229B8
:1055600009D14FF47A71A7F8BC13FF2180F82610F7
:1055700007F19C0007E0C448C7F89C000020A7F88A
:10558000BC0307F1A000C0490160EAE1FFF7A7FAF8
:1055900040F08480FF210020A7F8CA13DFF8201D07
:1055A00087F8CC0381F82900DBE1002087F8D903D4
:1055B00087F8DB03D5E1002087F8D30387F8D5030C
:1055C000CFE1386AB149FDF75BF8B149FFF77BFAE3
:1055D00010B9AF4C0020786220464FF042413C6247
:1055E000FDF74EF8A649FDF7A3F8A649FDF7D2F856
:1055F000B86197F8B813032900F2B081FFF7A7F953
:10560000DFE811F0AF01AA01A501A8013C6AA14998
:10561000FFF722FA00286AD09F49FFF725FA69E0D0
:105620000120FFF71FBC97F8DF03013803283FF67E
:10563000F3ACDFE810F004007D044F045604FFF7DC
:10564000A8FAE9E40420FFF70DBC97F8DD03012870
:1056500000F00B8100287FF4DFAC17200AE197F8F7
:10566000DC03012871D10220B9693A6A87F8DC03AA
:105670008548C7E90B10C7E90D20CDE402380228A0
:10568000BFF4CAAC0620FFF7EDBB02380228BFF416
:10569000C3AC0520FFF7E6BB012000E0002087F83F
:1056A000C90387F8CC035CE10A20FFF7DBBB1720B6
:1056B000FFF7D8BB0F20FFF7D5BB1320FFF7D2BBF6
:1056C00097F8DC0300287FF4A7AC2F2087F8E603C7
:1056D000012076E0012087F8D6032C20CAE00020C4
:1056E00087F8D6032B20C5E01420FFF7BBBB0020B2
:1056F00078626248FFF7B3F96149FDF719F861492B
:10570000FDF748F8B86197F8B813032900F226812D
:10571000FFF71DF9DFE811F0250120011B011E0133
:105720003C6A5B49FFF7ECF9002800F0D680FFF7F0
:105730002FF9D5E03C6A5149FFF78EF9002800F0B7
:10574000F0805649FFF790F9EEE00120D7E90A41D1
:1057500087F8DC034C48FFF749FA0146FFF784F964
:105760004F49FFF7D3F94F4900281CBF0024C4F26A
:10577000C8242046FDF74CF800281CBF0024CCF2BA
:10578000C824BC62FFF748BCFFF713FA14D10C2001
:10579000FFF768BB97F8E103FFF712FA38BF032061
:1057A00041E097F8E3030138010608BF032012E047
:1057B000FFF7FFF900F0FA8401287FF42DACFFF722
:1057C00057F887F8DC03FFF727BC97F8E303FFF7E8
:1057D000B4F988BF012087F8E303C0B2032800F0C2
:1057E000CE84022800F0C984012804BF012087F874
:1057F000E203FFF711BC97F8E5030138010608BF83
:10580000032022E097F8DF030130C1B2042988BFEA
:10581000012087F8DF03FFF7FFBB97F8E103FFF7ED
:105820008CF988BF022087F8E103C0B2032800F09A
:105830004C8302287FF4F0AB022000F047BB97F8BE
:10584000E503FFF77AF988BF012087F8E503C0B2C6
:10585000032800F0A284022800F0968401287FF437
:10586000DBAB0120002100F091BC15203071392004
:1058700000E0022087F8E603FFF7CEBB00005443A8
:105880000000A0400000104100007F43000048429B
:105890000000694400007D43000024C2000080BF76
:1058A0000000C8420000C8C2000000209C14002074
:1058B00008010020812954D11920FFF73EBB0020A8
:1058C000F86198489849B861FCF732FF9749FCF7AE
:1058D00061FFFEF7D9FF38620BE000207862944840
:1058E000FFF7BDF89149FCF723FF8F49FCF752FF02
:1058F000B86197F8B813032930D8FFF728F8DFE824
:1059000001F0302B26290020F8618A488649B861C9
:10591000FCF70EFF8549FCF73DFFFEF7B5FF386247
:105920000BE0002078628448FFF799F87F49FCF784
:10593000FFFE7D49FCF72EFFB86197F8B8130329E5
:105940000CD8FFF704F8DFE801F00C07020507F1B7
:10595000900001E007F1940078490160002087F889
:10596000B80316203071DFF8B0482046FDF765F91E
:1059700001462046FDF7BCF80138092800F2728183
:10598000DFE810F00A002300700170014B006B008B
:105990007F0013002C003C00FEF7A4FF7CD1FFF732
:1059A0009EF814BF0120052026E0DFF8200D90F8B6
:1059B0002410002940F05681012180F82410FEF7C0
:1059C00091FF40F0798000207FE0FEF78BFF5ED1F1
:1059D000FFF785F814BF022006200DE097F8E603D4
:1059E00000F0FE00022840F03B8197F8C90302381E
:1059F000B0FA80F040098000F07031E197F8E603DA
:105A000000F0FE00022840F02B8197F8C903032123
:105A1000022808BF0721F17022E197F8E603A0F100
:105A2000230106293ED9811E0229C0F019811B28B5
:105A300000F0C2802F2800F0CA80372800F0BE8016
:105A4000392840F0A98097F8C603002800F0398271
:105A5000012840F00581032034E2FEF743FF40F0C7
:105A600001813749FF22C7F8BA133449C7F89C109F
:105A7000DFF8581CFEF71FFF08BF0321FFF74EF8A1
:105A8000F0E0DFF8480C002180F82410EAE0411F24
:105A900016291DD80320E2E0411F162900F2598083
:105AA0000220DCE0DFE801F07A7804780478040072
:105AB0002320FEF77CFFD3E0411F372901D3812843
:105AC00004D197F8E80308B9042030710120C8E038
:105AD0001D381A2800F2C4800FF21001D1E810F02E
:105AE0009C140020080100206C0000205A00C00017
:105AF000BE00C000BC00C0003200C0003402C000C4
:105B00004E02C0003B02C000AA00AF00B400C000BB
:105B10002F02C000A800C000A600C000C000C00046
:105B2000A40000BF0000FA43000010410000A040A4
:105B3000000069440000C8420000544300007F4355
:105B4000E803E80397F8DF030138010608BF0420E3
:105B500048E21D381A2800F28380DFE810F01B00AD
:105B600081007F0081007D0081003C0281001602DF
:105B7000810027028100460281006B0070007500E1
:105B800081000302810069008100670081008100BB
:105B900081006500092062E0012060E097F8DF03E2
:105BA000013803285CD8DFE810F00400C701990130
:105BB000C101FEF7EEFF53E0042050E097F8DD034B
:105BC000012800F07A8100284AD117207AE197F85D
:105BD000DC0301280AD10220B9693A6A87F8DC039C
:105BE000C148C7E90B10C7E90D2039E00120D7E90A
:105BF0000A4187F8DC03BC48FEF7F8FF0146FEF7D0
:105C000033FFBA49FEF782FFB94900281CBF0024C0
:105C1000C4F2C8242046FCF7FBFD00281CBF00246A
:105C2000CCF2C824BC621BE0172018E0142016E058
:105C3000132014E0012087F8D6032C2042E1002035
:105C400087F8D6032B203DE197F8DC0340B92F20DD
:105C500087F8E60301208EE10F2000E00A20307172
:105C600000203072F078072800F2C480DFE800F0EE
:105C7000047632491B8BA0604FF47A709D49FEF781
:105C800054FE9D49FEF760FF00281CBF0024C4F2AB
:105C90002034FEF7A9FE00F2A880FEF758FEDFE8E8
:105CA00001F0A7A29DA04FF47A709249FEF743FE3F
:105CB0009149FEF7CCFD18B98F4C0020C7F8C00001
:105CC000FEF78CFE00F29180FEF741FEDFE801F066
:105CD000908B86894FF47A708849FEF726FE8549B5
:105CE000FEF7F1FE00281CBF0024C4F2A004FEF75A
:105CF0007BFE00F27A80FEF72AFEDFE801F079747D
:105D00006F724FF47A707E49FEF70FFE7949FEF705
:105D1000DAFE00281CBF0024C4F2A004FEF764FED3
:105D200000F26380FEF713FEDFE801F0625D585B6E
:105D30004FF47A707249FEF7FEFD6E49FEF7E6FEFB
:105D400018B96C4C0020C7F8C000FEF747FE4CD8CD
:105D5000FEF7FDFDDFE801F04C474245FEF76AFD26
:105D6000FEF7E3FD6449FEF7EFFE00281CBF0024A8
:105D7000C4F22034FEF738FE37D8FEF7E8FDDFE83E
:105D800001F037322D30FEF755FDFEF7D4FD5A49AC
:105D9000FEF75DFD18B9584C0020C7F8C000FEF7AB
:105DA0001DFE22D8FEF7D3FDDFE801F0221D181BEF
:105DB0004FF47A705149FEF7BEFD4E49FEF7A6FE3C
:105DC00018B94C4C0020C7F8C000FEF707FE0CD8ED
:105DD000FEF7BDFDDFE801F00C07020507F19000BA
:105DE00001E007F1940040490160002087F8B80302
:105DF0000820F070708901387081000409D14FF4D7
:105E00007A707081DFF8C408C16DC7F8B010002146
:105E1000C165DFF8B858287898BB102001F042FD22
:105E20006887688FFCF7EEFB364A374BFCF763FA5E
:105E3000364B0022FCF75FFA354A364BFCF7B4F9D3
:105E4000354A364BFCF7C9FA354B0022FCF7ACF962
:105E5000FCF7A6FD33490446B864FCF769FC254904
:105E6000FCF798FCFEF710FD2F49F864FEF7F4FDEF
:105E700038B920460021FCF7CBFC10B901203C606A
:105E80002870286EE54C013028662068804794F819
:105E90002500012809D194F8240018B1013884F8AC
:105EA000240002E0022084F8250094F8340010B1A8
:105EB000013884F83400BDE8F081152030713920B4
:105EC00000E0022087F8E603CAE6032087F8E00333
:105ED000FFF7A2B8FEF765FEFFF79EB8FEF761FE7A
:105EE000BEE60B20FFF739B900007F430000C8422F
:105EF0000000C8C20000A04000002043000080BF96
:105F00000000A0C052B81E85EB510A400000303F8F
:105F1000295C8FC2F528F4BF33E197FA7953713FBA
:105F20000000184000001041000048420B20C0E56E
:105F3000FEF727FEFFF770B8FEF723FE90E6FEF7A8
:105F400038FE13D10C208AE697F8E103FEF738FEFD
:105F500038BF03201FE097F8E5030138010608BFAA
:105F6000032048E0FEF725FE00F0358101287FF48C
:105F700077AEFEF77DFC87F8DC0371E697F8E30364
:105F80000138010608BF032016E097F8E103FEF789
:105F9000D4FD88BF022087F8E103C0B2032800F0D7
:105FA000018102287FF45CAE0220FCE097F8E30355
:105FB000FEF7C3FD88BF012087F8E303C0B20328C2
:105FC00000F00181022800F0F480012804BF0120C4
:105FD00087F8E20344E697F8DF030130C1B20429F1
:105FE00088BF012087F8DF033AE697F8E503FEF75C
:105FF000A4FD88BF012087F8E503C0B2032800F0A4
:10600000E680022800F0D78001287FF429AE012025
:106010000021D2E097F8D603002800F0DE800128A6
:1060200040F0DE802C21D9E097F8D803012840F019
:106030008880012083E0312087F8E60397F8D303B6
:10604000FFF7BCBA97F8D503012898BF87F8D303A8
:106050001120FEF772BFFEF70BFC87F8DC0397F800
:10606000C90301287FF47DAC9548012101854FF4D7
:106070007F407EE0FEF79DFD00F0B68001287FF4B2
:1060800070AC0220B1E0212087F8E60397F8D00336
:10609000FFF74BBA1F2087F8E60397F8CD03FFF709
:1060A000E9B997F8EB03012800F0A38000287FF4FA
:1060B00058AC3B20FEF741BF3520FEF73EBF042021
:1060C00087F8DF032320FEF738BF97F8CC030128B9
:1060D00000F0928000287EF42FAFFEF700FD40F024
:1060E000938000208CE097F8DB03012898BF87F8A5
:1060F000D9031320FEF721BF332087F8E60397F872
:10610000D903FFF755BA002087F8DD033720FEF7E3
:1061100014BF97F8D203012898BF87F8D00309204D
:10612000FEF70BBF97F8CF03012898BF87F8CD0380
:106130000720FEF702BF97F8D80310B9002087F8B0
:10614000D6030D20FEF7F9BE1520FEF7F6BE97F830
:10615000DC0300287FF405AC0F2087F8E6035848DD
:1061600090F8281001297FF4FCAB002101854FF63F
:106170000170A7F8C903FFF7F4BB022000E0032079
:1061800087F8E203FEF748BF0220012187F8E40305
:106190004B4880F82510FEF73FBF032087F8E40343
:1061A000FEF73ABF032087F8E00359E50B20FEF71E
:1061B00059BE022008E00220012187F8E40340488C
:1061C00080F825104CE5032087F8E20348E503201A
:1061D00087F8E40344E50B2041E52B2187F8E6131B
:1061E00087F8D803FFF7BDBB012087F8DC03FFF772
:1061F000B8BB8120FEF7A1BEFEF771FC06D10120DD
:1062000087F8CB03FEF798BE002000E0012087F856
:10621000C903FEF791BE00BFCC0000208001002022
:106220001848C16941F08051C16117490A7842F0AC
:1062300004020A70C16921F08051C161016841F016
:106240000101016001688907FCD5416821F0030163
:106250004160416811F00C0FFBD101680B4A1140FD
:1062600001600021416041F61071C1624FF480115C
:1062700001634FF41F01816005484FF00061016028
:10628000704700BF0010024050700040FFFFF2FE58
:1062900008ED00E0B0B5094C606880070CD52068B7
:1062A000800709D5064D4FF07E51E86DFCF7E8F9FF
:1062B000E8656FF002006060B0BD00BF0C4C0140AB
:1062C000080100202DE9F04F85B0A54F3869C007BF
:1062D00000F04381DFF80C8998F8E903012840F0C9
:1062E0002E81DFF8E89399F8120001280AD1DFF82F
:1062F000084B9C4D666C2946FEF794FA48B96564D4
:106300002E4606E0984EDFF8F00A4FF08141C0E9D2
:1063100010160096D8F818609449FEF712FC8346D0
:1063200098F8C903012818BFB346D9F86400594644
:10633000FCF7A6FA002840F08180DFF8BC0A0025AF
:10634000CA46B9468A4985658DF80B50ADF80850A4
:106350008DF80750D8F898703846FCF759FA04467B
:106360005846FCF7C4FA002C06464FEA900414D1B4
:106370004A2C8DF8075032D864204F460021D14670
:10638000ADF80800D648FEF7C4FB13294CD8FEF739
:10639000F8FA49D2FEF73DFAF5E7CF493846FCF75F
:1063A00061FA002568BB38460021FCF731FA4F46F8
:1063B000D146E0BB00204A2C8DF8070024D8642089
:1063C0000021ADF80800C548FEF7A3FB132900F231
:1063D0004481FEF7D6FA27D2FEF71BFAF4E74FF412
:1063E00096704F461421D146ADF80800BC48FEF720
:1063F00090FB272918D8FEF7C4FA15D2FEF709FA40
:10640000F5E74F46D14612E04FF496701421ADF8EF
:106410000800B248FEF77DFB272905D8FEF7B1FA40
:1064200002D2FEF7F6F9F5E79DF80B10455C68B26D
:10643000C9F864B0FCF74DFAC8F8D000A94E758DC4
:10644000092D16D896F82C0001F02CFAFCF74AFA20
:1064500046F825000446308D01357585FCF742FA73
:106460000146FEF701FBFCF742FAA9B2B0FBF1F1DD
:106470000CE0308D0A24B0FBF4F1451A96F82C009C
:1064800001F010FA284481B2B1FBF4F1308588089C
:10649000FCF728FAD8F82810C8F80000FCF742F9F1
:1064A000064698F8C903022803D18948FEF7C0FAC6
:1064B0002EE098F8C20318B198F8D913012919D120
:1064C00089495846BA46FCF7DBF807463046394654
:1064D000FCF7C8F930B98549FEF703FCFEF749FB24
:1064E000002847D030463946FCF7BCF938B10025C2
:1064F000574615E0012808BF002909D1D5E77B4997
:10650000FEF7EFFBFEF735FB574608B1804D07E07D
:10651000D8F84040204600210025FCF7A3F910B927
:106520002C46C8F8405098F8C40318B16848FEF7E4
:106530007FFA04E020460021FCF794F910B900240A
:10654000C8F840402046FCF7EBF93864386840F062
:10655000010038606FF00100386105B0BDE8F08FD0
:10656000000C004000401C4600007A4600004842F3
:106570000000A0415E49FEF7B4FB0146FEF752F968
:1065800030B95C49FEF7ADFBFEF7F3FA002866D0A0
:106590000020A9F84A0089F8120058463146FCF755
:1065A000C1F84B4F3865386DB96DFCF769F8B865BF
:1065B000564DB86DFEF79DFB00B9BD65B86D002165
:1065C0000024FCF74FF900B9BC65D7E90F54386DCA
:1065D000F96CFCF7A7F8786520463E6DB96DFCF7BD
:1065E000A7F8396E0490039104980399FCF710F909
:1065F00008B9039804900498039981F00041FCF7CE
:1066000023F918B9039880F00040049028463146D9
:10661000FCF78EF80499FCF733F80446796D00987E
:10662000FCF786F82146FCF72BF8F865386DF8641E
:10663000F86D796EFCF7ECF808B9786EF865F86DCE
:10664000796E81F00041FCF7FFF808B90020F86589
:10665000FC6D5746C8F840405CE70025E7E6B9F80E
:106660004A000130A9F84A0080B23C2895D322495B
:106670000098FCF705F8174F04463946FCF7F2F886
:1066800018B113480094446418E0114D286C6F64ED
:10669000FCF773F9194A1A4BFBF786FD194B0022D8
:1066A00004460F46FCF7FAF820B120463946FCF7BD
:1066B00077F900E01448286406480090012089F822
:1066C00012000020A9F84A0067E700BF0801002077
:1066D0008001002000401C460000A04199CB010829
:1066E00070CB0108EC0D00200000C8420000C8C2B9
:1066F0000000A0400000A0C00000FAC49A99999937
:106700009999B9BF000008400000404000C82F47D9
:10671000007F3B472DE9F04102FB03F4069D002674
:106720004FEA4408DFF8BC44023D94F8D643012CFC
:1067300000F08B80002C40F028827F2D00F2258213
:10674000DFE815F080004001320176012302840168
:1067500023028C0123029C012302B4012302800145
:1067600023029001230292012302AE01230294012D
:1067700023027801230274012302B6012302AA0135
:1067800023027A012302960123029E0123027C0147
:106790002302A201230234013601A0012302C00119
:1067A0002302B0012302B8012302A4012302A6019F
:1067B000230286012302AC0123025C012A01440169
:1067C0006E012302B2012302BA0123028E012302C9
:1067D00026012C013801520112012401BC012302BF
:1067E0002302A8017001230282012302280118015B
:1067F00060015E011C01580198012302720123020D
:10680000C20123026A012302640166015A014601A2
:106810004201300148012001880123022302C40102
:1068200054016C0123024A010E017E0123024C0136
:10683000160168010A013C011A012302230210011A
:106840004E019A014FF496269FE17F2D00F29D8123
:10685000DFE815F08000B800AA0064019B01660122
:106860009B0156019B0168019B016A019B017E010E
:106870009B016C019B014A019B0158019B015A013C
:106880009B014C019B016E019B0170019B018001EA
:106890009B0182019B014E019B015C019B018401D4
:1068A0009B0150019B01AC00AE0072019B015201A3
:1068B0009B018C019B018E019B015E019B0160018C
:1068C0009B0174019B0162019B01D400A200BC00EA
:1068D00090019B0146019B0176019B0148019B01B0
:1068E0009E00A400B000CA008A009C0078019B01B1
:1068F0009B017A0192019B017C019B01A000900009
:10690000D800D6009400D00086019B0144019B0171
:1069100088019B018A019B01DC00DE00D200BE00E1
:10692000BA00A800C000980094019B019B01960149
:10693000CC009A019B01C200860054019B01C40057
:106940008E00E0008200B40092009B0140018800AC
:10695000C60042019F4E18E1A64C04F5487614E1AA
:10696000A84E12E1A04E10E1BD4C04F59C660CE16E
:10697000A14E0AE1B44C02E09D4E06E1B14C04F593
:10698000196602E1A34C04F5E176FEE0B34EFCE0AB
:10699000B44EFAE0AC4EF8E0B84C22E0B14C04F54D
:1069A000BD66F2E09C4EF0E08B4EEEE0BD4EECE0BA
:1069B000BB4EEAE0AB4C04F53D66E6E08D4C04F5D9
:1069C000C866E2E0854EE0E0944EDEE0AA4EDCE0F0
:1069D000934EDAE08F4ED8E08B4ED6E0874ED4E06F
:1069E000814C04F5E146D0E09D4ECEE0884C04F5A4
:1069F0005256CAE0924EC8E08A4EC6E09F4EC4E0AE
:106A0000904EC2E0904C04F59956BEE0874EBCE033
:106A1000854EBAE0774EB8E0B94EB6E0B74EB4E076
:106A2000C14EB2E0BB4EB0E0B74EAEE0CE4EACE0F1
:106A30006B4EAAE0CD4EA8E0C84EA6E0C44EA4E03E
:106A4000AD4EA2E0CE4EA0E0B14E9EE0D04E9CE016
:106A5000B74E9AE06F4C04F5617696E0CB4E94E029
:106A6000AE4E92E0C54E90E0C34E8EE0C04E8CE03C
:106A7000B94E8AE0A54E88E0C64E86E0C24E84E05C
:106A8000B44E82E0B04E80E0B04E7EE0AA4E7CE094
:106A9000A84E7AE0A04E78E0B14E76E0A34E74E0C6
:106AA000B44E72E0A64E70E09E4E6EE0B54E6CE0C5
:106AB000AC4E6AE0A14E68E0994E66E0674C04F582
:106AC000527662E09F4E60E08E4E5EE0504C04F5E0
:106AD0000C565AE0454E58E0864E56E0564E54E06D
:106AE000634E52E0604E50E07A4E4EE0764E4CE0FF
:106AF000704E4AE06C4E48E0674E46E0404E44E03F
:106B0000794E42E0724E40E0704E3EE0684E3CE00E
:106B10005E4E3AE05C4E38E0594E36E0744E34E05A
:106B2000724E32E06F4E30E06D4E2EE06A4E2CE039
:106B3000644E2AE0624E28E0584E26E0514E24E092
:106B40004A4E22E0444E20E0424E1EE03F4E1CE002
:106B5000624E1AE0594E18E0574E16E0534E14E0BC
:106B6000364E12E0334E10E0314E0EE0494E0CE04E
:106B7000474E0AE03F4E08E0354E06E0244E04E062
:106B8000234C04F58C5600E0204E02440B44FDF7E4
:106B9000EAFF814D3146B8F1000F08BFBDE8F08132
:106BA0004646B8F5806F28460F4628BF4FF48066EA
:106BB000324603F0B9F90024B44206D2285B00BA89
:106BC000000CFCF7BDFA0234F6E7A8EB0608F11951
:106BD000E1E700BF0481B700002F0D0080EF08003F
:106BE000806E11009C1400206818BC0084C0BB009B
:106BF000104DB700ECEEB60064DDB600DCCBB6009D
:106C0000E897B600D25FB600A456B600F406B60008
:106C1000E47AB500E065B5000043B5002020B5007A
:106C200040FDB40060DAB40080B7B400A094B400B2
:106C30009A7CB4008E4CB400A019B400D0E3B30029
:106C40003CC0B30000AEB3005091B3005669B3002E
:106C50006219B30088B3B2009894B2006072B200B7
:106C6000386AB2008859B2006E9CB1003A22B00076
:106C700006A8AE000893AD00B237AD00C0C3AC00AB
:106C800050E7AA00CC6BA700A42DA4007CEFA000C5
:106C900054B19D002C739A0004359700DCF69300E4
:106CA0008802910048AD8F003EDB8D002A378A00B4
:106CB0001693860002EF8200E47D7F00BC3F7C00DB
:106CC000940179000023730000A46A00002562008B
:106CD00000A659000027510000A8480000294000E4
:106CE00000AA3700002B2F0000AC2600002D1E004C
:106CF00000AE15005815C300F463B60044B7B500E4
:106D00009464B4008834B400B8FEB300E8C8B3009B
:106D10005C41B30068F1B20078D2B20054DFB00039
:106D20002065AF00ECEAAD00243BAD00E00AA9000D
:106D3000B8CCA500908EA20068509F0040129C0025
:106D400018D49800F0959500C857920034098C002B
:106D5000206588000CC18400F81C8100D0DE7D0015
:106D6000A8A07A008062770080E36E0080646600ED
:106D700080E55D008066550080E74C008068440037
:106D800080E93B00806A330080EB2A00806C22009F
:106D900080ED1900E838C100E8010020BCB5154CB1
:106DA0002068E06880060CD52068800609D56168F7
:106DB000114D05F11800C9B202F0C4FF4FF4827002
:106DC000A884E068400610D5206840060DD50A4D1D
:106DD0006FF040000DF10701206005F1280002F07E
:106DE0009EFF18B1002085F83500BCBD9DF8070056
:106DF0006060BCBD0038014080010020FEE700005B
:106E00000648BFF34F8F064A016801F4E061114361
:106E10000160BFF34F8F00BFFDE700BF0CED00E046
:106E20000400FA0510B500EB40010A284FF00702F4
:106E3000084B28BF1E3902FA01F14FF00C0238BF8F
:106E40001022D4582143D150596B21F01F0108431F
:106E5000586310BD002401400148102101607047B3
:106E6000141C01400148102101607047101C0140B2
:106E700008B3F0B5164A8B0801301D4602F50174BF
:106E80002DB150F8046B013D36BA40C4F8E711F05B
:106E900003010ED0002418250026A14205D0075D6D
:106EA0000134AF40083D3E43F7E702EB8300C0F8F2
:106EB0000462BDE8F0407047054901F501720549DB
:106EC00018B108CA01380B60FAE70868704700BFBC
:106ED000980E00200030024032490A68C2F3810354
:106EE000314AF0B5DFE803F002380A380B6D9B0534
:106EF00032D5CB6A9B0148BF2D4A2DE00B688C6AC6
:106F00001B0C002C13D40C680D68C5F34175C4F339
:106F100083440DB90F2C43D12D0101352C44DB07DF
:106F200002D00B689B0300D5204A624314E08C6AB0
:106F30008D6A8E6ADB071D4BC4F30314C5F3082565
:106F400006F0070603D00F68BF0358BF134604FAC4
:106F500006F26B43B3FBF2F2026016A40B68C3F3B4
:106F60000313E35C174CDA4042600B68C3F302235F
:106F7000E35C22FA03F3C3600B68C3F3C223E35C50
:106F80000424DA4082600B68096804EA9363C1F361
:106F9000813119440CA3595CB2FBF1F10161F0BDE0
:106FA0000225BBE70410024000127A0000093D00F0
:106FB000006CDC020000000000000000010203047D
:106FC0000607080968CB010802040608020C08102D
:106FD0007CB5044600204FF6FF75C6B2152E09D8C1
:106FE000301900F04BFCADF80600B01CBDF80610DF
:106FF000A942F2D1BDF806007CBD00000B4A5368DF
:10700000DB0103D4536843F08073536008230328E3
:1070100008BF102301FA03F06FF47F4108BF6FF43B
:107020007F0113681940084310607047A0000240B8
:1070300002684BF6EF731A4002600A8903681A432C
:1070400002604A7C036802F0030223F4405343EADF
:1070500002320260CA7B036802F0030223F4406339
:1070600043EA822202608A7B036802F0030223F46F
:10707000407343EA022202604A7B036802F0010285
:1070800023F0800343EAC21202600A7B036862F3C2
:10709000861303600A7C036862F3451303604A8920
:1070A00042600A6882604968C1607047016821F0E7
:1070B000010101600021016041608160C16040F216
:1070C000FF4100EA01020B49B2F5816F04D3D208F7
:1070D000902A0ED801F5806100F0FC0014220838D7
:1070E000B0FBF2F00F22800002FA00F00A681043B1
:1070F0000860704704000240064907480A7822B930
:107100004CF6CC42026001220A704AF6AA210160C4
:10711000704700BFE80D00200030004010B5214C42
:10712000226842F00102226001804FF4801000F0DA
:1071300017F8FDF7D1BD00BF08480168C9071CBF9B
:10714000002070470168490744BF0120704700686C
:10715000C0064FF0020058BF032070470C200240C9
:10716000B0B50446FFF7E8FF0025013C45F10001FA
:1071700018B911B1FFF7E0FFF7E7B0BD10B5094C42
:10718000216841F0020121606060206840F0400009
:1071900020604FF08040FFF7E3FF206820F00200FE
:1071A000206010BD102002402DE9F047DFF83C8937
:1071B00098F80100032800F2DD80DFE800F002E328
:1071C0000BBCDFF84C5895F8E903002800F000826A
:1071D0000120F9E1684E98F80C10DFF83458674A3E
:1071E000DFF8389606F1100011F00107924608BF4B
:1071F00002F10E0095F8C613C84706F11200002FE1
:1072000008BF0AF1100095F8CD13C84706F1140025
:10721000002F08BF0AF1120095F8D013C84706F1F5
:107220001600002F08BF0AF1140095F8D613C847BE
:1072300006F11804002F08BF0AF11604A86AFBF72C
:1072400056FB01462046C84706F11A00002F08BF2A
:107250000AF1180095F8D313C84706F11C00002F57
:1072600008BF0AF11A0095F8D913C84706F11E00A5
:10727000002F08BF0AF11C0095F8C913C84706F192
:107280002000002F08BF0AF11E0095F8E013C84740
:1072900006F12200002F08BF0AF1200095F8E21342
:1072A000C84706F12400002F08BF0AF1220095F814
:1072B000E413C84706F12604002F08BF0AF124048E
:1072C000D5F8BC00FBF713FB01462046C84795F8EC
:1072D000C60388F8020095F8CD0388F8030095F8F6
:1072E000D00388F8040095F8D60388F8050095F8CF
:1072F000D30388F8060095F8D90388F8070095F8B5
:10730000C90388F8080095F8E00388F80900A86A1E
:10731000FBF7EDFAA8F8440095F8E20388F80A00B4
:1073200095F8E40388F80B00D5F8BC00FBF7DFFA0A
:10733000A8F8460045E1104898F80C200F4928307D
:10734000D20708BF01F12600B8F84810FFF7E6FEA3
:107350000B48C16841F08001C160012088F801003C
:10736000B8F848000130A8F8480098F80C0001303F
:1073700088F80C00BDE8F08700F0010802F8010869
:1073800004200240B8F83C00FBF7ACFADFF8809626
:107390000146D9F81800FBF773FA002800F08C803A
:1073A000B8F83E00FBF79EFA0146D9F89800FBF7C3
:1073B00067FA002800F08080B8F84000FBF792FAE6
:1073C0000446D9F86800FDF752FB002874D0B8F8DD
:1073D0004200FBF787FA0546D9F88000FDF74AFB23
:1073E000002869D0D9F86C00FDF741FB002863D074
:1073F000D9F88400FDF73EFB00285DD0D9F8700075
:10740000FDF735FB002857D0D9F88800FDF732FB8F
:10741000002851D099F8C60398F8021081424BD148
:1074200099F8CD0398F80310814245D199F8D0031B
:1074300098F8041081423FD199F8D60398F80510C6
:10744000814239D1B8F84400FBF74CFA0146D9F82B
:107450002800FBF715FA78B399F8D30398F80610CB
:10746000814229D199F8D90398F80710814223D194
:1074700099F8C90398F8081081421DD199F8E003E2
:1074800098F80910814217D199F8E20398F80A1088
:10749000814211D199F8E40398F80B1081420BD185
:1074A000B8F84600FBF71EFA0146D9F8BC00FBF716
:1074B000E7F900287FF45EAFD748D9490160D94980
:1074C0000160D44998F80C000C468A4610F0010778
:1074D00008BF04F500642046FFF750FED9F81800F5
:1074E000FBF705FACD4EFDF7F1FA0AF10204002F81
:1074F00004BF4FF60204C0F60104D9F89800FBF768
:10750000F6F9FDF7E3FA0AF10404C14D002F08BFB4
:10751000AC1CD9F86800FBF7EAF9FDF7D7FA0AF1D5
:107520000604002F08BF2C1DD9F88000FBF7DFF9F7
:10753000FDF7CCFA0AF10804002F08BFAC1DD9F8FA
:107540006C00FBF7D4F9FDF7C1FA0AF10A04002F29
:1075500008BF05F10804D9F88400FBF7C8F9FDF766
:10756000B5FA0AF10C04002F08BF05F10A04D9F896
:107570007000FBF7BCF9FDF7A9FA0AF10E04002F21
:1075800008BF05F10C04D9F88800FBF7B0F9FDF746
:107590009DFAD9F81800D9F87040D9F88850D9F870
:1075A0009860FBF7A4F9A8F83C00FDF706FBA8F8E3
:1075B0003E00FDF76BFAA8F84000FDF7A4FAA8F822
:1075C000420098F80100013088F80100BDE8F0871A
:1075D000E54C2046FFF7FCFC4FF6FF76B04210D09A
:1075E0002046FFF7F5FCB0420BD004F1280000F074
:1075F00045F904468648263000F040F9844205D813
:107600000DE02046FFF7E4FCB04202D000F05EF946
:1076100035E004F50060FFF7DBFCB04202D000F07B
:10762000A5F92CE08048834A844B80490024012638
:1076300085F8D64385F8D06385F8CD4385F8C643F1
:1076400085F8D94385F8D363AC6285F8E46385F89F
:10765000E26385F8C943C5F8BC007548C5F88020C9
:10766000C5F88430744A764BC5F89810C5F8881070
:10767000A86128670220C5E91A2385F8E003AC69F0
:107680007049FDF7E9F918B96749FDF7FCF908B940
:107690006748A861D5F898406B49FDF7DDF918B93E
:1076A0006A49FDF7F0F910B96048C5F89800D5F8B7
:1076B000BC406549FDF7D0F918B96449FDF7E3F915
:1076C00010B95948C5F8BC00AC6E5E49FDF7C4F965
:1076D00018B95549FDF7D7F908B95748A866EC6EAF
:1076E0005849FDF7B9F918B94F49FDF7CCF908B970
:1076F0005348E8662C6F5349FDF7AEF918B94A496B
:10770000FDF7C1F908B94A482867D5F880404E49C5
:10771000FDF7A2F918B94D49FDF7B5F910B945487B
:10772000C5F88000D5F884404749FDF795F918B9A8
:107730004649FDF7A8F910B94048C5F88400D5F8C6
:1077400088404149FDF788F918B94049FDF79BF990
:1077500010B93648C5F8880095F8C60332490228A2
:1077600024BF002085F8C60395F8CD03022824BF66
:10777000002085F8CD0395F8D003022824BF01200E
:1077800085F8D00395F8D603022824BF002085F899
:10779000D603AC6AFDF760F918B92D49FDF773F906
:1077A00008B90020A86295F8D303022824BF00205E
:1077B00085F8D30395F8D90310B1002085F8D903D3
:1077C00095F8C903022824BF002085F8C90395F85D
:1077D000E003043810F1030F9CBF022085F8E0039A
:1077E00095F8E203043810F1040F9CBF012085F8DE
:1077F000E20395F8E403043810F1040F9CBF012064
:1078000085F8E403012085F8E903BDE8F08700BFAF
:1078100002F8010800F00108042002401D71000870
:1078200023016745AB89EFCD0000C8420000A042AC
:107830000000BE43000048420000A0430000704228
:107840000000AF430000FA43000020430000A040C6
:107850000000C8C210B5074C0749206840F001007D
:107860002060A64801604FF48010FFF779FCFDF717
:1078700033BA00BF10200240384B544181B0016838
:10788000D0F801008DF800108DF801009DF801007E
:107890009DF8001041EA0020ADF80200BDF802009A
:1078A00001B0704710B5084C6FF002012160FFF77E
:1078B000B9FAA06840F48000A06020688007FCD579
:1078C000E06C80B210BD00BF0024014070B5264CB2
:1078D0004E4D2046A847FBF705F84D4EB061A01C61
:1078E000A847FAF7FFFFC6F89800201DA847FAF747
:1078F000F9FFB066A01DA847FAF7F4FFFDF7C1F93C
:10790000FAF7F0FFF06604F10A00A847FAF7EAFF79
:10791000FDF7ADF9FAF7E6FF306704F10E00A8476E
:10792000FAF7E0FFFDF79EF9FDF797F9FDF790F9FB
:10793000FDF789F9FDF77DF9FAF7D4FFB06204F19C
:107940001A00A847FDF770F9FDF769F9FDF762F92C
:10795000FDF75BF9FDF754F9FDF74DF9FAF7C2FFB2
:10796000C6F8BC0070BD00BF00F0010870B5264C21
:10797000264D2046A847FAF7B5FF254EB061A01C5A
:10798000A847FAF7AFFFC6F89800201DA847FAF7F6
:10799000A9FFB066A01DA847FAF7A4FFFDF771F98B
:1079A000FAF7A0FFF06604F10A00A847FAF79AFF79
:1079B000FDF75DF9FAF796FF306704F10E00A8476E
:1079C000FAF790FFFDF74EF9FDF747F9FDF740F99B
:1079D000FDF739F9FDF72DF9FAF784FFB06204F1EC
:1079E0001A00A847FDF720F9FDF719F9FDF712F97C
:1079F000FDF70BF9FDF704F9FDF7FDF8FAF772FF53
:107A0000C6F8BC0070BD00BF00F801087D78000812
:107A10009C140020F0B58B790A88032B0AD05BB93F
:107A20004979282913D0182912BF01F00F010261EA
:107A300008210EE000210CE00C79C97903F008035D
:107A400004F0040401F003012344194401E04261FD
:107A50000821130616D000230F240025082D11D06D
:107A600022FA05F6F6070AD0076804FA03F627EAB1
:107A70000606066001FA03F607683E430660043313
:107A80000135EBE7B2F5807F17D3120A00230F24EC
:107A90000025082D11D022FA05F6F6070AD047680E
:107AA00004FA03F627EA0606466001FA03F6476879
:107AB0003E43466004330135EBE7F0BD0B4890F8D8
:107AC0003300022818BF704710B5094C09482060E0
:107AD000094820600948FFF751FBFFF7BBFEE0684B
